:020000040800F2
:10000000900A0020A10100081B2400088920000894
:10001000192400082D070008CD3700080000000053
:100020000000000000000000000000001D25000886
:100030002F070008000000001D2400081F250008ED
:10004000BB010008BB010008BB010008BB010008A0
:10005000BB010008BB010008BB010008BB01000890
:10006000BB010008BB010008BB010008BB01000880
:10007000BB010008BB010008BB010008BB01000870
:10008000BB010008BB010008BB010008BB01000860
:10009000BB010008BB010008BB010008BB01000850
:1000A000BB010008BB010008BB010008BB01000840
:1000B000C9250008D5250008E1250008BB01000876
:1000C000BB010008BB010008BB010008BB01000820
:1000D000BB01000815370008213700082D3700083C
:1000E000BB010008BB010008BB010008BB01000800
:1000F000BB010008BB010008BB010008BB010008F0
:10010000BB010008BB010008BB010008BB010008DF
:10011000D1280008DD280008BB010008BB01000849
:10012000BB010008BB010008BB010008BB010008BF
:10013000BB010008BB010008BB010008BB010008AF
:10014000BB010008BB010008BB010008BB0100089F
:10015000BB010008BB010008BB010008BB0100088F
:10016000BB010008BB010008BB010008BB0100087F
:10017000BB010008BB010008BB0100080000000033
:10018000BB010008BB010008DFF810D000F072FAD4
:1001900000480047F93E0008AFF30080900A0020B5
:1001A0000648804706480047FEE7FEE7FEE7FEE711
:1001B000FEE7FEE7FEE7FEE7FEE7FEE7B9250008FB
:1001C000890100082DE9F05F0546002092469B4614
:1001D00088460646814640241BE02846414647465D
:1001E000224600F090F953465A46C01A914110D366
:1001F00011461846224600F077F92D1A67EB0108E0
:100200004F4622460120002100F06EF917EB00094D
:100210004E41201EA4F10104DFDC484631462A4647
:100220004346BDE8F09FD2B201E000F8012B491E21
:10023000FBD270470022F6E710B513460A46044683
:100240001946FFF7F0FF204610BD421C10F8011BB5
:100250000029FBD1801A70472DE9FE4F804681EAC4
:100260000300C00F0C46009021F0004123F0004530
:10027000B8EB0200A94105D24046214690461C46F3
:100280000B46024623F00040104347D0270DC7F32A
:100290000A00C3F30A510290401A019040286BDA19
:1002A000C3F3130040F4801B0098924620B1002352
:1002B000D2EB030A63EB0B0B01985946C0F14002E5
:1002C000504600F011F906460D4650465946019A2F
:1002D00000F029F910EB08006141002487EA11526F
:1002E00084EAE7731A4340D0009A62B3019A012A64
:1002F0004FEA075215DC001B61EB02014FF0004290
:1003000002EA0752CDE90042001C41F58011324655
:100310002B4600F060F903B0BDE8F08F404621465F
:10032000F9E7001B61EB0201001C41F58013001886
:100330005B412018A2F5001747EB030140EAD57096
:10034000B6196D4111E06D084FEA360645EAC075F1
:100350004FEA0752001B61EB0201001C41F58011BE
:1003600049084FEA30000019514132462B4603B08C
:10037000BDE8F04F00F020B90098012240000023B2
:10038000D0EB020263EBE073009821464FEAE07481
:10039000B8EB000061EB0401E9E783F000435BE7A1
:1003A00081F0004158E72DE9FE4F81EA030404F093
:1003B000004421F0004100944FF0000B23F0004373
:1003C00050EA01045ED052EA03045BD0C3F30A543E
:1003D000C1F30A552C44A4F2F3340194A0FB025457
:1003E000C1F3130141F48011C3F3130343F48013E9
:1003F00001FB024400FB034E840A970A44EA81543D
:1004000047EA8357A4FB076802958D0A05FB078519
:100410004FEA932C04FB0C542705029D4FEA065823
:1004200047EA1637B5EB08056EEB070C870E920E00
:1004300047EA811742EA8312A7FB0201B6EB0B01E0
:1004400064EB00042B0D43EA0C335E1844EB1C50A4
:10045000DA465146E7FB0201C5F313044FEA0B33BA
:1004600043EA14534FEA0432019C43EA0603A4F121
:100470000C040294009CCDE900B400F0ACF803B089
:10048000BDE8F08F00200146F9E700F0004230F0AF
:1004900000400AD0C10D01F56071C0F3160042EAB8
:1004A0000151C208400711437047002001467047C0
:1004B00001F0004330B421F0004150EA010206D0BF
:1004C0000A0DA2F56072C1F31301002A02DC30BCF0
:1004D00000207047440F44EAC104C100E01830BC5A
:1004E00000EBC25000F031B8202A04DB203A00FAB9
:1004F00002F1002070479140C2F1200320FA03F37B
:10050000194390407047202A04DB203A21FA02F078
:100510000021704721FA02F3D040C2F1200291403D
:10052000084319467047202A06DBCB17203A41FAC8
:1005300002F043EAE07306E041FA02F3D040C2F170
:10054000200291400843194670470029A8BF704710
:10055000401C490008BF20F00100704710B4B0FAF9
:1005600080FC00FA0CF050EA010404BF10BC704794
:1005700049B1CCF1200421FA04F411FA0CF118BFAE
:10058000012121430843A3EB0C01CB1D4FEA00617D
:100590004FEA102042BF002010BC704700EBC35050
:1005A00010440029A4BF10BC7047401C490008BF7C
:1005B00020F0010010BC704710B5141E73F1000448
:1005C00008DA401C41F1000192185B411A4301D145
:1005D00020F0010010BD2DE9F04D92469B4611B16F
:1005E000B1FA81F202E0B0FA80F220329046FFF7D1
:1005F0007BFF04460F4640EA0A0041EA0B015346DE
:100600005A46084313D0114653EA010019D0C8F1E5
:1006100040025046FFF777FF05460E4650465946C2
:100620004246FFF761FF084305D0012004E0204661
:100630003946BDE8F08D0020054346EAE0762C43BC
:1006400037430A986305E40AA0EB08000022FD0A7C
:1006500044EA47540A3002D500200146E9E7010583
:1006600010196941DDE9084500196941BDE8F04DFF
:10067000A2E70000064C074D06E0E06840F00103E9
:1006800094E8070098471034AC42F6D3FFF780FD9A
:10069000944A0008B44A000830B58C1810F8012BB1
:1006A00012F00F0301D110F8013B120906D110F826
:1006B000012B03E010F8015B01F8015B5B1EF9D12F
:1006C00001E001F8013B521EFBD1A142E6D300201C
:1006D00030BD000038B50546134C0020FE2DA0703B
:1006E00020D02078F0B103F047FA002818D0042178
:1006F000684603F00BFE042811D19DF80000A842C3
:100700000DD19DF80110022909D19DF80210801C1D
:100710000844C0439DF80320C0B2824201D00020AB
:1007200038BDA170012038BDE8000020FEE7704709
:100730001FB5002200928DF80000FE208DF8010008
:1007400098208DF8020001926B208DF803108DF82F
:100750000400029203920521684604F0C7F81FBD09
:100760001FB5002100918DF80000FF208DF80100D9
:1007700066208DF802006B200191029103918DF8A3
:1007800003000421684604F0B1F81FBD7FB50025C1
:1007900000958DF80000F6208DF8010001958DF888
:1007A0000210089C100A8DF804208DF803008DF8C3
:1007B00005308DF806406B208DF8070002950395F3
:1007C0000821684604F092F87FBD72B6FEE72DE975
:1007D000F0410446876D00F06DF9064694F8350047
:1007E0000025022806D08020606584F8345001205E
:1007F000BDE8F0812068016821F0160101602068E1
:10080000416921F080014161206C08B9A06C20B1E0
:100810002068016821F0080101602068016821F06A
:10082000010101600CE000F045F9801B052807D9A3
:1008300020206065032084F8350084F83450D7E721
:1008400020680068C007EED194F85C103F20884013
:10085000B860012084F8350084F834500020C7E7E0
:1008600090F83510022903D080214165012070479E
:10087000052180F835100068016821F00101016050
:100880000020704770B5044600F014F90546601C5E
:1008900002D004480078044400F00CF9401BA04248
:1008A000FAD370BDD80000202DE9F84FDFF8BCA1C5
:1008B0000022012503264FF00F090AF1040BAAF1CB
:1008C000040E00BF0B6805FA02F42340A34270D166
:1008D0000F7907F00307012F01D0022F16D1876887
:1008E0004FEA420806FA08FC27EA0C07D1F80CC0C8
:1008F0000CFA08FC4CEA070CC0F808C04768A7438C
:100900000C79C4F3001494403C4344600C79E443F4
:10091000A4070AD0C4684FEA420C06FA0CF7BC439D
:100920008F6807FA0CF72743C7600C7904F00304BB
:10093000022C12D1D40800EB840CDCF820405707BD
:10094000FF0E09FA07F824EA0804D1F8108008FA23
:1009500007F848EA0408CCF8208004684FEA420C03
:1009600006FA0CF7BC430F7907F0030707FA0CF7F8
:10097000274307604C6814F4403F70D03C4C276814
:1009800047F480472760246822F0030704F480447A
:100990000094384C07EB040CDCF8084897074FEA42
:1009A000177809FA08F7BC43334FB84202D1002741
:1009B00024E054E0314FB84201D101271EE0304F0E
:1009C000B84201D1022719E02E4FB84201D10327C6
:1009D00014E02D4FB84201D104270FE02B4FB8424D
:1009E00001D105270AE02A4FB84201D1062705E0C8
:1009F000284FB84201D1072700E0082707FA08F777
:100A00002743CCF80878DAF800405746D1F804C0FC
:100A10009C435FEACC2C00D51C433C60DBF80040D3
:100A20005F46D1F804C09C435FEA8C2C00D51C4380
:100A30003C60DEF800407746D1F804C09C435FEA92
:100A40008C3C00D51C433C60084F083F3C68D1F803
:100A500004C09C435FEACC3C00D51C433C60521C64
:100A6000102AFFF42FAFBDE8F88F0000083C0140CA
:100A700044380240003001400000024000040240BF
:100A800000080240000C0240001002400014024026
:100A900000180240001C0240426921EA02030A4099
:100AA00043EA0241816170470AB1816170470904DC
:100AB000FBE700000148806870470000D800002074
:100AC000024881680278114481607047D800002094
:100AD0000B4810B5016841F400710160016841F4F0
:100AE00080610160016841F480710160032000F0C1
:100AF0006FF80F2000F006F800F024F8002010BD79
:100B0000003C024070B50D4D04464FF47A712878D0
:100B1000B1FBF0F00A490968B1FBF0F000F00AFB04
:100B200048B9102C07D200222146501E00F030F8A0
:100B300000206C6070BD012070BD0000D800002056
:100B4000E40000200A4808B5016841F480410160D2
:100B5000006800F4804000900548001F016841F0E3
:100B600080510160006800F08050009008BD0000D6
:100B700044380240002809DB00F01F0201219140A7
:100B80004009800000F1E020C0F80011704700002B
:100B9000F0B40E4B1B680C46C3F30223C3F10705E8
:100BA000042D00D90425191D072901D2002300E0D6
:100BB000DB1E012606FA05F1491E214099409E40A0
:100BC000761E16403143F0BC02F023BE0CED00E06F
:100BD000064900F0070208684FF6FF03184040EA94
:100BE0000220034A10430860704700000CED00E04B
:100BF0000000FA052DE9F0470E46050065D0DFF844
:100C00001481D8F80000F7B200F00700B04207D214
:100C100088F80070D8F8000000F00700B04254D106
:100C200028683D4C810712D5400703D5206840F461
:100C3000E05020602878000703D5206840F4604029
:100C400020602068A96820F0F00008432060287820
:100C5000C0072DD0304968680839012812D0022811
:100C600013D0032811D00968890700292DDA2168DB
:100C700021F0030101432160FFF71CFF814641F28F
:100C8000883A0EE009688903EFE709688901ECE713
:100C9000FFF710FFA0EB0901514502D90320BDE881
:100CA000F0872068696800F00C00B0EB810FEFD18D
:100CB000D8F80010404601F00701B14207D907708B
:100CC000006800F00700B04201D00120E7E7287873
:100CD000400705D52068E96820F4E050084320600B
:100CE0002878000706D52068296920F4604040EA8A
:100CF000C100206000F038F82168084AC1F30311F0
:100D0000515CC8400649086006480068FFF7FAFED3
:100D10000020C4E7003C024008380240744A000842
:100D2000E4000020DC000020044805490068096850
:100D3000044AC1F38221515CC8407047E40000209E
:100D400008380240844A00080448054900680968D8
:100D5000044AC1F34231515CC8407047E4000020AE
:100D600008380240844A0008154810B5006810F0A1
:100D70000C02144813D04110042A0FD0082A0ED1B7
:100D80000F4C241F2268236802F03F025B0207D544
:100D90002068C0F38810A0FB010106E0084610BDE2
:100DA0002168C1F38811A1FB00010023FFF70AFAB3
:100DB0002168C1F30141491C4900B0FBF1F010BDAD
:100DC000083802400024F4002DE9F84F04006ED0EA
:100DD0002078DFF84C93C007A9F104054AD009F147
:100DE00004000168C1F38101012908D00068C0F343
:100DF000810002280AD1D9F80000400206D52868EF
:100E0000800337D560680028E1D033E06068B0F532
:100E1000803F10D0B0F5A02F286810D020F480308B
:100E20002860286820F4802028606068A8B1FFF757
:100E300041FE06460DE0286840F48030F4E740F4B7
:100E400080202860F7E700BFFFF734FE801B64288E
:100E500073D828688003F7D50CE0FFF72BFE064611
:100E600005E000BFFFF726FE801B6428F0D8286845
:100E70008003F7D42078DFF8AC8280074FF0000AB7
:100E80003ED5A748001D016811F00C0F08D000687E
:100E9000C0F3810002280BD1D9F80000400207D42A
:100EA0002868800716D5E068012800D112E033E1F8
:100EB000E068B8B10120C8F80000FFF7FBFD064666
:100EC00005E000BFFFF7F6FD801B0228C0D82868A8
:100ED0008007F7D52868216920F0F80040EAC100B2
:100EE00028600DE0C8F800A0FFF7E4FD064604E026
:100EF000FFF7E0FD801B02281FD828688007F7D481
:100F00002078000722D5864F87486169703771B114
:100F100001210160FFF7CEFD064604E0FFF7CAFDA0
:100F2000801B022809D838688007F7D50EE0C0F882
:100F300000A0FFF7BFFD064605E082E0FFF7BAFD1F
:100F4000801B02287DD838688007F7D420784007B6
:100F500068D5DFF8CCB100270BF13C0BDBF80000C3
:100F6000C0000BD4DBF8001041F08051CBF800102A
:100F7000DBF80000012700F0805000906B4E3068D5
:100F8000C00510D4306840F480703060FFF792FDE7
:100F9000009005E0FFF78EFD0099401A022850D816
:100FA0003068C005F6D55E4EA0686C3601280FD0BB
:100FB0000528306810D020F001003060306820F043
:100FC00004003060A068B8B1FFF774FD00900FE036
:100FD000306840F00100F4E740F004003060F7E7CB
:100FE000FFF768FD0099411A41F28830814266D8C6
:100FF00030688007F4D50EE0FFF75CFD009007E055
:10100000FFF758FD0099411A41F28830814256D8C5
:1010100030688007F4D42FB1DBF8001021F0805144
:10102000CBF80010A069C8B33D49091D0968C1F398
:10103000810102294AD00228504607D0C8F8600032
:1010400000E03CE0FFF736FD04463BE04746C8F8C9
:101050006000FFF72FFD064605E000BFFFF72AFD01
:10106000801B02282BD828688001F7D4D4E9070117
:101070000843A16A2E4A490802EB0141626A41EA2B
:101080008211084394F82C1040EA0161C9F800105D
:1010900001203866FFF70EFD044606E03EE000BF83
:1010A000FFF708FD001B022809D828688001F7D542
:1010B00034E000BFFFF7FEFC001B022802D903202A
:1010C000BDE8F88F28688001F4D427E00128F7D024
:1010D000D9F80000E26900F4800191421CD1226A33
:1010E00000F03F01914217D147F6C071626A01409A
:1010F000B1EB821F10D1A26A4FF0FF3300F44031F0
:1011000003EB5202B1EB024F06D194F82C1000F021
:101110007060B0EB016F01D00120D1E70020CFE774
:101120000438024000004742800E474200700040F1
:101130000000FFFF10B5401EB0F1807F01D30120F9
:1011400010BD4FF0E02460610F21601702F061FBD9
:101150000020A06107202061002010BD704770476B
:1011600070B590F83C20012A32D0012480F83C4030
:10117000022280F83D2003685A689D6822F07006BC
:101180000A6832435A60134B02689A4214D0B2F193
:10119000804F11D0104B9A420ED0104B9A420BD078
:1011A0000F4B9A4208D00F4B9A4205D00E4B9A42F1
:1011B00002D00E4B9A4204D1496825F080031943AE
:1011C000916080F83D40002180F83C10084670BDD9
:1011D000022070BD000001400004004000080040F3
:1011E000000C004000040140004001400018004095
:1011F00010B5040003D094F83D0010B107E00120C1
:1012000010BD002084F83C00204600F01FF80220AA
:1012100084F83D00211D206801F0E8F9012084F8E0
:10122000460084F83E0084F83F0084F8400084F8CB
:10123000410084F8420084F8430084F8440084F8B4
:10124000450084F83D00002010BD000008B501688D
:101250001D48B1F1804F11D01C4A91421DD1016847
:1012600041F0020101600068002200F002000090DD
:1012700011461D20FFF78CFC1D201FE0016841F086
:10128000010101600068002200F001000090114699
:101290001C20FFF77DFC1C2010E00D4A914211D16B
:1012A000016841F0040101600068002200F00400C0
:1012B000009011461E20FFF76BFC1E20BDE8084081
:1012C000FFF758BC08BD0000403802400004004051
:1012D0000008004090F83D10012901D0012070471E
:1012E000022180F83D100168CA6842F00102CA601C
:1012F00000681149884214D0B0F1804F11D00F49D5
:1013000088420ED00E4988420BD00E49884208D040
:101310000D49884205D00D49884202D00C498842C7
:1013200004D1816801F00701062903D0016841F06A
:1013300001010160002070470000014000040040EE
:1013400000080040000C0040000401400040014043
:101350000018004070B5044690F83C0000250128B4
:1013600017D0012684F83C60022084F83D002068F4
:10137000826822F0770222F47F4282600868502857
:1013800038D00DDC20284FD005DC90B3102811D1C7
:101390004AE0022070BD302846D040280AD13BE008
:1013A00060282FD070280DD0B0F5805F03D0B0F545
:1013B000005F12D0012584F83D60002084F83C00D5
:1013C000284670BDCB68D1E90121206801F087F97A
:1013D0002068816841F0770109E0CB68D1E90121FB
:1013E000206801F07CF92068816841F480418160C7
:1013F000E1E719E0CA684968206801F045FA502120
:10140000206806E0CA684968206801F04EFA602149
:10141000206801F06EF9CEE7CA684968206801F0DB
:1014200033FA40212068F4E7226801461046F0E7CD
:1014300070472DE9F04104460068C66805694FF021
:101440000007A90713D5B10711D5F91E01610120C5
:101450002077206880698007204602D0FFF7E8FFE8
:1014600004E000F0A9F8204600F03BF92777680770
:1014700016D5700714D521686FF0040008610220AA
:1014800020772068806910F4407F204602D0FFF763
:10149000CFFF04E000F090F8204600F022F9277713
:1014A000280715D5300713D521686FF008000861AB
:1014B000042020772068C0698007204602D0FFF70B
:1014C000B7FF04E000F078F8204600F00AF927772B
:1014D000E80616D5F00614D521686FF010000861F3
:1014E000082020772068C06910F4407F204602D091
:1014F000FFF79EFF04E000F05FF8204600F0F1F8EF
:101500002777E80708D0F00706D021686FF00100C0
:101510000861204600F04AF9280608D5300606D5AD
:1015200021686FF0800008612046FFF717FE68060B
:1015300008D5700606D521686FF040000861204686
:1015400000F02AFAA8060AD5B00608D521686FF07F
:10155000200008612046BDE8F041FFF700BEBDE86D
:10156000F081000010B586B0044614216846FEF7ED
:1015700061FE0E492068884215D10D48002102689D
:1015800042F008020260006800F0080005904FF485
:10159000704000900220CDE90101CDE903106946B9
:1015A0000448FFF781F906B010BD000000080040B4
:1015B00030380240000C0240704770B5044690F885
:1015C0003C0000260D4601280FD0012084F83C0085
:1015D0006AB1042A1DD0082A2FD00C2A3FD0012638
:1015E000002084F83C00304670BD022070BD2068A9
:1015F00001F088F82068816941F008018161206864
:10160000816921F004018161206881692A6911439F
:1016100011E0206801F0A6F82068816941F40061BA
:1016200081612068816921F480618161206881691C
:101630002A6941EA02218161D2E7206801F0C8F8F5
:101640002068C16941F00801C1612068C16921F0C9
:101650000401C1612068C1692A69114311E0206851
:1016600001F0EAF82068C16941F40061C1612068B5
:10167000C16921F48061C1612068C1692A6941EAB8
:101680000221C161ACE710B5040003D094F83D001D
:1016900010B107E0012010BD002084F83C00204676
:1016A00000F01EF8022084F83D00211D206800F0A3
:1016B0009DFF012084F8460084F83E0084F83F0036
:1016C00084F8400084F8410084F8420084F8430024
:1016D00084F8440084F8450084F83D00002010BDE3
:1016E0007047704710B50446022249B104290ED054
:1016F000082913D094F84100012816D0012010BD0C
:1017000094F83E000128F9D184F83E200FE094F8C7
:101710003F000128F2D184F83F2008E094F840000F
:101720000128EBD184F8402001E084F84120012217
:10173000206800F0C7FF16492068164A884201D089
:10174000904203D1436C43F40043436420688842D1
:1017500013D0B0F1804F10D00F4988420DD00F49FF
:1017600088420AD00E49884207D0904205D00D49E0
:10177000884202D00C49884204D1816801F00701F7
:10178000062903D0016841F001010160002010BD6D
:101790000000014000040140000400400008004037
:1017A000000C004000400140001800402DE9F047C7
:1017B00006460068DFF8BC9100256F4CB0F1804F01
:1017C00012D16068401C6060A068401CA0606B483B
:1017D0000168012902D1056001F0F0F901F0F0F98A
:1017E0006168494500DD65606549306888427CD1A3
:1017F0002068DFF894A1401C20606248006801283E
:1018000053D1E0684FF0010801283DD1A0690128BB
:101810002BD1206A062801DA401C20625B4E012889
:1018200005D1012196ED000A002002F065FF206A33
:10183000022805D1022196ED000A002002F05CFF8B
:10184000206A032805D1032196ED000A002002F04A
:1018500053FF206A042805D1042196ED000A0020D8
:1018600002F04AFF206A052803D0E069012808D069
:101870000AE0052196ED000A002002F03DFFC4F8C1
:101880001C80A561E56125622069012865D1606938
:10189000012862D1A069012808D0002220215046E9
:1018A000FFF702F9E069012852D056E00122202119
:1018B0005046FFF7F9F8A06A08B9C4F82880206AF2
:1018C000062840DA401C324E324F2062012808D1EF
:1018D00094F82C000121D6ED000A97ED000A02F0E1
:1018E000ADFB206A02280AD100E040E094F82C0009
:1018F0000221D6ED000A97ED000A02F09FFB206A54
:10190000032808D194F82C000321D6ED000A97EDA6
:10191000000A02F093FB206A042808D194F82C00F6
:101920000421D6ED000A97ED000A02F087FB206A39
:10193000052808D194F82C000521D6ED000A97ED72
:10194000000A02F07BFB206A0628ABD1C4F81C8099
:101950006562A561A562E56125622168494506DDEC
:1019600050462560BDE8F0472021FFF795B8BDE857
:10197000F0870000A0860100CC010020300000208C
:1019800000040040480000200008024048010020F8
:101990004401002040010020704718B5034690F82C
:1019A0004200202801D0022018BD61B15AB10120A7
:1019B000186300205863184601F0ACF80028F3D1F2
:1019C000196B012901D0012018BD19680A684968FE
:1019D000009119680C3151E8002F42F0100241E8E3
:1019E0000024002CF5D118BD70B5134A01680125FB
:1019F000124C914205D128221149FFF7CEFF2563F1
:101A000070BD104A9142FBD128220F49FFF7C5FF54
:101A10000D49C8782B2809D10C4A00200B5C1354BF
:101A2000401C0728FADBE06A00B9E562BDE87040B7
:101A300032210548FEF7FEBB0048004000000020B0
:101A4000AA050020004C00405C0600202C0200206B
:101A500070470000F8B5016804460868CA684B6919
:101A600010F00F0F4FF0000559D003F0010602F4FB
:101A70009077374365D0C10705D0D10503D5616C98
:101A800041F001016164410705D5D90703D0616CBC
:101A900041F002016164810705D5D90703D0616C6B
:101AA00041F004016164010707D502F020013143D0
:101AB00003D0616C41F008016164616C00293AD087
:101AC000800604D5900602D5204600F03CFF206831
:101AD0004069616CC0F38010090700D460B32046F0
:101AE00000F00AFF20684069400621D520681430C4
:101AF00050E8001F21F0400140E80012002AF5D113
:101B0000E06BA8B16E490165E06BFEF7A9FE002805
:101B100011D0E06B016D01B0BDE8F04008478306CD
:101B20000FD593060DD52046BDE8F84000F00BBF59
:101B30002046FFF78DFFF8BD2046FFF789FF65645B
:101B4000F8BD266B2023012E7DD1C6067BD5D60697
:101B500079D508684868009048694FF00206400649
:101B600041D5E16B086840680004000CE8D0A28D04
:101B70008242E5D9E085C869B0F5807F2DD0206824
:101B80000C3050E8001F21F4807140E80012002A58
:101B9000F5D12068143050E8001F21F0010140E821
:101BA0000012002AF5D12068143050E8001F21F0FF
:101BB000400140E80012002AF5D184F84230256344
:101BC00020680C3050E8001F21F0100140E800129E
:101BD000002AF5D1E06BFEF7FAFD6663A08DE18D7A
:101BE000401A81B22AE0A08DE18D401A81B2E08DC9
:101BF0000028A5D00029A3D022680C3252E8000F9B
:101C000020F4907042E80007002FF5D120681430CE
:101C100050E8002F22F0010240E80027002FF5D104
:101C200084F84230256320680C3050E8002F22F001
:101C3000100240E80023002BF5D166632046FFF731
:101C4000D3FEF8BDFFE705062BD5150629D594F878
:101C500041002128F5D1A068B0F5805F01D120694D
:101C6000B0B1206A411C2162216800784860E08C94
:101C7000401E0004000CE084E3D12068C16821F01C
:101C80008001C1602068C16841F04001C160D8E7AF
:101C9000206A0088C0F308004860206A801C206227
:101CA000E5E74006CDD55006CBD5CA68204622F0E0
:101CB0004002CA6084F8413000F0E5F9C1E7000055
:101CC000E928000870B5040004D094F8410000250C
:101CD00010B106E0012070BD84F84050204600F0AD
:101CE00023F8242084F841002068C16821F40051C1
:101CF000C160204600F088FE2068016921F490410F
:101D000001612068416921F02A0141612068C168B0
:101D100041F40051C1606564202084F8410084F8DA
:101D200042006563002070BD2DE9F04186B0044695
:101D300014216846FEF77EFA6E49DFF8B4C12368C5
:101D400000246C4A10390325022608276A48634597
:101D50001ED1136843F400231360126802F40022BA
:101D600005920A6842F001020A600968CDE900564E
:101D700001F00101CDE904716946CDE90245FEF7A4
:101D800093FD002211463420FEF702FF342038E094
:101D9000DFF868C1DFF86881634537D1106840F427
:101DA00080101060106800F480100590086840F002
:101DB00004000860086800F004000590086840F01E
:101DC00008000860086802AB00F0080005904FF4B6
:101DD0008050CDE9000683E8B00069464948FEF727
:101DE00063FD0420CDE9000602AB694683E8B0003C
:101DF0004046FEF759FD002211463520FEF7C8FE89
:101E00003520FEF7B7FE06B0BDE8F081DFF8F8C078
:101E10000727634522D1374A121D136843F0100388
:101E20001360126802F0100205920A6842F0010283
:101E30000A60096802AA01F0010105914FF4C0612E
:101E4000CDE9001682E8B0006946FEF72DFD0022BC
:101E500011462520FEF79CFE2520D2E72B48834221
:101E600020D1106840F400301060106800F4003099
:101E70000590086840F008000860086802AB00F0B0
:101E8000080005906020CDE9000683E8B0006946AF
:101E90004046FEF709FD002211462620FEF778FE97
:101EA0002620AEE71A488342ADD1106840F4802066
:101EB0001060106800F480200590086840F002006F
:101EC0000860086802AB00F0020005904FF4406023
:101ED000CDE9000683E8B00069460E48FEF7E4FC51
:101EE000002211462720FEF753FE272089E7000035
:101EF000004C0040403802400000024000500040CA
:101F0000000C024000080240001001400044004064
:101F100000480040000402402DE9F84F044690F8C4
:101F200042009A4616460D46202802D00220BDE8FF
:101F3000F88FB5B1AEB100206064222184F8421060
:101F40002063FEF7B7FDA6858146E685A0684FF4BD
:101F500080582027404501D1206920B12E46002518
:101F600029E00120E3E7002625E04B46002220215E
:101F70002046CDF800A000F0E8FD18B184F84270CA
:101F80000320D4E726B1A06840451AD038B108E054
:101F900020684068C0F3080025F8020B08E02069BB
:101FA00078B12068406800F07F0000BF06F8010BA0
:101FB000E08D401EE085E08D0028D6D184F8427087
:101FC000B5E720684068F1E790F84230202B01D057
:101FD0000220704721B11AB10023036300F09ABDBB
:101FE0000120704770472DE9F843044690F84100FE
:101FF000984616460D46202802D00220BDE8F883F8
:1020000085B17EB100206064212084F84100FEF794
:1020100051FDA6848146E684A0682027B0F5805F44
:1020200002D003E00120E9E7206910B12E46002527
:102030000EE000260CE08021204600F086FDA8B9C5
:10204000C6B116F8010B21684860E08C401EE084A0
:10205000E08C4B464FF00002CDF800800028EAD11A
:102060004FF04001204600F070FD40B184F841700F
:102070000320C3E735F8020BC0F30800E3E784F858
:1020800041700020BAE77047FEE70000064B10B52C
:102090005C78C2F30723D2B214B103700A7010BD8A
:1020A0000B70027010BD0000E8000020F0B587B092
:1020B00014216846FEF7BEF825480025016841F066
:1020C00080010160016801F080010591016841F023
:1020D00001010160016801F001010591016841F011
:1020E00004010160016801F004010591016841F0FB
:1020F00002010160016801F002010591016841F0EF
:10210000080101600068134E00F0080005900022ED
:1021100020213046FEF7C8FC0F4F0022042138462C
:10212000FEF7C2FC01242020CDE9000469463046B8
:10213000CDE90245FEF7B8FB0420CDE9000469466D
:102140003846CDE90245FEF7AFFB07B0F0BD000011
:1021500030380240000802400004024010B586B04A
:1021600000241848009401940294039404944FF0BE
:1021700080410594016040F28F61C0E901144FF481
:102180007A71C0E9031480218161FFF731F808B149
:10219000FEF71BFB4FF48050009069460948FFF79B
:1021A000D9F808B1FEF711FB2020CDE9040404A9F9
:1021B0000448FEF7D5FF002801D0FEF706FB06B065
:1021C00010BD00006002002010B586B00024184841
:1021D00000940194029403940494144905940160BA
:1021E00040F28F61C0E901144FF47A71C0E9031421
:1021F00080218161FEF7FCFF08B1FEF7E6FA4FF49B
:102200008050009069460A48FFF7A4F808B1FEF72D
:10221000DCFA2020CDE9040404A90548FEF7A0FF5C
:10222000002801D0FEF7D1FA06B010BD000400402E
:10223000A802002010B58EB00024079408940994D9
:102240000A940B941C2168460C94FDF7F3FF2B486D
:102250002949016040F28F61C0E9011440F2E73181
:10226000C0E903148461FEF7C3FF08B1FEF7ADFABD
:102270004FF48050079007A92048FFF76BF808B18A
:10228000FEF7A3FA1D48FFF7FEF908B1FEF79DFA25
:102290000B940BA919480C94FEF762FF08B1FEF7E6
:1022A00094FA6020CDE900040294002269461348A4
:1022B0000494FFF782F908B1FEF787FA0422694611
:1022C0000E48FFF77AF908B1FEF77FFA082269464F
:1022D0000A48FFF772F908B1FEF777FA0C2269464F
:1022E0000648FFF76AF908B1FEF76FFA0348FFF7EF
:1022F00039F90EB010BD000000080040F0020020C7
:102300000C4810B50A4901604FF4E13141600021E9
:1023100081600C22C160C0E904128161C161FFF7D4
:10232000D1FC002803D0BDE81040FEF74EBA10BD26
:10233000004C0040380300200C4810B50A490160E9
:102340004FF416514160002181600C22C160C0E948
:1023500004128161C161FFF7B5FC002803D0BDE81C
:102360001040FEF732BA10BD00500040800300203C
:102370000C4810B50A4901604FF4E1314160002179
:1023800081600C22C160C0E904128161C161FFF764
:1023900099FC002803D0BDE81040FEF716BA10BD26
:1023A00000100140C80300200C4810B50A49016024
:1023B0004FF4E1314160002181600C22C160C0E92D
:1023C00004128161C161FFF77DFC002803D0BDE8E4
:1023D0001040FEF7FAB910BD004400401004002080
:1023E0000C4810B50A4901604FF4E1314160002109
:1023F00081600C22C160C0E904128161C161FFF7F4
:1024000061FC002803D0BDE81040FEF7DEB910BD26
:102410000048004058040020FEE7FEE77047000037
:102420007FB582B015460C46064601F06DFF0220CE
:102430000090012305AA2146304602F08FFA02F0EF
:102440006BFA01F099FB002832D01C4E00200321CA
:10245000B07001A801F05AFF032828D19DF814108C
:10246000284601F053FF9DF81410044688421ED1FF
:1024700001210DF1070001F049FF012817D19DF856
:1024800004009DF805109DF8062008441044C1B2D0
:10249000002004E02B5C401C1944C9B2C0B2A04229
:1024A000F8DBC8439DF80710C0B2814202D000207B
:1024B00006B070BDB2702046FAE70000E8000020C8
:1024C00010B50E4C411C08D000212160C0B238214B
:1024D00001F024FF411C0ED004E009484178007847
:1024E00040EA01202168002904D1010402D520F42A
:1024F0000040404210BD0121216010BD04010020B8
:102500002005002002460448407810B141EA02202C
:10251000704742EA01207047E80000207047FEF74C
:10252000CFBA000030B593B030216846FDF782FE87
:1025300014210CA8FDF77EFE1D480025016841F01E
:1025400080510160006800F08050119019480168C6
:1025500041F4804101600068022400F48040119041
:1025600001200090000401908001CDE9064008AAF6
:102570000420A82182E813000B906846FEF724FC93
:1025800008B172B6FEE70CA90F2081E831004FF4C4
:10259000A0500F904FF48050109005210CA8FEF72A
:1025A00029FB002801D072B6FEE713B030BD000051
:1025B00040380240007000400248016841F4700158
:1025C0000160704788ED00E00148FEF732BF00006F
:1025D000600200200148FEF72CBF0000A802002086
:1025E0000148FEF726BF0000F0020020F0B50268A7
:1025F000294C2A4D2A4E2B4F2B4B4FF0804CA0429A
:1026000009D0604507D0A84205D0B04203D0B842F7
:1026100001D0984204D122F0700E4A6842EA0E02BC
:10262000A0421BD0604519D0A84217D0B04215D0A7
:10263000B84213D0984211D01C4DA8420ED01C4D68
:10264000A8420BD01B4DA84208D01B4DA84205D074
:102650001A4DA84202D01A4DA84203D122F4407567
:10266000CA682A434D6922F080022A4302608A68C0
:10267000C2620A688262A04201D0984201D109690F
:102680000163012141610169C90703D0016921F09A
:1026900001010161F0BD00000000014000040040A4
:1026A00000080040000C00400004014000400140D0
:1026B000004401400048014000180040001C004058
:1026C0000020004010B501F01F030121046A994069
:1026D0008C430462016A9A401143016210BD10B537
:1026E000846842EA032224F47F440A43224382603E
:1026F00010BD826822F070020A4342F00701816037
:1027000070470000F0B5036A026A22F0010202621B
:1027100042688469124E24F073050C682C4323F040
:1027200002058B682B430D4DA84201D0B04205D164
:1027300023F00807CB683B4323F00403A84201D0F1
:10274000B04205D14D6922F4407215438A692A438B
:1027500042608461496841630362F0BD000001404A
:1027600000040140F0B5026A036A23F0100303621B
:10277000436884690D6824F4E64444EA05248D68BE
:1027800022F0200242EA05120F4D104EA84201D05D
:10279000B04206D1CF6822F0800242EA071222F04E
:1027A0004002A84201D0B04207D14D6923F44063F2
:1027B00043EA85038D6943EA850343608461496880
:1027C00081630262F0BD000000000140000401408E
:1027D000F0B5026A036A23F4807303624368C46934
:1027E00022F4007224F073050C68124E2C438D689D
:1027F00042EA05220E4DA84201D0B04206D1CF6870
:1028000022F4006242EA072222F48062A84201D048
:10281000B04207D14D6923F4405343EA05138D6953
:1028200043EA05134360C4614968C1630262F0BDB5
:10283000000001400004014030B5046A026A22F43D
:10284000805202624268C3690D6823F4E64343EA9A
:1028500005238D6824F4005444EA0534084DA84249
:1028600002D0084DA84204D14D6922F4804242EAC8
:1028700085124260C36149680164046230BD000092
:10288000000001400004014010B5036A046A24F00E
:1028900001040462846924F0F00444EA021423F081
:1028A0000A020A438461026210BD10B5036A046A19
:1028B00024F010040462846923F0A00324F470441B
:1028C00044EA023243EA01118261016210BD000054
:1028D0000148FFF7BFB80000380300200148FFF7A8
:1028E000B9B800008003002010B5806B0021C185BD
:1028F000C184FFF7ADF810BD01680C3151E8002F1D
:1029000022F4907241E80023002BF5D101681431C4
:1029100051E8002F22F0010241E80023002BF5D1FD
:10292000016B012909D101680C3151E8002F22F017
:10293000100241E80023002BF5D1202180F842103D
:1029400000210163704708B590F84210222901D098
:10295000022008BD82684FF480539A4201D1016978
:1029600021B1816A9A421BD04AB10AE00268816AA9
:102970005268C2F308020A80816A891C08E0026971
:1029800072B10268526802F07F020A70816A491CC3
:102990008162C18D491E0904090CC18503D01BE069
:1029A00002685268F1E70168CA6822F02002CA6032
:1029B0000168CA6822F48072CA6001684A6922F01C
:1029C00001024A61202180F8421000214163026B1C
:1029D000012A03D0FFF706FB002008BD0163016850
:1029E0000C3151E8002F22F0100241E80023002BA7
:1029F000F5D101680A68D20602D50A6849680091D3
:102A0000818DFEF7F1FFE7E770B5044600680169C4
:102A1000E26821F44051114301612169A068E26933
:102A200008436169114308432168CA6849F20C638D
:102A30009A430243CA6020684169A26921F4407147
:102A40001143416131492068884202D030498842AF
:102A500002D1FEF779F901E0FEF766F9E269002399
:102A6000192164253226B2F5004F626828D0A0FBF8
:102A70000101930F9200FDF7A5FB0146B0FBF5F0B5
:102A80006FF01802504301EB800006EB0010B0FB22
:102A9000F5F000F0F002B1FBF5F002EB0012B1FB33
:102AA000F5F06FF01803584301EB800006EB0010BF
:102AB000B0FBF5F000F00F0021681044886070BD95
:102AC000A0FB010192185B41FDF77CFB0146B0FBC6
:102AD000F5F00201B1FBF5F06FF01803584301EB7C
:102AE000800006EBC000B0FBF5F000F0F80002EB50
:102AF0004002B1FBF5F0584301EB800006EBC0004B
:102B0000B0FBF5F000F00700D6E700000010014030
:102B10000014014081628285C28500214164222126
:102B200080F84210016921B10168CA6842F48072DC
:102B3000CA6001684A6942F001024A610068C168DE
:102B400041F02001C160002070472DE9F84398460C
:102B500017460D460446089E24E0701C22D0FDF75F
:102B6000A9FFA0EB0800B0421AD8CEB12068C16816
:102B7000490717D5802D15D0402D13D00168C943C2
:102B800009070FD401680025406800902046FFF730
:102B9000B3FE0820606484F840500120BDE8F8834B
:102BA0000320FBE72068006835EA000004D000201D
:102BB000B842D2D00020F1E70120F9E700F002B8D6
:102BC000704700002DE9F04FFE48FF492DED0C8BBA
:102BD00083B002684878012A01D1FC4A1060FC4A9F
:102BE0001368F94C0025012B247804D13F2C02D125
:102BF000032800D11560F74B01221E6826B93F2C2F
:102C000002D1772800D11A60DFF8CC83DFF8CCE35B
:102C10004FF0030BD8F80030012B02D0022B07D065
:102C20001AE03F2C18D1442816D1CEF8005013E0FA
:102C3000252C11D1EA4F0123CE5C012E03D0022EA8
:102C400001D0032E03D107EB830C4CF8046C5B1C02
:102C5000042BF1DBC8F800B0E24B1B68012B05D157
:102C60003F2C03D1272801D1DF4B1A60DF4B1E68B0
:102C7000022E04D13F2C02D1612800D11A60DC4B16
:102C80001E6826B93F2C02D1622800D11A60D94FA4
:102C9000CD4BD7F800C09E790096B3F80490DE784B
:102CA000BCF1010F03D0BCF1020F28D03AE0009B29
:102CB000212B37D1C44BDFF840C3012CB3F80130CE
:102CC00002D0022C02D005E05BBA01E05BBA5B42A5
:102CD000CCF80030C94B012E02D0022E03D008E000
:102CE00099FA99FC03E099FA99FCCCF1000CC3F82D
:102CF00000C0102816D13F2C14D13D6012E00728E7
:102D000004D0082806D009280AD00BE03F2C09D1AE
:102D1000BB4802E03F2C05D1BA4802604D7001E08B
:102D20003F2C07D0B84A01201060A7484178882975
:102D300002D006E0B548F0E73F2C02D1B44A0120AA
:102D40001060DFF8D0A2DAF80070022F16DA9E4B7E
:102D50002A2C13D1DFF8C0C201201A5C012A03D04B
:102D6000022A01D0032A03D10CEB800848F8042C76
:102D7000401C0728F1DB7F1CCAF80070A74B1868BD
:102D800001283ED1009A9048212A3AD1A44AA54F61
:102D9000012C02D0022C04D016E0B0F8010040BA99
:102DA00003E0B0F8010040BA404210601068D7ED6F
:102DB000000A00EE100AB8EEC00A20EE200ABDEEAE
:102DC000C00A10EE100A10609748984A012E02D0EF
:102DD000022E03D015E099FA99F702E099FA99F7D3
:102DE0007F4207600768D2ED000A00EE107AB8EE65
:102DF000C00A20EE200ABDEEC00A10EE102A0260C2
:102E00001D608B480068012805D1032903D13F2CA0
:102E100001D1884A106088480068012814D16A48A6
:102E2000864A072904D0082906D009290AD00BE0D0
:102E30003F2C09D1012102E03F2C05D10221116074
:102E4000457001E03F2C1BD064487D4B7D4A0168F2
:102E50007D480191D3ED00BA92ED00BAD0ED009A11
:102E6000B8EE00DAB0EE009A9FED78AB5648DFF886
:102E7000E481DFF8E4B190F802A0012902D0FCE17E
:102E80005946DCE75048017A2129F8D17549734A3F
:102E9000734B91ED190AD1ED180A012C02D0022CC6
:102EA0003ED084E041786F4F01EE101AB8EE411A1F
:102EB00061EE2B1A01EE101AB8EE411A31EE201A0B
:102EC00031EE001A4BEE011A01EE101AB8EE411A5B
:102ED00000EE8D1A31EE000A49EE801ABDEEE10ACD
:102EE00087ED1A0AF8EEC00A92ED001AF4EEC10A54
:102EF000F1EE10FA08DCF8EEC00A93ED001AF4EED9
:102F0000C10AF1EE10FA02D2B0EE410A01E0B8EEC9
:102F1000C00A88ED000A00EE101AB8EE400A42E03E
:102F20004178504F01EE101AB8EE411A30EEC11A36
:102F300031EE001A61EE0B1A01EE101AB8EE411ACA
:102F40004BEEC11A01EE101AB8EE411A10EE8D1AAE
:102F500031EE000A49EE801ABDEEE10A87ED1A0A49
:102F6000D2ED000AB8EEC01AF1EE600AB4EEE01A33
:102F7000F1EE10FA0AD3D3ED000AB8EEC01AF1EE62
:102F8000600AB4EEE01AF1EE10FA02DDC8ED000AB4
:102F900003E0B8EEC00A88ED000A00EE101AB8EEA1
:102FA000400AB1EE400A87ED180A87ED190A064972
:102FB000BAF1010FB1F8031056D0BAF1020F59D08F
:102FC00062E00000D0000020AA050020D40000200C
:102FD000380000207400002008000020FC010020C0
:102FE00000020020C4000020C8000020CC00002007
:102FF0006C000020B4000020AC000020B0000020D5
:10300000B8000020BC000020E4010020C000002027
:10301000A8000020A4000020800000204000002024
:10302000080100206C4A00080C010020704A0008CA
:103030005C00002058000020340000203C000020EC
:10304000244A0008284A00082C4A00080000000012
:103050000000E03F48010020440100203C4A0008F5
:10306000404A00085C01002049BA00EE101AB8EE90
:10307000400A06E049BA00EE101AB8EE400AB1EE76
:10308000400AFE4981ED000A4179FD480129C088C6
:1030900002D0022906D00EE040BA00EE100AB8EEC7
:1030A000400A06E040BA00EE100AB8EE400AB1EE5F
:1030B000400A8BED000AF148F44F90ED000AF14808
:1030C000D0ED000AF04820EE208A9BED000A80ED4A
:1030D000028A60EE208A78EE08DAC0ED058A80ED7B
:1030E000038AB0EE6D0AC0ED068A08EE490A80ED4B
:1030F000048AC0ED078AD7ED000A20EE200A10EE00
:10310000100AFDF7C2F953EC1A2BFDF74CF941EC0C
:103110001C0BDF487DEE880A90ED000ADD4820EEAA
:10312000080A90ED001A01EE200A10EE100AFDF7D1
:10313000ACF953EC1C2BFDF78FF8FDF7B9F938EE1D
:10314000A80A0DEE900ACD4808EEC90AC0ED00DAD3
:10315000D7ED000A20EE200A10EE100AFDF795F9CF
:1031600053EC1A2BFDF71FF941EC1C0BC84878EE05
:10317000880A90ED000AC74870EE880A20EE280AF7
:1031800090ED001A01EE200A10EE100AFDF77DF90D
:1031900053EC1C2BFDF760F8FDF78AF900EE100ADE
:1031A000BD4A8BED000AD2ED000AF4EEE0DAF1EE52
:1031B00010FA02DDB148C0ED000AD2ED000A58460F
:1031C000B4EEE00AF1EE10FA01DDC0ED000AAB4901
:1031D00092ED000AD1ED000AB1EE400AF4EEC00A09
:1031E000F1EE10FA01D281ED000AD0ED000AF4EE02
:1031F000C00AF1EE10FA01D280ED000AA74A91ED63
:10320000000AD2ED000AB4EEE00AF1EE10FA06D29E
:10321000B5EEC00AF1EE10FA01DDC1ED000A90ED45
:10322000000AB4EEE00AF1EE10FA06D2B5EEC00ADA
:10323000F1EE10FA01DDC0ED000A92ED000AD1EDC9
:10324000000AB1EE400AF4EEC00AF1EE10FA06DD13
:10325000F5EEC00AF1EE10FA01D281ED000AD0EDD0
:10326000000AF4EEC00AF1EE10FA06DDF5EEC00A2F
:10327000F1EE10FA01D28BED000A814B5F78DFEDA1
:10328000888A442F0DD101998648012909D13F2C04
:1032900007D105607948C0ED008ACBED008AC8ED02
:1032A000008A814A106801287CD1012C02D0022CAE
:1032B00039D077E000EE107A7348B8EE400A60EE3D
:1032C0002B0A00EE107AB8EE401A90ED180A71EE53
:1032D000001A90ED191A71EE811A4BEE210A01EED7
:1032E000907AF8EE611A40EE0D1A31EE810A49EE3D
:1032F000800ABDEEE00A10EE101A8166052902DD93
:10330000B1EE040A08E0012902DAB7EE000A03E090
:1033100000EE101AB8EEC00A88ED000A00EE107A2E
:10332000B8EE400A3AE000EE107A574801EE907A83
:10333000B8EE400AD0ED180A90ED191AF8EE611AAD
:1033400030EEC00A30EE010A20EE0B0A0BEEE10A65
:1033500001EE907AF8EE611A50EE8D1A71EE810A44
:1033600009EEA00ABDEEC00A10EE101A816611F136
:10337000050F02DAB9EE040A08E0002902DBBFEE0D
:10338000000A03E000EE101AB8EEC00A88ED000A49
:1033900000EE107AB8EE400AB1EE400A80ED180A4D
:1033A00080ED190A272F02D0282F05D007E03F2CE7
:1033B00005D1C8ED008A01E03F2C00D115603B48E3
:1033C0000068012859D1012C02D0022C05D00DE053
:1033D00000EE107AB8EE400A05E000EE107AB8EE82
:1033E000400AB1EE400A254880ED000ABAF1010F0B
:1033F00003D0BAF1020F05D00CE000EE106AB8EE6F
:10340000400A05E000EE106AB8EE400AB1EE400A4C
:103410008BED000ADFF86480D8F80000FDF735F87E
:103420009FED23BB53EC1B2BFCF7BDFFFDF740F8D2
:1034300008EE100ADBF80000FDF727F853EC1B2B11
:10344000FCF7B1FFFDF734F809EE900A0E4838EEAC
:1034500008CA80ED028AC0ED059A80ED038AC0EDAE
:10346000069A80ED048AC0ED079AB0EE4C0A074830
:1034700008EE490AD0ED000A1EE0C6E04001002037
:10348000AA050020304A00085C010020204A0008FC
:10349000184A00081C4A0008444A0008484A000824
:1034A00000000000FC010020D8010020DC01002009
:1034B0009A9999999999D93F20EE200A10EE100A0D
:1034C000FCF7E3FF53EC1A2BFCF76DFF41EC1B0BF1
:1034D00081487CEE080A90ED000A804820EE080A38
:1034E00090ED001A01EE200A10EE100AFCF7CDFF55
:1034F00053EC1B2BFCF7B0FEFCF7DAFF39EEA90A00
:103500008246C8F80000764809EEC90AD0ED000AE4
:1035100020EE200A10EE100AFCF7B7FF53EC1A2B2E
:10352000FCF741FF41EC1A0B6B4879EE880A90EDED
:10353000000A6A4870EE880A20EE290A90ED001A07
:1035400001EE200A10EE100AFCF79FFF53EC1A2B35
:10355000FCF782FEFCF7ACFF624AB2EE040ACBF83D
:103560000000924501DD88ED000A5946904201DDD8
:1035700081ED000A5C4AD8F800304046BAEE040AF1
:10358000934201D980ED000A0B68934201D981ED85
:10359000000A90ED000A4FF07C5310EE102AF6EE70
:1035A000000A9A4206DAB5EEC00AF1EE10FA01DD21
:1035B000C0ED000A91ED000A10EE102A9A4206DAD8
:1035C000B5EEC00AF1EE10FA01DDC1ED000A90ED92
:1035D000000A4FF03F4310EE102AFEEE000A9A4216
:1035E00006D2B5EEC00AF1EE10FA01D2C8ED000A1B
:1035F00091ED000A10EE100A984206D2B5EEC00A0C
:10360000F1EE10FA01D2CBED000A3848172C02D0A7
:10361000182C12D004E03649C1ED008ACBED008AA7
:103620003449354B364AD1F800C03449392F09D0D6
:10363000402F0BD0412F11D015E032490D60324997
:103640004D60E8E7BCF1010F0BD00CE0BCF1020FBC
:1036500007D008E01D600D60156029E0BCF1030F84
:1036600001D13F2CF6D01B68012B21D1009B212BCF
:103670001ED1264B012C02D0022C04D00AE0B0F857
:10368000010040BA03E0B0F8010040BA40420860CF
:1036900001201860012E02D0022E03D008E099FA12
:1036A00099F002E099FA99F0404210600120186008
:1036B0001748016829B93F2C03D1332F01D10121CB
:1036C000016011483221457003B00848BDEC0C8BF5
:1036D000BDE8F04FFCF7AEBD184A00081C4A0008D0
:1036E000204A000800002041000020C1AA05002057
:1036F000400100206800002064000020100100202C
:1037000014010020DC0100205C010020A00000204A
:10371000700000200148FEF79DB90000C80300209A
:103720000148FEF797B90000100400200148FEF799
:1037300091B9000058040020F0B585B00546022676
:103740002020CDE9000600240320CDE90240072017
:103750000E4F049069463846FDF7A6F84020CDE9A3
:10376000000669463846FDF79FF80A490848086090
:10377000C1E901540C20CC60C1E904408C610846C9
:10378000CC61FEF79FFA05B0F0BD0000000C0240CE
:10379000004400403005002010B513460C460A4690
:1037A00001460448FEF7B8FB08B1002010BD20B266
:1037B00010BD0000300500200A4601464FF0FF33DF
:1037C0000148FEF710BC000030050020FEE77CB584
:1037D00015460646002903DA484240F4004001B28B
:1037E0006C460A46601C8DF80030411CFEF74EFC0A
:1037F0000022211DE01CFEF749FC2A46A11D601D88
:10380000FEF744FC07236A462921304600F02CFAD3
:103810007CBD0907090E002804DB00F1E02080F8D8
:103820000014704700F00F0000F1E02080F8141D34
:10383000704702E008C8121F08C1002AFAD1704779
:103840007047002001E001C1121F002AFBD1704720
:1038500070B550EA01032DED028B7CD04FF49673C6
:10386000984200DD1846994200DD19469D4B98426A
:1038700000DA1846994200DA19469B4C002323606F
:10388000636000EE100A994DB8EEC00AD5ED000A4B
:10389000256920EE800AA6690544354400EE905A59
:1038A000934DF8EEE00A95ED001A256901EE200A25
:1038B000451B00EE905A8F4DF8EEE00A95ED001A88
:1038C0008D4D01EE200A00EE901A95ED001A656903
:1038D000F8EEE00A61EE200AE6690D44354401EE97
:1038E000105A864DB8EEC11AD5ED001A656941EE41
:1038F000810A4D1B01EE105A814DB8EEC11AD5ED6B
:10390000001A804D41EE810A95ED001A7E4D20EEA1
:10391000010A95ED001A256960EE810AA561206112
:103920006069E06161619FED791AB4EEC10AF1EE60
:1039300010FA01DDB0EE410AF4EEC10AF1EE10FA20
:1039400001DDF0EE410A9FED721AB4EEC10AF1EE0C
:1039500010FA03D200E00BE0B0EE410AF4EEC10A27
:10396000F1EE10FA01D2F0EE410A012A05D039E059
:103970004FF0FF30BDEC028B70BD10EE100A4FF01F
:103980007E51644AF7EE001ABFEE001A884207DA49
:10399000B5EEC00AF1EE10FA02DDB0EE610A03E006
:1039A00010EE100A904206D2B5EEC00AF1EE10FAFF
:1039B00001D2B0EE410A10EE900A884207DAF5EE25
:1039C000C00AF1EE10FA02DDF0EE610A03E010EE3B
:1039D000900A904206D2F5EEC00AF1EE10FA01D23A
:1039E000F0EE410A206A4C49401C2062884200DD0A
:1039F0002362BDEEC00AE068B8EEC08ABDEEE00A00
:103A0000F8EEC08A00EE100A4449B8EEC00A30EE63
:103A1000080A10EE100A884262DAE068404900EEB7
:103A2000100AB8EEC00A30EE080A10EE100A8842FA
:103A300056DDA0683B4900EE100AB8EEC00A30EE31
:103A4000280A10EE100A88424ADAA068364900EEC9
:103A5000100AB8EEC00A30EE280A10EE100A8842AA
:103A60003EDDA0684FF47A6500EE100AB4232A46C2
:103A7000B8EEC00A30EE280ABDEEC00A10EE100AF9
:103A800001B2042000F0EEF8A06800EE100AB8EED3
:103A9000C00A30EE280ABDEEC00A10EE100AA0607F
:103AA0000A20FCF7EFFEE068B42300EE100A2A4675
:103AB000B8EEC00A30EE080ABDEEC00A10EE100AD9
:103AC00001B2032000F0CEF8E06800EE100AB8EE74
:103AD000C00A30EE080ABDEEC00A10EE100AE0601F
:103AE000002047E7D4FEFFFF100100204C4A0008E9
:103AF000504A0008544A0008584A00085C4A000826
:103B0000604A0008644A0008684A00080000C84289
:103B10000000C8C2000080BF40420F000020714575
:103B200000C0E3440070564500A09D4410B540F627
:103B30009D34D22340F6FF722146042000F092F813
:103B40000148846010BD00001001002010B5042061
:103B5000FEF7B6FC40F2DC5188420ADD40F24474C4
:103B6000D22340F6FF722146042000F07BF8014882
:103B7000846010BD1001002038B5002425460121C5
:103B8000684600F0C3FB00280FD09DF80010E0B29B
:103B900060F30F2461F30704FF2901D1FF2805D04A
:103BA0006D1CEDB20A2DEAD9002038BD012038BDC8
:103BB00010B50220FEF784FCB0F5487F09DD002334
:103BC000BDE810404FF47A624FF45061022000F0DB
:103BD00049B83223BDE81040102202A10648FEF782
:103BE00002BA0000636C61775F746F6F6F6F6F5F15
:103BF0006261636B000000005804002010B50220D1
:103C0000FEF75EFC4FF4C861884207DD0023BDE883
:103C100010404FF47A62022000F024B83223BDE84D
:103C20001040112201A10648FEF7DDB9636C6177EF
:103C30005F746F6F6F6F6F5F726967687400000009
:103C40005804002000234FF47A624FF4C861022028
:103C500000F008B802494A200968886370470000EC
:103C6000F0020020FFF7B3BDF8B51C4615460E461E
:103C7000074600F049FB0320009023462A463146C0
:103C8000384600F06BFE00F047FE3846BDE8F840CD
:103C9000FCF720BD2DE9F0410A46034600F0D8FDAF
:103CA00000F0F2FA534C544E544D4FF4FA6040F683
:103CB000FF77012B04D0022B24D0032B56D142E0F6
:103CC000012A12D0B188024609B2D2230320FFF79D
:103CD000C9FFA888D22301B23A460420FFF7C2FFE9
:103CE0007068E0606868A06040E0024640F6064503
:103CF000D22329460320FFF7B5FFD2233A4640F6E8
:103D000072366FE0012A11D03189024609B2D223FE
:103D10000320FFF7A7FF2889D22301B23A460420E7
:103D2000FFF7A0FFA868A060B0681EE0024640F65A
:103D3000CA05D22329460320FFF794FFD2233A462F
:103D400040F244764EE0012A40D0B189024609B2E1
:103D5000D2230320FFF786FFA889D22301B23A4677
:103D60000420FFF77FFFE868A060E0604FF49674DE
:103D70002046FCF787FD00F08FFA4FF4FA752846CD
:103D8000FCF780FDFFF766FF2046FCF77BFD00F0A7
:103D9000B3FAFFF7CBFE2046FCF774FDFFF752FFA6
:103DA0002846FCF76FFD00F097FA2046FCF76AFD05
:103DB00000F05AFAC820FCF765FD00F09DFA204695
:103DC000FCF760FDBDE8F041FFF7F2BE024640F2AD
:103DD0006E55D22329460320FFF744FFD2233A46EB
:103DE00040F6C23631460420FFF73CFFA660E5608E
:103DF000BCE70000100100200C0200201C02002083
:103E00002DE9F0470F46044600F010FD00F02CFAB3
:103E100000F072FAFFF78AFE4FF4FA7A5046FCF788
:103E200031FDFFF7EBFE334D4FF4FA6240F60649E1
:103E300040F6CA0640F26E58012C04D0022C0AD07B
:103E4000032C0FD015E0D22349460320FFF70AFFC9
:103E5000C5F80C900DE0D22331460320FFF702FF96
:103E6000EE6006E0D22341460320FFF7FBFEC5F8D3
:103E70000C8056465046FCF705FD00F02DFA9620C2
:103E8000FCF700FDFFF7E6FEC820FCF7FBFC00F0A6
:103E900033FAC820FCF7F6FCFFF78AFE4FF47A628B
:103EA000012C04D0022C06D0032C08D00FE0D22322
:103EB00040F6723406E0D22340F2447402E0D2238A
:103EC00040F6C23421460420FFF7CCFEAC60C82087
:103ED000FCF7D8FC012F06D000F0EEF93046BDE823
:103EE000F047FCF7CFBC4FF41670FCF7CBFC00F0AA
:103EF000EBF9F3E710010020FCF7EAFDFEF712FBF7
:103F0000FEF7D4F8FEF734FAFEF74EFAFEF768FA39
:103F1000FEF724F9FEF758F9FEF78CF9FEF70CFAD4
:103F2000FEF7EEF9012236493648FEF74DF8282211
:103F300035493648FDF731FD282235493548FDF72A
:103F40002CFD3548FDF7C6F93448FDF7C3F90021CB
:103F50003348FDF7C7FB04213148FDF7C3FB0821B7
:103F60002F48FDF7BFFB0C212D48FDF7BBFB4FF49D
:103F70007A742046FCF786FC00F06CF9294E2A4939
:103F800000250120B56408606420FCF77BFCFFF786
:103F9000DDFD012000F0D0FC00F0A6F9FFF708FEDF
:103FA00000F06AF9012000F053FC214B1F48214A20
:103FB0003563002103F11005066843F82160166897
:103FC00045F82160491C0429F6DB40F6B830FCF7BF
:103FD00059FC4FF4FA6500BF00F086F916A000F016
:103FE00079FA01220021104600F0AAF92046FCF7D8
:103FF00049FC00F079F92846FCF744FCECE70000A6
:10400000C801002080030020AA05002058040020D9
:104010005C0600203803002060020020A802002077
:10402000F002002000000020E00100208C4A00087F
:104030000C020020904A00084343000070EE602A02
:1040400030EE202AB5EEC00A0122FCEEE21ABCEEE8
:10405000C21A08B5F1EE10FA37DBF5EEC00AF1EE40
:1040600010FA32DB30EE600A0629B1EE400ABCEEEF
:10407000C00A29D2DFE801F02803070B18E911EE86
:10408000101A00927BE011EE101A00928AE0F5EE11
:10409000C02AF1EE10FA03DB11EE901A0092BEE096
:1040A00010EE101A00925AE0F5EEC02AF1EE10FA66
:1040B00004DB00BF11EE901A0092C1E010EE101A5E
:1040C000009250E0FCF762FB08BDB5EEC00AF1EECD
:1040D00010FA24DBF5EEC00AF1EE10FA1FD2062921
:1040E000F2D2DFE801F00504030613B2E2E7D3E7FA
:1040F000EAE7B5EEC02AF1EE10FAC0DAB1EE420AF4
:104100000092BCEEC00A10EE101A3EE0B5EEC02AD6
:10411000F1EE10FAB7DA11EE101A009248E070EEE4
:10412000C01AB5EEC00ABCEEE11AF1EE10FA44D2A4
:10413000F5EEC00AF1EE10FA3FDB70EE801A70EE79
:10414000800A0629BCEEE00AF1EE600AFCEEE00A05
:10415000BAD2DFE801F0035D6E0C1F7AB4E78AB2D1
:10416000034601215EE08AB2034600216BE0F5EED2
:10417000C01A0092F1EE10FA05DB10EE101A034699
:104180008AB2002104E010EE901A03468AB201219F
:10419000012097E7F5EEC01A0092F1EE10FA05DB68
:1041A00010EE101A03468AB2012104E010EE901AB4
:1041B00003468AB20021042084E7B5EEC00AF1EE7E
:1041C00010FA81D2F5EEC00AF1EE10FA90D2B1EEFB
:1041D000402A30EEC00A32EE602A0629B1EE400ACB
:1041E000BCEEC22ABCEEC00AB8D2DFE801F003047C
:1041F000080C1D2E68E712EE101A0092C5E712EEA9
:10420000101A0092D4E7F5EEC01AF1EE10FA03DBB3
:1042100011EE101A0092A2E710EE101A0092034657
:104220008AB2002102204DE7F5EEC01AF1EE10FA35
:1042300003DB11EE101A009295E710EE101A0092AF
:1042400003468AB2012103203CE7BDE80840002074
:10425000FCF786BA4FF4E130FFF76EBA4FF4FA700C
:10426000401E80B2FCD2704702495620096888631C
:1042700070470000F0020020024968200968886346
:1042800070470000F002002002495C200968886342
:1042900070470000F0020020002340F6FF7240F655
:1042A000C2310120FFF7DEBCF02340F6FF7240F67A
:1042B000C2310120FFF7D6BC002340F6FF7240F662
:1042C000D2210120FFF7CEBCD22340F6FF7240F28C
:1042D00056710120FFF7C6BC002340F6FF7240F282
:1042E00009310120FFF7BEBC002340F6FF7240F207
:1042F00083610120FFF7B6BC002340F6FF724FF444
:104300008C710120FFF7AEBCFFF7A8BF024A89B24B
:104310005268FFF741BA0000FC00002008B50223F4
:104320006A46FEF77DF8022802D04FF0FF3008BD44
:104330009DF801109DF80000FEF7E4F880B208BD7A
:104340002DE9F74F05464FF00008032801D0042D52
:1043500001D14FF003080021554A019CDFF848A124
:10436000DFF848B102F18009012C0E462DD1032D52
:1043700001D0042D00D1032600248A469346C84666
:10438000A71958F827000121FFF73AFD58F8270030
:10439000484ACBF86800C2F800A0434AC2F800A01F
:1043A000424AC2F800A0CBF864A0FFF75DFF4FF4CB
:1043B0009670FCF767FA641C032CE1DBFFF79CFFA7
:1043C0004FF4FA70FCF75EFA4DE006EB08074C4636
:1043D00059F827000199FFF713FD54F82700344CD2
:1043E00034493223A06601206066002008600B2259
:1043F00031A13448FDF7F7FD09E0DBF80010322267
:10440000DAF80000FFF724FA606AFCF73BFA606E06
:104410000028F2D12C48016859F827202B4B43F88B
:1044200022102B49096859F8270003F1100242F8BD
:104430002010206801280BD1FFF736FF4FF4FA70E7
:10444000FCF720FAFFF710FF4FF49670FCF71AFA0A
:10445000761C032EB9DBFFF74FFF4FF4FA70FCF721
:1044600011FAFFF711FF0298012810D10026032D41
:1044700001D0042D00D1032600244D46A01955F883
:1044800020000021FFF706FC641C032CF6DB012052
:1044900000F052FAFFF7F0FEFFF758FBBDE8FE4FC1
:1044A0000A20FCF7EFB900001001002014010020E1
:1044B00000000020CC0100206E6561722067726FE1
:1044C000756E6400580400201C0100200C020020BE
:1044D0001801002070B50446FBF7B7FE82B2322304
:1044E00021460E48FDF77FFDC820FCF7CBF90C4CA8
:1044F00001200C49206000200B4D086000F016F8E8
:10450000E86FFCF7BFF920680028F7D100F0B2F996
:10451000BDE870403220FCF7B5B900005804002017
:10452000FC010020CC01002000000020F8B56D48FF
:104530006D4C90ED000AD4ED020AD4ED011A6B48DF
:1045400020EE201AD4ED000AF1EE600A70EEE11AB6
:10455000D0ED000A00EEA11ABDEEC11A11EE100A4C
:10456000E06094ED021AD4ED011A94ED002A20EED9
:10457000011A71EEC21A00EEA11ABDEEC11A11EEB7
:10458000100A206194ED021AD4ED001A94ED012A6C
:1045900020EE011A71EEC21A00EEA11ABDEEC11A88
:1045A00011EE100A606194ED021AD4ED011A20EEAA
:1045B000010A94ED001A31EE211A00EE810ABDEED7
:1045C000C00A10EE100AA061E16849480068814203
:1045D00000DDE0602169814200DD20616169814286
:1045E00000DD6061A169814200DDA061E1684042B7
:1045F000814200DAE0602169814200DA206161696C
:10460000814200DA6061A169814200DAA061E0685C
:10461000384E0125002896ED000A0095BCEEC00A30
:1046200010EE100AC3B2E06802DB82B2012102E0A0
:10463000404282B200210120FCF7A8F80A20FCF7D2
:1046400021F92069009596ED000A0028BCEEC00A09
:1046500010EE100AC3B2206902DB82B2012102E02F
:10466000404282B200210220FCF790F80A20FCF7B9
:1046700009F96069009596ED000A0028BCEEC00AB1
:1046800010EE100AC3B2606902DB82B2012102E0BF
:10469000404282B200210320FCF778F80A20FCF7A0
:1046A000F1F8A069009596ED000A0028BCEEC00A5A
:1046B00010EE100AC3B2A06902DB82B2012102E04F
:1046C000404282B200210420FCF760F80A20FCF787
:1046D000D9F80020FCF744F8BDE8F8400A20FCF7C0
:1046E000D1B80000344A000840010020384A0008D0
:1046F000980000209C0000204B4A08B5D2ED000A2B
:10470000B5EEC00A0120FCEEE00AF1EE10FA30DB53
:10471000BCEEC00A062919D2DFE801F018030C1913
:104720002264009010EE900A0121C3B210EE100A2C
:1047300082B237E0009010EE900A0121C3B210EE71
:10474000100A82B238E000BFFCF720F808BD0090E4
:1047500010EE900A0121C3B210EE100A82B235E0C9
:10476000009010EE900A0121C3B210EE100A82B23E
:1047700036E0B5EEC00AF1EE10FA38D2B1EE400ADA
:104780000629BCEEC00AE1D2DFE801F003040E18EE
:10479000222CDBE7009010EE900A0021C3B210EE4D
:1047A000100A82B20120CFE7009010EE900A00219B
:1047B000C3B210EE100A82B20220C5E7009010EEDC
:1047C000900A0021C3B210EE100A82B20320BBE7A8
:1047D000009010EE900A0021C3B210EE100A82B2CF
:1047E0000420B1E7BDE808400020FBF7B9BFB5EEF3
:1047F000C00AF1EE10FAA9D101290BD002290CD080
:1048000003290DD00429A1D101210420BDE80840CD
:10481000FBF78EBF01210846F8E701210220F5E7EA
:1048200001210320F2E700001C00002007490128B5
:10483000096805D0022805D0032805D16F2002E0C1
:10484000192000E04520086470470000F0020020B5
:1048500007490128096805D0022805D0032805D199
:104860006F2002E0192000E0452008647047000036
:10487000F002002010B500210120FBF759FF0A20AB
:10488000FCF700F800210220FBF752FF0A20FBF79B
:10489000F9FF00210320FBF74BFF0A20FBF7F2FF93
:1048A00000210420FBF744FFBDE810400A20FBF77D
:1048B000E9BF000008B50021ADF800100A49C0F3B7
:1048C000080048604FF4FA5209E000BFBDF800004C
:1048D000401CADF80000BDF80000904202D8086806
:1048E0000006F3D508BD00000010014038B50546AC
:1048F00000200C468DF800008DF800009DF80000A7
:10490000A04208D29DF80000285CFFF7D3FF9DF875
:104910000000401CF0E738BD10B5054C2178002997
:1049200004D00448FEF748FF0020207010BD0000AE
:10493000FC000020A004002010B501280AD140F698
:10494000CA04D2234FF47A7221460320FFF78AF972
:104950000148C46010BD0000100100202DE9FF4790
:104960008046DDF830904FF000008DF808004FF0E1
:10497000FF008DF800008DF801001C4615000F4661
:104980004FF002068DF802808DF8049007D0E01CED
:10499000C6B28DF803608DF80570062102E08DF82F
:1049A00003600521684600F023F808EB060101EBDF
:1049B000090038448DF808007DB1002107E0685CEB
:1049C0009DF80820491C10448DF80800C9B2A14286
:1049D000F5D32146284600F00BF89DF80800012188
:1049E000C0438DF8080002A800F002F8BDE8FF8778
:1049F00030B5074B074C07E01A78802A04D210F82C
:104A0000015BA554521C1A70491EF5D2187830BDAE
:104A1000FC000020A00400200000003F0AD7233C37
:104A2000CDCC4C3F0000803F0AD7233D0000003F23
:104A3000CDCC4C3E0000803F0000803F0000204174
:104A4000CDCCCC3E000070410000003F9A99993EC9
:104A5000A69B443C8FC2753CCDCCCC3E0AD7233CB0
:104A60000AD7A33C9A99993F000080400000803FFC
:104A70000000E0400000000000000000010203040C
:104A8000060708090000000001020304CA0800002C
:104A900044070000B44A00080000002000020000A3
:104AA00098060008004B0008000200209008000053
:104AB00042380008021001427842B46296332A4319
:104AC0004434430A031FE803022001021005423266
:104AD0004232420142024203420142034202621454
:104AE0000339344342019210051824F400010218DE
:104AF00064334407031FCA0802243202980182C8A3
:040000050800018965
:00000001FF
