:020000040800F2
:10000000600C0020A10100088B260008F9220008DE
:10001000892600084909000861380008000000002E
:10002000000000000000000000000000D1270008D0
:100030004B090008000000008D260008D3270008A7
:10004000BB010008BB010008BB010008BB010008A0
:10005000BB010008BB010008BB010008BB01000890
:10006000BB010008BB010008BB010008BB01000880
:10007000BB010008BB010008BB010008BB01000870
:10008000BB010008BB010008BB010008BB01000860
:10009000BB010008BB010008BB010008BB01000850
:1000A000BB010008BB010008BB010008BB01000840
:1000B0007D2800088928000895280008BB01000851
:1000C000BB010008BB010008BB010008BB01000820
:1000D000BB010008A9370008B5370008C137000880
:1000E000BB010008BB010008BB010008BB01000800
:1000F000BB010008BB010008BB010008BB010008F0
:10010000BB010008BB010008BB010008BB010008DF
:10011000852B0008912B0008BB010008BB010008DB
:10012000BB010008BB010008BB010008BB010008BF
:10013000BB010008BB010008BB010008BB010008AF
:10014000BB010008BB010008BB010008BB0100089F
:10015000BB010008BB010008BB010008BB0100088F
:10016000BB010008BB010008BB010008BB0100087F
:10017000BB010008BB010008BB0100080000000033
:10018000BB010008BB010008DFF810D000F072FBD3
:100190000048004771420008AFF30080600C002067
:1001A0000648804706480047FEE7FEE7FEE7FEE711
:1001B000FEE7FEE7FEE7FEE7FEE7FEE76D28000844
:1001C000890100082DE9F05F0546002092469B4614
:1001D00088460646814640241BE02846414647465D
:1001E000224600F090FA53465A46C01A914110D365
:1001F00011461846224600F077FA2D1A67EB0108DF
:100200004F4622460120002100F06EFA17EB00094C
:100210004E41201EA4F10104DFDC484631462A4647
:100220004346BDE8F09F00000649074A086850436E
:1002300043F23902104408604008704701490860E1
:1002400070470000280200206D4EC64140EA0103BD
:100250009B0703D009E008C9121F08C0042AFAD27C
:1002600003E011F8013B00F8013B521EF9D2704740
:10027000D2B201E000F8012B491EFBD270470022E8
:10028000F6E710B513460A4604461946FFF7F0FF95
:10029000204610BD421C10F8011B0029FBD1801A1A
:1002A00070472DE9FE4F804681EA0300C00F0C46DF
:1002B000009021F0004123F00045B8EB0200A94175
:1002C00005D24046214690461C460B46024623F086
:1002D0000040104347D0270DC7F30A00C3F30A516B
:1002E0000290401A019040286BDAC3F3130040F4E7
:1002F000801B0098924620B10023D2EB030A63EBE7
:100300000B0B01985946C0F14002504600F0ECF941
:1003100006460D4650465946019A00F004FA10EB85
:1003200008006141002487EA115284EAE7731A4306
:1003300040D0009A62B3019A012A4FEA075215DCB5
:10034000001B61EB02014FF0004202EA0752CDE9C7
:100350000042001C41F5801132462B4600F03BFA6A
:1003600003B0BDE8F08F40462146F9E7001B61EB82
:100370000201001C41F5801300185B412018A2F512
:10038000001747EB030140EAD570B6196D4111E043
:100390006D084FEA360645EAC0754FEA0752001B62
:1003A00061EB0201001C41F5801149084FEA300061
:1003B0000019514132462B4603B0BDE8F04F00F022
:1003C000FBB90098012240000023D0EB020263EB4E
:1003D000E073009821464FEAE074B8EB000061EB4F
:1003E0000401E9E783F000435BE781F0004158E74F
:1003F0002DE9FE4F81EA030404F0004421F000419E
:1004000000944FF0000B23F0004350EA01045ED04B
:1004100052EA03045BD0C3F30A54C1F30A552C44D7
:10042000A4F2F3340194A0FB0254C1F3130141F48C
:100430008011C3F3130343F4801301FB024400FB58
:10044000034E840A970A44EA815447EA8357A4FB7F
:10045000076802958D0A05FB07854FEA932C04FB7C
:100460000C542705029D4FEA065847EA1637B5EBAC
:1004700008056EEB070C870E920E47EA811742EAD9
:100480008312A7FB0201B6EB0B0164EB00042B0DFA
:1004900043EA0C335E1844EB1C50DA465146E7FB46
:1004A0000201C5F313044FEA0B3343EA14534FEA36
:1004B0000432019C43EA0603A4F10C040294009C5C
:1004C000CDE900B400F087F903B0BDE8F08F00205B
:1004D0000146F9E72DE9F04D81EA030404F0004BF1
:1004E00021F0004514464FF0000A23F0004150EA85
:1004F000050220D054EA01021DD0C5F30A57024676
:10050000C5F31303C1F31300C1F30A5640F4801579
:1005100043F48013A7EB0608101BD64608F2FD38FB
:1005200073EB050002D308F1010801E092185B416A
:10053000B8F1000F03DA00200146BDE8F08D00207D
:100540004FF48011064684460EE0171B73EB050737
:1005500005D3121B63EB050306434CEA010C490863
:100560004FEA300092185B4150EA0107EDD152EAA0
:10057000030012D082EA040083EA0501084305D093
:10058000101BAB4106D20122002306E000224FF0EF
:10059000004302E06FF0010253101AEB06004CEB2F
:1005A000085110EB0A0041EB0B01BDE8F04D00F0E3
:1005B00003B90EB5C10F80EAE0700844CA070021F4
:1005C00040F233438DE80E000A460B4600F003F973
:1005D00003B000BD0EB540F2334102910021CDE9D8
:1005E00000110A460B4600F0F6F803B000BD70B5E6
:1005F000C1F30A5201F000450024C1F3130140F297
:10060000FF3341F480119A4201DA002070BD40F2BC
:1006100033439A42A2F2334203DC524200F073F8B1
:1006200000E090402C43F1D0404270BDC1F30A522B
:1006300010B5C1F3130140F2FF3341F480119A4227
:1006400001DA002010BD40F233439A42A2F2334255
:1006500003DC524200F057F810BD904010BD00F08E
:10066000004230F000400AD0C10D01F56071C0F3C6
:10067000160042EA0151C2084007114370470020AA
:100680000146704701F0004330B421F0004150EAC8
:10069000010206D00A0DA2F56072C1F31301002A0F
:1006A00002DC30BC00207047440F44EAC104C100A2
:1006B000E01830BC00EBC25000F047B830B50B4634
:1006C000014600202022012409E021FA02F59D4282
:1006D00005D303FA02F5491B04FA02F52844151E56
:1006E000A2F10102F1DC30BD202A04DB203A00FA3D
:1006F00002F1002070479140C2F1200320FA03F379
:10070000194390407047202A04DB203A21FA02F076
:100710000021704721FA02F3D040C2F1200291403B
:10072000084319467047202A06DBCB17203A41FAC6
:1007300002F043EAE07306E041FA02F3D040C2F16E
:10074000200291400843194670470029A8BF70470E
:10075000401C490008BF20F00100704710B4B0FAF7
:1007600080FC00FA0CF050EA010404BF10BC704792
:1007700049B1CCF1200421FA04F411FA0CF118BFAC
:10078000012121430843A3EB0C01CB1D4FEA00617B
:100790004FEA102042BF002010BC704700EBC3504E
:1007A00010440029A4BF10BC7047401C490008BF7A
:1007B00020F0010010BC704710B5141E73F1000446
:1007C00008DA401C41F1000192185B411A4301D143
:1007D00020F0010010BD2DE9F04D92469B4611B16D
:1007E000B1FA81F202E0B0FA80F220329046FFF7CF
:1007F0007BFF04460F4640EA0A0041EA0B015346DC
:100800005A46084313D0114653EA010019D0C8F1E3
:1008100040025046FFF777FF05460E4650465946C0
:100820004246FFF761FF084305D0012004E020465F
:100830003946BDE8F08D0020054346EAE0762C43BA
:1008400037430A986305E40AA0EB08000022FD0A7A
:1008500044EA47540A3002D500200146E9E7010581
:1008600010196941DDE9084500196941BDE8F04DFD
:10087000A2E70000064C074D06E0E06840F00103E7
:1008800094E8070098471034AC42F6D3FFF780FC99
:10089000B4820008D482000870B58C1810F8015B8F
:1008A00015F0070301D110F8013B2A1106D110F809
:1008B000012B03E010F8016B01F8016B5B1EF9D10D
:1008C0002B0705D40023521E0DD401F8013BFAE793
:1008D00010F8013BCB1A921C03E013F8015B01F8FE
:1008E000015B521EF9D5A142D8D3002070BD000093
:1008F00038B50546134C0020FE2DA07020D020787E
:10090000F0B103F029FA002818D00421684606F057
:100910006BFB042811D19DF80000A8420DD19DF871
:100920000110022909D19DF80210801C0844C0431F
:100930009DF80320C0B2824201D0002038BDA170D2
:10094000012038BD04010020FEE770472DE9FF417A
:100950000027DDE90A4600978DF80000FD208DF89C
:1009600001008DF802100197100A8DF803008DF830
:1009700004208DF80530200E8DF80600200C0C9D0B
:100980008DF807000297200A8DF8080003978DF86C
:1009900009406B208DF80A608DF80C008DF80B5023
:1009A0000D21684607F05EFBBDE8FF811FB5002200
:1009B00000928DF80000FE208DF8010098208DF83F
:1009C000020001926B208DF803108DF80400029252
:1009D00003920521684607F045FB1FBD1FB50021A6
:1009E00000918DF80000FF208DF8010066208DF841
:1009F00002006B200191029103918DF80300042104
:100A0000684607F02FFB1FBD7FB5002500958DF8C8
:100A10000000F6208DF8010001958DF80210089C69
:100A2000100A8DF804208DF803008DF805308DF83C
:100A300006406B208DF80700029503950821684653
:100A400007F010FB7FBD72B6FEE72DE9F0410446CA
:100A5000876D00F06DF9064694F8350000250228F0
:100A600006D08020606584F834500120BDE8F08114
:100A70002068016821F0160101602068416921F0B9
:100A800080014161206C08B9A06C20B12068016828
:100A900021F0080101602068016821F00101016076
:100AA0000CE000F045F9801B052807D9202060657F
:100AB000032084F8350084F83450D7E720680068B4
:100AC000C007EED194F85C103F208840B860012048
:100AD00084F8350084F834500020C7E790F83510CA
:100AE000022903D08021416501207047052180F84B
:100AF00035100068016821F0010101600020704795
:100B000070B5044600F014F90546601C02D0044894
:100B10000078044400F00CF9401BA042FAD370BDE9
:100B2000F40000202DE9F84FDFF8BCA100220125D8
:100B300003264FF00F090AF1040BAAF1040E00BFBF
:100B40000B6805FA02F42340A34270D10F7907F035
:100B50000307012F01D0022F16D187684FEA420800
:100B600006FA08FC27EA0C07D1F80CC00CFA08FCBE
:100B70004CEA070CC0F808C04768A7430C79C4F3D7
:100B8000001494403C4344600C79E443A4070AD029
:100B9000C4684FEA420C06FA0CF7BC438F6807FAA8
:100BA0000CF72743C7600C7904F00304022C12D120
:100BB000D40800EB840CDCF820405707FF0E09FA3C
:100BC00007F824EA0804D1F8108008FA07F848EA80
:100BD0000408CCF8208004684FEA420C06FA0CF7AF
:100BE000BC430F7907F0030707FA0CF727430760A8
:100BF0004C6814F4403F70D03C4C276847F4804761
:100C00002760246822F0030704F480440094384CE1
:100C100007EB040CDCF8084897074FEA177809FA45
:100C200008F7BC43334FB84202D1002724E054E018
:100C3000314FB84201D101271EE0304FB84201D1F7
:100C4000022719E02E4FB84201D1032714E02D4F9F
:100C5000B84201D104270FE02B4FB84201D105273C
:100C60000AE02A4FB84201D1062705E0284FB842D2
:100C700001D1072700E0082707FA08F72743CCF837
:100C80000878DAF800405746D1F804C09C435FEA80
:100C9000CC2C00D51C433C60DBF800405F46D1F80B
:100CA00004C09C435FEA8C2C00D51C433C60DEF8FA
:100CB00000407746D1F804C09C435FEA8C3C00D5E5
:100CC0001C433C60084F083F3C68D1F804C09C437B
:100CD0005FEACC3C00D51C433C60521C102AFFF458
:100CE0002FAFBDE8F88F0000083C014044380240B7
:100CF00000300140000002400004024000080240B1
:100D0000000C024000100240001402400018024093
:100D1000001C0240426921EA02030A4043EA024100
:100D2000816170470AB1816170470904FBE70000E7
:100D30000148806870470000F40000200248816884
:100D40000278114481607047F40000200B4810B510
:100D5000016841F400710160016841F48061016043
:100D6000016841F480710160032000F06FF80F20EA
:100D700000F006F800F024F8002010BD003C02400E
:100D800070B50D4D04464FF47A712878B1FBF0F040
:100D90000A490968B1FBF0F000F00AFB48B9102CD1
:100DA00007D200222146501E00F030F800206C606F
:100DB00070BD012070BD0000F40000200001002083
:100DC0000A4808B5016841F480410160006800F4F8
:100DD000804000900548001F016841F0805101608B
:100DE000006800F08050009008BD000044380240C8
:100DF000002809DB00F01F0201219140400980001A
:100E000000F1E020C0F8001170470000F0B40E4B74
:100E10001B680C46C3F30223C3F10705042D00D958
:100E20000425191D072901D2002300E0DB1E01263D
:100E300006FA05F1491E214099409E40761E164053
:100E40003143F0BC02F054BD0CED00E0064900F067
:100E5000070208684FF6FF03184040EA0220034AE1
:100E600010430860704700000CED00E00000FA0538
:100E70002DE9F0470E46050065D0DFF81481D8F85B
:100E80000000F7B200F00700B04207D288F8007007
:100E9000D8F8000000F00700B04254D128683D4C5B
:100EA000810712D5400703D5206840F4E050206048
:100EB0002878000703D5206840F46040206020684F
:100EC000A96820F0F000084320602878C0072DD0E2
:100ED000304968680839012812D0022813D0032845
:100EE00011D00968890700292DDA216821F0030152
:100EF00001432160FFF71CFF814641F2883A0EE072
:100F000009688903EFE709688901ECE7FFF710FF3B
:100F1000A0EB0901514502D90320BDE8F087206804
:100F2000696800F00C00B0EB810FEFD1D8F8001029
:100F3000404601F00701B14207D90770006800F090
:100F40000700B04201D00120E7E72878400705D527
:100F50002068E96820F4E050084320602878000702
:100F600006D52068296920F4604040EAC10020606D
:100F700000F038F82168084AC1F30311515CC840F9
:100F80000649086006480068FFF7FAFE0020C4E73B
:100F9000003C024008380240948200080001002012
:100FA000F80000200448054900680968044AC1F3B4
:100FB0008221515CC840704700010020083802407F
:100FC000A48200080448054900680968044AC1F37E
:100FD0004231515CC840704700010020083802408F
:100FE000A4820008154810B5006810F00C021448DF
:100FF00013D04110042A0FD0082A0ED10F4C241F01
:101000002268236802F03F025B0207D52068C0F324
:101010008810A0FB010106E0084610BD2168C1F35D
:101020008811A1FB00010023FFF7CCF82168C1F370
:101030000141491C4900B0FBF1F010BD08380240E5
:101040000024F4002DE9F84F04006ED02078DFF87A
:101050004C93C007A9F104054AD009F104000168C6
:10106000C1F38101012908D00068C0F38100022882
:101070000AD1D9F80000400206D52868800337D588
:1010800060680028E1D033E06068B0F5803F10D0A0
:10109000B0F5A02F286810D020F480302860286890
:1010A00020F4802028606068A8B1FFF741FE064662
:1010B0000DE0286840F48030F4E740F48020286098
:1010C000F7E700BFFFF734FE801B642873D8286859
:1010D0008003F7D50CE0FFF72BFE064605E000BFC6
:1010E000FFF726FE801B6428F0D828688003F7D419
:1010F0002078DFF8AC8280074FF0000A3ED5A74881
:10110000001D016811F00C0F08D00068C0F38100C9
:1011100002280BD1D9F80000400207D428688007C4
:1011200016D5E068012800D112E033E1E068B8B1DB
:101130000120C8F80000FFF7FBFD064605E000BFF0
:10114000FFF7F6FD801B0228C0D828688007F7D576
:101150002868216920F0F80040EAC10028600DE00D
:10116000C8F800A0FFF7E4FD064604E0FFF7E0FD45
:10117000801B02281FD828688007F7D42078000732
:1011800022D5864F87486169703771B101210160AE
:10119000FFF7CEFD064604E0FFF7CAFD801B0228DC
:1011A00009D838688007F7D50EE0C0F800A0FFF72F
:1011B000BFFD064605E082E0FFF7BAFD801B02286E
:1011C0007DD838688007F7D42078400768D5DFF8E5
:1011D000CCB100270BF13C0BDBF80000C0000BD4B6
:1011E000DBF8001041F08051CBF80010DBF8000074
:1011F000012700F0805000906B4E3068C00510D47D
:10120000306840F480703060FFF792FD009005E098
:10121000FFF78EFD0099401A022850D83068C005AB
:10122000F6D55E4EA0686C3601280FD005283068D0
:1012300010D020F001003060306820F004003060F1
:10124000A068B8B1FFF774FD00900FE0306840F07F
:101250000100F4E740F004003060F7E7FFF768FDB5
:101260000099411A41F28830814266D8306880077F
:10127000F4D50EE0FFF75CFD009007E0FFF758FDA6
:101280000099411A41F28830814256D8306880076F
:10129000F4D42FB1DBF8001021F08051CBF800100E
:1012A000A069C8B33D49091D0968C1F3810102293C
:1012B0004AD00228504607D0C8F8600000E03CE061
:1012C000FFF736FD04463BE04746C8F86000FFF7ED
:1012D0002FFD064605E000BFFFF72AFD801B022810
:1012E0002BD828688001F7D4D4E907010843A16A04
:1012F0002E4A490802EB0141626A41EA8211084321
:1013000094F82C1040EA0161C9F8001001203866F9
:10131000FFF70EFD044606E03EE000BFFFF708FDC4
:10132000001B022809D828688001F7D534E000BFE7
:10133000FFF7FEFC001B022802D90320BDE8F88F4E
:1013400028688001F4D427E00128F7D0D9F80000FC
:10135000E26900F4800191421CD1226A00F03F0151
:10136000914217D147F6C071626A0140B1EB821F0A
:1013700010D1A26A4FF0FF3300F4403103EB520268
:10138000B1EB024F06D194F82C1000F07060B0EB76
:10139000016F01D00120D1E70020CFE704380240DF
:1013A00000004742800E4742007000400000FFFFEF
:1013B00010B5401EB0F1807F01D3012010BD4FF069
:1013C000E02460610F21601702F092FA0020A06112
:1013D00007202061002010BD7047704770B590F85D
:1013E0003C20012A32D0012480F83C40022280F8BF
:1013F0003D2003685A689D6822F070060A683243EF
:101400005A60134B02689A4214D0B2F1804F11D047
:10141000104B9A420ED0104B9A420BD00F4B9A426F
:1014200008D00F4B9A4205D00E4B9A4202D00E4B79
:101430009A4204D1496825F080031943916080F8ED
:101440003D40002180F83C10084670BD022070BD70
:10145000000001400004004000080040000C004073
:1014600000040140004001400018004010B5040095
:1014700003D094F83D0010B107E0012010BD00201A
:1014800084F83C00204600F01FF8022084F83D005C
:10149000211D206801F004FA012084F8460084F838
:1014A0003E0084F83F0084F8400084F8410084F84E
:1014B000420084F8430084F8440084F8450084F82E
:1014C0003D00002010BD000008B501681D48B1F1C5
:1014D000804F11D01C4A91421DD1016841F0020198
:1014E00001600068002200F00200009011461D20FB
:1014F000FFF78CFC1D201FE0016841F00101016035
:101500000068002200F00100009011461C20FFF747
:101510007DFC1C2010E00D4A914211D1016841F080
:10152000040101600068002200F0040000901146F0
:101530001E20FFF76BFC1E20BDE80840FFF758BCDB
:1015400008BD000040380240000400400008004090
:1015500090F83D10012901D001207047022180F848
:101560003D100168CA6842F00102CA600068114972
:10157000884214D0B0F1804F11D00F4988420ED06C
:101580000E4988420BD00E49884208D00D49884246
:1015900005D00D49884202D00C49884204D18168A7
:1015A00001F00701062903D0016841F00101016043
:1015B0000020704700000140000400400008004087
:1015C000000C0040000401400040014000180040B1
:1015D00070B5044690F83C000025012817D001267C
:1015E00084F83C60022084F83D002068826822F084
:1015F000770222F47F4282600868502838D00DDCE0
:1016000020284FD005DC90B3102811D14AE00220E9
:1016100070BD302846D040280AD13BE060282FD04A
:1016200070280DD0B0F5805F03D0B0F5005F12D008
:10163000012584F83D60002084F83C00284670BDF8
:10164000CB68D1E90121206801F0A3F92068816805
:1016500041F0770109E0CB68D1E90121206801F070
:1016600098F92068816841F480418160E1E719E0E0
:10167000CA684968206801F061FA5021206806E0D4
:10168000CA684968206801F06AFA6021206801F0A0
:101690008AF9CEE7CA684968206801F04FFA40210C
:1016A0002068F4E7226801461046F0E770472DE90C
:1016B000F04104460068C66805694FF00007A907B5
:1016C00013D5B10711D5F91E0161012020772068DB
:1016D00080698007204602D0FFF7E8FF04E000F0B1
:1016E000A9F8204600F03BF92777680716D5700760
:1016F00014D521686FF0040008610220207720686B
:10170000806910F4407F204602D0FFF7CFFF04E04D
:1017100000F090F8204600F022F92777280715D529
:10172000300713D521686FF0080008610420207786
:101730002068C0698007204602D0FFF7B7FF04E0A9
:1017400000F078F8204600F00AF92777E80616D569
:10175000F00614D521686FF010000861082020778A
:101760002068C06910F4407F204602D0FFF79EFF3A
:1017700004E000F05FF8204600F0F1F82777E80772
:1017800008D0F00706D021686FF0010008612046FC
:1017900000F04AF9280608D5300606D521686FF012
:1017A000800008612046FFF717FE680608D570061E
:1017B00006D521686FF040000861204600F020FA4D
:1017C000A8060AD5B00608D521686FF02000086188
:1017D0002046BDE8F041FFF700BEBDE8F081000003
:1017E00010B586B0044614216846FEF748FD0E4940
:1017F0002068884215D10D480021026842F0080295
:101800000260006800F0080005904FF470400090FE
:101810000220CDE90101CDE9031069460448FFF734
:1018200081F906B010BD00000008004030380240C9
:10183000000C0240704770B5044690F83C0000264A
:101840000D4601280FD0012084F83C006AB1042A1B
:101850001DD0082A2FD00C2A3FD00126002084F862
:101860003C00304670BD022070BD206801F0A4F835
:101870002068816941F0080181612068816921F057
:1018800004018161206881692A69114311E020689F
:1018900001F0C2F82068816941F40061816120682B
:1018A000816921F480618161206881692A6941EA46
:1018B00002218161D2E7206801F0E4F82068C16963
:1018C00041F00801C1612068C16921F00401C161D2
:1018D0002068C1692A69114311E0206801F006F906
:1018E0002068C16941F40061C1612068C16921F4C7
:1018F0008061C1612068C1692A6941EA0221C16130
:10190000ACE710B5040003D094F83D0010B107E037
:10191000012010BD002084F83C00204600F01EF895
:10192000022084F83D00211D206800F0B9FF01204D
:1019300084F8460084F83E0084F83F0084F84000B4
:1019400084F8410084F8420084F8430084F844009D
:1019500084F8450084F83D00002010BD70477047B2
:1019600010B50446022249B104290ED0082913D02B
:1019700094F84100012816D0012010BD94F83E00D3
:101980000128F9D184F83E200FE094F83F000128A7
:10199000F2D184F83F2008E094F840000128EBD110
:1019A00084F8402001E084F841200122206800F002
:1019B000E3FF16492068164A884201D0904203D1BD
:1019C000436C43F4004343642068884213D0B0F171
:1019D000804F10D00F4988420DD00F4988420AD05D
:1019E0000E49884207D0904205D00D49884202D066
:1019F0000C49884204D1816801F00701062903D00F
:101A0000016841F001010160002010BD00000140AB
:101A1000000401400004004000080040000C0040A9
:101A200000400140001800402DE9F04706460068DC
:101A3000DFF8AC9100256B4CB0F1804F0BD16068A2
:101A4000401C6060A068401CA06001F021FA616841
:101A5000494500DD65606449306888427ED1206870
:101A6000DFF88CA1401C206060480068012853D139
:101A7000E0684FF0010801283DD1A06901282BD171
:101A8000206A062801DA401C20625A4E012805D13E
:101A9000012196ED000A002005F008FF206A0228C7
:101AA00005D1022196ED000A002005F0FFFE206A14
:101AB000032805D1032196ED000A002005F0F6FE6B
:101AC000206A042805D1042196ED000A002005F0C3
:101AD000EDFE206A052803D0E069012808D00AE05D
:101AE000052196ED000A002005F0E0FEC4F81C80F8
:101AF000A561E56125622069012865D16069012839
:101B000062D1A069012808D0002220215046FFF7A9
:101B100009F9E069012852D056E0012220215046FF
:101B2000FFF700F9A06A08B9C4F82880206A0628DF
:101B300040DA401C304E314F2062012808D194F821
:101B40002C000121D6ED000A97ED000A02F020FEDC
:101B5000206A02280AD194F82C0000E03EE002211D
:101B6000D6ED000A97ED000A02F012FE206A032863
:101B700008D194F82C000321D6ED000A97ED000A55
:101B800002F006FE206A042808D194F82C000421F3
:101B9000D6ED000A97ED000A02F0FAFD206A05284A
:101BA00008D194F82C000521D6ED000A97ED000A23
:101BB00002F0EEFD206A0628ABD1C4F81C806562F5
:101BC000A561A562E56125622168494506DD5046AB
:101BD0002560BDE8F0472021FFF79CB8BDE8F087FD
:101BE000A0860100F4010020000400405400002001
:101BF0000008024064010020600100205C01002018
:101C0000704718B5034690F84200202801D0022002
:101C100018BD61B15AB101201863002058631846FD
:101C200001F0D2F80028F3D1196B012901D001206D
:101C300018BD19680A684968009119680C3151E8A3
:101C4000002F42F0100241E80024002CF5D118BD0D
:101C500070B5154A01680125144C914208D128221B
:101C60001349FFF7CEFF6563BDE8704001F000B98E
:101C7000104A914217D128220F49FFF7C2FF0E499F
:101C8000C8782B2809D10D4A00200B5C1354401C46
:101C90000728FADB206B00B92563BDE870403221CC
:101CA0000548FEF7ECBA70BD004800400000002077
:101CB0007A070020004C00402C0800205C02002025
:101CC00070470000F8B5016804460868CA684B69A7
:101CD00010F00F0F4FF0000559D003F0010602F489
:101CE0009077374365D0C10705D0D10503D5616C26
:101CF00041F001016164410705D5D90703D0616C4A
:101D000041F002016164810705D5D90703D0616CF8
:101D100041F004016164010707D502F0200131435D
:101D200003D0616C41F008016164616C00293AD014
:101D3000800604D5900602D5204600F05EFF20689C
:101D40004069616CC0F38010090700D460B320467D
:101D500000F02CFF20684069400621D5206814302F
:101D600050E8001F21F0400140E80012002AF5D1A0
:101D7000E06BA8B16E490165E06BFEF7AFFE00288D
:101D800011D0E06B016D01B0BDE8F040084783065B
:101D90000FD593060DD52046BDE8F84000F02DBFC5
:101DA0002046FFF78DFFF8BD2046FFF789FF6564E9
:101DB000F8BD266B2023012E7DD1C6067BD5D60625
:101DC00079D508684868009048694FF002064006D7
:101DD00041D5E16B086840680004000CE8D0A28D92
:101DE0008242E5D9E085C869B0F5807F2DD02068B2
:101DF0000C3050E8001F21F4807140E80012002AE6
:101E0000F5D12068143050E8001F21F0010140E8AE
:101E10000012002AF5D12068143050E8001F21F08C
:101E2000400140E80012002AF5D184F842302563D1
:101E300020680C3050E8001F21F0100140E800122B
:101E4000002AF5D1E06BFEF700FE6663A08DE18D00
:101E5000401A81B22AE0A08DE18D401A81B2E08D56
:101E60000028A5D00029A3D022680C3252E8000F28
:101E700020F4907042E80007002FF5D1206814305C
:101E800050E8002F22F0010240E80027002FF5D192
:101E900084F84230256320680C3050E8002F22F08F
:101EA000100240E80023002BF5D166632046FFF7BF
:101EB000CFFEF8BDFFE705062BD5150629D594F80A
:101EC00041002128F5D1A068B0F5805F01D12069DB
:101ED000B0B1206A411C2162216800784860E08C22
:101EE000401E0004000CE084E3D12068C16821F0AA
:101EF0008001C1602068C16841F04001C160D8E73D
:101F0000206A0088C0F308004860206A801C2062B4
:101F1000E5E74006CDD55006CBD5CA68204622F06D
:101F20004002CA6084F8413000F0E5F9C1E70000E2
:101F30009D2B000870B5040004D094F841000025E2
:101F400010B106E0012070BD84F84050204600F03A
:101F500023F8242084F841002068C16821F400514E
:101F6000C160204600F0AAFE2068016921F490417A
:101F700001612068416921F02A0141612068C1683E
:101F800041F40051C1606564202084F8410084F868
:101F900042006563002070BD2DE9F04186B0044623
:101FA00014216846FEF76BF96E49DFF8B4C1236867
:101FB00000246C4A10390325022608276A48634525
:101FC0001ED1136843F400231360126802F4002248
:101FD00005920A6842F001020A600968CDE90056DC
:101FE00001F00101CDE904716946CDE90245FEF732
:101FF00099FD002211463420FEF708FF342038E016
:10200000DFF868C1DFF86881634537D1106840F4B4
:1020100080101060106800F480100590086840F08F
:1020200004000860086800F004000590086840F0AB
:1020300008000860086802AB00F0080005904FF443
:102040008050CDE9000683E8B00069464948FEF7B4
:1020500069FD0420CDE9000602AB694683E8B000C3
:102060004046FEF75FFD002211463520FEF7CEFE0A
:102070003520FEF7BDFE06B0BDE8F081DFF8F8C000
:102080000727634522D1374A121D136843F0100316
:102090001360126802F0100205920A6842F0010211
:1020A0000A60096802AA01F0010105914FF4C061BC
:1020B000CDE9001682E8B0006946FEF733FD002244
:1020C00011462520FEF7A2FE2520D2E72B488342A9
:1020D00020D1106840F400301060106800F4003027
:1020E0000590086840F008000860086802AB00F03E
:1020F000080005906020CDE9000683E8B00069463D
:102100004046FEF70FFD002211462620FEF77EFE18
:102110002620AEE71A488342ADD1106840F48020F3
:102120001060106800F480200590086840F00200FC
:102130000860086802AB00F0020005904FF44060B0
:10214000CDE9000683E8B00069460E48FEF7EAFCD8
:10215000002211462720FEF759FE272089E70000BC
:10216000004C004040380240000002400050004057
:10217000000C0240000802400010014000440040F2
:1021800000480040000402402DE9F84F044690F852
:1021900042009A4616460D46202802D00220BDE88D
:1021A000F88FB5B1AEB100206064222184F84210EE
:1021B0002063FEF7BDFDA6858146E685A0684FF445
:1021C00080582027404501D1206920B12E460025A6
:1021D00029E00120E3E7002625E04B4600222021EC
:1021E0002046CDF800A000F00AFE18B184F8427035
:1021F0000320D4E726B1A06840451AD038B108E0E2
:1022000020684068C0F3080025F8020B08E0206948
:1022100078B12068406800F07F0000BF06F8010B2D
:10222000E08D401EE085E08D0028D6D184F8427014
:10223000B5E720684068F1E790F84230202B01D0E4
:102240000220704721B11AB10023036300F0BCBD26
:102250000120704770472DE9F843044690F841008B
:10226000984616460D46202802D00220BDE8F88385
:1022700085B17EB100206064212084F84100FEF722
:1022800057FDA6848146E684A0682027B0F5805FCC
:1022900002D003E00120E9E7206910B12E460025B5
:1022A0000EE000260CE08021204600F0A8FDA8B931
:1022B000C6B116F8010B21684860E08C401EE0842E
:1022C000E08C4B464FF00002CDF800800028EAD1A8
:1022D0004FF04001204600F092FD40B184F841707B
:1022E0000320C3E735F8020BC0F30800E3E784F8E6
:1022F00041700020BAE77047FEE70000064B10B5BA
:102300005C78C2F30723D2B214B103700A7010BD17
:102310000B70027010BD000004010020F0B587B002
:1023200014216846FDF7ABFF25480025016841F000
:1023300080010160016801F080010591016841F0B0
:1023400001010160016801F001010591016841F09E
:1023500004010160016801F004010591016841F088
:1023600002010160016801F002010591016841F07C
:10237000080101600068134E00F00800059000227B
:1023800020213046FEF7CEFC0F4F002204213846B4
:10239000FEF7C8FC01242020CDE900046946304640
:1023A000CDE90245FEF7BEFB0420CDE900046946F5
:1023B0003846CDE90245FEF7B5FB07B0F0BD000099
:1023C00030380240000802400004024010B586B0D8
:1023D00000241848009401940294039404944FF04C
:1023E00080410594016040F28F61C0E901144FF40F
:1023F0007A71C0E9031480218161FFF737F808B1D1
:10240000FEF721FB4FF48050009069460948FFF722
:10241000DFF808B1FEF717FB2020CDE9040404A97A
:102420000448FEF7DBFF002801D0FEF70CFB06B0E6
:1024300010BD00003004002010B586B000241848FC
:102440000094019402940394049414490594016047
:1024500040F28F61C0E901144FF47A71C0E90314AE
:1024600080218161FFF702F808B1FEF7ECFA4FF422
:102470008050009069460A48FFF7AAF808B1FEF7B5
:10248000E2FA2020CDE9040404A90548FEF7A6FFDE
:10249000002801D0FEF7D7FA06B010BD00040040B6
:1024A0007804002010B58EB0002407940894099495
:1024B0000A940B941C2168460C94FDF7E0FE2B480F
:1024C0002949016040F28F61C0E9011440F2CF71E7
:1024D000C0E903148461FEF7C9FF08B1FEF7B3FA3F
:1024E0004FF48050079007A92048FFF771F808B112
:1024F000FEF7A9FA1D48FFF704FA08B1FEF7A3FAA0
:102500000B940BA919480C94FEF768FF08B1FEF76D
:102510009AFA6020CDE9000402940022694613482B
:102520000494FFF788F908B1FEF78DFA0422694692
:102530000E48FFF780F908B1FEF785FA08226946D0
:102540000A48FFF778F908B1FEF77DFA0C226946D0
:102550000648FFF770F908B1FEF775FA0348FFF770
:102560003FF90EB010BD000000080040C00400207C
:102570000C4810B50A4901604FF4E1314160002177
:1025800081600C22C160C0E904128161C161FFF762
:10259000D1FC002803D0BDE81040FEF754BA10BDAE
:1025A000004C0040080500200C4810B50A490160A5
:1025B0004FF416514160002181600C22C160C0E9D6
:1025C00004128161C161FFF7B5FC002803D0BDE8AA
:1025D0001040FEF738BA10BD0050004050050020F2
:1025E0000C4810B50A4901604FF4E1314160002107
:1025F00081600C22C160C0E904128161C161FFF7F2
:1026000099FC002803D0BDE81040FEF71CBA10BDAD
:1026100000100140980500200C4810B50A490160DF
:102620004FF4E1314160002181600C22C160C0E9BA
:1026300004128161C161FFF77DFC002803D0BDE871
:102640001040FEF700BA10BD00440040E005002035
:102650000C4810B50A4901604FF4E1314160002196
:1026600081600C22C160C0E904128161C161FFF781
:1026700061FC002803D0BDE81040FEF7E4B910BDAE
:102680000048004028060020FEE7FEE770470000F3
:102690007FB582B015460C46064604F0A3FC022026
:1026A0000090012305AA2146304605F013FD05F0F0
:1026B000EFFC01F051FB002832D01C4E002003211A
:1026C000B07001A804F090FC032828D19DF81410E4
:1026D000284604F089FC9DF81410044688421ED157
:1026E00001210DF1070004F07FFC012817D19DF8AE
:1026F00004009DF805109DF8062008441044C1B25E
:10270000002004E02B5C401C1944C9B2C0B2A042B6
:10271000F8DBC8439DF80710C0B2814202D0002008
:1027200006B070BDB2702046FAE700000401002038
:1027300010B50E4C411C08D000212160C0B23821D8
:1027400004F05AFC411C0ED004E00948417800789E
:1027500040EA01202168002904D1010402D520F4B7
:102760000040404210BD0121216010BD2001002029
:10277000F00600202DE9F0411D4616460F46804622
:10278000002408E0002C06DD09A1012004F0AEFBC6
:102790006420FEF7B5F92B46324639464046FFF72E
:1027A0005AFD002802D0641C0A2CEBDBBDE8F08146
:1027B0006661696C0000000002460448407810B170
:1027C00041EA0220704742EA0120704704010020DC
:1027D0007047FEF7B3BA000030B593B030216846B9
:1027E000FDF74DFD14210CA8FDF749FD1D480025FE
:1027F000016841F080510160006800F08050119044
:102800001948016841F4804101600068022400F425
:102810008040119001200090000401908001CDE9DA
:10282000064008AA0420A82182E813000B906846FD
:10283000FEF708FC08B172B6FEE70CA90F2081E88C
:1028400031004FF4A0500F904FF4805010900521AC
:102850000CA8FEF70DFB002801D072B6FEE713B0FE
:1028600030BD00004038024000700040024801685E
:1028700041F470010160704788ED00E00148FEF707
:1028800016BF0000300400200148FEF710BF000012
:10289000780400200148FEF70ABF0000C0040020B1
:1028A000F0B50268294C2A4D2A4E2B4F2B4B4FF086
:1028B000804CA04209D0604507D0A84205D0B04264
:1028C00003D0B84201D0984204D122F0700E4A6879
:1028D00042EA0E02A0421BD0604519D0A84217D090
:1028E000B04215D0B84213D0984211D01C4DA84226
:1028F0000ED01C4DA8420BD01B4DA84208D01B4D3A
:10290000A84205D01A4DA84202D01A4DA84203D1C0
:1029100022F44075CA682A434D6922F080022A4396
:1029200002608A68C2620A688262A04201D098424C
:1029300001D109690163012141610169C90703D01E
:10294000016921F001010161F0BD000000000140BA
:102950000004004000080040000C0040000401405A
:102960000040014000440140004801400018004080
:10297000001C00400020004010B501F01F030121A1
:10298000046A99408C430462016A9A4011430162CF
:1029900010BD10B5846842EA032224F47F440A4340
:1029A0002243826010BD826822F070020A4342F026
:1029B0000701816070470000F0B5036A026A22F0E7
:1029C0000102026242688469124E24F073050C68A9
:1029D0002C4323F002058B682B430D4DA84201D0F8
:1029E000B04205D123F00807CB683B4323F0040332
:1029F000A84201D0B04205D14D6922F4407215437E
:102A00008A692A4342608461496841630362F0BD78
:102A10000000014000040140F0B5026A036A23F09F
:102A200010030362436884690D6824F4E64444EAB1
:102A300005248D6822F0200242EA05120F4D104E47
:102A4000A84201D0B04206D1CF6822F0800242EA0B
:102A5000071222F04002A84201D0B04207D14D69CE
:102A600023F4406343EA85038D6943EA85034360A9
:102A70008461496881630262F0BD0000000001408A
:102A800000040140F0B5026A036A23F48073036214
:102A90004368C46922F4007224F073050C68124E76
:102AA0002C438D6842EA05220E4DA84201D0B04267
:102AB00006D1CF6822F4006242EA072222F4806243
:102AC000A84201D0B04207D14D6923F4405343EAF4
:102AD00005138D6943EA05134360C4614968C16306
:102AE0000262F0BD000001400004014030B5046AFC
:102AF000026A22F4805202624268C3690D6823F4BC
:102B0000E64343EA05238D6824F4005444EA05347F
:102B1000084DA84202D0084DA84204D14D6922F4C4
:102B2000804242EA85124260C361496801640462DE
:102B300030BD0000000001400004014010B5036AF0
:102B4000046A24F001040462846924F0F00444EA75
:102B5000021423F00A020A438461026210BD10B518
:102B6000036A046A24F010040462846923F0A00359
:102B700024F4704444EA023243EA011182610162A2
:102B800010BD00000148FFF79DB8000008050020B7
:102B90000148FFF797B800005005002010B5806B82
:102BA0000021C185C184FFF78BF810BD01680C318D
:102BB00051E8002F22F4907241E80023002BF5D158
:102BC0000168143151E8002F22F0010241E800238E
:102BD000002BF5D1016B012909D101680C3151E8B5
:102BE000002F22F0100241E80023002BF5D1202114
:102BF00080F8421000210163704708B590F8421038
:102C0000222901D0022008BD82684FF480539A42E5
:102C100001D1016921B1816A9A421BD04AB10AE00F
:102C20000268816A5268C2F308020A80816A891CBC
:102C300008E0026972B10268526802F07F020A700D
:102C4000816A491C8162C18D491E0904090CC18534
:102C500003D01BE002685268F1E70168CA6822F0FD
:102C60002002CA600168CA6822F48072CA600168E2
:102C70004A6922F001024A61202180F842100021B5
:102C80004163026B012A03D0FFF7E4FA002008BD7C
:102C9000016301680C3151E8002F22F0100241E875
:102CA0000023002BF5D101680A68D20602D50A6814
:102CB00049680091818DFEF7CBFFE7E770B50446C8
:102CC00000680169E26821F4405111430161216902
:102CD000A068E26908436169114308432168CA6832
:102CE00049F20C639A430243CA6020684169A269B1
:102CF00021F440711143416131492068884202D07A
:102D00003049884202D1FEF75DF901E0FEF74AF949
:102D1000E2690023192164253226B2F5004F62686A
:102D200028D0A0FB0101930F9200FDF74BFA01465A
:102D3000B0FBF5F06FF01802504301EB800006EB9A
:102D40000010B0FBF5F000F0F002B1FBF5F002EB83
:102D50000012B1FBF5F06FF01803584301EB80004F
:102D600006EB0010B0FBF5F000F00F0021681044F6
:102D7000886070BDA0FB010192185B41FDF722FA4B
:102D80000146B0FBF5F00201B1FBF5F06FF018035E
:102D9000584301EB800006EBC000B0FBF5F000F0FB
:102DA000F80002EB4002B1FBF5F0584301EB800064
:102DB00006EBC000B0FBF5F000F00700D6E700001E
:102DC000001001400014014081628285C28500210B
:102DD0004164222180F84210016921B10168CA686A
:102DE00042F48072CA6001684A6942F001024A6195
:102DF0000068C16841F02001C160002070472DE9E2
:102E0000F843984617460D460446089E24E0701C79
:102E100022D0FDF78DFFA0EB0800B0421AD8CEB14A
:102E20002068C168490717D5802D15D0402D13D0D3
:102E30000168C94309070FD4016800254068009064
:102E40002046FFF7B3FE0820606484F8405001205C
:102E5000BDE8F8830320FBE72068006835EA00003E
:102E600004D00020B842D2D00020F1E70120F9E7D9
:102E700010B500F00FF8054942F210724868401C86
:102E80004860904201DB0020486010BD7C010020BA
:102E9000704700002DE9F04FF848F9492DED068BF9
:102EA00083B002684878012A01D1F64A1060F64AD8
:102EB0001368F34C0025012B247804D13F2C02D158
:102EC000032800D11560F14B01221E6826B93F2C62
:102ED00002D1772800D11A60DFF8B4834FF0030ED7
:102EE000D8F80030012B02D0022B07D01AE03F2C7B
:102EF00018D1442816D1E74B1D6013E0252C11D1C1
:102F0000E54F0123CE5C012E03D0022E01D0032E0B
:102F100003D107EB830C4CF8046C5B1C042BF1DB36
:102F2000C8F800E0DD4B1B68012B05D13F2C03D115
:102F3000272801D1DA4B1A60DA4B1E68022E04D121
:102F40003F2C02D1612800D11A60D74B1E6826B9E8
:102F50003F2C02D1622800D11A60D44EC84B37688A
:102F600093F806C0CDF800C0B3F804A093F803901E
:102F7000012F02D0022F26D038E0009B212B35D123
:102F8000BF4BCB4F012CB3F8013002D0022C02D042
:102F900004E05BBA01E05BBA5B423B60C54BB9F150
:102FA000010F03D0B9F1020F03D006E09AFA9AF7A5
:102FB00002E09AFA9AF77F421F60102816D13F2C40
:102FC00014D1356012E0072804D0082806D009285B
:102FD0000AD00BE03F2C09D1B74802E03F2C05D1C5
:102FE000B64802604D7001E03F2C08D09346B44AC9
:102FF000A348C2F800B04078882802D006E0B14863
:10300000EFE73F2C02D1B04AC2F800B0AF4A1768D0
:10301000022F15DA9A4E2A2C12D1DFF8B4C2012100
:10302000735C012B03D0022B01D0032B03D10CEBDB
:10303000810848F8043C491C0729F1DB7F1C176014
:10304000A44B1968012940D1009A8D49212A3CD10D
:10305000A14AA24E012C02D0022C04D016E0B1F8F5
:10306000011049BA03E0B1F8011049BA49421160B0
:103070001168D6ED000A00EE101AB8EEC00A20EE74
:10308000200ABDEEC00A10EE101A11609449954A4C
:10309000B9F1010F03D0B9F1020F03D014E09AFA8D
:1030A0009AF602E09AFA9AF676420E600E68D2ED2F
:1030B000000A00EE106AB8EEC00A20EE200ABDEE4B
:1030C000C00A10EE102A0A601D60874909680129AC
:1030D00006D1032804D13F2C02D1844AC2F800B0A3
:1030E00083490968834E012912D16549824A07281C
:1030F00004D0082806D0092808D009E03F2C07D1C1
:1031000058460DE03F2C03D1022009E03F2C06D0A9
:103110009FED7A8B012C06D0022C07D010E0704670
:1031200010604D700CE0FDF755FA02E04042FDF7EB
:1031300040FA53EC182BFDF75BF9FDF758FA70666F
:103140004F4802468178B2F803306E4A012902D016
:10315000022902D012E05BBA01E05BBA5B42F36085
:10316000F368D2ED000A00EE103AB8EEC00A20EE85
:10317000200ABDEEC00A10EE103AF360404B4779CA
:10318000DB88012F02D0022F02D012E05BBA01E0EF
:103190005BBA5B42B361B369D2ED000A00EE103A4C
:1031A000B8EEC00A20EE200ABDEEC00A10EE102ACA
:1031B000B261477854489FED558A442F0ED1354A65
:1031C0001368012B0AD13F2C08D11560504A82EDBB
:1031D000008A504A82ED008A80ED008A4E4A1368C8
:1031E000012B11D14E4BDFF834C1DFF83881D3ED1C
:1031F000000A404B9CED001AD8ED001A93ED1A0A14
:10320000012C02D0022C38D0E2E002EE107A736E6C
:10321000B8EE422A22EE011A02EE107AF8EE422AA5
:1032200002EE103A5B005B42B8EEC22A32EE822A0E
:10323000F8EEC02AB8EEC00A32EE222A00EE821A58
:1032400000EE903AB8EEE02A00EE907AF8EE600ACE
:1032500072EE200A30EE800A01EE801ABDEEC10A3D
:1032600010EE103AF366052B02DDB1EE040A5FE0C2
:10327000012B59DAB7EE000A5AE05EE0EC000020BC
:103280007A070020F0000020440000208000002089
:10329000000000202402002030020020E000002076
:1032A000E4000020E800002078000020D00000208A
:1032B000C8000020CC000020D4000020D80000204E
:1032C0000C020020DC000020C40000203C00002094
:1032D000900000204C00002024010020E481000820
:1032E00028010020E8810008680000206400002018
:1032F000400000207C010020480000209A99999904
:103300009999B93FA88100086401002000000000DD
:103310005C01002060010020000200209C81000868
:10332000A0810008A481000800EE103AB8EEC00A9F
:1033300080ED000A7766B7664AE002EE107A736E97
:10334000F8EE422A02EE103A5B005B42B8EEC22A67
:1033500032EE622AF8EEC02AB8EEC00A32EE222A15
:1033600062EE200A02EE107AB8EE422A41EE420ADC
:1033700001EE103AB8EEC12A01EE107AB8EE411A09
:1033800032EE411A31EE000A41EE800ABDEEE00A4B
:1033900010EE103AF36613F1050F02DAB9EE040AE3
:1033A00008E0002B02DBBFEE000A03E000EE103A5B
:1033B000B8EEC00A80ED000A00EE107AB8EE400ABE
:1033C000B1EE400ABDEEC00A86ED190A86ED1A0A72
:1033D000272F02D0282F05D007E03F2C05D180ED04
:1033E000008A01E03F2C00D11560D948006801280F
:1033F0007ED1012C02D0022C05D00DE000EE107A17
:10340000B8EE400A05E000EE107AB8EE400AB1EEE0
:10341000400AD04880ED000A012902D0022905D0D7
:103420000DE000EE109AB8EE400A05E000EE109AAA
:10343000B8EE400AB1EE400AC74880ED000ADFF856
:103440001483D8F80000FDF70AF99FEDC49B53ECF4
:10345000192BFCF7CDFFFDF715F908EE900ABE48D1
:103460000068FDF7FCF853EC192BFCF7C1FFFDF7E2
:1034700009F9FDEEE80A00EE100A10EE900AF0607D
:10348000BDEEC00A10EE100AB061F0683061B0699C
:10349000F06130697061F06930627069F168084408
:1034A0003169494200EB410000EE100AAD48B8EE28
:1034B000C00AD0ED000A20EE200A10EE100AFDF737
:1034C000CEF89FEDA9AB53EC1A2BFCF791FF41EC22
:1034D000190BA748D0ED000AF06800EE100AF0685A
:1034E000B8EEC00A20EE800A31690844716900E034
:1034F000ADE0084400EE900A9E48F8EEE00A90ED38
:10350000001A01EE200A10EE100AFDF7A8F853EC9D
:10351000192BFCF7C6FEFDF7B5F8C8F800000190BE
:10352000306AB1690844F169494200EB410000EE9C
:10353000100A8C48B8EEC00AD0ED000A20EE200A2E
:1035400010EE100AFDF78BF853EC1A2BFCF750FF26
:1035500041EC190B8648D0ED000AB06900EE100A64
:10356000B069B8EEC00A20EE800A31690144706982
:10357000084400EE900A7F48F8EEE00A90ED001A49
:1035800001EE200A10EE100AFDF769F853EC192B32
:10359000FCF787FEFDF776F86F49774AB2EE040A2A
:1035A000086001460198904201DD88ED000A6A48F2
:1035B000914201DD80ED000A704AD8F800304146A2
:1035C000BAEE040A934201D981ED000A03689342DE
:1035D00001D980ED000A91ED000A4FF07C5310EE06
:1035E000102AF6EE000A9A4206DAB5EEC00AF1EEAB
:1035F00010FA01DDC1ED000A90ED000A10EE102A6C
:103600009A4206DAB5EEC00AF1EE10FA01DDC0ED1D
:10361000000A91ED000A4FF03F4310EE102AFEEE33
:10362000000A9A4206D2B5EEC00AF1EE10FA01D2B3
:10363000C8ED000A90ED000A10EE101A994206D269
:10364000B5EEC00AF1EE10FA01D2C0ED000A4C4806
:10365000172C02D0182C13D005E03E4981ED008ACA
:103660003D4981ED008A4749DFF81CC1474A0B6894
:103670004749392F08D0402F09D0412F0FD012E0F1
:1036800033490D60B560E8E7012B0AD00BE0022B4F
:1036900007D008E0CCF8005015600D6045E0032B22
:1036A00001D13F2CF6D0DCF80030012B3DD1009B3E
:1036B000212B3AD1374B012C02D0022C04D00AE046
:1036C000B0F8010040BA03E0B0F8010040BA40424F
:1036D0001060C3F800B0B9F1010F03D0B9F1020FC7
:1036E00003D008E09AFA9AF002E09AFA9AF040427F
:1036F0000860C3F800B028480068012815D1136895
:103700002748264AD0F800C002EB8C0C8CF8013018
:103710000968036802EB830291700168632903DA88
:103720000168491C016000E005601E48016829B974
:103730003F2C03D1332F01D1C0F800B0757003B016
:103740003221BDEC068BBDE8F04F0D48FCF797BD6C
:10375000040200205C010020600100209A999999E0
:103760009999D93F98810008000000000000E03FCF
:10377000908100089481000800002041000020C1D1
:103780007A07002074000020700000202C01002027
:1037900030010020C0000020080000208E02002020
:1037A000380000207C0000200148FEF78BBA0000A2
:1037B000980500200148FEF785BA0000E0050020CA
:1037C0000148FEF77FBA000028060020F0B585B05A
:1037D000054602262020CDE9000600240320CDE97D
:1037E000024007200E4F049069463846FDF79AF9CB
:1037F0004020CDE9000669463846FDF793F90A49AD
:1038000008480860C1E901540C20CC60C1E90440BB
:103810008C610846CC61FEF78DFB05B0F0BD000061
:10382000000C0240004400400007002010B5134681
:103830000C460A4601460448FEF7A6FC08B10020E3
:1038400010BD20B210BD0000000700200A4601464E
:103850004FF0FF330148FEF7FEBC000000070020D8
:10386000FEE77CB515460646002903DA484240F4D7
:10387000004001B26C460A46601C8DF80030411CC5
:10388000FEF73CFD0022211DE01CFEF737FD2A4615
:10389000A11D601DFEF732FD07236A46292130462F
:1038A00000F0F0FA7CBD00000FB4054B10B503A981
:1038B000044A029800F03CF810BC5DF814FB0000CC
:1038C0006D3E00082C0200200FB4084B10B504A96F
:1038D00002AA039800F02CF8044602A9002000F088
:1038E00003F9204610BC5DF814FB0000E93A00081B
:1038F0000907090E002804DB00F1E02080F800141D
:10390000704700F00F0000F1E02080F8141D7047B0
:1039100002E008C8121F08C1002AFAD17047704798
:10392000002001E001C1121F002AFBD170470000F6
:103930002DE9FF4F8BB09A460F460546002606E05C
:1039400025280BD052460D9990476D1C761C28787F
:103950000028F5D10FB03046BDE8F08F0024A04616
:103960000122604900E0044315F8013F203B02FAC0
:1039700003F00842F7D128782E2817D115F8010F47
:1039800044F004042A280ED06FF02F022878A0F10A
:10399000300109290AD808EB880102EB410100EB4C
:1039A00001086D1CF2E757F8048B6D1C2878692814
:1039B0003ED006DC0028CDD063280BD0642804D18B
:1039C00036E0732810D075284BD052460D99904799
:1039D000761C85E017F8040B8DF8000000208DF8A8
:1039E0000100E946012003E057F8049B4FF0FF3047
:1039F00061074FF0000401D40AE0641C44450DDA6D
:103A00008442FADB19F804100029F6D106E0641CA0
:103A10008442FCDB19F804100029F8D1264404E0A4
:103A200019F8010B52460D999047641EF8D257E0E1
:103A300001CF4FF00A0B002802DA40422D2102E0AC
:103A4000210504D52B218DF82410012103E0E10785
:103A500005D02021F7E70DF1200908910CE00021A5
:103A6000F9E701CF4FF00A0BF9E75946FCF726FEBC
:103A700001F1300209F8012D0028F6D1ADEB090063
:103A800000F1200B600701D44FF00108D84502DD9A
:103A9000A8EB0B0000E000208046002406E009A807
:103AA0005246005D0D999047641C761C089884422C
:103AB000F5DB04E0302052460D999047761CB8F1B2
:103AC0000001A8F10108F5DC05E019F8010B5246E8
:103AD0000D999047761CBBF10001ABF1010BF4DCB2
:103AE0006D1C34E7092801000A68531C0B60107034
:103AF000704703F093BA000070B550EA01037DD01F
:103B0000962800DD9620962900DD96216FF095031A
:103B1000984200DA1846994200DA1946664B0024AA
:103B20001C605C6000EE100A644DB8EEC00AD5ED72
:103B3000000A1D6920EE800A9E690544354400EEA6
:103B4000905A5F4DF8EEE00A95ED001A1D6901EEFE
:103B5000200A451B00EE905A5A4DF8EEE00A95ED0A
:103B6000001A594D01EE200A00EE901A95ED001A48
:103B70005D69F8EEE00A61EE200ADE690D44354425
:103B800001EE105A514DB8EEC11AD5ED001A5D691B
:103B900041EE810A4D1B01EE105A4D4DB8EEC11A8F
:103BA000D5ED001A4B4D41EE810A95ED001A4A4DB4
:103BB00020EE010A95ED001A1D6960EE810A9D61F3
:103BC00018615869D86159619FED441AB4EEC10A71
:103BD000F1EE10FA01DDB0EE410AF4EEC10AF1EEA9
:103BE00010FA01DDF0EE410A9FED3D1AB4EEC10A74
:103BF000F1EE10FA01D2B0EE410A00E009E0F4EE75
:103C0000C10AF1EE10FA01D2F0EE410A012A03D006
:103C100037E04FF0FF3070BD10EE100A4FF07E51CC
:103C2000304AB7EE001AFFEE001A884207DAB5EE06
:103C3000C00AF1EE10FA02DDB0EE410A03E010EE28
:103C4000100A904206D2B5EEC00AF1EE10FA01D287
:103C5000B0EE610A10EE900A884207DAF5EEC00A6B
:103C6000F1EE10FA02DDF0EE410A03E010EE900AE8
:103C7000904206D2F5EEC00AF1EE10FA01D2F0EE53
:103C8000610A186A1849401C1862884200DD1C62EB
:103C9000BDEEC00AFDEEE00AB8EEC00AF8EEE00A9A
:103CA000BDEEC00AFDEEE00A10EE100A10EE901A0A
:103CB00003F0B4F9002070BD2C010020C48100087D
:103CC000C8810008CC810008D0810008D481000898
:103CD000D8810008DC810008E0810008000048422B
:103CE000000048C2000080BF40420F0010B540F6FF
:103CF0009D34D22340F6FF722146042000F0B4F830
:103D00000148846010BD00002C01002010B54FF464
:103D10004864D22340F6FF722146042000F0A4F844
:103D20000148846010BD00002C01002010B5042063
:103D3000FEF7FEFC40F2DC5188420ADD40F244749A
:103D4000D22340F6FF722146042000F08DF801488E
:103D5000846010BD2C01002038B5002425460121C7
:103D6000684603F041F900280FD09DF80010E0B23A
:103D700060F30F2461F30704FF2901D1FF2805D068
:103D80006D1CEDB20A2DEAD9002038BD012038BDE6
:103D900000234FF47A6240F60C51022000F064B820
:103DA0005A234FF47A6240F60C51022000F05CB8BE
:103DB00000234FF47A6240F23661022000F054B8DA
:103DC00000234FF47A6240F23661022000F04CB8D2
:103DD0005A234FF47A6240F23661022000F044B870
:103DE0000E4900209FED160A08600D4908600D4934
:103DF00008600D4908600D4908600D4908600D49CB
:103E000008600D4908600D4908600E4880ED020AFF
:103E100080ED000A80ED010A70470000E0010020FB
:103E2000E4010020EC010020880100208C0100202A
:103E30009001002094010020980100209C010020A6
:103E4000000000005C01002002494F2009688863DF
:103E500070470000C004002002494E2009688863B2
:103E600070470000C0040020FFF7FBBC13B54FF6FD
:103E7000FF73012269460248FEF7EDF900981CBD68
:103E800050050020F8B51C4615460E46074603F0BF
:103E9000A9F80320009023462A463146384604F00C
:103EA00019F904F0F5F83846BDE8F840FCF720BDF4
:103EB0002DE9F05F17468846054603F035FF02F00E
:103EC000CFFEB868784CDFF8E4A1DFF8E4914FF456
:103ED000FA66A8421FD1B8F1010F32467DD03AF8F8
:103EE0002500D22301B20320FFF7BEFF1420FCF708
:103EF00007FE39F82500D22301B240F6FF720420F4
:103F0000FFF7B2FF1420FCF7FBFD5AF82500E06034
:103F100059F82500A0607868A8421FD1B8F1010FB8
:103F200032467CD03AF82500D22301B20320FFF7B5
:103F30009BFF1420FCF7E4FD39F82500D22301B2E1
:103F400040F6FF720420FFF78FFF1420FCF7D8FD26
:103F500059F82500A0605AF82500E0603868A842AA
:103F60001ED1B8F1010F32467ED03AF82500D22397
:103F700001B20320FFF778FF1420FCF7C1FD39F8E8
:103F800025004E4601B2D22340F6FF720420FFF70F
:103F90006BFF1420FCF7B4FD56F82500A060E0602C
:103FA0004FF496742046FCF7ABFD02F0C3FF6000AF
:103FB000FCF7A6FDFFF750FF2046FCF7A1FD03F03C
:103FC00001F8FFF793FE2046FCF79AFDFFF7F8FE95
:103FD0004FF4FA70FCF794FD00E012E002F0E2FF0B
:103FE0002046FCF78DFD02F03BFEC820FCF788FD63
:103FF00002F0E8FF2046FCF783FDBDE8F05FFFF725
:10400000C7BE40F6BE2BD22359460320FFF72CFF34
:104010001420FCF775FDD22340F6FF7200E00DE09E
:1040200040F698310420FFF71FFF1420FCF768FDCD
:1040300040F69830A060C4F80CB06CE7D22340F290
:1040400076710320FFF710FF1420FCF759FD40F2B2
:10405000447BD22340F6FF7259460420FFF704FF49
:104060001420FCF74DFD00E004E0C4F808B040F275
:10407000767072E740F23D45D22329460320FFF7D0
:10408000F3FE1420FCF73CFD40F6C836D22340F680
:10409000FF7231460420FFF7E7FE1420FCF730FDE5
:1040A000A660E5607CE700002C0100203C020020B7
:1040B0004C0200202DE9F0471D461646894607466A
:1040C00003F01AFE02F0CCFD02F07CFFFFF70EFEBB
:1040D0004FF4FA7A5046FCF713FDFFF769FEA96822
:1040E0004D484E4C4FF4FA62B94205D116B140F634
:1040F000BE2010E0808837E06968B94205D116B16A
:1041000040F2767007E000892EE02968B9420AD1B2
:104110004EB340F23D4080460146D2230320FFF7D4
:10412000A3FEC4F80C805046FCF7EAFC02F03AFF0C
:104130009620FCF7E5FCFFF78FFEC820FCF7E0FCBB
:1041400002F040FFC820FCF7DBFCFFF721FEA86867
:10415000DFF8CC804FF47A62B84215D156B1D22341
:1041600040F6983529E08089D22301B20320FFF779
:104170007BFED8E7B8F80400D22301B20420FFF791
:1041800073FED8F804003BE06868B8420ED11EB157
:10419000D22340F2447510E0B8F80800D22301B2EF
:1041A0000420FFF761FED8F8080029E02868B8422B
:1041B00008D1E6B1D22340F6C83529460420FFF7DE
:1041C00053FEA560C820FCF79BFCB9F1010F19D084
:1041D00002F0C0FEFFF738FE4FF41670FCF790FCBB
:1041E000FFF73AFE6420BDE8F047FCF789BCB8F859
:1041F0000C00D22301B20420FFF736FED8F80C00E1
:10420000A060DFE7C820FCF77BFC02F0B3FEFFF7FD
:1042100023FE5046E7E700003C0200202C0100206E
:104220004C0200209FED061AC0EE010A9FED050A20
:1042300020EE800ABCEEC00A10EE100A70470000A3
:104240003333FB41000048459FED071ADFED071AA5
:1042500020EE010A80EE211A81EE200ABDEEC00A8E
:1042600010EE100A7047000000007A44B81E053FA7
:10427000FCF76CFDFEF7B0FAFEF750F8FEF7B0F968
:10428000FEF7CAF9FEF7E4F9FEF7A0F8FEF7D4F856
:10429000FEF708F9FEF788F9FEF76AF901222F49BF
:1042A0002F48FDF7C9FF28222E492F48FDF7A9FC0A
:1042B00028222E492E48FDF7A4FC2E48FDF748F988
:1042C0002D48FDF745F900212C48FDF749FB042155
:1042D0002A48FDF745FB08212848FDF741FB0C2142
:1042E0002648FDF73DFB00F05FFB4FF44870FCF7FC
:1042F00007FC234D2349002401206C650860224AF5
:104300002046802102F8201002EB8003597099703A
:10431000D970401C6428F5DB6C631B4C00201B49E2
:10432000523C1B4B04F110020D6844F820501D68EC
:1043300042F82050401C0428F6DB00214C1E204689
:1043400001F0B6FB204601F06FFC204602F052F966
:10435000204600F02DFB01F01BFD0000F0010020C5
:10436000500500207A070020280600202C08002095
:10437000080500203004002078040020C00400203C
:1043800000000020080200208E020020AC820008FD
:10439000B0820008F0B5B5EEC00A2DED028B70EECC
:1043A000608A30EE208A0125BB4CF1EE10FA83B012
:1043B0000E46074643DBF5EEC00AF1EE10FA3EDB8F
:1043C000B0EE480AFFF72EFF21788DE823003B4628
:1043D000324600210120FCF7B9FA0A20FCF790FBD5
:1043E000B0EE480AFFF71EFF21788DE823003B4618
:1043F000324601210420FCF7A9FA0A20FCF780FBD1
:10440000F5EEC08AF1EE10FA12DBB0EE680AFFF7A3
:1044100009FF21788DE823003B4632460021022027
:10442000FCF794FA0A20FCF76BFBB0EE680A29E16E
:10443000B1EE680AB0EE408AF7E0032045E0B5EE41
:10444000C00AF1EE10FA50DBF5EEC00AF1EE10FAF8
:104450004BD2B0EE680AFFF7E5FE21788DE8230025
:104460003B46324600210220FCF770FA0A20FCF796
:1044700047FBB0EE680AFFF7D5FE21788DE82300F0
:104480003B46324601210320FCF760FA0A20FCF784
:1044900037FBB5EEC08AF1EE10FA12DBB0EE480A37
:1044A000FFF7C0FE21788DE823003B46324600210D
:1044B0000120FCF74BFA0A20FCF722FBB0EE480A79
:1044C00058E0B1EE480A60E00420FCF73FFA0A2009
:1044D000FCF716FB0020FCF781FA03B00A20BDECC4
:1044E000028BBDE8F040FCF70BBB30EEC08AB5EEA6
:1044F000C00AF1EE10FA63D2F5EEC00AF1EE10FA3E
:104500005EDB70EE808AB0EE480AFFF78BFE217802
:104510008DE823003B46324601210220FCF716FAC3
:104520000A20FCF7EDFAB0EE480AFFF77BFE21788F
:104530008DE823003B46324600210320FCF706FAB3
:104540000A20FCF7DDFAF5EEC08AF1EE10FA1ADB6C
:10455000B0EE680AFFF766FE21788DE823003B463F
:10456000324600210120FCF7F1F90A20FCF7C8FAD5
:10457000B0EE680AFFF756FE21788DE823003B462F
:1045800032460121A0E7B1EE680AB0EE408AFFF79B
:1045900049FE21788DE8230001213B46324608463A
:1045A000FCF7D4F90A20FCF7ABFAB0EE480AFFF7A3
:1045B00039FE21788DE823003B463246002183E70F
:1045C000B5EEC00AF1EE10FA84D2F5EEC00AF1EEB3
:1045D00010FAF9D2B1EE400A70EE608AB0EE680AC5
:1045E000FFF720FE21788DE8230001213B4632466B
:1045F0000846FCF7ABF90A20FCF782FAB0EE680A2D
:10460000FFF710FE21788DE823003B46324600215B
:104610000420FCF79BF90A20FCF772FAB5EEC08A79
:10462000F1EE10FA1ADBB0EE480AFFF7FBFD217835
:104630008DE823003B46324601210220FCF786F933
:104640000A20FCF75DFAB0EE480AFFF7EBFD21788F
:104650008DE823003B4632460021EEE6B1EE480AE3
:10466000B0EE408AFFF7DEFD21788DE823003B465F
:10467000324600210220FCF769F90A20FCF740FAD3
:10468000B0EE480AFFF7CEFD21788DE823003B46C7
:1046900032460121D1E60000BC0000202DE9F047A0
:1046A00092462DED068BF0EE408AB0EE608AF5EE74
:1046B000C08A0D46F1EE10FA01D2F1EE688AB5EE2D
:1046C000C08AF1EE10FA01D2B1EE488AC0F58070CE
:1046D000FBF780FF8946074649EC190B2846FBF794
:1046E00079FF884648EC100B9FED27AB064653EC4C
:1046F0001A2B51EC100BFBF77BFE53EC192BFBF73D
:1047000077FE00EE105A41EC190BF8EE400AB0EEBD
:10471000680AFFF799FDFBF74CFF53EC192BFBF7E9
:10472000C0FDFBF764FF48EC106B044649EC197BB5
:1047300053EC1A2B51EC100BFBF75AFE53EC192BD0
:10474000FBF756FE00EE105A41EC190BF8EE400A4A
:10475000B0EE480AFFF778FDFBF72BFF53EC192B5F
:10476000FBF79FFDFBF743FF844200DD20465044EA
:10477000002805DDBDEC068BBDE8F047FCF7C0B9AD
:10478000BDEC068BBDE8F0879A9999999999A93F54
:1047900070EE602A30EE202AB5EEC00A0122FCEE4F
:1047A000E21ABCEEC21A08B5F1EE10FA37DBF5EEEC
:1047B000C00AF1EE10FA32DB30EE600A0629B1EEE3
:1047C000400ABCEEC00A29D2DFE801F02803070B3B
:1047D00018E911EE101A00927BE011EE101A009207
:1047E0008AE0F5EEC02AF1EE10FA03DB11EE901A22
:1047F0000092BEE010EE101A00925AE0F5EEC02AC8
:10480000F1EE10FA04DB00BF11EE901A0092C1E045
:1048100010EE101A009250E0FCF7F6F808BDB5EE65
:10482000C00AF1EE10FA24DBF5EEC00AF1EE10FA40
:104830001FD20629F2D2DFE801F00504030613B205
:10484000E2E7D3E7EAE7B5EEC02AF1EE10FAC0DA04
:10485000B1EE420A0092BCEEC00A10EE101A3EE021
:10486000B5EEC02AF1EE10FAB7DA11EE101A009286
:1048700048E070EEC01AB5EEC00ABCEEE11AF1EEE7
:1048800010FA44D2F5EEC00AF1EE10FA3FDB70EEFA
:10489000801A70EE800A0629BCEEE00AF1EE600A8A
:1048A000FCEEE00ABAD2DFE801F0035D6E0C1F7A7D
:1048B000B4E78AB2034601215EE08AB203460021D2
:1048C0006BE0F5EEC01A0092F1EE10FA05DB10EE87
:1048D000101A03468AB2002104E010EE901A034633
:1048E0008AB20121012097E7F5EEC01A0092F1EE9D
:1048F00010FA05DB10EE101A03468AB2012104E01B
:1049000010EE901A03468AB20021042084E7B5EE27
:10491000C00AF1EE10FA81D2F5EEC00AF1EE10FAFB
:1049200090D2B1EE402A30EEC00A32EE602A06295B
:10493000B1EE400ABCEEC22ABCEEC00AB8D2DFE833
:1049400001F00304080C1D2E68E712EE101A009205
:10495000C5E712EE101A0092D4E7F5EEC01AF1EE98
:1049600010FA03DB11EE101A0092A2E710EE101AF3
:10497000009203468AB2002102204DE7F5EEC01AEC
:10498000F1EE10FA03DB11EE101A009295E710EE2B
:10499000101A009203468AB2012103203CE7BDE8C9
:1049A00008400020FCF71AB84FF4E130FEF70EBFC4
:1049B00010B54FF47A7401280BD0022815D10123C9
:1049C0000022194609A000F0E5FC2046FCF798F803
:1049D000FBE702F0EFFA06A002F088FB012000F0EE
:1049E000A9FD2046FCF78CF8FBE710BD4C4C0A00F3
:1049F00049490A002DE9F05F16460F46054603F0C7
:104A000093F902F045F9B0687B4CDFF8F091DFF8DC
:104A1000F081A8421FD1012F7DD039F82500D22383
:104A200001B24FF4FA620320FFF71EFA1420FCF7DC
:104A300067F838F82500D22301B240F6FF7204204F
:104A4000FFF712FA1420FCF75BF859F82500E06034
:104A500058F82500A0607068A8421FD1012F7DD0B2
:104A600039F82500D22301B24FF4FA620320FFF790
:104A7000FBF91420FCF744F838F82500D22301B2E2
:104A800040F6FF720420FFF7EFF91420FCF738F826
:104A900058F82500A06059F82500E0603068A84269
:104AA0001ED1012F6FD039F82500D22301B24FF467
:104AB000FA620320FFF7D8F91420FCF721F838F840
:104AC0002500464601B2D22340F6FF720420FFF7CC
:104AD000CBF91420FCF714F856F82500A060E0602C
:104AE0004FF41670FCF70CF802F024FA4FF44874F7
:104AF0002046FCF705F8FFF7A7F94FF4967528460E
:104B0000FBF7FEFF02F066FAFFF7F0F84FF4FA70D9
:104B1000FBF7F6FF00E017E0FFF75AF92046FBF736
:104B2000EFFF02F03FFA2846FBF7EAFF02F098F8A1
:104B3000C820FBF7E5FF02F045FA2846FBF7E0FF47
:104B4000BDE8F05FFFF724B940F6BE2AD2234FF448
:104B5000FA6251460320FFF787F900E014E01420C1
:104B6000FBF7CEFF40F6983BD22340F6FF72594642
:104B70000420FFF779F91420FBF7C2FFC4F808B04E
:104B8000C4F80CA067E71BE040F2767BD2234FF419
:104B9000FA6259460320FFF767F91420FBF7B0FFCC
:104BA00040F2447AD22340F6FF7251460420FFF7C8
:104BB0005BF91420FBF7A4FFC4F808A058466CE783
:104BC00040F23D45D2234FF4FA6229460320FFF715
:104BD0004BF91420FBF794FF40F6C836D22340F679
:104BE000FF7231460420FFF73FF91420FBF788FFDE
:104BF000A660E56074E700002C0100203C02002064
:104C00004C0200202DE9F05F1746894604464FF418
:104C1000FA6640F6FF7803F087F802F039F8B868D2
:104C20006C4DDFF8B4A1DFF8B4B1A04218D1B9F1EE
:104C3000010F32467ED03AF82400D22301B203207D
:104C4000FFF712F93BF82400424601B2D2230420B8
:104C5000FFF70AF95AF82400E8605BF82400A8601E
:104C60007868A04218D1B9F1010F32467DD03AF8E8
:104C70002400D22301B20320FFF7F6F83BF824000A
:104C8000424601B2D2230420FFF7EEF85AF824007E
:104C9000E8605BF82400A8603868A0421AD1B9F136
:104CA000010F7DD03AF82400324601B25746D22394
:104CB0000320FFF7D9F83BF82400424601B25E46D4
:104CC000D2230420FFF7D0F857F82400E86056F804
:104CD0002400A8604FF416752846FBF711FF02F078
:104CE00029F94FF448763046FBF70AFFFFF7ACF896
:104CF0002846FBF705FF02F06DF9FEF7F7FF304697
:104D0000FBF7FEFEFFF764F83046FBF7F9FE02F012
:104D100049F96810FBF7F4FE01F0B2FFC820FBF779
:104D2000EFFEFEF7F3FFC820FBF7EAFE204603F094
:104D30000DF800E00DE07010FBF7E2FEFFF728F839
:104D4000FEF7D4FF2846FBF7DBFEBDE8F05F01F07D
:104D500087BFD22340F6BE210320FFF785F8D22378
:104D6000424640F69831042000E007E0FFF77CF867
:104D700040F6BE20E86040F6983070E740F2767961
:104D8000D22349460320FFF76FF840F2447A4246A7
:104D9000D22351460420FFF767F8C5F80C9000E0D5
:104DA00004E0C5F808A03868A04293D1324640F22A
:104DB0003D46D22331460320FFF756F840F6C83768
:104DC0004246D22339460420FFF74EF8EE60AF602A
:104DD00080E700002C0100203C0200204C02002053
:104DE0002DE9F0410746084602F09EFF01F050FF12
:104DF000384C4FF4FA6240F6FF76012F04D0022FB0
:104E00000ED0032F1DD158E040F6BE25D2232946EF
:104E10000320FFF729F83246D22340F698360AE0FD
:104E200040F27675D22329460320FFF71DF832465B
:104E3000D22340F2447631460420FFF715F8A660ED
:104E4000E5604FF4FA70FBF75BFE02F073F84FF485
:104E500048742046FBF754FEFEF7F6FF4FF4167534
:104E60002846FBF74DFE02F0ADF8FEF73FFF28465F
:104E7000FBF746FEFEF7A4FF4FF42F70FBF740FE52
:104E800002F090F86810FBF73BFE01F0F1FEFEF730
:104E90003DFFC820FBF734FE384602F057FF20469E
:104EA000FBF72EFEFEF774FF01F0EAFE2046FBF74B
:104EB00027FEBDE8F04101F0D3BE40F23D45D223CC
:104EC00029460320FEF7D0FF3246D22340F6C836EB
:104ED000B1E700002C0100202DE9F05F9B4616464B
:104EE00089460746DDF8288002F006FF01F0B8FE8B
:104EF00002F068F8FEF7FAFE4FF4FA7A5046FBF734
:104F0000FFFDFEF755FFD8F808105148514C4FF4FB
:104F1000FA62B94205D116B140F6BE2012E080888F
:104F20002EE0D8F80410B94205D116B140F27670DF
:104F300008E0008924E0D8F80010B94209D1F6B1A0
:104F400040F23D4005460146D2230320FEF78CFF88
:104F5000E5605046FBF7D4FD02F024F89620FBF7FD
:104F6000CFFDFEF771FF4FF4C870FBF7C9FD02F0EB
:104F700031F84FF44875BBF1010F07D013E0808979
:104F8000D22301B20320FEF76FFFE2E72846FBF7CA
:104F9000B7FD4FF47A7307222FA13148FDF7EAFBE2
:104FA0002846FBF7ADFD2846FBF7AAFDFEF7F8FE05
:104FB000D8F808002B4D4FF47A62B8420CD11EB1DC
:104FC000D22340F6983520E0A888D22301B20420ED
:104FD000FEF74AFF686832E0D8F80400B8420CD106
:104FE0001EB1D22340F244750FE02889D22301B2CA
:104FF0000420FEF739FFA86821E0D8F80000B84285
:1050000008D1AEB1D22340F6C83529460420FEF7B8
:105010002BFFA5604FF4C870FBF772FDB9F1010FCB
:105020000FD001F097FF5046BDE8F05FFBF768BD79
:10503000A889D22301B20420FEF716FFE868A06019
:10504000E8E7C820FBF75CFD01F094FFEBE7000008
:105050003C0200202C0100207570646174650A0018
:10506000280600204C0200202DE9F05F9A461646E3
:1050700089460746DDF8288002F068FE01F092FFBD
:105080004FF41670FBF73CFD01F0FAFDFEF73EFE13
:105090004FF49670FBF734FDFEF78AFED8F808103F
:1050A0005648574C4FF4FA62B94205D116B140F652
:1050B000BE2012E0808833E0D8F80410B94205D150
:1050C00016B140F2767008E0008929E0D8F80010A7
:1050D000B94209D11EB340F23D4005460146D223F4
:1050E0000320FEF7C1FEE5604FF4FA7B5846FBF75C
:1050F00007FDFEF7FBFD384602F0FEFDC820FBF77A
:10510000FFFCFEF7A1FE4FF42F70FBF7F9FC01F056
:1051100061FF50464FF47A7A012807D014E0808965
:10512000D22301B20320FEF79FFEDDE74FF448755E
:105130002846FBF7E5FC5346072232A13348FDF72A
:1051400019FB2846FBF7DCFC5046FBF7D9FCFEF7C1
:1051500027FE5846FBF7D4FCD8F808002C4D4FF436
:105160007A62B8420CD11EB1D22340F6983520E0C5
:10517000A888D22301B20420FEF776FE686833E0E7
:10518000D8F80400B8420CD11EB1D22340F24475C5
:105190000FE02889D22301B20420FEF765FEA8683B
:1051A00022E0D8F80000B84208D1B6B1D22340F6C8
:1051B000C83529460420FEF757FEA5604FF4C87095
:1051C000FBF79EFCB9F1010F10D001F0C3FE4FF4C4
:1051D0001670BDE8F05FFBF793BCA889D22301B23B
:1051E0000420FEF741FEE868A060E7E7C820FBF76F
:1051F00087FC01F0BFFE4FF42F70EAE73C0200206D
:105200002C0100207570646174650A002806002076
:105210004C0200202DE9F047074602F097FD01F00F
:105220002FFD01F0CFFE244CA668E568FEF76EFD69
:105230004FF4FA70FBF764FCFEF7C2FD4FF4C87937
:105240004846FBF75DFC01F0ADFE384602F06CFD10
:10525000FEF74CFD4FF49670FBF752FCFEF7F4FDA1
:105260004FF41670FBF74CFC01F0B4FE4FF4487796
:105270003846FBF745FCFEF793FD4FF42F70FBF724
:105280003FFC4FF47A68D223424631B20420FEF745
:10529000EBFDD223424629B20320FEF7E5FDA660CE
:1052A000E5604846FBF72CFC01F074FE3846BDE88B
:1052B000F047FBF725BC00002C0100202DE9F0474A
:1052C00014460F46054602F017FD01F0C9FC01F037
:1052D00079FE4FF4FA763046FBF712FC4FF4167A5B
:1052E000012F02D15046FBF70BFCB1463046FBF7CD
:1052F00007FCA068264E4FF4FA62A84203D1D223DD
:1053000040F6BE280EE06068A84205D140F27670F3
:10531000D2238046014606E02068A84208D1D22365
:1053200040F23D4841460320FEF79EFDC6F80C8042
:10533000A0684FF47A62A84203D1D22340F6983491
:105340000CE06068A84203D1D22340F2447405E027
:105350002068A84207D1D22340F6C8342146042051
:10536000FEF782FDB4605046FBF7CAFB012F07D061
:1053700001F0F0FD4FF46170BDE8F047FBF7C0BBF2
:105380004FF44870FBF7BCFB01F0F4FD4846F3E72F
:105390002C0100202DE9F05F9A4616460C46054682
:1053A000FAF778FF82B24FF47A7329463348FDF753
:1053B000E1F90025022C00D1032501F0B3FD01F035
:1053C00057FC4FF0000901202D4CC8464F46012ED6
:1053D00024D0606720672B48DFF8ACB007602B480B
:1053E00001220168DBF80000FEF786FB606AFBF72C
:1053F00087FB206F0028F2D1BB46214F0024803765
:10540000C7F800B03220FBF77BFB38680128F9D1E0
:10541000BAF1010F10D0012E1DD021E0E06432203E
:10542000FBF76EFBE06C0028F9D11948D0F800902A
:105430001848D0F80080DFE7012E04D11CB941469E
:105440004846FEF756FB0E486119903050F821008F
:10545000FFF7E0FE0BE01CB941464846FEF749FB6A
:1054600007486119903050F8210000F015F801F05C
:10547000FFFB641C032CC3DBBDE8F09F2806002063
:1054800000000020F40100202C0100203001002049
:1054900024010020280100202DE9F04102F02CFC1D
:1054A00001F0DEFB01F08EFD214CA568E668FEF7F9
:1054B0001DFC4FF4FA70FBF723FBFEF779FC4FF469
:1054C000C8773846FBF71CFB01F06CFD3846FBF74C
:1054D00017FBFEF7B9FC4FF41670FBF711FB01F058
:1054E00079FD4FF448784046FBF70AFBFEF758FC7D
:1054F0004FF42F70FBF704FB4FF47A67D2233A4640
:1055000029B20420FEF7B0FCD2233A4631B2032080
:10551000FEF7AAFCA560E660C820FBF7F1FA01F0EF
:1055200001FD4046FBF7ECFABDE8F04101F0A0BBFD
:105530002C0100202DE9FE43064601F00BFD4FF43F
:105540007A773C463846FBF7DBFA23460B2237A135
:105550003948FDF70FF9394C012039492060002006
:1055600008600121002001F041FE3220FBF7C8FA5B
:1055700020680028F5D102F0F9FB324D022005F138
:10558000A802286000210120FFF798FE4FF4FA706E
:10559000FBF7B6FA3C463B460B2224A12648FDF712
:1055A000E9F802E06420FBF7ABFA28680328F9D198
:1055B00001F008FD2046FBF7A3FA0025022E00D1DA
:1055C0000325214A1F4E002407CA8DE80700DFF893
:1055D0007C806F46903600206119424656F8213093
:1055E00052F820C000F10100634505D147F82400BE
:1055F0000A20FBF785FA01E00328EFDB641C032C8B
:10560000E9DB0024601956F8201057F82400FFF752
:10561000E7FB641C032CF5DB012002F049FDFEF7DB
:1056200085FB01F0CFFCBDE8FE8300006E65617272
:1056300067726F756E640A0028060020240200203D
:10564000F4010020000000208882000830020020C1
:105650002DE9F74F794C4FF001088B460646C4F808
:105660004080774F00254FF47A793D60D3E00A20DF
:10567000C4F84C80FBF744FAA06C012801D1A06D5E
:1056800068B1A06C022801D1E06D40B1A06C032884
:1056900001D1206E18B10298012803D0B8E0029819
:1056A000012801D1C4F84880E564D4F848A0A56475
:1056B0003220FBF725FA6348016863480068FEF76B
:1056C00018FA614805605F480560504602F02CFBFF
:1056D000FEF7BAFB4846FBF713FA01F07BFCFEF736
:1056E00005FB4FF44870FBF70BFAFEF771FB4FF424
:1056F0004870FBF705FA6564DBF80800012811D152
:10570000C4F844804B46062250A15248FDF732F8B7
:105710004FF42F70FBF7F4F9DBF80800012801D1F2
:10572000606CD8B3DBF80000C8B301F03BFC4FF469
:105730009670FBF7E5F901F0A3FAC820FBF7E0F952
:10574000FEF7E4FA01F03EFC504602F0FFFA4FF497
:10575000FA70FBF7D5F9FEF71BFB4FF41670FBF759
:10576000CFF901F085FAFEF7C1FA01F02BFC00BF7A
:105770004FF4FA70FBF7C4F9FEF7D8FA012002F0F3
:1057800097FC206D401C2065BAF1010F32D0BAF1B0
:10579000020F32D0BAF1030F32D033E000E013E051
:1057A000FEF7F6FA4FF4FA7A5046FBF7A9F901F042
:1057B00009FC01F05DFA5046FBF7A2F9FEF7B6FAD4
:1057C00001F0B0FBA56423E001F0ECFB4FF4967010
:1057D000FBF796F901F044FAC820FBF791F901F0C4
:1057E000F1FB4FF4C870FBF78BF9FEF7D1FA01F02B
:1057F0003FFABDE7C4F8588004E0C4F85C8001E0DB
:10580000C4F86080A56401F08DFB4846FBF778F989
:105810000A20FBF775F9206DB04204DA3868B0F55C
:105820007A6FFFF624AF2565A565E5652566E56613
:105830006566A5642564BDE8FE8F000000000020B9
:10584000F401002028010020240100206368656322
:105850006B0A0000280600202DE9F34F044600687B
:10586000002781B0032801D0042800D10327864DEA
:105870000026DFF810A2B34605F19008C3E0606986
:10588000012818D0A06806EB0702012802980090B2
:10589000404658F82200236A21694FF0010266D081
:1058A000FFF71AFBE06910B12069012865D0206973
:1058B00000285FD097E0F019814658F82000216950
:1058C000029AFFF7FBFC58F8290068670120286757
:1058D000CAF800B001F03EFB4FF47A730B226BA1C3
:1058E0006D48FCF747FF09E06C48012201686C48ED
:1058F0000068FEF701F9686AFBF702F9286F20B12A
:10590000DAF80000B0F5967FEEDB6648016858F8DB
:1059100029304246644840F823106448016858F82A
:1059200029306148103040F82310C5F870B0A068E5
:105930000128029800904846236A52F82000216905
:105940004FF000020DD0FFF7C7FA206901280BD0F5
:1059500001F0F8FAC820FBF7D3F800BF4FF47A70D3
:1059600048E0FFF781FBF0E701F00CFBF6E7FFF7FB
:105970007BFB97E7A069012838D1F019009058F80F
:105980002000686701202867D1464FF47A730B2204
:105990003EA14148CAF800B0FCF7ECFE09E03F48E0
:1059A000012201683E480068FEF7A6F8686AFBF726
:1059B000A7F8286F20B1D9F80000B0F5967FEEDB8C
:1059C00038480268009958F82130374941F82320B7
:1059D00036490A68009958F821103348103040F8C9
:1059E0002120C5F870B0206901281CD001F0AAFA66
:1059F0004FF42F70FBF784F801F032F94FF49670F2
:105A0000FBF77EF8761C6068B0423FF738AF01F0D4
:105A1000D9FA4FF4FA70FBF773F801F039F9E0683E
:105A2000012803D015E001F0ADFAE1E70025464674
:105A30000CE0A0680128A06917D008B30021E8197C
:105A400056F82000029AFEF7D5FF6D1C6068A84248
:105A5000EFDC012002F02CFB01F00AF9FEF766F9F9
:105A6000BDE8FE4F0A20FBF74BB838B10021E8191A
:105A700056F82000029AFFF7C5F8E6E70121F6E79D
:105A80000121DCE7F4010020000000206E65617256
:105A900067726F756E640A002806002030010020CE
:105AA0002C010020380100203C020020340100209D
:105AB0002DE9F0434FF4FA6466108BB00D460728C9
:105AC0007AD2DFE800F0040A21364A7D9A00FEF718
:105AD000BBF93046FBF714F8FBE701F0A9F80DE03D
