:020000040800F2
:10000000D00A0020A1010008CF2400083F210008E9
:10001000CD240008BD0700087D370008000000005F
:10002000000000000000000000000000D1250008D2
:10003000BF07000800000000D1240008D3250008F5
:10004000BB010008BB010008BB010008BB010008A0
:10005000BB010008BB010008BB010008BB01000890
:10006000BB010008BB010008BB010008BB01000880
:10007000BB010008BB010008BB010008BB01000870
:10008000BB010008BB010008BB010008BB01000860
:10009000BB010008BB010008BB010008BB01000850
:1000A000BB010008BB010008BB010008BB01000840
:1000B0007D2600088926000895260008BB01000857
:1000C000BB010008BB010008BB010008BB01000820
:1000D000BB010008C5360008D1360008DD3600082F
:1000E000BB010008BB010008BB010008BB01000800
:1000F000BB010008BB010008BB010008BB010008F0
:10010000BB010008BB010008BB010008BB010008DF
:100110008529000891290008BB010008BB010008DF
:10012000BB010008BB010008BB010008BB010008BF
:10013000BB010008BB010008BB010008BB010008AF
:10014000BB010008BB010008BB010008BB0100089F
:10015000BB010008BB010008BB010008BB0100088F
:10016000BB010008BB010008BB010008BB0100087F
:10017000BB010008BB010008BB0100080000000033
:10018000BB010008BB010008DFF810D000F0ACFA9A
:1001900000480047F5380008AFF30080D00A00207F
:1001A0000648804706480047FEE7FEE7FEE7FEE711
:1001B000FEE7FEE7FEE7FEE7FEE7FEE76D26000846
:1001C000890100082DE9F05F0546002092469B4614
:1001D00088460646814640241BE02846414647465D
:1001E000224600F0CAF953465A46C01A914110D32C
:1001F00011461846224600F0B1F92D1A67EB0108A6
:100200004F4622460120002100F0A8F917EB000913
:100210004E41201EA4F10104DFDC484631462A4647
:100220004346BDE8F09FD2B201E000F8012B491E21
:10023000FBD270470022F6E710B513460A46044683
:100240001946FFF7F0FF204610BD2DE9FE4F80460E
:1002500081EA0300C00F0C46009021F0004123F01A
:100260000045B8EB0200A94105D240462146904620
:100270001C460B46024623F00040104347D0270D92
:10028000C7F30A00C3F30A510290401A01904028B4
:100290006BDAC3F3130040F4801B0098924620B140
:1002A0000023D2EB030A63EB0B0B01985946C0F114
:1002B0004002504600F052F906460D465046594657
:1002C000019A00F06AF910EB08006141002487EA06
:1002D000115284EAE7731A4340D0009A62B3019A3C
:1002E000012A4FEA075215DC001B61EB02014FF0B7
:1002F000004202EA0752CDE90042001C41F580119C
:1003000032462B4600F0A1F903B0BDE8F08F40461D
:100310002146F9E7001B61EB0201001C41F5801347
:1003200000185B412018A2F5001747EB030140EAD3
:10033000D570B6196D4111E06D084FEA360645EAF1
:10034000C0754FEA0752001B61EB0201001C41F52A
:10035000801149084FEA30000019514132462B46BE
:1003600003B0BDE8F04F00F061B9009801224000F1
:100370000023D0EB020263EBE073009821464FEAC2
:10038000E074B8EB000061EB0401E9E783F000439F
:100390005BE781F0004158E72DE9FE4F81EA030455
:1003A00004F0004421F0004100944FF0000B23F0D2
:1003B000004350EA01045ED052EA03045BD0C3F369
:1003C0000A54C1F30A552C44A4F2F3340194A0FB5F
:1003D0000254C1F3130141F48011C3F3130343F436
:1003E000801301FB024400FB034E840A970A44EA8F
:1003F000815447EA8357A4FB076802958D0A05FBE1
:1004000007854FEA932C04FB0C542705029D4FEA05
:10041000065847EA1637B5EB08056EEB070C870E52
:10042000920E47EA811742EA8312A7FB0201B6EB5C
:100430000B0164EB00042B0D43EA0C335E1844EB14
:100440001C50DA465146E7FB0201C5F313044FEA9C
:100450000B3343EA14534FEA0432019C43EA060388
:10046000A4F10C040294009CCDE900B400F0EDF876
:1004700003B0BDE8F08F00200146F9E70EB5C10FCB
:1004800080EAE0700844CA07002140F233438DE857
:100490000E000A460B4600F0D8F803B000BD00F08D
:1004A000004230F000400AD0C10D01F56071C0F388
:1004B000160042EA0151C20840071143704700206C
:1004C0000146704730B5041E71F1000404DB4FF0A3
:1004D0000044404264EB0101141E73F1000405DB8B
:1004E0001C464FF00043524263EB04038B4208BFAB
:1004F000824230BD30B5041E71F1000404DB4FF0C0
:100500000044404264EB0101141E73F1000405DB5A
:100510001C464FF00043524263EB0403994208BF6C
:10052000904230BD01F0004330B421F0004150EA68
:10053000010206D00A0DA2F56072C1F31301002A70
:1005400002DC30BC00207047440F44EAC104C10003
:10055000E01830BC00EBC25000F031B8202A04DBB8
:10056000203A00FA02F1002070479140C2F12003C6
:1005700020FA03F3194390407047202A04DB203A05
:1005800021FA02F00021704721FA02F3D040C2F1B3
:1005900020029140084319467047202A06DBCB17FA
:1005A000203A41FA02F043EAE07306E041FA02F32E
:1005B000D040C2F1200291400843194670470029FB
:1005C000A8BF7047401C490008BF20F001007047D9
:1005D00010B4B0FA80FC00FA0CF050EA010404BF39
:1005E00010BC704749B1CCF1200421FA04F411FA8F
:1005F0000CF118BF012121430843A3EB0C01CB1DD3
:100600004FEA00614FEA102042BF002010BC704743
:1006100000EBC35010440029A4BF10BC7047401C1D
:10062000490008BF20F0010010BC704710B5141E2F
:1006300073F1000408DA401C41F1000192185B419B
:100640001A4301D120F0010010BD2DE9F04D924672
:100650009B4611B1B1FA81F202E0B0FA80F2203289
:100660009046FFF77BFF04460F4640EA0A0041EA46
:100670000B0153465A46084313D0114653EA010072
:1006800019D0C8F140025046FFF777FF05460E46E5
:10069000504659464246FFF761FF084305D0012006
:1006A00004E020463946BDE8F08D0020054346EAC7
:1006B000E0762C4337430A986305E40AA0EB080070
:1006C0000022FD0A44EA47540A3002D500200146C0
:1006D000E9E7010510196941DDE90845001969419B
:1006E000BDE8F04DA2E70000064C074D06E0E068CB
:1006F00040F0010394E8070098471034AC42F6D369
:10070000FFF746FD4C3F00086C3F000870B58C18A1
:1007100010F8015B15F0070301D110F8013B2A1115
:1007200006D110F8012B03E010F8016B01F8016B02
:100730005B1EF9D12B0705D40023521E0DD401F8FE
:10074000013BFAE710F8013BCB1A921C03E013F8C7
:10075000015B01F8015B521EF9D5A142D8D30020FC
:1007600070BD000038B50546134C0020FE2DA0706A
:1007700020D02078F0B103F05DF8002818D00421D3
:10078000684603F05BFA042811D19DF80000A842E6
:100790000DD19DF80110022909D19DF80210801C8D
:1007A0000844C0439DF80320C0B2824201D000201B
:1007B00038BDA170012038BDAC000020FEE77047B5
:1007C0001FB5002200928DF80000FE208DF8010078
:1007D00098208DF8020001926B208DF803108DF89F
:1007E0000400029203920521684603F00BFB1FBD33
:1007F0001FB5002100918DF80000FF208DF8010049
:1008000066208DF802006B200191029103918DF812
:1008100003000421684603F0F5FA1FBD7FB50025EB
:1008200000958DF80000F6208DF8010001958DF8F7
:100830000210089C100A8DF804208DF803008DF832
:1008400005308DF806406B208DF807000295039562
:100850000821684603F0D6FA7FBD72B6FEE72DE99F
:10086000F0410446876D00F06DF9064694F83500B6
:100870000025022806D08020606584F834500120CD
:10088000BDE8F0812068016821F016010160206850
:10089000416921F080014161206C08B9A06C20B150
:1008A0002068016821F0080101602068016821F0DA
:1008B000010101600CE000F045F9801B052807D913
:1008C00020206065032084F8350084F83450D7E791
:1008D00020680068C007EED194F85C103F20884083
:1008E000B860012084F8350084F834500020C7E750
:1008F00090F83510022903D080214165012070470E
:10090000052180F835100068016821F001010160BF
:100910000020704770B5044600F014F90546601CCD
:1009200002D004480078044400F00CF9401BA042B7
:10093000FAD370BD9C0000202DE9F84FDFF8BCA170
:100940000022012503264FF00F090AF1040BAAF13A
:10095000040E00BF0B6805FA02F42340A34270D1D5
:100960000F7907F00307012F01D0022F16D18768F6
:100970004FEA420806FA08FC27EA0C07D1F80CC037
:100980000CFA08FC4CEA070CC0F808C04768A743FB
:100990000C79C4F3001494403C4344600C79E44364
:1009A000A4070AD0C4684FEA420C06FA0CF7BC430D
:1009B0008F6807FA0CF72743C7600C7904F003042B
:1009C000022C12D1D40800EB840CDCF8204057072D
:1009D000FF0E09FA07F824EA0804D1F8108008FA93
:1009E00007F848EA0408CCF8208004684FEA420C73
:1009F00006FA0CF7BC430F7907F0030707FA0CF768
:100A0000274307604C6814F4403F70D03C4C276883
:100A100047F480472760246822F0030704F48044E9
:100A20000094384C07EB040CDCF8084897074FEAB1
:100A3000177809FA08F7BC43334FB84202D10027B0
:100A400024E054E0314FB84201D101271EE0304F7D
:100A5000B84201D1022719E02E4FB84201D1032735
:100A600014E02D4FB84201D104270FE02B4FB842BC
:100A700001D105270AE02A4FB84201D1062705E037
:100A8000284FB84201D1072700E0082707FA08F7E6
:100A90002743CCF80878DAF800405746D1F804C06C
:100AA0009C435FEACC2C00D51C433C60DBF8004043
:100AB0005F46D1F804C09C435FEA8C2C00D51C43F0
:100AC0003C60DEF800407746D1F804C09C435FEA02
:100AD0008C3C00D51C433C60084F083F3C68D1F873
:100AE00004C09C435FEACC3C00D51C433C60521CD4
:100AF000102AFFF42FAFBDE8F88F0000083C01403A
:100B0000443802400030014000000240000402402E
:100B100000080240000C0240001002400014024095
:100B200000180240001C0240426921EA02030A4008
:100B300043EA0241816170470AB18161704709044B
:100B4000FBE7000001488068704700009C0000201F
:100B50000248816802781144816070479C0000203F
:100B60000B4810B5016841F400710160016841F45F
:100B700080610160016841F480710160032000F030
:100B80006FF80F2000F006F800F024F8002010BDE8
:100B9000003C024070B50D4D04464FF47A71287840
:100BA000B1FBF0F00A490968B1FBF0F000F00AFB74
:100BB00048B9102C07D200222146501E00F030F810
:100BC00000206C6070BD012070BD00009C00002002
:100BD000A80000200A4808B5016841F4804101607E
:100BE000006800F4804000900548001F016841F053
:100BF00080510160006800F08050009008BD000046
:100C000044380240002809DB00F01F020121914016
:100C10004009800000F1E020C0F80011704700009A
:100C2000F0B40E4B1B680C46C3F30223C3F1070557
:100C3000042D00D90425191D072901D2002300E045
:100C4000DB1E012606FA05F1491E214099409E400F
:100C5000761E16403143F0BC02F0B3BD0CED00E04F
:100C6000064900F0070208684FF6FF03184040EA03
:100C70000220034A10430860704700000CED00E0BA
:100C80000000FA052DE9F0470E46050065D0DFF8B3
:100C90001481D8F80000F7B200F00700B04207D284
:100CA00088F80070D8F8000000F00700B04254D176
:100CB00028683D4C810712D5400703D5206840F4D1
:100CC000E05020602878000703D5206840F4604099
:100CD00020602068A96820F0F00008432060287890
:100CE000C0072DD0304968680839012812D0022881
:100CF00013D0032811D00968890700292DDA21684B
:100D000021F0030101432160FFF71CFF814641F2FE
:100D1000883A0EE009688903EFE709688901ECE782
:100D2000FFF710FFA0EB0901514502D90320BDE8F0
:100D3000F0872068696800F00C00B0EB810FEFD1FC
:100D4000D8F80010404601F00701B14207D90770FA
:100D5000006800F00700B04201D00120E7E72878E2
:100D6000400705D52068E96820F4E050084320607A
:100D70002878000706D52068296920F4604040EAF9
:100D8000C100206000F038F82168084AC1F303115F
:100D9000515CC8400649086006480068FFF7FAFE43
:100DA0000020C4E7003C024008380240343F0008FD
:100DB000A8000020A0000020044805490068096838
:100DC000044AC1F38221515CC8407047A80000204A
:100DD00008380240443F0008044805490068096893
:100DE000044AC1F34231515CC8407047A80000205A
:100DF00008380240443F0008154810B5006810F05C
:100E00000C02144813D04110042A0FD0082A0ED126
:100E10000F4C241F2268236802F03F025B0207D5B3
:100E20002068C0F38810A0FB010106E0084610BD51
:100E30002168C1F38811A1FB00010023FFF7C2F96B
:100E40002168C1F30141491C4900B0FBF1F010BD1C
:100E5000083802400024F4002DE9F84F04006ED059
:100E60002078DFF84C93C007A9F104054AD009F1B6
:100E700004000168C1F38101012908D00068C0F3B2
:100E8000810002280AD1D9F80000400206D528685E
:100E9000800337D560680028E1D033E06068B0F5A2
:100EA000803F10D0B0F5A02F286810D020F48030FB
:100EB0002860286820F4802028606068A8B1FFF7C7
:100EC00041FE06460DE0286840F48030F4E740F427
:100ED00080202860F7E700BFFFF734FE801B6428FE
:100EE00073D828688003F7D50CE0FFF72BFE064681
:100EF00005E000BFFFF726FE801B6428F0D82868B5
:100F00008003F7D42078DFF8AC8280074FF0000A26
:100F10003ED5A748001D016811F00C0F08D00068ED
:100F2000C0F3810002280BD1D9F80000400207D499
:100F30002868800716D5E068012800D112E033E167
:100F4000E068B8B10120C8F80000FFF7FBFD0646D5
:100F500005E000BFFFF7F6FD801B0228C0D8286817
:100F60008007F7D52868216920F0F80040EAC10021
:100F700028600DE0C8F800A0FFF7E4FD064604E095
:100F8000FFF7E0FD801B02281FD828688007F7D4F0
:100F90002078000722D5864F87486169703771B184
:100FA00001210160FFF7CEFD064604E0FFF7CAFD10
:100FB000801B022809D838688007F7D50EE0C0F8F2
:100FC00000A0FFF7BFFD064605E082E0FFF7BAFD8F
:100FD000801B02287DD838688007F7D42078400726
:100FE00068D5DFF8CCB100270BF13C0BDBF8000033
:100FF000C0000BD4DBF8001041F08051CBF800109A
:10100000DBF80000012700F0805000906B4E306844
:10101000C00510D4306840F480703060FFF792FD56
:10102000009005E0FFF78EFD0099401A022850D885
:101030003068C005F6D55E4EA0686C3601280FD02A
:101040000528306810D020F001003060306820F0B2
:1010500004003060A068B8B1FFF774FD00900FE0A5
:10106000306840F00100F4E740F004003060F7E73A
:10107000FFF768FD0099411A41F28830814266D835
:1010800030688007F4D50EE0FFF75CFD009007E0C4
:10109000FFF758FD0099411A41F28830814256D835
:1010A00030688007F4D42FB1DBF8001021F08051B4
:1010B000CBF80010A069C8B33D49091D0968C1F308
:1010C000810102294AD00228504607D0C8F86000A2
:1010D00000E03CE0FFF736FD04463BE04746C8F839
:1010E0006000FFF72FFD064605E000BFFFF72AFD71
:1010F000801B02282BD828688001F7D4D4E9070187
:101100000843A16A2E4A490802EB0141626A41EA9A
:101110008211084394F82C1040EA0161C9F80010CC
:1011200001203866FFF70EFD044606E03EE000BFF2
:10113000FFF708FD001B022809D828688001F7D5B1
:1011400034E000BFFFF7FEFC001B022802D9032099
:10115000BDE8F88F28688001F4D427E00128F7D093
:10116000D9F80000E26900F4800191421CD1226AA2
:1011700000F03F01914217D147F6C071626A014009
:10118000B1EB821F10D1A26A4FF0FF3300F440315F
:1011900003EB5202B1EB024F06D194F82C1000F091
:1011A0007060B0EB016F01D00120D1E70020CFE7E4
:1011B0000438024000004742800E47420070004061
:1011C0000000FFFF10B5401EB0F1807F01D3012069
:1011D00010BD4FF0E02460610F21601702F0F1FABA
:1011E0000020A06107202061002010BD70477047DB
:1011F00070B590F83C20012A32D0012480F83C40A0
:10120000022280F83D2003685A689D6822F070062B
:101210000A6832435A60134B02689A4214D0B2F102
:10122000804F11D0104B9A420ED0104B9A420BD0E7
:101230000F4B9A4208D00F4B9A4205D00E4B9A4260
:1012400002D00E4B9A4204D1496825F0800319431D
:10125000916080F83D40002180F83C10084670BD48
:10126000022070BD00000140000400400008004062
:10127000000C004000040140004001400018004004
:1012800010B5040003D094F83D0010B107E0012030
:1012900010BD002084F83C00204600F01FF802201A
:1012A00084F83D00211D206801F0FAF9012084F83E
:1012B000460084F83E0084F83F0084F8400084F83B
:1012C000410084F8420084F8430084F8440084F824
:1012D000450084F83D00002010BD000008B50168FD
:1012E0001D48B1F1804F11D01C4A91421DD10168B7
:1012F00041F0020101600068002200F0020000904D
:1013000011461D20FFF78CFC1D201FE0016841F0F5
:10131000010101600068002200F001000090114608
:101320001C20FFF77DFC1C2010E00D4A914211D1DA
:10133000016841F0040101600068002200F004002F
:10134000009011461E20FFF76BFC1E20BDE80840F0
:10135000FFF758BC08BD00004038024000040040C0
:101360000008004090F83D10012901D0012070478D
:10137000022180F83D100168CA6842F00102CA608B
:1013800000681149884214D0B0F1804F11D00F4944
:1013900088420ED00E4988420BD00E49884208D0B0
:1013A0000D49884205D00D49884202D00C49884237
:1013B00004D1816801F00701062903D0016841F0DA
:1013C000010101600020704700000140000400405E
:1013D00000080040000C00400004014000400140B3
:1013E0000018004070B5044690F83C000025012824
:1013F00017D0012684F83C60022084F83D00206864
:10140000826822F0770222F47F42826008685028C6
:1014100038D00DDC20284FD005DC90B3102811D136
:101420004AE0022070BD302846D040280AD13BE077
:1014300060282FD070280DD0B0F5805F03D0B0F5B4
:10144000005F12D0012584F83D60002084F83C0044
:10145000284670BDCB68D1E90121206801F099F9D7
:101460002068816841F0770109E0CB68D1E901216A
:10147000206801F08EF92068816841F48041816024
:10148000E1E719E0CA684968206801F057FA50217D
:10149000206806E0CA684968206801F060FA6021A7
:1014A000206801F080F9CEE7CA684968206801F039
:1014B00045FA40212068F4E7226801461046F0E72B
:1014C00070472DE9F04104460068C66805694FF091
:1014D0000007A90713D5B10711D5F91E0161012035
:1014E0002077206880698007204602D0FFF7E8FF58
:1014F00004E000F0A9F8204600F03BF927776807E0
:1015000016D5700714D521686FF004000861022019
:1015100020772068806910F4407F204602D0FFF7D2
:10152000CFFF04E000F090F8204600F022F9277782
:10153000280715D5300713D521686FF0080008611A
:10154000042020772068C0698007204602D0FFF77A
:10155000B7FF04E000F078F8204600F00AF927779A
:10156000E80616D5F00614D521686FF01000086162
:10157000082020772068C06910F4407F204602D000
:10158000FFF79EFF04E000F05FF8204600F0F1F85E
:101590002777E80708D0F00706D021686FF0010030
:1015A0000861204600F04AF9280608D5300606D51D
:1015B00021686FF0800008612046FFF717FE68067B
:1015C00008D5700606D521686FF0400008612046F6
:1015D00000F02EFAA8060AD5B00608D521686FF0EB
:1015E000200008612046BDE8F041FFF700BEBDE8DD
:1015F000F081000010B586B0044614216846FEF75D
:1016000019FE0E492068884215D10D480021026854
:1016100042F008020260006800F0080005904FF4F4
:10162000704000900220CDE90101CDE90310694628
:101630000448FFF781F906B010BD00000008004023
:1016400030380240000C0240704770B5044690F8F4
:101650003C0000260D4601280FD0012084F83C00F4
:101660006AB1042A1DD0082A2FD00C2A3FD00126A7
:10167000002084F83C00304670BD022070BD206818
:1016800001F09AF82068816941F0080181612068C1
:10169000816921F004018161206881692A6911430F
:1016A00011E0206801F0B8F82068816941F4006118
:1016B00081612068816921F480618161206881698C
:1016C0002A6941EA02218161D2E7206801F0DAF853
:1016D0002068C16941F00801C1612068C16921F039
:1016E0000401C1612068C1692A69114311E02068C1
:1016F00001F0FCF82068C16941F40061C161206813
:10170000C16921F48061C1612068C1692A6941EA27
:101710000221C161ACE710B5040003D094F83D008C
:1017200010B107E0012010BD002084F83C002046E5
:1017300000F01EF8022084F83D00211D206800F012
:10174000AFFF012084F8460084F83E0084F83F0093
:1017500084F8400084F8410084F8420084F8430093
:1017600084F8440084F8450084F83D00002010BD52
:101770007047704710B50446022249B104290ED0C3
:10178000082913D094F84100012816D0012010BD7B
:1017900094F83E000128F9D184F83E200FE094F837
:1017A0003F000128F2D184F83F2008E094F840007F
:1017B0000128EBD184F8402001E084F84120012287
:1017C000206800F0D9FF16492068164A884201D0E7
:1017D000904203D1436C43F4004343642068884241
:1017E00013D0B0F1804F10D00F4988420DD00F496F
:1017F00088420AD00E49884207D0904205D00D4950
:10180000884202D00C49884204D1816801F0070166
:10181000062903D0016841F001010160002010BDDC
:1018200000000140000401400004004000080040A6
:10183000000C004000400140001800402DE9F04736
:1018400006460068DFF8BC9100256F4CB0F1804F70
:101850000ED16068401C6060A068401CA0606B48AE
:10186000007808B101F004FA6168494500DD65605F
:101870006749306888427CD12068DFF89CA1401C11
:10188000206064480068012853D1E0684FF00108E7
:1018900001283DD1A06901282BD1206A062801DA50
:1018A000401C20625D4E012805D1012196ED000A01
:1018B000002002F0DDF9206A022805D1022196ED10
:1018C000000A002002F0D4F9206A032805D1032180
:1018D00096ED000A002002F0CBF9206A042805D119
:1018E000042196ED000A002002F0C2F9206A0528C2
:1018F00003D0E069012808D00AE0052196ED000A2E
:10190000002002F0B5F9C4F81C80A561E5612562EC
:10191000206901286AD16069012867D1A06901287E
:1019200008D0002220215046FFF706F9E06901287F
:1019300057D05BE0012220215046FFF7FDF8A06A56
:1019400030B938489FED360AC4F8288080ED000A87
:10195000206A062840DA401C334E344F20620128AA
:101960000AD194F82C000121D6ED000A97ED000A67
:1019700000E045E002F034F8206A022808D194F82B
:101980002C000221D6ED000A97ED000A02F028F89B
:10199000206A032808D194F82C000321D6ED000A10
:1019A00097ED000A02F01CF8206A042808D194F888
:1019B0002C000421D6ED000A97ED000A02F010F881
:1019C000206A052808D194F82C000521D6ED000ADC
:1019D00097ED000A02F004F8206A0628A6D1C4F8A0
:1019E0001C806562A561A562E561256221684945A3
:1019F00006DD50462560BDE8F0472021FFF794B88A
:101A0000BDE8F087A08601003C020020C201002052
:101A1000000400402C00002000080240A00100202B
:101A20000000C842B80100209C010020980100205D
:101A30007047704770470000F8B5016804460868B1
:101A4000CA684B6910F00F0F4FF0000559D003F032
:101A5000010602F49077374365D0C10705D0D10560
:101A600003D5616C41F001016164410705D5D907D7
:101A700003D0616C41F002016164810705D5D9078B
:101A800003D0616C41F004016164010707D502F0E5
:101A90002001314303D0616C41F008016164616C45
:101AA00000293AD0800604D5900602D5204600F0E1
:101AB000A4FF20684069616CC0F38010090700D45E
:101AC00060B3204600F072FF20684069400621D5CF
:101AD0002068143050E8001F21F0400140E8001257
:101AE000002AF5D1E06BA8B16E490165E06BFEF705
:101AF000FFFE002811D0E06B016D01B0BDE8F040A1
:101B0000084783060FD593060DD52046BDE8F8405B
:101B100000F073BF2046FFF78DFFF8BD2046FFF7AA
:101B200089FF6564F8BD266B2023012E7DD1C60692
:101B30007BD5D60679D508684868009048694FF08B
:101B40000206400641D5E16B086840680004000CBD
:101B5000E8D0A28D8242E5D9E085C869B0F5807FE2
:101B60002DD020680C3050E8001F21F4807140E82F
:101B70000012002AF5D12068143050E8001F21F02F
:101B8000010140E80012002AF5D12068143050E825
:101B9000001F21F0400140E80012002AF5D184F82E
:101BA0004230256320680C3050E8001F21F01001FE
:101BB00040E80012002AF5D1E06BFEF750FE6663A4
:101BC000A08DE18D401A81B22AE0A08DE18D401AEE
:101BD00081B2E08D0028A5D00029A3D022680C3264
:101BE00052E8000F20F4907042E80007002FF5D172
:101BF0002068143050E8002F22F0010240E800274E
:101C0000002FF5D184F84230256320680C3050E86D
:101C1000002F22F0100240E80023002BF5D166636C
:101C20002046FFF706FFF8BDFFE705062BD5150692
:101C300029D594F841002128F5D1A068B0F5805F3E
:101C400001D12069B0B1206A411C2162216800786D
:101C50004860E08C401E0004000CE084E3D1206862
:101C6000C16821F08001C1602068C16841F0400175
:101C7000C160D8E7206A0088C0F308004860206A85
:101C8000801C2062E5E74006CDD55006CBD5CA685A
:101C9000204622F04002CA6084F8413000F04EFA3B
:101CA000C1E700009D29000870B5040004D094F835
:101CB0004100002510B106E0012070BD84F84050BD
:101CC000204600F023F8242084F841002068C168F1
:101CD00021F40051C160204600F0F0FE2068016947
:101CE00021F4904101612068416921F02A0141619C
:101CF0002068C16841F40051C1606564202084F807
:101D0000410084F842006563002070BD2DE9F04178
:101D100086B0044614216846FEF78CFA6E49DFF857
:101D2000B4C1236800246C4A103903250226082711
:101D30006A4863451ED1136843F400231360126898
:101D400002F4002205920A6842F001020A60096862
:101D5000CDE9005601F00101CDE904716946CDE9F4
:101D60000245FEF7E9FD002211463420FEF758FF38
:101D7000342038E0DFF868C1DFF86881634537D187
:101D8000106840F480101060106800F48010059016
:101D9000086840F004000860086800F0040005903E
:101DA000086840F008000860086802AB00F008000E
:101DB00005904FF48050CDE9000683E8B0006946F5
:101DC0004948FEF7B9FD0420CDE9000602AB69469B
:101DD00083E8B0004046FEF7AFFD002211463520F3
:101DE000FEF71EFF3520FEF70DFF06B0BDE8F081BF
:101DF000DFF8F8C00727634522D1374A121D136860
:101E000043F010031360126802F0100205920A6892
:101E100042F001020A60096802AA01F0010105917D
:101E20004FF4C061CDE9001682E8B0006946FEF7C4
:101E300083FD002211462520FEF7F2FE2520D2E781
:101E40002B48834220D1106840F4003010601068A5
:101E500000F400300590086840F008000860086849
:101E600002AB00F0080005906020CDE9000683E891
:101E7000B00069464046FEF75FFD0022114626206D
:101E8000FEF7CEFE2620AEE71A488342ADD1106899
:101E900040F480201060106800F4802005900868ED
:101EA00040F002000860086802AB00F002000590F4
:101EB0004FF44060CDE9000683E8B00069460E4863
:101EC000FEF73AFD002211462720FEF7A9FE272043
:101ED00089E70000004C004040380240000002400A
:101EE00000500040000C0240000802400010014079
:101EF0000044004000480040000402402DE9F84F33
:101F0000044690F842009A4616460D46202802D014
:101F10000220BDE8F88FB5B1AEB100206064222187
:101F200084F842102063FEF70DFEA6858146E68503
:101F3000A0684FF480582027404501D1206920B186
:101F40002E46002529E00120E3E7002625E04B4648
:101F5000002220212046CDF800A000F050FE18B14C
:101F600084F842700320D4E726B1A06840451AD017
:101F700038B108E020684068C0F3080025F8020B7B
:101F800008E0206978B12068406800F07F0000BF59
:101F900006F8010BE08D401EE085E08D0028D6D1CB
:101FA00084F84270B5E720684068F1E790F8423065
:101FB000202B01D00220704721B11AB10023036306
:101FC00000F002BE012070472D4930B4CB790022C9
:101FD000802B00D3CA714B79322B00D34A718B7995
:101FE000322B00D38A710B7A322B00D30A724B7AD0
:101FF000322B00D34A72234CCA798B78A354521CDB
:10200000CA714A79643C0B78A354521C4A718A798C
:1020100032344B78A354521C8A710A7AB234CB788A
:10202000A354521C0A724A7A32340B79A354521CBC
:102030004A72154A0168914202D1012210491AE000
:10204000124A914203D10E490122491C13E0104A61
:10205000914203D10A490122891C0CE00D4A9142A8
:1020600003D107490122C91C05E00B4A914205D161
:1020700003490122091D30BCFFF798BF30BC7047EF
:10208000BC010020EC050020004400400048004056
:1020900000100140004C0040005000402DE9F84382
:1020A000044690F84100984616460D46202802D076
:1020B0000220BDE8F88385B17EB100206064212054
:1020C00084F84100FEF73EFDA6848146E684A068C0
:1020D0002027B0F5805F02D003E00120E9E7206906
:1020E00010B12E4600250EE000260CE0802120468F
:1020F00000F085FDA8B9C6B116F8010B216848604B
:10210000E08C401EE084E08C4B464FF00002CDF89E
:1021100000800028EAD14FF04001204600F06FFD1A
:1021200040B184F841700320C3E735F8020BC0F3D7
:102130000800E3E784F841700020BAE77047FEE743
:10214000064B10B55C78C2F30723D2B214B103700A
:102150000A7010BD0B70027010BD0000AC000020B2
:10216000F0B587B014216846FEF764F825480025CD
:10217000016841F080010160016801F08001059172
:10218000016841F001010160016801F00101059160
:10219000016841F004010160016801F0040105914A
:1021A000016841F002010160016801F0020105913E
:1021B000016841F0080101600068134E00F008005A
:1021C0000590002220213046FEF7B6FC0F4F00227A
:1021D00004213846FEF7B0FC01242020CDE900049C
:1021E00069463046CDE90245FEF7A6FB0420CDE95D
:1021F000000469463846CDE90245FEF79DFB07B06D
:10220000F0BD0000303802400008024000040240E7
:1022100010B586B0002418480094019402940394E9
:1022200004944FF080410594016040F28F61C0E951
:1022300001144FF47A71C0E9031480218161FFF722
:102240001FF808B1FEF709FB4FF480500090694673
:102250000948FFF7C7F808B1FEF7FFFA2020CDE9DB
:10226000040404A90448FEF7C3FF002801D0FEF7C8
:10227000F4FA06B010BD00007002002010B586B060
:10228000002418480094019402940394049414497F
:102290000594016040F28F61C0E901144FF47A7136
:1022A000C0E9031480218161FEF7EAFF08B1FEF75F
:1022B000D4FA4FF48050009069460A48FFF792F82C
:1022C00008B1FEF7CAFA2020CDE9040404A90548A4
:1022D000FEF78EFF002801D0FEF7BFFA06B010BD52
:1022E00000040040B802002010B58EB0002407940E
:1022F000089409940A940B941C2168460C94FDF7E9
:1023000099FF2B482949016040F28F61C0E901140F
:1023100040F2E731C0E903148461FEF7B1FF08B170
:10232000FEF79BFA4FF48050079007A92048FFF76B
:1023300059F808B1FEF791FA1D48FFF7ECF908B11A
:10234000FEF78BFA0B940BA919480C94FEF750FF7B
:1023500008B1FEF782FA6020CDE900040294002261
:10236000694613480494FFF770F908B1FEF775FA4F
:10237000042269460E48FFF768F908B1FEF76DFAC6
:10238000082269460A48FFF760F908B1FEF765FAC6
:102390000C2269460648FFF758F908B1FEF75DFAC6
:1023A0000348FFF727F90EB010BD000000080040F9
:1023B000000300200C4810B50A4901604FF4E131D8
:1023C0004160002181600C22C160C0E9041281617A
:1023D000C161FFF769FC002803D0BDE81040FEF79B
:1023E0003CBA10BD004C0040480300200C4810B51A
:1023F0000A4901604FF416514160002181600C22AE
:10240000C160C0E904128161C161FFF74DFC002881
:1024100003D0BDE81040FEF720BA10BD00500040C8
:10242000900300200C4810B50A4901604FF4E131D7
:102430004160002181600C22C160C0E90412816109
:10244000C161FFF731FC002803D0BDE81040FEF762
:1024500004BA10BD00100140D80300200C4810B58C
:102460000A4901604FF4E1314160002181600C2292
:10247000C160C0E904128161C161FFF715FC002849
:1024800003D0BDE81040FEF7E8B910BD004400409D
:10249000200400200C4810B50A4901604FF4E131D6
:1024A0004160002181600C22C160C0E90412816199
:1024B000C161FFF7F9FB002803D0BDE81040FEF72B
:1024C000CCB910BD0048004068040020FEE7FEE7DC
:1024D000704700007FB582B015460C46064601F0F5
:1024E000ABFB02200090012305AA2146304601F0F3
:1024F000C3FC01F09DFC01F09DF9002832D01C4E78
:1025000000200321B07001A801F098FB032828D116
:102510009DF81410284601F091FB9DF81410044614
:1025200088421ED101210DF1070001F087FB01282F
:1025300017D19DF804009DF805109DF80620084469
:102540001044C1B2002004E02B5C401C1944C9B205
:10255000C0B2A042F8DBC8439DF80710C0B2814268
:1025600002D0002006B070BDB2702046FAE700002D
:10257000AC00002010B50E4C411C08D00021216099
:10258000C0B2382101F062FB411C0ED004E00948C2
:102590004178007840EA01202168002904D1010433
:1025A00002D520F40040404210BD0121216010BD41
:1025B000C80000203005002002460448407810B1D1
:1025C00041EA0220704742EA01207047AC00002037
:1025D0007047FEF7BDBA000030B593B030216846B1
:1025E000FDF728FE14210CA8FDF724FE1D48002548
:1025F000016841F080510160006800F08050119046
:102600001948016841F4804101600068022400F427
:102610008040119001200090000401908001CDE9DC
:10262000064008AA0420A82182E813000B906846FF
:10263000FEF712FC08B172B6FEE70CA90F2081E884
:1026400031004FF4A0500F904FF4805010900521AE
:102650000CA8FEF717FB002801D072B6FEE713B0F6
:1026600030BD000040380240007000400248016860
:1026700041F470010160704788ED00E00148FEF709
:1026800020BF0000700200200148FEF71ABF0000C2
:10269000B80200200148FEF714BF0000000300202C
:1026A000F0B50268294C2A4D2A4E2B4F2B4B4FF088
:1026B000804CA04209D0604507D0A84205D0B04266
:1026C00003D0B84201D0984204D122F0700E4A687B
:1026D00042EA0E02A0421BD0604519D0A84217D092
:1026E000B04215D0B84213D0984211D01C4DA84228
:1026F0000ED01C4DA8420BD01B4DA84208D01B4D3C
:10270000A84205D01A4DA84202D01A4DA84203D1C2
:1027100022F44075CA682A434D6922F080022A4398
:1027200002608A68C2620A688262A04201D098424E
:1027300001D109690163012141610169C90703D020
:10274000016921F001010161F0BD000000000140BC
:102750000004004000080040000C0040000401405C
:102760000040014000440140004801400018004082
:10277000001C00400020004010B501F01F030121A3
:10278000046A99408C430462016A9A4011430162D1
:1027900010BD10B5846842EA032224F47F440A4342
:1027A0002243826010BD826822F070020A4342F028
:1027B0000701816070470000F0B5036A026A22F0E9
:1027C0000102026242688469124E24F073050C68AB
:1027D0002C4323F002058B682B430D4DA84201D0FA
:1027E000B04205D123F00807CB683B4323F0040334
:1027F000A84201D0B04205D14D6922F44072154380
:102800008A692A4342608461496841630362F0BD7A
:102810000000014000040140F0B5026A036A23F0A1
:1028200010030362436884690D6824F4E64444EAB3
:1028300005248D6822F0200242EA05120F4D104E49
:10284000A84201D0B04206D1CF6822F0800242EA0D
:10285000071222F04002A84201D0B04207D14D69D0
:1028600023F4406343EA85038D6943EA85034360AB
:102870008461496881630262F0BD0000000001408C
:1028800000040140F0B5026A036A23F48073036216
:102890004368C46922F4007224F073050C68124E78
:1028A0002C438D6842EA05220E4DA84201D0B04269
:1028B00006D1CF6822F4006242EA072222F4806245
:1028C000A84201D0B04207D14D6923F4405343EAF6
:1028D00005138D6943EA05134360C4614968C16308
:1028E0000262F0BD000001400004014030B5046AFE
:1028F000026A22F4805202624268C3690D6823F4BE
:10290000E64343EA05238D6824F4005444EA053481
:10291000084DA84202D0084DA84204D14D6922F4C6
:10292000804242EA85124260C361496801640462E0
:1029300030BD0000000001400004014010B5036AF2
:10294000046A24F001040462846924F0F00444EA77
:10295000021423F00A020A438461026210BD10B51A
:10296000036A046A24F010040462846923F0A0035B
:1029700024F4704444EA023243EA011182610162A4
:1029800010BD00000148FFF757B8000048030020C1
:102990000148FFF751B800009003002010B5806B8C
:1029A0000021C185C184FFF745F810BD01680C31D5
:1029B00051E8002F22F4907241E80023002BF5D15A
:1029C0000168143151E8002F22F0010241E8002390
:1029D000002BF5D1016B012909D101680C3151E8B7
:1029E000002F22F0100241E80023002BF5D1202116
:1029F00080F8421000210163704708B590F842103A
:102A0000222901D0022008BD82684FF480539A42E7
:102A100001D1016921B1816A9A421BD04AB10AE011
:102A20000268816A5268C2F308020A80816A891CBE
:102A300008E0026972B10268526802F07F020A700F
:102A4000816A491C8162C18D491E0904090CC18536
:102A500003D01BE002685268F1E70168CA6822F0FF
:102A60002002CA600168CA6822F48072CA600168E4
:102A70004A6922F001024A61202180F842100021B7
:102A80004163026B012A03D0FFF79EFA002008BDC4
:102A9000016301680C3151E8002F22F0100241E877
:102AA0000023002BF5D101680A68D20602D50A6816
:102AB00049680091818DFEF7BCFFE7E770B50446D9
:102AC00000680169E26821F4405111430161216904
:102AD000A068E26908436169114308432168CA6834
:102AE00049F20C639A430243CA6020684169A269B3
:102AF00021F440711143416131492068884202D07C
:102B00003049884202D1FEF767F901E0FEF754F937
:102B1000E2690023192164253226B2F5004F62686C
:102B200028D0A0FB0101930F9200FDF74BFB01465B
:102B3000B0FBF5F06FF01802504301EB800006EB9C
:102B40000010B0FBF5F000F0F002B1FBF5F002EB85
:102B50000012B1FBF5F06FF01803584301EB800051
:102B600006EB0010B0FBF5F000F00F0021681044F8
:102B7000886070BDA0FB010192185B41FDF722FB4C
:102B80000146B0FBF5F00201B1FBF5F06FF0180360
:102B9000584301EB800006EBC000B0FBF5F000F0FD
:102BA000F80002EB4002B1FBF5F0584301EB800066
:102BB00006EBC000B0FBF5F000F00700D6E7000020
:102BC000001001400014014081628285C28500210D
:102BD0004164222180F84210016921B10168CA686C
:102BE00042F48072CA6001684A6942F001024A6197
:102BF0000068C16841F02001C160002070472DE9E4
:102C0000F843984617460D460446089E24E0701C7B
:102C100022D0FDF797FFA0EB0800B0421AD8CEB142
:102C20002068C168490717D5802D15D0402D13D0D5
:102C30000168C94309070FD4016800254068009066
:102C40002046FFF7B3FE0820606484F8405001205E
:102C5000BDE8F8830320FBE72068006835EA000040
:102C600004D00020B842D2D00020F1E70120F9E7DB
:102C700003488079002801D000F004B870470000B4
:102C8000BC0100202DE9F04FFF4C2DED108B81B0E1
:102C9000A07900287DD0FD48FD4D012302682978E8
:102CA000022A02D1612900D10360FA48026812B9F0
:102CB000622900D10360F64ADFF8DCC3D678507889
:102CC000B646C6F1000BDCF8007000269278C0F121
:102CD0000009012F02D0022F1AD025E0EF4F012961
:102CE00002D0022902D003E0386001E0C7F800906A
:102CF000EB4F012A02D0022A03D004E0C7F800E01B
:102D000001E0C7F800B010290ED1CCF800600BE04C
:102D1000072904D0082904D009290DD004E0E1498D
:102D200000E0E1490B602E709A46E04BC3F800A02A
:102D30002978882902D004E0DD49F3E7DD4FC7F8A0
:102D400000A0DD4B1B680093022B18DA092916D16D
:102D5000092814D1DFF864C30223EF5C012F03D0EC
:102D6000022F01D0032F03D10CEB830848F8087C15
:102D70005B1C082BF1DBD04F009B5B1C3B60D04FF2
:102D80003B68012B20D1CF4B012903D0022903D06E
:102D900008E0FBE3186001E0C3F80090D3F800C03E
:102DA000C3F800C0C84B012A02D0022A02D00BE0AF
:102DB000F44600E0DC46C3F800C0D3F800C00CEBDA
:102DC0008C0CC3F800C03E60C04B1B68012B04D1C3
:102DD000032902D1BE4FC7F800A0BE4B1B68012BD0
:102DE0000CD1BD4B072904D0082904D009290AD0E9
:102DF00004E0514600E0022119602E70B7490B68CB
:102E0000012B02D00FE00321F6E72B78662B0AD1C5
:102E1000B34FB44B0128C7F800A002D002281AD043
:102E200000E01A600E60B04909689FEDB0DBB8EEB3
:102E300000EAF0EE00FA9FEDAFAB9FEDB09BB14F13
:102E4000DFF8C492DFF8C482F6EE00EABEEE00FAC4
:102E5000012902D0F4E15242E3E78B492A7891ED4F
:102E60001D0A91ED1E2A6831012AD1EC030A02D015
:102E7000022A40D087E002EE900AF8EEE11AB8EE9E
:102E8000C00AF8EE622A62EEA11A02EE900AF8EE8B
:102E9000622A72EEA02A72EE812A40EE221A00EE19
:102EA000100AB8EE400A00EE8E0AF8EEC20A30EEC2
:102EB000010A40EE801ABDEEE10A10EE100AE0674A
:102EC000062802DDB1EE080A0DE0FDF7D7FA53EC53
:102ED0001D2BFDF7F7FA02D29FED8D0A03E094ED6A
:102EE0001F0AB8EEC00A87ED000A687800EE100AE3
:102EF000B8EE400A43E002EE900AB8EEC00AF8EEDF
:102F0000E11AF8EE622A70EEE22A72EE812A22EECF
:102F1000800A02EE900AF8EE622A01EEE20A01EE61
:102F2000900AF8EE611A50EE8E1A71EE810AB8EE30
:102F3000C21A01EE200ABDEEC00A10EE100AE067C8
:102F400010F1060F02DAB9EE080A0FE0FDF796FA63
:102F50009FED701B53EC112BFDF7CCFA02D29FEDC5
:102F60006F0A03E094ED1F0AB8EEC00A87ED000A6D
:102F7000687800EE100AB8EE400AB1EE400A84ED1F
:102F80001A0A84ED1B0AA878012802D0022806D06C
:102F90000EE0E87800EE100AB8EE400A06E0E878A5
:102FA00000EE100AB8EE400AB1EE400A89ED000AC0
:102FB0002879012802D0022806D00EE0687900EEB8
:102FC000100AB8EE400A06E0687900EE100AB8EE82
:102FD000400AB1EE400A88ED000AD9F80000FDF77A
:102FE0005EFA9FED4FBB53EC1B2BFDF7D5F9FDF7B8
:102FF00099FA08EE100AD8F80000FDF750FA53ECE1
:103000001B2BFDF7C9F9FDF78DFA38EE08BA08EE6B
:10301000900A84ED048AC4ED078AB0EE4B0A84ED71
:10302000058A08EE6F0AC4ED088A84ED068AC4EDAD
:10303000098A10EE100AFDF732FA53EC1A2BFDF74D
:10304000ABF953EC192BFDF7A7F93BEE080A41EC5D
:103050001C0B10EE100AFDF722FA53EC1A2BFDF7A9
:103060009BF941EC1B0B18EE100AFDF718FA53EC14
:10307000192BFDF791F953EC1B2BFDF7E6F853ECF8
:103080001C2BFDF7E2F84FE0BC010020940000206B
:10309000BA05002098000020840000207C00002059
:1030A00080000020880000208C00002054020020B6
:1030B00090000020780000206C00002054000020C8
:1030C00024000020900100206C010020440000201A
:1030D000400000201C0000202000002030000020C4
:1030E00070000020740000206C0200209A999999C9
:1030F0009999D93F9A9999999999B93F00000000F7
:103100000000E03FA0010020980100209C01002069
:10311000CDCCCC3E9A9999999999D9BFCDCCCCBEBA
:103120009A9999999999C93FFDF7FCF938EEA80A3F
:103130008346C9F8000008EEEF0A10EE100AFDF70A
:10314000AEF953EC1A2BFDF727F953EC192BFDF7C9
:1031500023F938EE880A41EC1B0B30EE080A10EE1A
:10316000100AFDF79CF953EC1A2BFDF715F941EC09
:103170001C0B18EE900AFDF792F953EC192BFDF792
:103180000BF953EC1C2BFDF760F853EC1B2BFDF7F0
:103190005CF8FDF7C7F9FE4AB2EE0E0AC8F8000067
:1031A000934501DD89ED000A4146904201DD81ED44
:1031B000000AF84AD9F800304846BAEE0E0A93429F
:1031C00001D980ED000A0B68934201D981ED000A14
:1031D00090ED000A4FF07C5310EE102A9A4206DA66
:1031E000B5EEC00AF1EE10FA01DDC0ED00EA91ED96
:1031F000000A10EE102A9A4206DAB5EEC00AF1EE85
:1032000010FA01DDC1ED00EA90ED000A4FF03F43F6
:1032100010EE102A9A4206D2B5EEC00AF1EE10FA6C
:1032200001D289ED00FA91ED000A10EE100A9842E1
:1032300006D2B5EEC00AF1EE10FA01D288ED00FA1E
:10324000AB462D789FEDD4BA442D0AD1D3480168FE
:10325000012906D1066089ED00BA88ED00BA87ED34
:1032600000BACF490868012803D1012D06D0022DEC
:103270004AD0272D7DD0282D7CD09BE09BF80100E3
:10328000D4ED1B1A00EE100AF8EE400A94ED1C0A69
:10329000B8EEC00A20EE801A00EE100AD4ED1A0A29
:1032A000B8EE400A30EE200A30EE212A94ED1D0AD5
:1032B000B8EEC00A00EE021A00EE100AB8EE400A9C
:1032C00000EE8E0A70EE210A94ED1E0AB8EEC00AD6
:1032D00000EE201ABDEEC10A10EE101AE1670529B2
:1032E00002DDB1EE040A08E0012902DAB7EE000AB5
:1032F00003E000EE101AB8EEC00A87ED000A00EEF7
:10330000100AB8EE400A4AE09BF8011094ED1A1A30
:1033100000EE101AD4ED1B0AB8EE400A31EE400A56
:1033200070EE201A94ED1D0AB8EEC00A61EE801A04
:1033300000EE101AB8EE402A94ED1C0AB8EEC00A4E
:1033400040EE421A00EE101AB8EE400A11EE0E0AD4
:1033500070EE200A94ED1E0AB8EEC00A40EE201A64
:10336000BDEEE10A10EE100AE06710F1050F05DA74
:1033700001E019E01DE0B9EE040A08E0002802DBD4
:10338000BFEE000A03E000EE100AB8EEC00A87EDB7
:10339000000A00EE101AB8EE400AB1EE400A84EDC1
:1033A0001A0A84ED1B0A05E07C4887ED00BA066026
:1033B00000E00E607B48006801287DD15846012D51
:1033C00002D0022D06D00EE0417800EE101AB8EEC1
:1033D000400A06E0417800EE101AB8EE400AB1EE5D
:1033E000400A89ED000A8178012902D0022907D01C
:1033F00010E09BF8030000EE100AB8EE400A07E068
:103400009BF8030000EE100AB8EE400AB1EE400A45
:1034100088ED000A4F46D9F80000FDF740F853EC5C
:103420001D2BFCF7B9FFFDF77DF808EE100AD8F860
:103430000000FDF734F853EC1D2BFCF7ADFFFDF752
:1034400071F878EE08BA08EE900A84ED048AC4EDAB
:10345000078AB0EE6B0A84ED058A08EE6F0AC4EDA8
:10346000088A84ED068AC4ED098A10EE100AFDF779
:1034700016F853EC1A2BFCF78FFF53EC192BFCF7C3
:103480008BFF3BEE880A41EC1D0B10EE100AFDF796
:1034900006F853EC1A2BFCF77FFF41EC1C0B18EEDF
:1034A000100AFCF7FCFF53EC192BFCF775FF53ECEB
:1034B0001C2BFCF7CAFE00E0A1E053EC1D2BFCF72F
:1034C000C4FEFDF72FF838EEA80A3860009008EE29
:1034D000EF0A10EE100AFCF7E2FF53EC1A2BFCF790
:1034E0005BFF53EC192BFCF757FF38EE880A41ECD1
:1034F0001C0B30EE080A10EE100AFCF7D0FF53EC5C
:103500001A2BFCF749FF41EC1A0B18EE900AFCF756
:10351000C6FF53EC192BFCF73FFF53EC1A2BFCF7BB
:1035200094FE53EC1C2BFCF790FEFCF7FBFF0146CE
:10353000C8F800001C4A0098B2EE040A904201DD6F
:1035400087ED000A4046914201DD80ED000A1749EF
:103550003A68BAEE040A8A4201D987ED000A026885
:103560008A4201D980ED000A97ED000A4FF07C52A3
:1035700010EE101A914206DAB5EEC00AF1EE10FA1A
:1035800001DDC7ED00EA90ED000A11E087E00000E0
:1035900000007041000070C1000000006C020020BB
:1035A000480200204C02002000002041000020C101
:1035B00010EE101A914206DAB5EEC00AF1EE10FADA
:1035C00001DDC0ED00EA97ED000A4FF03F4210EE3A
:1035D000101A914206D2B5EEC00AF1EE10FA01D2ED
:1035E00087ED00FA90ED000A10EE101A914206D213
:1035F000B5EEC00AF1EE10FA01D288ED00FA2A4BBE
:103600002A4A2B495846172D09D0182D0CD0294F7E
:10361000392D0DD0402D0FD0412D14D016E089ED5D
:1036200000BA88ED00BA11E0234F3E60E660F6E78D
:103630003F68012F03D009E03F68022F06D11E60CA
:1036400016600E6021E03F68032FF8D01B68012B45
:103650001BD11A4B012D02D0022D02D006E0457875
:1036600001E045786D421560C3F800A08278012A18
:1036700002D0022A03D008E09BF8030002E09BF886
:10368000030040420860C3F800A0A67101B03221D7
:10369000BDEC108BBDE8F04F0948FCF7CBBD01B085
:1036A000BDEC108BBDE8F08F4C00002070010020B5
:1036B00074010020500000204C0200200000002077
:1036C000BA0500200148FEF7B7B90000D803002072
:1036D0000148FEF7B1B90000200400200148FEF7C0
:1036E000ABB9000068040020F0B585B0054602269D
:1036F0002020CDE9000600240320CDE90240072068
:103700000E4F049069463846FDF716F94020CDE982
:10371000000669463846FDF70FF90A49084808606F
:10372000C1E901540C20CC60C1E904408C61084619
:10373000CC61FEF7B9FA05B0F0BD0000000C024004
:10374000004400404005002010B513460C460A46D0
:1037500001460448FEF7D2FB08B1002010BD20B29C
:1037600010BD0000400500200A4601464FF0FF331F
:103770000148FEF793BC000040050020FEE77CB541
:1037800015460646002903DA484240F4004001B2DB
:103790006C460A46601C8DF80030411CFEF7D0FCD8
:1037A0000022211DE01CFEF7CBFC2A46A11D601D56
:1037B000FEF7C6FC07236A462921304600F084F84C
:1037C0007CBD0907090E002804DB00F1E02080F829
:1037D0000014704700F00F0000F1E02080F8141D85
:1037E000704702E008C8121F08C1002AFAD17047CA
:1037F0007047002001E001C1121F002AFBD1704771
:1038000010B50420FEF7B6FE40F2DC5188420EDD12
:10381000074C40F6FF72B4F8700094F8283001B2FB
:10382000042000F04FF804F18001206FC86210BD41
:10383000CC00002038B5002425460121684600F060
:10384000FDF900280FD09DF80010E0B260F30F24BE
:1038500061F30704FF2901D1FF2805D06D1CEDB2EB
:103860000A2DEAD9002038BD012038BD10B502204C
:10387000FEF780FE0C494A6DA2F5487290420ADDBF
:1038800011F8283F4FF47A62088DBDE8104001B26C
:10389000022000F017B83223BDE81040102203A127
:1038A0000748FEF7FBBB0000CC000020636C61778B
:1038B0005F746F6F6F6F6F5F6261636B000000001A
:1038C00068040020FFF75BBFF8B51C4615460E469E
:1038D000074600F0B1F90320009023462A463146FE
:1038E000384600F0C9FA00F0A3FA3846BDE8F840BF
:1038F000FCF738BFFDF734F9FEF76EFEFEF730FC3B
:10390000FEF790FDFEF7AAFDFEF7C4FDFEF780FC72
:10391000FEF7B4FCFEF7E8FCFEF768FDFEF74AFD93
:10392000012228492848FEF741FB0122274928485F
:10393000FEF73CFB2748FDF715FD2748FDF712FD74
:1039400000212648FDF716FF04212448FDF712FF49
:1039500008212248FDF70EFF0C212048FDF70AFF41
:103960004FF47A70FCF7D6FF00F046F96420FCF7BC
:10397000D1FFFFF745FF012000F06AFA00F050F98F
:10398000FFF774FF00F042F9012000F00BFA4FF44A
:103990006170FCF7BFFF012000F004FA40F6B83474
:1039A0002046FCF7B7FF022000F0FCF92046FCF7A8
:1039B000B1FF032000F0F6F94FEA0400FCF7AAFF7C
:1039C0006420FBE7BD01002068040020C001002046
:1039D0009003002070020020B802002000030020A5
:1039E00070EE602A30EE202AB5EEC00A0122FCEE0D
:1039F000E21ABCEEC21A08B5F1EE10FA37DBF5EEAA
:103A0000C00AF1EE10FA32DB30EE600A0629B1EEA0
:103A1000400ABCEEC00A29D2DFE801F02803070BF8
:103A200018E911EE101A00927BE011EE101A0092C4
:103A30008AE0F5EEC02AF1EE10FA03DB11EE901ADF
:103A40000092BEE010EE101A00925AE0F5EEC02A85
:103A5000F1EE10FA04DB00BF11EE901A0092C1E003
:103A600010EE101A009250E0FCF7D8FE08BDB5EE3B
:103A7000C00AF1EE10FA24DBF5EEC00AF1EE10FAFE
:103A80001FD20629F2D2DFE801F00504030613B2C3
:103A9000E2E7D3E7EAE7B5EEC02AF1EE10FAC0DAC2
:103AA000B1EE420A0092BCEEC00A10EE101A3EE0DF
:103AB000B5EEC02AF1EE10FAB7DA11EE101A009244
:103AC00048E070EEC01AB5EEC00ABCEEE11AF1EEA5
:103AD00010FA44D2F5EEC00AF1EE10FA3FDB70EEB8
:103AE000801A70EE800A0629BCEEE00AF1EE600A48
:103AF000FCEEE00ABAD2DFE801F0035D6E0C1F7A3B
:103B0000B4E78AB2034601215EE08AB2034600218F
:103B10006BE0F5EEC01A0092F1EE10FA05DB10EE44
:103B2000101A03468AB2002104E010EE901A0346F0
:103B30008AB20121012097E7F5EEC01A0092F1EE5A
:103B400010FA05DB10EE101A03468AB2012104E0D8
:103B500010EE901A03468AB20021042084E7B5EEE5
:103B6000C00AF1EE10FA81D2F5EEC00AF1EE10FAB9
:103B700090D2B1EE402A30EEC00A32EE602A062919
:103B8000B1EE400ABCEEC22ABCEEC00AB8D2DFE8F1
:103B900001F00304080C1D2E68E712EE101A0092C3
:103BA000C5E712EE101A0092D4E7F5EEC01AF1EE56
:103BB00010FA03DB11EE101A0092A2E710EE101AB1
:103BC000009203468AB2002102204DE7F5EEC01AAA
:103BD000F1EE10FA03DB11EE101A009295E710EEE9
:103BE000101A009203468AB2012103203CE7BDE887
:103BF00008400020FCF7FCBD4FF4E130FFF774BD36
:103C00004FF4FA70401E80B2FCD27047034902485C
:103C10000968006888637047CC000020000300201A
:103C2000044840F6FF7210F82C3F808A01B2012050
:103C3000FFF748BECC000020FFF7E2BF024A89B27E
:103C40005268FFF781BD0000C000002008B50223C4
:103C50006A46FEF73FFC022802D04FF0FF3008BD55
:103C60009DF801109DF80000FEF7A6FC80B208BD8B
:103C70004B4A08B5D2ED000AB5EEC00A0120FCEEB1
:103C8000E00AF1EE10FA30DBBCEEC00A062919D2C8
:103C9000DFE801F018030C192264009010EE900A7E
:103CA0000121C3B210EE100A82B237E0009010EE8C
:103CB000900A0121C3B210EE100A82B238E000BFB0
:103CC000FCF7ACFD08BD009010EE900A0121C3B2D4
:103CD00010EE100A82B235E0009010EE900A012139
:103CE000C3B210EE100A82B236E0B5EEC00AF1EEB1
:103CF00010FA38D2B1EE400A0629BCEEC00AE1D271
:103D0000DFE801F003040E18222CDBE7009010EE30
:103D1000900A0021C3B210EE100A82B20120CFE750
:103D2000009010EE900A0021C3B210EE100A82B289
:103D30000220C5E7009010EE900A0021C3B210EEF9
:103D4000100A82B20320BBE7009010EE900A002117
:103D5000C3B210EE100A82B20420B1E7BDE80840F9
:103D60000020FCF745BDB5EEC00AF1EE10FAA9D16E
:103D700001290BD002290CD003290DD00429A1D18F
:103D800001210420BDE80840FCF71ABD01210846C6
:103D9000F8E701210220F5E701210320F2E7000006
:103DA000940100200849074A0128096805D0022823
:103DB00005D0032805D1506A02E0D06900E0106AFE
:103DC000C8637047CC0000200003002008B5002124
:103DD000ADF800100A49C0F3080048604FF4FA52E9
:103DE00009E000BFBDF80000401CADF80000BDF8C0
:103DF0000000904202D808680006F3D508BD000014
:103E00000010014038B5054600200C468DF8000032
:103E10008DF800009DF80000A04208D29DF8000037
:103E2000285CFFF7D3FF9DF80000401CF0E738BD89
:103E300010B5054C2178002904D00448FFF794FC04
:103E40000020207010BD0000C0000020B004002041
:103E500010B501280DD107484FF47A7200F18004A3
:103E600090F82830A08B01B20320FFF72BFDE0690A
:103E7000206310BDCC0000202DE9FF478046DDF80F
:103E800030904FF000008DF808004FF0FF008DF8E3
:103E900000008DF801001C4615000F464FF0020689
:103EA0008DF802808DF8049007D0E01CC6B28DF822
:103EB00003608DF80570062102E08DF8036005218E
:103EC000684600F023F808EB060101EB09003844CE
:103ED0008DF808007DB1002107E0685C9DF808209E
:103EE000491C10448DF80800C9B2A142F5D32146FF
:103EF000284600F00BF89DF808000121C0438DF81A
:103F0000080002A800F002F8BDE8FF8730B5074BB3
:103F1000074C07E01A78802A04D210F8015BA554F8
:103F2000521C1A70491EF5D2187830BDC00000200E
:103F3000B0040020000000000000000001020304A3
:103F40000607080900000000010203046C3F000896
:103F500000000020700200000C0700080440000868
:103F60007002002060080000F237000881327832C9
:103F7000B472960312DC0502230129372928320284
:103F8000DA030C0130293C82100B1724F480726490
:103F900032673256324A324E321932459A720C5AD0
:103FA00070E832F0238F0A23B8061BE20968220F5B
:103FB0002388041A7B0C23760E1AF60823010D1AA7
:103FC0003A201A45041AD6041A3C241AFA0423D0BB
:103FD000071A5A241A904029045A59141AD8142935
:103FE0000C1A74085AE20C4B310B242908C129140D
:103FF000DA0714A1C33443022314026301093A64AB
:0440000072C8000082
:040000050800018965
:00000001FF
