:020000040800F2
:1000000010090020A10100080B2500088F2000081E
:100010000925000835060008B52D0008000000007D
:100020000000000000000000000000000F25000894
:1000300037060008000000000D2500081125000803
:10004000BB010008BB010008BB010008BB010008A0
:10005000BB010008BB010008BB010008BB01000890
:10006000BB010008BB010008BB010008BB01000880
:10007000BB010008BB010008BB010008BB01000870
:10008000BB010008BB010008BB010008BB01000860
:10009000BB010008BB010008BB010008BB01000850
:1000A000BB010008BB010008C5250008B9250008F0
:1000B000D1250008DD250008E9250008BB0100085E
:1000C000BB010008BB010008BB010008BB01000820
:1000D000BB010008312D00083D2D0008492D000806
:1000E000BB010008BB010008BB010008BB01000800
:1000F000BB010008BB010008BB010008BB010008F0
:10010000BB010008BB010008BB010008BB010008DF
:10011000D9280008E5280008BB010008BB01000839
:10012000BB010008BB010008BB010008BB010008BF
:10013000BB010008BB010008BB010008BB010008AF
:10014000BB010008BB010008BB010008BB0100089F
:10015000BB010008BB010008BB010008BB0100088F
:10016000BB010008BB010008BB010008BB0100087F
:10017000BB010008BB010008BB0100080000000033
:10018000BB010008BB010008DFF810D000F040FA06
:1001900000480047312E0008AFF30080100900200E
:1001A0000648804706480047FEE7FEE7FEE7FEE711
:1001B000FEE7FEE7FEE7FEE7FEE7FEE7A92500080B
:1001C000890100082DE9F05F0546002092469B4614
:1001D00088460646814640241BE02846414647465D
:1001E000224600F071F953465A46C01A914110D385
:1001F00011461846224600F058F92D1A67EB0108FF
:100200004F4622460120002100F04FF917EB00096C
:100210004E41201EA4F10104DFDC484631462A4647
:100220004346BDE8F09FD2B201E000F8012B491E21
:10023000FBD270470022F6E710B513460A46044683
:100240001946FFF7F0FF204610BD421C10F8011BB5
:100250000029FBD1801A70472DE9FE4F81EA030483
:1002600004F0004421F0004100944FF0000B23F013
:10027000004350EA01045ED052EA03045BD0C3F3AA
:100280000A54C1F30A552C44A4F2F3340194A0FBA0
:100290000254C1F3130141F48011C3F3130343F477
:1002A000801301FB024400FB034E840A970A44EAD0
:1002B000815447EA8357A4FB076802958D0A05FB22
:1002C00007854FEA932C04FB0C542705029D4FEA47
:1002D000065847EA1637B5EB08056EEB070C870E94
:1002E000920E47EA811742EA8312A7FB0201B6EB9E
:1002F0000B0164EB00042B0D43EA0C335E1844EB56
:100300001C50DA465146E7FB0201C5F313044FEADD
:100310000B3343EA14534FEA0432019C43EA0603C9
:10032000A4F10C040294009CCDE900B400F022F981
:1003300003B0BDE8F08F00200146F9E72DE9F04D4C
:1003400081EA030404F0004B21F0004514464FF00D
:10035000000A23F0004150EA050220D054EA0102CD
:100360001DD0C5F30A570246C5F31303C1F31300AA
:10037000C1F30A5640F4801543F48013A7EB060836
:10038000101BD64608F2FD3873EB050002D308F1C6
:10039000010801E092185B41B8F1000F03DA002078
:1003A0000146BDE8F08D00204FF4801106468446DA
:1003B0000EE0171B73EB050705D3121B63EB050358
:1003C00006434CEA010C49084FEA300092185B41A1
:1003D00050EA0107EDD152EA030012D082EA04008C
:1003E00083EA0501084305D0101BAB4106D2012268
:1003F000002306E000224FF0004302E06FF001020C
:1004000053101AEB06004CEB085110EB0A0041EBBD
:100410000B01BDE8F04D00F09EB8C1F30A5210B5D3
:10042000C1F3130140F2FF3341F480119A4201DA23
:10043000002010BD40F233439A42A2F2334203DC63
:10044000524200F041F810BD904010BD00F0004253
:1004500030F000400AD0C10D01F56071C0F3160004
:1004600042EA0151C208400711437047002001468B
:10047000704701F0004330B421F0004150EA01021E
:1004800006D00A0DA2F56072C1F31301002A02DC46
:1004900030BC00207047440F44EAC104C100E0189A
:1004A00030BC00EBC25000F01FB8202A04DB203A19
:1004B00000FA02F1002070479140C2F1200320FAB7
:1004C00003F3194390407047202A04DB203A21FAB5
:1004D00002F00021704721FA02F3D040C2F120025D
:1004E00091400843194670470029A8BF7047401C37
:1004F000490008BF20F00100704710B4B0FA80FC3A
:1005000000FA0CF050EA010404BF10BC704749B176
:10051000CCF1200421FA04F411FA0CF118BF0121E6
:1005200021430843A3EB0C01CB1D4FEA00614FEAC6
:10053000102042BF002010BC704700EBC350104495
:100540000029A4BF10BC7047401C490008BF20F020
:10055000010010BC704710B5141E73F1000408DAD6
:10056000401C41F1000192185B411A4301D120F077
:10057000010010BD2DE9F04D92469B4611B1B1FA34
:1005800081F202E0B0FA80F220329046FFF78DFF50
:1005900004460F4640EA0A0041EA0B0153465A4618
:1005A000084313D0114653EA010019D0C8F14002A4
:1005B0005046FFF789FF05460E46504659464246CB
:1005C000FFF773FF084305D0012004E020463946B9
:1005D000BDE8F08D0020054346EAE0762C43374322
:1005E0000A986305E40AA0EB08000022FD0A44EA29
:1005F00047540A3002D500200146E9E701051019E9
:100600006941DDE9084500196941BDE8F04DA2E7FF
:10061000064C074D06E0E06840F0010394E807004F
:1006200098471034AC42F6D3FFF7B2FDA834000867
:10063000C8340008FEE770472DE9FF410027DDE9D7
:100640000A4600978DF80000FD208DF801008DF816
:1006500002100197100A8DF803008DF804208DF820
:100660000530200E8DF80600200C0C9D8DF807003B
:100670000297200A8DF8080003978DF809406B2037
:100680008DF80A608DF80C008DF80B500D2168462E
:1006900002F0E8FEBDE8FF811FB5002100918DF852
:1006A0000000FF208DF8010066208DF802006B200D
:1006B0000191029103918DF803000421684602F034
:1006C000D1FE1FBD72B6FEE72DE9F0410446876DED
:1006D00000F06EF9064694F835000025022806D091
:1006E0008020606584F834500120BDE8F0812068E6
:1006F000016821F0160101602068416921F0800144
:100700004161206C08B9A06C20B12068016821F01B
:10071000080101602068016821F0010101600CE01E
:1007200000F046F9801B052807D9202060650320CA
:1007300084F8350084F83450D7E720680068C00793
:10074000EED194F85C103F208840B860012084F816
:10075000350084F834500020C7E790F8351002299E
:1007600003D08021416501207047052180F83510B4
:100770000068016821F0010101600020704700005D
:1007800070B5044600F014F90546601C02D0044818
:100790000078044400F00CF9401BA042FAD370BD6D
:1007A000040000202DE9F84FDFF8BCA1002201254C
:1007B00003264FF00F090AF1040BAAF1040E00BF43
:1007C0000B6805FA02F42340A34270D10F7907F0B9
:1007D0000307012F01D0022F16D187684FEA420884
:1007E00006FA08FC27EA0C07D1F80CC00CFA08FC42
:1007F0004CEA070CC0F808C04768A7430C79C4F35B
:10080000001494403C4344600C79E443A4070AD0AC
:10081000C4684FEA420C06FA0CF7BC438F6807FA2B
:100820000CF72743C7600C7904F00304022C12D1A3
:10083000D40800EB840CDCF820405707FF0E09FABF
:1008400007F824EA0804D1F8108008FA07F848EA03
:100850000408CCF8208004684FEA420C06FA0CF732
:10086000BC430F7907F0030707FA0CF7274307602B
:100870004C6814F4403F70D03C4C276847F48047E4
:100880002760246822F0030704F480440094384C65
:1008900007EB040CDCF8084897074FEA177809FAC9
:1008A00008F7BC43334FB84202D1002724E054E09C
:1008B000314FB84201D101271EE0304FB84201D17B
:1008C000022719E02E4FB84201D1032714E02D4F23
:1008D000B84201D104270FE02B4FB84201D10527C0
:1008E0000AE02A4FB84201D1062705E0284FB84256
:1008F00001D1072700E0082707FA08F72743CCF8BB
:100900000878DAF800405746D1F804C09C435FEA03
:10091000CC2C00D51C433C60DBF800405F46D1F88E
:1009200004C09C435FEA8C2C00D51C433C60DEF87D
:1009300000407746D1F804C09C435FEA8C3C00D568
:100940001C433C60084F083F3C68D1F804C09C43FE
:100950005FEACC3C00D51C433C60521C102AFFF4DB
:100960002FAFBDE8F88F0000083C0140443802403A
:100970000030014000000240000402400008024034
:10098000000C024000100240001402400018024017
:10099000001C0240426921EA02030A4043EA024184
:1009A000816170470AB1816170470904FBE700006B
:1009B00001488068704700000400002002488168F8
:1009C0000278114481607047040000200B4810B584
:1009D000016841F400710160016841F480610160C7
:1009E000016841F480710160032000F06FF80F206E
:1009F00000F006F800F024F8002010BD003C024092
:100A000070B50D4D04464FF47A712878B1FBF0F0C3
:100A10000A490968B1FBF0F000F00AFB48B9102C54
:100A200007D200222146501E00F030F800206C60F2
:100A300070BD012070BD00000400002010000020E7
:100A40000A4808B5016841F480410160006800F47B
:100A5000804000900548001F016841F0805101600E
:100A6000006800F08050009008BD0000443802404B
:100A7000002809DB00F01F0201219140400980009D
:100A800000F1E020C0F8001170470000F0B40E4BF8
:100A90001B680C46C3F30223C3F10705042D00D9DC
:100AA0000425191D072901D2002300E0DB1E0126C1
:100AB00006FA05F1491E214099409E40761E1640D7
:100AC0003143F0BC02F077B90CED00E0064900F0CC
:100AD000070208684FF6FF03184040EA0220034A65
:100AE00010430860704700000CED00E00000FA05BC
:100AF0002DE9F0470E46050065D0DFF81481D8F8DF
:100B00000000F7B200F00700B04207D288F800708A
:100B1000D8F8000000F00700B04254D128683D4CDE
:100B2000810712D5400703D5206840F4E0502060CB
:100B30002878000703D5206840F4604020602068D2
:100B4000A96820F0F000084320602878C0072DD065
:100B5000304968680839012812D0022813D00328C8
:100B600011D00968890700292DDA216821F00301D5
:100B700001432160FFF71CFF814641F2883A0EE0F5
:100B800009688903EFE709688901ECE7FFF710FFBF
:100B9000A0EB0901514502D90320BDE8F087206888
:100BA000696800F00C00B0EB810FEFD1D8F80010AD
:100BB000404601F00701B14207D90770006800F014
:100BC0000700B04201D00120E7E72878400705D5AB
:100BD0002068E96820F4E050084320602878000786
:100BE00006D52068296920F4604040EAC1002060F1
:100BF00000F038F82168084AC1F30311515CC8407D
:100C00000649086006480068FFF7FAFE0020C4E7BE
:100C1000003C0240083802409034000810000020D8
:100C2000080000200448054900680968044AC1F327
:100C30008221515CC84070471000002008380240F3
:100C4000A03400080448054900680968044AC1F353
:100C50004231515CC8407047100000200838024003
:100C6000A0340008154810B5006810F00C021448B4
:100C700013D04110042A0FD0082A0ED10F4C241F84
:100C80002268236802F03F025B0207D52068C0F3A8
:100C90008810A0FB010106E0084610BD2168C1F3E1
:100CA0008811A1FB00010023FFF78CFA2168C1F332
:100CB0000141491C4900B0FBF1F010BD0838024069
:100CC0000024F4002DE9F84F04006ED02078DFF8FE
:100CD0004C93C007A9F104054AD009F1040001684A
:100CE000C1F38101012908D00068C0F38100022806
:100CF0000AD1D9F80000400206D52868800337D50C
:100D000060680028E1D033E06068B0F5803F10D023
:100D1000B0F5A02F286810D020F480302860286813
:100D200020F4802028606068A8B1FFF741FE0646E5
:100D30000DE0286840F48030F4E740F4802028601B
:100D4000F7E700BFFFF734FE801B642873D82868DC
:100D50008003F7D50CE0FFF72BFE064605E000BF49
:100D6000FFF726FE801B6428F0D828688003F7D49C
:100D70002078DFF8AC8280074FF0000A3ED5A74804
:100D8000001D016811F00C0F08D00068C0F381004D
:100D900002280BD1D9F80000400207D42868800748
:100DA00016D5E068012800D112E033E1E068B8B15F
:100DB0000120C8F80000FFF7FBFD064605E000BF74
:100DC000FFF7F6FD801B0228C0D828688007F7D5FA
:100DD0002868216920F0F80040EAC10028600DE091
:100DE000C8F800A0FFF7E4FD064604E0FFF7E0FDC9
:100DF000801B02281FD828688007F7D420780007B6
:100E000022D5864F87486169703771B10121016031
:100E1000FFF7CEFD064604E0FFF7CAFD801B02285F
:100E200009D838688007F7D50EE0C0F800A0FFF7B2
:100E3000BFFD064605E082E0FFF7BAFD801B0228F1
:100E40007DD838688007F7D42078400768D5DFF868
:100E5000CCB100270BF13C0BDBF80000C0000BD439
:100E6000DBF8001041F08051CBF80010DBF80000F7
:100E7000012700F0805000906B4E3068C00510D400
:100E8000306840F480703060FFF792FD009005E01C
:100E9000FFF78EFD0099401A022850D83068C0052F
:100EA000F6D55E4EA0686C3601280FD00528306854
:100EB00010D020F001003060306820F00400306075
:100EC000A068B8B1FFF774FD00900FE0306840F003
:100ED0000100F4E740F004003060F7E7FFF768FD39
:100EE0000099411A41F28830814266D83068800703
:100EF000F4D50EE0FFF75CFD009007E0FFF758FD2A
:100F00000099411A41F28830814256D830688007F2
:100F1000F4D42FB1DBF8001021F08051CBF8001091
:100F2000A069C8B33D49091D0968C1F381010229BF
:100F30004AD00228504607D0C8F8600000E03CE0E4
:100F4000FFF736FD04463BE04746C8F86000FFF770
:100F50002FFD064605E000BFFFF72AFD801B022893
:100F60002BD828688001F7D4D4E907010843A16A87
:100F70002E4A490802EB0141626A41EA82110843A4
:100F800094F82C1040EA0161C9F80010012038667D
:100F9000FFF70EFD044606E03EE000BFFFF708FD48
:100FA000001B022809D828688001F7D534E000BF6B
:100FB000FFF7FEFC001B022802D90320BDE8F88FD2
:100FC00028688001F4D427E00128F7D0D9F8000080
:100FD000E26900F4800191421CD1226A00F03F01D5
:100FE000914217D147F6C071626A0140B1EB821F8E
:100FF00010D1A26A4FF0FF3300F4403103EB5202EC
:10100000B1EB024F06D194F82C1000F07060B0EBF9
:10101000016F01D00120D1E70020CFE70438024062
:1010200000004742800E4742007000400000FFFF72
:1010300010B5401EB0F1807F01D3012010BD4FF0EC
:10104000E02460610F21601701F0B5FE0020A0616F
:1010500007202061002010BD7047704710B590F840
:101060003C20012A22D0012280F83C20CA688C68EA
:1010700022F4407222434C6822F4806222430C68BE
:1010800022F4006222430C6922F4805222434C690C
:1010900022F400522243C969002322F480420A4309
:1010A00001684A6480F83C30002010BD022010BD69
:1010B00070B590F83C20012A32D0012480F83C40E1
:1010C000022280F83D2003685A689D6822F070066D
:1010D0000A6832435A60134B02689A4214D0B2F144
:1010E000804F11D0104B9A420ED0104B9A420BD029
:1010F0000F4B9A4208D00F4B9A4205D00E4B9A42A2
:1011000002D00E4B9A4204D1496825F0800319435E
:10111000916080F83D40002180F83C10084670BD89
:10112000022070BD000001400004004000080040A3
:10113000000C004000040140004001400018004045
:1011400010B5040003D094F83D0010B107E0012071
:1011500010BD002084F83C00204600F01FF802205B
:1011600084F83D00211D206801F044FA012084F834
:10117000460084F83E0084F83F0084F8400084F87C
:10118000410084F8420084F8430084F8440084F865
:10119000450084F83D00002010BD000008B501683E
:1011A0002B48814217D12B48016841F001010160B1
:1011B0000068002200F00100009011461A20FFF79D
:1011C00065FC1A20FFF754FC002211461B20FFF794
:1011D0005DFC1B2036E01F48001FB1F1804F11D08D
:1011E0001D4A91421DD1016841F002010160006871
:1011F000002200F00200009011461D20FFF746FC7F
:101200001D201FE0016841F001010160006800221B
:1012100000F00100009011461C20FFF737FC1C2055
:1012200010E00E4A914211D1016841F004010160C1
:101230000068002200F00400009011461E20FFF715
:1012400025FC1E20BDE80840FFF712BC08BD0000C9
:101250000000014044380240000400400008004003
:1012600090F83D10012901D001207047022180F83B
:101270003D100168CA6842F00102CA600068114965
:10128000884214D0B0F1804F11D00F4988420ED05F
:101290000E4988420BD00E49884208D00D49884239
:1012A00005D00D49884202D00C49884204D181689A
:1012B00001F00701062903D0016841F00101016036
:1012C000002070470000014000040040000800407A
:1012D000000C0040000401400040014000180040A4
:1012E00070B5044690F83C000025012817D001266F
:1012F00084F83C60022084F83D002068826822F077
:10130000770222F47F4282600868502838D00DDCD2
:1013100020284FD005DC90B3102811D14AE00220DC
:1013200070BD302846D040280AD13BE060282FD03D
:1013300070280DD0B0F5805F03D0B0F5005F12D0FB
:10134000012584F83D60002084F83C00284670BDEB
:10135000CB68D1E90121206801F0C5F920688168D6
:1013600041F0770109E0CB68D1E90121206801F063
:10137000BAF92068816841F480418160E1E719E0B1
:10138000CA684968206801F083FA5021206806E0A5
:10139000CA684968206801F08CFA6021206801F071
:1013A000ACF9CEE7CA684968206801F071FA4021BB
:1013B0002068F4E7226801461046F0E770472DE9FF
:1013C000F04104460068C66805694FF00007A907A8
:1013D00013D5B10711D5F91E0161012020772068CE
:1013E00080698007204602D0FFF7E8FF04E000F0A4
:1013F000C3F8204600F055F92777680716D570071F
:1014000014D521686FF0040008610220207720685D
:10141000806910F4407F204602D0FFF7CFFF04E040
:1014200000F0AAF8204600F03CF92777280715D5E8
:10143000300713D521686FF0080008610420207779
:101440002068C0698007204602D0FFF7B7FF04E09C
:1014500000F092F8204600F024F92777E80616D528
:10146000F00614D521686FF010000861082020777D
:101470002068C06910F4407F204602D0FFF79EFF2D
:1014800004E000F079F8204600F00BF92777E80730
:1014900008D0F00706D021686FF0010008612046EF
:1014A00000F064F9280608D5300606D521686FF0EB
:1014B000800008612046FFF7CFFD680608D570065A
:1014C00006D521686FF040000861204600F0B0FAB0
:1014D000A8060AD5B00608D521686FF0200008617B
:1014E0002046BDE8F041FFF7B8BDBDE8F08100003F
:1014F00010B586B0044614216846FEF79BFE2368AB
:10150000184C002118480222A34212D1036843F06C
:1015100010030360006800F0100005904FF4D44001
:101520000090CDE901210120CDE9031069460F4863
:1015300013E00F4CA34212D1036843F00803036089
:10154000006800F0080005904FF470400090CDE96D
:101550000121CDE9031269460648FFF723F906B0D9
:1015600010BD000000000140303802400010024071
:1015700000080040000C0240704770B5044690F827
:101580003C0000260D4601280FD0012084F83C00C5
:101590006AB1042A1DD0082A2FD00C2A3FD0012678
:1015A000002084F83C00304670BD022070BD2068E9
:1015B00001F0ACF82068816941F008018161206880
:1015C000816921F004018161206881692A691143E0
:1015D00011E0206801F0CAF82068816941F40061D7
:1015E00081612068816921F480618161206881695D
:1015F0002A6941EA02218161D2E7206801F0ECF812
:101600002068C16941F00801C1612068C16921F009
:101610000401C1612068C1692A69114311E0206891
:1016200001F00EF92068C16941F40061C1612068D0
:10163000C16921F48061C1612068C1692A6941EAF8
:101640000221C161ACE710B5040003D094F83D005D
:1016500010B107E0012010BD002084F83C002046B6
:1016600000F01EF8022084F83D00211D206800F0E3
:10167000C1FF012084F8460084F83E0084F83F0052
:1016800084F8400084F8410084F8420084F8430064
:1016900084F8440084F8450084F83D00002010BD23
:1016A0007047704710B50446022249B104290ED094
:1016B000082913D094F84100012816D0012010BD4C
:1016C00094F83E000128F9D184F83E200FE094F808
:1016D0003F000128F2D184F83F2008E094F8400050
:1016E0000128EBD184F8402001E084F84120012258
:1016F000206800F0EBFF16492068164A884201D0A6
:10170000904203D1436C43F4004343642068884211
:1017100013D0B0F1804F10D00F4988420DD00F493F
:1017200088420AD00E49884207D0904205D00D4920
:10173000884202D00C49884204D1816801F0070137
:10174000062903D0016841F001010160002010BDAD
:101750000000014000040140000400400008004077
:10176000000C004000400140001800402DE9F05FEF
:1017700005462DED068B00689C4CB0F1804F11D1D1
:101780002068401C20609A48007808B101F01AFADD
:101790009848007808B101F01FFA20680A2801D1A2
:1017A000002020609449286888422AD161689348C3
:1017B000DFF84CA2A046012927D000222021FFF704
:1017C000F1F800BFD8F8080001281AD1D8F8101095
:1017D0004046491CC8F81010D8F81820DAED000A65
:1017E000514300EE101AB8EEC00AB4EEE00AF1EE72
:1017F00010FA06DB00210161416041618160C8F897
:101800000C10BDEC068BBDE8F09F01222021FFF7F4
:10181000C9F87C4D7C4E7D4FD8F8140044464FF0FB
:10182000010BE0BBC4F814B028688146FEF70EFE39
:101830009FED779B53EC192BFEF780FD41EC180BC5
:10184000D6ED000AB0EE48AAF0EE68AADFED728A83
:1018500080EEA80A10EE100AFEF7F8FD53EC1A2BE2
:10186000FEF76CFD9FED6DAB53EC1A2BFEF7F4FC0D
:10187000FEF7FFFD08EE100A6A4880ED008A484630
:10188000FEF7E4FD53EC192BFEF758FDD7ED000AE7
:1018900041EC190B80EEA80A10EE100A00E019E0E6
:1018A000FEF7D4FD53EC192BFEF748FD53EC1A2B31
:1018B000FEF7D2FCFEF7DDFD00EE100A5A48B4EE4A
:1018C000C08A80ED000AF1EE10FA01DDB0EE480AA0
:1018D0008AED000AE068062801DA401CE060A046B4
:1018E000E068524C012814D195ED000A0122D7ED91
:1018F000000ABCEEC00A10EE100A94ED000A81B294
:10190000BCEEC00A10EE100A96ED000AC0B201F05B
:1019100093FCD8F80C00022814D195ED000A02229D
:10192000D7ED000ABCEEC00A10EE100A94ED000AD2
:1019300081B2BCEEC00A10EE100A96ED000AC0B2E9
:1019400001F07AFCD8F80C00032814D195ED000AB8
:101950000322D7ED000ABCEEC00A10EE100A94ED87
:10196000000A81B2BCEEC00A10EE100A96ED000A21
:10197000C0B201F061FCD8F80C00042814D195ED38
:10198000000A0422D7ED000ABCEEC00A10EE100ACD
:1019900094ED000A81B2BCEEC00A10EE100A96ED7A
:1019A000000AC0B201F048FCD8F80C00052814D198
:1019B00095ED000A0522D7ED000ABCEEC00A10EE34
:1019C000100A94ED000A81B2BCEEC00A10EE100AB3
:1019D00096ED000AC0B201F02FFCD8F80C100629D1
:1019E0007FF4F0AEC8F808B0F0E60000D8000020A0
:1019F000D2000020D4000020000400400008024073
:101A0000C8000020BC000020A8000020AC0000207E
:101A10000000000000004E403333FB410000000096
:101A200000408F40C0000020C4000020B80000200B
:101A30007047704770470000F8B5016804460868B1
:101A4000CA684B6910F00F0F4FF0000559D003F032
:101A5000010602F49077374365D0C10705D0D10560
:101A600003D5616C41F001016164410705D5D907D7
:101A700003D0616C41F002016164810705D5D9078B
:101A800003D0616C41F004016164010707D502F0E5
:101A90002001314303D0616C41F008016164616C45
:101AA00000293AD0800604D5900602D5204600F0E1
:101AB0004EFF20684069616CC0F38010090700D4B4
:101AC00060B3204600F01CFF20684069400621D525
:101AD0002068143050E8001F21F0400140E8001257
:101AE000002AF5D1E06BA8B16E490165E06BFEF705
:101AF00034FE002811D0E06B016D01B0BDE8F0406C
:101B0000084783060FD593060DD52046BDE8F8405B
:101B100000F01DBF2046FFF78DFFF8BD2046FFF700
:101B200089FF6564F8BD266B2023012E7DD1C60692
:101B30007BD5D60679D508684868009048694FF08B
:101B40000206400641D5E16B086840680004000CBD
:101B5000E8D0A28D8242E5D9E085C869B0F5807FE2
:101B60002DD020680C3050E8001F21F4807140E82F
:101B70000012002AF5D12068143050E8001F21F02F
:101B8000010140E80012002AF5D12068143050E825
:101B9000001F21F0400140E80012002AF5D184F82E
:101BA0004230256320680C3050E8001F21F01001FE
:101BB00040E80012002AF5D1E06BFEF785FD666370
:101BC000A08DE18D401A81B22AE0A08DE18D401AEE
:101BD00081B2E08D0028A5D00029A3D022680C3264
:101BE00052E8000F20F4907042E80007002FF5D172
:101BF0002068143050E8002F22F0010240E800274E
:101C0000002FF5D184F84230256320680C3050E86D
:101C1000002F22F0100240E80023002BF5D166636C
:101C20002046FFF706FFF8BDFFE705062BD5150692
:101C300029D594F841002128F5D1A068B0F5805F3E
:101C400001D12069B0B1206A411C2162216800786D
:101C50004860E08C401E0004000CE084E3D1206862
:101C6000C16821F08001C1602068C16841F0400175
:101C7000C160D8E7206A0088C0F308004860206A85
:101C8000801C2062E5E74006CDD55006CBD5CA685A
:101C9000204622F04002CA6084F8413000F0F6F994
:101CA000C1E70000F128000870B5040004D094F8E2
:101CB0004100002510B106E0012070BD84F84050BD
:101CC000204600F023F8242084F841002068C168F1
:101CD00021F40051C160204600F09AFE206801699D
:101CE00021F4904101612068416921F02A0141619C
:101CF0002068C16841F40051C1606564202084F807
:101D0000410084F842006563002070BD2DE9F04178
:101D100086B0044614216846FEF78CFA6E49DFF857
:101D2000B4C1236800246C4A103903250226082711
:101D30006A4863451ED1136843F400231360126898
:101D400002F4002205920A6842F001020A60096862
:101D5000CDE9005601F00101CDE904716946CDE9F4
:101D60000245FEF71FFD002211463420FEF78EFECD
:101D7000342038E0DFF868C1DFF86881634537D187
:101D8000106840F480101060106800F48010059016
:101D9000086840F004000860086800F0040005903E
:101DA000086840F008000860086802AB00F008000E
:101DB00005904FF48050CDE9000683E8B0006946F5
:101DC0004948FEF7EFFC0420CDE9000602AB694666
:101DD00083E8B0004046FEF7E5FC002211463520BE
:101DE000FEF754FE3520FEF743FE06B0BDE8F08155
:101DF000DFF8F8C00727634522D1374A121D136860
:101E000043F010031360126802F0100205920A6892
:101E100042F001020A60096802AA01F0010105917D
:101E20004FF4C061CDE9001682E8B0006946FEF7C4
:101E3000B9FC002211462520FEF728FE2520D2E716
:101E40002B48834220D1106840F4003010601068A5
:101E500000F400300590086840F008000860086849
:101E600002AB00F0080005906020CDE9000683E891
:101E7000B00069464046FEF795FC00221146262038
:101E8000FEF704FE2620AEE71A488342ADD1106863
:101E900040F480201060106800F4802005900868ED
:101EA00040F002000860086802AB00F002000590F4
:101EB0004FF44060CDE9000683E8B00069460E4863
:101EC000FEF770FC002211462720FEF7DFFD2720D9
:101ED00089E70000004C004040380240000002400A
:101EE00000500040000C0240000802400010014079
:101EF00000440040004800400004024090F8423096
:101F0000202B01D00220704721B11AB100230363B6
:101F100000F004BE012070472D4930B4CB79002277
:101F2000802B00D3CA714B79322B00D34A718B7945
:101F3000322B00D38A710B7A322B00D30A724B7A80
:101F4000322B00D34A72234CCA798B78A354521C8B
:101F5000CA714A79643C0B78A354521C4A718A793D
:101F600032344B78A354521C8A710A7AB234CB783B
:101F7000A354521C0A724A7A32340B79A354521C6D
:101F80004A72154A0168914202D1012210491AE0B1
:101F9000124A914203D10E490122491C13E0104A12
:101FA000914203D10A490122891C0CE00D4A914259
:101FB00003D107490122C91C05E00B4A914205D112
:101FC00003490122091D30BCFFF798BF30BC7047A0
:101FD000CC000020280400200044004000480040BD
:101FE00000100140004C0040005000402DE9F84333
:101FF000044690F84100984616460D46202802D027
:102000000220BDE8F88385B17EB100206064212004
:1020100084F84100FEF7CCFCA6848146E684A068E3
:102020002027B0F5805F02D003E00120E9E72069B6
:1020300010B12E4600250EE000260CE0802120463F
:1020400000F087FDA8B9C6B116F8010B21684860F9
:10205000E08C401EE084E08C4B464FF00002CDF84F
:1020600000800028EAD14FF04001204600F071FDC9
:1020700040B184F841700320C3E735F8020BC0F388
:102080000800E3E784F841700020BAE77047FEE7F4
:10209000F0B587B014216846FEF7CCF82948002532
:1020A000016841F080010160016801F08001059143
:1020B000016841F001010160016801F00101059131
:1020C000016841F004010160016801F0040105911B
:1020D000016841F002010160016801F0020105910F
:1020E000016841F010010160016801F010010591E3
:1020F000016841F0080101600068134E00F008001B
:102100000590002220213046FEF74CFC0F4F0022A4
:1021100004213846FEF746FC01242020CDE90004C6
:1021200069463046CDE90245FEF73CFB0420CDE987
:10213000000469463846CDE90245FEF733FB07B097
:10214000F0BD0000303802400008024000040240A8
:1021500010B596B000240F94109411941294139417
:102160001C2168461494FEF765F8202107A8FEF7A5
:1021700061F835483349016040F28F61C0E90114CC
:1021800040F2CF71C0E9031444618461FEF7D8FFC7
:1021900008B1FEF797FA4FF480500F900FA92A4824
:1021A000FFF79EF808B1FEF78DFA2748FFF74BFAC4
:1021B00008B1FEF787FA139413A923481494FEF785
:1021C00077FF08B1FEF77EFA6020CDE900040294A3
:1021D000039404940594002269461B480694FFF773
:1021E000CCF908B1FEF76EFA042269461648FFF7EB
:1021F000C4F908B1FEF766FA082269461248FFF7EB
:10220000BCF908B1FEF75EFA0C2269460E48FFF7EA
:10221000B4F908B1FEF756FA0794089409944FF4FC
:1022200000500A94CDE90B4007A907480E94FEF729
:1022300015FF08B1FEF746FA0348FFF759F916B043
:1022400010BD000000000140F400002010B586B071
:1022500000241848009401940294039404944FF0CD
:1022600080410594016040F28F61C0E901144FF490
:102270007A71C0E9031480218161FEF761FF08B122
:10228000FEF720FA4FF48050009069460948FFF7A6
:1022900027F808B1FEF716FA2020CDE9040404A9B6
:1022A0000448FEF705FF002801D0FEF70BFA06B040
:1022B00010BD00003C01002010B586B00024184875
:1022C00000940194029403940494144905940160C9
:1022D00040F28F61C0E901144FF47A71C0E9031430
:1022E00080218161FEF72CFF08B1FEF7EBF94FF476
:1022F0008050009069460A48FEF7F2FF08B1FEF7E9
:10230000E1F92020CDE9040404A90548FEF7D0FE38
:10231000002801D0FEF7D6F906B010BD0004004039
:102320008401002010B58EB000240794089409940D
:102330000A940B941C2168460C94FDF77BFF2B48F4
:102340002949016040F28F61C0E9011440F2CF7168
:10235000C0E9031480218161FEF7F2FE08B1FEF7A7
:10236000B1F94FF48050079007A92048FEF7B8FF55
:1023700008B1FEF7A7F91D48FFF765F908B1FEF7A8
:10238000A1F90B940BA919480C94FEF791FE08B122
:10239000FEF798F96020CDE9000402940022694616
:1023A00012480494FFF7E9F808B1FEF78BF904220C
:1023B00069460E48FFF7E1F808B1FEF783F90822F5
:1023C00069460A48FFF7D9F808B1FEF77BF90C22F5
:1023D00069460648FFF7D1F808B1FEF773F90348DC
:1023E000FFF786F80EB010BD00080040CC010020B9
:1023F0000C4810B50A4901604FF4165141600021A4
:1024000081600C22C160C0E904128161C161FFF7E3
:102410004BFC002803D0BDE81040FEF753B910BDB7
:10242000004C0040140200200C4810B50A4901601D
:102430004FF416514160002181600C22C160C0E957
:1024400004128161C161FFF72FFC002803D0BDE8B1
:102450001040FEF737B910BD005000405C0200206C
:102460000C4810B50A4901604FF4E1314160002188
:1024700081600C22C160C0E904128161C161FFF773
:1024800013FC002803D0BDE81040FEF71BB910BDB7
:1024900000100140A40200200C4810B50A49016058
:1024A0004FF4E1314160002181600C22C160C0E93C
:1024B00004128161C161FFF7F7FB002803D0BDE87A
:1024C0001040FEF7FFB810BD00440040EC020020B1
:1024D0000C4810B50A4901604FF4E1314160002118
:1024E00081600C22C160C0E904128161C161FFF703
:1024F000DBFB002803D0BDE81040FEF7E3B810BDB9
:102500000048004034030020FEE7FEE770477047B4
:10251000FEF754BA30B593B030216846FDF78AFE15
:1025200014210CA8FDF786FE1D480025016841F026
:1025300080510160006800F08050119019480168D6
:1025400041F4804101600068022400F48040119051
:1025500001200090000401908001CDE9064008AA06
:102560000420A82182E813000B906846FEF7AAFB1E
:1025700008B172B6FEE70CA90F2081E831004FF4D4
:10258000A0500F904FF48050109005210CA8FEF73A
:10259000AFFA002801D072B6FEE713B030BD0000DC
:1025A00040380240007000400248016841F4700168
:1025B0000160704788ED00E00148FEF700BF0000B1
:1025C000F40000200148FEF7FABE0000F4000020ED
:1025D0000148FEF7F4BE00003C0100200148FEF770
:1025E000EEBE0000840100200148FEF7E8BE0000B6
:1025F000CC010020F0B50268294C2A4D2A4E2B4F01
:102600002B4B4FF0804CA04209D0604507D0A84228
:1026100005D0B04203D0B84201D0984204D122F094
:10262000700E4A6842EA0E02A0421BD0604519D0E3
:10263000A84217D0B04215D0B84213D0984211D05A
:102640001C4DA8420ED01C4DA8420BD01B4DA842D9
:1026500008D01B4DA84205D01A4DA84202D01A4DF1
:10266000A84203D122F44075CA682A434D6922F07A
:1026700080022A4302608A68C2620A688262A042BB
:1026800001D0984201D109690163012141610169C9
:10269000C90703D0016921F001010161F0BD00000B
:1026A000000001400004004000080040000C004011
:1026B0000004014000400140004401400048014046
:1026C00000180040001C00400020004010B501F040
:1026D0001F030121046A99408C430462016A9A40F5
:1026E0001143016210BD10B5846842EA032224F44C
:1026F0007F440A432243826010BD826822F0700248
:102700000A4342F00701816070470000F0B5036A98
:10271000026A22F00102026242688469124E24F0C9
:1027200073050C682C4323F002058B682B430D4D79
:10273000A84201D0B04205D123F00807CB683B4343
:1027400023F00403A84201D0B04205D14D6922F420
:10275000407215438A692A43426084614968416333
:102760000362F0BD0000014000040140F0B5026AC0
:10277000036A23F010030362436884690D6824F43C
:10278000E64444EA05248D6822F0200242EA05125C
:102790000F4D104EA84201D0B04206D1CF6822F0B2
:1027A000800242EA071222F04002A84201D0B04261
:1027B00007D14D6923F4406343EA85038D6943EAF9
:1027C000850343608461496881630262F0BD000053
:1027D0000000014000040140F0B5026A036A23F4DE
:1027E000807303624368C46922F4007224F07305A5
:1027F0000C68124E2C438D6842EA05220E4DA84209
:1028000001D0B04206D1CF6822F4006242EA07222A
:1028100022F48062A84201D0B04207D14D6923F46E
:10282000405343EA05138D6943EA05134360C461CD
:102830004968C1630262F0BD00000140000401402C
:1028400030B5046A026A22F4805202624268C369A7
:102850000D6823F4E64343EA05238D6824F400540D
:1028600044EA0534084DA84202D0084DA84204D1DC
:102870004D6922F4804242EA85124260C361496890
:102880000164046230BD000000000140000401400A
:1028900010B5036A046A24F001040462846924F018
:1028A000F00444EA021423F00A020A43846102623B
:1028B00010BD10B5036A046A24F010040462846930
:1028C00023F0A00324F4704444EA023243EA0111E5
:1028D0008261016210BD00000148FFF7ADB8000041
:1028E000140200200148FFF7A7B800005C02002096
:1028F00010B5806B0021C185C184FFF79BF810BD26
:1029000001680C3151E8002F22F4907241E8002355
:10291000002BF5D10168143151E8002F22F001029B
:1029200041E80023002BF5D1016B012909D1016891
:102930000C3151E8002F22F0100241E80023002B57
:10294000F5D1202180F8421000210163704708B5BD
:1029500090F84210222901D0022008BD82684FF46D
:1029600080539A4201D1016921B1816A9A421BD0F8
:102970004AB10AE00268816A5268C2F308020A801A
:10298000816A891C08E0026972B10268526802F02B
:102990007F020A70816A491C8162C18D491E090447
:1029A000090CC18503D01BE002685268F1E7016899
:1029B000CA6822F02002CA600168CA6822F48072E4
:1029C000CA6001684A6922F001024A61202180F848
:1029D000421000214163026B012A03D0FFF79CFAE9
:1029E000002008BD016301680C3151E8002F22F07E
:1029F000100241E80023002BF5D101680A68D206D5
:102A000002D50A6849680091818DFFF712F8E7E75F
:102A100070B5044600680169E26821F44051114331
:102A200001612169A068E2690843616911430843B3
:102A30002168CA6849F20C639A430243CA6020685D
:102A40004169A26921F44071114341613149206813
:102A5000884202D03049884202D1FEF7F3F801E003
:102A6000FEF7E0F8E2690023192164253226B2F569
:102A7000004F626828D0A0FB0101930F9200FDF780
:102A8000A1FB0146B0FBF5F06FF01802504301EBDB
:102A9000800006EB0010B0FBF5F000F0F002B1FB97
:102AA000F5F002EB0012B1FBF5F06FF0180358439C
:102AB00001EB800006EB0010B0FBF5F000F00F001A
:102AC00021681044886070BDA0FB010192185B4131
:102AD000FDF778FB0146B0FBF5F00201B1FBF5F024
:102AE0006FF01803584301EB800006EBC000B0FB09
:102AF000F5F000F0F80002EB4002B1FBF5F05843AE
:102B000001EB800006EBC000B0FBF5F000F0070021
:102B1000D6E7000000100140001401408162828568
:102B2000C28500214164222180F84210016921B14F
:102B30000168CA6842F48072CA6001684A6942F05A
:102B400001024A610068C16841F02001C1600020B3
:102B500070472DE9F843984617460D460446089EEF
:102B600024E0701C22D0FDF723FFA0EB0800B04248
:102B70001AD8CEB12068C168490717D5802D15D065
:102B8000402D13D00168C94309070FD401680025FF
:102B9000406800902046FFF7B3FE0820606484F888
:102BA00040500120BDE8F8830320FBE7206800685F
:102BB00035EA000004D00020B842D2D00020F1E76E
:102BC0000120F9E703488079002801D000F00EB811
:102BD00070470000CC0000200348007A002801D094
:102BE00000F08AB870470000CC00002010B5334CCC
:102BF000A079002860D03248FDF727FB82B232234B
:102C00002F493048FFF7F2F904212F48FDF7C2FEA3
:102C10002B48017800EE101A2C49B8EE400A81EDDD
:102C2000000A4278012A05D0022A03D1B1EE400AF7
:102C300081ED000A827800EE102A254AB8EE400A9B
:102C400082ED000AC078012805D0022803D1B1EE38
:102C5000400A82ED000A1F4891ED000AD0ED000AFB
:102C600070EE800AC0ED000A1B48D2ED000A90ED1C
:102C7000001A31EE201A80ED001A184880ED000A83
:102C80001748C0ED000A174880ED000A1648C0ED4D
:102C9000000A164880ED000A1548C0ED000A1548E4
:102CA000016809B9012101600020A071BDE8104050
:102CB00032210348FDF7BEBA10BD0000CC00002051
:102CC000F6030020340300200004024088000020A6
:102CD00090000020980000209C000020A800002008
:102CE000AC0000208C00002094000020B0000020E8
:102CF000B4000020DC0000200A48017A002910D02E
:102D00000949B422C988514300EE101A0749B8EEA8
:102D1000400A81ED000A0021017232210248FDF7CC
:102D200089BA7047CC000020A804002000000020D1
:102D30000148FEF781BE0000A40200200148FEF712
:102D40007BBE0000EC0200200148FEF775BE0000CB
:102D500034030020F0B585B0054602262020CDE9D9
:102D6000000600240320CDE9024007200E4F049006
:102D700069463846FDF716FD4020CDE90006694654
:102D80003846FDF70FFD0A4908480860C1E90154BB
:102D90000C20CC60C1E904408C610846CC61FEF790
:102DA00083FF05B0F0BD0000000C0240004400406D
:102DB0007C030020FEE70907090E002804DB00F170
:102DC000E02080F80014704700F00F0000F1E020D0
:102DD00080F8141D704702E008C8121F08C1002ABD
:102DE000FAD170477047002001E001C1121F002A8C
:102DF000FBD1704710B510EE100AFDF727FB9FEDD1
:102E0000081B53EC112BFDF799FA9FED071B53ECB0
:102E1000112BFDF721FABDE81040FDF7FEBA0000C6
:102E20006666666666663F40000000000000A940D6
:102E30002DED068BFDF7CAFDFFF76CFBFFF728F9B8
:102E4000FFF70EFBFFF728FBFFF742FBFFF7FEF94A
:102E5000FFF732FAFFF766FAFFF7E6FAFFF778F9BD
:102E6000FFF7C6FA3548FEF7FBF93548FEF7F8F9E3
:102E700000213448FEF716FC04213248FEF712FC0C
:102E800008213048FEF70EFC00F0CBFA4FF47A65CB
:102E90002846FDF775FC2C4CDFED2C8A9FED2C8A23
:102EA0009FED2C9ADFED2C9A9FED2CAA5FEA450648
:102EB00094ED000AF0EE680A6421BCEEC00A10EE40
:102EC000100AB0EE480AC0B200F04AF82846FDF7F2
:102ED00057FC94ED000AF0EE480A6421BCEEC00AEB
:102EE00010EE100AB0EE490AC0B200F039F82846D8
:102EF000FDF746FC94ED000AF0EE690A6421BCEE91
:102F0000C00A10EE100AB0EE480AC0B200F028F86D
:102F10002846FDF735FC94ED000AF0EE480A6421DE
:102F2000BCEEC00A10EE100AB0EE4A0AC0B200F0C1
:102F300017F83046FDF724FCBAE700003C010020FA
:102F400084010020F4000020B80000200080BB4471
:102F5000000000000000FAC40080BBC40000FA4476
:102F6000F0B5B5EEC00A2DED028B70EE608A30EE42
:102F7000208A00240125F1EE10FA83B00E460746A0
:102F800042DBF5EEC00AF1EE10FA3DDBB0EE480A86
:102F9000FFF730FF8DE831003B463246002101202B
:102FA000FDF74AFB0A20FDF7EBFBB0EE480AFFF7FE
:102FB00021FF8DE831003B46324601210420FDF718
:102FC0003BFB0A20FDF7DCFBF5EEC08AF1EE10FAC0
:102FD00011DBB0EE680AFFF70DFF8DE831003B46CC
:102FE000324600210220FDF727FB0A20FDF7C8FB2F
:102FF000B0EE680A19E1B1EE680AB0EE408AECE082
:103000008DE83100032044E0B5EEC00AF1EE10FA7D
:103010004FDBF5EEC00AF1EE10FA4AD2B0EE680AC4
:10302000FFF7E8FE8DE831003B46324600210220E2
:10303000FDF702FB0A20FDF7A3FBB0EE680AFFF7DD
:10304000D9FE8DE831003B46324601210320FDF7D1
:10305000F3FA0A20FDF794FBB5EEC08AF1EE10FA00
:1030600011DBB0EE480AFFF7C5FE8DE831003B46A4
:10307000324600210120FDF7DFFA0A20FDF780FB30
:10308000B0EE480A57E0B1EE480A5CE08DE8310046
:103090000420FDF7D1FA0A20FDF772FB0020FDF7AE
:1030A000FBFA03B00A20BDEC028BBDE8F040FDF74F
:1030B00067BB30EEC08AB5EEC00AF1EE10FA59D205
:1030C000F5EEC00AF1EE10FA54DB70EE808AB0EE35
:1030D000480AFFF78FFE8DE831003B46324601215A
:1030E0000220FDF7A9FA0A20FDF74AFBB0EE480AD4
:1030F000FFF780FE8DE831003B4632460021032079
:10310000FDF79AFA0A20FDF73BFBF5EEC08AF1EED7
:1031100010FA16DBB0EE680AFFF76CFE8DE831009E
:103120003B46324600210120FDF786FA0A20FDF7D2
:1031300027FBB0EE680AFFF75DFE3B4632460121F1
:10314000A4E7B1EE680AB0EE408AFFF753FE8DE8BF
:10315000310001213B4632460846FDF76DFA0A2050
:10316000FDF70EFBB0EE480AFFF744FE3B46324641
:1031700000218BE7B5EEC00AF1EE10FA8ED2F5EE23
:10318000C00AF1EE10FA89D2B1EE400A70EE608A00
:10319000B0EE680AFFF72EFE8DE8310001213B46B4
:1031A00032460846FDF748FA0A20FDF7E9FAB0EE84
:1031B000680AFFF71FFE8DE831003B4632460021CA
:1031C0000420FDF739FA0A20FDF7DAFAB5EEC08AD5
:1031D000F1EE10FA16DBB0EE480AFFF70BFE8DE8B1
:1031E00031003B46324601210220FDF725FA0A2034
:1031F000FDF7C6FAB0EE480AFFF7FCFD3B46324643
:103200000021FDE6B1EE480AB0EE408AFFF7F2FD7C
:103210008DE831003B46324600210220FDF70CFAD2
:103220000A20FDF7ADFAB0EE480AFFF7E3FD3B4692
:1032300032460121E4E60000FEB570EE601A30EE81
:10324000201AB5EEC00A00240125F1EE10FA0E4650
:10325000074636DBF5EEC00AF1EE10FA31DB30EE50
:10326000600A062AB1EE400A2AD2DFE802F02903FA
:10327000060918D5B0EE410A73E0B0EE410A80E0CD
:10328000F5EEC01AF1EE10FA03DB00BFB0EE610AF2
:10329000A8E0FFF7AFFD3B4632460121A7E0F5EE7F
:1032A000C01AF1EE10FA02DBB0EE610AABE0FFF7F4
:1032B000A1FD3B4632460021AAE000BFFDF7BCF964
:1032C000FEBDB5EEC00AF1EE10FA29DBF5EEC00A3C
:1032D000F1EE10FA24D230EE200A062AB1EE400AAE
:1032E000EED2DFE802F0050403061199DCE7CDE732
:1032F000E6E7B5EEC01AF1EE10FABBDAFFF77AFD99
:103300003B463246012131E0B5EEC01AF1EE10FA2B
:10331000B3DA00BFFFF76EFD3B463246002135E0D1
:1033200030EEC01AB5EEC00AF1EE10FA32D2F5EE68
:10333000C00AF1EE10FA2DDB70EE801A30EE800A32
:10334000062AB1EE400ABBD2DFE802F003495A0474
:103350001466B5E7F5EEC01AF1EE10FACEDBB0EE6A
:10336000610AFFF747FD3B46324600218DE83100F8
:103370000120A3E7F5EEC01AF1EE10FACADBB0EEB9
:10338000610AFFF737FD3B46324601218DE83100E7
:10339000042093E7B5EEC00AF1EE10FA90D2F5EEF4
:1033A000C00AF1EE10FA8BD2F1EE401A30EEC00AEC
:1033B00071EEE01A062AB1EE400A81D2DFE802F08F
:1033C0000304070A1B2C7BE7B0EE610A96E7B0EE18
:1033D000610A9FE7B5EEC01AF1EE10FA02DBB0EE1B
:1033E000410A56E7FFF706FD3B46324600218DE8CD
:1033F0003100022062E7B5EEC01AF1EE10FA02DBEE
:10340000B0EE410A53E7FFF7F5FC3B463246012197
:103410008DE83100032051E7BDE8FE400020FDF7B4
:103420003BB94FF4E130FFF795BC000008B500212F
:10343000ADF800100A49C0F3080048604FF4FA5292
:1034400009E000BFBDF80000401CADF80000BDF869
:103450000000904202D808680006F3D508BD0000BD
:103460000010014038B5054600200C468DF80000DC
:103470008DF800009DF80000A04208D29DF80000E1
:10348000285CFFF7D3FF9DF80000401CF0E738BD33
:103490000000000000000000010203040607080904
:1034A0000000000001020304C834000800000020EE
:1034B000F4000000D62D0008BC350008F400002000
:1034C0001C080000E62D00080000000001000000BC
:1034D00010000000000000000024F4000000204163
:1034E00000002041000020410000204100000000B9
:1034F00000000000000000000000000000000000CC
:1035000000000000000000000000000000000000BB
:1035100000000000000000000000000000000000AB
:10352000000000000000000000000000000000405B
:10353000CDCCCC3D000000000000803FCDCCCC3D88
:10354000CDCCCC3D0000803FCDCCCC3DCDCCCC3DD6
:10355000000000000000000000000000000000006B
:1035600000000000000000000000803F0000803FDD
:10357000000000000000000000000000000000004B
:103580000000C8420000F041000000000000000000
:10359000000000000000000000000000000000002B
:1035A000000000000000000000000000000000001B
:0C35B00000000000000000000A00000005
:040000050800018965
:00000001FF
