:020000040800F2
:10000000300B0020A1010008AF2400081D210008CA
:10001000AD240008BD0700088D380008000000006E
:10002000000000000000000000000000B1250008F2
:10003000BF07000800000000B1240008B325000835
:10004000BB010008BB010008BB010008BB010008A0
:10005000BB010008BB010008BB010008BB01000890
:10006000BB010008BB010008BB010008BB01000880
:10007000BB010008BB010008BB010008BB01000870
:10008000BB010008BB010008BB010008BB01000860
:10009000BB010008BB010008BB010008BB01000850
:1000A000BB010008BB010008BB010008BB01000840
:1000B0005D2600086926000875260008BB010008B7
:1000C000BB010008BB010008BB010008BB01000820
:1000D000BB010008D5370008E1370008ED370008FC
:1000E000BB010008BB010008BB010008BB01000800
:1000F000BB010008BB010008BB010008BB010008F0
:10010000BB010008BB010008BB010008BB010008DF
:100110006529000871290008BB010008BB0100081F
:10012000BB010008BB010008BB010008BB010008BF
:10013000BB010008BB010008BB010008BB010008AF
:10014000BB010008BB010008BB010008BB0100089F
:10015000BB010008BB010008BB010008BB0100088F
:10016000BB010008BB010008BB010008BB0100087F
:10017000BB010008BB010008BB0100080000000033
:10018000BB010008BB010008DFF810D000F0ACFA9A
:1001900000480047093B0008AFF30080300B002007
:1001A0000648804706480047FEE7FEE7FEE7FEE711
:1001B000FEE7FEE7FEE7FEE7FEE7FEE74D26000866
:1001C000890100082DE9F05F0546002092469B4614
:1001D00088460646814640241BE02846414647465D
:1001E000224600F0CAF953465A46C01A914110D32C
:1001F00011461846224600F0B1F92D1A67EB0108A6
:100200004F4622460120002100F0A8F917EB000913
:100210004E41201EA4F10104DFDC484631462A4647
:100220004346BDE8F09FD2B201E000F8012B491E21
:10023000FBD270470022F6E710B513460A46044683
:100240001946FFF7F0FF204610BD2DE9FE4F80460E
:1002500081EA0300C00F0C46009021F0004123F01A
:100260000045B8EB0200A94105D240462146904620
:100270001C460B46024623F00040104347D0270D92
:10028000C7F30A00C3F30A510290401A01904028B4
:100290006BDAC3F3130040F4801B0098924620B140
:1002A0000023D2EB030A63EB0B0B01985946C0F114
:1002B0004002504600F052F906460D465046594657
:1002C000019A00F06AF910EB08006141002487EA06
:1002D000115284EAE7731A4340D0009A62B3019A3C
:1002E000012A4FEA075215DC001B61EB02014FF0B7
:1002F000004202EA0752CDE90042001C41F580119C
:1003000032462B4600F0A1F903B0BDE8F08F40461D
:100310002146F9E7001B61EB0201001C41F5801347
:1003200000185B412018A2F5001747EB030140EAD3
:10033000D570B6196D4111E06D084FEA360645EAF1
:10034000C0754FEA0752001B61EB0201001C41F52A
:10035000801149084FEA30000019514132462B46BE
:1003600003B0BDE8F04F00F061B9009801224000F1
:100370000023D0EB020263EBE073009821464FEAC2
:10038000E074B8EB000061EB0401E9E783F000439F
:100390005BE781F0004158E72DE9FE4F81EA030455
:1003A00004F0004421F0004100944FF0000B23F0D2
:1003B000004350EA01045ED052EA03045BD0C3F369
:1003C0000A54C1F30A552C44A4F2F3340194A0FB5F
:1003D0000254C1F3130141F48011C3F3130343F436
:1003E000801301FB024400FB034E840A970A44EA8F
:1003F000815447EA8357A4FB076802958D0A05FBE1
:1004000007854FEA932C04FB0C542705029D4FEA05
:10041000065847EA1637B5EB08056EEB070C870E52
:10042000920E47EA811742EA8312A7FB0201B6EB5C
:100430000B0164EB00042B0D43EA0C335E1844EB14
:100440001C50DA465146E7FB0201C5F313044FEA9C
:100450000B3343EA14534FEA0432019C43EA060388
:10046000A4F10C040294009CCDE900B400F0EDF876
:1004700003B0BDE8F08F00200146F9E70EB5C10FCB
:1004800080EAE0700844CA07002140F233438DE857
:100490000E000A460B4600F0D8F803B000BD00F08D
:1004A000004230F000400AD0C10D01F56071C0F388
:1004B000160042EA0151C20840071143704700206C
:1004C0000146704730B5041E71F1000404DB4FF0A3
:1004D0000044404264EB0101141E73F1000405DB8B
:1004E0001C464FF00043524263EB04038B4208BFAB
:1004F000824230BD30B5041E71F1000404DB4FF0C0
:100500000044404264EB0101141E73F1000405DB5A
:100510001C464FF00043524263EB0403994208BF6C
:10052000904230BD01F0004330B421F0004150EA68
:10053000010206D00A0DA2F56072C1F31301002A70
:1005400002DC30BC00207047440F44EAC104C10003
:10055000E01830BC00EBC25000F031B8202A04DBB8
:10056000203A00FA02F1002070479140C2F12003C6
:1005700020FA03F3194390407047202A04DB203A05
:1005800021FA02F00021704721FA02F3D040C2F1B3
:1005900020029140084319467047202A06DBCB17FA
:1005A000203A41FA02F043EAE07306E041FA02F32E
:1005B000D040C2F1200291400843194670470029FB
:1005C000A8BF7047401C490008BF20F001007047D9
:1005D00010B4B0FA80FC00FA0CF050EA010404BF39
:1005E00010BC704749B1CCF1200421FA04F411FA8F
:1005F0000CF118BF012121430843A3EB0C01CB1DD3
:100600004FEA00614FEA102042BF002010BC704743
:1006100000EBC35010440029A4BF10BC7047401C1D
:10062000490008BF20F0010010BC704710B5141E2F
:1006300073F1000408DA401C41F1000192185B419B
:100640001A4301D120F0010010BD2DE9F04D924672
:100650009B4611B1B1FA81F202E0B0FA80F2203289
:100660009046FFF77BFF04460F4640EA0A0041EA46
:100670000B0153465A46084313D0114653EA010072
:1006800019D0C8F140025046FFF777FF05460E46E5
:10069000504659464246FFF761FF084305D0012006
:1006A00004E020463946BDE8F08D0020054346EAC7
:1006B000E0762C4337430A986305E40AA0EB080070
:1006C0000022FD0A44EA47540A3002D500200146C0
:1006D000E9E7010510196941DDE90845001969419B
:1006E000BDE8F04DA2E70000064C074D06E0E068CB
:1006F00040F0010394E8070098471034AC42F6D369
:10070000FFF746FD704300089043000870B58C1851
:1007100010F8015B15F0070301D110F8013B2A1115
:1007200006D110F8012B03E010F8016B01F8016B02
:100730005B1EF9D12B0705D40023521E0DD401F8FE
:10074000013BFAE710F8013BCB1A921C03E013F8C7
:10075000015B01F8015B521EF9D5A142D8D30020FC
:1007600070BD000038B50546134C0020FE2DA0706A
:1007700020D02078F0B103F051F9002818D00421DE
:10078000684603F057FC042811D19DF80000A842E8
:100790000DD19DF80110022909D19DF80210801C8D
:1007A0000844C0439DF80320C0B2824201D000201B
:1007B00038BDA170012038BDE8000020FEE7704779
:1007C0001FB5002200928DF80000FE208DF8010078
:1007D00098208DF8020001926B208DF803108DF89F
:1007E0000400029203920521684603F01DFD1FBD1F
:1007F0001FB5002100918DF80000FF208DF8010049
:1008000066208DF802006B200191029103918DF812
:1008100003000421684603F007FD1FBD7FB50025D6
:1008200000958DF80000F6208DF8010001958DF8F7
:100830000210089C100A8DF804208DF803008DF832
:1008400005308DF806406B208DF807000295039562
:100850000821684603F0E8FC7FBD72B6FEE72DE98B
:10086000F0410446876D00F06DF9064694F83500B6
:100870000025022806D08020606584F834500120CD
:10088000BDE8F0812068016821F016010160206850
:10089000416921F080014161206C08B9A06C20B150
:1008A0002068016821F0080101602068016821F0DA
:1008B000010101600CE000F045F9801B052807D913
:1008C00020206065032084F8350084F83450D7E791
:1008D00020680068C007EED194F85C103F20884083
:1008E000B860012084F8350084F834500020C7E750
:1008F00090F83510022903D080214165012070470E
:10090000052180F835100068016821F001010160BF
:100910000020704770B5044600F014F90546601CCD
:1009200002D004480078044400F00CF9401BA042B7
:10093000FAD370BDD80000202DE9F84FDFF8BCA134
:100940000022012503264FF00F090AF1040BAAF13A
:10095000040E00BF0B6805FA02F42340A34270D1D5
:100960000F7907F00307012F01D0022F16D18768F6
:100970004FEA420806FA08FC27EA0C07D1F80CC037
:100980000CFA08FC4CEA070CC0F808C04768A743FB
:100990000C79C4F3001494403C4344600C79E44364
:1009A000A4070AD0C4684FEA420C06FA0CF7BC430D
:1009B0008F6807FA0CF72743C7600C7904F003042B
:1009C000022C12D1D40800EB840CDCF8204057072D
:1009D000FF0E09FA07F824EA0804D1F8108008FA93
:1009E00007F848EA0408CCF8208004684FEA420C73
:1009F00006FA0CF7BC430F7907F0030707FA0CF768
:100A0000274307604C6814F4403F70D03C4C276883
:100A100047F480472760246822F0030704F48044E9
:100A20000094384C07EB040CDCF8084897074FEAB1
:100A3000177809FA08F7BC43334FB84202D10027B0
:100A400024E054E0314FB84201D101271EE0304F7D
:100A5000B84201D1022719E02E4FB84201D1032735
:100A600014E02D4FB84201D104270FE02B4FB842BC
:100A700001D105270AE02A4FB84201D1062705E037
:100A8000284FB84201D1072700E0082707FA08F7E6
:100A90002743CCF80878DAF800405746D1F804C06C
:100AA0009C435FEACC2C00D51C433C60DBF8004043
:100AB0005F46D1F804C09C435FEA8C2C00D51C43F0
:100AC0003C60DEF800407746D1F804C09C435FEA02
:100AD0008C3C00D51C433C60084F083F3C68D1F873
:100AE00004C09C435FEACC3C00D51C433C60521CD4
:100AF000102AFFF42FAFBDE8F88F0000083C01403A
:100B0000443802400030014000000240000402402E
:100B100000080240000C0240001002400014024095
:100B200000180240001C0240426921EA02030A4008
:100B300043EA0241816170470AB18161704709044B
:100B4000FBE700000148806870470000D8000020E3
:100B5000024881680278114481607047D800002003
:100B60000B4810B5016841F400710160016841F45F
:100B700080610160016841F480710160032000F030
:100B80006FF80F2000F006F800F024F8002010BDE8
:100B9000003C024070B50D4D04464FF47A71287840
:100BA000B1FBF0F00A490968B1FBF0F000F00AFB74
:100BB00048B9102C07D200222146501E00F030F810
:100BC00000206C6070BD012070BD0000D8000020C6
:100BD000E40000200A4808B5016841F48041016042
:100BE000006800F4804000900548001F016841F053
:100BF00080510160006800F08050009008BD000046
:100C000044380240002809DB00F01F020121914016
:100C10004009800000F1E020C0F80011704700009A
:100C2000F0B40E4B1B680C46C3F30223C3F1070557
:100C3000042D00D90425191D072901D2002300E045
:100C4000DB1E012606FA05F1491E214099409E400F
:100C5000761E16403143F0BC02F03BBE0CED00E0C6
:100C6000064900F0070208684FF6FF03184040EA03
:100C70000220034A10430860704700000CED00E0BA
:100C80000000FA052DE9F0470E46050065D0DFF8B3
:100C90001481D8F80000F7B200F00700B04207D284
:100CA00088F80070D8F8000000F00700B04254D176
:100CB00028683D4C810712D5400703D5206840F4D1
:100CC000E05020602878000703D5206840F4604099
:100CD00020602068A96820F0F00008432060287890
:100CE000C0072DD0304968680839012812D0022881
:100CF00013D0032811D00968890700292DDA21684B
:100D000021F0030101432160FFF71CFF814641F2FE
:100D1000883A0EE009688903EFE709688901ECE782
:100D2000FFF710FFA0EB0901514502D90320BDE8F0
:100D3000F0872068696800F00C00B0EB810FEFD1FC
:100D4000D8F80010404601F00701B14207D90770FA
:100D5000006800F00700B04201D00120E7E72878E2
:100D6000400705D52068E96820F4E050084320607A
:100D70002878000706D52068296920F4604040EAF9
:100D8000C100206000F038F82168084AC1F303115F
:100D9000515CC8400649086006480068FFF7FAFE43
:100DA0000020C4E7003C02400838024058430008D5
:100DB000E4000020DC0000200448054900680968C0
:100DC000044AC1F38221515CC8407047E40000200E
:100DD000083802406843000804480549006809686B
:100DE000044AC1F34231515CC8407047E40000201E
:100DF0000838024068430008154810B5006810F034
:100E00000C02144813D04110042A0FD0082A0ED126
:100E10000F4C241F2268236802F03F025B0207D5B3
:100E20002068C0F38810A0FB010106E0084610BD51
:100E30002168C1F38811A1FB00010023FFF7C2F96B
:100E40002168C1F30141491C4900B0FBF1F010BD1C
:100E5000083802400024F4002DE9F84F04006ED059
:100E60002078DFF84C93C007A9F104054AD009F1B6
:100E700004000168C1F38101012908D00068C0F3B2
:100E8000810002280AD1D9F80000400206D528685E
:100E9000800337D560680028E1D033E06068B0F5A2
:100EA000803F10D0B0F5A02F286810D020F48030FB
:100EB0002860286820F4802028606068A8B1FFF7C7
:100EC00041FE06460DE0286840F48030F4E740F427
:100ED00080202860F7E700BFFFF734FE801B6428FE
:100EE00073D828688003F7D50CE0FFF72BFE064681
:100EF00005E000BFFFF726FE801B6428F0D82868B5
:100F00008003F7D42078DFF8AC8280074FF0000A26
:100F10003ED5A748001D016811F00C0F08D00068ED
:100F2000C0F3810002280BD1D9F80000400207D499
:100F30002868800716D5E068012800D112E033E167
:100F4000E068B8B10120C8F80000FFF7FBFD0646D5
:100F500005E000BFFFF7F6FD801B0228C0D8286817
:100F60008007F7D52868216920F0F80040EAC10021
:100F700028600DE0C8F800A0FFF7E4FD064604E095
:100F8000FFF7E0FD801B02281FD828688007F7D4F0
:100F90002078000722D5864F87486169703771B184
:100FA00001210160FFF7CEFD064604E0FFF7CAFD10
:100FB000801B022809D838688007F7D50EE0C0F8F2
:100FC00000A0FFF7BFFD064605E082E0FFF7BAFD8F
:100FD000801B02287DD838688007F7D42078400726
:100FE00068D5DFF8CCB100270BF13C0BDBF8000033
:100FF000C0000BD4DBF8001041F08051CBF800109A
:10100000DBF80000012700F0805000906B4E306844
:10101000C00510D4306840F480703060FFF792FD56
:10102000009005E0FFF78EFD0099401A022850D885
:101030003068C005F6D55E4EA0686C3601280FD02A
:101040000528306810D020F001003060306820F0B2
:1010500004003060A068B8B1FFF774FD00900FE0A5
:10106000306840F00100F4E740F004003060F7E73A
:10107000FFF768FD0099411A41F28830814266D835
:1010800030688007F4D50EE0FFF75CFD009007E0C4
:10109000FFF758FD0099411A41F28830814256D835
:1010A00030688007F4D42FB1DBF8001021F08051B4
:1010B000CBF80010A069C8B33D49091D0968C1F308
:1010C000810102294AD00228504607D0C8F86000A2
:1010D00000E03CE0FFF736FD04463BE04746C8F839
:1010E0006000FFF72FFD064605E000BFFFF72AFD71
:1010F000801B02282BD828688001F7D4D4E9070187
:101100000843A16A2E4A490802EB0141626A41EA9A
:101110008211084394F82C1040EA0161C9F80010CC
:1011200001203866FFF70EFD044606E03EE000BFF2
:10113000FFF708FD001B022809D828688001F7D5B1
:1011400034E000BFFFF7FEFC001B022802D9032099
:10115000BDE8F88F28688001F4D427E00128F7D093
:10116000D9F80000E26900F4800191421CD1226AA2
:1011700000F03F01914217D147F6C071626A014009
:10118000B1EB821F10D1A26A4FF0FF3300F440315F
:1011900003EB5202B1EB024F06D194F82C1000F091
:1011A0007060B0EB016F01D00120D1E70020CFE7E4
:1011B0000438024000004742800E47420070004061
:1011C0000000FFFF10B5401EB0F1807F01D3012069
:1011D00010BD4FF0E02460610F21601702F079FB31
:1011E0000020A06107202061002010BD70477047DB
:1011F00070B590F83C20012A32D0012480F83C40A0
:10120000022280F83D2003685A689D6822F070062B
:101210000A6832435A60134B02689A4214D0B2F102
:10122000804F11D0104B9A420ED0104B9A420BD0E7
:101230000F4B9A4208D00F4B9A4205D00E4B9A4260
:1012400002D00E4B9A4204D1496825F0800319431D
:10125000916080F83D40002180F83C10084670BD48
:10126000022070BD00000140000400400008004062
:10127000000C004000040140004001400018004004
:1012800010B5040003D094F83D0010B107E0012030
:1012900010BD002084F83C00204600F01FF802201A
:1012A00084F83D00211D206801F0EAF9012084F84E
:1012B000460084F83E0084F83F0084F8400084F83B
:1012C000410084F8420084F8430084F8440084F824
:1012D000450084F83D00002010BD000008B50168FD
:1012E0001D48B1F1804F11D01C4A91421DD10168B7
:1012F00041F0020101600068002200F0020000904D
:1013000011461D20FFF78CFC1D201FE0016841F0F5
:10131000010101600068002200F001000090114608
:101320001C20FFF77DFC1C2010E00D4A914211D1DA
:10133000016841F0040101600068002200F004002F
:10134000009011461E20FFF76BFC1E20BDE80840F0
:10135000FFF758BC08BD00004038024000040040C0
:101360000008004090F83D10012901D0012070478D
:10137000022180F83D100168CA6842F00102CA608B
:1013800000681149884214D0B0F1804F11D00F4944
:1013900088420ED00E4988420BD00E49884208D0B0
:1013A0000D49884205D00D49884202D00C49884237
:1013B00004D1816801F00701062903D0016841F0DA
:1013C000010101600020704700000140000400405E
:1013D00000080040000C00400004014000400140B3
:1013E0000018004070B5044690F83C000025012824
:1013F00017D0012684F83C60022084F83D00206864
:10140000826822F0770222F47F42826008685028C6
:1014100038D00DDC20284FD005DC90B3102811D136
:101420004AE0022070BD302846D040280AD13BE077
:1014300060282FD070280DD0B0F5805F03D0B0F5B4
:10144000005F12D0012584F83D60002084F83C0044
:10145000284670BDCB68D1E90121206801F089F9E7
:101460002068816841F0770109E0CB68D1E901216A
:10147000206801F07EF92068816841F48041816034
:10148000E1E719E0CA684968206801F047FA50218D
:10149000206806E0CA684968206801F050FA6021B7
:1014A000206801F070F9CEE7CA684968206801F049
:1014B00035FA40212068F4E7226801461046F0E73B
:1014C00070472DE9F04104460068C66805694FF091
:1014D0000007A90713D5B10711D5F91E0161012035
:1014E0002077206880698007204602D0FFF7E8FF58
:1014F00004E000F0A9F8204600F03BF927776807E0
:1015000016D5700714D521686FF004000861022019
:1015100020772068806910F4407F204602D0FFF7D2
:10152000CFFF04E000F090F8204600F022F9277782
:10153000280715D5300713D521686FF0080008611A
:10154000042020772068C0698007204602D0FFF77A
:10155000B7FF04E000F078F8204600F00AF927779A
:10156000E80616D5F00614D521686FF01000086162
:10157000082020772068C06910F4407F204602D000
:10158000FFF79EFF04E000F05FF8204600F0F1F85E
:101590002777E80708D0F00706D021686FF0010030
:1015A0000861204600F04AF9280608D5300606D51D
:1015B00021686FF0800008612046FFF717FE68067B
:1015C00008D5700606D521686FF0400008612046F6
:1015D00000F032FAA8060AD5B00608D521686FF0E7
:1015E000200008612046BDE8F041FFF700BEBDE8DD
:1015F000F081000010B586B0044614216846FEF75D
:1016000019FE0E492068884215D10D480021026854
:1016100042F008020260006800F0080005904FF4F4
:10162000704000900220CDE90101CDE90310694628
:101630000448FFF781F906B010BD00000008004023
:1016400030380240000C0240704770B5044690F8F4
:101650003C0000260D4601280FD0012084F83C00F4
:101660006AB1042A1DD0082A2FD00C2A3FD00126A7
:10167000002084F83C00304670BD022070BD206818
:1016800001F08AF82068816941F0080181612068D1
:10169000816921F004018161206881692A6911430F
:1016A00011E0206801F0A8F82068816941F4006128
:1016B00081612068816921F480618161206881698C
:1016C0002A6941EA02218161D2E7206801F0CAF863
:1016D0002068C16941F00801C1612068C16921F039
:1016E0000401C1612068C1692A69114311E02068C1
:1016F00001F0ECF82068C16941F40061C161206823
:10170000C16921F48061C1612068C1692A6941EA27
:101710000221C161ACE710B5040003D094F83D008C
:1017200010B107E0012010BD002084F83C002046E5
:1017300000F01EF8022084F83D00211D206800F012
:101740009FFF012084F8460084F83E0084F83F00A3
:1017500084F8400084F8410084F8420084F8430093
:1017600084F8440084F8450084F83D00002010BD52
:101770007047704710B50446022249B104290ED0C3
:10178000082913D094F84100012816D0012010BD7B
:1017900094F83E000128F9D184F83E200FE094F837
:1017A0003F000128F2D184F83F2008E094F840007F
:1017B0000128EBD184F8402001E084F84120012287
:1017C000206800F0C9FF16492068164A884201D0F7
:1017D000904203D1436C43F4004343642068884241
:1017E00013D0B0F1804F10D00F4988420DD00F496F
:1017F00088420AD00E49884207D0904205D00D4950
:10180000884202D00C49884204D1816801F0070166
:10181000062903D0016841F001010160002010BDDC
:1018200000000140000401400004004000080040A6
:10183000000C004000400140001800402DE9F04736
:1018400006460068DFF8C4910025714CB0F1804F66
:1018500012D16068401C6060A068401CA0606D48A8
:101860000168012902D1056001F0F2F901F0F2F9F5
:101870006168494500DD65606749306888427CD110
:101880002068DFF89CA1401C2060644800680128A3
:1018900053D1E0684FF0010801283DD1A06901282B
:1018A0002BD1206A062801DA401C20625D4E0128F7
:1018B00005D1012196ED000A002002F0D5FB206A37
:1018C000022805D1022196ED000A002002F0CCFB8F
:1018D000206A032805D1032196ED000A002002F0BA
:1018E000C3FB206A042805D1042196ED000A0020DC
:1018F00002F0BAFB206A052803D0E069012808D06D
:101900000AE0052196ED000A002002F0ADFBC4F8C4
:101910001C80A561E5612562206901286AD16069A2
:10192000012867D1A069012808D000222021504653
:10193000FFF702F9E069012857D05BE0012220217E
:101940005046FFF7F9F8A06A30B938489FED360ADB
:10195000C4F8288080ED000A206A062840DA401C7E
:10196000334E344F206201280AD194F82C00012113
:10197000D6ED000A97ED000A00E045E002F000FA1B
:10198000206A022808D194F82C000221D6ED000A22
:1019900097ED000A02F0F4F9206A032808D194F8C0
:1019A0002C000321D6ED000A97ED000A02F0E8F9B9
:1019B000206A042808D194F82C000421D6ED000AEE
:1019C00097ED000A02F0DCF9206A052808D194F8A6
:1019D0002C000521D6ED000A97ED000A02F0D0F99F
:1019E000206A0628A6D1C4F81C806562A561A5629C
:1019F000E56125622168494506DD50462560BDE860
:101A0000F0472021FFF790B8BDE8F087A0860100DD
:101A1000880200200C000020000400403C00002050
:101A200000080240F00100200000C8420802002027
:101A3000EC010020E8010020704718B5034690F83B
:101A40004200202801D0022018BD61B15AB1012006
:101A5000186300205863184601F0A6F80028F3D157
:101A6000196B012901D0012018BD19680A6849685D
:101A7000009119680C3151E8002F42F0100241E842
:101A80000024002CF5D118BD10B5104A0168914210
:101A900007D128220E49FFF7D0FF0E490120C86068
:101AA00010BD0D4A9142FBD128220C49FFF7C5FF1A
:101AB0000A4A0B490020135C0B54401C0728FADB30
:101AC000BDE8104032210548FEF7B4BB0048004095
:101AD0004606002000000020004C0040F8060020D0
:101AE000C802002070470000F8B501680446086885
:101AF000CA684B6910F00F0F4FF0000559D003F082
:101B0000010602F49077374365D0C10705D0D105AF
:101B100003D5616C41F001016164410705D5D90726
:101B200003D0616C41F002016164810705D5D907DA
:101B300003D0616C41F004016164010707D502F034
:101B40002001314303D0616C41F008016164616C94
:101B500000293AD0800604D5900602D5204600F030
:101B60003CFF20684069616CC0F38010090700D415
:101B700060B3204600F00AFF20684069400621D586
:101B80002068143050E8001F21F0400140E80012A6
:101B9000002AF5D1E06BA8B16E490165E06BFEF754
:101BA000A7FE002811D0E06B016D01B0BDE8F04048
:101BB000084783060FD593060DD52046BDE8F840AB
:101BC00000F00BBF2046FFF78DFFF8BD2046FFF762
:101BD00089FF6564F8BD266B2023012E7DD1C606E2
:101BE0007BD5D60679D508684868009048694FF0DB
:101BF0000206400641D5E16B086840680004000C0D
:101C0000E8D0A28D8242E5D9E085C869B0F5807F31
:101C10002DD020680C3050E8001F21F4807140E87E
:101C20000012002AF5D12068143050E8001F21F07E
:101C3000010140E80012002AF5D12068143050E874
:101C4000001F21F0400140E80012002AF5D184F87D
:101C50004230256320680C3050E8001F21F010014D
:101C600040E80012002AF5D1E06BFEF7F8FD66634C
:101C7000A08DE18D401A81B22AE0A08DE18D401A3D
:101C800081B2E08D0028A5D00029A3D022680C32B3
:101C900052E8000F20F4907042E80007002FF5D1C1
:101CA0002068143050E8002F22F0010240E800279D
:101CB000002FF5D184F84230256320680C3050E8BD
:101CC000002F22F0100240E80023002BF5D16663BC
:101CD0002046FFF7D9FEF8BDFFE705062BD5150610
:101CE00029D594F841002128F5D1A068B0F5805F8E
:101CF00001D12069B0B1206A411C216221680078BD
:101D00004860E08C401E0004000CE084E3D12068B1
:101D1000C16821F08001C1602068C16841F04001C4
:101D2000C160D8E7206A0088C0F308004860206AD4
:101D3000801C2062E5E74006CDD55006CBD5CA68A9
:101D4000204622F04002CA6084F8413000F0E5F9F4
:101D5000C1E700007D29000870B5040004D094F8A4
:101D60004100002510B106E0012070BD84F840500C
:101D7000204600F023F8242084F841002068C16840
:101D800021F40051C160204600F088FE20680169FE
:101D900021F4904101612068416921F02A014161EB
:101DA0002068C16841F40051C1606564202084F856
:101DB000410084F842006563002070BD2DE9F041C8
:101DC00086B0044614216846FEF734FA6E49DFF8FF
:101DD000B4C1236800246C4A103903250226082761
:101DE0006A4863451ED1136843F4002313601268E8
:101DF00002F4002205920A6842F001020A600968B2
:101E0000CDE9005601F00101CDE904716946CDE943
:101E10000245FEF791FD002211463420FEF700FF37
:101E2000342038E0DFF868C1DFF86881634537D1D6
:101E3000106840F480101060106800F48010059065
:101E4000086840F004000860086800F0040005908D
:101E5000086840F008000860086802AB00F008005D
:101E600005904FF48050CDE9000683E8B000694644
:101E70004948FEF761FD0420CDE9000602AB694642
:101E800083E8B0004046FEF757FD0022114635209A
:101E9000FEF7C6FE3520FEF7B5FE06B0BDE8F081C0
:101EA000DFF8F8C00727634522D1374A121D1368AF
:101EB00043F010031360126802F0100205920A68E2
:101EC00042F001020A60096802AA01F001010591CD
:101ED0004FF4C061CDE9001682E8B0006946FEF714
:101EE0002BFD002211462520FEF79AFE2520D2E781
:101EF0002B48834220D1106840F4003010601068F5
:101F000000F400300590086840F008000860086898
:101F100002AB00F0080005906020CDE9000683E8E0
:101F2000B00069464046FEF707FD00221146262014
:101F3000FEF776FE2620AEE71A488342ADD1106840
:101F400040F480201060106800F48020059008683C
:101F500040F002000860086802AB00F00200059043
:101F60004FF44060CDE9000683E8B00069460E48B2
:101F7000FEF7E2FC002211462720FEF751FE272043
:101F800089E70000004C0040403802400000024059
:101F900000500040000C02400008024000100140C8
:101FA0000044004000480040000402402DE9F84F82
:101FB000044690F842009A4616460D46202802D064
:101FC0000220BDE8F88FB5B1AEB1002060642221D7
:101FD00084F842102063FEF7B5FDA6858146E685AC
:101FE000A0684FF480582027404501D1206920B1D6
:101FF0002E46002529E00120E3E7002625E04B4698
:10200000002220212046CDF800A000F0E8FD18B104
:1020100084F842700320D4E726B1A06840451AD066
:1020200038B108E020684068C0F3080025F8020BCA
:1020300008E0206978B12068406800F07F0000BFA8
:1020400006F8010BE08D401EE085E08D0028D6D11A
:1020500084F84270B5E720684068F1E790F84230B4
:10206000202B01D00220704721B11AB10023036355
:1020700000F09ABD0120704770472DE9F8430446EF
:1020800090F84100984616460D46202802D00220BE
:10209000BDE8F88385B17EB100206064212084F81A
:1020A0004100FEF74FFDA6848146E684A068202704
:1020B000B0F5805F02D003E00120E9E7206910B1AC
:1020C0002E4600250EE000260CE08021204600F080
:1020D00086FDA8B9C6B116F8010B21684860E08CEE
:1020E000401EE084E08C4B464FF00002CDF80080AB
:1020F0000028EAD14FF04001204600F070FD40B1C9
:1021000084F841700320C3E735F8020BC0F30800E0
:10211000E3E784F841700020BAE77047FEE700006B
:10212000064B10B55C78C2F30723D2B214B103702A
:102130000A7010BD0B70027010BD0000E800002096
:10214000F0B587B014216846FEF774F825480025DD
:10215000016841F080010160016801F08001059192
:10216000016841F001010160016801F00101059180
:10217000016841F004010160016801F0040105916A
:10218000016841F002010160016801F0020105915E
:10219000016841F0080101600068134E00F008007A
:1021A0000590002220213046FEF7C6FC0F4F00228A
:1021B00004213846FEF7C0FC01242020CDE90004AC
:1021C00069463046CDE90245FEF7B6FB0420CDE96D
:1021D000000469463846CDE90245FEF7ADFB07B07D
:1021E000F0BD000030380240000802400004024008
:1021F00010B586B00024184800940194029403940A
:1022000004944FF080410594016040F28F61C0E971
:1022100001144FF47A71C0E9031480218161FFF742
:102220002FF808B1FEF719FB4FF480500090694673
:102230000948FFF7D7F808B1FEF70FFB2020CDE9DA
:10224000040404A90448FEF7D3FF002801D0FEF7D8
:1022500004FB06B010BD0000FC02002010B586B0E3
:10226000002418480094019402940394049414499F
:102270000594016040F28F61C0E901144FF47A7156
:10228000C0E9031480218161FEF7FAFF08B1FEF76F
:10229000E4FA4FF48050009069460A48FFF7A2F82C
:1022A00008B1FEF7DAFA2020CDE9040404A90548B4
:1022B000FEF79EFF002801D0FEF7CFFA06B010BD52
:1022C000000400404403002010B58EB000240794A1
:1022D000089409940A940B941C2168460C94FDF709
:1022E000A9FF2B482949016040F28F61C0E9011420
:1022F00040F2E731C0E903148461FEF7C1FF08B181
:10230000FEF7ABFA4FF48050079007A92048FFF77B
:1023100069F808B1FEF7A1FA1D48FFF7FCF908B10A
:10232000FEF79BFA0B940BA919480C94FEF760FF7B
:1023300008B1FEF792FA6020CDE900040294002271
:10234000694613480494FFF780F908B1FEF785FA4F
:10235000042269460E48FFF778F908B1FEF77DFAC6
:10236000082269460A48FFF770F908B1FEF775FAC6
:102370000C2269460648FFF768F908B1FEF76DFAC6
:102380000348FFF737F90EB010BD00000008004009
:102390008C0300200C4810B50A4901604FF4E1316C
:1023A0004160002181600C22C160C0E9041281619A
:1023B000C161FFF7D1FC002803D0BDE81040FEF753
:1023C0004CBA10BD004C0040D40300200C4810B59E
:1023D0000A4901604FF416514160002181600C22CE
:1023E000C160C0E904128161C161FFF7B5FC00283A
:1023F00003D0BDE81040FEF730BA10BD00500040D9
:102400001C0400200C4810B50A4901604FF4E1316A
:102410004160002181600C22C160C0E90412816129
:10242000C161FFF799FC002803D0BDE81040FEF71A
:1024300014BA10BD00100140640400200C4810B50F
:102440000A4901604FF4E1314160002181600C22B2
:10245000C160C0E904128161C161FFF77DFC002801
:1024600003D0BDE81040FEF7F8B910BD00440040AD
:10247000AC0400200C4810B50A4901604FF4E1316A
:102480004160002181600C22C160C0E904128161B9
:10249000C161FFF761FC002803D0BDE81040FEF7E2
:1024A000DCB910BD00480040F4040020FEE7FEE760
:1024B000704700007FB582B015460C46064601F015
:1024C000B7FD02200090012305AA2146304601F005
:1024D000E5FE01F0BFFE01F0A1FA002832D01C4E4B
:1024E00000200321B07001A801F0A4FD032828D129
:1024F0009DF81410284601F09DFD9DF81410044627
:1025000088421ED101210DF1070001F093FD012841
:1025100017D19DF804009DF805109DF80620084489
:102520001044C1B2002004E02B5C401C1944C9B225
:10253000C0B2A042F8DBC8439DF80710C0B2814288
:1025400002D0002006B070BDB2702046FAE700004D
:10255000E800002010B50E4C411C08D0002121607D
:10256000C0B2382101F06EFD411C0ED004E00948D4
:102570004178007840EA01202168002904D1010453
:1025800002D520F40040404210BD0121216010BD61
:1025900004010020BC05002002460448407810B128
:1025A00041EA0220704742EA01207047E80000201B
:1025B0007047FEF7CDBA000030B593B030216846C1
:1025C000FDF738FE14210CA8FDF734FE1D48002548
:1025D000016841F080510160006800F08050119066
:1025E0001948016841F4804101600068022400F448
:1025F0008040119001200090000401908001CDE9FD
:10260000064008AA0420A82182E813000B9068461F
:10261000FEF722FC08B172B6FEE70CA90F2081E894
:1026200031004FF4A0500F904FF4805010900521CE
:102630000CA8FEF727FB002801D072B6FEE713B006
:1026400030BD000040380240007000400248016880
:1026500041F470010160704788ED00E00148FEF729
:1026600030BF0000FC0200200148FEF72ABF000036
:10267000440300200148FEF724BF00008C03002023
:10268000F0B50268294C2A4D2A4E2B4F2B4B4FF0A8
:10269000804CA04209D0604507D0A84205D0B04286
:1026A00003D0B84201D0984204D122F0700E4A689B
:1026B00042EA0E02A0421BD0604519D0A84217D0B2
:1026C000B04215D0B84213D0984211D01C4DA84248
:1026D0000ED01C4DA8420BD01B4DA84208D01B4D5C
:1026E000A84205D01A4DA84202D01A4DA84203D1E3
:1026F00022F44075CA682A434D6922F080022A43B9
:1027000002608A68C2620A688262A04201D098426E
:1027100001D109690163012141610169C90703D040
:10272000016921F001010161F0BD000000000140DC
:102730000004004000080040000C0040000401407C
:1027400000400140004401400048014000180040A2
:10275000001C00400020004010B501F01F030121C3
:10276000046A99408C430462016A9A4011430162F1
:1027700010BD10B5846842EA032224F47F440A4362
:102780002243826010BD826822F070020A4342F048
:102790000701816070470000F0B5036A026A22F009
:1027A0000102026242688469124E24F073050C68CB
:1027B0002C4323F002058B682B430D4DA84201D01A
:1027C000B04205D123F00807CB683B4323F0040354
:1027D000A84201D0B04205D14D6922F440721543A0
:1027E0008A692A4342608461496841630362F0BD9B
:1027F0000000014000040140F0B5026A036A23F0C2
:1028000010030362436884690D6824F4E64444EAD3
:1028100005248D6822F0200242EA05120F4D104E69
:10282000A84201D0B04206D1CF6822F0800242EA2D
:10283000071222F04002A84201D0B04207D14D69F0
:1028400023F4406343EA85038D6943EA85034360CB
:102850008461496881630262F0BD000000000140AC
:1028600000040140F0B5026A036A23F48073036236
:102870004368C46922F4007224F073050C68124E98
:102880002C438D6842EA05220E4DA84201D0B04289
:1028900006D1CF6822F4006242EA072222F4806265
:1028A000A84201D0B04207D14D6923F4405343EA16
:1028B00005138D6943EA05134360C4614968C16328
:1028C0000262F0BD000001400004014030B5046A1E
:1028D000026A22F4805202624268C3690D6823F4DE
:1028E000E64343EA05238D6824F4005444EA0534A2
:1028F000084DA84202D0084DA84204D14D6922F4E7
:10290000804242EA85124260C36149680164046200
:1029100030BD0000000001400004014010B5036A12
:10292000046A24F001040462846924F0F00444EA97
:10293000021423F00A020A438461026210BD10B53A
:10294000036A046A24F010040462846923F0A0037B
:1029500024F4704444EA023243EA011182610162C4
:1029600010BD00000148FFF7BFB80000D4030020ED
:102970000148FFF7B9B800001C04002010B5806BB7
:102980000021C185C184FFF7ADF810BD01680C318D
:1029900051E8002F22F4907241E80023002BF5D17A
:1029A0000168143151E8002F22F0010241E80023B0
:1029B000002BF5D1016B012909D101680C3151E8D7
:1029C000002F22F0100241E80023002BF5D1202136
:1029D00080F8421000210163704708B590F842105A
:1029E000222901D0022008BD82684FF480539A4208
:1029F00001D1016921B1816A9A421BD04AB10AE032
:102A00000268816A5268C2F308020A80816A891CDE
:102A100008E0026972B10268526802F07F020A702F
:102A2000816A491C8162C18D491E0904090CC18556
:102A300003D01BE002685268F1E70168CA6822F01F
:102A40002002CA600168CA6822F48072CA60016804
:102A50004A6922F001024A61202180F842100021D7
:102A60004163026B012A03D0FFF706FB002008BD7B
:102A7000016301680C3151E8002F22F0100241E897
:102A80000023002BF5D101680A68D20602D50A6836
:102A900049680091818DFEF7F7FFE7E770B50446BE
:102AA00000680169E26821F4405111430161216924
:102AB000A068E26908436169114308432168CA6854
:102AC00049F20C639A430243CA6020684169A269D3
:102AD00021F440711143416131492068884202D09C
:102AE0003049884202D1FEF777F901E0FEF764F938
:102AF000E2690023192164253226B2F5004F62688D
:102B000028D0A0FB0101930F9200FDF75BFB01466B
:102B1000B0FBF5F06FF01802504301EB800006EBBC
:102B20000010B0FBF5F000F0F002B1FBF5F002EBA5
:102B30000012B1FBF5F06FF01803584301EB800071
:102B400006EB0010B0FBF5F000F00F002168104418
:102B5000886070BDA0FB010192185B41FDF732FB5C
:102B60000146B0FBF5F00201B1FBF5F06FF0180380
:102B7000584301EB800006EBC000B0FBF5F000F01D
:102B8000F80002EB4002B1FBF5F0584301EB800086
:102B900006EBC000B0FBF5F000F00700D6E7000040
:102BA000001001400014014081628285C28500212D
:102BB0004164222180F84210016921B10168CA688C
:102BC00042F48072CA6001684A6942F001024A61B7
:102BD0000068C16841F02001C160002070472DE904
:102BE000F843984617460D460446089E24E0701C9C
:102BF00022D0FDF7A7FFA0EB0800B0421AD8CEB153
:102C00002068C168490717D5802D15D0402D13D0F5
:102C10000168C94309070FD4016800254068009086
:102C20002046FFF7B3FE0820606484F8405001207E
:102C3000BDE8F8830320FBE72068006835EA000060
:102C400004D00020B842D2D00020F1E70120F9E7FB
:102C500000F002B8704700002DE9F05FF948FA4C27
:102C60002DED108B00686178012801D1F7480160D3
:102C7000F74DF54800262A680078012A02D0022A7A
:102C800007D01AE03F2818D1442916D1F14A16601E
:102C900013E0252811D1F04F0122A35C012B03D0B2
:102CA000022B01D0032B03D107EB820C4CF8043C20
:102CB000521C042AF1DB03222A60E84A136801222D
:102CC000012B05D13F2803D1272901D1E44B1A60FC
:102CD000E44B1D68022D04D13F2802D1612900D1A7
:102CE0001A60E14B1D6825B93F2802D1622900D145
:102CF0001A60D54BDFF8748393F806A09D88D8F846
:102D00000070DB78012F02D0022F29D03BE0BAF10E
:102D1000210F38D1CC4FDFF858C30128B7F8017024
:102D200002D0022802D005E07FBA01E07FBA7F42DC
:102D3000CCF80070CF4F012B02D0022B03D008E05B
:102D400095FA95FC03E095FA95FCCCF1000CC7F8D8
:102D500000C0102917D13F2815D1C8F8006012E033
:102D6000072904D0082906D009290AD00BE03F28FA
:102D700009D1C14902E03F2805D1C0490A60667007
:102D800001E03F2807D09146BD4AC2F80090627822
:102D9000882A02D006E0BB49F0E73F2802D1BA4FAB
:102DA000C7F80090DFF8E4E2DEF800B0BBF1020FF4
:102DB00016DA2A2814D1DFF8D8C20121675C012F66
:102DC00003D0022F01D0032F03D10CEB810848F868
:102DD000047C491C0729F1DB0BF10101CEF800103E
:102DE000AC4F3968012929D1BAF1210F26D1AA495E
:102DF000012802D0022805D010E0B4F801C09CFAE6
:102E00009CFC05E0B4F801C09CFA9CFCCCF1000CE1
:102E1000C1F800C0D1F800C0C1F800C09F49012B23
:102E200002D0022B02D009E06BBA01E06BBA5B4220
:102E30000B600B68C3EBC3030B603E6098490968E5
:102E4000012906D1032A04D13F2802D1954BC3F8AA
:102E5000009095490968012913D19449072A04D0A3
:102E6000082A06D0092A0AD00BE03F2809D14A4691
:102E700002E03F2805D102220A60667001E03F2887
:102E800012D0DFF8D0B19FED8ADB9FED8B9B9FEDD9
:102E90008CAB9FED8DBB9FED8ECBDBF800108E4F82
:102EA0008E4D012902D01DE20322E5E7217A212976
:102EB000F9D18B49012801F1600291ED1B2AD1ED76
:102EC0001C1A92EC030A02D0022846D093E06078E4
:102ED000B8EEC11A02EE900AB8EEC22ADFF80082FC
:102EE000F8EE622A62EE812A01EE100AB8EE411A6B
:102EF00031EE001A31EE201A42EE012A01EE100ADC
:102F0000B8EE002AB8EE411A00EE021A31EE200A9D
:102F1000F8EEE10A40EE802ABDEEE20A10EE100A59
:102F2000C8F874000A2802DDB2EE040A0DE0FDF7CD
:102F3000A5FA53EC1D2BFDF7C5FA02D29FED690AE5
:102F400003E098ED1D0AB8EEC00A87ED000A60782C
:102F500000EE100AB8EE400A49E06078B8EEC22AE6
:102F600002EE900AB8EEC11ADFF87481F8EE622A18
:102F700070EE622A72EEA02A62EE822A02EE100A37
:102F8000B8EE422A41EE422A01EE100AB8EE412A7A
:102F9000B8EE001A10EE012A32EE200AF8EEE10A2D
:102FA00040EE802ABDEEE20A10EE100AC8F8740066
:102FB00010F10A0F02DABAEE040A0FE0FDF75EFA2A
:102FC0009FED491B53EC112BFDF794FA02D29FEDB4
:102FD000480A03E098ED1D0AB8EEC00A87ED000A22
:102FE000607800EE100AB8EE400AB1EE400A88EDB3
:102FF000180A88ED190AA078012802D0022808D002
:1030000012E0B4F8030040BA00EE100AB8EE400A2D
:1030100008E0B4F8030040BA00EE100AB8EE400A27
:10302000B1EE400A85ED000A6079012802D002283D
:1030300060D06AE0E08840BA00EE100AB8EE400ABC
:1030400060E057E0D000002046060020D4000020B9
:10305000CC000020B8020020BC020020BC000020F0
:10306000C0000020C4000020C8000020AC000020E8
:10307000A4000020A8000020B0000020B400002020
:10308000A0020020B8000020A00000209C0000202A
:103090006000002034000020D8010020DC01002066
:1030A000500000204C0000202C00002030000020A8
:1030B0009A9999999999D93F7B14AE47E17AB43F8F
:1030C000000000000000E03F7B14AE47E17A943F2F
:1030D000EC51B81E85EBD13FF0010020E801002043
:1030E0000C020020CDCCCC3E9A9999999999D9BFE0
:1030F000CDCCCCBEE08840BA00EE100AB8EE400A53
:10310000B1EE400AFE4880ED000A2868FDF7C7F9D5
:103110009FEDFCEB53EC1E2BFDF73EF9FDF702FA99
:10312000DFF8DCA308EE100ADAF80000FDF7B7F9C3
:1031300053EC1E2BFDF730F9FDF7F4F938EE08EAF1
:1031400008EE900AF148F0EE000AB0EE4E0A80ED6B
:10315000028AC0ED058A08EE600A80ED038AC0EDA0
:10316000068A80ED048AC0ED078A10EE100AFDF78A
:1031700096F953EC192BFDF70FF953EC1A2BFDF7C9
:103180000BF93EEE080A41EC1F0B10EE100AFDF79A
:1031900086F953EC1B2BFDF7FFF841EC1E0B18EEE4
:1031A000100AFDF77CF953EC1C2BFDF7F5F853ECF6
:1031B0001E2BFDF74AF853EC1F2BFDF746F8FDF7E1
:1031C000B1F938EEA80AF0EE000A8046286008EE51
:1031D000E00A10EE100AFDF762F953EC192BFDF727
:1031E000DBF853EC1A2BFDF7D7F838EE880A41ECE0
:1031F0001E0B30EE080A10EE100AFDF750F953ECE2
:103200001B2BFDF7C9F841EC1F0B18EE900AFDF7D8
:1032100046F953EC1C2BFDF7BFF853EC1F2BFDF7C1
:1032200014F853EC1E2BFDF710F8FDF77BF9B84AA4
:10323000B2EE0E0ACAF80000904501DD85ED000AE5
:103240005146904201DD81ED000AB2482A68BAEE8B
:103250000E0A824201D985ED000A0A68824201D92C
:1032600081ED000A95ED000A4FF07C5210EE100A35
:10327000904208DAB5EEC00AF1EE10FA03DDB6EEC0
:10328000000A85ED000A91ED000A10EE100A904246
:1032900008DAB5EEC00AF1EE10FA03DDB6EE000A68
:1032A00081ED000A95ED000A4FF03F4210EE100A42
:1032B000904208D2B5EEC00AF1EE10FA03D2BEEE8B
:1032C000000A85ED000A91ED000A10EE100A904206
:1032D00008D2B5EEC00AF1EE10FA03D2BEEE000A33
:1032E0008AED000A94F801809FED8BFAB8F1440F43
:1032F0000FD1DBF8001001290BD121783F2908D12B
:103300007F48CBF8006085ED00FA80ED00FA87ED8C
:1033100000FA824A1068012804D12078012802D0DE
:1033200002284BD097E000EE108A7848F8EE400A69
:1033300090ED1A0A90ED181AB8EEC00A60EE800AF5
:1033400000EE108AB8EE400A70EE011A90ED190AEC
:1033500031EE802AD0ED1B1AF8EEE11A41EE820A16
:1033600001EE908AB8EE002AF8EE611A41EE021AD8
:1033700031EE801A90ED1C0AB8EEC00A40EE010A48
:10338000BDEEE00A10EE101A4167052902DDB1EE2C
:10339000040A08E0012902DAB7EE000A03E000EEB1
:1033A000101AB8EEC00A87ED000A00EE108AB8EED7
:1033B000400A80ED180A80ED190A4CE000EE108AF0
:1033C0005249B8EE400AD1ED180A91ED191A30EEC3
:1033D000C00A70EE011A91ED1B0AB8EEC00A21EE88
:1033E000800A01EE908AB8EE612AD1ED1A1AF8EE41
:1033F000E11A01EEC20A01EE908AB8EE002AF8EE58
:10340000611A50EE821AD1ED1C0AF8EEE00A31EE94
:10341000811A00EE810ABDEEC00A10EE100A48675C
:1034200010F1050F02DAB9EE040A08E0002802DB09
:10343000BFEE000A03E000EE100AB8EEC00A87ED06
:10344000000A00EE108AB8EE400AB1EE400A81EDA3
:10345000180A81ED190AA246B8F1270F03D0B8F176
:10346000280F07D00AE09AF800003F2806D187ED20
:1034700000FA02E020783F2800D11660DFF8A0B003
:10348000DBF8000001287DD19AF800105046012990
:1034900002D0022905D00CE000EE108AB8EE400AF6
:1034A00005E000EE108AB8EE400AB1EE400A85ED64
:1034B000000A8178012902D0022907D011E09AF888
:1034C000030000EE100AB8EE400A07E09AF8030085
:1034D00000EE100AB8EE400AB1EE400A084880ED4E
:1034E000000A2868FCF7DBFF53EC1D2BFCF754FFA8
:1034F000FDF718F8024F08EE100A386812E00000D5
:10350000EC0100209A9999999999C93F0C020020E1
:1035100000007041000070C1000000009402002013
:1035200098020020FCF7BBFF53EC1D2BFCF734FF87
:10353000FCF7F8FF38EE08EA08EE900A9B48F0EE38
:1035400000FAB0EE4E0A80ED028AC0ED058A08EE60
:103550006F0A80ED038AC0ED068A80ED048AC0ED13
:10356000078A10EE100AFCF79AFF53EC192BFCF7B0
:1035700013FF53EC1A2BFCF70FFF41EC1D0B3EEE33
:10358000080A00E0AEE010EE100AFCF788FF53ECEA
:103590001B2BFCF701FF41EC1E0B18EE100AFCF789
:1035A0007EFF53EC1C2BFCF7F7FE53EC1E2BFCF7B5
:1035B0004CFE53EC1D2BFCF748FEFCF7B3FF38EE36
:1035C000A80A0446286008EEEF0A10EE100AFCF77D
:1035D00066FF53EC192BFCF7DFFE53EC1A2BFCF7BC
:1035E000DBFE38EE880A41EC190B30EE080A10EECB
:1035F000100AFCF754FF53EC1B2BFCF7CDFE41ECFB
:103600001A0B18EE900AFCF74AFF53EC1C2BFCF740
:10361000C3FE53EC1A2BFCF718FE53EC192BFCF7E6
:1036200014FEFCF77FFF624A01463860944203DDD6
:10363000B2EE040A85ED000A3846914203DDB2EE8F
:10364000040A80ED000A5B492A688A4203D9BAEE6F
:10365000040A85ED000A02688A4203D9BAEE040A18
:1036600080ED000A95ED000A4FF07C5210EE101A22
:10367000914208DAB5EEC00AF1EE10FA03DDB6EEBB
:10368000000A85ED000A90ED000A10EE101A914232
:1036900008DAB5EEC00AF1EE10FA03DDB6EE000A64
:1036A00080ED000A95ED000A4FF03F4210EE101A2F
:1036B000914208D2B5EEC00AF1EE10FA03D2BEEE86
:1036C000000A85ED000A90ED000A10EE101A9142F2
:1036D00008D2B5EEC00AF1EE10FA03D2BEEE000A2F
:1036E00087ED000A9AF800105046172902D01829D1
:1036F00013D004E0304A85ED00FA82ED00FA2F4D38
:103700002F4C304A304BB8F1390F0BD0B8F1400F85
:103710000CD0B8F1410F11D015E0244ACBF800606D
:103720005660E7E72D68012D0BD00CE02D68022DC7
:1037300007D008E0266016601E602CE02D68032D7F
:1037400001D13F29F6D02468012C24D18479212C81
:1037500021D11E4C012902D0022904D00AE0B0F880
:10376000011049BA03E0B0F8011049BA49421160AA
:10377000C4F80090C178012902D0022904D00AE0DF
:10378000BAF8040040BA03E0BAF8040040BA404274
:103790001860C4F800900548322146700C48BDEC12
:1037A000108BBDE8F05FFCF745BD00000C02002067
:1037B00000002041000020C1EC0100205C0000203E
:1037C00058000020B4010020B8010020980000201B
:1037D000460600200148FEF787B900006404002077
:1037E0000148FEF781B90000AC0400200148FEF753
:1037F0007BB90000F4040020F0B585B00546022630
:103800002020CDE9000600240320CDE90240072056
:103810000E4F049069463846FDF78EF84020CDE9FA
:10382000000669463846FDF787F80A4908480860E7
:10383000C1E901540C20CC60C1E904408C61084608
:10384000CC61FEF789FA05B0F0BD0000000C024023
:1038500000440040CC05002010B513460C460A4633
:1038600001460448FEF7A2FB08B1002010BD20B2BB
:1038700010BD0000CC0500200A4601464FF0FF3382
:103880000148FEF7FABB0000CC050020FEE77CB53E
:1038900015460646002903DA484240F4004001B2CA
:1038A0006C460A46601C8DF80030411CFEF738FC5F
:1038B0000022211DE01CFEF733FC2A46A11D601DDD
:1038C000FEF72EFC07236A462921304600F006F950
:1038D0007CBD0907090E002804DB00F1E02080F818
:1038E0000014704700F00F0000F1E02080F8141D74
:1038F000704702E008C8121F08C1002AFAD17047B9
:103900007047002001E001C1121F002AFBD170475F
:103910002DE9F041264C0646606BA4F180052A464D
:1039200000EB010CEB6E106B126F4FF47A679C4545
:1039300008DAD4F834C08C44944503DD626B11443A
:1039400061630BE0D4F834C08C449C4501DD6363B3
:1039500004E0636B1944914207DA6263C3B2606B9F
:103960003A4601B2042000F0B7F8A06B8119A86EA6
:10397000814207DAA16B6A6E3144914202DDA06B8D
:10398000304408E0A16B3144814204DCA06B811912
:10399000686E81420ADAA06395F83030A06B3A462F
:1039A000BDE8F04101B2032000F096B8BDE8F08117
:1039B0008801002010B50420FEF7CCFD40F2DC5158
:1039C00088420EDD074C40F6FF72B4F8740094F89C
:1039D000303001B2042000F07FF804F18001606F04
:1039E000486310BD0801002010B50420FEF7B2FDA9
:1039F00040F2DC5188420EDD074C40F6FF72B4F80D
:103A0000780094F8303001B2042000F065F804F139
:103A10008001A06F486310BD0801002038B5002464
:103A200025460121684600F005FB00280FD09DF8CF
:103A30000010E0B260F30F2461F30704FF2901D105
:103A4000FF2805D06D1CEDB20A2DEAD9002038BD43
:103A5000012038BD10B50220FEF77CFD0C49CA6B71
:103A6000A2F5487290420ADD91F83030088FBDE827
:103A7000104001B24FF47A62022000F02DB83223D8
:103A8000BDE81040102203A10748FEF7F6BA000077
:103A900008010020636C61775F746F6F6F6F6F5FF9
:103AA0006261636B00000000F404002004484FF4DE
:103AB0007A6210F8303F008A01B2022000F00CB8A0
:103AC00008010020034902480968006988637047BB
:103AD000080100208C030020FFF7D9BEF8B51C4672
:103AE00015460E46074600F0A3FA03200090234631
:103AF0002A463146384600F0D1FB00F0ABFB384691
:103B0000BDE8F840FCF72EBEFDF72AF8FEF754FD9D
:103B1000FEF716FBFEF776FCFEF790FCFEF7AAFC1C
:103B2000FEF766FBFEF79AFBFEF7CEFBFEF74EFCB8
:103B3000FEF730FC012283498348FEF78FFA2822E2
:103B400082498348FDF779FF282282498248FDF7A0
:103B500074FF8248FDF706FC8148FDF703FC002155
:103B60008048FDF707FE04217E48FDF703FE08218B
:103B70007C48FDF7FFFD0C217A48FDF7FBFD4FF473
:103B80007A773846FCF7C6FE00F006FA6420FCF7A8
:103B9000C1FEFFF729FF012000F06CFB00F03CFAAA
:103BA000FFF758FF00F002FA012000F0F7FA4FF497
:103BB0006170FCF7AFFE6C4C0025322302226BA132
:103BC0006348E560FEF759FA6420FCF7A3FE00F0B5
:103BD0000BFA0126E662DFF89881DFF898A14FF42E
:103BE000167B99E00A206663FCF794FE206B01289F
:103BF00001D1206C50B1206B022801D1606C28B13A
:103C0000206B032875D1A06C002872D16563D4F8AD
:103C1000309025633220FCF77DFED8F80010DAF8EA
:103C20000000FFF775FECAF80050C8F8005048467B
:103C300000F0B4FAFFF746FF606D00B926655846FC
:103C4000FCF768FE00F0E8F90A20FCF763FE606DFF
:103C500018B940F2DC50FCF75DFE2565E06C0128E8
:103C600048D0454800686665FFF7A4FE4FF496709B
:103C7000FCF750FEFFF71AFF5846FCF74BFE00F02A
:103C8000BFF94FF49670FCF745FE00F0A3F94FF42E
:103C90009670FCF73FFECAF80050C8F80050CAF80A
:103CA0000050C8F8005000F0B7F94FF4C870FCF7A6
:103CB00031FE484600F086FA4FF44870FCF72AFEC1
:103CC000FFF7C8FE00F07CF94FF42F70FCF722FEDE
:103CD000FFF78AFE00F06AF9A06B401CA063B9F1FF
:103CE000010F0DD0B9F1020F0CD0B9F1030F0BD0B9
:103CF0000BE00EE000F05AF900F076F9256307E0DA
:103D0000266402E0666400E0A664256300F06CF9B6
:103D1000E5640A20FCF7FEFDA06B0328FFF662AF06
:103D2000A56325646564A5646565E5642563322340
:103D3000032212A10648FEF7A0F93846FCF7EAFD77
:103D4000FBE70000840200201C040020460600203F
:103D5000F4040020F8060020D4030020FC02002018
:103D6000440300208C030020000000204E4E000081
:103D7000DC010020D8010020BC010020656E640039
:103D800070EE602A30EE202AB5EEC00A0122FCEE69
:103D9000E21ABCEEC21A08B5F1EE10FA37DBF5EE06
:103DA000C00AF1EE10FA32DB30EE600A0629B1EEFD
:103DB000400ABCEEC00A29D2DFE801F02803070B55
:103DC00018E911EE101A00927BE011EE101A009221
:103DD0008AE0F5EEC02AF1EE10FA03DB11EE901A3C
:103DE0000092BEE010EE101A00925AE0F5EEC02AE2
:103DF000F1EE10FA04DB00BF11EE901A0092C1E060
:103E000010EE101A009250E0FCF708FD08BDB5EE68
:103E1000C00AF1EE10FA24DBF5EEC00AF1EE10FA5A
:103E20001FD20629F2D2DFE801F00504030613B21F
:103E3000E2E7D3E7EAE7B5EEC02AF1EE10FAC0DA1E
:103E4000B1EE420A0092BCEEC00A10EE101A3EE03B
:103E5000B5EEC02AF1EE10FAB7DA11EE101A0092A0
:103E600048E070EEC01AB5EEC00ABCEEE11AF1EE01
:103E700010FA44D2F5EEC00AF1EE10FA3FDB70EE14
:103E8000801A70EE800A0629BCEEE00AF1EE600AA4
:103E9000FCEEE00ABAD2DFE801F0035D6E0C1F7A97
:103EA000B4E78AB2034601215EE08AB203460021EC
:103EB0006BE0F5EEC01A0092F1EE10FA05DB10EEA1
:103EC000101A03468AB2002104E010EE901A03464D
:103ED0008AB20121012097E7F5EEC01A0092F1EEB7
:103EE00010FA05DB10EE101A03468AB2012104E035
:103EF00010EE901A03468AB20021042084E7B5EE42
:103F0000C00AF1EE10FA81D2F5EEC00AF1EE10FA15
:103F100090D2B1EE402A30EEC00A32EE602A062975
:103F2000B1EE400ABCEEC22ABCEEC00AB8D2DFE84D
:103F300001F00304080C1D2E68E712EE101A00921F
:103F4000C5E712EE101A0092D4E7F5EEC01AF1EEB2
:103F500010FA03DB11EE101A0092A2E710EE101A0D
:103F6000009203468AB2002102204DE7F5EEC01A06
:103F7000F1EE10FA03DB11EE101A009295E710EE45
:103F8000101A009203468AB2012103203CE7BDE8E3
:103F900008400020FCF72CBC4FF4E130FFF72CBCAC
:103FA0004FF4FA70401E80B2FCD2704703490248B9
:103FB0000968406888637047080100208C0300206E
:103FC00003490248096800688863704708010020B7
:103FD0008C030020034902480968C0688863704761
:103FE000080100208C030020044840F6FF7210F8FE
:103FF000343F008B01B20120FFF76EBD08010020A5
:10400000044840F6FF7210F8343F808A01B2012064
:10401000FFF762BD08010020044840F6FF7210F867
:10402000343F008C01B20120FFF756BD080100208B
:10403000FFF7B6BF024A89B25268FFF70DBC000015
:10404000FC00002008B502236A46FEF733FA022876
:1040500002D04FF0FF3008BD9DF801109DF8000020
:10406000FEF79AFA80B208BD4B4A08B5D2ED000AB5
:10407000B5EEC00A0120FCEEE00AF1EE10FA30DBEA
:10408000BCEEC00A062919D2DFE801F018030C19AA
:104090002264009010EE900A0121C3B210EE100AC3
:1040A00082B237E0009010EE900A0121C3B210EE08
:1040B000100A82B238E000BFFCF7B0FB08BD0090E8
:1040C00010EE900A0121C3B210EE100A82B235E060
:1040D000009010EE900A0121C3B210EE100A82B2D5
:1040E00036E0B5EEC00AF1EE10FA38D2B1EE400A71
:1040F0000629BCEEC00AE1D2DFE801F003040E1885
:10410000222CDBE7009010EE900A0021C3B210EEE3
:10411000100A82B20120CFE7009010EE900A002131
:10412000C3B210EE100A82B20220C5E7009010EE72
:10413000900A0021C3B210EE100A82B20320BBE73E
:10414000009010EE900A0021C3B210EE100A82B265
:104150000420B1E7BDE808400020FCF749BBB5EEFC
:10416000C00AF1EE10FAA9D101290BD002290CD016
:1041700003290DD00429A1D101210420BDE8084064
:10418000FCF71EBB01210846F8E701210220F5E7F4
:1041900001210320F2E70000E00100200849074A5E
:1041A0000128096805D0022805D0032805D1D06A66
:1041B00002E0506A00E0906A08647047080100203D
:1041C0008C0300200949084A0128096807D0926A2F
:1041D0001432022801D0032800D10A647047506AC3
:1041E0001430086470470000080100208C03002090
:1041F00008B50021ADF800100A49C0F30800486076
:104200004FF4FA5209E000BFBDF80000401CADF8C1
:104210000000BDF80000904202D808680006F3D5FF
:1042200008BD00000010014038B5054600200C46CE
:104230008DF800008DF800009DF80000A04208D223
:104240009DF80000285CFFF7D3FF9DF80000401C9C
:10425000F0E738BD10B5054C2178002904D004489A
:10426000FFF70AFB0020207010BD0000FC000020BA
:104270003C05002010B501280DD107484FF47A7293
:1042800000F1800490F83030208D01B20320FFF758
:1042900023FCA06AA06310BD080100202DE9FF47A0
:1042A0008046DDF830904FF000008DF808004FF0A8
:1042B000FF008DF800008DF801001C4615000F4628
:1042C0004FF002068DF802808DF8049007D0E01CB4
:1042D000C6B28DF803608DF80570062102E08DF8F6
:1042E00003600521684600F023F808EB060101EBA6
:1042F000090038448DF808007DB1002107E0685CB2
:104300009DF80820491C10448DF80800C9B2A1424C
:10431000F5D32146284600F00BF89DF8080001214E
:10432000C0438DF8080002A800F002F8BDE8FF873E
:1043300030B5074B074C07E01A78802A04D210F8F2
:10434000015BA554521C1A70491EF5D2187830BD75
:10435000FC0000203C0500200000000000000000E0
:10436000010203040607080900000000010203041B
:104370009043000800000020BC0200000C07000869
:1043800040440008BC020020740800000239000804
:104390007201B20A327832B4729623E8036AF429C1
:1043A000B1091113D13205193B39289A0208291491
:1043B000CB4F0B041A9081A9040140296C82100B89
:1043C0001724F4AC7264326C32683256325C324A72
:1043D000324E32193245DA6F0C32B42AF068220DAF
:1043E0004B3606042368071AA8E11A08081AB8D43D
:1043F0001A78751ABD181AF0D01A7408291823D81B
:104400000E23FA0F4B34080C69F01A59145A16147B
:10441000290C1AC4085AE20C1A684C1A31042928CB
:104420001A4F088129109A07100116233443C380BC
:104430003F021B1419B30161093E6472C8000000F9
:040000050800018965
:00000001FF
