:020000040800F2
:10000000F00A0020A10100080B2600087B2200084E
:1000100009260008F9080008E5390008000000007A
:100020000000000000000000000000000D27000894
:10003000FB080008000000000D2600080F2700083C
:10004000BB010008BB010008BB010008BB010008A0
:10005000BB010008BB010008BB010008BB01000890
:10006000BB010008BB010008BB010008BB01000880
:10007000BB010008BB010008BB010008BB01000870
:10008000BB010008BB010008BB010008BB01000860
:10009000BB010008BB010008BB010008BB01000850
:1000A000BB010008BB010008BB010008BB01000840
:1000B000B9270008C5270008D1270008BB010008A0
:1000C000BB010008BB010008BB010008BB01000820
:1000D000BB0100082D3900083939000845390008EE
:1000E000BB010008BB010008BB010008BB01000800
:1000F000BB010008BB010008BB010008BB010008F0
:10010000BB010008BB010008BB010008BB010008DF
:10011000C12A0008CD2A0008BB010008BB01000865
:10012000BB010008BB010008BB010008BB010008BF
:10013000BB010008BB010008BB010008BB010008AF
:10014000BB010008BB010008BB010008BB0100089F
:10015000BB010008BB010008BB010008BB0100088F
:10016000BB010008BB010008BB010008BB0100087F
:10017000BB010008BB010008BB0100080000000033
:10018000BB010008BB010008DFF810D000F04AFBFB
:10019000004800472D450008AFF30080F00A00201A
:1001A0000648804706480047FEE7FEE7FEE7FEE711
:1001B000FEE7FEE7FEE7FEE7FEE7FEE7A927000809
:1001C000890100082DE9F05F0546002092469B4614
:1001D00088460646814640241BE02846414647465D
:1001E000224600F050FA53465A46C01A914110D3A5
:1001F00011461846224600F037FA2D1A67EB01081F
:100200004F4622460120002100F02EFA17EB00098C
:100210004E41201EA4F10104DFDC484631462A4647
:100220004346BDE8F09FD2B201E000F8012B491E21
:10023000FBD270470022F6E710B513460A46044683
:100240001946FFF7F0FF204610BD2DE9FE4F80460E
:1002500081EA0300C00F0C46009021F0004123F01A
:100260000045B8EB0200A94105D240462146904620
:100270001C460B46024623F00040104347D0270D92
:10028000C7F30A00C3F30A510290401A01904028B4
:100290006BDAC3F3130040F4801B0098924620B140
:1002A0000023D2EB030A63EB0B0B01985946C0F114
:1002B0004002504600F0D8F906460D4650465946D1
:1002C000019A00F0F0F910EB08006141002487EA80
:1002D000115284EAE7731A4340D0009A62B3019A3C
:1002E000012A4FEA075215DC001B61EB02014FF0B7
:1002F000004202EA0752CDE90042001C41F580119C
:1003000032462B4600F027FA03B0BDE8F08F404696
:100310002146F9E7001B61EB0201001C41F5801347
:1003200000185B412018A2F5001747EB030140EAD3
:10033000D570B6196D4111E06D084FEA360645EAF1
:10034000C0754FEA0752001B61EB0201001C41F52A
:10035000801149084FEA30000019514132462B46BE
:1003600003B0BDE8F04F00F0E7B90098012240006B
:100370000023D0EB020263EBE073009821464FEAC2
:10038000E074B8EB000061EB0401E9E783F000439F
:100390005BE781F0004158E72DE9FE4F81EA030455
:1003A00004F0004421F0004100944FF0000B23F0D2
:1003B000004350EA01045ED052EA03045BD0C3F369
:1003C0000A54C1F30A552C44A4F2F3340194A0FB5F
:1003D0000254C1F3130141F48011C3F3130343F436
:1003E000801301FB024400FB034E840A970A44EA8F
:1003F000815447EA8357A4FB076802958D0A05FBE1
:1004000007854FEA932C04FB0C542705029D4FEA05
:10041000065847EA1637B5EB08056EEB070C870E52
:10042000920E47EA811742EA8312A7FB0201B6EB5C
:100430000B0164EB00042B0D43EA0C335E1844EB14
:100440001C50DA465146E7FB0201C5F313044FEA9C
:100450000B3343EA14534FEA0432019C43EA060388
:10046000A4F10C040294009CCDE900B400F073F9EF
:1004700003B0BDE8F08F00200146F9E72DE9F04D0B
:1004800081EA030404F0004B21F0004514464FF0CC
:10049000000A23F0004150EA050220D054EA01028C
:1004A0001DD0C5F30A570246C5F31303C1F3130069
:1004B000C1F30A5640F4801543F48013A7EB0608F5
:1004C000101BD64608F2FD3873EB050002D308F185
:1004D000010801E092185B41B8F1000F03DA002037
:1004E0000146BDE8F08D00204FF480110646844699
:1004F0000EE0171B73EB050705D3121B63EB050317
:1005000006434CEA010C49084FEA300092185B415F
:1005100050EA0107EDD152EA030012D082EA04004A
:1005200083EA0501084305D0101BAB4106D2012226
:10053000002306E000224FF0004302E06FF00102CA
:1005400053101AEB06004CEB085110EB0A0041EB7C
:100550000B01BDE8F04D00F0EFB80EB5C10F80EA19
:10056000E0700844CA07002140F233438DE80E00D2
:100570000A460B4600F0EFF803B000BD00F0004261
:1005800030F000400AD0C10D01F56071C0F31600D3
:1005900042EA0151C208400711437047002001465A
:1005A0007047000030B5041E71F1000404DB4FF009
:1005B0000044404264EB0101141E73F1000405DBAA
:1005C0001C464FF00043524263EB04038B4208BFCA
:1005D000824230BD30B5041E71F1000404DB4FF0DF
:1005E0000044404264EB0101141E73F1000405DB7A
:1005F0001C464FF00043524263EB0403994208BF8C
:10060000904230BD01F0004330B421F0004150EA87
:10061000010206D00A0DA2F56072C1F31301002A8F
:1006200002DC30BC00207047440F44EAC104C10022
:10063000E01830BC00EBC25000F047B830B50B46B4
:10064000014600202022012409E021FA02F59D4202
:1006500005D303FA02F5491B04FA02F52844151ED6
:10066000A2F10102F1DC30BD202A04DB203A00FABD
:1006700002F1002070479140C2F1200320FA03F3F9
:10068000194390407047202A04DB203A21FA02F0F7
:100690000021704721FA02F3D040C2F120029140BC
:1006A000084319467047202A06DBCB17203A41FA47
:1006B00002F043EAE07306E041FA02F3D040C2F1EF
:1006C000200291400843194670470029A8BF70478F
:1006D000401C490008BF20F00100704710B4B0FA78
:1006E00080FC00FA0CF050EA010404BF10BC704713
:1006F00049B1CCF1200421FA04F411FA0CF118BF2D
:10070000012121430843A3EB0C01CB1D4FEA0061FB
:100710004FEA102042BF002010BC704700EBC350CE
:1007200010440029A4BF10BC7047401C490008BFFA
:1007300020F0010010BC704710B5141E73F10004C6
:1007400008DA401C41F1000192185B411A4301D1C3
:1007500020F0010010BD2DE9F04D92469B4611B1ED
:10076000B1FA81F202E0B0FA80F220329046FFF74F
:100770007BFF04460F4640EA0A0041EA0B0153465C
:100780005A46084313D0114653EA010019D0C8F164
:1007900040025046FFF777FF05460E465046594641
:1007A0004246FFF761FF084305D0012004E02046E0
:1007B0003946BDE8F08D0020054346EAE0762C433B
:1007C00037430A986305E40AA0EB08000022FD0AFB
:1007D00044EA47540A3002D500200146E9E7010502
:1007E00010196941DDE9084500196941BDE8F04D7E
:1007F000A2E7C1F30A52C1F3130140F2FF3341F4FF
:1008000080119A4202DA00200146704740F23343D9
:100810009A42A2F2334202DC5242FFF734BFFFF7A2
:1008200023BF0000064C074D06E0E06840F00103DE
:1008300094E8070098471034AC42F6D3FFF7A8FCC1
:10084000984E0008B84E000870B58C1810F8015B7F
:1008500015F0070301D110F8013B2A1106D110F859
:10086000012B03E010F8016B01F8016B5B1EF9D15D
:100870002B0705D40023521E0DD401F8013BFAE7E3
:1008800010F8013BCB1A921C03E013F8015B01F84E
:10089000015B521EF9D5A142D8D3002070BD0000E3
:1008A00038B50546134C0020FE2DA07020D02078CE
:1008B000F0B103F063FD002818D00421684604F06D
:1008C00075F8042811D19DF80000A8420DD19DF8BB
:1008D0000110022909D19DF80210801C0844C04370
:1008E0009DF80320C0B2824201D0002038BDA17023
:1008F000012038BDB8000020FEE770471FB5002278
:1009000000928DF80000FE208DF8010098208DF8EF
:10091000020001926B208DF803108DF80400029202
:1009200003920521684604F013FA1FBD1FB500218C
:1009300000918DF80000FF208DF8010066208DF8F1
:1009400002006B200191029103918DF803000421B4
:10095000684604F0FDF91FBD7FB5002500958DF8B0
:100960000000F6208DF8010001958DF80210089C1A
:10097000100A8DF804208DF803008DF805308DF8ED
:1009800006406B208DF80700029503950821684604
:1009900004F0DEF97FBD72B6FEE72DE9F0410446B2
:1009A000876D00F06DF9064694F8350000250228A1
:1009B00006D08020606584F834500120BDE8F081C5
:1009C0002068016821F0160101602068416921F06A
:1009D00080014161206C08B9A06C20B120680168D9
:1009E00021F0080101602068016821F00101016027
:1009F0000CE000F045F9801B052807D92020606530
:100A0000032084F8350084F83450D7E72068006864
:100A1000C007EED194F85C103F208840B8600120F8
:100A200084F8350084F834500020C7E790F835107A
:100A3000022903D08021416501207047052180F8FB
:100A400035100068016821F0010101600020704745
:100A500070B5044600F014F90546601C02D0044845
:100A60000078044400F00CF9401BA042FAD370BD9A
:100A7000A80000202DE9F84FDFF8BCA100220125D5
:100A800003264FF00F090AF1040BAAF1040E00BF70
:100A90000B6805FA02F42340A34270D10F7907F0E6
:100AA0000307012F01D0022F16D187684FEA4208B1
:100AB00006FA08FC27EA0C07D1F80CC00CFA08FC6F
:100AC0004CEA070CC0F808C04768A7430C79C4F388
:100AD000001494403C4344600C79E443A4070AD0DA
:100AE000C4684FEA420C06FA0CF7BC438F6807FA59
:100AF0000CF72743C7600C7904F00304022C12D1D1
:100B0000D40800EB840CDCF820405707FF0E09FAEC
:100B100007F824EA0804D1F8108008FA07F848EA30
:100B20000408CCF8208004684FEA420C06FA0CF75F
:100B3000BC430F7907F0030707FA0CF72743076058
:100B40004C6814F4403F70D03C4C276847F4804711
:100B50002760246822F0030704F480440094384C92
:100B600007EB040CDCF8084897074FEA177809FAF6
:100B700008F7BC43334FB84202D1002724E054E0C9
:100B8000314FB84201D101271EE0304FB84201D1A8
:100B9000022719E02E4FB84201D1032714E02D4F50
:100BA000B84201D104270FE02B4FB84201D10527ED
:100BB0000AE02A4FB84201D1062705E0284FB84283
:100BC00001D1072700E0082707FA08F72743CCF8E8
:100BD0000878DAF800405746D1F804C09C435FEA31
:100BE000CC2C00D51C433C60DBF800405F46D1F8BC
:100BF00004C09C435FEA8C2C00D51C433C60DEF8AB
:100C000000407746D1F804C09C435FEA8C3C00D595
:100C10001C433C60084F083F3C68D1F804C09C432B
:100C20005FEACC3C00D51C433C60521C102AFFF408
:100C30002FAFBDE8F88F0000083C01404438024067
:100C40000030014000000240000402400008024061
:100C5000000C024000100240001402400018024044
:100C6000001C0240426921EA02030A4043EA0241B1
:100C7000816170470AB1816170470904FBE7000098
:100C80000148806870470000A80000200248816881
:100C90000278114481607047A80000200B4810B50D
:100CA000016841F400710160016841F480610160F4
:100CB000016841F480710160032000F06FF80F209B
:100CC00000F006F800F024F8002010BD003C0240BF
:100CD00070B50D4D04464FF47A712878B1FBF0F0F1
:100CE0000A490968B1FBF0F000F00AFB48B9102C82
:100CF00007D200222146501E00F030F800206C6020
:100D000070BD012070BD0000A8000020B4000020CC
:100D10000A4808B5016841F480410160006800F4A8
:100D2000804000900548001F016841F0805101603B
:100D3000006800F08050009008BD00004438024078
:100D4000002809DB00F01F020121914040098000CA
:100D500000F1E020C0F8001170470000F0B40E4B25
:100D60001B680C46C3F30223C3F10705042D00D909
:100D70000425191D072901D2002300E0DB1E0126EE
:100D800006FA05F1491E214099409E40761E164004
:100D90003143F0BC02F06EBE0CED00E0064900F0FD
:100DA000070208684FF6FF03184040EA0220034A92
:100DB00010430860704700000CED00E00000FA05E9
:100DC0002DE9F0470E46050065D0DFF81481D8F80C
:100DD0000000F7B200F00700B04207D288F80070B8
:100DE000D8F8000000F00700B04254D128683D4C0C
:100DF000810712D5400703D5206840F4E0502060F9
:100E00002878000703D5206840F4604020602068FF
:100E1000A96820F0F000084320602878C0072DD092
:100E2000304968680839012812D0022813D00328F5
:100E300011D00968890700292DDA216821F0030102
:100E400001432160FFF71CFF814641F2883A0EE022
:100E500009688903EFE709688901ECE7FFF710FFEC
:100E6000A0EB0901514502D90320BDE8F0872068B5
:100E7000696800F00C00B0EB810FEFD1D8F80010DA
:100E8000404601F00701B14207D90770006800F041
:100E90000700B04201D00120E7E72878400705D5D8
:100EA0002068E96820F4E0500843206028780007B3
:100EB00006D52068296920F4604040EAC10020601E
:100EC00000F038F82168084AC1F30311515CC840AA
:100ED0000649086006480068FFF7FAFE0020C4E7EC
:100EE000003C024008380240804E0008B400002058
:100EF000AC0000200448054900680968044AC1F3B1
:100F00008221515CC8407047B4000020083802407C
:100F1000904E00080448054900680968044AC1F376
:100F20004231515CC8407047B4000020083802408C
:100F3000904E0008154810B5006810F00C021448D7
:100F400013D04110042A0FD0082A0ED10F4C241FB1
:100F50002268236802F03F025B0207D52068C0F3D5
:100F60008810A0FB010106E0084610BD2168C1F30E
:100F70008811A1FB00010023FFF724F92168C1F3C8
:100F80000141491C4900B0FBF1F010BD0838024096
:100F90000024F4002DE9F84F04006ED02078DFF82B
:100FA0004C93C007A9F104054AD009F10400016877
:100FB000C1F38101012908D00068C0F38100022833
:100FC0000AD1D9F80000400206D52868800337D539
:100FD00060680028E1D033E06068B0F5803F10D051
:100FE000B0F5A02F286810D020F480302860286841
:100FF00020F4802028606068A8B1FFF741FE064613
:101000000DE0286840F48030F4E740F48020286048
:10101000F7E700BFFFF734FE801B642873D8286809
:101020008003F7D50CE0FFF72BFE064605E000BF76
:10103000FFF726FE801B6428F0D828688003F7D4C9
:101040002078DFF8AC8280074FF0000A3ED5A74831
:10105000001D016811F00C0F08D00068C0F381007A
:1010600002280BD1D9F80000400207D42868800775
:1010700016D5E068012800D112E033E1E068B8B18C
:101080000120C8F80000FFF7FBFD064605E000BFA1
:10109000FFF7F6FD801B0228C0D828688007F7D527
:1010A0002868216920F0F80040EAC10028600DE0BE
:1010B000C8F800A0FFF7E4FD064604E0FFF7E0FDF6
:1010C000801B02281FD828688007F7D420780007E3
:1010D00022D5864F87486169703771B1012101605F
:1010E000FFF7CEFD064604E0FFF7CAFD801B02288D
:1010F00009D838688007F7D50EE0C0F800A0FFF7E0
:10110000BFFD064605E082E0FFF7BAFD801B02281E
:101110007DD838688007F7D42078400768D5DFF895
:10112000CCB100270BF13C0BDBF80000C0000BD466
:10113000DBF8001041F08051CBF80010DBF8000024
:10114000012700F0805000906B4E3068C00510D42D
:10115000306840F480703060FFF792FD009005E049
:10116000FFF78EFD0099401A022850D83068C0055C
:10117000F6D55E4EA0686C3601280FD00528306881
:1011800010D020F001003060306820F004003060A2
:10119000A068B8B1FFF774FD00900FE0306840F030
:1011A0000100F4E740F004003060F7E7FFF768FD66
:1011B0000099411A41F28830814266D83068800730
:1011C000F4D50EE0FFF75CFD009007E0FFF758FD57
:1011D0000099411A41F28830814256D83068800720
:1011E000F4D42FB1DBF8001021F08051CBF80010BF
:1011F000A069C8B33D49091D0968C1F381010229ED
:101200004AD00228504607D0C8F8600000E03CE011
:10121000FFF736FD04463BE04746C8F86000FFF79D
:101220002FFD064605E000BFFFF72AFD801B0228C0
:101230002BD828688001F7D4D4E907010843A16AB4
:101240002E4A490802EB0141626A41EA82110843D1
:1012500094F82C1040EA0161C9F8001001203866AA
:10126000FFF70EFD044606E03EE000BFFFF708FD75
:10127000001B022809D828688001F7D534E000BF98
:10128000FFF7FEFC001B022802D90320BDE8F88FFF
:1012900028688001F4D427E00128F7D0D9F80000AD
:1012A000E26900F4800191421CD1226A00F03F0102
:1012B000914217D147F6C071626A0140B1EB821FBB
:1012C00010D1A26A4FF0FF3300F4403103EB520219
:1012D000B1EB024F06D194F82C1000F07060B0EB27
:1012E000016F01D00120D1E70020CFE70438024090
:1012F00000004742800E4742007000400000FFFFA0
:1013000010B5401EB0F1807F01D3012010BD4FF019
:10131000E02460610F21601702F0ACFB0020A061A7
:1013200007202061002010BD7047704770B590F80D
:101330003C20012A32D0012480F83C40022280F86F
:101340003D2003685A689D6822F070060A6832439F
:101350005A60134B02689A4214D0B2F1804F11D0F8
:10136000104B9A420ED0104B9A420BD00F4B9A4220
:1013700008D00F4B9A4205D00E4B9A4202D00E4B2A
:101380009A4204D1496825F080031943916080F89E
:101390003D40002180F83C10084670BD022070BD21
:1013A000000001400004004000080040000C004024
:1013B00000040140004001400018004010B5040046
:1013C00003D094F83D0010B107E0012010BD0020CB
:1013D00084F83C00204600F01FF8022084F83D000D
:1013E000211D206801F0FAF9012084F8460084F8F4
:1013F0003E0084F83F0084F8400084F8410084F8FF
:10140000420084F8430084F8440084F8450084F8DE
:101410003D00002010BD000008B501681D48B1F175
:10142000804F11D01C4A91421DD1016841F0020148
:1014300001600068002200F00200009011461D20AB
:10144000FFF78CFC1D201FE0016841F001010160E5
:101450000068002200F00100009011461C20FFF7F8
:101460007DFC1C2010E00D4A914211D1016841F031
:10147000040101600068002200F0040000901146A1
:101480001E20FFF76BFC1E20BDE80840FFF758BC8C
:1014900008BD000040380240000400400008004041
:1014A00090F83D10012901D001207047022180F8F9
:1014B0003D100168CA6842F00102CA600068114923
:1014C000884214D0B0F1804F11D00F4988420ED01D
:1014D0000E4988420BD00E49884208D00D498842F7
:1014E00005D00D49884202D00C49884204D1816858
:1014F00001F00701062903D0016841F001010160F4
:101500000020704700000140000400400008004037
:10151000000C004000040140004001400018004061
:1015200070B5044690F83C000025012817D001262C
:1015300084F83C60022084F83D002068826822F034
:10154000770222F47F4282600868502838D00DDC90
:1015500020284FD005DC90B3102811D14AE002209A
:1015600070BD302846D040280AD13BE060282FD0FB
:1015700070280DD0B0F5805F03D0B0F5005F12D0B9
:10158000012584F83D60002084F83C00284670BDA9
:10159000CB68D1E90121206801F099F920688168C0
:1015A00041F0770109E0CB68D1E90121206801F021
:1015B0008EF92068816841F480418160E1E719E09B
:1015C000CA684968206801F057FA5021206806E08F
:1015D000CA684968206801F060FA6021206801F05B
:1015E00080F9CEE7CA684968206801F045FA4021D1
:1015F0002068F4E7226801461046F0E770472DE9BD
:10160000F04104460068C66805694FF00007A90765
:1016100013D5B10711D5F91E01610120207720688B
:1016200080698007204602D0FFF7E8FF04E000F061
:10163000A9F8204600F03BF92777680716D5700710
:1016400014D521686FF0040008610220207720681B
:10165000806910F4407F204602D0FFF7CFFF04E0FE
:1016600000F090F8204600F022F92777280715D5DA
:10167000300713D521686FF0080008610420207737
:101680002068C0698007204602D0FFF7B7FF04E05A
:1016900000F078F8204600F00AF92777E80616D51A
:1016A000F00614D521686FF010000861082020773B
:1016B0002068C06910F4407F204602D0FFF79EFFEB
:1016C00004E000F05FF8204600F0F1F82777E80723
:1016D00008D0F00706D021686FF0010008612046AD
:1016E00000F04AF9280608D5300606D521686FF0C3
:1016F000800008612046FFF717FE680608D57006CF
:1017000006D521686FF040000861204600F02EFAEF
:10171000A8060AD5B00608D521686FF02000086138
:101720002046BDE8F041FFF700BEBDE8F0810000B3
:1017300010B586B0044614216846FEF77BFD0E49BD
:101740002068884215D10D480021026842F0080245
:101750000260006800F0080005904FF470400090AF
:101760000220CDE90101CDE9031069460448FFF7E5
:1017700081F906B010BD000000080040303802407A
:10178000000C0240704770B5044690F83C000026FB
:101790000D4601280FD0012084F83C006AB1042ACC
:1017A0001DD0082A2FD00C2A3FD00126002084F813
:1017B0003C00304670BD022070BD206801F09AF8F0
:1017C0002068816941F0080181612068816921F008
:1017D00004018161206881692A69114311E0206850
:1017E00001F0B8F82068816941F4006181612068E6
:1017F000816921F480618161206881692A6941EAF7
:1018000002218161D2E7206801F0DAF82068C1691D
:1018100041F00801C1612068C16921F00401C16182
:101820002068C1692A69114311E0206801F0FCF8C1
:101830002068C16941F40061C1612068C16921F477
:101840008061C1612068C1692A6941EA0221C161E0
:10185000ACE710B5040003D094F83D0010B107E0E8
:10186000012010BD002084F83C00204600F01EF846
:10187000022084F83D00211D206800F0AFFF012008
:1018800084F8460084F83E0084F83F0084F8400065
:1018900084F8410084F8420084F8430084F844004E
:1018A00084F8450084F83D00002010BD7047704763
:1018B00010B50446022249B104290ED0082913D0DC
:1018C00094F84100012816D0012010BD94F83E0084
:1018D0000128F9D184F83E200FE094F83F00012858
:1018E000F2D184F83F2008E094F840000128EBD1C1
:1018F00084F8402001E084F841200122206800F0B3
:10190000D9FF16492068164A884201D0904203D177
:10191000436C43F4004343642068884213D0B0F121
:10192000804F10D00F4988420DD00F4988420AD00D
:101930000E49884207D0904205D00D49884202D016
:101940000C49884204D1816801F00701062903D0BF
:10195000016841F001010160002010BD000001405C
:10196000000401400004004000080040000C00405A
:1019700000400140001800402DE9F047064600688D
:10198000DFF8BC9100256F4CB0F1804F0ED160683C
:10199000401C6060A068401CA0606B48007808B1E3
:1019A00001F004FA6168494500DD65606749306807
:1019B00088427CD12068DFF89CA1401C20606448EC
:1019C0000068012853D1E0684FF0010801283DD19B
:1019D000A06901282BD1206A062801DA401C206268
:1019E0005D4E012805D1012196ED000A002003F08B
:1019F000B1F8206A022805D1022196ED000A0020E4
:101A000003F0A8F8206A032805D1032196ED000A07
:101A1000002003F09FF8206A042805D1042196EDE8
:101A2000000A002003F096F8206A052803D0E06938
:101A3000012808D00AE0052196ED000A002003F0F5
:101A400089F8C4F81C80A561E56125622069012838
:101A50006AD16069012867D1A069012808D00022F5
:101A600020215046FFF706F9E069012857D05BE0D6
:101A7000012220215046FFF7FDF8A06A30B938480E
:101A80009FED360AC4F8288080ED000A206A0628F7
:101A900040DA401C334E344F206201280AD194F8BA
:101AA0002C000121D6ED000A97ED000A00E045E088
:101AB00002F020FE206A022808D194F82C000221AE
:101AC000D6ED000A97ED000A02F014FE206A032802
:101AD00008D194F82C000321D6ED000A97ED000AF6
:101AE00002F008FE206A042808D194F82C00042192
:101AF000D6ED000A97ED000A02F0FCFD206A0528E9
:101B000008D194F82C000521D6ED000A97ED000AC3
:101B100002F0F0FD206A0628A6D1C4F81C80656298
:101B2000A561A562E56125622168494506DD50464B
:101B30002560BDE8F0472021FFF794B8BDE8F087A5
:101B4000A086010054020020DA01002000040040B9
:101B50003400002000080240B80100200000C84204
:101B6000D0010020B4010020B00100207047704770
:101B700070470000F8B5016804460868CA684B69F8
:101B800010F00F0F4FF0000559D003F0010602F4DA
:101B90009077374365D0C10705D0D10503D5616C77
:101BA00041F001016164410705D5D90703D0616C9B
:101BB00041F002016164810705D5D90703D0616C4A
:101BC00041F004016164010707D502F020013143AF
:101BD00003D0616C41F008016164616C00293AD066
:101BE000800604D5900602D5204600F0A4FF2068A8
:101BF0004069616CC0F38010090700D460B32046CF
:101C000000F072FF20684069400621D5206814303A
:101C100050E8001F21F0400140E80012002AF5D1F1
:101C2000E06BA8B16E490165E06BFEF7FFFE00288E
:101C300011D0E06B016D01B0BDE8F04008478306AC
:101C40000FD593060DD52046BDE8F84000F073BFD0
:101C50002046FFF78DFFF8BD2046FFF789FF65643A
:101C6000F8BD266B2023012E7DD1C6067BD5D60676
:101C700079D508684868009048694FF00206400628
:101C800041D5E16B086840680004000CE8D0A28DE3
:101C90008242E5D9E085C869B0F5807F2DD0206803
:101CA0000C3050E8001F21F4807140E80012002A37
:101CB000F5D12068143050E8001F21F0010140E800
:101CC0000012002AF5D12068143050E8001F21F0DE
:101CD000400140E80012002AF5D184F84230256323
:101CE00020680C3050E8001F21F0100140E800127D
:101CF000002AF5D1E06BFEF750FE6663A08DE18D02
:101D0000401A81B22AE0A08DE18D401A81B2E08DA7
:101D10000028A5D00029A3D022680C3252E8000F79
:101D200020F4907042E80007002FF5D120681430AD
:101D300050E8002F22F0010240E80027002FF5D1E3
:101D400084F84230256320680C3050E8002F22F0E0
:101D5000100240E80023002BF5D166632046FFF710
:101D600006FFF8BDFFE705062BD5150629D594F823
:101D700041002128F5D1A068B0F5805F01D120692C
:101D8000B0B1206A411C2162216800784860E08C73
:101D9000401E0004000CE084E3D12068C16821F0FB
:101DA0008001C1602068C16841F04001C160D8E78E
:101DB000206A0088C0F308004860206A801C206206
:101DC000E5E74006CDD55006CBD5CA68204622F0BF
:101DD0004002CA6084F8413000F04EFAC1E70000CA
:101DE000D92A000870B5040004D094F841000025F9
:101DF00010B106E0012070BD84F84050204600F08C
:101E000023F8242084F841002068C16821F400519F
:101E1000C160204600F0F0FE2068016921F4904185
:101E200001612068416921F02A0141612068C1688F
:101E300041F40051C1606564202084F8410084F8B9
:101E400042006563002070BD2DE9F04186B0044674
:101E500014216846FEF7EEF96E49DFF8B4C1236835
:101E600000246C4A10390325022608276A48634576
:101E70001ED1136843F400231360126802F4002299
:101E800005920A6842F001020A600968CDE900562D
:101E900001F00101CDE904716946CDE90245FEF783
:101EA000E9FD002211463420FEF758FF342038E0C7
:101EB000DFF868C1DFF86881634537D1106840F406
:101EC00080101060106800F480100590086840F0E1
:101ED00004000860086800F004000590086840F0FD
:101EE00008000860086802AB00F0080005904FF495
:101EF0008050CDE9000683E8B00069464948FEF706
:101F0000B9FD0420CDE9000602AB694683E8B000C4
:101F10004046FEF7AFFD002211463520FEF71EFFBA
:101F20003520FEF70DFF06B0BDE8F081DFF8F8C000
:101F30000727634522D1374A121D136843F0100367
:101F40001360126802F0100205920A6842F0010262
:101F50000A60096802AA01F0010105914FF4C0610D
:101F6000CDE9001682E8B0006946FEF783FD002245
:101F700011462520FEF7F2FE2520D2E72B488342AA
:101F800020D1106840F400301060106800F4003078
:101F90000590086840F008000860086802AB00F08F
:101FA000080005906020CDE9000683E8B00069468E
:101FB0004046FEF75FFD002211462620FEF7CEFECA
:101FC0002620AEE71A488342ADD1106840F4802045
:101FD0001060106800F480200590086840F002004E
:101FE0000860086802AB00F0020005904FF4406002
:101FF000CDE9000683E8B00069460E48FEF73AFDD9
:10200000002211462720FEF7A9FE272089E70000BD
:10201000004C0040403802400000024000500040A8
:10202000000C024000080240001001400044004043
:1020300000480040000402402DE9F84F044690F8A3
:1020400042009A4616460D46202802D00220BDE8DE
:10205000F88FB5B1AEB100206064222184F842103F
:102060002063FEF70DFEA6858146E685A0684FF445
:1020700080582027404501D1206920B12E460025F7
:1020800029E00120E3E7002625E04B46002220213D
:102090002046CDF800A000F050FE18B184F8427040
:1020A0000320D4E726B1A06840451AD038B108E033
:1020B00020684068C0F3080025F8020B08E020699A
:1020C00078B12068406800F07F0000BF06F8010B7F
:1020D000E08D401EE085E08D0028D6D184F8427066
:1020E000B5E720684068F1E790F84230202B01D036
:1020F0000220704721B11AB10023036300F002BE31
:10210000012070472D4930B4CB790022802B00D3B9
:10211000CA714B79322B00D34A718B79322B00D3A1
:102120008A710B7A322B00D30A724B7A322B00D38E
:102130004A72234CCA798B78A354521CCA714A79CB
:10214000643C0B78A354521C4A718A7932344B7820
:10215000A354521C8A710A7AB234CB78A354521C0D
:102160000A724A7A32340B79A354521C4A72154AC5
:102170000168914202D1012210491AE0124A9142AB
:1021800003D10E490122491C13E0104A914203D1A8
:102190000A490122891C0CE00D4A914203D10749EA
:1021A0000122C91C05E00B4A914205D103490122D5
:1021B000091D30BCFFF798BF30BC7047D401002028
:1021C0000806002000440040004800400010014084
:1021D000004C0040005000402DE9F843044690F8C0
:1021E0004100984616460D46202802D00220BDE840
:1021F000F88385B17EB100206064212084F841001D
:10220000FEF73EFDA6848146E684A0682027B0F54F
:10221000805F02D003E00120E9E7206910B12E467B
:1022200000250EE000260CE08021204600F085FD10
:10223000A8B9C6B116F8010B21684860E08C401EB1
:10224000E084E08C4B464FF00002CDF8008000287F
:10225000EAD14FF04001204600F06FFD40B184F814
:1022600041700320C3E735F8020BC0F30800E3E731
:1022700084F841700020BAE77047FEE7064B10B5BE
:102280005C78C2F30723D2B214B103700A7010BD98
:102290000B70027010BD0000B8000020F0B587B0D0
:1022A00014216846FDF7C6FF25480025016841F066
:1022B00080010160016801F080010591016841F031
:1022C00001010160016801F001010591016841F01F
:1022D00004010160016801F004010591016841F009
:1022E00002010160016801F002010591016841F0FD
:1022F000080101600068134E00F0080005900022FC
:1023000020213046FEF7B6FC0F4F0022042138464C
:10231000FEF7B0FC01242020CDE9000469463046D8
:10232000CDE90245FEF7A6FB0420CDE9000469468D
:102330003846CDE90245FEF79DFB07B0F0BD000031
:1023400030380240000802400004024010B586B058
:1023500000241848009401940294039404944FF0CC
:1023600080410594016040F28F61C0E901144FF48F
:102370007A71C0E9031480218161FFF71FF808B169
:10238000FEF709FB4FF48050009069460948FFF7BB
:10239000C7F808B1FEF7FFFA2020CDE9040404A92C
:1023A0000448FEF7C3FF002801D0FEF7F4FA06B098
:1023B00010BD00008C02002010B586B00024184823
:1023C00000940194029403940494144905940160C8
:1023D00040F28F61C0E901144FF47A71C0E903142F
:1023E00080218161FEF7EAFF08B1FEF7D4FA4FF4CD
:1023F0008050009069460A48FFF792F808B1FEF74E
:10240000CAFA2020CDE9040404A90548FEF78EFF8E
:10241000002801D0FEF7BFFA06B010BD000400404E
:10242000D402002010B58EB00024079408940994BB
:102430000A940B941C2168460C94FDF7FBFE2B4874
:102440002949016040F28F61C0E9011440F2E7318F
:10245000C0E903148461FEF7B1FF08B1FEF79BFAEF
:102460004FF48050079007A92048FFF759F808B1AA
:10247000FEF791FA1D48FFF7ECF908B1FEF78BFA69
:102480000B940BA919480C94FEF750FF08B1FEF706
:1024900082FA6020CDE900040294002269461348C4
:1024A0000494FFF770F908B1FEF775FA0422694643
:1024B0000E48FFF768F908B1FEF76DFA0822694681
:1024C0000A48FFF760F908B1FEF765FA0C22694681
:1024D0000648FFF758F908B1FEF75DFA0348FFF721
:1024E00027F90EB010BD0000000800401C030020BA
:1024F0000C4810B50A4901604FF4E13141600021F8
:1025000081600C22C160C0E904128161C161FFF7E2
:1025100069FC002803D0BDE81040FEF73CBA10BDAE
:10252000004C0040640300200C4810B50A490160CB
:102530004FF416514160002181600C22C160C0E956
:1025400004128161C161FFF74DFC002803D0BDE892
:102550001040FEF720BA10BD00500040AC03002030
:102560000C4810B50A4901604FF4E1314160002187
:1025700081600C22C160C0E904128161C161FFF772
:1025800031FC002803D0BDE81040FEF704BA10BDAE
:1025900000100140F40300200C4810B50A49016006
:1025A0004FF4E1314160002181600C22C160C0E93B
:1025B00004128161C161FFF715FC002803D0BDE85A
:1025C0001040FEF7E8B910BD004400403C04002074
:1025D0000C4810B50A4901604FF4E1314160002117
:1025E00081600C22C160C0E904128161C161FFF702
:1025F000F9FB002803D0BDE81040FEF7CCB910BDB0
:102600000048004084040020FEE7FEE77047000019
:102610007FB582B015460C46064602F0C5F9022089
:102620000090012305AA2146304602F0CBFB02F0C0
:10263000A5FB01F0A3FE002832D01C4E0020032190
:10264000B07001A802F0B2F9032828D19DF8141047
:10265000284602F0ABF99DF81410044688421ED1BA
:1026600001210DF1070002F0A1F9012817D19DF811
:1026700004009DF805109DF8062008441044C1B2DE
:10268000002004E02B5C401C1944C9B2C0B2A04237
:10269000F8DBC8439DF80710C0B2814202D0002089
:1026A00006B070BDB2702046FAE70000B800002006
:1026B00010B50E4C411C08D000212160C0B2382159
:1026C00002F07CF9411C0ED004E009484178007802
:1026D00040EA01202168002904D1010402D520F438
:1026E0000040404210BD0121216010BDD4000020F7
:1026F0004C05002002460448407810B141EA02200F
:10270000704742EA01207047B80000207047FEF78A
:10271000BDBA000030B593B030216846FDF78AFDA0
:1027200014210CA8FDF786FD1D480025016841F025
:1027300080510160006800F08050119019480168D4
:1027400041F4804101600068022400F4804011904F
:1027500001200090000401908001CDE9064008AA04
:102760000420A82182E813000B906846FEF712FCB3
:1027700008B172B6FEE70CA90F2081E831004FF4D2
:10278000A0500F904FF48050109005210CA8FEF738
:1027900017FB002801D072B6FEE713B030BD000071
:1027A00040380240007000400248016841F4700166
:1027B0000160704788ED00E00148FEF720BF00008F
:1027C0008C0200200148FEF71ABF0000D40200204E
:1027D0000148FEF714BF00001C030020F0B502689A
:1027E000294C2A4D2A4E2B4F2B4B4FF0804CA042A8
:1027F00009D0604507D0A84205D0B04203D0B84206
:1028000001D0984204D122F0700E4A6842EA0E02CA
:10281000A0421BD0604519D0A84217D0B04215D0B5
:10282000B84213D0984211D01C4DA8420ED01C4D76
:10283000A8420BD01B4DA84208D01B4DA84205D082
:102840001A4DA84202D01A4DA84203D122F4407575
:10285000CA682A434D6922F080022A4302608A68CE
:10286000C2620A688262A04201D0984201D109691D
:102870000163012141610169C90703D0016921F0A8
:1028800001010161F0BD00000000014000040040B2
:1028900000080040000C00400004014000400140DE
:1028A000004401400048014000180040001C004066
:1028B0000020004010B501F01F030121046A994077
:1028C0008C430462016A9A401143016210BD10B545
:1028D000846842EA032224F47F440A43224382604C
:1028E00010BD826822F070020A4342F00701816045
:1028F00070470000F0B5036A026A22F0010202622A
:1029000042688469124E24F073050C682C4323F04E
:1029100002058B682B430D4DA84201D0B04205D172
:1029200023F00807CB683B4323F00403A84201D0FF
:10293000B04205D14D6922F4407215438A692A4399
:1029400042608461496841630362F0BD0000014058
:1029500000040140F0B5026A036A23F01003036229
:10296000436884690D6824F4E64444EA05248D68CC
:1029700022F0200242EA05120F4D104EA84201D06B
:10298000B04206D1CF6822F0800242EA071222F05C
:102990004002A84201D0B04207D14D6923F4406300
:1029A00043EA85038D6943EA85034360846149688E
:1029B00081630262F0BD000000000140000401409C
:1029C000F0B5026A036A23F4807303624368C46942
:1029D00022F4007224F073050C68124E2C438D68AB
:1029E00042EA05220E4DA84201D0B04206D1CF687E
:1029F00022F4006242EA072222F48062A84201D057
:102A0000B04207D14D6923F4405343EA05138D6961
:102A100043EA05134360C4614968C1630262F0BDC3
:102A2000000001400004014030B5046A026A22F44B
:102A3000805202624268C3690D6823F4E64343EAA8
:102A400005238D6824F4005444EA0534084DA84257
:102A500002D0084DA84204D14D6922F4804242EAD6
:102A600085124260C36149680164046230BD0000A0
:102A7000000001400004014010B5036A046A24F01C
:102A800001040462846924F0F00444EA021423F08F
:102A90000A020A438461026210BD10B5036A046A27
:102AA00024F010040462846923F0A00324F4704429
:102AB00044EA023243EA01118261016210BD000062
:102AC0000148FFF757B80000640300200148FFF7F2
:102AD00051B80000AC03002010B5806B0021C18507
:102AE000C184FFF745F810BD01680C3151E8002F93
:102AF00022F4907241E80023002BF5D101681431D3
:102B000051E8002F22F0010241E80023002BF5D10B
:102B1000016B012909D101680C3151E8002F22F025
:102B2000100241E80023002BF5D1202180F842104B
:102B300000210163704708B590F84210222901D0A6
:102B4000022008BD82684FF480539A4201D1016986
:102B500021B1816A9A421BD04AB10AE00268816AB7
:102B60005268C2F308020A80816A891C08E002697F
:102B700072B10268526802F07F020A70816A491CD1
:102B80008162C18D491E0904090CC18503D01BE077
:102B900002685268F1E70168CA6822F02002CA6040
:102BA0000168CA6822F48072CA6001684A6922F02A
:102BB00001024A61202180F8421000214163026B2A
:102BC000012A03D0FFF79EFA002008BD01630168C7
:102BD0000C3151E8002F22F0100241E80023002BB5
:102BE000F5D101680A68D20602D50A6849680091E1
:102BF000818DFEF7BCFFE7E770B504460068016908
:102C0000E26821F44051114301612169A068E26941
:102C100008436169114308432168CA6849F20C639B
:102C20009A430243CA6020684169A26921F4407155
:102C30001143416131492068884202D030498842BD
:102C400002D1FEF767F901E0FEF754F9E2690023CB
:102C5000192164253226B2F5004F626828D0A0FB06
:102C60000101930F9200FDF7ADFA0146B0FBF5F0BC
:102C70006FF01802504301EB800006EB0010B0FB30
:102C8000F5F000F0F002B1FBF5F002EB0012B1FB41
:102C9000F5F06FF01803584301EB800006EB0010CD
:102CA000B0FBF5F000F00F0021681044886070BDA3
:102CB000A0FB010192185B41FDF784FA0146B0FBCD
:102CC000F5F00201B1FBF5F06FF01803584301EB8A
:102CD000800006EBC000B0FBF5F000F0F80002EB5E
:102CE0004002B1FBF5F0584301EB800006EBC00059
:102CF000B0FBF5F000F00700D6E70000001001403F
:102D00000014014081628285C28500214164222134
:102D100080F84210016921B10168CA6842F48072EA
:102D2000CA6001684A6942F001024A610068C168EC
:102D300041F02001C160002070472DE9F84398461A
:102D400017460D460446089E24E0701C22D0FDF76D
:102D500097FFA0EB0800B0421AD8CEB12068C16836
:102D6000490717D5802D15D0402D13D00168C943D0
:102D700009070FD401680025406800902046FFF73E
:102D8000B3FE0820606484F840500120BDE8F88359
:102D90000320FBE72068006835EA000004D000202B
:102DA000B842D2D00020F1E70120F9E7034880794A
:102DB000002801D000F004B870470000D4010020C2
:102DC0002DE9F05FFB4C2DED108BA079002872D01F
:102DD000DFF8E483F9490025D8F8003008784A780C
:102DE000012B02D0022B07D01BE03F2819D1442A27
:102DF00017D1F34B1D6014E02A2812D1F14F0123A3
:102E0000CE5C012E03D0022E01D0032E03D107EB9E
:102E1000830C4CF8046C5B1C042BF1DB0323C8F817
:102E20000030E94B1E680123012E05D13F2803D154
:102E3000272A01D1E54E3360E54E3768022F04D1D1
:102E40003F2802D1612A00D13360E24E376827B9AA
:102E50003F2802D1622A00D13360D84EDFF8789340
:102E600096F806B0B788D9F800C0F678BCF1010F23
:102E700003D0BCF1020F2FD041E0BBF1210F3ED1B6
:102E8000DFF838C3DFF854830128BCF801C002D052
:102E9000022803D008E09CFA9CFC03E09CFA9CFC0E
:102EA000CCF1000CC8F800C0DFF834C3012E03D009
:102EB000022E04D009E0E7E397FA97F803E097FAC7
:102EC00097F8C8F10008CCF80080102A17D13F28E5
:102ED00015D1C9F8005012E0072A04D0082A06D0FC
:102EE000092A0AD00BE03F2809D1BE4A02E03F2858
:102EF00005D1BD4A13604D7001E03F2808D09946C6
:102F0000BA4B8A46C3F800904A78882A02D006E075
:102F1000B74AEFE73F2802D1B64BC3F80090B64955
:102F2000D1F800E0BEF1020F17DA2A2815D1DFF838
:102F300094C201211AF80130012B03D0022B01D0D9
:102F4000032B03D10CEB810848F8043C491C0729EA
:102F5000F0DBA94B0EF101011960DFF8A0C2DCF82B
:102F60000010012924D1BBF1210F21D1A44B01284C
:102F700002D0022804D00AE0BAF8011049BA03E0EE
:102F8000BAF8011049BA49421960196819609D4997
:102F9000012E02D0022E02D00AE07BBA01E07BBAF9
:102FA0005B420B600B68C3EBC3030B60CCF80050B3
:102FB00095490968012906D1032A04D13F2802D185
:102FC000924BC3F8009092490968012914D1914BA2
:102FD000072A04D0082A06D0092A0BD00CE03F2883
:102FE0000AD14A4602E03F2806D102221A608AF836
:102FF000015001E03F2811D0714909689FED86DB3F
:103000009FED879B9FED88AB9FED89BB9FED8ACBA2
:103010008B4FDFF83082012902D015E20322E5E769
:103020009AF8081056462129F7D162490128D1EDB6
:103030001C0A91ED1D0A91ED1E2AD1ED1B1A91ED8E
:103040001A1A02D0022843D08DE07078F8EEE00A18
:1030500002EE900AB8EEC00AF8EE622A62EEA02AEA
:1030600000EE900AF8EE600A70EE810A70EEA10A96
:1030700040EE202A00EE100AF8EE000AB8EE400AF0
:1030800001EE200AF8EEC20A30EE210A40EE802A54
:10309000BDEEE20A10EE100AE0670A2802DDB2EE89
:1030A000040A0DE0FDF759FA53EC1D2BFDF77AFAEF
:1030B00002D29FED650A03E094ED1F0AB8EEC00A44
:1030C00087ED000A707800EE100AB8EE400A46E07C
:1030D0007078B8EEC00A02EE900AF8EEE00AF8EE58
:1030E000622A71EE622A72EEA12A62EE802A00EE56
:1030F000100AB8EE400A40EEC02A00EE100AF8EEC0
:10310000000AB8EE400A11EE200AF8EEC20A30EECC
:10311000210A40EE802ABDEEE20A10EE100AE067B6
:1031200010F10A0F02DABAEE040A0FE0FDF715FA01
:103130009FED461B53EC112BFDF74CFA02D29FED8D
:10314000450A03E094ED1F0AB8EEC00A87ED000AB5
:10315000707800EE100AB8EE400AB1EE400A84ED35
:103160001A0A84ED1B0AB078012802D0022808D080
:1031700012E0B6F8030040BA00EE100AB8EE400ABA
:1031800008E0B6F8030040BA00EE100AB8EE400AB4
:10319000B1EE400A88ED000A7079012802D00228B9
:1031A0005AD064E0F08840BA00EE100AB8EE400A47
:1031B0005AE00000D401002058000020D60500206D
:1031C000840200205C000020980000209C00002069
:1031D000A0000020A4000020880000208000002023
:1031E000840000208C000020900000206C02002051
:1031F000940000207C000020780000202C0000209B
:10320000A0010020A401002048000020440000206C
:1032100024000020280000209A9999999999D93F73
:103220007B14AE47E17AB43F000000000000E03FAD
:103230007B14AE47E17A943FEC51B81E85EBD13F49
:10324000B8010020B0010020CDCCCC3E9A999999CC
:103250009999D9BFCDCCCCBEF08840BA00EE100A07
:10326000B8EE400AB1EE400AFE4880ED000A46463C
:10327000D8F80000FDF782F99FEDFBEB53EC1E2B15
:10328000FDF78AF8FDF7BEF908EE100AF548006868
:10329000FDF774F953EC1E2BFDF77EF8FDF7B2F93C
:1032A00038EE080AF0EE000A08EE900A84ED048A6F
:1032B000B0EE40EA08EE600AC4ED078A84ED058AA4
:1032C000C4ED088A84ED068AC4ED098A10EE100A5E
:1032D000FDF754F953EC192BFDF75EF853EC1A2B5C
:1032E000FDF75AF83EEE080A41EC1F0B10EE100AEB
:1032F000FDF744F953EC1B2BFDF74EF841EC1E0B88
:1033000018EE100AFDF73AF953EC1C2BFDF744F8C0
:1033100053EC1E2BFCF799FF53EC1F2BFCF795FF8A
:10332000FDF770F938EEA80AF0EE000A8346306027
:1033300008EEE00A10EE100AFDF720F953EC192B05
:10334000FDF72AF853EC1A2BFDF726F838EE880A19
:1033500041EC1E0B30EE080A10EE100AFDF70EF9D4
:1033600053EC1B2BFDF718F841EC1F0B18EE900ADD
:10337000FDF704F953EC1C2BFDF70EF853EC1F2B53
:10338000FCF763FF53EC1E2BFCF75FFFFDF73AF9E8
:10339000B449B74AB2EE0E0A08600146934501DD12
:1033A00086ED000AAF48914201DD80ED000AB14987
:1033B0003268BAEE0E0A8A4201D986ED000A026826
:1033C0008A4201D980ED000A96ED000A4FF07C5246
:1033D00010EE101A914208DAB5EEC00AF1EE10FABA
:1033E00003DDB6EE000A86ED000A90ED000A10EE4D
:1033F000101A914208DAB5EEC00AF1EE10FA03DDB8
:10340000B6EE000A80ED000A96ED000A4FF03F424A
:1034100010EE101A914208D2B5EEC00AF1EE10FA81
:1034200003D2BEEE000A86ED000A90ED000A10EE0F
:10343000101A914208D2B5EEC00AF1EE10FA03D28A
:10344000BEEE000A80ED000A9AF8016050469FED3A
:103450008AFA442E0ED189490A68012A0AD10278D3
:103460003F2A07D10D607F4988ED00FA81ED00FA0F
:1034700087ED00FA824A1168012904D101780129F7
:1034800002D0022946D091E000EE106AF8EE400A20
:1034900094ED1C0AB8EEC00A60EE800A00EE106AD5
:1034A000B8EE401A94ED1A0A71EE001A94ED1B1A48
:1034B00031EE812AD4ED1D1AF8EEE11A41EE820AAE
:1034C00001EE906AB8EE002AF8EE611A40EE021A98
:1034D00094ED1E0AB8EEC00A31EE811A40EE010AE0
:1034E000BDEEE00A10EE101AE167052902DDB1EE2B
:1034F000040A08E0012902DAB7EE000A03E000EE50
:10350000101AB8EEC00A87ED000A00EE106AB8EE95
:10351000400A47E000EE106AF8EE400A94ED1A0AFD
:1035200030EE601AD4ED1B0A71EE201A94ED1D1ACC
:10353000B8EEC11A21EE811A01EE906AB8EE612A46
:10354000D4ED1C1AF8EEE11A01EEC21A01EE906AEF
:10355000B8EE002AF8EE611A50EE021A94ED1E0A37
:10356000B8EEC00A71EEA00A00EE201ABDEEC10A44
:1035700010EE101AE16711F1050F02DAB9EE040A34
:1035800008E0002902DBBFEE000A03E000EE101A9B
:10359000B8EEC00A87ED000A00EE106AB8EE400AE5
:1035A000B1EE400A84ED1A0A84ED1B0A272E02D0E0
:1035B000282E07D00BE09AF800003F2807D187EDAE
:1035C00000FA03E09AF800003F2800D115602D486A
:1035D000006801287ED19AF800105046012902D0D7
:1035E000022905D00CE000EE106AB8EE400A05E0B2
:1035F00000EE106AB8EE400AB1EE400A88ED000A0B
:103600008178012902D0022907D011E09AF803003D
:1036100000EE100AB8EE400A07E09AF8030000EE48
:10362000100AB8EE400AB1EE400A0E4880ED000ADA
:103630004746D8F80000FCF7A1FF53EC1D2BFCF720
:10364000ABFEFCF7DFFF08EE100A06480068FCF747
:1036500095FF53EC1D2BFCF79FFEFCF7D3FF08EE04
:10366000900A12E0B40100209A9999999999C93F5A
:1036700000007041000070C10000000084020020C2
:10368000600200206402002037E138EE08EAF0EE24
:1036900000FA84ED048AC4ED078AB0EE4E0A84ED88
:1036A000058A08EE6F0AC4ED088A84ED068AC4ED27
:1036B000098A10EE100AFCF761FF53EC192BFCF796
:1036C0006BFE53EC1A2BFCF767FE41EC1D0B3EEE34
:1036D000080A00E0AFE010EE100AFCF74FFF53ECD1
:1036E0001B2BFCF759FE41EC1E0B18EE100AFCF7E1
:1036F00045FF53EC1C2BFCF74FFE53EC1E2BFCF745
:10370000A4FD53EC1D2BFCF7A0FDFCF77BFF38EE6E
:10371000A80A8346386008EEEF0A10EE100AFCF79C
:103720002DFF53EC192BFCF737FE53EC1A2BFCF74B
:1037300033FE38EE880A41EC190B30EE080A10EE21
:10374000100AFCF71BFF53EC1B2BFCF725FE41EC8A
:103750001A0B18EE900AFCF711FF53EC1C2BFCF728
:103760001BFE53EC1A2BFCF770FD53EC192BFCF7E6
:103770006CFDFCF747FF6349634A086001469345C7
:1037800003DDB2EE040A87ED000A5E48914203DDD4
:10379000B2EE040A80ED000A5C493A688A4203D915
:1037A000BAEE040A87ED000A02688A4203D9BAEE2B
:1037B000040A80ED000A97ED000A4FF07C5210EEEB
:1037C000101A914208DAB5EEC00AF1EE10FA03DDE4
:1037D000B6EE000A87ED000A90ED000A10EE101A0E
:1037E000914208DAB5EEC00AF1EE10FA03DDB6EE4A
:1037F000000A80ED000A97ED000A4FF03F4210EEFC
:10380000101A914208D2B5EEC00AF1EE10FA03D2B6
:10381000BEEE000A87ED000A90ED000A10EE101AC5
:10382000914208D2B5EEC00AF1EE10FA03D2BEEE14
:10383000000A80ED000A9AF800105046172902D0BD
:10384000182911D004E02F4A88ED00FA82ED00FA21
:10385000DFF8BCC02F4F304B304A392E08D0402EF5
:103860000BD0412E12D017E02D4A1560E560EAE733
:10387000DCF80060012E0DD00EE0DCF80060022EB6
:1038800008D009E03D601D6015602DE0DCF80060A7
:10389000032E01D13F29F5D03E68012E24D186792F
:1038A000212E21D11F4E012902D0022904D00AE085
:1038B000B0F8011049BA03E0B0F8011049BA494222
:1038C0001960C6F80090C178012902D0022904D0FD
:1038D0000AE0BAF8040040BA03E0BAF8040040BABB
:1038E00040421060C6F80090A5713221BDEC108BEB
:1038F000BDE8F05F0C48FCF79DBCBDEC108BBDE84B
:10390000F09F0000B401002000002041000020C111
:1039100054000020500000207C0100208001002085
:103920006402002074000020D60500200148FEF744
:1039300021B90000F40300200148FEF71BB9000084
:103940003C0400200148FEF715B900008404002063
:10395000F0B585B0054602262020CDE900060024FA
:103960000320CDE9024007200E4F049069463846F7
:10397000FDF780F84020CDE9000669463846FDF79E
:1039800079F80A4908480860C1E901540C20CC6064
:10399000C1E904408C610846CC61FEF723FA05B00A
:1039A000F0BD0000000C0240004400405C05002017
:1039B00010B513460C460A4601460448FEF73CFB88
:1039C00008B1002010BD20B210BD00005C05002031
:1039D0000A4601464FF0FF330148FEF7FDBB0000E9
:1039E0005C050020FEE77CB515460646002903DA93
:1039F000484240F4004001B26C460A46601C8DF813
:103A00000030411CFEF73AFC0022211DE01CFEF7AD
:103A100035FC2A46A11D601DFEF730FC07236A46CF
:103A20002921304600F000FD7CBD00000FB4054B9D
:103A300010B503A9044A029800F0FEF810BC5DF826
:103A400014FB000011440008880200200FB4084B4A
:103A500010B504A902AA039800F0EEF8044602A9E2
:103A6000002000F06CFC204610BC5DF814FB000048
:103A70003F4300080907090E002804DB00F1E0209D
:103A800080F80014704700F00F0000F1E02080F88B
:103A9000141D704702E008C8121F08C1002AFAD19D
:103AA00070477047002001E001C1121F002AFBD1BE
:103AB000704700002DE9FF5F82B00021DDE904308E
:103AC000020DDDF840B0034318D044F61050A2F2C6
:103AD000FF3242431514119801281FD0A5EB0B00AB
:103AE000401C5FEA000A4FF000064E4FDFF83891A5
:103AF000B046504615D5CAF1000413E011980124D0
:103B00004AA3012801D16FEA0B010298119AC0E97A
:103B10000031C0E9024206B0BDE8F09FCBF10000E1
:103B2000DFE704460021404A491842EB0450CDE942
:103B3000001012E0E00707D032463B4640464946B7
:103B4000FCF72AFC8046894632463B461046194619
:103B5000FCF722FC06460F466410002CEAD1DDE992
:103B60000401DDE90023BAF1000F06DAFCF714FCCA
:103B700042464B46FCF710FC05E0FCF77FFC424652
:103B80004B46FCF77BFC04460E460022284BFCF714
:103B900021FD03D84FF0FF30014607E00022254BFE
:103BA00020463146FCF751FBFCF723FE102409E0C8
:103BB000002C0ADB0A220023FCF704FB039B3032B3
:103BC0001A55641E50EA0102F2D1641C039AC4F132
:103BD00011031444119A012A03D0012208430DD184
:103BE0000AE0084304D000204FF0110B119072E757
:103BF000A3EB0B056D1E0DE05B4504DD4FF00002ED
:103C000005F1010504E003DA4FF00002A5F101051A
:103C1000002AECD002981199C0E90231C0E90045B0
:103C200079E70000000014400000F03F3000000081
:103C30000000F0430000E03F2DE9FF4F95B09A46A9
:103C4000884606460025EEE1252877D10024274640
:103C5000F94A0121039400E0044316F8013F203B98
:103C600001FA03F01042F7D130782A2811D06FF012
:103C70002F033078A0F13002092A16D8039A44F0B5
:103C8000020402EB820203EB42021044761C039012
:103C9000EFE758F8042B0392002A03DA504244F469
:103CA0000054039044F00204761C30782E2816D17C
:103CB00016F8010F44F004042A280DD06FF02F02EB
:103CC0003078A0F13003092B09D807EB870302EB0A
:103CD0004303C718761CF3E758F8047B761C30784A
:103CE0006C280FD006DC4C2817D068280DD06A2825
:103CF00014D104E0742810D07A280FD10DE044F4D8
:103D000000140AE044F4801401E044F44014727892
:103D1000824202D104F58014761C761C3078662825
:103D20000BD013DC582877D009DC002875D0452843
:103D3000F6D04628F4D047281AD193E118E063283A
:103D400035D0642879D0652812D18BE1702873D0E2
:103D500008DC6728F1D069286FD06E280DD06F2855
:103D600006D1ACE073282CD0752874D0782853D0B5
:103D70005246179990476D1C54E1C4F30250022833
:103D800009D003280DD0D8F8001004280DD00D60FC
:103D900008F1040846E1D8F80010EA17C1E900521A
:103DA000F6E7D8F800100D80F2E70D70F0E718F88C
:103DB000041B8DF8001000208DF80100EB46012057
:103DC00003E058F804BB4FF0FF3061074FF00001EB
:103DD00002D40DE009F101018946B9420FDA8145AB
:103DE000F8DB1BF809100029F4D108E009F1010102
:103DF00089468142FADB1BF809100029F6D10398A5
:103E00005346A0EB090721463846179A00F080FA7E
:103E1000284400EB090507E044E008E10DE01BF849
:103E2000010B524617999047B9F10109F7D2534651
:103E300021463846179AF2E039E00A21C4F30252CB
:103E40004FF0000B0091022A06D058F8040BC1175E
:103E5000032A09D00AE023E008F1070020F0070256
:103E6000F2E80201904605E000B2C117042A01D130
:103E700040B2C117002906DA0A460021404261EB30
:103E800002012D2202E0220504D52B228DF8042008
:103E9000012203E0E20701D02022F7E7914657E034
:103EA0000A2100E010214FF0000B00910BE01021DF
:103EB0004FF0000B44F004040827009103E00820B1
:103EC0004FF0000B0090C4F30252022A05D058F8BC
:103ED000040B0021032A08D008E008F1070020F0B5
:103EE0000702F2E80201904603E080B2042A00D102
:103EF000C0B24FF0000922072AD53278702A07D0C5
:103F0000DDF800C08CF0100C5CEA0B0C05D00EE064
:103F100040228DF80420012208E050EA010306D077
:103F200030238DF804308DF8052002229146009B45
:103F300083F0080353EA0B030AD150EA010201D1CE
:103F4000620705D530228DF804204FF001097F1E4D
:103F50003278582A04D039A20C920CAA02920BE0B3
:103F60003BA2F9E75B46009AFCF72CF90C9B9B5CA3
:103F7000029A521E0292137050EA0102F2D1029884
:103F800004A9081A00F1200B600702D524F480343C
:103F900000E001275F4502DDA7EB0B0000E00020F9
:103FA00000EB0B01009003984944401A0390E00392
:103FB00006D453462146179A039800F0A9F9054400
:103FC000002706E001A85246C05D179990476D1C76
:103FD0007F1C4F45F6DBE0030CD553462146179A6C
:103FE000039800F095F9054404E0302052461799F3
:103FF00090476D1C0099481E00900029F5DC08E0F0
:104000000298029952460078491C029117999047EC
:104010006D1CBBF10001ABF1010BF1DC5BE100F0C9
:1040200065F90544761C307800287FF40DAE19B090
:104030002846BDE8F08F00000928010030313233F6
:1040400034353637383961626364656600000000D4
:1040500030313233343536373839414243444546BE
:1040600000000000600700D4062708F1070020F0D8
:104070000700F0E80223804603F0004C5FEA0C00E2
:1040800001D097A009E0200501D596A005E0E00742
:1040900001D095A001E0AFF24C001390307823F0EE
:1040A000004365280CD006DC452809D046281DD0E1
:1040B00047287FD13BE0662818D067287AD136E0C0
:1040C0000021112F01DB112000E0781CCDE9000157
:1040D00004A90CA8FFF7EEFCDDE90D010C9A4FF0E6
:1040E000000B07F10109109200914EE04FF00040E3
:1040F0000097CDE9011004A90CA8FFF7DBFCDDE96E
:104100000D020C9B0F994FF0000B914610930092FB
:1041100011B9791C00EB0109B7EB090003D4C0F118
:10412000FF3B07F10109A9EB0700019042E0012FD5
:1041300000DA01270021112F01DD112000E03846AF
:10414000CDE9000104A90CA8FFF7B4FCDDE90D01DD
:104150000C9A00914FF0000BB946109221070FD432
:10416000009A4A4503DA914601E0A9F10109B9F143
:10417000010F05DD109AA9F10101515C3029F4D03D
:10418000B84202DA10F1040F03DA0121CDE901107F
:1041900010E0002803DC8344A9EB000102E0411C8D
:1041A000494500DD8946A0EB0B00401C01904FF013
:1041B00000400290200705D40198484502DB4FF0EB
:1041C000FF30019000208DF84B0002980DF14B0755
:1041D000B0F1004F25D002200C902B200D900298BA
:1041E00000280CDA404202902D200D9007E00A21B1
:1041F0000298FCF723FA3031029007F8011D0C9960
:10420000481E0C900029F2DC02980028EFD1791E9C
:104210000D980870307800F0200040F0450007F855
:10422000020D11A8C01BC01D02901398007800B1A8
:10423000012000EB0901019801EBE07102980144B3
:104240000398401A401E0390E00306D453462146CB
:10425000179A039800F05CF805441398007818B199
:104260005246179990476D1CE00323D553462146CB
:10427000179A039800F04CF805441BE0BBF1000FBF
:1042800007DB0098584504DD1098179910F80B00CB
:1042900001E0179930205246904701980BF1010B2D
:1042A000401E05F10105019004D12E2052461799B8
:1042B00090476D1CB9F10001A9F10109DEDC05E0B0
:1042C00017F8010B5246179990476D1C0299481E2A
:1042D00002900029F4DC53462146179A03989EE683
:1042E0002D0000002B000000200000002DE9F0410F
:1042F000044600251E461746880404D405E03946C6
:104300002020B0476D1C641EF9D52846BDE8F08119
:104310002DE9F041044600251E469046C80301D50C
:10432000302700E02027880404D505E041463846C0
:10433000B0476D1C641EF9D52846BDE8F0810A68B7
:10434000531C0B601070704710B50420FEF7B0F9D5
:1043500040F2DC5188420EDD074C40F6FF72B4F8A3
:10436000740094F82C3001B2042000F04FF804F1EE
:104370008001606FC86210BDD800002038B50024ED
:1043800025460121684600F011FB00280FD09DF85A
:104390000010E0B260F30F2461F30704FF2901D19C
:1043A000FF2805D06D1CEDB20A2DEAD9002038BDDA
:1043B000012038BD10B50220FEF77AF90C498A6D4C
:1043C000A2F5487290420ADD11F82C3F4FF47A6250
:1043D000088DBDE8104001B2022000F017B832236A
:1043E000BDE81040102203A10748FDF7F5BE00000C
:1043F000D8000020636C61775F746F6F6F6F6F5FC1
:104400006261636B0000000084040020FFF7EBBAD8
:1044100013B54FF6FF73012269460248FDF7DCFE33
:1044200000981CBDAC030020F8B51C4615460E468E
:10443000074600F0B9FA0320009023462A46314689
:10444000384600F0BFFC00F099FC3846BDE8F84063
:10445000FCF726BA2DE9F0478946804600F014FCA7
:1044600000F05EFA00F094FA4FF4FA763046FCF76A
:10447000EFFAB2002C4D570005F18004B8F1010F9E
:1044800006D0B8F1020F15D0B8F1030F24D035E0F3
:10449000A08915F82C3F01B20320FFF7B7FFE068B1
:1044A0002063208A2B7801B23A460420FFF7AEFF42
:1044B000206922E0208B15F82C3F01B20320FFF782
:1044C000A5FFA0692063A08B2B7801B23A46042097
:1044D000FFF79CFFE06910E0208815F82C3F01B23F
:1044E0000320FFF793FF20682063A0882B7801B298
:1044F0003A460420FFF78AFF6068E062C820FCF7B4
:10450000A7FAB9F1010F07D000F01EFA4FF461705D
:10451000BDE8F047FCF79CBA3046FCF799FA00F08A
:104520001FFA3046F4E70000D80000208AB0FCF7FC
:10453000B5FBFEF7EFF8FDF7B1FEFEF711F8FEF759
:104540002BF8FEF745F8FDF701FFFDF735FFFDF706
:1045500069FFFDF7E9FFFDF7CBFF01225049514804
:10456000FDF7C2FD012250495048FDF7BDFD5048FE
:10457000FCF796FF4F48FCF793FF00214E48FDF7EC
:1045800097F904214C48FDF793F908214A48FDF7B3
:104590008FF90C214848FDF78BF94FF47A7948469A
:1045A000FCF756FA00F0B2F96420FCF751FAFFF775
:1045B000CBFE012000F0F2FB00F0EAF9FFF7FAFE73
:1045C00000F0B8F9012000F073FB4FF46170FCF7C4
:1045D0003FFA3A4D4FF001084646C5F8588000F0C2
:1045E000CBF93223022236A12E48FDF7F5FD354CDA
:1045F000354F266000263E6007E000BF00F0F0F96E
:104600003220FCF725FA206818B13868296A8842F8
:10461000F4DB266000F060FB00F096F94846FCF7FA
:1046200017FA32230B2229A11E48FDF7D5FDC4F845
:1046300000803E6000F0D4F93220FCF709FA2068CF
:104640000028F7D100F048FB0220A86500210120D6
:104650002660FFF7FFFE4FF4FA70FCF7F9F93223FA
:104660000B221AA10F48FDF7B7FD02E06420FCF70A
:10467000EFF9A86D0328F9D110485C3081680091EA
:104680004368026814A101A8FFF7E0F901A915A089
:10469000FFF7CCF94C462046FCF7DAF9FBE70000BF
:1046A000D501002084040020D8010020AC030020A4
:1046B0008C020020D40200201C03002000000020F7
:1046C0004949000084020020540200206E65617296
:1046D0002067726F756E640025642C25642C256438
:1046E0000000000074302E7478743D22257322FF80
:1046F000FFFF000070EE602A30EE202AB5EEC00AFF
:104700000122FCEEE21ABCEEC21A08B5F1EE10FA74
:1047100037DBF5EEC00AF1EE10FA32DB30EE600A5C
:104720000629B1EE400ABCEEC00A29D2DFE801F04A
:104730002803070B18E911EE101A00927BE011EE26
:10474000101A00928AE0F5EEC02AF1EE10FA03DBAF
:1047500011EE901A0092BEE010EE101A00925AE08C
:10476000F5EEC02AF1EE10FA04DB00BF11EE901A4C
:104770000092C1E010EE101A009250E0FCF7ECF845
:1047800008BDB5EEC00AF1EE10FA24DBF5EEC00A62
:10479000F1EE10FA1FD20629F2D2DFE801F005048B
:1047A000030613B2E2E7D3E7EAE7B5EEC02AF1EE7B
:1047B00010FAC0DAB1EE420A0092BCEEC00A10EE66
:1047C000101A3EE0B5EEC02AF1EE10FAB7DA11EE9B
:1047D000101A009248E070EEC01AB5EEC00ABCEEA6
:1047E000E11AF1EE10FA44D2F5EEC00AF1EE10FA39
:1047F0003FDB70EE801A70EE800A0629BCEEE00AFC
:10480000F1EE600AFCEEE00ABAD2DFE801F0035DE7
:104810006E0C1F7AB4E78AB2034601215EE08AB2C9
:10482000034600216BE0F5EEC01A0092F1EE10FA9B
:1048300005DB10EE101A03468AB2002104E010EEE8
:10484000901A03468AB20121012097E7F5EEC01ABB
:104850000092F1EE10FA05DB10EE101A03468AB250
:10486000012104E010EE901A03468AB200210420D0
:1048700084E7B5EEC00AF1EE10FA81D2F5EEC00A77
:10488000F1EE10FA90D2B1EE402A30EEC00A32EECC
:10489000602A0629B1EE400ABCEEC22ABCEEC00A6C
:1048A000B8D2DFE801F00304080C1D2E68E712EE11
:1048B000101A0092C5E712EE101A0092D4E7F5EE36
:1048C000C01AF1EE10FA03DB11EE101A0092A2E703
:1048D00010EE101A009203468AB2002102204DE722
:1048E000F5EEC01AF1EE10FA03DB11EE101A009289
:1048F00095E710EE101A009203468AB201210320B8
:104900003CE7BDE808400020FCF710B84FF4E13068
:10491000FFF71EB84FF4FA70401E80B2FCD2704709
:10492000034902480968406888637047D80000203E
:104930001C03002003490248096800688863704727
:10494000D80000201C030020044840F6FF7210F835
:10495000303F808B01B20120FFF758BDD800002006
:10496000044840F6FF7290F82C30808E01B201208E
:10497000FFF74CBDD8000020044840F6FF7210F845
:10498000303F008B01B20120FFF740BDD80000206E
:10499000044840F6FF7210F8303F808A01B20120CF
:1049A000FFF734BDD8000020FFF7B4BF024A89B238
:1049B0005268FEF7FDBF0000CC00002008B50223BE
:1049C0006A46FDF725FE022802D04FF0FF3008BDF1
:1049D0009DF801109DF80000FDF78CFE80B208BD27
:1049E00038B55B4CD4ED020A94ED010A94ED041A3B
:1049F00050EE010A94ED031A70EEC10AFDEEE00AD2
:104A000010EE900AA061D4ED020A94ED041A50EE63
:104A1000010A94ED031A70EE810AFDEEE00A10EE31
:104A2000900AE061D4ED020A94ED041A40EE010A06
:104A300094ED031A70EEC10AFDEEE00A10EE900A42
:104A40002062D4ED020A94ED041A40EE010A94EDBE
:104A5000030A30EE800ABDEEC00A10EE100A606252
:104A6000A1696069814200DDA061E169814200DDE8
:104A7000E061216A814200DD2062616A814200DDDD
:104A80006062A1694042814200DAA061E16981422D
:104A900000DAE061216A814200DA2062616A8142C3
:104AA00000DA6062A069012500280095A06903DB97
:104AB000002382B2012103E04042002382B2194662
:104AC0000120FBF749FF0A20FBF7C2FFE0690095D0
:104AD0000028E06903DB002382B2012103E04042A9
:104AE000002382B219460220FBF736FF0A20FBF7AB
:104AF000AFFF206A00950028206A03DB002382B202
:104B0000012103E04042002382B219460320FBF753
:104B100023FF0A20FBF79CFF606A00950028606A6B
:104B200003DB002382B2012103E04042002382B272
:104B300019460420FBF710FF0A20FBF789FF00202D
:104B4000FBF7F4FEBDE838400A20FBF781BF000008
:104B5000A80100204B4A08B5D2ED000AB5EEC00A04
:104B60000120FCEEE00AF1EE10FA30DBBCEEC00AE8
:104B7000062919D2DFE801F018030C19226400900D
:104B800010EE900A0121C3B210EE100A82B237E093
:104B9000009010EE900A0121C3B210EE100A82B20A
:104BA00038E000BFFBF7D8FE08BD009010EE900A79
:104BB0000121C3B210EE100A82B235E0009010EE6F
:104BC000900A0121C3B210EE100A82B236E0B5EEAF
:104BD000C00AF1EE10FA38D2B1EE400A0629BCEE56
:104BE000C00AE1D2DFE801F003040E18222CDBE753
:104BF000009010EE900A0021C3B210EE100A82B2AB
:104C00000120CFE7009010EE900A0021C3B210EE11
:104C1000100A82B20220C5E7009010EE900A00212F
:104C2000C3B210EE100A82B20320BBE7009010EE70
:104C3000900A0021C3B210EE100A82B20420B1E73C
:104C4000BDE808400020FBF771BEB5EEC00AF1EEEA
:104C500010FAA9D101290BD002290CD003290DD0BB
:104C60000429A1D101210420BDE80840FBF746BE7C
:104C700001210846F8E701210220F5E70121032080
:104C8000F2E70000A80100200849074A0128096846
:104C900005D0022805D0032805D1D06902E050696B
:104CA00000E0906908647047D80000201C030020D1
:104CB0000849074A0128096805D0022805D00328B9
:104CC00005D1906A02E0106A00E0506A08647047FB
:104CD000D80000201C03002010B500210120FBF7A4
:104CE0000DFE0A20FBF7B4FE00210220FBF706FEB2
:104CF0000A20FBF7ADFE00210320FBF7FFFD0A2091
:104D0000FBF7A6FE00210420FBF7F8FDBDE81040EC
:104D10000A20FBF79DBE000008B50021ADF8001089
:104D20000A49C0F3080048604FF4FA5209E000BF96
:104D3000BDF80000401CADF80000BDF80000904236
:104D400002D808680006F3D508BD00000010014035
:104D500038B5054600200C468DF800008DF800009F
:104D60009DF80000A04208D29DF80000285CFFF7E3
:104D7000D3FF9DF80000401CF0E738BD10B5054C8E
:104D80002178002904D00448FEF722FE002020707C
:104D900010BD0000CC000020CC04002010B501287C
:104DA0000DD107484FF47A7200F1800490F82C304E
:104DB000208C01B20320FFF729FB206A206310BD7D
:104DC000D80000202DE9FF478046DDF830904FF0F5
:104DD00000008DF808004FF0FF008DF800008DF8FE
:104DE00001001C4615000F464FF002068DF80280A8
:104DF0008DF8049007D0E01CC6B28DF803608DF8E2
:104E00000570062102E08DF803600521684600F078
:104E100023F808EB060101EB090038448DF808007F
:104E20007DB1002107E0685C9DF80820491C104412
:104E30008DF80800C9B2A142F5D32146284600F0FA
:104E40000BF89DF808000121C0438DF8080002A866
:104E500000F002F8BDE8FF8730B5074B074C07E0CC
:104E60001A78802A04D210F8015BA554521C1A70DB
:104E7000491EF5D2187830BDCC000020CC040020AB
:104E800000000000000000000102030406070809FA
:104E90000000000001020304B84E000800000020DA
:104EA0008C02000048080008584F00088C020020BF
:104EB00064080000A43A00084172C8327832B47223
:104EC0009623E8030312F401091113D19A0528323D
:104ED000021947B90C0134294082100B1724F484BD
:104EE000726432683256325C324A324E321932457E
:104EF000DA6F0C29F432F01B840828220423F80707
:104F000023C10C1A18B11A350C1A350C1BEC068487
:104F1000220D1A360829041A081823D80E23FA0F6E
:104F20001A3438290C4B900A041A59145AE42029CF
:104F30000C1AA6085AE20C4B310B242908812910BF
:104F40009A07100116233443C3803F0223140263DF
:084F500001093A64B2C8000037
:040000050800018965
:00000001FF
