:020000040800F2
:10000000100B0020A1010008B325000821220008E0
:10001000B1250008050900088D390008000000001E
:10002000000000000000000000000000B5260008ED
:100030000709000800000000B5250008B7260008E1
:10004000BB010008BB010008BB010008BB010008A0
:10005000BB010008BB010008BB010008BB01000890
:10006000BB010008BB010008BB010008BB01000880
:10007000BB010008BB010008BB010008BB01000870
:10008000BB010008BB010008BB010008BB01000860
:10009000BB010008BB010008BB010008BB01000850
:1000A000BB010008BB010008BB010008BB01000840
:1000B000612700086D27000879270008BB010008A8
:1000C000BB010008BB010008BB010008BB01000820
:1000D000BB010008D5380008E1380008ED380008F9
:1000E000BB010008BB010008BB010008BB01000800
:1000F000BB010008BB010008BB010008BB010008F0
:10010000BB010008BB010008BB010008BB010008DF
:10011000692A0008752A0008BB010008BB01000815
:10012000BB010008BB010008BB010008BB010008BF
:10013000BB010008BB010008BB010008BB010008AF
:10014000BB010008BB010008BB010008BB0100089F
:10015000BB010008BB010008BB010008BB0100088F
:10016000BB010008BB010008BB010008BB0100087F
:10017000BB010008BB010008BB0100080000000033
:10018000BB010008BB010008DFF810D000F050FBF5
:1001900000480047214A0008AFF30080100B002000
:1001A0000648804706480047FEE7FEE7FEE7FEE711
:1001B000FEE7FEE7FEE7FEE7FEE7FEE75127000861
:1001C000890100082DE9F05F0546002092469B4614
:1001D00088460646814640241BE02846414647465D
:1001E000224600F056FA53465A46C01A914110D39F
:1001F00011461846224600F03DFA2D1A67EB010819
:100200004F4622460120002100F034FA17EB000986
:100210004E41201EA4F10104DFDC484631462A4647
:100220004346BDE8F09FD2B201E000F8012B491E21
:10023000FBD270470022F6E710B513460A46044683
:100240001946FFF7F0FF204610BD421C10F8011BB5
:100250000029FBD1801A70472DE9FE4F804681EAC4
:100260000300C00F0C46009021F0004123F0004530
:10027000B8EB0200A94105D24046214690461C46F3
:100280000B46024623F00040104347D0270DC7F32A
:100290000A00C3F30A510290401A019040286BDA19
:1002A000C3F3130040F4801B0098924620B1002352
:1002B000D2EB030A63EB0B0B01985946C0F14002E5
:1002C000504600F0D7F906460D4650465946019A69
:1002D00000F0EFF910EB08006141002487EA1152A9
:1002E00084EAE7731A4340D0009A62B3019A012A64
:1002F0004FEA075215DC001B61EB02014FF0004290
:1003000002EA0752CDE90042001C41F58011324655
:100310002B4600F026FA03B0BDE8F08F4046214698
:10032000F9E7001B61EB0201001C41F58013001886
:100330005B412018A2F5001747EB030140EAD57096
:10034000B6196D4111E06D084FEA360645EAC075F1
:100350004FEA0752001B61EB0201001C41F58011BE
:1003600049084FEA30000019514132462B4603B08C
:10037000BDE8F04F00F0E6B90098012240000023EC
:10038000D0EB020263EBE073009821464FEAE07481
:10039000B8EB000061EB0401E9E783F000435BE7A1
:1003A00081F0004158E72DE9FE4F81EA030404F093
:1003B000004421F0004100944FF0000B23F0004373
:1003C00050EA01045ED052EA03045BD0C3F30A543E
:1003D000C1F30A552C44A4F2F3340194A0FB025457
:1003E000C1F3130141F48011C3F3130343F48013E9
:1003F00001FB024400FB034E840A970A44EA81543D
:1004000047EA8357A4FB076802958D0A05FB078519
:100410004FEA932C04FB0C542705029D4FEA065823
:1004200047EA1637B5EB08056EEB070C870E920E00
:1004300047EA811742EA8312A7FB0201B6EB0B01E0
:1004400064EB00042B0D43EA0C335E1844EB1C50A4
:10045000DA465146E7FB0201C5F313044FEA0B33BA
:1004600043EA14534FEA0432019C43EA0603A4F121
:100470000C040294009CCDE900B400F072F903B0C2
:10048000BDE8F08F00200146F9E72DE9F04D81EA43
:10049000030404F0004B21F0004514464FF0000A1D
:1004A00023F0004150EA050220D054EA01021DD099
:1004B000C5F30A570246C5F31303C1F31300C1F392
:1004C0000A5640F4801543F48013A7EB0608101B6E
:1004D000D64608F2FD3873EB050002D308F1010897
:1004E00001E092185B41B8F1000F03DA00200146E9
:1004F000BDE8F08D00204FF48011064684460EE0E2
:10050000171B73EB050705D3121B63EB05030643AB
:100510004CEA010C49084FEA300092185B4150EA5E
:100520000107EDD152EA030012D082EA040083EA07
:100530000501084305D0101BAB4106D20122002360
:1005400006E000224FF0004302E06FF0010253107A
:100550001AEB06004CEB085110EB0A0041EB0B01C3
:10056000BDE8F04D00F0EEB80EB5C10F80EAE070C6
:100570000844CA07002140F233438DE80E000A46C2
:100580000B4600F0EEF803B000BD00F0004230F082
:1005900000400AD0C10D01F56071C0F3160042EAB7
:1005A0000151C208400711437047002001467047BF
:1005B00030B5041E71F1000404DB4FF000444042EA
:1005C00064EB0101141E73F1000405DB1C464FF0BF
:1005D0000043524263EB04038B4208BF824230BDAA
:1005E00030B5041E71F1000404DB4FF000444042BA
:1005F00064EB0101141E73F1000405DB1C464FF08F
:100600000043524263EB0403994208BF904230BD5D
:1006100001F0004330B421F0004150EA010206D05D
:100620000A0DA2F56072C1F31301002A02DC30BC8E
:1006300000207047440F44EAC104C100E01830BCF8
:1006400000EBC25000F047B830B50B460146002021
:100650002022012409E021FA02F59D4205D303FA84
:1006600002F5491B04FA02F52844151EA2F1010205
:10067000F1DC30BD202A04DB203A00FA02F1002030
:1006800070479140C2F1200320FA03F319439040D0
:100690007047202A04DB203A21FA02F0002170473B
:1006A00021FA02F3D040C2F12002914008431946DA
:1006B0007047202A06DBCB17203A41FA02F043EAC2
:1006C000E07306E041FA02F3D040C2F1200291400B
:1006D0000843194670470029A8BF7047401C4900CD
:1006E00008BF20F00100704710B4B0FA80FC00FA97
:1006F0000CF050EA010404BF10BC704749B1CCF1C2
:10070000200421FA04F411FA0CF118BF012121434D
:100710000843A3EB0C01CB1D4FEA00614FEA102008
:1007200042BF002010BC704700EBC35010440029AA
:10073000A4BF10BC7047401C490008BF20F0010056
:1007400010BC704710B5141E73F1000408DA401C89
:1007500041F1000192185B411A4301D120F00100E0
:1007600010BD2DE9F04D92469B4611B1B1FA81F2D0
:1007700002E0B0FA80F220329046FFF77BFF044699
:100780000F4640EA0A0041EA0B0153465A46084325
:1007900013D0114653EA010019D0C8F14002504667
:1007A000FFF777FF05460E46504659464246FFF78B
:1007B00061FF084305D0012004E020463946BDE82A
:1007C000F08D0020054346EAE0762C4337430A9833
:1007D0006305E40AA0EB08000022FD0A44EA47543E
:1007E0000A3002D500200146E9E7010510196941E8
:1007F000DDE9084500196941BDE8F04DA2E7C1F304
:100800000A52C1F3130140F2FF3341F480119A42BE
:1008100002DA00200146704740F233439A42A2F2C6
:10082000334202DC5242FFF734BFFFF723BF000020
:10083000064C074D06E0E06840F0010394E807002D
:1008400098471034AC42F6D3FFF7A2FCB455000829
:10085000D455000870B58C1810F8015B15F007032B
:1008600001D110F8013B2A1106D110F8012B03E049
:1008700010F8016B01F8016B5B1EF9D12B0705D451
:100880000023521E0DD401F8013BFAE710F8013B9A
:10089000CB1A921C03E013F8015B01F8015B521EB6
:1008A000F9D5A142D8D3002070BD000038B5054667
:1008B000134C0020FE2DA07020D02078F0B103F062
:1008C0001BFF002818D00421684604F0FDFB042813
:1008D00011D19DF80000A8420DD19DF80110022908
:1008E00009D19DF80210801C0844C0439DF80320E4
:1008F000C0B2824201D0002038BDA170012038BDB5
:10090000C8000020FEE770471FB5002200928DF856
:100910000000FE208DF8010098208DF80200019261
:100920006B208DF803108DF80400029203920521CC
:10093000684604F09BFD1FBD1FB5002100918DF896
:100940000000FF208DF8010066208DF802006B206A
:100950000191029103918DF803000421684604F08F
:1009600085FD1FBD7FB5002500958DF80000F620A0
:100970008DF8010001958DF80210089C100A8DF881
:1009800004208DF803008DF805308DF806406B20AB
:100990008DF80700029503950821684604F066FD6E
:1009A0007FBD72B6FEE72DE9F0410446876D00F089
:1009B0006DF9064694F835000025022806D08020FF
:1009C000606584F834500120BDE8F081206801683A
:1009D00021F0160101602068416921F08001416128
:1009E000206C08B9A06C20B12068016821F00801D2
:1009F00001602068016821F0010101600CE000F055
:100A000045F9801B052807D920206065032084F85C
:100A1000350084F83450D7E720680068C007EED16D
:100A200094F85C103F208840B860012084F83500BD
:100A300084F834500020C7E790F83510022903D01D
:100A40008021416501207047052180F8351000683C
:100A5000016821F0010101600020704770B5044673
:100A600000F014F90546601C02D0044800780444E4
:100A700000F00CF9401BA042FAD370BDB800002072
:100A80002DE9F84FDFF8BCA10022012503264FF025
:100A90000F090AF1040BAAF1040E00BF0B6805FA56
:100AA00002F42340A34270D10F7907F00307012F0E
:100AB00001D0022F16D187684FEA420806FA08FCD7
:100AC00027EA0C07D1F80CC00CFA08FC4CEA070C1A
:100AD000C0F808C04768A7430C79C4F300149440D9
:100AE0003C4344600C79E443A4070AD0C4684FEA4D
:100AF000420C06FA0CF7BC438F6807FA0CF7274341
:100B0000C7600C7904F00304022C12D1D40800EB66
:100B1000840CDCF820405707FF0E09FA07F824EA96
:100B20000804D1F8108008FA07F848EA0408CCF85D
:100B3000208004684FEA420C06FA0CF7BC430F7998
:100B400007F0030707FA0CF7274307604C6814F413
:100B5000403F70D03C4C276847F4804727602468AA
:100B600022F0030704F480440094384C07EB040C93
:100B7000DCF8084897074FEA177809FA08F7BC43EA
:100B8000334FB84202D1002724E054E0314FB8423D
:100B900001D101271EE0304FB84201D1022719E0F0
:100BA0002E4FB84201D1032714E02D4FB84201D196
:100BB00004270FE02B4FB84201D105270AE02A4F46
:100BC000B84201D1062705E0284FB84201D10727D6
:100BD00000E0082707FA08F72743CCF80878DAF886
:100BE00000405746D1F804C09C435FEACC2C00D5A6
:100BF0001C433C60DBF800405F46D1F804C09C43D6
:100C00005FEA8C2C00D51C433C60DEF80040774640
:100C1000D1F804C09C435FEA8C3C00D51C433C6087
:100C2000084F083F3C68D1F804C09C435FEACC3CC5
:100C300000D51C433C60521C102AFFF42FAFBDE8C6
:100C4000F88F0000083C0140443802400030014069
:100C5000000002400004024000080240000C024074
:100C6000001002400014024000180240001C024024
:100C7000426921EA02030A4043EA02418161704766
:100C80000AB1816170470904FBE7000001488068F0
:100C900070470000B80000200248816802781144C3
:100CA00081607047B80000200B4810B5016841F41E
:100CB00000710160016841F480610160016841F4E4
:100CC00080710160032000F06FF80F2000F006F83B
:100CD00000F024F8002010BD003C024070B50D4D1E
:100CE00004464FF47A712878B1FBF0F00A4909689C
:100CF000B1FBF0F000F00AFB48B9102C07D200223B
:100D00002146501E00F030F800206C6070BD0120BC
:100D100070BD0000B8000020C40000200A4808B5DB
:100D2000016841F480410160006800F48040009057
:100D30000548001F016841F080510160006800F023
:100D40008050009008BD000044380240002809DBB4
:100D500000F01F02012191404009800000F1E020D5
:100D6000C0F8001170470000F0B40E4B1B680C4631
:100D7000C3F30223C3F10705042D00D90425191D6F
:100D8000072901D2002300E0DB1E012606FA05F147
:100D9000491E214099409E40761E16403143F0BCCA
:100DA00002F02CBE0CED00E0064900F007020868D6
:100DB0004FF6FF03184040EA0220034A1043086040
:100DC000704700000CED00E00000FA052DE9F04747
:100DD0000E46050065D0DFF81481D8F80000F7B2A0
:100DE00000F00700B04207D288F80070D8F8000081
:100DF00000F00700B04254D128683D4C810712D55D
:100E0000400703D5206840F4E050206028780007B0
:100E100003D5206840F4604020602068A96820F075
:100E2000F000084320602878C0072DD0304968685A
:100E30000839012812D0022813D0032811D00968DC
:100E4000890700292DDA216821F00301014321607F
:100E5000FFF71CFF814641F2883A0EE009688903DA
:100E6000EFE709688901ECE7FFF710FFA0EB090144
:100E7000514502D90320BDE8F0872068696800F079
:100E80000C00B0EB810FEFD1D8F80010404601F014
:100E90000701B14207D90770006800F00700B042AF
:100EA00001D00120E7E72878400705D52068E968E8
:100EB00020F4E050084320602878000706D5206819
:100EC000296920F4604040EAC100206000F038F851
:100ED0002168084AC1F30311515CC8400649086003
:100EE00006480068FFF7FAFE0020C4E7003C024015
:100EF000083802409C550008C4000020BC000020B7
:100F00000448054900680968044AC1F38221515C1C
:100F1000C8407047C400002008380240AC550008A3
:100F20000448054900680968044AC1F34231515C2C
:100F3000C8407047C400002008380240AC55000883
:100F4000154810B5006810F00C02144813D0411079
:100F5000042A0FD0082A0ED10F4C241F22682368C0
:100F600002F03F025B0207D52068C0F38810A0FBA7
:100F7000010106E0084610BD2168C1F38811A1FBFC
:100F800000010023FFF71EF92168C1F30141491C4C
:100F90004900B0FBF1F010BD083802400024F40015
:100FA0002DE9F84F04006ED02078DFF84C93C0078D
:100FB000A9F104054AD009F104000168C1F38101D7
:100FC000012908D00068C0F3810002280AD1D9F8AD
:100FD0000000400206D52868800337D560680028E5
:100FE000E1D033E06068B0F5803F10D0B0F5A02FBD
:100FF000286810D020F480302860286820F48020F1
:1010000028606068A8B1FFF741FE06460DE0286839
:1010100040F48030F4E740F480202860F7E700BF18
:10102000FFF734FE801B642873D828688003F7D547
:101030000CE0FFF72BFE064605E000BFFFF726FE9B
:10104000801B6428F0D828688003F7D42078DFF864
:10105000AC8280074FF0000A3ED5A748001D01680A
:1010600011F00C0F08D00068C0F3810002280BD1EA
:10107000D9F80000400207D42868800716D5E06838
:10108000012800D112E033E1E068B8B10120C8F8CE
:101090000000FFF7FBFD064605E000BFFFF7F6FD89
:1010A000801B0228C0D828688007F7D528682169E6
:1010B00020F0F80040EAC10028600DE0C8F800A068
:1010C000FFF7E4FD064604E0FFF7E0FD801B022881
:1010D0001FD828688007F7D42078000722D5864FCC
:1010E00087486169703771B101210160FFF7CEFD5A
:1010F000064604E0FFF7CAFD801B022809D83868BD
:101100008007F7D50EE0C0F800A0FFF7BFFD064648
:1011100005E082E0FFF7BAFD801B02287DD8386821
:101120008007F7D42078400768D5DFF8CCB10027D6
:101130000BF13C0BDBF80000C0000BD4DBF8001017
:1011400041F08051CBF80010DBF80000012700F0DF
:10115000805000906B4E3068C00510D4306840F469
:1011600080703060FFF792FD009005E0FFF78EFD84
:101170000099401A022850D83068C005F6D55E4E56
:10118000A0686C3601280FD00528306810D020F0F8
:1011900001003060306820F004003060A068B8B111
:1011A000FFF774FD00900FE0306840F00100F4E7B5
:1011B00040F004003060F7E7FFF768FD0099411A3E
:1011C00041F28830814266D830688007F4D50EE05D
:1011D000FFF75CFD009007E0FFF758FD0099411A0A
:1011E00041F28830814256D830688007F4D42FB15C
:1011F000DBF8001021F08051CBF80010A069C8B3D3
:101200003D49091D0968C1F3810102294AD002281C
:10121000504607D0C8F8600000E03CE0FFF736FD1C
:1012200004463BE04746C8F86000FFF72FFD06463E
:1012300005E000BFFFF72AFD801B02282BD8286895
:101240008001F7D4D4E907010843A16A2E4A49086E
:1012500002EB0141626A41EA8211084394F82C10C2
:1012600040EA0161C9F8001001203866FFF70EFD61
:10127000044606E03EE000BFFFF708FD001B022821
:1012800009D828688001F7D534E000BFFFF7FEFCDD
:10129000001B022802D90320BDE8F88F28688001CE
:1012A000F4D427E00128F7D0D9F80000E26900F46F
:1012B000800191421CD1226A00F03F01914217D176
:1012C00047F6C071626A0140B1EB821F10D1A26A79
:1012D0004FF0FF3300F4403103EB5202B1EB024F09
:1012E00006D194F82C1000F07060B0EB016F01D0C3
:1012F0000120D1E70020CFE7043802400000474238
:10130000800E4742007000400000FFFF10B5401EF5
:10131000B0F1807F01D3012010BD4FF0E024606167
:101320000F21601702F06AFB0020A06107202061F6
:10133000002010BD7047704770B590F83C20012A1E
:1013400032D0012480F83C40022280F83D2003681E
:101350005A689D6822F070060A6832435A60134B3F
:1013600002689A4214D0B2F1804F11D0104B9A42C9
:101370000ED0104B9A420BD00F4B9A4208D00F4B15
:101380009A4205D00E4B9A4202D00E4B9A4204D19B
:10139000496825F080031943916080F83D400021A1
:1013A00080F83C10084670BD022070BD000001406E
:1013B0000004004000080040000C00400004014010
:1013C000004001400018004010B5040003D094F81C
:1013D0003D0010B107E0012010BD002084F83C0062
:1013E000204600F01FF8022084F83D00211D2068EF
:1013F00001F0C8F9012084F8460084F83E0084F822
:101400003F0084F8400084F8410084F8420084F8EA
:10141000430084F8440084F8450084F83D0000202F
:1014200010BD000008B501681D48B1F1804F11D012
:101430001C4A91421DD1016841F00201016000681F
:10144000002200F00200009011461D20FFF78CFCE6
:101450001D201FE0016841F00101016000680022C9
:1014600000F00100009011461C20FFF77DFC1C20BD
:1014700010E00D4A914211D1016841F00401016070
:101480000068002200F00400009011461E20FFF7C3
:101490006BFC1E20BDE80840FFF758BC08BD0000EB
:1014A00040380240000400400008004090F83D1021
:1014B000012901D001207047022180F83D10016808
:1014C000CA6842F00102CA6000681149884214D01B
:1014D000B0F1804F11D00F4988420ED00E4988429A
:1014E0000BD00E49884208D00D49884205D00D49DD
:1014F000884202D00C49884204D1816801F007017A
:10150000062903D0016841F0010101600020704705
:10151000000001400004004000080040000C0040B2
:1015200000040140004001400018004070B504462E
:1015300090F83C000025012817D0012684F83C6073
:10154000022084F83D002068826822F0770222F4AD
:101550007F4282600868502838D00DDC20284FD0A8
:1015600005DC90B3102811D14AE0022070BD30286C
:1015700046D040280AD13BE060282FD070280DD0FB
:10158000B0F5805F03D0B0F5005F12D0012584F87C
:101590003D60002084F83C00284670BDCB68D1E94E
:1015A0000121206801F067F92068816841F0770126
:1015B00009E0CB68D1E90121206801F05CF92068DD
:1015C000816841F480418160E1E719E0CA684968B7
:1015D000206801F025FA5021206806E0CA684968B1
:1015E000206801F02EFA6021206801F04EF9CEE764
:1015F000CA684968206801F013FA40212068F4E7BE
:10160000226801461046F0E770472DE9F041044694
:101610000068C66805694FF00007A90713D5B10730
:1016200011D5F91E016101202077206880698007AB
:10163000204602D0FFF7E8FF04E000F0A9F82046BA
:1016400000F03BF92777680716D5700714D5216895
:101650006FF004000861022020772068806910F490
:10166000407F204602D0FFF7CFFF04E000F090F863
:10167000204600F022F92777280715D5300713D523
:1016800021686FF008000861042020772068C06995
:101690008007204602D0FFF7B7FF04E000F078F89B
:1016A000204600F00AF92777E80616D5F00614D58B
:1016B00021686FF010000861082020772068C06959
:1016C00010F4407F204602D0FFF79EFF04E000F0B8
:1016D0005FF8204600F0F1F82777E80708D0F00718
:1016E00006D021686FF001000861204600F04AF939
:1016F000280608D5300606D521686FF080000861FD
:101700002046FFF717FE680608D5700606D5216843
:101710006FF040000861204600F030FAA8060AD5B4
:10172000B00608D521686FF0200008612046BDE8AA
:10173000F041FFF700BEBDE8F081000010B586B0B3
:10174000044614216846FEF775FD0E49206888425C
:1017500015D10D480021026842F0080202600068BD
:1017600000F0080005904FF4704000900220CDE991
:101770000101CDE9031069460448FFF781F906B07D
:1017800010BD00000008004030380240000C02404C
:10179000704770B5044690F83C0000260D460128BD
:1017A0000FD0012084F83C006AB1042A1DD0082A19
:1017B0002FD00C2A3FD00126002084F83C00304670
:1017C00070BD022070BD206801F068F82068816952
:1017D00041F0080181612068816921F00401816183
:1017E000206881692A69114311E0206801F086F8B8
:1017F0002068816941F4006181612068816921F478
:1018000080618161206881692A6941EA02218161E0
:10181000D2E7206801F0A8F82068C16941F008010A
:10182000C1612068C16921F00401C1612068C169FA
:101830002A69114311E0206801F0CAF82068C169E3
:1018400041F40061C1612068C16921F48061C16116
:101850002068C1692A6941EA0221C161ACE710B57B
:10186000040003D094F83D0010B107E0012010BD42
:10187000002084F83C00204600F01EF8022084F886
:101880003D00211D206800F07DFF012084F8460006
:1018900084F83E0084F83F0084F8400084F841005A
:1018A00084F8420084F8430084F8440084F845003A
:1018B00084F83D00002010BD7047704710B5044605
:1018C000022249B104290ED0082913D094F841000E
:1018D000012816D0012010BD94F83E000128F9D14E
:1018E00084F83E200FE094F83F000128F2D184F8FC
:1018F0003F2008E094F840000128EBD184F8402014
:1019000001E084F841200122206800F0A7FF164979
:101910002068164A884201D0904203D1436C43F4B8
:10192000004343642068884213D0B0F1804F10D048
:101930000F4988420DD00F4988420AD00E4988428B
:1019400007D0904205D00D49884202D00C49884208
:1019500004D1816801F00701062903D0016841F034
:1019600001010160002010BD0000014000040140A1
:101970000004004000080040000C0040004001400E
:10198000001800402DE9F04706460068DFF8C091D6
:101990000025704CB0F1804F10D16068401C606031
:1019A000A068401CA0606C480168012902D1056054
:1019B00001F0D0F96168494500DD6560674930682C
:1019C00088427CD12068DFF89CA1401C20606448DC
:1019D0000068012853D1E0684FF0010801283DD18B
:1019E000A06901282BD1206A062801DA401C206258
:1019F0005D4E012805D1012196ED000A002003F07B
:101A000037FC206A022805D1022196ED000A002049
:101A100003F02EFC206A032805D1032196ED000A6D
:101A2000002003F025FC206A042805D1042196ED4E
:101A3000000A002003F01CFC206A052803D0E0699E
:101A4000012808D00AE0052196ED000A002003F0E5
:101A50000FFCC4F81C80A561E5612562206901289E
:101A60006AD16069012867D1A069012808D00022E5
:101A700020215046FFF704F9E069012857D05BE0C8
:101A8000012220215046FFF7FBF8A06A30B9384800
:101A90009FED360AC4F8288080ED000A206A0628E7
:101AA00040DA401C334E344F206201280AD194F8AA
:101AB0002C000121D6ED000A97ED000A00E045E078
:101AC00003F08EF9206A022808D194F82C00022134
:101AD000D6ED000A97ED000A03F082F9206A032888
:101AE00008D194F82C000321D6ED000A97ED000AE6
:101AF00003F076F9206A042808D194F82C00042118
:101B0000D6ED000A97ED000A03F06AF9206A05286D
:101B100008D194F82C000521D6ED000A97ED000AB3
:101B200003F05EF9206A0628A6D1C4F81C8065621D
:101B3000A561A562E56125622168494506DD50463B
:101B40002560BDE8F0472021FFF792B8BDE8F08797
:101B5000A08601006C0200200C0000200004004060
:101B60003C00002000080240D00100200000C842D4
:101B7000E8010020CC010020C8010020704718B502
:101B8000034690F84200202801D0022018BD61B120
:101B90005AB10120186300205863184601F086F8F6
:101BA0000028F3D1196B012901D0012018BD196853
:101BB0000A684968009119680C3151E8002F42F019
:101BC000100241E80024002CF5D118BD10B52822E0
:101BD0000349FFF7D4FF03490120C86010BD00008E
:101BE000280600200000002070470000F8B50168BA
:101BF00004460868CA684B6910F00F0F4FF00005E3
:101C000059D003F0010602F49077374365D0C1073D
:101C100005D0D10503D5616C41F001016164410734
:101C200005D5D90703D0616C41F0020161648107D9
:101C300005D5D90703D0616C41F004016164010747
:101C400007D502F02001314303D0616C41F0080157
:101C50006164616C00293AD0800604D5900602D5F3
:101C6000204600F03CFF20684069616CC0F38010A2
:101C7000090700D460B3204600F00AFF20684069DD
:101C8000400621D52068143050E8001F21F04001A3
:101C900040E80012002AF5D1E06BA8B16E49016559
:101CA000E06BFEF7C9FE002811D0E06B016D01B0BA
:101CB000BDE8F040084783060FD593060DD52046B2
:101CC000BDE8F84000F00BBF2046FFF78DFFF8BDE0
:101CD0002046FFF789FF6564F8BD266B2023012E9F
:101CE0007DD1C6067BD5D60679D5086848680090B0
:101CF00048694FF00206400641D5E16B086840682C
:101D00000004000CE8D0A28D8242E5D9E085C869C4
:101D1000B0F5807F2DD020680C3050E8001F21F4F2
:101D2000807140E80012002AF5D12068143050E894
:101D3000001F21F0010140E80012002AF5D12068BF
:101D4000143050E8001F21F0400140E80012002A42
:101D5000F5D184F84230256320680C3050E8001F2C
:101D600021F0100140E80012002AF5D1E06BFEF7E7
:101D70001AFE6663A08DE18D401A81B22AE0A08D23
:101D8000E18D401A81B2E08D0028A5D00029A3D0B2
:101D900022680C3252E8000F20F4907042E80007ED
:101DA000002FF5D12068143050E8002F22F00102F6
:101DB00040E80027002FF5D184F8423025632068E1
:101DC0000C3050E8002F22F0100240E80023002BD6
:101DD000F5D166632046FFF7F9FEF8BDFFE705067B
:101DE0002BD5150629D594F841002128F5D1A068F6
:101DF000B0F5805F01D12069B0B1206A411C216239
:101E0000216800784860E08C401E0004000CE084EB
:101E1000E3D12068C16821F08001C1602068C168F9
:101E200041F04001C160D8E7206A0088C0F3080093
:101E30004860206A801C2062E5E74006CDD5500648
:101E4000CBD5CA68204622F04002CA6084F84130EF
:101E500000F0E5F9C1E70000812A000870B5040030
:101E600004D094F84100002510B106E0012070BDB7
:101E700084F84050204600F023F8242084F84100E4
:101E80002068C16821F40051C160204600F088FE3E
:101E90002068016921F4904101612068416921F0C5
:101EA0002A0141612068C16841F40051C160656444
:101EB000202084F8410084F842006563002070BD52
:101EC0002DE9F04186B0044614216846FEF7B2F9C8
:101ED0006E49DFF8B4C1236800246C4A1039032529
:101EE000022608276A4863451ED1136843F400237D
:101EF0001360126802F4002205920A6842F001029F
:101F00000A600968CDE9005601F00101CDE90471CC
:101F10006946CDE90245FEF7B3FD002211463420A3
:101F2000FEF722FF342038E0DFF868C1DFF868816F
:101F3000634537D1106840F480101060106800F4D9
:101F400080100590086840F004000860086800F000
:101F500004000590086840F008000860086802ABBB
:101F600000F0080005904FF48050CDE9000683E8AA
:101F7000B00069464948FEF783FD0420CDE900061C
:101F800002AB694683E8B0004046FEF779FD0022C7
:101F900011463520FEF7E8FE3520FEF7D7FE06B0E5
:101FA000BDE8F081DFF8F8C00727634522D1374A42
:101FB000121D136843F010031360126802F0100240
:101FC00005920A6842F001020A60096802AA01F05B
:101FD000010105914FF4C061CDE9001682E8B0001F
:101FE0006946FEF74DFD002211462520FEF7BCFE96
:101FF0002520D2E72B48834220D1106840F40030DE
:102000001060106800F400300590086840F0080087
:102010000860086802AB00F0080005906020CDE978
:10202000000683E8B00069464046FEF729FD00221D
:1020300011462620FEF798FE2620AEE71A48834276
:10204000ADD1106840F480201060106800F480204A
:102050000590086840F002000860086802AB00F0D4
:10206000020005904FF44060CDE9000683E8B0001F
:1020700069460E48FEF704FD002211462720FEF7B0
:1020800073FE272089E70000004C004040380240E2
:102090000000024000500040000C024000080240D6
:1020A000001001400044004000480040000402408D
:1020B0002DE9F84F044690F842009A4616460D4620
:1020C000202802D00220BDE8F88FB5B1AEB10020C3
:1020D0006064222184F842102063FEF7D7FDA685B4
:1020E0008146E685A0684FF480582027404501D1FD
:1020F000206920B12E46002529E00120E3E70026D3
:1021000025E04B46002220212046CDF800A000F01B
:10211000E8FD18B184F842700320D4E726B1A06826
:1021200040451AD038B108E020684068C0F3080084
:1021300025F8020B08E0206978B12068406800F0BB
:102140007F0000BF06F8010BE08D401EE085E08DAA
:102150000028D6D184F84270B5E720684068F1E7DE
:1021600090F84230202B01D00220704721B11AB1E3
:102170000023036300F09ABD0120704770472DE9EA
:10218000F843044690F84100984616460D4620282C
:1021900002D00220BDE8F88385B17EB100206064E2
:1021A000212084F84100FEF771FDA6848146E68473
:1021B000A0682027B0F5805F02D003E00120E9E7A6
:1021C000206910B12E4600250EE000260CE080218B
:1021D000204600F086FDA8B9C6B116F8010B2168AB
:1021E0004860E08C401EE084E08C4B464FF00002DB
:1021F000CDF800800028EAD14FF04001204600F0E1
:1022000070FD40B184F841700320C3E735F8020B3C
:10221000C0F30800E3E784F841700020BAE7704794
:10222000FEE70000064B10B55C78C2F30723D2B27C
:1022300014B103700A7010BD0B70027010BD000065
:10224000C8000020F0B587B014216846FDF7F2FF02
:1022500025480025016841F080010160016801F016
:1022600080010591016841F001010160016801F000
:1022700001010591016841F004010160016801F06C
:1022800004010591016841F002010160016801F05B
:1022900002010591016841F0080101600068134ED8
:1022A00000F008000590002220213046FEF7E8FCEF
:1022B0000F4F002204213846FEF7E2FC01242020C3
:1022C000CDE9000469463046CDE90245FEF7D8FB6A
:1022D0000420CDE9000469463846CDE90245FEF701
:1022E000CFFB07B0F0BD00003038024000080240CC
:1022F0000004024010B586B00024184800940194F0
:102300000294039404944FF080410594016040F2DC
:102310008F61C0E901144FF47A71C0E90314802180
:102320008161FFF751F808B1FEF73BFB4FF4805095
:10233000009069460948FFF7F9F808B1FEF731FB4C
:102340002020CDE9040404A90448FEF7F5FF002885
:1023500001D0FEF726FB06B010BD0000AC02002045
:1023600010B586B000241848009401940294039498
:10237000049414490594016040F28F61C0E901148E
:102380004FF47A71C0E9031480218161FFF71CF8D2
:1023900008B1FEF706FB4FF48050009069460A48EA
:1023A000FFF7C4F808B1FEF7FCFA2020CDE90404D9
:1023B00004A90548FEF7C0FF002801D0FEF7F1FA96
:1023C00006B010BD00040040F402002010B58EB02D
:1023D00000240794089409940A940B941C216846DD
:1023E0000C94FDF727FF2B482949016040F28F61CB
:1023F000C0E9011440F2E731C0E903148461FEF73B
:10240000E3FF08B1FEF7CDFA4FF48050079007A91B
:102410002048FFF78BF808B1FEF7C3FA1D48FFF715
:102420001EFA08B1FEF7BDFA0B940BA919480C94DB
:10243000FEF782FF08B1FEF7B4FA6020CDE9000490
:1024400002940022694613480494FFF7A2F908B1E8
:10245000FEF7A7FA042269460E48FFF79AF908B179
:10246000FEF79FFA082269460A48FFF792F908B179
:10247000FEF797FA0C2269460648FFF78AF908B179
:10248000FEF78FFA0348FFF759F90EB010BD0000B0
:10249000000800403C0300200C4810B50A490160C8
:1024A0004FF4E1314160002181600C22C160C0E93C
:1024B00004128161C161FFF7D1FC002803D0BDE89F
:1024C0001040FEF76EBA10BD004C0040840300209F
:1024D0000C4810B50A4901604FF4165141600021C3
:1024E00081600C22C160C0E904128161C161FFF703
:1024F000B5FC002803D0BDE81040FEF752BA10BD6D
:1025000000500040CC0300200C4810B50A4901607F
:102510004FF4E1314160002181600C22C160C0E9CB
:1025200004128161C161FFF799FC002803D0BDE866
:102530001040FEF736BA10BD001001401404002010
:102540000C4810B50A4901604FF4E13141600021A7
:1025500081600C22C160C0E904128161C161FFF792
:102560007DFC002803D0BDE81040FEF71ABA10BD6C
:10257000004400405C0400200C4810B50A4901608A
:102580004FF4E1314160002181600C22C160C0E95B
:1025900004128161C161FFF761FC002803D0BDE82E
:1025A0001040FEF7FEB910BD00480040A404002012
:1025B000FEE7FEE7704700007FB582B015460C4687
:1025C000064602F07FFD02200090012305AA214665
:1025D000304602F085FF02F05FFF02F08DF8002820
:1025E00032D01C4E00200321B07001A802F06CFD17
:1025F000032828D19DF81410284602F065FD9DF8A7
:102600001410044688421ED101210DF1070002F08A
:102610005BFD012817D19DF804009DF805109DF879
:10262000062008441044C1B2002004E02B5C401C8A
:102630001944C9B2C0B2A042F8DBC8439DF80710E4
:10264000C0B2814202D0002006B070BDB2702046F8
:10265000FAE70000C800002010B50E4C411C08D05D
:1026600000212160C0B2382102F036FD411C0ED09D
:1026700004E009484178007840EA012021680029F7
:1026800004D1010402D520F40040404210BD0121D4
:10269000216010BDE40000206C05002002460448C3
:1026A000407810B141EA0220704742EA01207047A9
:1026B000C80000207047FEF7EFBA000030B593B0B5
:1026C00030216846FDF7B6FD14210CA8FDF7B2FDD8
:1026D0001D480025016841F080510160006800F04C
:1026E000805011901948016841F4804101600068F0
:1026F000022400F480401190012000900004019019
:102700008001CDE9064008AA0420A82182E8130030
:102710000B906846FEF744FC08B172B6FEE70CA9C0
:102720000F2081E831004FF4A0500F904FF48050FB
:10273000109005210CA8FEF749FB002801D072B6C5
:10274000FEE713B030BD000040380240007000408A
:102750000248016841F470010160704788ED00E0B3
:102760000148FEF752BF0000AC0200200148FEF70E
:102770004CBF0000F40200200148FEF746BF0000F5
:102780003C030020F0B50268294C2A4D2A4E2B4FFD
:102790002B4B4FF0804CA04209D0604507D0A84297
:1027A00005D0B04203D0B84201D0984204D122F003
:1027B000700E4A6842EA0E02A0421BD0604519D052
:1027C000A84217D0B04215D0B84213D0984211D0C9
:1027D0001C4DA8420ED01C4DA8420BD01B4DA84248
:1027E00008D01B4DA84205D01A4DA84202D01A4D60
:1027F000A84203D122F44075CA682A434D6922F0E9
:1028000080022A4302608A68C2620A688262A04229
:1028100001D0984201D10969016301214161016937
:10282000C90703D0016921F001010161F0BD000079
:10283000000001400004004000080040000C00407F
:1028400000040140004001400044014000480140B4
:1028500000180040001C00400020004010B501F0AE
:102860001F030121046A99408C430462016A9A4063
:102870001143016210BD10B5846842EA032224F4BA
:102880007F440A432243826010BD826822F07002B6
:102890000A4342F00701816070470000F0B5036A07
:1028A000026A22F00102026242688469124E24F038
:1028B00073050C682C4323F002058B682B430D4DE8
:1028C000A84201D0B04205D123F00807CB683B43B2
:1028D00023F00403A84201D0B04205D14D6922F48F
:1028E000407215438A692A434260846149684163A2
:1028F0000362F0BD0000014000040140F0B5026A2F
:10290000036A23F010030362436884690D6824F4AA
:10291000E64444EA05248D6822F0200242EA0512CA
:102920000F4D104EA84201D0B04206D1CF6822F020
:10293000800242EA071222F04002A84201D0B042CF
:1029400007D14D6923F4406343EA85038D6943EA67
:10295000850343608461496881630262F0BD0000C1
:102960000000014000040140F0B5026A036A23F44C
:10297000807303624368C46922F4007224F0730513
:102980000C68124E2C438D6842EA05220E4DA84277
:1029900001D0B04206D1CF6822F4006242EA072299
:1029A00022F48062A84201D0B04207D14D6923F4DD
:1029B000405343EA05138D6943EA05134360C4613C
:1029C0004968C1630262F0BD00000140000401409B
:1029D00030B5046A026A22F4805202624268C36916
:1029E0000D6823F4E64343EA05238D6824F400547C
:1029F00044EA0534084DA84202D0084DA84204D14B
:102A00004D6922F4804242EA85124260C3614968FE
:102A10000164046230BD0000000001400004014078
:102A200010B5036A046A24F001040462846924F086
:102A3000F00444EA021423F00A020A4384610262A9
:102A400010BD10B5036A046A24F01004046284699E
:102A500023F0A00324F4704444EA023243EA011153
:102A60008261016210BD00000148FFF7BFB800009D
:102A7000840300200148FFF7B9B80000CC03002010
:102A800010B5806B0021C185C184FFF7ADF810BD82
:102A900001680C3151E8002F22F4907241E80023C4
:102AA000002BF5D10168143151E8002F22F001020A
:102AB00041E80023002BF5D1016B012909D1016800
:102AC0000C3151E8002F22F0100241E80023002BC6
:102AD000F5D1202180F8421000210163704708B52C
:102AE00090F84210222901D0022008BD82684FF4DC
:102AF00080539A4201D1016921B1816A9A421BD067
:102B00004AB10AE00268816A5268C2F308020A8088
:102B1000816A891C08E0026972B10268526802F099
:102B20007F020A70816A491C8162C18D491E0904B5
:102B3000090CC18503D01BE002685268F1E7016807
:102B4000CA6822F02002CA600168CA6822F4807252
:102B5000CA6001684A6922F001024A61202180F8B6
:102B6000421000214163026B012A03D0FFF706FBEC
:102B7000002008BD016301680C3151E8002F22F0EC
:102B8000100241E80023002BF5D101680A68D20643
:102B900002D50A6849680091818DFFF717F8E7E7C9
:102BA00070B5044600680169E26821F440511143A0
:102BB00001612169A068E269084361691143084322
:102BC0002168CA6849F20C639A430243CA602068CC
:102BD0004169A26921F44071114341613149206882
:102BE000884202D03049884202D1FEF799F901E0CB
:102BF000FEF786F9E2690023192164253226B2F531
:102C0000004F626828D0A0FB0101930F9200FDF7EE
:102C1000D9FA0146B0FBF5F06FF01802504301EB12
:102C2000800006EB0010B0FBF5F000F0F002B1FB05
:102C3000F5F002EB0012B1FBF5F06FF0180358430A
:102C400001EB800006EB0010B0FBF5F000F00F0088
:102C500021681044886070BDA0FB010192185B419F
:102C6000FDF7B0FA0146B0FBF5F00201B1FBF5F05B
:102C70006FF01803584301EB800006EBC000B0FB77
:102C8000F5F000F0F80002EB4002B1FBF5F058431C
:102C900001EB800006EBC000B0FBF5F000F0070090
:102CA000D6E70000001001400014014081628285D7
:102CB000C28500214164222180F84210016921B1BE
:102CC0000168CA6842F48072CA6001684A6942F0C9
:102CD00001024A610068C16841F02001C160002022
:102CE00070472DE9F843984617460D460446089E5E
:102CF00024E0701C22D0FDF7C9FFA0EB0800B04211
:102D00001AD8CEB12068C168490717D5802D15D0D3
:102D1000402D13D00168C94309070FD4016800256D
:102D2000406800902046FFF7B3FE0820606484F8F6
:102D300040500120BDE8F8830320FBE720680068CD
:102D400035EA000004D00020B842D2D00020F1E7DC
:102D50000120F9E7AFF300802DE9F05FF948FA4C64
:102D60002DED108B00686178012801D1F7480160D2
:102D7000F74DF54800262A680078012A02D0022A79
:102D800007D01AE03F2818D1442916D1F14A16601D
:102D900013E0252811D1F04F0122A35C012B03D0B1
:102DA000022B01D0032B03D107EB820C4CF8043C1F
:102DB000521C042AF1DB03222A60E84A136801222C
:102DC000012B05D13F2803D1272901D1E44B1A60FB
:102DD000E44B1D68022D04D13F2802D1612900D1A6
:102DE0001A60E14B1D6825B93F2802D1622900D144
:102DF0001A60D54BDFF8748393F806A09D88D8F845
:102E00000070DB78012F02D0022F29D03BE0BAF10D
:102E1000210F38D1CC4FDFF858C30128B7F8017023
:102E200002D0022802D005E07FBA01E07FBA7F42DB
:102E3000CCF80070CF4F012B02D0022B03D008E05A
:102E400095FA95FC03E095FA95FCCCF1000CC7F8D7
:102E500000C0102917D13F2815D1C8F8006012E032
:102E6000072904D0082906D009290AD00BE03F28F9
:102E700009D1C14902E03F2805D1C0490A60667006
:102E800001E03F2807D09146BD4AC2F80090627821
:102E9000882A02D006E0BB49F0E73F2802D1BA4FAA
:102EA000C7F80090DFF8E4E2DEF800B0BBF1020FF3
:102EB00016DA2A2814D1DFF8D8C20121675C012F65
:102EC00003D0022F01D0032F03D10CEB810848F867
:102ED000047C491C0729F1DB0BF10101CEF800103D
:102EE000AC4F3968012929D1BAF1210F26D1AA495D
:102EF000012802D0022805D010E0B4F801C09CFAE5
:102F00009CFC05E0B4F801C09CFA9CFCCCF1000CE0
:102F1000C1F800C0D1F800C0C1F800C09F49012B22
:102F200002D0022B02D009E06BBA01E06BBA5B421F
:102F30000B600B68C3EBC3030B603E6098490968E4
:102F4000012906D1032A04D13F2802D1954BC3F8A9
:102F5000009095490968012913D19449072A04D0A2
:102F6000082A06D0092A0AD00BE03F2809D14A4690
:102F700002E03F2805D102220A60667001E03F2886
:102F800012D0DFF8D0B19FED8ADB9FED8B9B9FEDD8
:102F90008CAB9FED8DBB9FED8ECBDBF800108E4F81
:102FA0008E4D012902D01DE20322E5E7217A212975
:102FB000F9D18B49012801F1640291ED1C2AD1ED70
:102FC0001D1A92EC030A02D0022846D093E06078E2
:102FD000B8EEC11A02EE900AB8EEC22ADFF80082FB
:102FE000F8EE622A62EE812A01EE100AB8EE411A6A
:102FF00031EE001A31EE201A42EE012A01EE100ADB
:10300000B8EE002AB8EE411A00EE021A31EE200A9C
:10301000F8EEE10A40EE802ABDEEE20A10EE100A58
:10302000C8F878000A2802DDB2EE040A0DE0FDF7C8
:103030009BFA53EC1D2BFDF7BBFA02D29FED690AF8
:1030400003E098ED1E0AB8EEC00A87ED000A60782A
:1030500000EE100AB8EE400A49E06078B8EEC22AE5
:1030600002EE900AB8EEC11ADFF87481F8EE622A17
:1030700070EE622A72EEA02A62EE822A02EE100A36
:10308000B8EE422A41EE422A01EE100AB8EE412A79
:10309000B8EE001A10EE012A32EE200AF8EEE10A2C
:1030A00040EE802ABDEEE20A10EE100AC8F8780061
:1030B00010F10A0F02DABAEE040A0FE0FDF754FA33
:1030C0009FED491B53EC112BFDF78AFA02D29FEDBD
:1030D000480A03E098ED1E0AB8EEC00A87ED000A20
:1030E000607800EE100AB8EE400AB1EE400A88EDB2
:1030F000190A88ED1A0AA078012802D0022808D0FF
:1031000012E0B4F8030040BA00EE100AB8EE400A2C
:1031100008E0B4F8030040BA00EE100AB8EE400A26
:10312000B1EE400A85ED000A6079012802D002283C
:1031300060D06AE0E08840BA00EE100AB8EE400ABB
:1031400060E057E0B000002028060020B400002016
:10315000AC0000209C020020A00200209C00002067
:10316000A0000020A4000020A80000208C00002067
:10317000840000208800002090000020940000209F
:103180008402002098000020800000207C000020A5
:103190006000002034000020B8010020BC010020A5
:1031A000500000204C0000202C00002030000020A7
:1031B0009A9999999999D93F7B14AE47E17AB43F8E
:1031C000000000000000E03F7B14AE47E17A943F2E
:1031D000EC51B81E85EBD13FD0010020C801002082
:1031E000EC010020CDCCCC3E9A9999999999D9BF00
:1031F000CDCCCCBEE08840BA00EE100AB8EE400A52
:10320000B1EE400AFE4880ED000A2868FDF7BDF9DE
:103210009FEDFCEB53EC1E2BFDF7C5F8FDF7F8F91D
:10322000DFF8DCA308EE100ADAF80000FDF7ADF9CC
:1032300053EC1E2BFDF7B7F8FDF7EAF938EE08EA74
:1032400008EE900AF148F0EE000AB0EE4E0A80ED6A
:10325000038AC0ED068A08EE600A80ED048AC0ED9C
:10326000078A80ED058AC0ED088A10EE100AFDF786
:103270008CF953EC192BFDF796F853EC1A2BFDF74C
:1032800092F83EEE080A41EC1F0B10EE100AFDF713
:103290007CF953EC1B2BFDF786F841EC1E0B18EE66
:1032A000100AFDF772F953EC1C2BFDF77CF853EC78
:1032B0001E2BFCF7D1FF53EC1F2BFCF7CDFFFDF7C6
:1032C000A7F938EEA80AF0EE000A8046286008EE5A
:1032D000E00A10EE100AFDF758F953EC192BFDF730
:1032E00062F853EC1A2BFDF75EF838EE880A41ECD1
:1032F0001E0B30EE080A10EE100AFDF746F953ECEB
:103300001B2BFDF750F841EC1F0B18EE900AFDF750
:103310003CF953EC1C2BFDF746F853EC1F2BFCF744
:103320009BFF53EC1E2BFCF797FFFDF771F9B84A92
:10333000B2EE0E0ACAF80000904501DD85ED000AE4
:103340005146904201DD81ED000AB2482A68BAEE8A
:103350000E0A824201D985ED000A0A68824201D92B
:1033600081ED000A95ED000A4FF07C5210EE100A34
:10337000904208DAB5EEC00AF1EE10FA03DDB6EEBF
:10338000000A85ED000A91ED000A10EE100A904245
:1033900008DAB5EEC00AF1EE10FA03DDB6EE000A67
:1033A00081ED000A95ED000A4FF03F4210EE100A41
:1033B000904208D2B5EEC00AF1EE10FA03D2BEEE8A
:1033C000000A85ED000A91ED000A10EE100A904205
:1033D00008D2B5EEC00AF1EE10FA03D2BEEE000A32
:1033E0008AED000A94F801809FED8BFAB8F1440F42
:1033F0000FD1DBF8001001290BD121783F2908D12A
:103400007F48CBF8006085ED00FA80ED00FA87ED8B
:1034100000FA824A1068012804D12078012802D0DD
:1034200002284BD097E000EE108A7848F8EE400A68
:1034300090ED1B0A90ED191AB8EEC00A60EE800AF2
:1034400000EE108AB8EE400A70EE011A90ED1A0AEA
:1034500031EE802AD0ED1C1AF8EEE11A41EE820A14
:1034600001EE908AB8EE002AF8EE611A41EE021AD7
:1034700031EE801A90ED1D0AB8EEC00A40EE010A46
:10348000BDEEE00A10EE101A8167052902DDB1EEEB
:10349000040A08E0012902DAB7EE000A03E000EEB0
:1034A000101AB8EEC00A87ED000A00EE108AB8EED6
:1034B000400A80ED190A80ED1A0A4CE000EE108AED
:1034C0005249B8EE400AD1ED190A91ED1A1A30EEC0
:1034D000C00A70EE011A91ED1C0AB8EEC00A21EE86
:1034E000800A01EE908AB8EE612AD1ED1B1AF8EE3F
:1034F000E11A01EEC20A01EE908AB8EE002AF8EE57
:10350000611A50EE821AD1ED1D0AF8EEE00A31EE92
:10351000811A00EE810ABDEEC00A10EE100A88671B
:1035200010F1050F02DAB9EE040A08E0002802DB08
:10353000BFEE000A03E000EE100AB8EEC00A87ED05
:10354000000A00EE108AB8EE400AB1EE400A81EDA2
:10355000190A81ED1A0AA246B8F1270F03D0B8F173
:10356000280F07D00AE09AF800003F2806D187ED1F
:1035700000FA02E020783F2800D11660DFF8A0B002
:10358000DBF8000001287DD19AF80010504601298F
:1035900002D0022905D00CE000EE108AB8EE400AF5
:1035A00005E000EE108AB8EE400AB1EE400A85ED63
:1035B000000A8178012902D0022907D011E09AF887
:1035C000030000EE100AB8EE400A07E09AF8030084
:1035D00000EE100AB8EE400AB1EE400A084880ED4D
:1035E000000A2868FCF7D1FF53EC1D2BFCF7DBFE2B
:1035F000FDF70EF8024F08EE100A386812E00000DE
:10360000CC0100209A9999999999C93FEC01002021
:1036100000007041000070C100000000780200202E
:103620007C020020FCF7B1FF53EC1D2BFCF7BBFE26
:10363000FCF7EEFF38EE08EA08EE900A9B48F0EE41
:1036400000FAB0EE4E0A80ED038AC0ED068A08EE5D
:103650006F0A80ED048AC0ED078A80ED058AC0ED0F
:10366000088A10EE100AFCF790FF53EC192BFCF7B8
:103670009AFE53EC1A2BFCF796FE41EC1D0B3EEE26
:10368000080A00E0AEE010EE100AFCF77EFF53ECF3
:103690001B2BFCF788FE41EC1E0B18EE100AFCF702
:1036A00074FF53EC1C2BFCF77EFE53EC1E2BFCF737
:1036B000D3FD53EC1D2BFCF7CFFDFCF7A9FF38EE33
:1036C000A80A0446286008EEEF0A10EE100AFCF77C
:1036D0005CFF53EC192BFCF766FE53EC1A2BFCF73E
:1036E00062FE38EE880A41EC190B30EE080A10EE43
:1036F000100AFCF74AFF53EC1B2BFCF754FE41EC7D
:103700001A0B18EE900AFCF740FF53EC1C2BFCF749
:103710004AFE53EC1A2BFCF79FFD53EC192BFCF7D8
:103720009BFDFCF775FF624A01463860944203DD59
:10373000B2EE040A85ED000A3846914203DDB2EE8E
:10374000040A80ED000A5B492A688A4203D9BAEE6E
:10375000040A85ED000A02688A4203D9BAEE040A17
:1037600080ED000A95ED000A4FF07C5210EE101A21
:10377000914208DAB5EEC00AF1EE10FA03DDB6EEBA
:10378000000A85ED000A90ED000A10EE101A914231
:1037900008DAB5EEC00AF1EE10FA03DDB6EE000A63
:1037A00080ED000A95ED000A4FF03F4210EE101A2E
:1037B000914208D2B5EEC00AF1EE10FA03D2BEEE85
:1037C000000A85ED000A90ED000A10EE101A9142F1
:1037D00008D2B5EEC00AF1EE10FA03D2BEEE000A2E
:1037E00087ED000A9AF800105046172902D01829D0
:1037F00013D004E0304A85ED00FA82ED00FA2F4D37
:103800002F4C304A304BB8F1390F0BD0B8F1400F84
:103810000CD0B8F1410F11D015E0244ACBF800606C
:103820009660E7E72D68012D0BD00CE02D68022D86
:1038300007D008E0266016601E602CE02D68032D7E
:1038400001D13F29F6D02468012C24D18479212C80
:1038500021D11E4C012902D0022904D00AE0B0F87F
:10386000011049BA03E0B0F8011049BA49421160A9
:10387000C4F80090C178012902D0022904D00AE0DE
:10388000BAF8040040BA03E0BAF8040040BA404273
:103890001860C4F800900548322146700C48BDEC11
:1038A000108BBDE8F05FFCF7C5BC0000EC01002008
:1038B00000002041000020C1CC0100205C0000205D
:1038C000580000209401002098010020780000207A
:1038D000280600200148FEF789B9000014040020E2
:1038E0000148FEF783B900005C0400200148FEF7A0
:1038F0007DB90000A4040020F0B585B0054602267D
:103900002020CDE9000600240320CDE90240072055
:103910000E4F049069463846FDF7B2F84020CDE9D5
:10392000000669463846FDF7ABF80A4908480860C2
:10393000C1E901540C20CC60C1E904408C61084607
:10394000CC61FEF78BFA05B0F0BD0000000C024020
:10395000004400407C05002010B513460C460A4682
:1039600001460448FEF7A4FB08B1002010BD20B2B8
:1039700010BD00007C0500200A4601464FF0FF33D1
:103980000148FEF7FCBB00007C050020FEE77CB58B
:1039900015460646002903DA484240F4004001B2C9
:1039A0006C460A46601C8DF80030411CFEF73AFC5C
:1039B0000022211DE01CFEF735FC2A46A11D601DDA
:1039C000FEF730FC07236A462921304600F010FF3D
:1039D0007CBD00000FB4084B10B504A902AA0398DF
:1039E00000F0EEF8044602A9002000F06CFC20462E
:1039F00010BC5DF814FB0000C74200080907090E5F
:103A0000002804DB00F1E02080F80014704700F08B
:103A10000F0000F1E02080F8141D704702E008C894
:103A2000121F08C1002AFAD170477047002001E038
:103A300001C1121F002AFBD1704700002DE9FF5F72
:103A400082B00021DDE90430020DDDF840B003430F
:103A500018D044F61050A2F2FF32424315141198C8
:103A600001281FD0A5EB0B00401C5FEA000A4FF0B5
:103A700000064E4FDFF83891B046504615D5CAF1D2
:103A8000000413E0119801244AA3012801D16FEA30
:103A90000B010298119AC0E90031C0E9024206B058
:103AA000BDE8F09FCBF10000DFE704460021404A6B
:103AB000491842EB0450CDE9001012E0E00707D0AE
:103AC00032463B4640464946FCF76DFC80468946F7
:103AD00032463B4610461946FCF765FC06460F4643
:103AE0006410002CEAD1DDE90401DDE90023BAF11C
:103AF000000F06DAFCF757FC42464B46FCF753FC36
:103B000005E0FCF7C2FC42464B46FCF7BEFC04460F
:103B10000E460022284BFCF763FD03D84FF0FF3020
:103B2000014607E00022254B20463146FCF794FB76
:103B3000FCF765FE102409E0002C0ADB0A220023B2
:103B4000FCF740FB039B30321A55641E50EA010219
:103B5000F2D1641C039AC4F111031444119A012A8E
:103B600003D0012208430DD10AE0084304D000200D
:103B70004FF0110B119072E7A3EB0B056D1E0DE0DA
:103B80005B4504DD4FF0000205F1010504E003DAB6
:103B90004FF00002A5F10105002AECD0029811991E
:103BA000C0E90231C0E9004579E700000000144097
:103BB0000000F03F300000000000F0430000E03F54
:103BC0002DE9FF4F95B09A46884606460025EEE15E
:103BD000252877D100242746F94A0121039400E0E3
:103BE000044316F8013F203B01FA03F01042F7D1DD
:103BF00030782A2811D06FF02F033078A0F13002EE
:103C0000092A16D8039A44F0020402EB820203EB5D
:103C100042021044761C0390EFE758F8042B0392FD
:103C2000002A03DA504244F40054039044F00204A2
:103C3000761C30782E2816D116F8010F44F00404B3
:103C40002A280DD06FF02F023078A0F13003092B15
:103C500009D807EB870302EB4303C718761CF3E789
:103C600058F8047B761C30786C280FD006DC4C2882
:103C700017D068280DD06A2814D104E0742810D019
:103C80007A280FD10DE044F400140AE044F48014C3
:103C900001E044F440147278824202D104F58014A9
:103CA000761C761C307866280BD013DC582877D029
:103CB00009DC002875D04528F6D04628F4D04728DE
:103CC0001AD193E118E0632835D0642879D06528AB
:103CD00012D18BE1702873D008DC6728F1D06928F5
:103CE0006FD06E280DD06F2806D1ACE073282CD091
:103CF000752874D0782853D05246179990476D1C78
:103D000054E1C4F30250022809D003280DD0D8F89A
:103D1000001004280DD00D6008F1040846E1D8F821
:103D20000010EA17C1E90052F6E7D8F800100D803C
:103D3000F2E70D70F0E718F8041B8DF80010002072
:103D40008DF80100EB46012003E058F804BB4FF06A
:103D5000FF3061074FF0000102D40DE009F10101CD
:103D60008946B9420FDA8145F8DB1BF809100029B2
:103D7000F4D108E009F1010189468142FADB1BF820
:103D800009100029F6D103985346A0EB09072146F4
:103D90003846179A00F080FA284400EB090507E03E
:103DA00044E008E10DE01BF8010B524617999047DB
:103DB000B9F10109F7D2534621463846179AF2E085
:103DC00039E00A21C4F302524FF0000B0091022A9D
:103DD00006D058F8040BC117032A09D00AE023E0E3
:103DE00008F1070020F00702F2E80201904605E022
:103DF00000B2C117042A01D140B2C117002906DA66
:103E00000A460021404261EB02012D2202E0220518
:103E100004D52B228DF80420012203E0E20701D013
:103E20002022F7E7914657E00A2100E010214FF0E9
:103E3000000B00910BE010214FF0000B44F0040444
:103E40000827009103E008204FF0000B0090C4F316
:103E50000252022A05D058F8040B0021032A08D088
:103E600008E008F1070020F00702F2E8020190469E
:103E700003E080B2042A00D1C0B24FF0000922074B
:103E80002AD53278702A07D0DDF800C08CF0100CEB
:103E90005CEA0B0C05D00EE040228DF804200122D4
:103EA00008E050EA010306D030238DF804308DF885
:103EB000052002229146009B83F0080353EA0B037E
:103EC0000AD150EA010201D1620705D530228DF8EE
:103ED00004204FF001097F1E3278582A04D039A2FD
:103EE0000C920CAA02920BE03BA2F9E75B46009A07
:103EF000FCF768F90C9B9B5C029A521E02921370AD
:103F000050EA0102F2D1029804A9081A00F1200B2C
:103F1000600702D524F4803400E001275F4502DD0C
:103F2000A7EB0B0000E0002000EB0B0100900398D2
:103F30004944401A0390E00306D453462146179A99
:103F4000039800F0A9F90544002706E001A85246AD
:103F5000C05D179990476D1C7F1C4F45F6DBE00351
:103F60000CD553462146179A039800F095F905445D
:103F700004E030205246179990476D1C0099481E66
:103F800000900029F5DC08E002980299524600787A
:103F9000491C0291179990476D1CBBF10001ABF1D0
:103FA000010BF1DC5BE100F065F90544761C30782B
:103FB00000287FF40DAE19B02846BDE8F08F000050
:103FC00009280100303132333435363738396162EF
:103FD00063646566000000003031323334353637B3
:103FE000383941424344454600000000600700D490
:103FF000062708F1070020F00700F0E802238046BA
:1040000003F0004C5FEA0C0001D097A009E0200506
:1040100001D596A005E0E00701D095A001E0AFF240
:104020004C001390307823F0004365280CD006DC58
:10403000452809D046281DD047287FD13BE0662877
:1040400018D067287AD136E00021112F01DB11202A
:1040500000E0781CCDE9000104A90CA8FFF7EEFCF4
:10406000DDE90D010C9A4FF0000B07F101091092E8
:1040700000914EE04FF000400097CDE9011004A9F7
:104080000CA8FFF7DBFCDDE90D020C9B0F994FF04C
:10409000000B91461093009211B9791C00EB0109B5
:1040A000B7EB090003D4C0F1FF3B07F10109A9EB0D
:1040B0000700019042E0012F00DA01270021112FB3
:1040C00001DD112000E03846CDE9000104A90CA86B
:1040D000FFF7B4FCDDE90D010C9A00914FF0000BE5
:1040E000B946109221070FD4009A4A4503DA914647
:1040F00001E0A9F10109B9F1010F05DD109AA9F15B
:104100000101515C3029F4D0B84202DA10F1040FF9
:1041100003DA0121CDE9011010E0002803DC83441B
:10412000A9EB000102E0411C494500DD8946A0EBF6
:104130000B00401C01904FF000400290200705D476
:104140000198484502DB4FF0FF30019000208DF8C8
:104150004B0002980DF14B07B0F1004F25D0022023
:104160000C902B200D90029800280CDA404202900F
:104170002D200D9007E00A210298FCF765FA3031F6
:10418000029007F8011D0C99481E0C900029F2DCE2
:1041900002980028EFD1791E0D980870307800F051
:1041A000200040F0450007F8020D11A8C01BC01DFB
:1041B00002901398007800B1012000EB09010198EA
:1041C00001EBE071029801440398401A401E0390ED
:1041D000E00306D453462146179A039800F05CF892
:1041E00005441398007818B15246179990476D1CF2
:1041F000E00323D553462146179A039800F04CF864
:1042000005441BE0BBF1000F07DB0098584504DDB7
:104210001098179910F80B0001E0179930205246BA
:10422000904701980BF1010B401E05F1010501902B
:1042300004D12E205246179990476D1CB9F1000108
:10424000A9F10109DEDC05E017F8010B52461799C8
:1042500090476D1C0299481E02900029F4DC5346D9
:104260002146179A03989EE62D0000002B000000BF
:10427000200000002DE9F041044600251E461746A7
:10428000880404D405E039462020B0476D1C641E24
:10429000F9D52846BDE8F0812DE9F0410446002516
:1042A0001E469046C80301D5302700E02027880429
:1042B00004D505E041463846B0476D1C641EF9D56B
:1042C0002846BDE8F0810A68531C0B6010707047E7
:1042D0002DE9F04F2DED068B0D460646824687B040
:1042E00093460C4628437CD04FF49670864200DDFE
:1042F0000646854200DD0546C648864200DA064687
:10430000854200DA0546C44F4FF00009C7F82C90EB
:10431000C7F83090F86B301AFCF726F99FEDBFAB69
:1043200053EC1A2BFCF73FF841EC180BF86B796C47
:1043300030440844FCF718F99FEDBA1B53EC112BDD
:10434000FCF731F841EC190B3046FCF70DF99FED05
:10435000B71B53EC112BFCF726F853EC192BFBF78A
:104360007BFF53EC182BFBF777FFFCF751F98046E6
:10437000386C281AFCF7F8F89FEDAE1B53EC112BA4
:10438000FCF711F841EC180B386CB96C2844084460
:10439000FCF7EAF853EC1A2BFCF705F841EC190B83
:1043A0002846FCF7E1F89FEDA51B53EC112BFBF71A
:1043B000FAFF53EC192BFBF74FFF53EC182BFBF7CD
:1043C0004BFFFCF725F908EE900A4046FCF7DDF8B4
:1043D0009FED9C1B53EC112BFBF7E5FFFCF718F945
:1043E00000E012E1B1EE000A08EE100A68EE808AE1
:1043F000F86B7864FE63386CB8643D649FED930A93
:10440000B4EEC08AF1EE10FA01DDB0EE408AF4EEAF
:10441000C08AF1EE10FA01DDF0EE408A9FED8C0AC1
:10442000B4EEC08AF1EE10FA01D2B0EE408AF4EE9A
:10443000C08AF1EE10FA01D2F0EE408ABBF1010F12
:1044400034D118EE100A4FF07E51824AB7EE000ABE
:10445000FFEE000A884207DAB5EEC08AF1EE10FAE4
:1044600002DDB0EE408A03E018EE100A904206D258
:10447000B5EEC08AF1EE10FA01D2B0EE608A18EE05
:10448000900A884207DAF5EEC08AF1EE10FA02DDF2
:10449000F0EE408A03E018EE900A904206D2F5EE64
:1044A000C08AF1EE10FA01D2F0EE608A18EE900A9E
:1044B000FCF76BF805460E4618EE100AFCF765F897
:1044C00002AA009482E86300534663A16D48FA6C27
:1044D000FFF780FA6B48FBF7B8FE82B232236949D6
:1044E0006948FDF74CFEF86C6849401CF864884246
:1044F00001DDC7F84C90BDEEC80AB86BB8EEC08AB3
:10450000BDEEE80AF8EEC08A00EE100A4248B8EEA6
:10451000C00A803870EE080A90ED1A0AB8EEC00A98
:10452000F4EEC00AF1EE10FA6ED2B96B00EE101A7A
:10453000B8EEC00A70EE080A90ED190AB8EEC00A8B
:10454000F4EEC00AF1EE10FA5EDD796B00EE101A9F
:10455000B8EEC00A70EE280A90ED1B0AB8EEC00A49
:10456000F4EEC00AF1EE10FA4ED2796B00EE101A9A
:10457000B8EEC00A70EE280A90ED1C0AB8EEC00A28
:10458000F4EEC00AF1EE10FA3EDD786B4FF47A6477
:1045900000EE100A64232246B8EEC00A30EE280A64
:1045A000BDEEC00A10EE100A01B2042000F01EF9A0
:1045B000786B00EE100AB8EEC00A30EE280ABDEEA5
:1045C000C00A10EE100A78630A20FCF747FAB86BAD
:1045D000642300EE100A2246B8EEC00A30EE080A44
:1045E000BDEEC00A10EE100A01B2032000F0FEF882
:1045F000B86B00EE100AB8EEC00A30EE080ABDEE45
:10460000C00A10EE100AB863002007B0BDEC068B9C
:10461000BDE8F08FD4FEFFFF680100207B14AE4799
:10462000E17A843FFA7E6ABC7493883F0000000000
:104630000000D03F7B14AE47E17A943F9A99999954
:104640009999D93F333333333333F33F0000C842B2
:104650000000C8C2000080BF20204E6F3A25642CA5
:104660002020783A25642C793A25642020746865E6
:1046700074613A252E32662C723A252E326620203D
:1046800020200000C4050020A404002040420F00A8
:1046900010B50420FDF7E0FF40F2DC5188420EDD4A
:1046A000074C40F6FF72B4F8740094F8303001B251
:1046B000042000F09BF804F18001606F486310BD96
:1046C000E800002010B50420FDF7C6FF40F2DC51E1
:1046D00088420EDD074C40F6FF72B4F8780094F87B
:1046E000303001B2042000F081F804F18001A06FA5
:1046F000486310BDE800002038B50024254601219C
:10470000684600F0E1FC00280FD09DF80010E0B2F0
:1047100060F30F2461F30704FF2901D1FF2805D0BE
:104720006D1CEDB20A2DEAD9002038BD012038BD3C
:1047300010B50220FDF790FF0C49CA6BA2F5487234
:1047400090420ADD91F83030088FBDE8104001B288
:104750004FF47A62022000F049B83223BDE81040DD
:10476000102203A10748FDF70ABD0000E800002061
:10477000636C61775F746F6F6F6F6F5F6261636BA4
:1047800000000000A404002010B50220FDF764FF23
:104790000A49CC6BA04209DD91F8303021B2BDE866
:1047A00010404FF47A62022000F020B83223BDE8B6
:1047B0001040112202A10748FDF7E1BCE8000020EB
:1047C000636C61775F746F6F6F6F6F5F726967683B
:1047D00074000000A404002003490248096800692D
:1047E00088637047E80000203C030020FFF7CFB843
:1047F000F8B51C4615460E46074600F063FC03203C
:10480000009023462A463146384600F069FE00F003
:1048100043FE3846BDE8F840FCF748B82DE9F047BC
:104820008846054600F0BEFD00F0F0FB00F03EFCBF
:10483000FFF72EFF4FF496794846FCF70FF9FFF784
:10484000A3FF3B4E4FF4FA6206F18004012D04D021
:10485000022D0BD0032D12D01AE0208A96F83030AA
:1048600001B20320FFF7C2FF206910E0A08B96F889
:10487000303001B20320FFF7B9FFE06907E0A088FC
:1048800096F8303001B20320FFF7B0FF6068A063F4
:104890004FF4FA773846FCF7E1F800F0EFFB4846B2
:1048A000FCF7DCF8FFF798FFC820FCF7D7F800F01A
:1048B000FDFB4FF4C870FCF7D1F8FFF739FFFA00A1
:1048C000012D04D0022D0BD0032D12D01AE0A08AA6
:1048D00096F8303001B20420FFF788FF606910E0DD
:1048E000A08C96F8303001B20420FFF77FFF606A99
:1048F00007E0208996F8303001B20420FFF776FFF8
:10490000A0686063C820FCF7A9F8B8F1010F07D0D0
:1049100000F09CFB4FF46170BDE8F047FCF79EB8D7
:104920003846FCF79BF800F09DFB3846F4E70000A2
:10493000E80000202DE9F0470E46074600F032FD62
:1049400000F064FB00F0B2FB4FF4FA784046FCF74D
:1049500085F8324D4FF4FA624FF47A6905F180041C
:10496000012F04D0022F14D0032F2FD040E0208A33
:1049700015F8303F01B20320FFF738FF2069A0632C
:10498000A08A2B7801B24A460420FFF72FFF606906
:104990002DE095F83000012EC3B210D0A08B01B2EB
:1049A0000320FFF723FFE069A063A08C95F8303067
:1049B00001B24A460420FFF719FF606A17E0208C15
:1049C00001B20320FFF712FF206AEDE7A08815F877
:1049D000303F01B20320FFF709FF6068A063208920
:1049E0002B7801B24A460420FFF700FFA0686063FD
:1049F000C820FCF733F8012E07D000F027FB4FF456
:104A00006170BDE8F047FCF729B844464046FCF722
:104A100025F800F027FB2046F3E70000E80000201F
:104A200008B5FCF741F9FDF749FEFDF70BFCFDF772
:104A30006BFDFDF785FDFDF79FFDFDF75BFCFDF7C9
:104A40008FFCFDF7C3FCFDF743FDFDF725FD0122BB
:104A5000D149D248FDF784FB2822D149D148FDF73E
:104A60008EF8D148FCF722FDD048FCF71FFD00214D
:104A7000CF48FCF723FF0421CD48FCF71FFF082196
:104A8000CB48FCF71BFF0C21C948FCF717FF4FF47C
:104A90007A70FBF7E3FF00F0AFFA6420FBF7DEFF6C
:104AA000FFF710FE012000F007FD00F0FFFAFFF70E
:104AB0003FFE00F0B5FA012000F088FC4FF4617071
:104AC000FBF7CCFFBB4C002632230222BAA1B5482B
:104AD000E660FDF754FB00F0DDFAB849B84F01205D
:104AE000B84D086038602E6007E000BF00F006FB9C
:104AF0003220FBF7B3FF386818B12868616A884232
:104B0000F4DBAF48066000F075FC3220FBF7A6FF2F
:104B1000DFF8A082DFF8B0A2DFF8B092032708F137
:104B200060084FF4FA7B20680128404658F82700B7
:104B30004FF0000116D0FFF7FDFE00F087FA00BF2E
:104B400058F82700E0650120A0654FF42F702E6013
:104B5000FBF784FF32230B229DA19248FDF70FFB48
:104B600058460AE0FFF75AFEEAE7DAF80010012299
:104B7000D9F80000FFF7ACFBA068FBF76FFFA06D52
:104B800018B12868616A8842EFDBA66520680128B1
:104B90005DD092480068009000F038FA00F086FA84
:104BA000FFF776FD5846FBF759FFFFF7EDFD4FF491
:104BB0002F70FBF753FF00F061FA4FF4C870FBF75A
:104BC0004DFFFFF709FE4FF4C870FBF747FF00F0F9
:104BD0006DFA4FF41670FBF741FF0098642301B2A1
:104BE0004FF47A620420FFF701FEFFF7A1FD58465B
:104BF000FBF734FF00F01EFA40F24C40FBF72EFFAB
:104C000000F004FA4FF41670FBF728FF7F1C062F04
:104C100089DB4FF4FA70FBF721FFFFF753FD01200A
:104C200000F04AFC00F042FA4FF47A60FBF716FFFE
:104C30003223022260A15B48FDF7A1FA00F02AFAB4
:104C40005E495F4F0120086038602E600FE000F081
:104C5000F1F95846FBF702FF00F0D8F95846D3E7C0
:104C600000F04CFA3220FBF7F9FE386818B12968D9
:104C7000606A8142F4DB0020386000F0BBFB322028
:104C8000FBF7ECFE032600274FF4FA7B206801288F
:104C9000404658F826004FF0010115D0FFF74AFEB4
:104CA00000F0D4F958F82600E0650120A0654FF423
:104CB0002F702F60FBF7D2FE32230B2244A139481C
:104CC000FDF75DFA58460AE0FFF7A8FDEAE7DAF8D3
:104CD00000100122D9F80000FFF7FAFAA068FBF7EC
:104CE000BDFEA06D18B12868616A8842EFDBA76538
:104CF0002068012846D039480068009000F086F905
:104D000000F0D4F9FFF7C4FC5846FBF7A7FEFFF705
:104D10003BFD4FF42F70FBF7A1FE00F0AFF94FF40D
:104D2000C870FBF79BFEFFF757FD4FF4C870FBF709
:104D300095FE00F0BBF94FF41670FBF78FFE00985C
:104D4000642301B24FF47A620420FFF74FFDFFF7AE
:104D5000EFFC5846FBF782FE00F084F940F24C402D
:104D6000FBF77CFE00F052F94FF41670FBF776FE6D
:104D7000761C062E8ADB00F099F95846FBF76EFE8A
:104D80006420FBE700F06EF95846FBF767FE00F081
:104D90003DF95846EAE7000068020020CC030020F5
:104DA00028060020A4040020AC020020F402002009
:104DB0003C0300200000002043430000800200204C
:104DC0009C0200206C020020980100209401002029
:104DD0006E6561722067726F756E64009C010020C1
:104DE00070EE602A30EE202AB5EEC00A0122FCEEF9
:104DF000E21ABCEEC21A08B5F1EE10FA37DBF5EE96
:104E0000C00AF1EE10FA32DB30EE600A0629B1EE8C
:104E1000400ABCEEC00A29D2DFE801F02803070BE4
:104E200018E911EE101A00927BE011EE101A0092B0
:104E30008AE0F5EEC02AF1EE10FA03DB11EE901ACB
:104E40000092BEE010EE101A00925AE0F5EEC02A71
:104E5000F1EE10FA04DB00BF11EE901A0092C1E0EF
:104E600010EE101A009250E0FBF77CFD08BDB5EE85
:104E7000C00AF1EE10FA24DBF5EEC00AF1EE10FAEA
:104E80001FD20629F2D2DFE801F00504030613B2AF
:104E9000E2E7D3E7EAE7B5EEC02AF1EE10FAC0DAAE
:104EA000B1EE420A0092BCEEC00A10EE101A3EE0CB
:104EB000B5EEC02AF1EE10FAB7DA11EE101A009230
:104EC00048E070EEC01AB5EEC00ABCEEE11AF1EE91
:104ED00010FA44D2F5EEC00AF1EE10FA3FDB70EEA4
:104EE000801A70EE800A0629BCEEE00AF1EE600A34
:104EF000FCEEE00ABAD2DFE801F0035D6E0C1F7A27
:104F0000B4E78AB2034601215EE08AB2034600217B
:104F10006BE0F5EEC01A0092F1EE10FA05DB10EE30
:104F2000101A03468AB2002104E010EE901A0346DC
:104F30008AB20121012097E7F5EEC01A0092F1EE46
:104F400010FA05DB10EE101A03468AB2012104E0C4
:104F500010EE901A03468AB20021042084E7B5EED1
:104F6000C00AF1EE10FA81D2F5EEC00AF1EE10FAA5
:104F700090D2B1EE402A30EEC00A32EE602A062905
:104F8000B1EE400ABCEEC22ABCEEC00AB8D2DFE8DD
:104F900001F00304080C1D2E68E712EE101A0092AF
:104FA000C5E712EE101A0092D4E7F5EEC01AF1EE42
:104FB00010FA03DB11EE101A0092A2E710EE101A9D
:104FC000009203468AB2002102204DE7F5EEC01A96
:104FD000F1EE10FA03DB11EE101A009295E710EED5
:104FE000101A009203468AB2012103203CE7BDE873
:104FF00008400020FBF7A0BC4FF4E130FEF77CBC7A
:105000004FF4FA70401E80B2FCD270470349024848
:105010000968806888637047E80000203C0300202E
:10502000034902480968406888637047E800002027
:105030003C030020044840F6FF7210F8343F808B98
:1050400001B20120FFF7D2BBE8000020044840F67F
:10505000FF7210F8343F008D01B20120FFF7C6BB8C
:10506000E8000020044840F6FF7210F8303F808AC4
:1050700001B20120FFF7BABBE8000020044840F667
:10508000FF7210F8343F808A01B20120FFF7AEBBF7
:10509000E8000020044840F6FF7210F8343F808C8E
:1050A00001B20120FFF7A2BBE8000020044840F64F
:1050B000FF7210F8343F008C01B20120FFF796BB5D
:1050C000E8000020FFF79CBF024A89B25268FEF751
:1050D00043BC0000DC00002008B502236A46FDF74F
:1050E0006BFA022802D04FF0FF3008BD9DF8011086
:1050F0009DF80000FDF7D2FA80B208BD38B55B4CD0
:10510000D4ED020A94ED010A94ED041A50EE010A5E
:1051100094ED031A70EEC10AFDEEE00A10EE900A5B
:10512000A061D4ED020A94ED041A50EE010A94ED48
:10513000031A70EE810AFDEEE00A10EE900AE061BB
:10514000D4ED020A94ED041A40EE010A94ED031A1C
:1051500070EEC10AFDEEE00A10EE900A2062D4ED76
:10516000020A94ED041A40EE010A94ED030A30EEAF
:10517000800ABDEEC00A10EE100A6062A169606983
:10518000814200DDA061E169814200DDE061216AC8
:10519000814200DD2062616A814200DD6062A169B6
:1051A0004042814200DAA061E169814200DAE061B7
:1051B000216A814200DA2062616A814200DA60621B
:1051C000A069012500280095A06903DB002382B2B5
:1051D000012103E04042002382B219460120FBF77F
:1051E000C1FB0A20FBF73AFCE06900950028E06962
:1051F00003DB002382B2012103E04042002382B29C
:1052000019460220FBF7AEFB0A20FBF727FC206AB9
:1052100000950028206A03DB002382B2012103E00D
:105220004042002382B219460320FBF79BFB0A2071
:10523000FBF714FC606A00950028606A03DB00231A
:1052400082B2012103E04042002382B219460420C9
:10525000FBF788FB0A20FBF701FC0020FBF76CFB47
:10526000BDE838400A20FBF7F9BB0000C001002070
:105270004B4A08B5D2ED000AB5EEC00A0120FCEE9B
:10528000E00AF1EE10FA30DBBCEEC00A062919D2B2
:10529000DFE801F018030C192264009010EE900A68
:1052A0000121C3B210EE100A82B237E0009010EE76
:1052B000900A0121C3B210EE100A82B238E000BF9A
:1052C000FBF750FB08BD009010EE900A0121C3B21D
:1052D00010EE100A82B235E0009010EE900A012123
:1052E000C3B210EE100A82B236E0B5EEC00AF1EE9B
:1052F00010FA38D2B1EE400A0629BCEEC00AE1D25B
:10530000DFE801F003040E18222CDBE7009010EE1A
:10531000900A0021C3B210EE100A82B20120CFE73A
:10532000009010EE900A0021C3B210EE100A82B273
:105330000220C5E7009010EE900A0021C3B210EEE3
:10534000100A82B20320BBE7009010EE900A002101
:10535000C3B210EE100A82B20420B1E7BDE80840E3
:105360000020FBF7E9BAB5EEC00AF1EE10FAA9D1B8
:1053700001290BD002290CD003290DD00429A1D179
:1053800001210420BDE80840FBF7BEBA0121084610
:10539000F8E701210220F5E701210320F2E70000F0
:1053A000C00100200849074A0128096805D00228E1
:1053B00005D0032805D1106A02E0906900E0D069A9
:1053C00008647047E80000203C0300200849074AB1
:1053D0000128096805D0022805D0032805D1D06A24
:1053E00002E0506A00E0906A08647047E80000201C
:1053F0003C03002010B500210120FBF785FA0A20AC
:10540000FBF72CFB00210220FBF77EFA0A20FBF7BA
:1054100025FB00210320FBF777FA0A20FBF71EFB90
:1054200000210420FBF770FABDE810400A20FBF7CA
:1054300015BB000008B50021ADF800100A49C0F303
:10544000080048604FF4FA5209E000BFBDF80000C0
:10545000401CADF80000BDF80000904202D808687A
:105460000006F3D508BD00000010014038B5054620
:1054700000200C468DF800008DF800009DF800001B
:10548000A04208D29DF80000285CFFF7D3FF9DF8EA
:105490000000401CF0E738BD10B5054C217800290C
:1054A00004D00448FEF768FA0020207010BD000008
:1054B000DC000020EC04002010B501280DD10748C5
:1054C0004FF47A7200F1800490F83030208D01B2F0
:1054D0000320FFF78BF9A06AA06310BDE80000204D
:1054E0002DE9FF478046DDF830904FF000008DF841
:1054F00008004FF0FF008DF800008DF801001C46F9
:1055000015000F464FF002068DF802808DF80490CA
:1055100007D0E01CC6B28DF803608DF80570062137
:1055200002E08DF803600521684600F023F808EBDF
:10553000060101EB090038448DF808007DB1002117
:1055400007E0685C9DF80820491C10448DF80800AD
:10555000C9B2A142F5D32146284600F00BF89DF8C8
:1055600008000121C0438DF8080002A800F002F8ED
:10557000BDE8FF8730B5074B074C07E01A78802A53
:1055800004D210F8015BA554521C1A70491EF5D2C2
:10559000187830BDDC000020EC0400200000000082
:1055A00000000000010203040607080900000000D3
:1055B00001020304D455000800000020A0020000EE
:1055C0005408000880560008A0020020700800005F
:1055D0002C3A0008413201B20A327832B472962372
:1055E000E8032AF425F1091113D13205193B115AA8
:1055F000022C2904290C29140140294C82100B1774
:1056000024F48C7264326C32683256325C324A3224
:105610004E32193245DA6F0C32B42AF068220D4B43
:1056200036060423F8071A48BD1A300823390C1A25
:1056300078751ABD1823D00B1A74081A081823D8C5
:105640000E23FA0F4B34080C4B900A041A59145AC3
:105650001614290C1AC4085AE20C1A68401A3104AC
:1056600029281A4F088129109A071001162334435C
:10567000C3803F021F1419B70161093E6472C8005C
:040000050800018965
:00000001FF
