:020000040800F2
:10000000100B0020A1010008172600088722000815
:100010001526000805090008A539000800000000A1
:100020000000000000000000000000001927000888
:100030000709000800000000192600081B27000817
:10004000BB010008BB010008BB010008BB010008A0
:10005000BB010008BB010008BB010008BB01000890
:10006000BB010008BB010008BB010008BB01000880
:10007000BB010008BB010008BB010008BB01000870
:10008000BB010008BB010008BB010008BB01000860
:10009000BB010008BB010008BB010008BB01000850
:1000A000BB010008BB010008BB010008BB01000840
:1000B000C5270008D1270008DD270008BB0100087C
:1000C000BB010008BB010008BB010008BB01000820
:1000D000BB010008ED380008F938000805390008B0
:1000E000BB010008BB010008BB010008BB01000800
:1000F000BB010008BB010008BB010008BB010008F0
:10010000BB010008BB010008BB010008BB010008DF
:10011000CD2A0008D92A0008BB010008BB0100084D
:10012000BB010008BB010008BB010008BB010008BF
:10013000BB010008BB010008BB010008BB010008AF
:10014000BB010008BB010008BB010008BB0100089F
:10015000BB010008BB010008BB010008BB0100088F
:10016000BB010008BB010008BB010008BB0100087F
:10017000BB010008BB010008BB0100080000000033
:10018000BB010008BB010008DFF810D000F050FBF5
:1001900000480047F9480008AFF30080100B00202A
:1001A0000648804706480047FEE7FEE7FEE7FEE711
:1001B000FEE7FEE7FEE7FEE7FEE7FEE7B5270008FD
:1001C000890100082DE9F05F0546002092469B4614
:1001D00088460646814640241BE02846414647465D
:1001E000224600F056FA53465A46C01A914110D39F
:1001F00011461846224600F03DFA2D1A67EB010819
:100200004F4622460120002100F034FA17EB000986
:100210004E41201EA4F10104DFDC484631462A4647
:100220004346BDE8F09FD2B201E000F8012B491E21
:10023000FBD270470022F6E710B513460A46044683
:100240001946FFF7F0FF204610BD421C10F8011BB5
:100250000029FBD1801A70472DE9FE4F804681EAC4
:100260000300C00F0C46009021F0004123F0004530
:10027000B8EB0200A94105D24046214690461C46F3
:100280000B46024623F00040104347D0270DC7F32A
:100290000A00C3F30A510290401A019040286BDA19
:1002A000C3F3130040F4801B0098924620B1002352
:1002B000D2EB030A63EB0B0B01985946C0F14002E5
:1002C000504600F0D7F906460D4650465946019A69
:1002D00000F0EFF910EB08006141002487EA1152A9
:1002E00084EAE7731A4340D0009A62B3019A012A64
:1002F0004FEA075215DC001B61EB02014FF0004290
:1003000002EA0752CDE90042001C41F58011324655
:100310002B4600F026FA03B0BDE8F08F4046214698
:10032000F9E7001B61EB0201001C41F58013001886
:100330005B412018A2F5001747EB030140EAD57096
:10034000B6196D4111E06D084FEA360645EAC075F1
:100350004FEA0752001B61EB0201001C41F58011BE
:1003600049084FEA30000019514132462B4603B08C
:10037000BDE8F04F00F0E6B90098012240000023EC
:10038000D0EB020263EBE073009821464FEAE07481
:10039000B8EB000061EB0401E9E783F000435BE7A1
:1003A00081F0004158E72DE9FE4F81EA030404F093
:1003B000004421F0004100944FF0000B23F0004373
:1003C00050EA01045ED052EA03045BD0C3F30A543E
:1003D000C1F30A552C44A4F2F3340194A0FB025457
:1003E000C1F3130141F48011C3F3130343F48013E9
:1003F00001FB024400FB034E840A970A44EA81543D
:1004000047EA8357A4FB076802958D0A05FB078519
:100410004FEA932C04FB0C542705029D4FEA065823
:1004200047EA1637B5EB08056EEB070C870E920E00
:1004300047EA811742EA8312A7FB0201B6EB0B01E0
:1004400064EB00042B0D43EA0C335E1844EB1C50A4
:10045000DA465146E7FB0201C5F313044FEA0B33BA
:1004600043EA14534FEA0432019C43EA0603A4F121
:100470000C040294009CCDE900B400F072F903B0C2
:10048000BDE8F08F00200146F9E72DE9F04D81EA43
:10049000030404F0004B21F0004514464FF0000A1D
:1004A00023F0004150EA050220D054EA01021DD099
:1004B000C5F30A570246C5F31303C1F31300C1F392
:1004C0000A5640F4801543F48013A7EB0608101B6E
:1004D000D64608F2FD3873EB050002D308F1010897
:1004E00001E092185B41B8F1000F03DA00200146E9
:1004F000BDE8F08D00204FF48011064684460EE0E2
:10050000171B73EB050705D3121B63EB05030643AB
:100510004CEA010C49084FEA300092185B4150EA5E
:100520000107EDD152EA030012D082EA040083EA07
:100530000501084305D0101BAB4106D20122002360
:1005400006E000224FF0004302E06FF0010253107A
:100550001AEB06004CEB085110EB0A0041EB0B01C3
:10056000BDE8F04D00F0EEB80EB5C10F80EAE070C6
:100570000844CA07002140F233438DE80E000A46C2
:100580000B4600F0EEF803B000BD00F0004230F082
:1005900000400AD0C10D01F56071C0F3160042EAB7
:1005A0000151C208400711437047002001467047BF
:1005B00030B5041E71F1000404DB4FF000444042EA
:1005C00064EB0101141E73F1000405DB1C464FF0BF
:1005D0000043524263EB04038B4208BF824230BDAA
:1005E00030B5041E71F1000404DB4FF000444042BA
:1005F00064EB0101141E73F1000405DB1C464FF08F
:100600000043524263EB0403994208BF904230BD5D
:1006100001F0004330B421F0004150EA010206D05D
:100620000A0DA2F56072C1F31301002A02DC30BC8E
:1006300000207047440F44EAC104C100E01830BCF8
:1006400000EBC25000F047B830B50B460146002021
:100650002022012409E021FA02F59D4205D303FA84
:1006600002F5491B04FA02F52844151EA2F1010205
:10067000F1DC30BD202A04DB203A00FA02F1002030
:1006800070479140C2F1200320FA03F319439040D0
:100690007047202A04DB203A21FA02F0002170473B
:1006A00021FA02F3D040C2F12002914008431946DA
:1006B0007047202A06DBCB17203A41FA02F043EAC2
:1006C000E07306E041FA02F3D040C2F1200291400B
:1006D0000843194670470029A8BF7047401C4900CD
:1006E00008BF20F00100704710B4B0FA80FC00FA97
:1006F0000CF050EA010404BF10BC704749B1CCF1C2
:10070000200421FA04F411FA0CF118BF012121434D
:100710000843A3EB0C01CB1D4FEA00614FEA102008
:1007200042BF002010BC704700EBC35010440029AA
:10073000A4BF10BC7047401C490008BF20F0010056
:1007400010BC704710B5141E73F1000408DA401C89
:1007500041F1000192185B411A4301D120F00100E0
:1007600010BD2DE9F04D92469B4611B1B1FA81F2D0
:1007700002E0B0FA80F220329046FFF77BFF044699
:100780000F4640EA0A0041EA0B0153465A46084325
:1007900013D0114653EA010019D0C8F14002504667
:1007A000FFF777FF05460E46504659464246FFF78B
:1007B00061FF084305D0012004E020463946BDE82A
:1007C000F08D0020054346EAE0762C4337430A9833
:1007D0006305E40AA0EB08000022FD0A44EA47543E
:1007E0000A3002D500200146E9E7010510196941E8
:1007F000DDE9084500196941BDE8F04DA2E7C1F304
:100800000A52C1F3130140F2FF3341F480119A42BE
:1008100002DA00200146704740F233439A42A2F2C6
:10082000334202DC5242FFF734BFFFF723BF000020
:10083000064C074D06E0E06840F0010394E807002D
:1008400098471034AC42F6D3FFF7A2FC0C530008D3
:100850002C53000870B58C1810F8015B15F00703D5
:1008600001D110F8013B2A1106D110F8012B03E049
:1008700010F8016B01F8016B5B1EF9D12B0705D451
:100880000023521E0DD401F8013BFAE710F8013B9A
:10089000CB1A921C03E013F8015B01F8015B521EB6
:1008A000F9D5A142D8D3002070BD000038B5054667
:1008B000134C0020FE2DA07020D02078F0B103F062
:1008C0001DFF002818D00421684604F0A9FA042866
:1008D00011D19DF80000A8420DD19DF80110022908
:1008E00009D19DF80210801C0844C0439DF80320E4
:1008F000C0B2824201D0002038BDA170012038BDB5
:10090000A8000020FEE770471FB5002200928DF876
:100910000000FE208DF8010098208DF80200019261
:100920006B208DF803108DF80400029203920521CC
:10093000684604F047FC1FBD1FB5002100918DF8EB
:100940000000FF208DF8010066208DF802006B206A
:100950000191029103918DF803000421684604F08F
:1009600031FC1FBD7FB5002500958DF80000F620F5
:100970008DF8010001958DF80210089C100A8DF881
:1009800004208DF803008DF805308DF806406B20AB
:100990008DF80700029503950821684604F012FCC3
:1009A0007FBD72B6FEE72DE9F0410446876D00F089
:1009B0006DF9064694F835000025022806D08020FF
:1009C000606584F834500120BDE8F081206801683A
:1009D00021F0160101602068416921F08001416128
:1009E000206C08B9A06C20B12068016821F00801D2
:1009F00001602068016821F0010101600CE000F055
:100A000045F9801B052807D920206065032084F85C
:100A1000350084F83450D7E720680068C007EED16D
:100A200094F85C103F208840B860012084F83500BD
:100A300084F834500020C7E790F83510022903D01D
:100A40008021416501207047052180F8351000683C
:100A5000016821F0010101600020704770B5044673
:100A600000F014F90546601C02D0044800780444E4
:100A700000F00CF9401BA042FAD370BD9800002092
:100A80002DE9F84FDFF8BCA10022012503264FF025
:100A90000F090AF1040BAAF1040E00BF0B6805FA56
:100AA00002F42340A34270D10F7907F00307012F0E
:100AB00001D0022F16D187684FEA420806FA08FCD7
:100AC00027EA0C07D1F80CC00CFA08FC4CEA070C1A
:100AD000C0F808C04768A7430C79C4F300149440D9
:100AE0003C4344600C79E443A4070AD0C4684FEA4D
:100AF000420C06FA0CF7BC438F6807FA0CF7274341
:100B0000C7600C7904F00304022C12D1D40800EB66
:100B1000840CDCF820405707FF0E09FA07F824EA96
:100B20000804D1F8108008FA07F848EA0408CCF85D
:100B3000208004684FEA420C06FA0CF7BC430F7998
:100B400007F0030707FA0CF7274307604C6814F413
:100B5000403F70D03C4C276847F4804727602468AA
:100B600022F0030704F480440094384C07EB040C93
:100B7000DCF8084897074FEA177809FA08F7BC43EA
:100B8000334FB84202D1002724E054E0314FB8423D
:100B900001D101271EE0304FB84201D1022719E0F0
:100BA0002E4FB84201D1032714E02D4FB84201D196
:100BB00004270FE02B4FB84201D105270AE02A4F46
:100BC000B84201D1062705E0284FB84201D10727D6
:100BD00000E0082707FA08F72743CCF80878DAF886
:100BE00000405746D1F804C09C435FEACC2C00D5A6
:100BF0001C433C60DBF800405F46D1F804C09C43D6
:100C00005FEA8C2C00D51C433C60DEF80040774640
:100C1000D1F804C09C435FEA8C3C00D51C433C6087
:100C2000084F083F3C68D1F804C09C435FEACC3CC5
:100C300000D51C433C60521C102AFFF42FAFBDE8C6
:100C4000F88F0000083C0140443802400030014069
:100C5000000002400004024000080240000C024074
:100C6000001002400014024000180240001C024024
:100C7000426921EA02030A4043EA02418161704766
:100C80000AB1816170470904FBE7000001488068F0
:100C900070470000980000200248816802781144E3
:100CA00081607047980000200B4810B5016841F43E
:100CB00000710160016841F480610160016841F4E4
:100CC00080710160032000F06FF80F2000F006F83B
:100CD00000F024F8002010BD003C024070B50D4D1E
:100CE00004464FF47A712878B1FBF0F00A4909689C
:100CF000B1FBF0F000F00AFB48B9102C07D200223B
:100D00002146501E00F030F800206C6070BD0120BC
:100D100070BD000098000020A40000200A4808B51B
:100D2000016841F480410160006800F48040009057
:100D30000548001F016841F080510160006800F023
:100D40008050009008BD000044380240002809DBB4
:100D500000F01F02012191404009800000F1E020D5
:100D6000C0F8001170470000F0B40E4B1B680C4631
:100D7000C3F30223C3F10705042D00D90425191D6F
:100D8000072901D2002300E0DB1E012606FA05F147
:100D9000491E214099409E40761E16403143F0BCCA
:100DA00002F038BE0CED00E0064900F007020868CA
:100DB0004FF6FF03184040EA0220034A1043086040
:100DC000704700000CED00E00000FA052DE9F04747
:100DD0000E46050065D0DFF81481D8F80000F7B2A0
:100DE00000F00700B04207D288F80070D8F8000081
:100DF00000F00700B04254D128683D4C810712D55D
:100E0000400703D5206840F4E050206028780007B0
:100E100003D5206840F4604020602068A96820F075
:100E2000F000084320602878C0072DD0304968685A
:100E30000839012812D0022813D0032811D00968DC
:100E4000890700292DDA216821F00301014321607F
:100E5000FFF71CFF814641F2883A0EE009688903DA
:100E6000EFE709688901ECE7FFF710FFA0EB090144
:100E7000514502D90320BDE8F0872068696800F079
:100E80000C00B0EB810FEFD1D8F80010404601F014
:100E90000701B14207D90770006800F00700B042AF
:100EA00001D00120E7E72878400705D52068E968E8
:100EB00020F4E050084320602878000706D5206819
:100EC000296920F4604040EAC100206000F038F851
:100ED0002168084AC1F30311515CC8400649086003
:100EE00006480068FFF7FAFE0020C4E7003C024015
:100EF00008380240F4520008A40000209C000020A2
:100F00000448054900680968044AC1F38221515C1C
:100F1000C8407047A400002008380240045300086D
:100F20000448054900680968044AC1F34231515C2C
:100F3000C8407047A400002008380240045300084D
:100F4000154810B5006810F00C02144813D0411079
:100F5000042A0FD0082A0ED10F4C241F22682368C0
:100F600002F03F025B0207D52068C0F38810A0FBA7
:100F7000010106E0084610BD2168C1F38811A1FBFC
:100F800000010023FFF71EF92168C1F30141491C4C
:100F90004900B0FBF1F010BD083802400024F40015
:100FA0002DE9F84F04006ED02078DFF84C93C0078D
:100FB000A9F104054AD009F104000168C1F38101D7
:100FC000012908D00068C0F3810002280AD1D9F8AD
:100FD0000000400206D52868800337D560680028E5
:100FE000E1D033E06068B0F5803F10D0B0F5A02FBD
:100FF000286810D020F480302860286820F48020F1
:1010000028606068A8B1FFF741FE06460DE0286839
:1010100040F48030F4E740F480202860F7E700BF18
:10102000FFF734FE801B642873D828688003F7D547
:101030000CE0FFF72BFE064605E000BFFFF726FE9B
:10104000801B6428F0D828688003F7D42078DFF864
:10105000AC8280074FF0000A3ED5A748001D01680A
:1010600011F00C0F08D00068C0F3810002280BD1EA
:10107000D9F80000400207D42868800716D5E06838
:10108000012800D112E033E1E068B8B10120C8F8CE
:101090000000FFF7FBFD064605E000BFFFF7F6FD89
:1010A000801B0228C0D828688007F7D528682169E6
:1010B00020F0F80040EAC10028600DE0C8F800A068
:1010C000FFF7E4FD064604E0FFF7E0FD801B022881
:1010D0001FD828688007F7D42078000722D5864FCC
:1010E00087486169703771B101210160FFF7CEFD5A
:1010F000064604E0FFF7CAFD801B022809D83868BD
:101100008007F7D50EE0C0F800A0FFF7BFFD064648
:1011100005E082E0FFF7BAFD801B02287DD8386821
:101120008007F7D42078400768D5DFF8CCB10027D6
:101130000BF13C0BDBF80000C0000BD4DBF8001017
:1011400041F08051CBF80010DBF80000012700F0DF
:10115000805000906B4E3068C00510D4306840F469
:1011600080703060FFF792FD009005E0FFF78EFD84
:101170000099401A022850D83068C005F6D55E4E56
:10118000A0686C3601280FD00528306810D020F0F8
:1011900001003060306820F004003060A068B8B111
:1011A000FFF774FD00900FE0306840F00100F4E7B5
:1011B00040F004003060F7E7FFF768FD0099411A3E
:1011C00041F28830814266D830688007F4D50EE05D
:1011D000FFF75CFD009007E0FFF758FD0099411A0A
:1011E00041F28830814256D830688007F4D42FB15C
:1011F000DBF8001021F08051CBF80010A069C8B3D3
:101200003D49091D0968C1F3810102294AD002281C
:10121000504607D0C8F8600000E03CE0FFF736FD1C
:1012200004463BE04746C8F86000FFF72FFD06463E
:1012300005E000BFFFF72AFD801B02282BD8286895
:101240008001F7D4D4E907010843A16A2E4A49086E
:1012500002EB0141626A41EA8211084394F82C10C2
:1012600040EA0161C9F8001001203866FFF70EFD61
:10127000044606E03EE000BFFFF708FD001B022821
:1012800009D828688001F7D534E000BFFFF7FEFCDD
:10129000001B022802D90320BDE8F88F28688001CE
:1012A000F4D427E00128F7D0D9F80000E26900F46F
:1012B000800191421CD1226A00F03F01914217D176
:1012C00047F6C071626A0140B1EB821F10D1A26A79
:1012D0004FF0FF3300F4403103EB5202B1EB024F09
:1012E00006D194F82C1000F07060B0EB016F01D0C3
:1012F0000120D1E70020CFE7043802400000474238
:10130000800E4742007000400000FFFF10B5401EF5
:10131000B0F1807F01D3012010BD4FF0E024606167
:101320000F21601702F076FB0020A06107202061EA
:10133000002010BD7047704770B590F83C20012A1E
:1013400032D0012480F83C40022280F83D2003681E
:101350005A689D6822F070060A6832435A60134B3F
:1013600002689A4214D0B2F1804F11D0104B9A42C9
:101370000ED0104B9A420BD00F4B9A4208D00F4B15
:101380009A4205D00E4B9A4202D00E4B9A4204D19B
:10139000496825F080031943916080F83D400021A1
:1013A00080F83C10084670BD022070BD000001406E
:1013B0000004004000080040000C00400004014010
:1013C000004001400018004010B5040003D094F81C
:1013D0003D0010B107E0012010BD002084F83C0062
:1013E000204600F01FF8022084F83D00211D2068EF
:1013F00001F0FAF9012084F8460084F83E0084F8F0
:101400003F0084F8400084F8410084F8420084F8EA
:10141000430084F8440084F8450084F83D0000202F
:1014200010BD000008B501681D48B1F1804F11D012
:101430001C4A91421DD1016841F00201016000681F
:10144000002200F00200009011461D20FFF78CFCE6
:101450001D201FE0016841F00101016000680022C9
:1014600000F00100009011461C20FFF77DFC1C20BD
:1014700010E00D4A914211D1016841F00401016070
:101480000068002200F00400009011461E20FFF7C3
:101490006BFC1E20BDE80840FFF758BC08BD0000EB
:1014A00040380240000400400008004090F83D1021
:1014B000012901D001207047022180F83D10016808
:1014C000CA6842F00102CA6000681149884214D01B
:1014D000B0F1804F11D00F4988420ED00E4988429A
:1014E0000BD00E49884208D00D49884205D00D49DD
:1014F000884202D00C49884204D1816801F007017A
:10150000062903D0016841F0010101600020704705
:10151000000001400004004000080040000C0040B2
:1015200000040140004001400018004070B504462E
:1015300090F83C000025012817D0012684F83C6073
:10154000022084F83D002068826822F0770222F4AD
:101550007F4282600868502838D00DDC20284FD0A8
:1015600005DC90B3102811D14AE0022070BD30286C
:1015700046D040280AD13BE060282FD070280DD0FB
:10158000B0F5805F03D0B0F5005F12D0012584F87C
:101590003D60002084F83C00284670BDCB68D1E94E
:1015A0000121206801F099F92068816841F07701F4
:1015B00009E0CB68D1E90121206801F08EF92068AB
:1015C000816841F480418160E1E719E0CA684968B7
:1015D000206801F057FA5021206806E0CA6849687F
:1015E000206801F060FA6021206801F080F9CEE700
:1015F000CA684968206801F045FA40212068F4E78C
:10160000226801461046F0E770472DE9F041044694
:101610000068C66805694FF00007A90713D5B10730
:1016200011D5F91E016101202077206880698007AB
:10163000204602D0FFF7E8FF04E000F0A9F82046BA
:1016400000F03BF92777680716D5700714D5216895
:101650006FF004000861022020772068806910F490
:10166000407F204602D0FFF7CFFF04E000F090F863
:10167000204600F022F92777280715D5300713D523
:1016800021686FF008000861042020772068C06995
:101690008007204602D0FFF7B7FF04E000F078F89B
:1016A000204600F00AF92777E80616D5F00614D58B
:1016B00021686FF010000861082020772068C06959
:1016C00010F4407F204602D0FFF79EFF04E000F0B8
:1016D0005FF8204600F0F1F82777E80708D0F00718
:1016E00006D021686FF001000861204600F04AF939
:1016F000280608D5300606D521686FF080000861FD
:101700002046FFF717FE680608D5700606D5216843
:101710006FF040000861204600F02EFAA8060AD5B6
:10172000B00608D521686FF0200008612046BDE8AA
:10173000F041FFF700BEBDE8F081000010B586B0B3
:10174000044614216846FEF775FD0E49206888425C
:1017500015D10D480021026842F0080202600068BD
:1017600000F0080005904FF4704000900220CDE991
:101770000101CDE9031069460448FFF781F906B07D
:1017800010BD00000008004030380240000C02404C
:10179000704770B5044690F83C0000260D460128BD
:1017A0000FD0012084F83C006AB1042A1DD0082A19
:1017B0002FD00C2A3FD00126002084F83C00304670
:1017C00070BD022070BD206801F09AF82068816920
:1017D00041F0080181612068816921F00401816183
:1017E000206881692A69114311E0206801F0B8F886
:1017F0002068816941F4006181612068816921F478
:1018000080618161206881692A6941EA02218161E0
:10181000D2E7206801F0DAF82068C16941F00801D8
:10182000C1612068C16921F00401C1612068C169FA
:101830002A69114311E0206801F0FCF82068C169B1
:1018400041F40061C1612068C16921F48061C16116
:101850002068C1692A6941EA0221C161ACE710B57B
:10186000040003D094F83D0010B107E0012010BD42
:10187000002084F83C00204600F01EF8022084F886
:101880003D00211D206800F0AFFF012084F84600D4
:1018900084F83E0084F83F0084F8400084F841005A
:1018A00084F8420084F8430084F8440084F845003A
:1018B00084F83D00002010BD7047704710B5044605
:1018C000022249B104290ED0082913D094F841000E
:1018D000012816D0012010BD94F83E000128F9D14E
:1018E00084F83E200FE094F83F000128F2D184F8FC
:1018F0003F2008E094F840000128EBD184F8402014
:1019000001E084F841200122206800F0D9FF164947
:101910002068164A884201D0904203D1436C43F4B8
:10192000004343642068884213D0B0F1804F10D048
:101930000F4988420DD00F4988420AD00E4988428B
:1019400007D0904205D00D49884202D00C49884208
:1019500004D1816801F00701062903D0016841F034
:1019600001010160002010BD0000014000040140A1
:101970000004004000080040000C0040004001400E
:10198000001800402DE9F04706460068DFF8BC91DA
:1019900000256F4CB0F1804F0ED16068401C606034
:1019A000A068401CA0606B48007808B101F004FA00
:1019B0006168494500DD65606749306888427CD1CF
:1019C0002068DFF89CA1401C206064480068012862
:1019D00053D1E0684FF0010801283DD1A0690128EA
:1019E0002BD1206A062801DA401C20625D4E0128B6
:1019F00005D1012196ED000A002003F0E5FA206AE6
:101A0000022805D1022196ED000A002003F0DCFA3D
:101A1000206A032805D1032196ED000A002003F077
:101A2000D3FA206A042805D1042196ED000A00208B
:101A300003F0CAFA206A052803D0E069012808D01B
:101A40000AE0052196ED000A002003F0BDFAC4F873
:101A50001C80A561E5612562206901286AD1606961
:101A6000012867D1A069012808D000222021504612
:101A7000FFF706F9E069012857D05BE00122202139
:101A80005046FFF7FDF8A06A30B938489FED360A96
:101A9000C4F8288080ED000A206A062840DA401C3D
:101AA000334E344F206201280AD194F82C000121D2
:101AB000D6ED000A97ED000A00E045E003F03CF89F
:101AC000206A022808D194F82C000221D6ED000AE1
:101AD00097ED000A03F030F8206A032808D194F843
:101AE0002C000321D6ED000A97ED000A03F024F83C
:101AF000206A042808D194F82C000421D6ED000AAD
:101B000097ED000A03F018F8206A052808D194F828
:101B10002C000521D6ED000A97ED000A03F00CF821
:101B2000206A0628A6D1C4F81C806562A561A5625A
:101B3000E56125622168494506DD50462560BDE81E
:101B4000F0472021FFF794B8BDE8F087A086010098
:101B500044020020CA010020000400402C000020A4
:101B600000080240A80100200000C842C001002077
:101B7000A4010020A00100207047704770470000BA
:101B8000F8B5016804460868CA684B6910F00F0F81
:101B90004FF0000559D003F0010602F49077374367
:101BA00065D0C10705D0D10503D5616C41F00101B5
:101BB0006164410705D5D90703D0616C41F002018A
:101BC0006164810705D5D90703D0616C41F0040138
:101BD0006164010707D502F02001314303D0616C35
:101BE00041F008016164616C00293AD0800604D597
:101BF000900602D5204600F0A4FF20684069616C81
:101C0000C0F38010090700D460B3204600F072FFD3
:101C100020684069400621D52068143050E8001F34
:101C200021F0400140E80012002AF5D1E06BA8B194
:101C30006E490165E06BFEF7FFFE002811D0E06BF6
:101C4000016D01B0BDE8F040084783060FD593064B
:101C50000DD52046BDE8F84000F073BF2046FFF7E1
:101C60008DFFF8BD2046FFF789FF6564F8BD266B40
:101C70002023012E7DD1C6067BD5D60679D50868EE
:101C80004868009048694FF00206400641D5E16B74
:101C9000086840680004000CE8D0A28D8242E5D9B3
:101CA000E085C869B0F5807F2DD020680C3050E801
:101CB000001F21F4807140E80012002AF5D120684D
:101CC000143050E8001F21F0010140E80012002A02
:101CD000F5D12068143050E8001F21F0400140E8A1
:101CE0000012002AF5D184F84230256320680C30B8
:101CF00050E8001F21F0100140E80012002AF5D141
:101D0000E06BFEF750FE6663A08DE18D401A81B254
:101D10002AE0A08DE18D401A81B2E08D0028A5D087
:101D20000029A3D022680C3252E8000F20F49070F2
:101D300042E80007002FF5D12068143050E8002F4A
:101D400022F0010240E80027002FF5D184F842304C
:101D5000256320680C3050E8002F22F0100240E884
:101D60000023002BF5D166632046FFF706FFF8BD80
:101D7000FFE705062BD5150629D594F84100212843
:101D8000F5D1A068B0F5805F01D12069B0B1206ABB
:101D9000411C2162216800784860E08C401E0004EC
:101DA000000CE084E3D12068C16821F08001C160AB
:101DB0002068C16841F04001C160D8E7206A00880E
:101DC000C0F308004860206A801C2062E5E74006F6
:101DD000CDD55006CBD5CA68204622F04002CA6055
:101DE00084F8413000F04EFAC1E70000E52A00080F
:101DF00070B5040004D094F84100002510B106E04D
:101E0000012070BD84F84050204600F023F82420C3
:101E100084F841002068C16821F40051C160204667
:101E200000F0F0FE2068016921F490410161206812
:101E3000416921F02A0141612068C16841F40051E3
:101E4000C1606564202084F8410084F84200656325
:101E5000002070BD2DE9F04186B00446142168468B
:101E6000FEF7E8F96E49DFF8B4C1236800246C4A34
:101E700010390325022608276A4863451ED11368D6
:101E800043F400231360126802F4002205920A68EA
:101E900042F001020A600968CDE9005601F0010133
:101EA000CDE904716946CDE90245FEF7E9FD00225E
:101EB00011463420FEF758FF342038E0DFF868C1BF
:101EC000DFF86881634537D1106840F480101060F6
:101ED000106800F480100590086840F00400086065
:101EE000086800F004000590086840F008000860E9
:101EF000086802AB00F0080005904FF48050CDE96F
:101F0000000683E8B00069464948FEF7B9FD0420A1
:101F1000CDE9000602AB694683E8B0004046FEF713
:101F2000AFFD002211463520FEF71EFF3520FEF7DB
:101F30000DFF06B0BDE8F081DFF8F8C00727634564
:101F400022D1374A121D136843F010031360126840
:101F500002F0100205920A6842F001020A60096864
:101F600002AA01F0010105914FF4C061CDE900160C
:101F700082E8B0006946FEF783FD00221146252065
:101F8000FEF7F2FE2520D2E72B48834220D11068CD
:101F900040F400301060106800F4003005900868CC
:101FA00040F008000860086802AB00F008000590E7
:101FB0006020CDE9000683E8B00069464046FEF7A0
:101FC0005FFD002211462620FEF7CEFE2620AEE75A
:101FD0001A488342ADD1106840F480201060106828
:101FE00000F480200590086840F00200086008684E
:101FF00002AB00F0020005904FF44060CDE900060E
:1020000083E8B00069460E48FEF73AFD002211460B
:102010002720FEF7A9FE272089E70000004C00409A
:10202000403802400000024000500040000C0240D6
:1020300000080240001001400044004000480040F9
:10204000000402402DE9F84F044690F842009A46F9
:1020500016460D46202802D00220BDE8F88FB5B103
:10206000AEB100206064222184F842102063FEF7A4
:102070000DFEA6858146E685A0684FF4805820278E
:10208000404501D1206920B12E46002529E00120DC
:10209000E3E7002625E04B46002220212046CDF82C
:1020A00000A000F050FE18B184F842700320D4E77D
:1020B00026B1A06840451AD038B108E020684068D1
:1020C000C0F3080025F8020B08E0206978B1206809
:1020D000406800F07F0000BF06F8010BE08D401E55
:1020E000E085E08D0028D6D184F84270B5E72068FD
:1020F0004068F1E790F84230202B01D00220704771
:1021000021B11AB10023036300F002BE0120704721
:102110002D4930B4CB790022802B00D3CA714B7982
:10212000322B00D34A718B79322B00D38A710B7A10
:10213000322B00D30A724B7A322B00D34A72234CD3
:10214000CA798B78A354521CCA714A79643C0B78C3
:10215000A354521C4A718A7932344B78A354521CCE
:102160008A710A7AB234CB78A354521C0A724A7A22
:1021700032340B79A354521C4A72154A01689142B9
:1021800002D1012210491AE0124A914203D10E49AC
:102190000122491C13E0104A914203D10A4901224D
:1021A000891C0CE00D4A914203D107490122C91C48
:1021B00005E00B4A914205D103490122091D30BCBB
:1021C000FFF798BF30BC7047C401002026060020EE
:1021D000004400400048004000100140004C004016
:1021E000005000402DE9F843044690F8410098461D
:1021F00016460D46202802D00220BDE8F88385B19E
:102200007EB100206064212084F84100FEF73EFD8D
:10221000A6848146E684A0682027B0F5805F02D0BE
:1022200003E00120E9E7206910B12E4600250EE009
:1022300000260CE08021204600F085FDA8B9C6B13B
:1022400016F8010B21684860E08C401EE084E08CA9
:102250004B464FF00002CDF800800028EAD14FF045
:102260004001204600F06FFD40B184F8417003202A
:10227000C3E735F8020BC0F30800E3E784F84170C8
:102280000020BAE77047FEE7064B10B55C78C2F352
:102290000723D2B214B103700A7010BD0B70027024
:1022A00010BD0000A8000020F0B587B014216846DA
:1022B000FDF7C0FF25480025016841F0800101605D
:1022C000016801F080010591016841F001010160A0
:1022D000016801F001010591016841F0040101600C
:1022E000016801F004010591016841F002010160FB
:1022F000016801F002010591016841F008010160E7
:102300000068134E00F0080005900022202130469E
:10231000FEF7B6FC0F4F002204213846FEF7B0FC52
:1023200001242020CDE9000469463046CDE902456C
:10233000FEF7A6FB0420CDE9000469463846CDE946
:102340000245FEF79DFB07B0F0BD000030380240AB
:10235000000802400004024010B586B0002418486E
:10236000009401940294039404944FF080410594E6
:10237000016040F28F61C0E901144FF47A71C0E945
:10238000031480218161FFF71FF808B1FEF709FBF4
:102390004FF48050009069460948FFF7C7F808B12C
:1023A000FEF7FFFA2020CDE9040404A90448FEF753
:1023B000C3FF002801D0FEF7F4FA06B010BD0000FC
:1023C0007802002010B586B00024184800940194CB
:1023D00002940394049414490594016040F28F61BF
:1023E000C0E901144FF47A71C0E9031480218161BE
:1023F000FEF7EAFF08B1FEF7D4FA4FF480500090E0
:1024000069460A48FFF792F808B1FEF7CAFA202099
:10241000CDE9040404A90548FEF78EFF002801D089
:10242000FEF7BFFA06B010BD00040040C002002055
:1024300010B58EB000240794089409940A940B9464
:102440001C2168460C94FDF7F5FE2B4829490160D4
:1024500040F28F61C0E9011440F2E731C0E9031492
:102460008461FEF7B1FF08B1FEF79BFA4FF480508C
:10247000079007A92048FFF759F808B1FEF791FA2D
:102480001D48FFF7ECF908B1FEF78BFA0B940BA986
:1024900019480C94FEF750FF08B1FEF782FA60204D
:1024A000CDE9000402940022694613480494FFF722
:1024B00070F908B1FEF775FA042269460E48FFF775
:1024C00068F908B1FEF76DFA082269460A48FFF775
:1024D00060F908B1FEF765FA0C2269460648FFF775
:1024E00058F908B1FEF75DFA0348FFF727F90EB077
:1024F00010BD000000080040080300200C4810B583
:102500000A4901604FF4E1314160002181600C22F1
:10251000C160C0E904128161C161FFF769FC002854
:1025200003D0BDE81040FEF73CBA10BD004C00409F
:10253000500300200C4810B50A4901604FF41651B1
:102540004160002181600C22C160C0E904128161F8
:10255000C161FFF74DFC002803D0BDE81040FEF735
:1025600020BA10BD00500040980300200C4810B560
:102570000A4901604FF4E1314160002181600C2281
:10258000C160C0E904128161C161FFF731FC00281C
:1025900003D0BDE81040FEF704BA10BD00100140A2
:1025A000E00300200C4810B50A4901604FF4E13106
:1025B0004160002181600C22C160C0E90412816188
:1025C000C161FFF715FC002803D0BDE81040FEF7FD
:1025D000E8B910BD00440040280400200C4810B5A4
:1025E0000A4901604FF4E1314160002181600C2211
:1025F000C160C0E904128161C161FFF7F9FB0028E5
:1026000003D0BDE81040FEF7CCB910BD0048004033
:1026100070040020FEE7FEE7704700007FB582B03F
:1026200015460C46064602F0F9FB022000900123F5
:1026300005AA2146304602F0FFFD02F0D9FD02F066
:102640005DF8002832D01C4E00200321B07001A894
:1026500002F0E6FB032828D19DF81410284602F06A
:10266000DFFB9DF81410044688421ED101210DF1B4
:10267000070002F0D5FB012817D19DF804009DF852
:1026800005109DF8062008441044C1B2002004E063
:102690002B5C401C1944C9B2C0B2A042F8DBC8434D
:1026A0009DF80710C0B2814202D0002006B070BD74
:1026B000B2702046FAE70000A800002010B50E4CCA
:1026C000411C08D000212160C0B2382102F0B0FBCB
:1026D000411C0ED004E009484178007840EA01200E
:1026E0002168002904D1010402D520F400404042B1
:1026F00010BD0121216010BDC4000020380500205C
:1027000002460448407810B141EA0220704742EA8C
:1027100001207047A80000207047FEF7BDBA0000F6
:1027200030B593B030216846FDF784FD14210CA824
:10273000FDF780FD1D480025016841F080510160D2
:10274000006800F0805011901948016841F4804100
:1027500001600068022400F4804011900120009084
:10276000000401908001CDE9064008AA0420A821B8
:1027700082E813000B906846FEF712FC08B172B6AF
:10278000FEE70CA90F2081E831004FF4A0500F9014
:102790004FF48050109005210CA8FEF717FB00287D
:1027A00001D072B6FEE713B030BD000040380240E1
:1027B000007000400248016841F4700101607047F8
:1027C00088ED00E00148FEF720BF000078020020FD
:1027D0000148FEF71ABF0000C00200200148FEF7C2
:1027E00014BF000008030020F0B50268294C2A4DF0
:1027F0002A4E2B4F2B4B4FF0804CA04209D0604506
:1028000007D0A84205D0B04203D0B84201D09842C8
:1028100004D122F0700E4A6842EA0E02A0421BD098
:10282000604519D0A84217D0B04215D0B84213D095
:10283000984211D01C4DA8420ED01C4DA8420BD07E
:102840001B4DA84208D01B4DA84205D01A4DA842E6
:1028500002D01A4DA84203D122F44075CA682A4317
:102860004D6922F080022A4302608A68C2620A68C7
:102870008262A04201D0984201D10969016301211D
:1028800041610169C90703D0016921F001010161BA
:10289000F0BD0000000001400004004000080040BE
:1028A000000C004000040140004001400044014091
:1028B0000048014000180040001C0040002000407B
:1028C00010B501F01F030121046A99408C43046292
:1028D000016A9A401143016210BD10B5846842EA52
:1028E000032224F47F440A432243826010BD82689D
:1028F00022F070020A4342F0070181607047000035
:10290000F0B5036A026A22F0010202624268846939
:10291000124E24F073050C682C4323F002058B68DB
:102920002B430D4DA84201D0B04205D123F008073A
:10293000CB683B4323F00403A84201D0B04205D149
:102940004D6922F4407215438A692A4342608461CA
:10295000496841630362F0BD00000140000401408A
:10296000F0B5026A036A23F01003036243688469C6
:102970000D6824F4E64444EA05248D6822F0200220
:1029800042EA05120F4D104EA84201D0B04206D1C6
:10299000CF6822F0800242EA071222F04002A842E9
:1029A00001D0B04207D14D6923F4406343EA850367
:1029B0008D6943EA850343608461496881630262EB
:1029C000F0BD00000000014000040140F0B5026AC3
:1029D000036A23F4807303624368C46922F40072BB
:1029E00024F073050C68124E2C438D6842EA0522D0
:1029F0000E4DA84201D0B04206D1CF6822F4006249
:102A000042EA072222F48062A84201D0B04207D1F4
:102A10004D6923F4405343EA05138D6943EA0513D6
:102A20004360C4614968C1630262F0BD00000140B7
:102A30000004014030B5046A026A22F48052026246
:102A40004268C3690D6823F4E64343EA05238D68B1
:102A500024F4005444EA0534084DA84202D0084D3D
:102A6000A84204D14D6922F4804242EA85124260B4
:102A7000C36149680164046230BD00000000014088
:102A80000004014010B5036A046A24F001040462E2
:102A9000846924F0F00444EA021423F00A020A4391
:102AA0008461026210BD10B5036A046A24F0100448
:102AB0000462846923F0A00324F4704444EA0232DF
:102AC00043EA01118261016210BD00000148FFF775
:102AD00057B80000500300200148FFF751B800002C
:102AE0009803002010B5806B0021C185C184FFF7D9
:102AF00045F810BD01680C3151E8002F22F49072A6
:102B000041E80023002BF5D10168143151E8002F72
:102B100022F0010241E80023002BF5D1016B0129CD
:102B200009D101680C3151E8002F22F0100241E870
:102B30000023002BF5D1202180F8421000210163F1
:102B4000704708B590F84210222901D0022008BD34
:102B500082684FF480539A4201D1016921B1816AA0
:102B60009A421BD04AB10AE00268816A5268C2F3F5
:102B700008020A80816A891C08E0026972B1026851
:102B8000526802F07F020A70816A491C8162C18D1D
:102B9000491E0904090CC18503D01BE00268526874
:102BA000F1E70168CA6822F02002CA600168CA68B9
:102BB00022F48072CA6001684A6922F001024A6107
:102BC000202180F8421000214163026B012A03D0CA
:102BD000FFF79EFA002008BD016301680C3151E83F
:102BE000002F22F0100241E80023002BF5D10168EC
:102BF0000A68D20602D50A6849680091818DFEF7FD
:102C0000BCFFE7E770B5044600680169E26821F49B
:102C10004051114301612169A068E269084361697B
:102C2000114308432168CA6849F20C639A4302437E
:102C3000CA6020684169A26921F440711143416171
:102C400031492068884202D03049884202D1FEF7DB
:102C500067F901E0FEF754F9E269002319216425C0
:102C60003226B2F5004F626828D0A0FB0101930F15
:102C70009200FDF7A7FA0146B0FBF5F06FF01802DD
:102C8000504301EB800006EB0010B0FBF5F000F0C4
:102C9000F002B1FBF5F002EB0012B1FBF5F06FF0C2
:102CA0001803584301EB800006EB0010B0FBF5F071
:102CB00000F00F0021681044886070BDA0FB010186
:102CC00092185B41FDF77EFA0146B0FBF5F0020178
:102CD000B1FBF5F06FF01803584301EB800006EBF1
:102CE000C000B0FBF5F000F0F80002EB4002B1FBD1
:102CF000F5F0584301EB800006EBC000B0FBF5F0A7
:102D000000F00700D6E70000001001400014014069
:102D100081628285C28500214164222180F84210AF
:102D2000016921B10168CA6842F48072CA60016811
:102D30004A6942F001024A610068C16841F020011D
:102D4000C160002070472DE9F843984617460D46AC
:102D50000446089E24E0701C22D0FDF797FFA0EBEC
:102D60000800B0421AD8CEB12068C168490717D50B
:102D7000802D15D0402D13D00168C94309070FD409
:102D800001680025406800902046FFF7B3FE082048
:102D9000606484F840500120BDE8F8830320FBE71D
:102DA0002068006835EA000004D00020B842D2D084
:102DB0000020F1E70120F9E703488079002801D0DD
:102DC00000F004B870470000C40100202DE9F05F56
:102DD000FF4C2DED108BA07900286ED0FD48FE49E8
:102DE0000123056808784A78012D05D13F2803D1D1
:102DF000272A01D1F94D2B60F94D2E68022E04D1FE
:102E00003F2802D1612A00D12B60F64D2E6826B9E9
:102E10003F2802D1622A00D12B60EF4EDFF8C89321
:102E2000002596F806B0B788D9F800C0F678BCF14E
:102E3000010F03D0BCF1020F2ED041E0BBF1210FF6
:102E40003ED1DFF894C3DFF8A4830128BCF801C0A9
:102E500002D0022803D008E09CFA9CFC03E09CFA14
:102E60009CFCCCF1000CC8F800C0DFF884C3012E34
:102E700002D0022E03D008E097FA97F803E097FA01
:102E800097F8C8F10008CCF80080102A18D13F2824
:102E900016D1C9F8005013E0072A04D0082A06D03A
:102EA000092A0BD00CE03F280AD1D24A02E03F2881
:102EB00006D1D14A13604D7002E0EFE33F2808D0FD
:102EC0009946CE4B8A46C3F800904A78882A02D0A9
:102ED00006E0CB4AEEE73F2802D1CA4BC3F8009088
:102EE000C949D1F800E0BEF1020F18DA2A2816D13C
:102EF000DFF818C3012100BF1AF80130012B03D0FD
:102F0000022B01D0032B03D10CEB810848F8043CC1
:102F1000491C0729F0DBBC490EF101030B60DFF807
:102F2000F0C2DCF80010012924D1BBF1210F21D11E
:102F3000B849012802D0022804D00AE0BAF80130CA
:102F40005BBA03E0BAF801305BBA5B420B600B6816
:102F50000B60B149012E02D0022E02D00AE07BBAEA
:102F600001E07BBA5B420B600B68C3EBC3030B60F1
:102F7000CCF80050A9490968012906D1032A04D1D7
:102F80003F2802D1A64BC3F80090A6490968012941
:102F900014D1A54B072A04D0082A06D0092A0BD041
:102FA0000CE03F280AD14A4602E03F2806D102221F
:102FB0001A608AF8015001E03F2811D09B49096846
:102FC0009FED9BDB9FED9C9B9FED9DAB9FED9EBB83
:102FD0009FED9FCBA04FDFF88482012902D019E238
:102FE0000322E5E79AF8081056462129F7D17849D7
:102FF000012891ED1C2AD1ED1D1A91ED1E1AD1ED7B
:103000001B0A91ED1A0A02D0022843D08DE0707895
:10301000B8EEC22A02EE900AF8EEE11AF8EE622A41
:1030200062EE822A02EE100AB8EE422A32EE002A3E
:1030300032EE202A41EE822A01EE900AB8EE002AF2
:10304000F8EE611A40EE021A31EEA00AF8EEC10A5B
:1030500040EE802ABDEEE20A10EE100AE0670A2870
:1030600002DDB2EE040A0DE0FDF77EFA53EC1D2BF3
:10307000FDF79EFA02D29FED7A0A03E094ED1F0A53
:10308000B8EEC00A87ED000A707800EE100AB8EEBC
:10309000400A46E07078F8EEE11A02EE900AB8EEC7
:1030A000C22AF8EE622A70EE622A72EEA02A62EE5E
:1030B000A12A01EE900AF8EE611A42EE612A01EEB1
:1030C000900AB8EE002AF8EE611A50EE021A31EEBC
:1030D000A00AF8EEC10A40EE802ABDEEE20A10EE28
:1030E000100AE06710F10A0F02DABAEE040A0FE0E4
:1030F000FDF73AFA9FED5B1B53EC112BFDF770FACD
:1031000002D29FED5A0A03E094ED1F0AB8EEC00AFE
:1031100087ED000A707800EE100AB8EE400AB1EEB2
:10312000400A84ED1A0A84ED1B0AB078012802D007
:10313000022808D012E0B6F8030040BA00EE100AE8
:10314000B8EE400A08E0B6F8030040BA00EE100AF4
:10315000B8EE400AB1EE400A88ED000A7079012805
:1031600002D0022807D011E0F08840BA00EE100A21
:10317000B8EE400A07E0F08840BA00EE100AB8EE58
:10318000400AB1EE400A3A4880ED000A4646D8F8B7
:103190000000FDF7FAF99FED37EB53EC1E2BFDF71E
:1031A00002F9FDF735FA08EE100A31480068FDF71C
:1031B000ECF953EC1E2BFDF7F6F8FDF729FA08EEB3
:1031C000900A84ED048AC4ED078A84ED058A55E0EF
:1031D000C401002088000020F40500208C0000209D
:1031E0009000002094000020780000207000002053
:1031F000740000207C000020800000205C02002081
:10320000840000206C000020680000205000002096
:1032100024000020900100209401002040000020A4
:103220003C0000201C000020200000207402002030
:103230009A9999999999D93F7B14AE47E17AB43F0D
:10324000000000000000E03F7B14AE47E17A943FAD
:10325000EC51B81E85EBD13FA8010020A001002051
:10326000CDCCCC3E9A9999999999D9BFCDCCCCBE69
:10327000A40100209A9999999999C93F38EE080AB2
:10328000F0EE000AC4ED088A84ED068AB0EE40EA4A
:1032900008EE600AC4ED098A10EE100AFDF775F910
:1032A00053EC192BFDF77FF853EC1A2BFDF77BF845
:1032B0003EEE080A41EC1F0B10EE100AFDF765F90F
:1032C00053EC1B2BFDF76FF841EC1E0B18EE100AA8
:1032D000FDF75BF953EC1C2BFDF765F853EC1E2B47
:1032E000FCF7BAFF53EC1F2BFCF7B6FFFDF790F984
:1032F00038EEA80AF0EE000A8346306008EEE00AD5
:1033000010EE100AFDF741F953EC192BFDF74BF8BD
:1033100053EC1A2BFDF747F838EE880A41EC1E0BE8
:1033200030EE080A10EE100AFDF72FF953EC1B2BB4
:10333000FDF739F841EC1F0B18EE900AFDF725F95F
:1033400053EC1C2BFDF72FF853EC1F2BFCF784FFDD
:1033500053EC1E2BFCF780FFFDF75AF9FE49FF4A9C
:10336000B2EE0E0A08600146934501DD86ED000AC3
:10337000F948914201DD80ED000AF9493268BAEE60
:103380000E0A8A4201D986ED000A02688A4201D9F2
:1033900080ED000A96ED000A4FF07C5210EE101AF4
:1033A000914208DAB5EEC00AF1EE10FA03DDB6EE8E
:1033B000000A86ED000A90ED000A10EE101A914204
:1033C00008DAB5EEC00AF1EE10FA03DDB6EE000A37
:1033D00080ED000A96ED000A4FF03F4210EE101A01
:1033E000914208D2B5EEC00AF1EE10FA03D2BEEE59
:1033F000000A86ED000A90ED000A10EE101A9142C4
:1034000008D2B5EEC00AF1EE10FA03D2BEEE000A01
:1034100080ED000A9AF8016051469FEDD2FA442EE1
:103420000ED1D1480268012A0AD10A783F2A07D171
:103430000560C94888ED00FA80ED00FA87ED00FAD2
:10344000CA4A1068012804D10878012802D002284D
:1034500046D091E000EE106A94ED1A1AF8EE400A98
:1034600094ED1C0AB8EEC00A60EE800A00EE106A05
:10347000B8EE400A70EE011A94ED1B0A31EE802A74
:10348000D4ED1D1AF8EEE11A41EE820A01EE906ABF
:10349000B8EE002AF8EE611A41EE021A31EE801AF7
:1034A00094ED1E0AB8EEC00A40EE010ABDEEE00A35
:1034B00010EE100AE067052802DDB1EE040A08E00C
:1034C000012802DAB7EE000A03E000EE100AB8EEB7
:1034D000C00A87ED000A00EE106AB8EE400A47E025
:1034E00000EE106AD4ED1A0AB8EE400A30EEC01AA7
:1034F00094ED1B0A71EE001A94ED1D1AB8EEC11A74
:1035000021EE811A01EE906AB8EE612AD4ED1C1A00
:10351000F8EEE11A01EEC21A01EE906AB8EE002A46
:10352000F8EE611A50EE821A71EE800A94ED1E0ACE
:10353000B8EEC00A00EE201ABDEEC10A10EE100A65
:10354000E06710F1050F02DAB9EE040A08E000287E
:1035500002DBBFEE000A03E000EE100AB8EEC00A7C
:1035600087ED000A00EE106AB8EE400AB1EE400A9C
:1035700084ED1A0A84ED1B0A272E02D0282E07D0CC
:103580000AE09AF800003F2806D187ED00FA02E031
:1035900008783F2800D115607548006801287CD163
:1035A0009AF800105046012902D0022905D00CE0FB
:1035B00000EE106AB8EE400A05E000EE106AB8EEC0
:1035C000400AB1EE400A88ED000A8178012902D054
:1035D000022907D011E09AF8030000EE100AB8EEB5
:1035E000400A07E09AF8030000EE100AB8EE400A1D
:1035F000B1EE400A584880ED000A4746D8F800006E
:10360000FCF7C3FF53EC1D2BFCF7CDFEFDF700F8D4
:1036100008EE100A50480068FCF7B7FF53EC1D2B6A
:10362000FCF7C1FEFCF7F4FF38EE080AF0EE00FAF2
:1036300008EE900A84ED048AB0EE40EA08EE6F0AC4
:10364000C4ED078A84ED058AC4ED088A84ED068AF4
:10365000C4ED098A10EE100AFCF797FF53EC192B02
:10366000FCF7A1FE53EC1A2BFCF79DFE3EEE080A78
:1036700041EC1D0B10EE100AFCF787FF53EC1B2BDF
:10368000FCF791FE41EC1E0B18EE100AFCF77DFFD3
:1036900053EC1C2BFCF787FE01E0B1E012E153EC88
:1036A0001E2BFCF7D9FD53EC1D2BFCF7D5FDFCF7C9
:1036B000AFFF38EEA80A8346386008EEEF0A10EE36
:1036C000100AFCF762FF53EC192BFCF76CFE53EC6D
:1036D0001A2BFCF768FE38EE880A41EC190B30EE25
:1036E000080A10EE100AFCF750FF53EC1B2BFCF7F6
:1036F0005AFE41EC1A0B18EE900AFCF746FF53EC09
:103700001C2BFCF750FE53EC1A2BFCF7A5FD53ECD9
:10371000192BFCF7A1FDFCF77BFF0F49154A086048
:103720000146934503DDB2EE040A87ED000A0A481C
:10373000914203DDB2EE040A80ED000A0E493A68B8
:103740008A4203D9BAEE040A87ED000A02688A4267
:1037500016D9BAEE040A11E0A4010020000070415D
:10376000000070C100000000740200205002002020
:103770005402002000002041000020C180ED000A1A
:1037800097ED000A4FF07C5210EE101A914208DAC1
:10379000B5EEC00AF1EE10FA03DDB6EE000A87EDD1
:1037A000000A90ED000A10EE101A914208DAB5EE08
:1037B000C00AF1EE10FA03DDB6EE000A80ED000A51
:1037C00097ED000A4FF03F4210EE101A914208D2D6
:1037D000B5EEC00AF1EE10FA03D2BEEE000A87ED94
:1037E000000A90ED000A10EE101A914208D2B5EED0
:1037F000C00AF1EE10FA03D2BEEE000A80ED000A14
:103800009AF800305046172B02D0182B11D004E044
:103810002E4988ED00FA81ED00FADFF8B4C02D4A98
:103820002D492E4F392E08D0402E0BD0412E12D0CC
:1038300017E02B490D60E560EAE7DCF80060012E37
:103840000DD00EE0DCF80060022E08D009E0156013
:103850000D603D602DE0DCF80060032E01D13F2BB0
:10386000F5D01268012A24D18279212A21D11D4A5A
:10387000012B02D0022B04D00AE0B0F801305BBA71
:1038800003E0B0F801305BBA5B420B60C2F8009015
:10389000C178012902D0022904D00AE0BAF8040054
:1038A00040BA03E0BAF8040040BA40423860C2F8B7
:1038B0000090A5713221BDEC108BBDE8F05F0A4885
:1038C000FCF7B8BCBDEC108BBDE8F09FA401002054
:1038D0004C000020480000206C01002070010020F6
:1038E0005402002000000020F40500200148FEF7EB
:1038F00047B90000E00300200148FEF741B900008D
:10390000280400200148FEF73BB9000070040020A5
:10391000F0B585B0054602262020CDE9000600243A
:103920000320CDE9024007200E4F04906946384637
:10393000FDF7A6F84020CDE9000669463846FDF7B8
:103940009FF80A4908480860C1E901540C20CC607E
:10395000C1E904408C610846CC61FEF749FA05B024
:10396000F0BD0000000C024000440040480500206B
:1039700010B513460C460A4601460448FEF762FBA2
:1039800008B1002010BD20B210BD00004805002085
:103990000A4601464FF0FF330148FEF723BC000002
:1039A00048050020FEE77CB515460646002903DAE7
:1039B000484240F4004001B26C460A46601C8DF853
:1039C0000030411CFEF760FC0022211DE01CFEF7C8
:1039D0005BFC2A46A11D601DFEF756FC07236A46C4
:1039E0002921304600F006FF7CBD00000FB4084BD3
:1039F00010B504A902AA039800F0EEF8044602A943
:103A0000002000F06CFC204610BC5DF814FB0000A8
:103A1000DF4200080907090E002804DB00F1E0205E
:103A200080F80014704700F00F0000F1E02080F8EB
:103A3000141D704702E008C8121F08C1002AFAD1FD
:103A400070477047002001E001C1121F002AFBD11E
:103A5000704700002DE9FF5F82B00021DDE90430EE
:103A6000020DDDF840B0034318D044F61050A2F226
:103A7000FF3242431514119801281FD0A5EB0B000B
:103A8000401C5FEA000A4FF000064E4FDFF8389105
:103A9000B046504615D5CAF1000413E01198012430
:103AA0004AA3012801D16FEA0B010298119AC0E9DB
:103AB0000031C0E9024206B0BDE8F09FCBF1000042
:103AC000DFE704460021404A491842EB0450CDE9A3
:103AD000001012E0E00707D032463B464046494618
:103AE000FCF761FC8046894632463B461046194643
:103AF000FCF759FC06460F466410002CEAD1DDE9BC
:103B00000401DDE90023BAF1000F06DAFCF74BFCF3
:103B100042464B46FCF747FC05E0FCF7B6FC424644
:103B20004B46FCF7B2FC04460E460022284BFCF73D
:103B300057FD03D84FF0FF30014607E00022254B28
:103B400020463146FCF788FBFCF759FE102409E0BB
:103B5000002C0ADB0A220023FCF734FB039B3032E3
:103B60001A55641E50EA0102F2D1641C039AC4F192
:103B700011031444119A012A03D0012208430DD1E4
:103B80000AE0084304D000204FF0110B119072E7B7
:103B9000A3EB0B056D1E0DE05B4504DD4FF000024D
:103BA00005F1010504E003DA4FF00002A5F101057B
:103BB000002AECD002981199C0E90231C0E9004511
:103BC00079E70000000014400000F03F30000000E2
:103BD0000000F0430000E03F2DE9FF4F95B09A460A
:103BE000884606460025EEE1252877D100242746A1
:103BF000F94A0121039400E0044316F8013F203BF9
:103C000001FA03F01042F7D130782A2811D06FF072
:103C10002F033078A0F13002092A16D8039A44F015
:103C2000020402EB820203EB42021044761C039072
:103C3000EFE758F8042B0392002A03DA504244F4C9
:103C40000054039044F00204761C30782E2816D1DC
:103C500016F8010F44F004042A280DD06FF02F024B
:103C60003078A0F13003092B09D807EB870302EB6A
:103C70004303C718761CF3E758F8047B761C3078AA
:103C80006C280FD006DC4C2817D068280DD06A2885
:103C900014D104E0742810D07A280FD10DE044F438
:103CA00000140AE044F4801401E044F440147278F3
:103CB000824202D104F58014761C761C3078662886
:103CC0000BD013DC582877D009DC002875D04528A4
:103CD000F6D04628F4D047281AD193E118E063289B
:103CE00035D0642879D0652812D18BE1702873D043
:103CF00008DC6728F1D069286FD06E280DD06F28B6
:103D000006D1ACE073282CD0752874D0782853D015
:103D10005246179990476D1C54E1C4F30250022893
:103D200009D003280DD0D8F8001004280DD00D605C
:103D300008F1040846E1D8F80010EA17C1E900527A
:103D4000F6E7D8F800100D80F2E70D70F0E718F8EC
:103D5000041B8DF8001000208DF80100EB460120B7
:103D600003E058F804BB4FF0FF3061074FF000014B
:103D700002D40DE009F101018946B9420FDA81450B
:103D8000F8DB1BF809100029F4D108E009F1010162
:103D900089468142FADB1BF809100029F6D1039805
:103DA0005346A0EB090721463846179A00F080FADF
:103DB000284400EB090507E044E008E10DE01BF8AA
:103DC000010B524617999047B9F10109F7D25346B2
:103DD00021463846179AF2E039E00A21C4F302522C
:103DE0004FF0000B0091022A06D058F8040BC117BF
:103DF000032A09D00AE023E008F1070020F00702B7
:103E0000F2E80201904605E000B2C117042A01D190
:103E100040B2C117002906DA0A460021404261EB90
:103E200002012D2202E0220504D52B228DF8042068
:103E3000012203E0E20701D02022F7E7914657E094
:103E40000A2100E010214FF0000B00910BE010213F
:103E50004FF0000B44F004040827009103E0082011
:103E60004FF0000B0090C4F30252022A05D058F81C
:103E7000040B0021032A08D008E008F1070020F015
:103E80000702F2E80201904603E080B2042A00D162
:103E9000C0B24FF0000922072AD53278702A07D025
:103EA000DDF800C08CF0100C5CEA0B0C05D00EE0C5
:103EB00040228DF80420012208E050EA010306D0D8
:103EC00030238DF804308DF8052002229146009BA6
:103ED00083F0080353EA0B030AD150EA010201D12F
:103EE000620705D530228DF804204FF001097F1EAE
:103EF0003278582A04D039A20C920CAA02920BE014
:103F00003BA2F9E75B46009AFCF75CF90C9B9B5CD3
:103F1000029A521E0292137050EA0102F2D10298E4
:103F200004A9081A00F1200B600702D524F480349C
:103F300000E001275F4502DDA7EB0B0000E0002059
:103F400000EB0B01009003984944401A0390E003F2
:103F500006D453462146179A039800F0A9F9054460
:103F6000002706E001A85246C05D179990476D1CD6
:103F70007F1C4F45F6DBE0030CD553462146179ACC
:103F8000039800F095F9054404E030205246179953
:103F900090476D1C0099481E00900029F5DC08E050
:103FA0000298029952460078491C0291179990474D
:103FB0006D1CBBF10001ABF1010BF1DC5BE100F02A
:103FC00065F90544761C307800287FF40DAE19B0F1
:103FD0002846BDE8F08F0000092801003031323357
:103FE0003435363738396162636465660000000035
:103FF000303132333435363738394142434445461F
:1040000000000000600700D4062708F1070020F038
:104010000700F0E80223804603F0004C5FEA0C0042
:1040200001D097A009E0200501D596A005E0E007A2
:1040300001D095A001E0AFF24C001390307823F04E
:10404000004365280CD006DC452809D046281DD041
:1040500047287FD13BE0662818D067287AD136E020
:104060000021112F01DB112000E0781CCDE90001B7
:1040700004A90CA8FFF7EEFCDDE90D010C9A4FF046
:10408000000B07F10109109200914EE04FF0004043
:104090000097CDE9011004A90CA8FFF7DBFCDDE9CE
:1040A0000D020C9B0F994FF0000B9146109300925C
:1040B00011B9791C00EB0109B7EB090003D4C0F179
:1040C000FF3B07F10109A9EB0700019042E0012F36
:1040D00000DA01270021112F01DD112000E0384610
:1040E000CDE9000104A90CA8FFF7B4FCDDE90D013E
:1040F0000C9A00914FF0000BB946109221070FD493
:10410000009A4A4503DA914601E0A9F10109B9F1A3
:10411000010F05DD109AA9F10101515C3029F4D09D
:10412000B84202DA10F1040F03DA0121CDE90110DF
:1041300010E0002803DC8344A9EB000102E0411CED
:10414000494500DD8946A0EB0B00401C01904FF073
:1041500000400290200705D40198484502DB4FF04B
:10416000FF30019000208DF84B0002980DF14B07B5
:10417000B0F1004F25D002200C902B200D9002981A
:1041800000280CDA404202902D200D9007E00A2111
:104190000298FCF759FA3031029007F8011D0C998A
:1041A000481E0C900029F2DC02980028EFD1791EFD
:1041B0000D980870307800F0200040F0450007F8B6
:1041C000020D11A8C01BC01D02901398007800B109
:1041D000012000EB0901019801EBE0710298014414
:1041E0000398401A401E0390E00306D4534621462C
:1041F000179A039800F05CF805441398007818B1FA
:104200005246179990476D1CE00323D5534621462B
:10421000179A039800F04CF805441BE0BBF1000F1F
:1042200007DB0098584504DD1098179910F80B002B
:1042300001E0179930205246904701980BF1010B8D
:10424000401E05F10105019004D12E205246179918
:1042500090476D1CB9F10001A9F10109DEDC05E010
:1042600017F8010B5246179990476D1C0299481E8A
:1042700002900029F4DC53462146179A03989EE6E3
:104280002D0000002B000000200000002DE9F0416F
:10429000044600251E461746880404D405E0394626
:1042A0002020B0476D1C641EF9D52846BDE8F0817A
:1042B0002DE9F041044600251E469046C80301D56D
:1042C000302700E02027880404D505E04146384621
:1042D000B0476D1C641EF9D52846BDE8F0810A6818
:1042E000531C0B60107070472DE9F0472DED068BC5
:1042F000064681464FF4967086B092460D460C46AF
:10430000864200DD0646854200DD0546C2488642FB
:1043100000DA0646854200DA0546C04F4FF0000835
:10432000C7F82480C7F82880786B301AFCF71CF98E
:104330009FEDBB1B53EC112BFCF735F841EC190B2F
:10434000786BF96B30440844FCF70EF99FEDB61B0F
:1043500053EC112BFCF727F841EC180B3046FCF717
:1043600003F99FEDB31B53EC112BFCF71CF853EC36
:10437000182BFBF771FF53EC192BFBF76DFFFCF7C4
:1043800047F908EE100AB86B281AFCF7EDF89FED14
:10439000AAAB53EC1A2BFCF706F841EC190BB86BDF
:1043A000396C28440844FCF7DFF853EC1A2BFBF770
:1043B000FAFF41EC1A0B2846FCF7D6F89FEDA01B3C
:1043C00053EC112BFBF7EFFF53EC1A2BFBF744FFD9
:1043D00053EC192BFBF740FFFCF71AF9F7EE080A2C
:1043E00000EE100A28EE208AF1EE040A786B60EEE7
:1043F000208AF8637E63B86B3864BD6318EE100AD8
:1044000091499FED920A884201DDB0EE408A18EE94
:10441000900A884201DDF0EE408A18EE101A8C48AE
:104420009FED8C0A814201D9B0EE408A18EE901AB5
:10443000814201D9F0EE408ABAF1010F34D118EE71
:10444000100A4FF07E51844AF7EE000ABFEE000AD0
:10445000884207DAB5EEC08AF1EE10FA02DDB0EE5E
:10446000608A03E018EE100A904206D2B5EEC08AC8
:10447000F1EE10FA01D2B0EE408A18EE900A8842AE
:1044800007DAF5EEC08AF1EE10FA02DDF0EE608A8E
:1044900003E018EE900A904206D2F5EEC08AF1EEE3
:1044A00010FA01D2F0EE408A18EE900AFCF76DF88F
:1044B00005460E4618EE100AFCF767F802AA0094AB
:1044C00082E863004B4665A16F487A6CFFF78EFA6D
:1044D0006D48FBF7BAFE82B232236B496B48FDF799
:1044E00081FE3220FCF7BAFA786C6949401C786486
:1044F000884201DDC7F84480BDEEC80A386BB8EECB
:10450000C08ABDEEE80AF8EEC08A00EE100A434801
:10451000B8EEC00A803870EE080A90ED190AB8EEBD
:10452000C00AF4EEC00AF1EE10FA6ED2396B00EE5A
:10453000101AB8EEC00A70EE080A90ED180AB8EE2C
:10454000C00AF4EEC00AF1EE10FA5EDDF96A00EE80
:10455000101AB8EEC00A70EE280A90ED1A0AB8EEEA
:10456000C00AF4EEC00AF1EE10FA4ED2F96A00EE7B
:10457000101AB8EEC00A70EE280A90ED1B0AB8EEC9
:10458000C00AF4EEC00AF1EE10FA3EDDF86A4FF40C
:104590007A6400EE100A64232246B8EEC00A30EEB8
:1045A000280ABDEEC00A10EE100A01B2042000F085
:1045B0001FF9F86A00EE100AB8EEC00A30EE280AB9
:1045C000BDEEC00A10EE100AF8620A20FCF746FAA7
:1045D000386B642300EE100A2246B8EEC00A30EEB3
:1045E000080ABDEEC00A10EE100A01B2032000F066
:1045F000FFF8386B00EE100AB8EEC00A30EE080A79
:10460000BDEEC00A10EE100A386306B00020BDEC03
:10461000068BBDE8F0870000D4FEFFFF48010020B4
:104620007B14AE47E17A843FFA7E6ABC7493883F7C
:10463000000000000000D03F7B14AE47E17A943FB9
:10464000E17A14AE47E1DA3F0000484200004842F8
:10465000000048C2000048C2000080BF20204E6F0A
:104660003A25642C2020783A25642C793A25642058
:104670002074686574613A252E32662C723A252EB4
:1046800032662020202000009005002070040020C9
:1046900040420F0010B50420FEF710F840F2DC5144
:1046A00088420EDD074C40F6FF72B4F8700094F8B3
:1046B0002C3001B2042000F09BF804F18001206F3F
:1046C000C86210BDC800002010B50420FDF7F6FF39
:1046D00040F2DC5188420EDD074C40F6FF72B4F820
:1046E000740094F82C3001B2042000F081F804F139
:1046F0008001606FC86210BDC800002038B500247A
:1047000025460121684600F08BFB00280FD09DF85C
:104710000010E0B260F30F2461F30704FF2901D118
:10472000FF2805D06D1CEDB20A2DEAD9002038BD56
:10473000012038BD10B50220FDF7C0FF0C498A6D7D
:10474000A2F5487290420ADD11F82C3F4FF47A62CC
:10475000088DBDE8104001B2022000F049B83223B4
:10476000BDE81040102203A10748FDF73BBD000043
:10477000C8000020636C61775F746F6F6F6F6F5F4D
:104780006261636B000000007004002010B502201D
:10479000FDF794FF0A498C6DA04209DD91F82C3099
:1047A00021B2BDE810404FF47A62022000F020B838
:1047B0003223BDE81040112202A10748FDF712BDC7
:1047C000C8000020636C61775F746F6F6F6F6F5FFD
:1047D0007269676874000000700400200349024891
:1047E0000968C06888637047C8000020080300207B
:1047F000FFF7D9B8F8B51C4615460E46074600F037
:104800000DFB0320009023462A463146384600F02F
:1048100013FD00F0EDFC3846BDE8F840FCF746B863
:104820002DE9F0478946804600F068FC00F09AFACE
:1048300000F0E8FA4FF4FA763046FCF70FF9B200D0
:104840002C4D570005F18004B8F1010F06D0B8F1E6
:10485000020F15D0B8F1030F24D035E0A08915F868
:104860002C3F01B20320FFF7C3FFE0682063208ADA
:104870002B7801B23A460420FFF7BAFF206922E004
:10488000208B15F82C3F01B20320FFF7B1FFA06980
:104890002063A08B2B7801B23A460420FFF7A8FFD3
:1048A000E06910E0208815F82C3F01B20320FFF7E3
:1048B0009FFF20682063A0882B7801B23A4604202D
:1048C000FFF796FF6068E062C820FCF7C7F8B9F10F
:1048D000010F07D000F066FA4FF46170BDE8F047B1
:1048E000FCF7BCB83046FCF7B9F800F067FA304680
:1048F000F4E70000C8000020FCF7D6F9FDF710FF30
:10490000FDF7D2FCFDF732FEFDF74CFEFDF766FE2B
:10491000FDF722FDFDF756FDFDF78AFDFDF70AFEC6
:10492000FDF7ECFD012272497248FDF7E3FB01221D
:1049300071497248FDF7DEFB7148FCF7B7FD71481D
:10494000FCF7B4FD00217048FCF7B8FF04216E4865
:10495000FCF7B4FF08216C48FCF7B0FF0C216A4853
:10496000FCF7ACFF4FF47A742046FCF777F800F0C0
:10497000EFF96420FCF772F8FFF7A6FE012000F0C3
:1049800047FC00F03FFAFFF7D5FE00F0F5F90120F3
:1049900000F0C8FB4FF46170FCF760F82046FCF7AC
:1049A0005DF800F023FA3223022258A15148FDF7A6
:1049B00019FC5749574D4FF00108574EC1F8008078
:1049C0000027C5F80080554C376006E000F042FA39
:1049D0003220FCF743F8286818B1306861698842D2
:1049E000F4DB2F6000F0B2FB3220FCF737F8C3464F
:1049F00000254FF4FA78494C4C3454F82500002136
:104A0000FFF70EFF54F825004C3C434EC4E911B0AB
:104A100000274FF42F703760FCF720F832230B2269
:104A20003FA13448FDF7DEFB4046FCF717F8DFF8FE
:104A3000FC90DFF8FCA009E0D9F800100122DAF8B8
:104A40000000FFF751FCC820FCF708F8606C18B1B3
:104A5000306861698842EFDB36486764046800F0BB
:104A600081F900F0CFF9FFF715FE4FF49670FBF7D0
:104A7000F5FFFFF78BFE46464046FBF7EFFF00F0E1
:104A8000A9F94FF4C8773846FBF7E8FFFFF7A6FE11
:104A90003846FBF7E3FF00F0B5F93846FBF7DEFFD9
:104AA00064234FF47A6221B20420FFF7A1FEFFF7DE
:104AB00041FE3046FBF7D2FF00F068F940F24C406F
:104AC000FBF7CCFF00F04EF94FF41670FBF7C6FF72
:104AD0006D1C032D8FDB00F095F94046FBF7BEFF00
:104AE00000F040F94FF47A742046FBF7B7FFFBE77C
:104AF000C501002070040020C80100209803002098
:104B000078020020C0020020080300204343000078
:104B100058020020740200204402002004000020FB
:104B20006E6561722067726F756E6400700100209F
:104B30006C0100207401002070EE602A30EE202A03
:104B4000B5EEC00A0122FCEEE21ABCEEC21A08B5AC
:104B5000F1EE10FA37DBF5EEC00AF1EE10FA32DBB7
:104B600030EE600A0629B1EE400ABCEEC00A29D236
:104B7000DFE801F02803070B18E911EE101A009284
:104B80007BE011EE101A00928AE0F5EEC02AF1EEF9
:104B900010FA03DB11EE901A0092BEE010EE101A2C
:104BA00000925AE0F5EEC02AF1EE10FA04DB00BFE5
:104BB00011EE901A0092C1E010EE101A009250E02F
:104BC000FBF7D0FE08BDB5EEC00AF1EE10FA24DB0B
:104BD000F5EEC00AF1EE10FA1FD20629F2D2DFE894
:104BE00001F00504030613B2E2E7D3E7EAE7B5EE06
:104BF000C02AF1EE10FAC0DAB1EE420A0092BCEE21
:104C0000C00A10EE101A3EE0B5EEC02AF1EE10FA1E
:104C1000B7DA11EE101A009248E070EEC01AB5EE45
:104C2000C00ABCEEE11AF1EE10FA44D2F5EEC00A69
:104C3000F1EE10FA3FDB70EE801A70EE800A062962
:104C4000BCEEE00AF1EE600AFCEEE00ABAD2DFE860
:104C500001F0035D6E0C1F7AB4E78AB203460121AE
:104C60005EE08AB2034600216BE0F5EEC01A0092C6
:104C7000F1EE10FA05DB10EE101A03468AB200219D
:104C800004E010EE901A03468AB20121012097E752
:104C9000F5EEC01A0092F1EE10FA05DB10EE101AD4
:104CA00003468AB2012104E010EE901A03468AB24C
:104CB0000021042084E7B5EEC00AF1EE10FA81D29B
:104CC000F5EEC00AF1EE10FA90D2B1EE402A30EEC5
:104CD000C00A32EE602A0629B1EE400ABCEEC22AB2
:104CE000BCEEC00AB8D2DFE801F00304080C1D2EA8
:104CF00068E712EE101A0092C5E712EE101A009241
:104D0000D4E7F5EEC01AF1EE10FA03DB11EE101A3B
:104D10000092A2E710EE101A009203468AB2002118
:104D200002204DE7F5EEC01AF1EE10FA03DB11EEAA
:104D3000101A009295E710EE101A009203468AB2FC
:104D4000012103203CE7BDE808400020FBF7F4BD4B
:104D50004FF4E130FEF7DCBD4FF4FA70401E80B234
:104D6000FCD270470349024809684068886370476D
:104D7000C8000020080300200349024809680068B1
:104D800088637047C800002008030020044840F6EC
:104D9000FF7210F8303F008A01B20120FFF728BDF2
:104DA000C8000020044840F6FF7210F8303F808BA6
:104DB00001B20120FFF71CBDC8000020044840F6E6
:104DC000FF7290F82C30808E01B20120FFF710BDE9
:104DD000C8000020044840F6FF7290F83030008F81
:104DE00001B20120FFF704BDC8000020044840F6CE
:104DF000FF7210F8303F008B01B20120FFF7F8BCC2
:104E0000C8000020044840F6FF7210F8303F808A46
:104E100001B20120FFF7ECBCC8000020FFF79CBFE7
:104E2000024A89B25268FEF7A3BD0000BC00002010
:104E300008B502236A46FDF7F1FB022802D04FF0C5
:104E4000FF3008BD9DF801109DF80000FDF758FCEB
:104E500080B208BD38B55B4CD4ED020A94ED010A6E
:104E600094ED041A50EE010A94ED031A70EEC10A93
:104E7000FDEEE00A10EE900AA061D4ED020A94ED76
:104E8000041A50EE010A94ED031A70EE810AFDEE49
:104E9000E00A10EE900AE061D4ED020A94ED041AE3
:104EA00040EE010A94ED031A70EEC10AFDEEE00A2D
:104EB00010EE900A2062D4ED020A94ED041A40EE3E
:104EC000010A94ED030A30EE800ABDEEC00A10EE2E
:104ED000100A6062A1696069814200DDA061E16938
:104EE000814200DDE061216A814200DD2062616A69
:104EF000814200DD6062A1694042814200DAA06126
:104F0000E169814200DAE061216A814200DA2062CF
:104F1000616A814200DA6062A0690125002800957B
:104F2000A06903DB002382B2012103E04042002399
:104F300082B219460120FBF715FD0A20FBF78EFD12
:104F4000E06900950028E06903DB002382B20121BB
:104F500003E04042002382B219460220FBF702FD23
:104F60000A20FBF77BFD206A00950028206A03DBFE
:104F7000002382B2012103E04042002382B219469D
:104F80000320FBF7EFFC0A20FBF768FD606A009541
:104F90000028606A03DB002382B2012103E0404263
:104FA000002382B219460420FBF7DCFC0A20FBF741
:104FB00055FD0020FBF7C0FCBDE838400A20FBF798
:104FC0004DBD0000980100204B4A08B5D2ED000A03
:104FD000B5EEC00A0120FCEEE00AF1EE10FA30DB7B
:104FE000BCEEC00A062919D2DFE801F018030C193B
:104FF0002264009010EE900A0121C3B210EE100A54
:1050000082B237E0009010EE900A0121C3B210EE98
:10501000100A82B238E000BFFBF7A4FC08BD009084
:1050200010EE900A0121C3B210EE100A82B235E0F0
:10503000009010EE900A0121C3B210EE100A82B265
:1050400036E0B5EEC00AF1EE10FA38D2B1EE400A01
:105050000629BCEEC00AE1D2DFE801F003040E1815
:10506000222CDBE7009010EE900A0021C3B210EE74
:10507000100A82B20120CFE7009010EE900A0021C2
:10508000C3B210EE100A82B20220C5E7009010EE03
:10509000900A0021C3B210EE100A82B20320BBE7CF
:1050A000009010EE900A0021C3B210EE100A82B2F6
:1050B0000420B1E7BDE808400020FBF73DBCB5EE99
:1050C000C00AF1EE10FAA9D101290BD002290CD0A7
:1050D00003290DD00429A1D101210420BDE80840F5
:1050E000FBF712BC01210846F8E701210220F5E791
:1050F00001210320F2E70000980100200849074A37
:105100000128096805D0022805D0032805D1D069F7
:1051100002E0506900E0906908647047C800002010
:10512000080300200849074A0128096805D0022819
:1051300005D0032805D1906A02E0106A00E0506AA9
:1051400008647047C80000200803002010B5002143
:105150000120FBF7D9FB0A20FBF780FC002102208D
:10516000FBF7D2FB0A20FBF779FC00210320FBF7B9
:10517000CBFB0A20FBF772FC00210420FBF7C4FBE9
:10518000BDE810400A20FBF769BC000008B500210B
:10519000ADF800100A49C0F3080048604FF4FA5215
:1051A00009E000BFBDF80000401CADF80000BDF8EC
:1051B0000000904202D808680006F3D508BD000040
:1051C0000010014038B5054600200C468DF800005F
:1051D0008DF800009DF80000A04208D29DF8000064
:1051E000285CFFF7D3FF9DF80000401CF0E738BDB6
:1051F00010B5054C2178002904D00448FEF7C8FBFF
:105200000020207010BD0000BC000020B804002069
:1052100010B501280DD107484FF47A7200F18004CF
:1052200090F82C30208C01B20320FFF7E1FA206ABD
:10523000206310BDC80000202DE9FF478046DDF83F
:1052400030904FF000008DF808004FF0FF008DF80F
:1052500000008DF801001C4615000F464FF00206B5
:105260008DF802808DF8049007D0E01CC6B28DF84E
:1052700003608DF80570062102E08DF803600521BA
:10528000684600F023F808EB060101EB09003844FA
:105290008DF808007DB1002107E0685C9DF80820CA
:1052A000491C10448DF80800C9B2A142F5D321462B
:1052B000284600F00BF89DF808000121C0438DF846
:1052C000080002A800F002F8BDE8FF8730B5074BE0
:1052D000074C07E01A78802A04D210F8015BA55425
:1052E000521C1A70491EF5D2187830BDBC0000203F
:1052F000B8040020000000000000000001020304C8
:105300000607080900000000010203042C530008EE
:10531000000000207802000054080008C453000870
:105320007802002098080000443A00088132783260
:10533000B472960312DC05021F01293329243202BC
:10534000DA030C0130293C82100B1724F47C7264C0
:1053500032683256325C324A324E32193245DA6F96
:105360000C29E832F01BB0080422041A2508230295
:105370000D1ABCAD237B07238A0C1A67081A011487
:105380004B3606041A081023D80E23FA0F1A3430AD
:10539000290C4B900A041A59145AE420290C1A7447
:1053A000085AE20C4B310B2429088129109A071066
:1053B0000116233443C3803F022314026301093AD8
:0453C0006472C8004B
:040000050800018965
:00000001FF
