:020000040800F2
:10000000500D0020A101000857260008C522000855
:1000100055260008F9080008613A000800000000B1
:100020000000000000000000000000005927000848
:10003000FB08000800000000592600085B270008A4
:10004000BB010008BB010008BB010008BB010008A0
:10005000BB010008BB010008BB010008BB01000890
:10006000BB010008BB010008BB010008BB01000880
:10007000BB010008BB010008BB010008BB01000870
:10008000BB010008BB010008BB010008BB01000860
:10009000BB010008BB010008BB010008BB01000850
:1000A000BB010008BB010008BB010008BB01000840
:1000B00005280008112800081D280008BB010008B9
:1000C000BB010008BB010008BB010008BB01000820
:1000D000BB010008A9390008B5390008C13900087A
:1000E000BB010008BB010008BB010008BB01000800
:1000F000BB010008BB010008BB010008BB010008F0
:10010000BB010008BB010008BB010008BB010008DF
:100110000D2B0008192B0008BB010008BB010008CB
:10012000BB010008BB010008BB010008BB010008BF
:10013000BB010008BB010008BB010008BB010008AF
:10014000BB010008BB010008BB010008BB0100089F
:10015000BB010008BB010008BB010008BB0100088F
:10016000BB010008BB010008BB010008BB0100087F
:10017000BB010008BB010008BB0100080000000033
:10018000BB010008BB010008DFF810D000F04AFBFB
:1001900000480047694B0008AFF30080500D002075
:1001A0000648804706480047FEE7FEE7FEE7FEE711
:1001B000FEE7FEE7FEE7FEE7FEE7FEE7F5270008BD
:1001C000890100082DE9F05F0546002092469B4614
:1001D00088460646814640241BE02846414647465D
:1001E000224600F068FA53465A46C01A914110D38D
:1001F00011461846224600F04FFA2D1A67EB010807
:100200004F4622460120002100F046FA17EB000974
:100210004E41201EA4F10104DFDC484631462A4647
:100220004346BDE8F09FD2B201E000F8012B491E21
:10023000FBD270470022F6E710B513460A46044683
:100240001946FFF7F0FF204610BD2DE9FE4F80460E
:1002500081EA0300C00F0C46009021F0004123F01A
:100260000045B8EB0200A94105D240462146904620
:100270001C460B46024623F00040104347D0270D92
:10028000C7F30A00C3F30A510290401A01904028B4
:100290006BDAC3F3130040F4801B0098924620B140
:1002A0000023D2EB030A63EB0B0B01985946C0F114
:1002B0004002504600F0F0F906460D4650465946B9
:1002C000019A00F008FA10EB08006141002487EA67
:1002D000115284EAE7731A4340D0009A62B3019A3C
:1002E000012A4FEA075215DC001B61EB02014FF0B7
:1002F000004202EA0752CDE90042001C41F580119C
:1003000032462B4600F03FFA03B0BDE8F08F40467E
:100310002146F9E7001B61EB0201001C41F5801347
:1003200000185B412018A2F5001747EB030140EAD3
:10033000D570B6196D4111E06D084FEA360645EAF1
:10034000C0754FEA0752001B61EB0201001C41F52A
:10035000801149084FEA30000019514132462B46BE
:1003600003B0BDE8F04F00F0FFB900980122400053
:100370000023D0EB020263EBE073009821464FEAC2
:10038000E074B8EB000061EB0401E9E783F000439F
:100390005BE781F0004158E72DE9FE4F81EA030455
:1003A00004F0004421F0004100944FF0000B23F0D2
:1003B000004350EA01045ED052EA03045BD0C3F369
:1003C0000A54C1F30A552C44A4F2F3340194A0FB5F
:1003D0000254C1F3130141F48011C3F3130343F436
:1003E000801301FB024400FB034E840A970A44EA8F
:1003F000815447EA8357A4FB076802958D0A05FBE1
:1004000007854FEA932C04FB0C542705029D4FEA05
:10041000065847EA1637B5EB08056EEB070C870E52
:10042000920E47EA811742EA8312A7FB0201B6EB5C
:100430000B0164EB00042B0D43EA0C335E1844EB14
:100440001C50DA465146E7FB0201C5F313044FEA9C
:100450000B3343EA14534FEA0432019C43EA060388
:10046000A4F10C040294009CCDE900B400F08BF9D7
:1004700003B0BDE8F08F00200146F9E72DE9F04D0B
:1004800081EA030404F0004B21F0004514464FF0CC
:10049000000A23F0004150EA050220D054EA01028C
:1004A0001DD0C5F30A570246C5F31303C1F3130069
:1004B000C1F30A5640F4801543F48013A7EB0608F5
:1004C000101BD64608F2FD3873EB050002D308F185
:1004D000010801E092185B41B8F1000F03DA002037
:1004E0000146BDE8F08D00204FF480110646844699
:1004F0000EE0171B73EB050705D3121B63EB050317
:1005000006434CEA010C49084FEA300092185B415F
:1005100050EA0107EDD152EA030012D082EA04004A
:1005200083EA0501084305D0101BAB4106D2012226
:10053000002306E000224FF0004302E06FF00102CA
:1005400053101AEB06004CEB085110EB0A0041EB7C
:100550000B01BDE8F04D00F007B90EB5C10F80EA00
:10056000E0700844CA07002140F233438DE80E00D2
:100570000A460B4600F007F903B000BDC1F30A526A
:1005800010B5C1F3130140F2FF3341F480119A42D8
:1005900001DA002010BD40F233439A42A2F2334206
:1005A00003DC524200F087F810BD904010BD00F00F
:1005B000004230F000400AD0C10D01F56071C0F377
:1005C000160042EA0151C20840071143704700205B
:1005D0000146704730B5041E71F1000404DB4FF092
:1005E0000044404264EB0101141E73F1000405DB7A
:1005F0001C464FF00043524263EB04038B4208BF9A
:10060000824230BD30B5041E71F1000404DB4FF0AE
:100610000044404264EB0101141E73F1000405DB49
:100620001C464FF00043524263EB0403994208BF5B
:10063000904230BD01F0004330B421F0004150EA57
:10064000010206D00A0DA2F56072C1F31301002A5F
:1006500002DC30BC00207047440F44EAC104C100F2
:10066000E01830BC00EBC25000F047B830B50B4684
:10067000014600202022012409E021FA02F59D42D2
:1006800005D303FA02F5491B04FA02F52844151EA6
:10069000A2F10102F1DC30BD202A04DB203A00FA8D
:1006A00002F1002070479140C2F1200320FA03F3C9
:1006B000194390407047202A04DB203A21FA02F0C7
:1006C0000021704721FA02F3D040C2F1200291408C
:1006D000084319467047202A06DBCB17203A41FA17
:1006E00002F043EAE07306E041FA02F3D040C2F1BF
:1006F000200291400843194670470029A8BF70475F
:10070000401C490008BF20F00100704710B4B0FA47
:1007100080FC00FA0CF050EA010404BF10BC7047E2
:1007200049B1CCF1200421FA04F411FA0CF118BFFC
:10073000012121430843A3EB0C01CB1D4FEA0061CB
:100740004FEA102042BF002010BC704700EBC3509E
:1007500010440029A4BF10BC7047401C490008BFCA
:1007600020F0010010BC704710B5141E73F1000496
:1007700008DA401C41F1000192185B411A4301D193
:1007800020F0010010BD2DE9F04D92469B4611B1BD
:10079000B1FA81F202E0B0FA80F220329046FFF71F
:1007A0007BFF04460F4640EA0A0041EA0B0153462C
:1007B0005A46084313D0114653EA010019D0C8F134
:1007C00040025046FFF777FF05460E465046594611
:1007D0004246FFF761FF084305D0012004E02046B0
:1007E0003946BDE8F08D0020054346EAE0762C430B
:1007F00037430A986305E40AA0EB08000022FD0ACB
:1008000044EA47540A3002D500200146E9E70105D1
:1008100010196941DDE9084500196941BDE8F04D4D
:10082000A2E70000064C074D06E0E06840F0010337
:1008300094E8070098471034AC42F6D3FFF7A8FCC1
:1008400088640008A864000870B58C1810F8015B73
:1008500015F0070301D110F8013B2A1106D110F859
:10086000012B03E010F8016B01F8016B5B1EF9D15D
:100870002B0705D40023521E0DD401F8013BFAE7E3
:1008800010F8013BCB1A921C03E013F8015B01F84E
:10089000015B521EF9D5A142D8D3002070BD0000E3
:1008A00038B50546134C0020FE2DA07020D02078CE
:1008B000F0B103F04BFC002818D00421684604F086
:1008C0007FFF042811D19DF80000A8420DD19DF8AA
:1008D0000110022909D19DF80210801C0844C04370
:1008E0009DF80320C0B2824201D0002038BDA17023
:1008F000012038BDF0000020FEE770472DE9FF41E0
:100900000027DDE90A4600978DF80000FD208DF8EC
:1009100001008DF802100197100A8DF803008DF880
:1009200004208DF80530200E8DF80600200C0C9D5B
:100930008DF807000297200A8DF8080003978DF8BC
:1009400009406B208DF80A608DF80C008DF80B5073
:100950000D21684605F0F4FCBDE8FF811FB50022BB
:1009600000928DF80000FE208DF8010098208DF88F
:10097000020001926B208DF803108DF804000292A2
:1009800003920521684605F0DBFC1FBD1FB5002161
:1009900000918DF80000FF208DF8010066208DF891
:1009A00002006B200191029103918DF80300042154
:1009B000684605F0C5FC1FBD7FB5002500958DF884
:1009C0000000F6208DF8010001958DF80210089CBA
:1009D000100A8DF804208DF803008DF805308DF88D
:1009E00006406B208DF807000295039508216846A4
:1009F00005F0A6FC7FBD72B6FEE72DE9F041044686
:100A0000876D00F06DF9064694F835000025022840
:100A100006D08020606584F834500120BDE8F08164
:100A20002068016821F0160101602068416921F009
:100A300080014161206C08B9A06C20B12068016878
:100A400021F0080101602068016821F001010160C6
:100A50000CE000F045F9801B052807D920206065CF
:100A6000032084F8350084F83450D7E72068006804
:100A7000C007EED194F85C103F208840B860012098
:100A800084F8350084F834500020C7E790F835101A
:100A9000022903D08021416501207047052180F89B
:100AA00035100068016821F00101016000207047E5
:100AB00070B5044600F014F90546601C02D00448E5
:100AC0000078044400F00CF9401BA042FAD370BD3A
:100AD000E00000202DE9F84FDFF8BCA1002201253D
:100AE00003264FF00F090AF1040BAAF1040E00BF10
:100AF0000B6805FA02F42340A34270D10F7907F086
:100B00000307012F01D0022F16D187684FEA420850
:100B100006FA08FC27EA0C07D1F80CC00CFA08FC0E
:100B20004CEA070CC0F808C04768A7430C79C4F327
:100B3000001494403C4344600C79E443A4070AD079
:100B4000C4684FEA420C06FA0CF7BC438F6807FAF8
:100B50000CF72743C7600C7904F00304022C12D170
:100B6000D40800EB840CDCF820405707FF0E09FA8C
:100B700007F824EA0804D1F8108008FA07F848EAD0
:100B80000408CCF8208004684FEA420C06FA0CF7FF
:100B9000BC430F7907F0030707FA0CF727430760F8
:100BA0004C6814F4403F70D03C4C276847F48047B1
:100BB0002760246822F0030704F480440094384C32
:100BC00007EB040CDCF8084897074FEA177809FA96
:100BD00008F7BC43334FB84202D1002724E054E069
:100BE000314FB84201D101271EE0304FB84201D148
:100BF000022719E02E4FB84201D1032714E02D4FF0
:100C0000B84201D104270FE02B4FB84201D105278C
:100C10000AE02A4FB84201D1062705E0284FB84222
:100C200001D1072700E0082707FA08F72743CCF887
:100C30000878DAF800405746D1F804C09C435FEAD0
:100C4000CC2C00D51C433C60DBF800405F46D1F85B
:100C500004C09C435FEA8C2C00D51C433C60DEF84A
:100C600000407746D1F804C09C435FEA8C3C00D535
:100C70001C433C60084F083F3C68D1F804C09C43CB
:100C80005FEACC3C00D51C433C60521C102AFFF4A8
:100C90002FAFBDE8F88F0000083C01404438024007
:100CA0000030014000000240000402400008024001
:100CB000000C0240001002400014024000180240E4
:100CC000001C0240426921EA02030A4043EA024151
:100CD000816170470AB1816170470904FBE7000038
:100CE0000148806870470000E000002002488168E9
:100CF0000278114481607047E00000200B4810B575
:100D0000016841F400710160016841F48061016093
:100D1000016841F480710160032000F06FF80F203A
:100D200000F006F800F024F8002010BD003C02405E
:100D300070B50D4D04464FF47A712878B1FBF0F090
:100D40000A490968B1FBF0F000F00AFB48B9102C21
:100D500007D200222146501E00F030F800206C60BF
:100D600070BD012070BD0000E0000020EC000020FC
:100D70000A4808B5016841F480410160006800F448
:100D8000804000900548001F016841F080510160DB
:100D9000006800F08050009008BD00004438024018
:100DA000002809DB00F01F0201219140400980006A
:100DB00000F1E020C0F8001170470000F0B40E4BC5
:100DC0001B680C46C3F30223C3F10705042D00D9A9
:100DD0000425191D072901D2002300E0DB1E01268E
:100DE00006FA05F1491E214099409E40761E1640A4
:100DF0003143F0BC02F07CBE0CED00E0064900F08F
:100E0000070208684FF6FF03184040EA0220034A31
:100E100010430860704700000CED00E00000FA0588
:100E20002DE9F0470E46050065D0DFF81481D8F8AB
:100E30000000F7B200F00700B04207D288F8007057
:100E4000D8F8000000F00700B04254D128683D4CAB
:100E5000810712D5400703D5206840F4E050206098
:100E60002878000703D5206840F46040206020689F
:100E7000A96820F0F000084320602878C0072DD032
:100E8000304968680839012812D0022813D0032895
:100E900011D00968890700292DDA216821F00301A2
:100EA00001432160FFF71CFF814641F2883A0EE0C2
:100EB00009688903EFE709688901ECE7FFF710FF8C
:100EC000A0EB0901514502D90320BDE8F087206855
:100ED000696800F00C00B0EB810FEFD1D8F800107A
:100EE000404601F00701B14207D90770006800F0E1
:100EF0000700B04201D00120E7E72878400705D578
:100F00002068E96820F4E050084320602878000752
:100F100006D52068296920F4604040EAC1002060BD
:100F200000F038F82168084AC1F30311515CC84049
:100F30000649086006480068FFF7FAFE0020C4E78B
:100F4000003C02400838024070640008EC000020B9
:100F5000E40000200448054900680968044AC1F318
:100F60008221515CC8407047EC00002008380240E4
:100F7000806400080448054900680968044AC1F310
:100F80004231515CC8407047EC00002008380240F4
:100F900080640008154810B5006810F00C02144871
:100FA00013D04110042A0FD0082A0ED10F4C241F51
:100FB0002268236802F03F025B0207D52068C0F375
:100FC0008810A0FB010106E0084610BD2168C1F3AE
:100FD0008811A1FB00010023FFF7F4F82168C1F399
:100FE0000141491C4900B0FBF1F010BD0838024036
:100FF0000024F4002DE9F84F04006ED02078DFF8CB
:101000004C93C007A9F104054AD009F10400016816
:10101000C1F38101012908D00068C0F381000228D2
:101020000AD1D9F80000400206D52868800337D5D8
:1010300060680028E1D033E06068B0F5803F10D0F0
:10104000B0F5A02F286810D020F4803028602868E0
:1010500020F4802028606068A8B1FFF741FE0646B2
:101060000DE0286840F48030F4E740F480202860E8
:10107000F7E700BFFFF734FE801B642873D82868A9
:101080008003F7D50CE0FFF72BFE064605E000BF16
:10109000FFF726FE801B6428F0D828688003F7D469
:1010A0002078DFF8AC8280074FF0000A3ED5A748D1
:1010B000001D016811F00C0F08D00068C0F381001A
:1010C00002280BD1D9F80000400207D42868800715
:1010D00016D5E068012800D112E033E1E068B8B12C
:1010E0000120C8F80000FFF7FBFD064605E000BF41
:1010F000FFF7F6FD801B0228C0D828688007F7D5C7
:101100002868216920F0F80040EAC10028600DE05D
:10111000C8F800A0FFF7E4FD064604E0FFF7E0FD95
:10112000801B02281FD828688007F7D42078000782
:1011300022D5864F87486169703771B101210160FE
:10114000FFF7CEFD064604E0FFF7CAFD801B02282C
:1011500009D838688007F7D50EE0C0F800A0FFF77F
:10116000BFFD064605E082E0FFF7BAFD801B0228BE
:101170007DD838688007F7D42078400768D5DFF835
:10118000CCB100270BF13C0BDBF80000C0000BD406
:10119000DBF8001041F08051CBF80010DBF80000C4
:1011A000012700F0805000906B4E3068C00510D4CD
:1011B000306840F480703060FFF792FD009005E0E9
:1011C000FFF78EFD0099401A022850D83068C005FC
:1011D000F6D55E4EA0686C3601280FD00528306821
:1011E00010D020F001003060306820F00400306042
:1011F000A068B8B1FFF774FD00900FE0306840F0D0
:101200000100F4E740F004003060F7E7FFF768FD05
:101210000099411A41F28830814266D830688007CF
:10122000F4D50EE0FFF75CFD009007E0FFF758FDF6
:101230000099411A41F28830814256D830688007BF
:10124000F4D42FB1DBF8001021F08051CBF800105E
:10125000A069C8B33D49091D0968C1F3810102298C
:101260004AD00228504607D0C8F8600000E03CE0B1
:10127000FFF736FD04463BE04746C8F86000FFF73D
:101280002FFD064605E000BFFFF72AFD801B022860
:101290002BD828688001F7D4D4E907010843A16A54
:1012A0002E4A490802EB0141626A41EA8211084371
:1012B00094F82C1040EA0161C9F80010012038664A
:1012C000FFF70EFD044606E03EE000BFFFF708FD15
:1012D000001B022809D828688001F7D534E000BF38
:1012E000FFF7FEFC001B022802D90320BDE8F88F9F
:1012F00028688001F4D427E00128F7D0D9F800004D
:10130000E26900F4800191421CD1226A00F03F01A1
:10131000914217D147F6C071626A0140B1EB821F5A
:1013200010D1A26A4FF0FF3300F4403103EB5202B8
:10133000B1EB024F06D194F82C1000F07060B0EBC6
:10134000016F01D00120D1E70020CFE7043802402F
:1013500000004742800E4742007000400000FFFF3F
:1013600010B5401EB0F1807F01D3012010BD4FF0B9
:10137000E02460610F21601702F0BAFB0020A06139
:1013800007202061002010BD7047704770B590F8AD
:101390003C20012A32D0012480F83C40022280F80F
:1013A0003D2003685A689D6822F070060A6832433F
:1013B0005A60134B02689A4214D0B2F1804F11D098
:1013C000104B9A420ED0104B9A420BD00F4B9A42C0
:1013D00008D00F4B9A4205D00E4B9A4202D00E4BCA
:1013E0009A4204D1496825F080031943916080F83E
:1013F0003D40002180F83C10084670BD022070BDC1
:10140000000001400004004000080040000C0040C3
:1014100000040140004001400018004010B50400E5
:1014200003D094F83D0010B107E0012010BD00206A
:1014300084F83C00204600F01FF8022084F83D00AC
:10144000211D206801F0F0F9012084F8460084F89D
:101450003E0084F83F0084F8400084F8410084F89E
:10146000420084F8430084F8440084F8450084F87E
:101470003D00002010BD000008B501681D48B1F115
:10148000804F11D01C4A91421DD1016841F00201E8
:1014900001600068002200F00200009011461D204B
:1014A000FFF78CFC1D201FE0016841F00101016085
:1014B0000068002200F00100009011461C20FFF798
:1014C0007DFC1C2010E00D4A914211D1016841F0D1
:1014D000040101600068002200F004000090114641
:1014E0001E20FFF76BFC1E20BDE80840FFF758BC2C
:1014F00008BD0000403802400004004000080040E1
:1015000090F83D10012901D001207047022180F898
:101510003D100168CA6842F00102CA6000681149C2
:10152000884214D0B0F1804F11D00F4988420ED0BC
:101530000E4988420BD00E49884208D00D49884296
:1015400005D00D49884202D00C49884204D18168F7
:1015500001F00701062903D0016841F00101016093
:1015600000207047000001400004004000080040D7
:10157000000C004000040140004001400018004001
:1015800070B5044690F83C000025012817D00126CC
:1015900084F83C60022084F83D002068826822F0D4
:1015A000770222F47F4282600868502838D00DDC30
:1015B00020284FD005DC90B3102811D14AE002203A
:1015C00070BD302846D040280AD13BE060282FD09B
:1015D00070280DD0B0F5805F03D0B0F5005F12D059
:1015E000012584F83D60002084F83C00284670BD49
:1015F000CB68D1E90121206801F08FF9206881686A
:1016000041F0770109E0CB68D1E90121206801F0C0
:1016100084F92068816841F480418160E1E719E044
:10162000CA684968206801F04DFA5021206806E038
:10163000CA684968206801F056FA6021206801F004
:1016400076F9CEE7CA684968206801F03BFA402184
:101650002068F4E7226801461046F0E770472DE95C
:10166000F04104460068C66805694FF00007A90705
:1016700013D5B10711D5F91E01610120207720682B
:1016800080698007204602D0FFF7E8FF04E000F001
:10169000A9F8204600F03BF92777680716D57007B0
:1016A00014D521686FF004000861022020772068BB
:1016B000806910F4407F204602D0FFF7CFFF04E09E
:1016C00000F090F8204600F022F92777280715D57A
:1016D000300713D521686FF00800086104202077D7
:1016E0002068C0698007204602D0FFF7B7FF04E0FA
:1016F00000F078F8204600F00AF92777E80616D5BA
:10170000F00614D521686FF01000086108202077DA
:101710002068C06910F4407F204602D0FFF79EFF8A
:1017200004E000F05FF8204600F0F1F82777E807C2
:1017300008D0F00706D021686FF00100086120464C
:1017400000F04AF9280608D5300606D521686FF062
:10175000800008612046FFF717FE680608D570066E
:1017600006D521686FF040000861204600F032FA8B
:10177000A8060AD5B00608D521686FF020000861D8
:101780002046BDE8F041FFF700BEBDE8F081000053
:1017900010B586B0044614216846FEF74BFD0E498D
:1017A0002068884215D10D480021026842F00802E5
:1017B0000260006800F0080005904FF4704000904F
:1017C0000220CDE90101CDE9031069460448FFF785
:1017D00081F906B010BD000000080040303802401A
:1017E000000C0240704770B5044690F83C0000269B
:1017F0000D4601280FD0012084F83C006AB1042A6C
:101800001DD0082A2FD00C2A3FD00126002084F8B2
:101810003C00304670BD022070BD206801F090F899
:101820002068816941F0080181612068816921F0A7
:1018300004018161206881692A69114311E02068EF
:1018400001F0AEF82068816941F40061816120688F
:10185000816921F480618161206881692A6941EA96
:1018600002218161D2E7206801F0D0F82068C169C7
:1018700041F00801C1612068C16921F00401C16122
:101880002068C1692A69114311E0206801F0F2F86B
:101890002068C16941F40061C1612068C16921F417
:1018A0008061C1612068C1692A6941EA0221C16180
:1018B000ACE710B5040003D094F83D0010B107E088
:1018C000012010BD002084F83C00204600F01EF8E6
:1018D000022084F83D00211D206800F0A5FF0120B2
:1018E00084F8460084F83E0084F83F0084F8400005
:1018F00084F8410084F8420084F8430084F84400EE
:1019000084F8450084F83D00002010BD7047704702
:1019100010B50446022249B104290ED0082913D07B
:1019200094F84100012816D0012010BD94F83E0023
:101930000128F9D184F83E200FE094F83F000128F7
:10194000F2D184F83F2008E094F840000128EBD160
:1019500084F8402001E084F841200122206800F052
:10196000CFFF16492068164A884201D0904203D121
:10197000436C43F4004343642068884213D0B0F1C1
:10198000804F10D00F4988420DD00F4988420AD0AD
:101990000E49884207D0904205D00D49884202D0B6
:1019A0000C49884204D1816801F00701062903D05F
:1019B000016841F001010160002010BD00000140FC
:1019C000000401400004004000080040000C0040FA
:1019D00000400140001800402DE9F047064600682D
:1019E000DFF8C4910025714CB0F1804F12D16068CE
:1019F000401C6060A068401CA0606D48016801291F
:101A000002D1056001F0F8F901F0F8F96168494583
:101A100000DD65606749306888427CD12068DFF866
:101A20009CA1401C206064480068012853D1E068F4
:101A30004FF0010801283DD1A06901282BD1206A6F
:101A4000062801DA401C20625D4E012805D10121E3
:101A500096ED000A002004F05DFA206A022805D104
:101A6000022196ED000A002004F054FA206A0328AF
:101A700005D1032196ED000A002004F04BFA206AFC
:101A8000042805D1042196ED000A002004F042FA52
:101A9000206A052803D0E069012808D00AE0052162
:101AA00096ED000A002004F035FAC4F81C80A56108
:101AB000E5612562206901286AD16069012867D142
:101AC000A069012808D0002220215046FFF702F922
:101AD000E069012857D05BE0012220215046FFF742
:101AE000F9F8A06A30B938489FED360AC4F8288062
:101AF00080ED000A206A062840DA401C334E344F3D
:101B0000206201280AD194F82C000121D6ED000AA8
:101B100097ED000A00E045E003F0BEFC206A0228D1
:101B200008D194F82C000221D6ED000A97ED000AA6
:101B300003F0B2FC206A032808D194F82C0003219A
:101B4000D6ED000A97ED000A03F0A6FC206A0428EF
:101B500008D194F82C000421D6ED000A97ED000A74
:101B600003F09AFC206A052808D194F82C0005217E
:101B7000D6ED000A97ED000A03F08EFC206A0628D5
:101B8000A6D1C4F81C806562A561A562E5612562E5
:101B90002168494506DD50462560BDE8F047202113
:101BA000FFF790B8BDE8F087A08601009C020020F6
:101BB0001000002000040040400000200008024007
:101BC000000200200000C8421C020020FC0100208E
:101BD000F8010020704718B5034690F8420020280D
:101BE00001D0022018BD61B15AB101201863002054
:101BF0005863184601F0ACF80028F3D1196B01299D
:101C000001D0012018BD19680A6849680091196857
:101C10000C3151E8002F42F0100241E80024002C62
:101C2000F5D118BD70B5134A01680125124C9142D7
:101C300005D128221149FFF7CEFF256170BD104A5A
:101C40009142FBD128220F49FFF7C5FF0D49C87803
:101C50002B2809D10C4A00200B5C1354401C072888
:101C6000FADBE06800B9E560BDE870403221054864
:101C7000FEF7E0BA004800400000002066060020A1
:101C8000004C004018070020E802002070470000C8
:101C9000F8B5016804460868CA684B6910F00F0F70
:101CA0004FF0000559D003F0010602F49077374356
:101CB00065D0C10705D0D10503D5616C41F00101A4
:101CC0006164410705D5D90703D0616C41F0020179
:101CD0006164810705D5D90703D0616C41F0040127
:101CE0006164010707D502F02001314303D0616C24
:101CF00041F008016164616C00293AD0800604D586
:101D0000900602D5204600F03CFF20684069616CD7
:101D1000C0F38010090700D460B3204600F00AFF2A
:101D200020684069400621D52068143050E8001F23
:101D300021F0400140E80012002AF5D1E06BA8B183
:101D40006E490165E06BFEF7A1FE002811D0E06B43
:101D5000016D01B0BDE8F040084783060FD593063A
:101D60000DD52046BDE8F84000F00BBF2046FFF738
:101D70008DFFF8BD2046FFF789FF6564F8BD266B2F
:101D80002023012E7DD1C6067BD5D60679D50868DD
:101D90004868009048694FF00206400641D5E16B63
:101DA000086840680004000CE8D0A28D8242E5D9A2
:101DB000E085C869B0F5807F2DD020680C3050E8F0
:101DC000001F21F4807140E80012002AF5D120683C
:101DD000143050E8001F21F0010140E80012002AF1
:101DE000F5D12068143050E8001F21F0400140E890
:101DF0000012002AF5D184F84230256320680C30A7
:101E000050E8001F21F0100140E80012002AF5D12F
:101E1000E06BFEF7F2FD6663A08DE18D401A81B2A2
:101E20002AE0A08DE18D401A81B2E08D0028A5D076
:101E30000029A3D022680C3252E8000F20F49070E1
:101E400042E80007002FF5D12068143050E8002F39
:101E500022F0010240E80027002FF5D184F842303B
:101E6000256320680C3050E8002F22F0100240E873
:101E70000023002BF5D166632046FFF7D3FEF8BDA3
:101E8000FFE705062BD5150629D594F84100212832
:101E9000F5D1A068B0F5805F01D12069B0B1206AAA
:101EA000411C2162216800784860E08C401E0004DB
:101EB000000CE084E3D12068C16821F08001C1609A
:101EC0002068C16841F04001C160D8E7206A0088FD
:101ED000C0F308004860206A801C2062E5E74006E5
:101EE000CDD55006CBD5CA68204622F04002CA6044
:101EF00084F8413000F0E5F9C1E70000252B000827
:101F000070B5040004D094F84100002510B106E03B
:101F1000012070BD84F84050204600F023F82420B2
:101F200084F841002068C16821F40051C160204656
:101F300000F088FE2068016921F490410161206869
:101F4000416921F02A0141612068C16841F40051D2
:101F5000C1606564202084F8410084F84200656314
:101F6000002070BD2DE9F04186B00446142168467A
:101F7000FEF760F96E49DFF8B4C1236800246C4AAB
:101F800010390325022608276A4863451ED11368C5
:101F900043F400231360126802F4002205920A68D9
:101FA00042F001020A600968CDE9005601F0010122
:101FB000CDE904716946CDE90245FEF78BFD0022AB
:101FC00011463420FEF7FAFE342038E0DFF868C10D
:101FD000DFF86881634537D1106840F480101060E5
:101FE000106800F480100590086840F00400086054
:101FF000086800F004000590086840F008000860D8
:10200000086802AB00F0080005904FF48050CDE95D
:10201000000683E8B00069464948FEF75BFD0420EE
:10202000CDE9000602AB694683E8B0004046FEF702
:1020300051FD002211463520FEF7C0FE3520FEF787
:10204000AFFE06B0BDE8F081DFF8F8C007276345B2
:1020500022D1374A121D136843F01003136012682F
:1020600002F0100205920A6842F001020A60096853
:1020700002AA01F0010105914FF4C061CDE90016FB
:1020800082E8B0006946FEF725FD002211462520B2
:10209000FEF794FE2520D2E72B48834220D110681A
:1020A00040F400301060106800F4003005900868BB
:1020B00040F008000860086802AB00F008000590D6
:1020C0006020CDE9000683E8B00069464046FEF78F
:1020D00001FD002211462620FEF770FE2620AEE705
:1020E0001A488342ADD1106840F480201060106817
:1020F00000F480200590086840F00200086008683D
:1021000002AB00F0020005904FF44060CDE90006FC
:1021100083E8B00069460E48FEF7DCFC0022114659
:102120002720FEF74BFE272089E70000004C0040E7
:10213000403802400000024000500040000C0240C5
:1021400000080240001001400044004000480040E8
:10215000000402402DE9F84F044690F842009A46E8
:1021600016460D46202802D00220BDE8F88FB5B1F2
:10217000AEB100206064222184F842102063FEF793
:10218000AFFDA6858146E685A0684FF480582027DC
:10219000404501D1206920B12E46002529E00120CB
:1021A000E3E7002625E04B46002220212046CDF81B
:1021B00000A000F0E8FD18B184F842700320D4E7D5
:1021C00026B1A06840451AD038B108E020684068C0
:1021D000C0F3080025F8020B08E0206978B12068F8
:1021E000406800F07F0000BF06F8010BE08D401E44
:1021F000E085E08D0028D6D184F84270B5E72068EC
:102200004068F1E790F84230202B01D0022070475F
:1022100021B11AB10023036300F09ABD0120704779
:1022200070472DE9F843044690F841009846164659
:102230000D46202802D00220BDE8F88385B17EB18A
:1022400000206064212084F84100FEF749FDA68447
:102250008146E684A0682027B0F5805F02D003E0C5
:102260000120E9E7206910B12E4600250EE0002686
:102270000CE08021204600F086FDA8B9C6B116F812
:10228000010B21684860E08C401EE084E08C4B46E6
:102290004FF00002CDF800800028EAD14FF0400155
:1022A000204600F070FD40B184F841700320C3E780
:1022B00035F8020BC0F30800E3E784F84170002012
:1022C000BAE77047FEE70000064B10B55C78C2F332
:1022D0000723D2B214B103700A7010BD0B700270E4
:1022E00010BD0000F0000020F0B587B01421684652
:1022F000FDF7A0FF25480025016841F0800101603D
:10230000016801F080010591016841F0010101605F
:10231000016801F001010591016841F004010160CB
:10232000016801F004010591016841F002010160BA
:10233000016801F002010591016841F008010160A6
:102340000068134E00F0080005900022202130465E
:10235000FEF7C0FC0F4F002204213846FEF7BAFCFE
:1023600001242020CDE9000469463046CDE902452C
:10237000FEF7B0FB0420CDE9000469463846CDE9FC
:102380000245FEF7A7FB07B0F0BD00003038024061
:10239000000802400004024010B586B0002418482E
:1023A000009401940294039404944FF080410594A6
:1023B000016040F28F61C0E901144FF47A71C0E905
:1023C000031480218161FFF729F808B1FEF713FBA0
:1023D0004FF48050009069460948FFF7D1F808B1E2
:1023E000FEF709FB2020CDE9040404A90448FEF708
:1023F000CDFF002801D0FEF7FEFA06B010BD0000A8
:102400001C03002010B586B00024184800940194E5
:1024100002940394049414490594016040F28F617E
:10242000C0E901144FF47A71C0E90314802181617D
:10243000FEF7F4FF08B1FEF7DEFA4FF4805000908B
:1024400069460A48FFF79CF808B1FEF7D4FA202045
:10245000CDE9040404A90548FEF798FF002801D03F
:10246000FEF7C9FA06B010BD000400406403002066
:1024700010B58EB000240794089409940A940B9424
:102480001C2168460C94FDF7D5FE2B4829490160B4
:1024900040F28F61C0E9011440F2E731C0E9031452
:1024A0008461FEF7BBFF08B1FEF7A5FA4FF4805038
:1024B000079007A92048FFF763F808B1FEF79BFAD9
:1024C0001D48FFF7F6F908B1FEF795FA0B940BA932
:1024D00019480C94FEF75AFF08B1FEF78CFA6020F9
:1024E000CDE9000402940022694613480494FFF7E2
:1024F0007AF908B1FEF77FFA042269460E48FFF721
:1025000072F908B1FEF777FA082269460A48FFF720
:102510006AF908B1FEF76FFA0C2269460648FFF720
:1025200062F908B1FEF767FA0348FFF731F90EB018
:1025300010BD000000080040AC0300200C4810B59E
:102540000A4901604FF4E1314160002181600C22B1
:10255000C160C0E904128161C161FFF7D1FC0028AC
:1025600003D0BDE81040FEF746BA10BD004C004055
:10257000F40300200C4810B50A4901604FF41651CD
:102580004160002181600C22C160C0E904128161B8
:10259000C161FFF7B5FC002803D0BDE81040FEF78D
:1025A0002ABA10BD005000403C0400200C4810B571
:1025B0000A4901604FF4E1314160002181600C2241
:1025C000C160C0E904128161C161FFF799FC002874
:1025D00003D0BDE81040FEF70EBA10BD0010014058
:1025E000840400200C4810B50A4901604FF4E13121
:1025F0004160002181600C22C160C0E90412816148
:10260000C161FFF77DFC002803D0BDE81040FEF754
:10261000F2B910BD00440040CC0400200C4810B5B5
:102620000A4901604FF4E1314160002181600C22D0
:10263000C160C0E904128161C161FFF761FC00283B
:1026400003D0BDE81040FEF7D6B910BD00480040E9
:1026500014050020FEE7FEE7704700007FB582B05A
:1026600015460C46064603F0A9F802200090012307
:1026700005AA2146304603F09DFE03F077FE01F0E7
:1026800065FD002832D01C4E00200321B07001A847
:1026900003F096F8032828D19DF81410284603F07B
:1026A0008FF89DF81410044688421ED101210DF1C7
:1026B000070003F085F8012817D19DF804009DF864
:1026C00005109DF8062008441044C1B2002004E023
:1026D0002B5C401C1944C9B2C0B2A042F8DBC8430D
:1026E0009DF80710C0B2814202D0002006B070BD34
:1026F000B2702046FAE70000F000002010B50E4C42
:10270000411C08D000212160C0B2382103F060F8DC
:10271000411C0ED004E009484178007840EA0120CD
:102720002168002904D1010402D520F40040404270
:1027300010BD0121216010BD0C010020DC0500202E
:1027400002460448407810B141EA0220704742EA4C
:1027500001207047F00000207047FEF7C7BA000064
:1027600030B593B030216846FDF764FD14210CA804
:10277000FDF760FD1D480025016841F080510160B2
:10278000006800F0805011901948016841F48041C0
:1027900001600068022400F4804011900120009044
:1027A000000401908001CDE9064008AA0420A82178
:1027B00082E813000B906846FEF71CFC08B172B665
:1027C000FEE70CA90F2081E831004FF4A0500F90D4
:1027D0004FF48050109005210CA8FEF721FB002833
:1027E00001D072B6FEE713B030BD000040380240A1
:1027F000007000400248016841F4700101607047B8
:1028000088ED00E00148FEF72ABF00001C0300200D
:102810000148FEF724BF0000640300200148FEF7D2
:102820001EBF0000AC030020F0B50268294C2A4D01
:102830002A4E2B4F2B4B4FF0804CA04209D06045C5
:1028400007D0A84205D0B04203D0B84201D0984288
:1028500004D122F0700E4A6842EA0E02A0421BD058
:10286000604519D0A84217D0B04215D0B84213D055
:10287000984211D01C4DA8420ED01C4DA8420BD03E
:102880001B4DA84208D01B4DA84205D01A4DA842A6
:1028900002D01A4DA84203D122F44075CA682A43D7
:1028A0004D6922F080022A4302608A68C2620A6887
:1028B0008262A04201D0984201D1096901630121DD
:1028C00041610169C90703D0016921F0010101617A
:1028D000F0BD00000000014000040040000800407E
:1028E000000C004000040140004001400044014051
:1028F0000048014000180040001C0040002000403B
:1029000010B501F01F030121046A99408C43046251
:10291000016A9A401143016210BD10B5846842EA11
:10292000032224F47F440A432243826010BD82685C
:1029300022F070020A4342F00701816070470000F4
:10294000F0B5036A026A22F00102026242688469F9
:10295000124E24F073050C682C4323F002058B689B
:102960002B430D4DA84201D0B04205D123F00807FA
:10297000CB683B4323F00403A84201D0B04205D109
:102980004D6922F4407215438A692A43426084618A
:10299000496841630362F0BD00000140000401404A
:1029A000F0B5026A036A23F0100303624368846986
:1029B0000D6824F4E64444EA05248D6822F02002E0
:1029C00042EA05120F4D104EA84201D0B04206D186
:1029D000CF6822F0800242EA071222F04002A842A9
:1029E00001D0B04207D14D6923F4406343EA850327
:1029F0008D6943EA850343608461496881630262AB
:102A0000F0BD00000000014000040140F0B5026A82
:102A1000036A23F4807303624368C46922F400727A
:102A200024F073050C68124E2C438D6842EA05228F
:102A30000E4DA84201D0B04206D1CF6822F4006208
:102A400042EA072222F48062A84201D0B04207D1B4
:102A50004D6923F4405343EA05138D6943EA051396
:102A60004360C4614968C1630262F0BD0000014077
:102A70000004014030B5046A026A22F48052026206
:102A80004268C3690D6823F4E64343EA05238D6871
:102A900024F4005444EA0534084DA84202D0084DFD
:102AA000A84204D14D6922F4804242EA8512426074
:102AB000C36149680164046230BD00000000014048
:102AC0000004014010B5036A046A24F001040462A2
:102AD000846924F0F00444EA021423F00A020A4351
:102AE0008461026210BD10B5036A046A24F0100408
:102AF0000462846923F0A00324F4704444EA02329F
:102B000043EA01118261016210BD00000148FFF734
:102B1000BFB80000F40300200148FFF7B9B8000077
:102B20003C04002010B5806B0021C185C184FFF7F3
:102B3000ADF810BD01680C3151E8002F22F49072FD
:102B400041E80023002BF5D10168143151E8002F32
:102B500022F0010241E80023002BF5D1016B01298D
:102B600009D101680C3151E8002F22F0100241E830
:102B70000023002BF5D1202180F8421000210163B1
:102B8000704708B590F84210222901D0022008BDF4
:102B900082684FF480539A4201D1016921B1816A60
:102BA0009A421BD04AB10AE00268816A5268C2F3B5
:102BB00008020A80816A891C08E0026972B1026811
:102BC000526802F07F020A70816A491C8162C18DDD
:102BD000491E0904090CC18503D01BE00268526834
:102BE000F1E70168CA6822F02002CA600168CA6879
:102BF00022F48072CA6001684A6922F001024A61C7
:102C0000202180F8421000214163026B012A03D089
:102C1000FFF706FB002008BD016301680C3151E895
:102C2000002F22F0100241E80023002BF5D10168AB
:102C30000A68D20602D50A6849680091818DFEF7BC
:102C4000F1FFE7E770B5044600680169E26821F426
:102C50004051114301612169A068E269084361693B
:102C6000114308432168CA6849F20C639A4302433E
:102C7000CA6020684169A26921F440711143416131
:102C800031492068884202D03049884202D1FEF79B
:102C900071F901E0FEF75EF9E2690023192164256C
:102CA0003226B2F5004F626828D0A0FB0101930FD5
:102CB0009200FDF787FA0146B0FBF5F06FF01802BD
:102CC000504301EB800006EB0010B0FBF5F000F084
:102CD000F002B1FBF5F002EB0012B1FBF5F06FF082
:102CE0001803584301EB800006EB0010B0FBF5F031
:102CF00000F00F0021681044886070BDA0FB010146
:102D000092185B41FDF75EFA0146B0FBF5F0020157
:102D1000B1FBF5F06FF01803584301EB800006EBB0
:102D2000C000B0FBF5F000F0F80002EB4002B1FB90
:102D3000F5F0584301EB800006EBC000B0FBF5F066
:102D400000F00700D6E70000001001400014014029
:102D500081628285C28500214164222180F842106F
:102D6000016921B10168CA6842F48072CA600168D1
:102D70004A6942F001024A610068C16841F02001DD
:102D8000C160002070472DE9F843984617460D466C
:102D90000446089E24E0701C22D0FDF7A1FFA0EBA2
:102DA0000800B0421AD8CEB12068C168490717D5CB
:102DB000802D15D0402D13D00168C94309070FD4C9
:102DC00001680025406800902046FFF7B3FE082008
:102DD000606484F840500120BDE8F8830320FBE7DD
:102DE0002068006835EA000004D00020B842D2D044
:102DF0000020F1E70120F9E700F002B87047000079
:102E00002DE9F05FFB48FC4C2DED108B00686178DC
:102E1000012801D1F9480160F94A1368F6480026F3
:102E2000012B007804D13F2802D1032900D116607C
:102E3000F44D2A68012A02D0022A07D01AE03F285E
:102E400018D1442916D1F04A166013E0252811D173
:102E5000EE4F0122A35C012B03D0022B01D0032BE8
:102E600003D107EB820C4CF8043C521C042AF1DB22
:102E700003222A60E64A13680122012B05D13F286C
:102E800003D1272901D1E34B1A60E34B1D68022DC2
:102E900004D13F2802D1612900D11A60DF4B1D689F
:102EA00025B93F2802D1622900D11A60D24BDFF840
:102EB000708393F806A09D88D8F80070DB78012F06
:102EC00002D0022F29D03BE0BAF1210F38D1CA4FEE
:102ED000DFF850C30128B7F8017002D0022802D0F1
:102EE00005E07FBA01E07FBA7F42CCF80070CE4F98
:102EF000012B02D0022B03D008E095FA95FC03E0E9
:102F000095FA95FCCCF1000CC7F800C0102917D138
:102F10003F2815D1C8F8006012E0072904D008291D
:102F200006D009290AD00BE03F2809D1BF4902E0A9
:102F30003F2805D1BE490A60667001E03F2807D0EE
:102F40009146BC4AC2F800906278882A02D006E016
:102F5000B949F0E73F2802D1B84FC7F80090DFF831
:102F6000E0E2DEF800B0BBF1020F16DA2A2814D135
:102F7000DFF8D0C20121675C012F03D0022F01D0FE
:102F8000032F03D10CEB810848F8047C491C072966
:102F9000F1DB0BF10101CEF80010AB4F39680129CC
:102FA00029D1BAF1210F26D1A849012802D002283F
:102FB00005D010E0B4F801C09CFA9CFC05E0B4F820
:102FC00001C09CFA9CFCCCF1000CC1F800C0D1F807
:102FD00000C0C1F800C09E49012B02D0022B02D0D4
:102FE00009E06BBA01E06BBA5B420B600B68C3EBA4
:102FF000C3030B603E6097490968012906D1032A83
:1030000004D13F2802D1944BC3F80090934909683A
:10301000012913D19249072A04D0082A06D0092A87
:103020000AD00BE03F2809D14A4602E03F2805D1EB
:1030300002220A60667001E03F2812D0DFF8C8B1B2
:103040009FED88DB9FED899B9FED8AAB9FED8BBB4E
:103050009FED8CCBDBF800108C4F8D4D012902D0F9
:1030600022E20322E5E7217A2129F9D189490128C1
:1030700091ED1A2A91ED1B1AD1ED1C1A91ED190A46
:10308000D1ED180A02D0022846D093E06078B8EE5D
:10309000C22A02EE900AB8EEC11ADFF8F881F8EE03
:1030A000622A62EE822A02EE100AB8EE422A32EE5C
:1030B000202A32EE002A41EE022A01EE100AB8EE72
:1030C000002AB8EE411A00EE821AF8EEE10A31EE5B
:1030D000000A40EE802ABDEEE20A10EE100AC8F89F
:1030E00074000A2802DDB2EE040A0DE0FDF735FA9D
:1030F00053EC1D2BFDF76EFA02D29FED670A03E039
:1031000098ED1D0AB8EEC00A87ED000A607800EE5F
:10311000100AB8EE400A49E06078B8EEC11A02EE33
:10312000900AB8EEC22ADFF86C81F8EE622A70EEDF
:10313000E22A72EE802A62EE812A01EE100AB8EECF
:10314000411A42EE412A01EE100AB8EE002AB8EE0A
:10315000411A10EE821AF8EEE10A31EE000A40EE52
:10316000802ABDEEE20A10EE100AC8F8740010F1D1
:103170000A0F02DABAEE040A0FE0FDF7EEF99FED4E
:10318000471B53EC112BFDF73DFA02D29FED450A88
:1031900003E098ED1D0AB8EEC00A87ED000A6078DA
:1031A00000EE100AB8EE400AB1EE400A88ED180AA7
:1031B00088ED190AA078012802D0022808D012E070
:1031C000B4F8030040BA00EE100AB8EE400A08E076
:1031D000B4F8030040BA00EE100AB8EE400AB1EEAF
:1031E000400A85ED000A607901285DD0022862D08E
:1031F0006CE00000D800002066060020DC00002003
:1032000030000020D4000020CC020020DC0200208E
:10321000C8000020CC000020D00000206400002066
:10322000B8000020B0000020B4000020BC00002046
:10323000C0000020B4020020C4000020AC00002028
:10324000A80000206C00002038000020E8010020C9
:10325000EC01002054000020500000202C00002031
:10326000340000209A9999999999D93F7B14AE47D7
:10327000E17AB43F000000000000E03F7B14AE475D
:10328000E17A943FEC51B81E85EBD13F000200205B
:10329000F801002020020020CDCCCC3E9A999999CB
:1032A0009999D9BFCDCCCCBEE08840BA00EE100AC7
:1032B000B8EE400A07E0E08840BA00EE100AB8EE27
:1032C000400AB1EE400AFE4880ED000A2868FDF78A
:1032D0006EF99FEDFCEB53EC1E2BFDF75DF8FDF74F
:1032E000A9F9DFF8DCA308EE100ADAF80000FDF710
:1032F0005EF953EC1E2BFDF74FF8FDF79BF938EE06
:1033000008EA08EE900AF148F0EE000AB0EE4E0A24
:1033100080ED028AC0ED058A08EE600A80ED038A1E
:10332000C0ED068A80ED048AC0ED078A10EE100A0F
:10333000FDF73DF953EC192BFDF72EF853EC1A2B42
:10334000FDF72AF83EEE080A41EC1F0B10EE100ABA
:10335000FDF72DF953EC1B2BFDF71EF841EC1E0B6E
:1033600018EE100AFDF723F953EC1C2BFDF714F8A7
:1033700053EC1E2BFCF769FF53EC1F2BFCF765FF8A
:10338000FDF758F938EEA80AF0EE000A80462860EA
:1033900008EEE00A10EE100AFDF709F953EC192BBC
:1033A000FCF7FAFF53EC1A2BFCF7F6FF38EE880A0D
:1033B00041EC1E0B30EE080A10EE100AFDF7F7F88C
:1033C00053EC1B2BFCF7E8FF41EC1F0B18EE900AA7
:1033D000FDF7EDF853EC1C2BFCF7DEFF53EC1F2B35
:1033E000FCF733FF53EC1E2BFCF72FFFFDF722F900
:1033F000B74A0146B2EE0E0ACAF80000904501DD58
:1034000085ED000A5046914201DD80ED000AB14988
:103410002A68BAEE0E0A8A4201D985ED000A0268CE
:103420008A4201D980ED000A95ED000A4FF07C52E6
:1034300010EE101A914208DAB5EEC00AF1EE10FA59
:1034400003DDB6EE000A85ED000A90ED000A10EEED
:10345000101A914208DAB5EEC00AF1EE10FA03DD57
:10346000B6EE000A80ED000A95ED000A4FF03F42EB
:1034700010EE101A914208D2B5EEC00AF1EE10FA21
:1034800003D2BEEE000A85ED000A90ED000A10EEB0
:10349000101A914208D2B5EEC00AF1EE10FA03D22A
:1034A000BEEE000A8AED000A94F801809FED8AFAC8
:1034B000B8F1440F0FD1DBF8001001290BD12178AE
:1034C0003F2908D17E48CBF8006085ED00FA80EDF9
:1034D00000FA87ED00FA814A1068012804D12078AB
:1034E000012802D0022847D093E000EE108A7748E6
:1034F000F8EE400A90ED1A0AB8EEC00A20EE801AE3
:1035000000EE108AF8EE400A90ED180A70EE801A6C
:10351000D0ED190A31EEA02AD0ED1B1AF8EEE11A0F
:1035200001EE821A01EE908AB8EE002AF8EE611AD6
:1035300040EE021A90ED1C0AB8EEC00A71EEA00A25
:1035400000EE201ABDEEC10A10EE101A41670529DF
:1035500002DDB1EE040A08E0012902DAB7EE000A42
:1035600003E000EE101AB8EEC00A87ED000A00EE84
:10357000108AB8EE400A48E000EE108A5348B8EED0
:10358000400A90ED181A71EE400A90ED190A70EE9B
:10359000801AD0ED1B0AF8EEE00A61EEA00A01EEF7
:1035A000908AB8EE612AD0ED1A1AF8EEE11A41EECF
:1035B000C20A01EE908AB8EE002AF8EE611A51EEC6
:1035C000021A31EE801A90ED1C0AB8EEC00A40EEE5
:1035D000010ABDEEE00A10EE101A416711F1050F65
:1035E00002DAB9EE040A08E0002902DBBFEE000AA5
:1035F00003E000EE101AB8EEC00A87ED000A00EEF4
:10360000108AB8EE400AB1EE400A80ED180A80ED4B
:10361000190AA246B8F1270F03D0B8F1280F07D036
:103620000AE09AF800003F2806D187ED00FA02E090
:1036300020783F2800D11660DFF8A4B0DBF8000046
:1036400001287DD19AF800105046012902D00229A4
:1036500005D00CE000EE108AB8EE400A05E000EE5E
:10366000108AB8EE400AB1EE400A85ED000A817872
:10367000012902D0022907D011E09AF8030000EED8
:10368000100AB8EE400A07E09AF8030000EE100AAC
:10369000B8EE400AB1EE400A094880ED000A2868F9
:1036A000FCF785FF53EC1D2BFCF776FEFCF7C2FF01
:1036B000034F08EE100A3868FCF779FF12E00000AB
:1036C000FC0100209A9999999999C93F20020020FC
:1036D00000007041000070C100000000A80200203E
:1036E000AC02002053EC1D2BFCF756FEFCF7A2FFAA
:1036F00008EE900A38EE080AA048F0EE00FA80EDD5
:10370000028AB0EE40EAC0ED058A08EE6F0A80ED4D
:10371000038AC0ED068A80ED048AC0ED078A10EEA8
:10372000100AFCF744FF53EC192BFCF735FE53EC61
:103730001A2BFCF731FE41EC1D0B3EEE080A00E0AF
:10374000AEE010EE100AFCF732FF53EC1B2BFCF737
:1037500023FE41EC1E0B18EE100AFCF728FF53EC79
:103760001C2BFCF719FE53EC1E2BFCF76EFD53ECE3
:103770001D2BFCF76AFDFCF75DFF38EEA80A044636
:10378000286008EEEF0A10EE100AFCF710FF53EC69
:10379000192BFCF701FE53EC1A2BFCF7FDFD38EE5C
:1037A000880A41EC190B30EE080A10EE100AFCF7FB
:1037B000FEFE53EC1B2BFCF7EFFD41EC1A0B18EE51
:1037C000900AFCF7F4FE53EC1C2BFCF7E5FD53ECE0
:1037D0001A2BFCF73AFD53EC192BFCF736FDFCF7DE
:1037E00029FF674A01463860944203DDB2EE040ABD
:1037F00085ED000A3846914203DDB2EE040A80ED01
:10380000000A60492A688A4203D9BAEE040A85EDA3
:10381000000A02688A4203D9BAEE040A80ED000A5F
:1038200095ED000A4FF07C5210EE101A914208DA22
:10383000B5EEC00AF1EE10FA03DDB6EE000A85ED32
:10384000000A90ED000A10EE101A914208DAB5EE67
:10385000C00AF1EE10FA03DDB6EE000A80ED000AB0
:1038600095ED000A4FF03F4210EE101A914208D237
:10387000B5EEC00AF1EE10FA03D2BEEE000A85EDF5
:10388000000A90ED000A10EE101A914208D2B5EE2F
:10389000C00AF1EE10FA03D2BEEE000A87ED000A6C
:1038A0009AF800105046172902D0182913D004E0C6
:1038B000354A85ED00FA82ED00FA344D344C354A34
:1038C000354BB8F1390F0BD0B8F1400F0CD0B8F12F
:1038D000410F11D015E0294ACBF800605660E7E7A8
:1038E0002D68012D0BD00CE02D68022D07D008E0CB
:1038F000266016601E602CE02D68032D01D13F2943
:10390000F6D02468012C24D18479212C21D1234C98
:10391000012902D0022904D00AE0B0F801506DBAA2
:1039200003E0B0F801506DBA6D421560C4F8009024
:10393000C278012A02D0022A04D00AE0BAF80400B0
:1039400040BA03E0BAF8040040BA40421860C4F834
:1039500000901348026832B93F2904D1B8F1330FFF
:1039600001D1C0F800900548322146700D48BDECE9
:10397000108BBDE8F05FFCF75DBC0000200200206A
:1039800000002041000020C1FC0100206000002058
:103990005C000020C4010020C8010020A400002019
:1039A00068000020660600200148FEF771B900009B
:1039B000840400200148FEF76BB90000CC0400200D
:1039C0000148FEF765B9000014050020F0B585B088
:1039D000054602262020CDE9000600240320CDE97B
:1039E000024007200E4F049069463846FDF772F8F2
:1039F0004020CDE9000669463846FDF76BF80A49D4
:103A000008480860C1E901540C20CC60C1E90440B9
:103A10008C610846CC61FEF773FA05B0F0BD00007A
:103A2000000C024000440040EC05002010B5134695
:103A30000C460A4601460448FEF78CFB08B10020FC
:103A400010BD20B210BD0000EC0500200A46014662
:103A50004FF0FF330148FEF7E4BB0000EC05002007
:103A6000FEE77CB515460646002903DA484240F4D5
:103A7000004001B26C460A46601C8DF80030411CC3
:103A8000FEF722FC0022211DE01CFEF71DFC2A4649
:103A9000A11D601DFEF718FC07236A462921304648
:103AA00000F010FC7CBD00000FB4054B10B503A95D
:103AB000044A029800F03CF810BC5DF814FB0000CA
:103AC0005D420008D00200200FB4084B10B504A9D5
:103AD00002AA039800F02CF8044602A9002000F086
:103AE00003F9204610BC5DF814FB0000E93C000817
:103AF0000907090E002804DB00F1E02080F800141B
:103B0000704700F00F0000F1E02080F8141D7047AE
:103B100002E008C8121F08C1002AFAD17047704796
:103B2000002001E001C1121F002AFBD170470000F4
:103B30002DE9FF4F8BB09A460F460546002606E05A
:103B400025280BD052460D9990476D1C761C28787D
:103B50000028F5D10FB03046BDE8F08F0024A04614
:103B60000122604900E0044315F8013F203B02FABE
:103B700003F00842F7D128782E2817D115F8010F45
:103B800044F004042A280ED06FF02F022878A0F108
:103B9000300109290AD808EB880102EB410100EB4A
:103BA00001086D1CF2E757F8048B6D1C2878692812
:103BB0003ED006DC0028CDD063280BD0642804D189
:103BC00036E0732810D075284BD052460D99904797
:103BD000761C85E017F8040B8DF8000000208DF8A6
:103BE0000100E946012003E057F8049B4FF0FF3045
:103BF00061074FF0000401D40AE0641C44450DDA6B
:103C00008442FADB19F804100029F6D106E0641C9E
:103C10008442FCDB19F804100029F8D1264404E0A2
:103C200019F8010B52460D999047641EF8D257E0DF
:103C300001CF4FF00A0B002802DA40422D2102E0AA
:103C4000210504D52B218DF82410012103E0E10783
:103C500005D02021F7E70DF1200908910CE00021A3
:103C6000F9E701CF4FF00A0BF9E75946FCF7FEFCE4
:103C700001F1300209F8012D0028F6D1ADEB090061
:103C800000F1200B600701D44FF00108D84502DD98
:103C9000A8EB0B0000E000208046002406E009A805
:103CA0005246005D0D999047641C761C089884422A
:103CB000F5DB04E0302052460D999047761CB8F1B0
:103CC0000001A8F10108F5DC05E019F8010B5246E6
:103CD0000D999047761CBBF10001ABF1010BF4DCB0
:103CE0006D1C34E7092801000A68531C0B60107032
:103CF000704700002DE9F041264C0646E06BA4F128
:103D000080052A4600EB010CEB6E106B126F4FF42E
:103D10007A679C4508DAD4F83CC08C44944503DDAE
:103D2000E26B1144E1630BE0D4F83CC08C449C4549
:103D300001DDE36304E0E36B1944914207DAE263D7
:103D4000C3B2E06B3A4601B2042000F085FA206C61
:103D50008119A86E814207DA216C6A6E3144914262
:103D600002DD206C304408E0216C3144814204DCE7
:103D7000206C8119686E81420ADA206495F830302F
:103D8000206C3A46BDE8F04101B2032000F064BA6D
:103D9000BDE8F081900100202DE9F0470D462DEDA2
:103DA000068B0646914628437ED04FF49670864295
:103DB00000DD0646854200DD0546B848864200DA49
:103DC0000646854200DA0546B54C4FF00008C4F8B7
:103DD0003480C4F83880606C301AFCF7BEFB9FED6D
:103DE000B1AB53EC1A2BFCF7D7FA41EC180B606C13
:103DF000E16C30440844FCF7B0FB9FEDAC1B53EC86
:103E0000112BFCF7C9FA41EC190B3046FCF7A5FB66
:103E10009FEDA81B53EC112BFCF7BEFA53EC192BAA
:103E2000FCF713FA53EC182BFCF70FFAFCF702FC23
:103E30000746A06C281AFCF790FB9FEDA01B53ECE3
:103E4000112BFCF7A9FA41EC180BA06C216D28444A
:103E50000844FCF782FB53EC1A2BFCF79DFA41EC6B
:103E6000190B2846FCF779FB9FED961B53EC112BA1
:103E7000FCF792FA53EC192BFCF7E7F953EC182BEB
:103E8000FCF7E3F9FCF7D6FB08EE100A3846FCF71E
:103E90008EFB9FED8E1B53EC112BFCF77DFAFCF78C
:103EA000C9FB00EE100A00E0F3E0F1EE000A606CDE
:103EB00068EE200AE0646664A06C2065A5649FED4E
:103EC000851AB4EEC10AF1EE10FA01DDB0EE410A36
:103ED000F4EEC10AF1EE10FA01DDF0EE410A9FEDB9
:103EE0007E1AB4EEC10AF1EE10FA01D2B0EE410A28
:103EF000F4EEC10AF1EE10FA01D2F0EE410AB9F186
:103F0000010F34D110EE100A4FF07E51734AB7EE14
:103F1000001AFFEE001A884207DAB5EEC00AF1EE89
:103F200010FA02DDB0EE410A03E010EE100A9042F2
:103F300006D2B5EEC00AF1EE10FA01D2B0EE610A77
:103F400010EE900A884207DAF5EEC00AF1EE10FA98
:103F500002DDF0EE410A03E010EE900A904206D234
:103F6000F5EEC00AF1EE10FA01D2F0EE610A606DD2
:103F70005B49401C6065884201DDC4F85480BDEE99
:103F8000C00A206CB8EEC08ABDEEE00AF8EEC08A26
:103F900000EE100A4248B8EEC00A803870EE080AF7
:103FA00090ED1A0AB8EEC00AF4EEC00AF1EE10FA6B
:103FB0006ED2216C00EE101AB8EEC00A70EE080A3C
:103FC00090ED190AB8EEC00AF4EEC00AF1EE10FA4C
:103FD0005EDDE16B00EE101AB8EEC00A70EE280A42
:103FE00090ED1B0AB8EEC00AF4EEC00AF1EE10FA2A
:103FF0004ED2E16B00EE101AB8EEC00A70EE280A3D
:1040000090ED1C0AB8EEC00AF4EEC00AF1EE10FA08
:104010003EDDE06B4FF47A6500EE100A64232A4619
:10402000B8EEC00A30EE280ABDEEC00A10EE100A43
:1040300001B2042000F010F9E06B00EE100AB8EEB7
:10404000C00A30EE280ABDEEC00A10EE100AE06386
:104050000A20FCF72DFD206C642300EE100A2A468E
:10406000B8EEC00A30EE080ABDEEC00A10EE100A23
:1040700001B2032000F0F0F8206C00EE100AB8EE58
:10408000C00A30EE080ABDEEC00A10EE100A206425
:104090000020BDEC068BBDE8F0870000D4FEFFFFDA
:1040A000900100207B14AE47E17A843FFA7E6ABC1F
:1040B0007493883F000000000000D03F7B14AE479F
:1040C000E17A943F9A9999999999D93F3333333347
:1040D0003333F33F0000C8420000C8C2000080BF75
:1040E00040420F0010B50420FEF708FB40F2DC51FF
:1040F00088420EDD074C40F6FF72B4F8740094F865
:10410000303001B2042000F0A7F804F18001606FA4
:10411000C86310BD1001002010B50420FEF7EEFAB0
:1041200040F2DC5188420EDD074C40F6FF72B4F8D5
:10413000780094F8303001B2042000F08DF804F1DA
:104140008001A06FC86310BD1001002038B50024A5
:1041500025460121684601F033FB00280FD09DF869
:104160000010E0B260F30F2461F30704FF2901D1CE
:10417000FF2805D06D1CEDB20A2DEAD9002038BD0C
:10418000012038BD10B50220FEF7B8FA0C49CA6DFF
:10419000A2F5487290420ADD11F8303F4FF47A627E
:1041A000088DBDE8104001B2022000F055B832235E
:1041B000BDE81040102203A10748FEF732B8000006
:1041C00010010020636C61775F746F6F6F6F6F5FBA
:1041D0006261636B000000001405002010B502202E
:1041E000FEF78CFA0A49CC6DA04209DD91F8303017
:1041F00021B2BDE810404FF47A62022000F02CB8E2
:104200003223BDE81040112202A10748FEF709B889
:1042100010010020636C61775F746F6F6F6F6F5F69
:1042200072696768740000001405002004484FF4A8
:104230007A6210F8303F008E01B2022000F00CB814
:10424000100100200349024809680069886370472B
:1042500010010020AC030020FFF703BC13B54FF69C
:10426000FF73012269460248FDF7DBFF00981CBD81
:104270003C04002010B5002821D0114B0022001F63
:10428000196803E0814203D80A4649680029F9D138
:1042900052B11368841A9C4204D10068184410601B
:1042A000104602E0506000E0186039B102680B1A55
:1042B000934203D10B681A4402604968416010BD03
:1042C000D4020020F8B51C4615460E46074601F0FC
:1042D00075FA0320009023462A463146384602F0FC
:1042E00069F802F043F83846BDE8F840FCF7D8BA60
:1042F0002DE9F0470B46804601F0BCFF01F000FAC3
:10430000594D5A4F5A4E4FF4FA6205F1800440F667
:10431000FF79B8F1010F06D0B8F1020F29D0B8F13A
:10432000030F5FD14AE015F8300F012BC3B210D054
:10433000B88801B20320FFF78FFFB0882B7801B255
:104340004A460420FFF788FF786820647068E063BD
:1043500048E0A08A01B20320FFF77EFFA08B2B78F4
:1043600001B24A460420FFF777FFE069E063606925
:1043700037E015F8300F012BC3B20FD0388901B2E6
:104380000320FFF769FF30892B7801B24A460420E9
:10439000FFF762FFB068E063B86822E0A08C01B26A
:1043A0000320FFF759FFA08D2B7801B24A46042065
:1043B000FFF752FFE06AE063606A12E015F8300F21
:1043C000012BC3B23FD0B88901B20320FFF744FFED
:1043D000B0892B7801B24A460420FFF73DFFF06810
:1043E000E06320644FF496742046FCF761FB01F013
:1043F0009DF94FF44870FCF75BFBFFF723FF650066
:104400002846FCF755FB01F0CDF9FFF76BFE20467F
:10441000FCF74EFBFFF70AFF2846FCF749FB01F0CB
:10442000A9F92046FCF744FB01F04CF92046FCF7C3
:104430003FFB01F0B7F94FF4C870FCF739FBBDE85A
:10444000F047FFF79FBEA08801B20320FFF704FFEB
:10445000A0892B7801B24A460420FFF7FDFEE068F0
:10446000E0636068BDE700001001002084000020C8
:10447000940000202DE9F0470B46814601F0FAFE3A
:1044800001F03EF95D4D5E4F5E4E48464FF4FA62D4
:1044900005F1800440F6FF78B9F1010F05D002283C
:1044A00029D0B9F1030F5FD14AE015F8300F012B85
:1044B000C3B210D0B88801B20320FFF7CDFEB08898
:1044C0002B7801B242460420FFF7C6FE78682064CC
:1044D0007068E06348E0A08A01B20320FFF7BCFEE9
:1044E000A08B2B7801B242460420FFF7B5FEE069AD
:1044F000E063606937E015F8300F012BC3B20FD0CD
:10450000388901B20320FFF7A7FE30892B7801B26A
:1045100042460420FFF7A0FEB068E063B86822E0DE
:10452000A08C01B20320FFF797FEA08D2B7801B27B
:1045300042460420FFF790FEE06AE063606A12E002
:1045400015F8300F012BC3B248D0B88901B203204F
:10455000FFF782FEB0892B7801B242460420FFF7B4
:104560007BFEF068E06320644FF496742046FCF70D
:104570009FFA01F0DBF84FF44870FCF799FAFFF767
:1045800061FE65002846FCF793FA01F00BF9FFF78E
:10459000A9FD2846FCF78CFAFFF748FE4FF42F7070
:1045A000FCF786FA01F0E6F82046FCF781FA01F004
:1045B000A7F8C820FCF77CFA484601F06FFE4FF4DC
:1045C000C870FCF775FAFFF7DDFD01F08FF828469B
:1045D000FCF76EFABDE8F04701F07EB8A08801B2A2
:1045E0000320FFF739FEA0892B7801B24246042050
:1045F000FFF732FEE068E0636068B4E71001002076
:1046000084000020940000202DE9F0410F4605466B
:1046100001F01CFE01F056F801F0C4F8FFF762FD4E
:104620004FF4FA784046FCF743FAFFF7D7FD4D4EBA
:104630004FF4FA6206F18004012F06D0012D26D036
:10464000022D2DD0032D34D03CE0012D04D0022DBD
:104650000BD0032D12D035E0208B96F8303001B20C
:104660000320FFF7F9FDA0692BE0208D96F830308C
:1046700001B20320FFF7F0FDA06A22E0208996F83E
:10468000303001B20320FFF7E7FDA06819E0A08AEF
:1046900096F8303001B20320FFF7DEFD606910E0CC
:1046A000A08C96F8303001B20320FFF7D5FD606A88
:1046B00007E0A08896F8303001B20320FFF7CCFD68
:1046C000606820644FF42F70FCF7F2F901F052F8A3
:1046D0004FF49670FCF7ECF9FFF7B4FDC820FCF737
:1046E000E7F901F05FF84FF4C870FCF7E1F9FFF764
:1046F00049FD4FF47A62012D04D0022D0BD0032D19
:1047000012D01AE0A08B96F8303001B20420FFF7E7
:10471000A3FDE06910E0A08D96F8303001B20420CE
:10472000FFF79AFDE06A07E0A08996F8303001B201
:104730000420FFF791FDE068E063C820FCF7B8F9BA
:10474000012F07D000F0FEFF40F24C40BDE8F041E1
:10475000FCF7AEB94FF41670FCF7AAF900F0FEFFB3
:104760004046F3E7100100202DE9F0410F460646D0
:1047700001F094FD00F0FEFF4FF41670FCF798F97D
:1047800000F0B4FFFFF7AEFC4FF49670FCF790F921
:10479000FFF724FD4F4C4FF4FA62A4F18005012E7F
:1047A00004D0022E15D0032E26D031E095F830002B
:1047B000012FC3B206D0A08A01B20320FFF74CFD3F
:1047C000606924E0208B01B20320FFF745FDA0695A
:1047D0001DE095F83000012FC3B206D0A08C01B2C5
:1047E0000320FFF739FD606A11E0208D01B203203C
:1047F000FFF732FDA06A0AE095F83000012FC3B23E
:1048000027D0A08801B20320FFF726FD606820644E
:104810004FF4FA784046FCF74BF9304601F016FDAC
:10482000C820FCF745F9FFF70DFD4FF42F70FCF79A
:104830003FF900F0B7FF4046FCF73AF9FFF7A2FC5A
:104840004FF47A62012E0BD0022E12D0032E19D013
:1048500021E0208901B20320FFF7FEFCA068D6E723
:10486000A08B95F8303001B20420FFF7F5FCE06929
:1048700010E0A08D95F8303001B20420FFF7ECFC79
:10488000E06A07E0A08995F8303001B20420FFF714
:10489000E3FCE068E0634FF4C870FCF709F940F608
:1048A000FF72012F0CD015F8303F288C01B2012087
:1048B000FFF7D2FC4FF46170BDE8F041FCF7F8B8A7
:1048C000288F95F8303001B20120FFF7C5FC404633
:1048D000F2E70000900100202DE9F0470E46074660
:1048E00001F0B4FC00F0EEFE00F05CFF012E03D1FD
:1048F0004FF41670FCF7DCF84FF4FA794846FCF7F1
:10490000D7F8324D4FF4FA624FF47A6805F180041B
:10491000012F04D0022F14D0032F2FD040E0A08A03
:1049200015F8303F01B20320FFF796FC6069206460
:10493000A08B2B7801B242460420FFF78DFCE06982
:104940002DE095F83000012EC3B210D0A08C01B23A
:104950000320FFF781FC606A2064A08D95F8303059
:1049600001B242460420FFF777FCE06A17E0208D91
:1049700001B20320FFF770FCA06AEDE7A08815F8EC
:10498000303F01B20320FFF767FC60682064A08914
:104990002B7801B242460420FFF75EFCE068E0633A
:1049A000C820FCF785F8012E07D000F0CBFE4FF4AD
:1049B0006170BDE8F047FCF77BB84FF44870FCF736
:1049C00077F800F0CBFE4846F3E700001001002026
:1049D00010B510EE100AFBF7EAFD9FED081B53EC33
:1049E000112BFBF74BFD9FED071B53EC112BFBF736
:1049F000D3FCBDE81040FBF7C1BD000066666666EB
:104A000066663F40000000000000A9402DE9F05F0D
:104A1000514C0126E662DFF84491514F4FF4167A6B
:104A200000258BE00A20A663FCF742F8606B0128A2
:104A300001D1606C50B1606B022801D1A06C28B12B
:104A4000606B032877D1E06C002874D1A563D4F89B
:104A5000348065633220FCF72BF8D9F800103868F1
:104A6000FFF748F93D60C9F80050404601F002FCEC
:104A7000FFF7E8FBA06D00B966655046FCF718F833
:104A800000F090FE0A20FCF713F8A06D18B940F270
:104A9000DC50FCF70DF86565206D01283BD03148EE
:104AA0000068A665FFF71EFB4FF4967B5846FBF7A0
:104AB000FFFFFFF7BBFB5046FBF7FAFF00F05AFE83
:104AC0005846FBF7F5FF00F0FDFD5846FBF7F0FFF9
:104AD0003D60C9F800503D60C9F8005000F062FE2A
:104AE0004FF4C870FBF7E4FFFFF74CFB00F0F4FD58
:104AF0004FF4FA70FBF7DCFFFFF70EFBE06B401C96
:104B0000E063B8F1010F0CD0B8F1020F0CD0B8F18E
:104B1000030F0BD00BE000F0DFFD00F0FBFD656341
:104B200008E0666403E006E0A66400E0E66465630E
:104B300000F0F0FD25650A20FBF7BAFFE06B0328C3
:104B4000FFF670AFE5636564A564E564A56525655A
:104B50006563E562BDE8F09F00000020EC010020E5
:104B6000E8010020CC0100202DED048B84B0FCF77F
:104B7000C5F8FDF7F5FDFDF7B7FBFDF717FDFDF7F0
:104B800031FDFDF74BFDFDF707FCFDF73BFCFDF7A5
:104B90006FFCFDF7EFFCFDF7D1FC0122FD49FE485B
:104BA000FDF730FB2822FD49FD48FDF714F82822C7
:104BB000FC49FD48FDF70FF8FC48FCF7A1FCFC4858
:104BC000FCF79EFC0021FB48FCF7A2FE0421F948FB
:104BD000FCF79EFE0821F748FCF79AFE0C21F548E9
:104BE000FCF796FE4FF47A773846FBF761FF00F04A
:104BF0005FFD6420FBF75CFFFFF78EFA012001F0F8
:104C0000C5FB00F0CFFDFFF7BDFA00F065FD012008
:104C100001F030FBE84C0020E849206120640120CD
:104C200008603846FBF744FF32230222E4A1DC4847
:104C3000FDF7F7FADFEDE30ADFEDE38A9FEDE38AA4
:104C4000E34D208B95ED000A81B2BCEEC00A10EE58
:104C5000100ABAEE0E0AC0B200F0B2FA3846FBF7FC
:104C600027FF95ED000A208BF0EE680ABCEEC00A23
:104C700081B210EE100AC0B2DFEDD68AB0EE680A3B
:104C800000F09EFA7800FBF713FF95ED000A208BE9
:104C9000F0EE480ABCEEC00A81B210EE100AB0EE87
:104CA000680AC0B200F08CFA7800FBF701FF06201A
:104CB00000F050FA804604F16C0046690369C2684E
:104CC00081688DE84E0043680268C3A14046FEF744
:104CD000FBFE4146C4A0FEF7E7FEC74E96ED000A74
:104CE000BCEEC00A10EE100AC1B2A08B80B201F077
:104CF0006DFA4046FFF7BEFA32230222BFA1A84850
:104D0000FDF78FFA3846FBF7D3FE95ED000A208BAE
:104D1000F8EE000ABCEEC00A81B210EE100AB0EE46
:104D2000680AC0B200F04CFA00F0F4FCFFF76EFE27
:104D300000F02CFD012001F029FBFFF7EDF99FEDBC
:104D4000B08AD5ED000AA08AB0EE480AFCEEE00A6F
:104D500081B210EE900AF0EE680AC0B200F030FAAC
:104D60004FF461784046FBF7A3FE00F0B9FF95EDE4
:104D7000000A208BBCEEC00A81B210EE100AC0B24D
:104D80009FEDA09AB0EE680AF0EE490A00F018FA1A
:104D900040F6B830FBF78CFE96ED000ABCEEC00A78
:104DA00010EE100AC1B2A08B80B201F0CFF97800EA
:104DB000FBF77EFE00F0C2FF002301211A460846E1
:104DC00000F018FD95ED000A208BBCEEC00A81B200
:104DD00010EE100AC0B2DFED8C9AB0EE680AF0EE69
:104DE000690A00F0EDF97800FBF762FE00F0CEFCF6
:104DF000FFF792F996ED000ABCEEC00A10EE100A19
:104E0000C1B2A08B80B201F0E1F93846FBF750FE49
:104E100095ED000A208BBCEEC00A81B210EE100A9C
:104E2000C0B2DFED7A0AB0EE680A00F0C9F94FF4BB
:104E3000E16B5846FBF73CFE00F0A8FC00F07EFF5B
:104E400000231A461946022000F0D4FC96ED000A11
:104E50005A22BCEEC00A10EE100AC1B2A08B80B27A
:104E600001F0F2F83846FBF723FE95ED000A208B9F
:104E7000BCEEC00A81B210EE100AC0B2DFED640AC7
:104E8000B0EE680A00F09CF940F6C4194846FBF7FA
:104E90000FFE95ED000AA08AF0EE680ABCEEC00A8B
:104EA00081B210EE100AC0B29FED5A0A00F088F9E4
:104EB00040F2DC5A5046FBF7FBFD322302224FA1A1
:104EC0003748FDF7AEF96420FBF7F2FD00F022FC55
:104ED000FFF79CFD00F05AFC012001F057FAFFF7A4
:104EE0001BF9D5ED000AA08AB0EE480AFCEEE00AF4
:104EF00081B210EE900AF0EE680AC0B200F060F9DC
:104F00004046FBF7D5FD00F0EBFE95ED000A208B47
:104F1000F0EE490ABCEEC00A81B210EE100AB0EE03
:104F2000680AC0B200F04CF94846FBF7C1FD00F03A
:104F30002DFC96ED000ABCEEC00A10EE100AC1B2BC
:104F4000A08B80B201F002F97800FBF7B1FD00F010
:104F5000F5FE00231A460121032000F04BFC95EDDD
:104F6000000A208B9FED2C8ABCEEC00A81B2F0EEC5
:104F7000690A10EE100AB0EE680AC0B200F020F91B
:104F80007800FBF795FD00F001FCFFF7C5F896ED02
:104F9000000A43E0980200203C040020660600203E
:104FA0001405002018070020F40300201C03002033
:104FB00064030020AC03002000000020B0020020A9
:104FC000414100000000B441000016420000AA4226
:104FD000F0010020000000002564256425642B25D5
:104FE000642564256400000074302E7478743D22BA
:104FF000257322FFFFFF000018020020424200003C
:105000000000244200002AC30000ACC20000A442F9
:105010000000B042000030420000A542BCEEC00AD1
:1050200010EE100AC1B2A08B80B201F0CFF8384662
:10503000FBF73EFD95ED000A208BF0EE480ABCEE32
:10504000C00A81B210EE100AB0EE680AC0B200F0D9
:10505000B7F85846FBF72CFD00F070FE0023012244
:105060001946042000F0C6FB95ED000A208BF0EEF7
:10507000680ABCEEC00A81B210EE100AB0EE680AEF
:10508000C0B200F09DF84046FBF712FD95ED000A16
:10509000208BDFED2B0ABCEEC00A81B210EE100AA5
:1050A000B0EE680AC0B200F08BF83846FBF700FD9E
:1050B00000F012FB012001F069F9FFF72DF85046CE
:1050C000FBF7F6FC96ED000A5A22BCEEC00A10EE81
:1050D000100AC1B2A08B80B200F0B6FF3846FBF7D1
:1050E000E7FC95ED000A208BDFED160ABCEEC00A46
:1050F00081B210EE100AB0EE680AC0B200F060F89B
:105100007800FBF7D5FCD5ED000A208B9FED0E0A49
:10511000FCEEE00A81B210EE900AF3EE0C0AC0B287
:1051200000F04EF87800FBF7C3FC3223032207A1FE
:105130000748FDF776F83846FBF7BAFCFBE70000B6
:10514000000029C3000096420000A441656E64007F
:1051500014050020F0B50B30154D20F00701002498
:10516000144A0FE003688B420BD38B4205D95E1AB9
:1051700043184768C3E9006700E04368136002C052
:1051800004E0021D10680028ECD12046002802D15E
:10519000286808B10020F0BD064A07481060074A99
:1051A000121A22F00702C0E9002401202860D7E784
:1051B000D8020020D402002054070020500900200B
:1051C000F0B5B5EEC00A2DED028B70EE608A30EEC0
:1051D000208A00240125F1EE10FA83B00E4607461E
:1051E00042DBF5EEC00AF1EE10FA3DDBB0EE480A04
:1051F000FFF7EEFB8DE831003B46324600210120EF
:10520000FBF77CFB0A20FBF753FCB0EE480AFFF7E4
:10521000DFFB8DE831003B46324601210420FBF7DD
:105220006DFB0A20FBF744FCF5EEC08AF1EE10FAA4
:1052300011DBB0EE680AFFF7CBFB8DE831003B468F
:10524000324600210220FBF759FB0A20FBF730FC15
:10525000B0EE680A19E1B1EE680AB0EE408AECE0FF
:105260008DE83100032044E0B5EEC00AF1EE10FAFB
:105270004FDBF5EEC00AF1EE10FA4AD2B0EE680A42
:10528000FFF7A6FB8DE831003B46324600210220A5
:10529000FBF734FB0A20FBF70BFCB0EE680AFFF7C4
:1052A00097FB8DE831003B46324601210320FBF796
:1052B00025FB0A20FBF7FCFBB5EEC08AF1EE10FAE5
:1052C00011DBB0EE480AFFF783FB8DE831003B4667
:1052D000324600210120FBF711FB0A20FBF7E8FB17
:1052E000B0EE480A57E0B1EE480A5CE08DE83100C4
:1052F0000420FBF703FB0A20FBF7DAFB0020FBF797
:1053000045FB03B00A20BDEC028BBDE8F040FBF783
:10531000CFBB30EEC08AB5EEC00AF1EE10FA59D21A
:10532000F5EEC00AF1EE10FA54DB70EE808AB0EEB2
:10533000480AFFF74DFB8DE831003B46324601211C
:105340000220FBF7DBFA0A20FBF7B2FBB0EE480ABB
:10535000FFF73EFB8DE831003B463246002103203B
:10536000FBF7CCFA0A20FBF7A3FBF5EEC08AF1EEBF
:1053700010FA16DBB0EE680AFFF72AFB8DE8310061
:105380003B46324600210120FBF7B8FA0A20FBF722
:105390008FFBB0EE680AFFF71BFB3B46324601214C
:1053A000A4E7B1EE680AB0EE408AFFF711FB8DE882
:1053B000310001213B4632460846FBF79FFA0A209E
:1053C000FBF776FBB0EE480AFFF702FB3B4632469E
:1053D00000218BE7B5EEC00AF1EE10FA8ED2F5EEA1
:1053E000C00AF1EE10FA89D2B1EE400A70EE608A7E
:1053F000B0EE680AFFF7ECFA8DE8310001213B4678
:1054000032460846FBF77AFA0A20FBF751FBB0EE6A
:10541000680AFFF7DDFA8DE831003B46324600218D
:105420000420FBF76BFA0A20FBF742FBB5EEC08ABB
:10543000F1EE10FA16DBB0EE480AFFF7C9FA8DE874
:1054400031003B46324601210220FBF757FA0A2081
:10545000FBF72EFBB0EE480AFFF7BAFA3B4632469E
:105460000021FDE6B1EE480AB0EE408AFFF7B0FA3F
:105470008DE831003B46324600210220FBF73EFA20
:105480000A20FBF715FBB0EE480AFFF7A1FA3B46EE
:1054900032460121E4E6000070EE602A30EE202A58
:1054A000B5EEC00A0122FCEEE21ABCEEC21A08B543
:1054B000F1EE10FA37DBF5EEC00AF1EE10FA32DB4E
:1054C00030EE600A0629B1EE400ABCEEC00A29D2CD
:1054D000DFE801F02803070B18E911EE101A00921B
:1054E0007BE011EE101A00928AE0F5EEC02AF1EE90
:1054F00010FA03DB11EE901A0092BEE010EE101AC3
:1055000000925AE0F5EEC02AF1EE10FA04DB00BF7B
:1055100011EE901A0092C1E010EE101A009250E0C5
:10552000FBF74AFA08BDB5EEC00AF1EE10FA24DB2B
:10553000F5EEC00AF1EE10FA1FD20629F2D2DFE82A
:1055400001F00504030613B2E2E7D3E7EAE7B5EE9C
:10555000C02AF1EE10FAC0DAB1EE420A0092BCEEB7
:10556000C00A10EE101A3EE0B5EEC02AF1EE10FAB5
:10557000B7DA11EE101A009248E070EEC01AB5EEDC
:10558000C00ABCEEE11AF1EE10FA44D2F5EEC00A00
:10559000F1EE10FA3FDB70EE801A70EE800A0629F9
:1055A000BCEEE00AF1EE600AFCEEE00ABAD2DFE8F7
:1055B00001F0035D6E0C1F7AB4E78AB20346012145
:1055C0005EE08AB2034600216BE0F5EEC01A00925D
:1055D000F1EE10FA05DB10EE101A03468AB2002134
:1055E00004E010EE901A03468AB20121012097E7E9
:1055F000F5EEC01A0092F1EE10FA05DB10EE101A6B
:1056000003468AB2012104E010EE901A03468AB2E2
:105610000021042084E7B5EEC00AF1EE10FA81D231
:10562000F5EEC00AF1EE10FA90D2B1EE402A30EE5B
:10563000C00A32EE602A0629B1EE400ABCEEC22A48
:10564000BCEEC00AB8D2DFE801F00304080C1D2E3E
:1056500068E712EE101A0092C5E712EE101A0092D7
:10566000D4E7F5EEC01AF1EE10FA03DB11EE101AD2
:105670000092A2E710EE101A009203468AB20021AF
:1056800002204DE7F5EEC01AF1EE10FA03DB11EE41
:10569000101A009295E710EE101A009203468AB293
:1056A000012103203CE7BDE808400020FBF76EB96C
:1056B0004FF4E130FEF78AB94FF4FA70401E80B221
:1056C000FCD27047034902480968806888637047C4
:1056D00010010020AC03002003490248096840681B
:1056E0008863704710010020AC0300200349024882
:1056F000096800688863704710010020AC0300202F
:10570000034902480968C068886370471001002097
:10571000AC030020044840F6FF7210F8343F808943
:1057200001B20120FEF798BD10010020044840F6A8
:10573000FF7210F8343F008A01B20120FEF78CBDE1
:1057400010010020044840F6FF7210F8343F808BAF
:1057500001B20120FEF780BD10010020044840F690
:10576000FF7290F83030008F01B20120FEF774BD57
:1057700010010020044840F6FF7290F83430808F0A
:1057800001B20120FEF768BD10010020044840F678
:10579000FF7210F8343F008B01B20120FEF75CBDB0
:1057A00010010020044840F6FF7210F8343F808A50
:1057B00001B20120FEF750BD10010020FFF77CBFB1
:1057C000024A89B25268FEF731B900000401002094
:1057D00008B502236A46FCF741FF022802D04FF0C9
:1057E000FF3008BD9DF801109DF80000FCF7A8FFF0
:1057F00080B208BD2DE9FF5F0446029DF7490022F3
:10580000F7481E46012D02D0002D7DD0E2E145680B
:1058100015B1012D36D0DDE10027032C01D0042C79
:1058200000D10327DFF8B883DFF8B893002592464C
:10583000834608F16C0805EB0701404658F8210043
:10584000012E4FF001011AD0FEF7DEFEE91958F8DB
:105850002100E24ACBF86000C2F800A0E24AC2F898
:1058600000A0C9F800A0CBF85CA0FFF72BFF4FF415
:10587000FA70FBF71DF96D1C032DDCDBA8E0FEF7C9
:1058800073FFE3E74FF00008032C01D0042C01D193
:105890004FF0030800278A464FEA020BDFF84093D7
:1058A00007EB080509F16C0959F825000121FFF7FC
:1058B00013F8FFF747FF59F82510DFF82493322338
:1058C0000B22C9F860100121C9F85C10C7A1CA48B1
:1058D000CAF800B0FCF7A5FC0AE0C2480122016842
:1058E000C1480068FEF758FAD9F80800FBF7E0F85D
:1058F000D9F85C1029B1DAF80010D9F824008142F7
:10590000EBDBBE48026800E0A7E0B5486C3050F819
:10591000253000F1180141F82320B9490A6850F8F0
:1059200025C000F1280343F82C20C9F85CB0EEB381
:10593000D1F8009050F8250000F0B0FCFFF71AFFF6
:105940004FF47A70FBF7B4F8FEF7CCFBFFF7CEFE0E
:105950004FF49670FBF7ACF8FEF740FC4FF4FA708A
:10596000FBF7A6F89E486C3050F8250000F06EFC5E
:10597000C820FBF79DF8FEF765FC4FF42F70FBF78E
:1059800097F8FFF70FFF4FF4FA70FBF791F86423D5
:105990004FF47A620FFA89F10420FEF75DFCFEF7FE
:1059A000F1FB4FF4FA70FBF783F800E017E0FFF724
:1059B000D5FE4FF46170FBF77BF8FFF783FE4FF4E1
:1059C000167000BFFBF774F87F1C032FFFF666AF5D
:1059D000FFF7E8FE4FF4FA70FBF76AF8FAE00D689B
:1059E000FFF770FEFFF7DEFE4FF47A70FBF760F80A
:1059F000FEF778FB4FF416794846FBF759F8FEF7A7
:105A0000EDFB4FF44870FBF753F8FFF7B3FE4FF48C
:105A1000FA70FBF74DF8FEF715FC4FF4FA70FBF740
:105A200047F8FFF7BFFE4846FBF742F864234FF400
:105A30007A6229B20420FEF70FFCFEF7A3FB4FF4B5
:105A4000FA70FBF735F8FFF789FE4FF46170FBF74A
:105A50002FF8FFF737FE4846B4E70027032C01D0A4
:105A6000042C00D10327DFF878B1002582460BF122
:105A70006C0BDAF80000D14601281CD0E9195BF85C
:105A800021000299FEF728FFE81980465BF82010F4
:105A9000C9F860100121CA46C9F85C10DFF83C91D2
:105AA00000213223C9F800100B2250A15248FCF704
:105AB000B8FBD14617E005EB070158465BF821001B
:105AC000029916B1FEF750FEDEE7FEF79DFDDBE71B
:105AD00044480122016844480068FEF75DF9D9F89E
