:020000040800F2
:10000000A80C0020A10100082F2600089D2200084E
:100010002D260008E1080008E13900080000000072
:100020000000000000000000000000003127000870
:10003000E30800080000000031260008332700080C
:10004000BB010008BB010008BB010008BB010008A0
:10005000BB010008BB010008BB010008BB01000890
:10006000BB010008BB010008BB010008BB01000880
:10007000BB010008BB010008BB010008BB01000870
:10008000BB010008BB010008BB010008BB01000860
:10009000BB010008BB010008BB010008BB01000850
:1000A000BB010008BB010008BB010008BB01000840
:1000B000DD270008E9270008F5270008BB01000834
:1000C000BB010008BB010008BB010008BB01000820
:1000D000BB010008293900083539000841390008FA
:1000E000BB010008BB010008BB010008BB01000800
:1000F000BB010008BB010008BB010008BB010008F0
:10010000BB010008BB010008BB010008BB010008DF
:10011000E52A0008F12A0008BB010008BB0100081D
:10012000BB010008BB010008BB010008BB010008BF
:10013000BB010008BB010008BB010008BB010008AF
:10014000BB010008BB010008BB010008BB0100089F
:10015000BB010008BB010008BB010008BB0100088F
:10016000BB010008BB010008BB010008BB0100087F
:10017000BB010008BB010008BB0100080000000033
:10018000BB010008BB010008DFF810D000F04CFBF9
:1001900000480047A1440008AFF30080A80C0020ED
:1001A0000648804706480047FEE7FEE7FEE7FEE711
:1001B000FEE7FEE7FEE7FEE7FEE7FEE7CD270008E5
:1001C000890100082DE9F05F0546002092469B4614
:1001D00088460646814640241BE02846414647465D
:1001E000224600F06BFA53465A46C01A914110D38A
:1001F00011461846224600F052FA2D1A67EB010804
:100200004F4622460120002100F049FA17EB000971
:100210004E41201EA4F10104DFDC484631462A4647
:100220004346BDE8F09FD2B201E000F8012B491E21
:10023000FBD270470022F6E710B513460A46044683
:100240001946FFF7F0FF204610BD421C10F8011BB5
:100250000029FBD1801A70472DE9FE4F804681EAC4
:100260000300C00F0C46009021F0004123F0004530
:10027000B8EB0200A94105D24046214690461C46F3
:100280000B46024623F00040104347D0270DC7F32A
:100290000A00C3F30A510290401A019040286BDA19
:1002A000C3F3130040F4801B0098924620B1002352
:1002B000D2EB030A63EB0B0B01985946C0F14002E5
:1002C000504600F0ECF906460D4650465946019A54
:1002D00000F004FA10EB08006141002487EA115293
:1002E00084EAE7731A4340D0009A62B3019A012A64
:1002F0004FEA075215DC001B61EB02014FF0004290
:1003000002EA0752CDE90042001C41F58011324655
:100310002B4600F03BFA03B0BDE8F08F4046214683
:10032000F9E7001B61EB0201001C41F58013001886
:100330005B412018A2F5001747EB030140EAD57096
:10034000B6196D4111E06D084FEA360645EAC075F1
:100350004FEA0752001B61EB0201001C41F58011BE
:1003600049084FEA30000019514132462B4603B08C
:10037000BDE8F04F00F0FBB90098012240000023D7
:10038000D0EB020263EBE073009821464FEAE07481
:10039000B8EB000061EB0401E9E783F000435BE7A1
:1003A00081F0004158E72DE9FE4F81EA030404F093
:1003B000004421F0004100944FF0000B23F0004373
:1003C00050EA01045ED052EA03045BD0C3F30A543E
:1003D000C1F30A552C44A4F2F3340194A0FB025457
:1003E000C1F3130141F48011C3F3130343F48013E9
:1003F00001FB024400FB034E840A970A44EA81543D
:1004000047EA8357A4FB076802958D0A05FB078519
:100410004FEA932C04FB0C542705029D4FEA065823
:1004200047EA1637B5EB08056EEB070C870E920E00
:1004300047EA811742EA8312A7FB0201B6EB0B01E0
:1004400064EB00042B0D43EA0C335E1844EB1C50A4
:10045000DA465146E7FB0201C5F313044FEA0B33BA
:1004600043EA14534FEA0432019C43EA0603A4F121
:100470000C040294009CCDE900B400F087F903B0AD
:10048000BDE8F08F00200146F9E72DE9F04D81EA43
:10049000030404F0004B21F0004514464FF0000A1D
:1004A00023F0004150EA050220D054EA01021DD099
:1004B000C5F30A570246C5F31303C1F31300C1F392
:1004C0000A5640F4801543F48013A7EB0608101B6E
:1004D000D64608F2FD3873EB050002D308F1010897
:1004E00001E092185B41B8F1000F03DA00200146E9
:1004F000BDE8F08D00204FF48011064684460EE0E2
:10050000171B73EB050705D3121B63EB05030643AB
:100510004CEA010C49084FEA300092185B4150EA5E
:100520000107EDD152EA030012D082EA040083EA07
:100530000501084305D0101BAB4106D20122002360
:1005400006E000224FF0004302E06FF0010253107A
:100550001AEB06004CEB085110EB0A0041EB0B01C3
:10056000BDE8F04D00F003B90EB5C10F80EAE070B0
:100570000844CA07002140F233438DE80E000A46C2
:100580000B4600F003F903B000BD0EB540F2334155
:1005900002910021CDE900110A460B4600F0F6F861
:1005A00003B000BD70B5C1F30A5201F0004500244C
:1005B000C1F3130140F2FF3341F480119A4201DA92
:1005C000002070BD40F233439A42A2F2334203DC72
:1005D000524200F073F800E090402C43F1D04042CA
:1005E00070BDC1F30A5210B5C1F3130140F2FF33DD
:1005F00041F480119A4201DA002010BD40F23343E9
:100600009A42A2F2334203DC524200F057F810BD86
:10061000904010BD00F0004230F000400AD0C10D03
:1006200001F56071C0F3160042EA0151C2084007AB
:100630001143704700200146704701F0004330B479
:1006400021F0004150EA010206D00A0DA2F56072C5
:10065000C1F31301002A02DC30BC00207047440FB4
:1006600044EAC104C100E01830BC00EBC25000F005
:1006700047B830B50B46014600202022012409E08E
:1006800021FA02F59D4205D303FA02F5491B04FA4B
:1006900002F52844151EA2F10102F1DC30BD202A2A
:1006A00004DB203A00FA02F1002070479140C2F1C9
:1006B000200320FA03F3194390407047202A04DBFB
:1006C000203A21FA02F00021704721FA02F3D040CB
:1006D000C2F120029140084319467047202A06DBE8
:1006E000CB17203A41FA02F043EAE07306E041FA00
:1006F00002F3D040C2F120029140084319467047EE
:100700000029A8BF7047401C490008BF20F0010025
:10071000704710B4B0FA80FC00FA0CF050EA010403
:1007200004BF10BC704749B1CCF1200421FA04F495
:1007300011FA0CF118BF012121430843A3EB0C016E
:10074000CB1D4FEA00614FEA102042BF002010BCD1
:10075000704700EBC35010440029A4BF10BC704781
:10076000401C490008BF20F0010010BC704710B5C4
:10077000141E73F1000408DA401C41F100019218C4
:100780005B411A4301D120F0010010BD2DE9F04D6D
:1007900092469B4611B1B1FA81F202E0B0FA80F2C2
:1007A00020329046FFF77BFF04460F4640EA0A00DE
:1007B00041EA0B0153465A46084313D0114653EA07
:1007C000010019D0C8F140025046FFF777FF0546F7
:1007D0000E46504659464246FFF761FF084305D092
:1007E000012004E020463946BDE8F08D0020054395
:1007F00046EAE0762C4337430A986305E40AA0EB07
:1008000008000022FD0A44EA47540A3002D50020BD
:100810000146E9E7010510196941DDE908450019BC
:100820006941BDE8F04DA2E7064C074D06E0E068DF
:1008300040F0010394E8070098471034AC42F6D327
:10084000FFF7A6FCB45F0008D45F000830B58C1831
:1008500010F8012B12F00F0301D110F8013B12091F
:1008600006D110F8012B03E010F8015B01F8015BE1
:100870005B1EF9D101E001F8013B521EFBD1A14200
:10088000E6D3002030BD000038B50546134C0020EB
:10089000FE2DA07020D02078F0B103F011FB0028CD
:1008A00018D00421684604F009FE042811D19DF8EF
:1008B0000000A8420DD19DF80110022909D19DF830
:1008C0000210801C0844C0439DF80320C0B282423D
:1008D00001D0002038BDA170012038BDF0000020FB
:1008E000FEE770472DE9FF410027DDE90A46009742
:1008F0008DF80000FD208DF801008DF802100197A1
:10090000100A8DF803008DF804208DF80530200EB4
:100910008DF80600200C0C9D8DF807000297200A28
:100920008DF8080003978DF809406B208DF80A6058
:100930008DF80C008DF80B500D21684605F05AFA21
:10094000BDE8FF811FB5002200928DF80000FE2057
:100950008DF8010098208DF8020001926B208DF82F
:1009600003108DF80400029203920521684605F0F9
:1009700041FA1FBD1FB5002100918DF80000FF2036
:100980008DF8010066208DF802006B200191029124
:1009900003918DF803000421684605F02BFA1FBD72
:1009A0007FB5002500958DF80000F6208DF8010038
:1009B00001958DF80210089C100A8DF804208DF81E
:1009C00003008DF805308DF806406B208DF8070088
:1009D000029503950821684605F00CFA7FBD72B6B2
:1009E000FEE72DE9F0410446876D00F06DF90646FB
:1009F00094F835000025022806D08020606584F830
:100A000034500120BDE8F0812068016821F0160112
:100A100001602068416921F080014161206C08B9C2
:100A2000A06C20B12068016821F0080101602068F5
:100A3000016821F0010101600CE000F045F9801B24
:100A4000052807D920206065032084F8350084F844
:100A50003450D7E720680068C007EED194F85C10E6
:100A60003F208840B860012084F8350084F8345075
:100A70000020C7E790F83510022903D08021416596
:100A800001207047052180F835100068016821F0C9
:100A9000010101600020704770B5044600F014F9B0
:100AA0000546601C02D004480078044400F00CF9AC
:100AB000401BA042FAD370BDE00000202DE9F84FA2
:100AC000DFF8BCA10022012503264FF00F090AF12F
:100AD000040BAAF1040E00BF0B6805FA02F42340D0
:100AE000A34270D10F7907F00307012F01D0022F25
:100AF00016D187684FEA420806FA08FC27EA0C0775
:100B0000D1F80CC00CFA08FC4CEA070CC0F808C07D
:100B10004768A7430C79C4F3001494403C434460F5
:100B20000C79E443A4070AD0C4684FEA420C06FAE1
:100B30000CF7BC438F6807FA0CF72743C7600C79A2
:100B400004F00304022C12D1D40800EB840CDCF86E
:100B500020405707FF0E09FA07F824EA0804D1F8E5
:100B6000108008FA07F848EA0408CCF820800468E6
:100B70004FEA420C06FA0CF7BC430F7907F0030763
:100B800007FA0CF7274307604C6814F4403F70D015
:100B90003C4C276847F480472760246822F003070D
:100BA00004F480440094384C07EB040CDCF808484B
:100BB00097074FEA177809FA08F7BC43334FB84252
:100BC00002D1002724E054E0314FB84201D101277F
:100BD0001EE0304FB84201D1022719E02E4FB84233
:100BE00001D1032714E02D4FB84201D104270FE0B3
:100BF0002B4FB84201D105270AE02A4FB84201D154
:100C0000062705E0284FB84201D1072700E0082752
:100C100007FA08F72743CCF80878DAF80040574677
:100C2000D1F804C09C435FEACC2C00D51C433C6047
:100C3000DBF800405F46D1F804C09C435FEA8C2C8F
:100C400000D51C433C60DEF800407746D1F804C074
:100C50009C435FEA8C3C00D51C433C60084F083F36
:100C60003C68D1F804C09C435FEACC3C00D51C43EF
:100C70003C60521C102AFFF42FAFBDE8F88F000033
:100C8000083C01404438024000300140000002406E
:100C90000004024000080240000C02400010024024
:100CA0000014024000180240001C0240426921EA80
:100CB00002030A4043EA0241816170470AB181613F
:100CC00070470904FBE70000014880687047000096
:100CD000E00000200248816802781144816070477A
:100CE000E00000200B4810B5016841F4007101607C
:100CF000016841F480610160016841F48071016024
:100D0000032000F06FF80F2000F006F800F024F840
:100D1000002010BD003C024070B50D4D04464FF45C
:100D20007A712878B1FBF0F00A490968B1FBF0F05C
:100D300000F00AFB48B9102C07D200222146501EB1
:100D400000F030F800206C6070BD012070BD000024
:100D5000E0000020EC0000200A4808B5016841F4DA
:100D600080410160006800F4804000900548001F49
:100D7000016841F080510160006800F080500090EF
:100D800008BD000044380240002809DB00F01F02C3
:100D9000012191404009800000F1E020C0F80011DD
:100DA00070470000F0B40E4B1B680C46C3F30223DF
:100DB000C3F10705042D00D90425191D072901D207
:100DC000002300E0DB1E012606FA05F1491E214042
:100DD00099409E40761E16403143F0BC02F048BE5A
:100DE0000CED00E0064900F0070208684FF6FF032B
:100DF000184040EA0220034A104308607047000090
:100E00000CED00E00000FA052DE9F0470E46050064
:100E100065D0DFF81481D8F80000F7B200F00700C1
:100E2000B04207D288F80070D8F8000000F0070040
:100E3000B04254D128683D4C810712D5400703D5F4
:100E4000206840F4E05020602878000703D520682F
:100E500040F4604020602068A96820F0F00008435A
:100E600020602878C0072DD03049686808390128EB
:100E700012D0022813D0032811D00968890700294D
:100E80002DDA216821F0030101432160FFF71CFFE7
:100E9000814641F2883A0EE009688903EFE7096864
:100EA0008901ECE7FFF710FFA0EB0901514502D9DA
:100EB0000320BDE8F0872068696800F00C00B0EB03
:100EC000810FEFD1D8F80010404601F00701B14280
:100ED00007D90770006800F00700B04201D0012078
:100EE000E7E72878400705D52068E96820F4E05056
:100EF000084320602878000706D52068296920F477
:100F0000604040EAC100206000F038F82168084ADB
:100F1000C1F30311515CC8400649086006480068E7
:100F2000FFF7FAFE0020C4E7003C02400838024008
:100F3000945F0008EC000020E4000020044805490C
:100F400000680968044AC1F38221515CC8407047B7
:100F5000EC00002008380240A45F0008044805495E
:100F600000680968044AC1F34231515CC8407047C7
:100F7000EC00002008380240A45F0008154810B5B6
:100F8000006810F00C02144813D04110042A0FD04E
:100F9000082A0ED10F4C241F2268236802F03F025A
:100FA0005B0207D52068C0F38810A0FB010106E0B2
:100FB000084610BD2168C1F38811A1FB0001002380
:100FC000FFF700F92168C1F30141491C4900B0FB5A
:100FD000F1F010BD083802400024F4002DE9F84F6C
:100FE00004006ED02078DFF84C93C007A9F1040507
:100FF0004AD009F104000168C1F38101012908D038
:101000000068C0F3810002280AD1D9F8000040022C
:1010100006D52868800337D560680028E1D033E022
:101020006068B0F5803F10D0B0F5A02F286810D0D0
:1010300020F480302860286820F4802028606068D0
:10104000A8B1FFF741FE06460DE0286840F4803065
:10105000F4E740F480202860F7E700BFFFF734FE94
:10106000801B642873D828688003F7D50CE0FFF74D
:101070002BFE064605E000BFFFF726FE801B642816
:10108000F0D828688003F7D42078DFF8AC82800796
:101090004FF0000A3ED5A748001D016811F00C0F63
:1010A00008D00068C0F3810002280BD1D9F80000F5
:1010B000400207D42868800716D5E068012800D1CF
:1010C00012E033E1E068B8B10120C8F80000FFF792
:1010D000FBFD064605E000BFFFF7F6FD801B02287A
:1010E000C0D828688007F7D52868216920F0F80063
:1010F00040EAC10028600DE0C8F800A0FFF7E4FD59
:10110000064604E0FFF7E0FD801B02281FD8286890
:101110008007F7D42078000722D5864F8748616979
:10112000703771B101210160FFF7CEFD064604E082
:10113000FFF7CAFD801B022809D838688007F7D559
:101140000EE0C0F800A0FFF7BFFD064605E082E014
:10115000FFF7BAFD801B02287DD838688007F7D4D6
:101160002078400768D5DFF8CCB100270BF13C0BA5
:10117000DBF80000C0000BD4DBF8001041F0805118
:10118000CBF80010DBF80000012700F08050009041
:101190006B4E3068C00510D4306840F48070306009
:1011A000FFF792FD009005E0FFF78EFD0099401AD1
:1011B000022850D83068C005F6D55E4EA0686C365F
:1011C00001280FD00528306810D020F001003060D1
:1011D000306820F004003060A068B8B1FFF774FDFB
:1011E00000900FE0306840F00100F4E740F00400A8
:1011F0003060F7E7FFF768FD0099411A41F2883047
:10120000814266D830688007F4D50EE0FFF75CFDB8
:10121000009007E0FFF758FD0099411A41F288302D
:10122000814256D830688007F4D42FB1DBF8001023
:1012300021F08051CBF80010A069C8B33D49091DC9
:101240000968C1F3810102294AD00228504607D01B
:10125000C8F8600000E03CE0FFF736FD04463BE0E4
:101260004746C8F86000FFF72FFD064605E000BFBF
:10127000FFF72AFD801B02282BD828688001F7D4AD
:10128000D4E907010843A16A2E4A490802EB01414B
:10129000626A41EA8211084394F82C1040EA016125
:1012A000C9F8001001203866FFF70EFD044606E07D
:1012B0003EE000BFFFF708FD001B022809D82868A0
:1012C0008001F7D534E000BFFFF7FEFC001B0228C9
:1012D00002D90320BDE8F88F28688001F4D427E004
:1012E0000128F7D0D9F80000E26900F480019142AA
:1012F0001CD1226A00F03F01914217D147F6C0711C
:10130000626A0140B1EB821F10D1A26A4FF0FF3335
:1013100000F4403103EB5202B1EB024F06D194F8D6
:101320002C1000F07060B0EB016F01D00120D1E70C
:101330000020CFE70438024000004742800E4742B9
:10134000007000400000FFFF10B5401EB0F1807F2C
:1013500001D3012010BD4FF0E02460610F21601720
:1013600002F086FB0020A06107202061002010BD54
:101370007047704770B590F83C20012A32D00124A4
:1013800080F83C40022280F83D2003685A689D683E
:1013900022F070060A6832435A60134B02689A4280
:1013A00014D0B2F1804F11D0104B9A420ED0104B96
:1013B0009A420BD00F4B9A4208D00F4B9A4205D05D
:1013C0000E4B9A4202D00E4B9A4204D1496825F046
:1013D00080031943916080F83D40002180F83C1063
:1013E000084670BD022070BD0000014000040040AE
:1013F00000080040000C0040000401400040014093
:101400000018004010B5040003D094F83D0010B15E
:1014100007E0012010BD002084F83C00204600F0C9
:101420001FF8022084F83D00211D206801F0E8F932
:10143000012084F8460084F83E0084F83F0084F8D8
:10144000400084F8410084F8420084F8430084F8A6
:10145000440084F8450084F83D00002010BD0000E1
:1014600008B501681D48B1F1804F11D01C4A914266
:101470001DD1016841F0020101600068002200F006
:101480000200009011461D20FFF78CFC1D201FE07C
:10149000016841F0010101600068002200F00100D4
:1014A000009011461C20FFF77DFC1C2010E00D4A27
:1014B000914211D1016841F00401016000680022ED
:1014C00000F00400009011461E20FFF76BFC1E2068
:1014D000BDE80840FFF758BC08BD00004038024096
:1014E000000400400008004090F83D10012901D0A0
:1014F00001207047022180F83D100168CA6842F05F
:101500000102CA6000681149884214D0B0F1804FCE
:1015100011D00F4988420ED00E4988420BD00E4997
:10152000884208D00D49884205D00D49884202D032
:101530000C49884204D1816801F00701062903D0D3
:10154000016841F001010160002070470000014086
:101550000004004000080040000C0040000401406E
:10156000004001400018004070B5044690F83C006F
:101570000025012817D0012684F83C60022084F859
:101580003D002068826822F0770222F47F42826068
:101590000868502838D00DDC20284FD005DC90B3E7
:1015A000102811D14AE0022070BD302846D04028D2
:1015B0000AD13BE060282FD070280DD0B0F5805FB5
:1015C00003D0B0F5005F12D0012584F83D60002003
:1015D00084F83C00284670BDCB68D1E90121206821
:1015E00001F087F92068816841F0770109E0CB6854
:1015F000D1E90121206801F07CF92068816841F47B
:1016000080418160E1E719E0CA684968206801F01B
:1016100045FA5021206806E0CA684968206801F050
:101620004EFA6021206801F06EF9CEE7CA68496879
:10163000206801F033FA40212068F4E7226801466F
:101640001046F0E770472DE9F04104460068C6688F
:1016500005694FF00007A90713D5B10711D5F91E89
:10166000016101202077206880698007204602D030
:10167000FFF7E8FF04E000F0A9F8204600F03BF98E
:101680002777680716D5700714D521686FF0040016
:101690000861022020772068806910F4407F20468E
:1016A00002D0FFF7CFFF04E000F090F8204600F0F2
:1016B00022F92777280715D5300713D521686FF051
:1016C00008000861042020772068C0698007204650
:1016D00002D0FFF7B7FF04E000F078F8204600F0F2
:1016E0000AF92777E80616D5F00614D521686FF0B9
:1016F00010000861082020772068C06910F4407F3E
:10170000204602D0FFF79EFF04E000F05FF820467D
:1017100000F0F1F82777E80708D0F00706D0216835
:101720006FF001000861204600F04AF9280608D54C
:10173000300606D521686FF0800008612046FFF76B
:1017400017FE680608D5700606D521686FF04000C0
:101750000861204600F02AFAA8060AD5B00608D586
:1017600021686FF0200008612046BDE8F041FFF7D6
:1017700000BEBDE8F081000010B586B0044614211B
:101780006846FEF757FD0E492068884215D10D487E
:101790000021026842F008020260006800F00800C0
:1017A00005904FF4704000900220CDE90101CDE991
:1017B000031069460448FFF781F906B010BD000028
:1017C0000008004030380240000C0240704770B5FD
:1017D000044690F83C0000260D4601280FD0012059
:1017E00084F83C006AB1042A1DD0082A2FD00C2AA4
:1017F0003FD00126002084F83C00304670BD022016
:1018000070BD206801F088F82068816941F0080106
:1018100081612068816921F004018161206881690A
:101820002A69114311E0206801F0A6F82068816957
:1018300041F4006181612068816921F480618161E6
:10184000206881692A6941EA02218161D2E7206822
:1018500001F0C8F82068C16941F00801C161206841
:10186000C16921F00401C1612068C1692A6911437D
:1018700011E0206801F0EAF82068C16941F40061D4
:10188000C1612068C16921F48061C1612068C169BA
:101890002A6941EA0221C161ACE710B5040003D016
:1018A00094F83D0010B107E0012010BD002084F83D
:1018B0003C00204600F01EF8022084F83D00211D67
:1018C000206800F09DFF012084F8460084F83E0067
:1018D00084F83F0084F8400084F8410084F8420016
:1018E00084F8430084F8440084F8450084F83D00FF
:1018F000002010BD7047704710B50446022249B160
:1019000004290ED0082913D094F84100012816D0DC
:10191000012010BD94F83E000128F9D184F83E2042
:101920000FE094F83F000128F2D184F83F2008E04E
:1019300094F840000128EBD184F8402001E084F8BD
:1019400041200122206800F0C7FF16492068164A8E
:10195000884201D0904203D1436C43F40043436476
:101960002068884213D0B0F1804F10D00F498842D0
:101970000DD00F4988420AD00E49884207D09042C4
:1019800005D00D49884202D00C49884204D18168B3
:1019900001F00701062903D0016841F0010101604F
:1019A000002010BD00000140000401400004004080
:1019B00000080040000C00400040014000180040BA
:1019C0002DE9F04706460068DFF8BC9100256F4C12
:1019D000B0F1804F12D16068401C6060A068401C6C
:1019E000A0606B480168012902D1056001F0F0F99F
:1019F00001F0F0F96168494500DD656065493068CE
:101A000088427CD12068DFF894A1401C20606248A5
:101A10000068012853D1E0684FF0010801283DD14A
:101A2000A06901282BD1206A062801DA401C206217
:101A30005B4E012805D1012196ED000A002003F03C
:101A4000DBFF206A022805D1022196ED000A002062
:101A500003F0D2FF206A032805D1032196ED000A86
:101A6000002003F0C9FF206A042805D1042196ED67
:101A7000000A002003F0C0FF206A052803D0E069B7
:101A8000012808D00AE0052196ED000A002003F0A5
:101A9000B3FFC4F81C80A561E561256220690128B7
:101AA00065D16069012862D1A069012808D00022AF
:101AB00020215046FFF702F9E069012852D056E094
:101AC000012220215046FFF7F9F8A06A08B9C4F8AE
:101AD0002880206A062840DA401C324E324F2062AD
:101AE000012808D194F82C000121D6ED000A97EDC9
:101AF000000A03F057FB206A02280AD100E040E008
:101B000094F82C000221D6ED000A97ED000A03F0AC
:101B100049FB206A032808D194F82C000321D6ED54
:101B2000000A97ED000A03F03DFB206A042808D163
:101B300094F82C000421D6ED000A97ED000A03F07A
:101B400031FB206A052808D194F82C000521D6ED38
:101B5000000A97ED000A03F025FB206A0628ABD1A6
:101B6000C4F81C806562A561A562E56125622168F3
:101B7000494506DD50462560BDE8F0472021FFF7C6
:101B800095B8BDE8F0870000A0860100D4010020D0
:101B900034000020000400404C00002000080240F7
:101BA000500100204C01002048010020704718B56A
:101BB000034690F84200202801D0022018BD61B1F0
:101BC0005AB10120186300205863184601F0ACF8A0
:101BD0000028F3D1196B012901D0012018BD196823
:101BE0000A684968009119680C3151E8002F42F0E9
:101BF000100241E80024002CF5D118BD70B5134A3D
:101C000001680125124C914205D128221149FFF7A4
:101C1000CEFF656370BD104A9142FBD128220F4967
:101C2000FFF7C5FF0D49C8782B2809D10C4A0020C1
:101C30000B5C1354401C0728FADB206B00B92563AA
:101C4000BDE8704032210548FEF7F4BA0048004074
:101C500000000020BE050020004C0040700600205F
:101C60004002002070470000F8B50168044608688B
:101C7000CA684B6910F00F0F4FF0000559D003F000
:101C8000010602F49077374365D0C10705D0D1052E
:101C900003D5616C41F001016164410705D5D907A5
:101CA00003D0616C41F002016164810705D5D90759
:101CB00003D0616C41F004016164010707D502F0B3
:101CC0002001314303D0616C41F008016164616C13
:101CD00000293AD0800604D5900602D5204600F0AF
:101CE0003CFF20684069616CC0F38010090700D494
:101CF00060B3204600F00AFF20684069400621D505
:101D00002068143050E8001F21F0400140E8001224
:101D1000002AF5D1E06BA8B16E490165E06BFEF7D2
:101D2000A9FE002811D0E06B016D01B0BDE8F040C4
:101D3000084783060FD593060DD52046BDE8F84029
:101D400000F00BBF2046FFF78DFFF8BD2046FFF7E0
:101D500089FF6564F8BD266B2023012E7DD1C60660
:101D60007BD5D60679D508684868009048694FF059
:101D70000206400641D5E16B086840680004000C8B
:101D8000E8D0A28D8242E5D9E085C869B0F5807FB0
:101D90002DD020680C3050E8001F21F4807140E8FD
:101DA0000012002AF5D12068143050E8001F21F0FD
:101DB000010140E80012002AF5D12068143050E8F3
:101DC000001F21F0400140E80012002AF5D184F8FC
:101DD0004230256320680C3050E8001F21F01001CC
:101DE00040E80012002AF5D1E06BFEF7FAFD6663C9
:101DF000A08DE18D401A81B22AE0A08DE18D401ABC
:101E000081B2E08D0028A5D00029A3D022680C3231
:101E100052E8000F20F4907042E80007002FF5D13F
:101E20002068143050E8002F22F0010240E800271B
:101E3000002FF5D184F84230256320680C3050E83B
:101E4000002F22F0100240E80023002BF5D166633A
:101E50002046FFF7D3FEF8BDFFE705062BD5150694
:101E600029D594F841002128F5D1A068B0F5805F0C
:101E700001D12069B0B1206A411C2162216800783B
:101E80004860E08C401E0004000CE084E3D1206830
:101E9000C16821F08001C1602068C16841F0400143
:101EA000C160D8E7206A0088C0F308004860206A53
:101EB000801C2062E5E74006CDD55006CBD5CA6828
:101EC000204622F04002CA6084F8413000F0E5F973
:101ED000C1E70000FD2A000870B5040004D094F8A2
:101EE0004100002510B106E0012070BD84F840508B
:101EF000204600F023F8242084F841002068C168BF
:101F000021F40051C160204600F088FE206801697C
:101F100021F4904101612068416921F02A01416169
:101F20002068C16841F40051C1606564202084F8D4
:101F3000410084F842006563002070BD2DE9F04146
:101F400086B0044614216846FEF774F96E49DFF83E
:101F5000B4C1236800246C4A1039032502260827DF
:101F60006A4863451ED1136843F400231360126866
:101F700002F4002205920A6842F001020A60096830
:101F8000CDE9005601F00101CDE904716946CDE9C2
:101F90000245FEF793FD002211463420FEF702FFB2
:101FA000342038E0DFF868C1DFF86881634537D155
:101FB000106840F480101060106800F480100590E4
:101FC000086840F004000860086800F0040005900C
:101FD000086840F008000860086802AB00F00800DC
:101FE00005904FF48050CDE9000683E8B0006946C3
:101FF0004948FEF763FD0420CDE9000602AB6946BF
:1020000083E8B0004046FEF759FD00221146352016
:10201000FEF7C8FE3520FEF7B7FE06B0BDE8F0813A
:10202000DFF8F8C00727634522D1374A121D13682D
:1020300043F010031360126802F0100205920A6860
:1020400042F001020A60096802AA01F0010105914B
:102050004FF4C061CDE9001682E8B0006946FEF792
:102060002DFD002211462520FEF79CFE2520D2E7FB
:102070002B48834220D1106840F400301060106873
:1020800000F400300590086840F008000860086817
:1020900002AB00F0080005906020CDE9000683E85F
:1020A000B00069464046FEF709FD00221146262091
:1020B000FEF778FE2620AEE71A488342ADD11068BD
:1020C00040F480201060106800F4802005900868BB
:1020D00040F002000860086802AB00F002000590C2
:1020E0004FF44060CDE9000683E8B00069460E4831
:1020F000FEF7E4FC002211462720FEF753FE2720BE
:1021000089E70000004C00404038024000000240D7
:1021100000500040000C0240000802400010014046
:102120000044004000480040000402402DE9F84F00
:10213000044690F842009A4616460D46202802D0E2
:102140000220BDE8F88FB5B1AEB100206064222155
:1021500084F842102063FEF7B7FDA6858146E68528
:10216000A0684FF480582027404501D1206920B154
:102170002E46002529E00120E3E7002625E04B4616
:10218000002220212046CDF800A000F0E8FD18B183
:1021900084F842700320D4E726B1A06840451AD0E5
:1021A00038B108E020684068C0F3080025F8020B49
:1021B00008E0206978B12068406800F07F0000BF27
:1021C00006F8010BE08D401EE085E08D0028D6D199
:1021D00084F84270B5E720684068F1E790F8423033
:1021E000202B01D00220704721B11AB100230363D4
:1021F00000F09ABD0120704770472DE9F84304466E
:1022000090F84100984616460D46202802D002203C
:10221000BDE8F88385B17EB100206064212084F898
:102220004100FEF751FDA6848146E684A068202780
:10223000B0F5805F02D003E00120E9E7206910B12A
:102240002E4600250EE000260CE08021204600F0FE
:1022500086FDA8B9C6B116F8010B21684860E08C6C
:10226000401EE084E08C4B464FF00002CDF8008029
:102270000028EAD14FF04001204600F070FD40B147
:1022800084F841700320C3E735F8020BC0F308005F
:10229000E3E784F841700020BAE77047FEE70000EA
:1022A000064B10B55C78C2F30723D2B214B10370A9
:1022B0000A7010BD0B70027010BD0000F00000200D
:1022C000F0B587B014216846FDF7B4FF2548002516
:1022D000016841F080010160016801F08001059111
:1022E000016841F001010160016801F001010591FF
:1022F000016841F004010160016801F004010591E9
:10230000016841F002010160016801F002010591DC
:10231000016841F0080101600068134E00F00800F8
:102320000590002220213046FEF7C8FC0F4F002206
:1023300004213846FEF7C2FC01242020CDE9000428
:1023400069463046CDE90245FEF7B8FB0420CDE9E9
:10235000000469463846CDE90245FEF7AFFB07B0F9
:10236000F0BD000030380240000802400004024086
:1023700010B586B000241848009401940294039488
:1023800004944FF080410594016040F28F61C0E9F0
:1023900001144FF47A71C0E9031480218161FFF7C1
:1023A00031F808B1FEF71BFB4FF4805000906946EE
:1023B0000948FFF7D9F808B1FEF711FB2020CDE955
:1023C000040404A90448FEF7D5FF002801D0FEF755
:1023D00006FB06B010BD00007402002010B586B0E8
:1023E000002418480094019402940394049414491E
:1023F0000594016040F28F61C0E901144FF47A71D5
:10240000C0E9031480218161FEF7FCFF08B1FEF7EB
:10241000E6FA4FF48050009069460A48FFF7A4F8A6
:1024200008B1FEF7DCFA2020CDE9040404A9054830
:10243000FEF7A0FF002801D0FEF7D1FA06B010BDCC
:1024400000040040BC02002010B58EB000240794A8
:10245000089409940A940B941C2168460C94FDF787
:10246000E9FE2B482949016040F28F61C0E901145F
:1024700040F2E731C0E903148461FEF7C3FF08B1FD
:10248000FEF7ADFA4FF48050079007A92048FFF7F8
:102490006BF808B1FEF7A3FA1D48FFF7FEF908B183
:1024A000FEF79DFA0B940BA919480C94FEF762FFF6
:1024B00008B1FEF794FA6020CDE9000402940022EE
:1024C000694613480494FFF782F908B1FEF787FACA
:1024D000042269460E48FFF77AF908B1FEF77FFA41
:1024E000082269460A48FFF772F908B1FEF777FA41
:1024F0000C2269460648FFF76AF908B1FEF76FFA41
:102500000348FFF739F90EB010BD00000008004085
:10251000040300200C4810B50A4901604FF4E13172
:102520004160002181600C22C160C0E90412816118
:10253000C161FFF7D1FC002803D0BDE81040FEF7D1
:102540004EBA10BD004C00404C0300200C4810B5A2
:102550000A4901604FF416514160002181600C224C
:10256000C160C0E904128161C161FFF7B5FC0028B8
:1025700003D0BDE81040FEF732BA10BD0050004055
:10258000940300200C4810B50A4901604FF4E13172
:102590004160002181600C22C160C0E904128161A8
:1025A000C161FFF799FC002803D0BDE81040FEF799
:1025B00016BA10BD00100140DC0300200C4810B515
:1025C0000A4901604FF4E1314160002181600C2231
:1025D000C160C0E904128161C161FFF77DFC002880
:1025E00003D0BDE81040FEF7FAB910BD004400402A
:1025F000240400200C4810B50A4901604FF4E13171
:102600004160002181600C22C160C0E90412816137
:10261000C161FFF761FC002803D0BDE81040FEF760
:10262000DEB910BD004800406C040020FEE7FEE764
:10263000704700007FB582B015460C46064602F092
:102640003BFF02200090012305AA2146304603F0FB
:1026500009FC03F0E5FB01F033FC002832D01C4EEE
:1026600000200321B07001A802F028FF032828D120
:102670009DF81410284602F021FF9DF8141004461E
:1026800088421ED101210DF1070002F017FF012839
:1026900017D19DF804009DF805109DF80620084408
:1026A0001044C1B2002004E02B5C401C1944C9B2A4
:1026B000C0B2A042F8DBC8439DF80710C0B2814207
:1026C00002D0002006B070BDB2702046FAE70000CC
:1026D000F000002010B50E4C411C08D000212160F4
:1026E000C0B2382102F0F2FE411C0ED004E00948CD
:1026F0004178007840EA01202168002904D10104D2
:1027000002D520F40040404210BD0121216010BDDF
:102710000C0100203405002002460448407810B126
:1027200041EA0220704742EA01207047F000002091
:102730007047FEF7CFBA000030B593B0302168463D
:10274000FDF778FD14210CA8FDF774FD1D48002548
:10275000016841F080510160006800F080501190E4
:102760001948016841F4804101600068022400F4C6
:102770008040119001200090000401908001CDE97B
:10278000064008AA0420A82182E813000B9068469E
:10279000FEF724FC08B172B6FEE70CA90F2081E811
:1027A00031004FF4A0500F904FF48050109005214D
:1027B0000CA8FEF729FB002801D072B6FEE713B083
:1027C00030BD0000403802400070004002480168FF
:1027D00041F470010160704788ED00E00148FEF7A8
:1027E00032BF0000740200200148FEF72CBF000039
:1027F000BC0200200148FEF726BF000004030020B1
:10280000F0B50268294C2A4D2A4E2B4F2B4B4FF026
:10281000804CA04209D0604507D0A84205D0B04204
:1028200003D0B84201D0984204D122F0700E4A6819
:1028300042EA0E02A0421BD0604519D0A84217D030
:10284000B04215D0B84213D0984211D01C4DA842C6
:102850000ED01C4DA8420BD01B4DA84208D01B4DDA
:10286000A84205D01A4DA84202D01A4DA84203D161
:1028700022F44075CA682A434D6922F080022A4337
:1028800002608A68C2620A688262A04201D09842ED
:1028900001D109690163012141610169C90703D0BF
:1028A000016921F001010161F0BD0000000001405B
:1028B0000004004000080040000C004000040140FB
:1028C0000040014000440140004801400018004021
:1028D000001C00400020004010B501F01F03012142
:1028E000046A99408C430462016A9A401143016270
:1028F00010BD10B5846842EA032224F47F440A43E1
:102900002243826010BD826822F070020A4342F0C6
:102910000701816070470000F0B5036A026A22F087
:102920000102026242688469124E24F073050C6849
:102930002C4323F002058B682B430D4DA84201D098
:10294000B04205D123F00807CB683B4323F00403D2
:10295000A84201D0B04205D14D6922F4407215431E
:102960008A692A4342608461496841630362F0BD19
:102970000000014000040140F0B5026A036A23F040
:1029800010030362436884690D6824F4E64444EA52
:1029900005248D6822F0200242EA05120F4D104EE8
:1029A000A84201D0B04206D1CF6822F0800242EAAC
:1029B000071222F04002A84201D0B04207D14D696F
:1029C00023F4406343EA85038D6943EA850343604A
:1029D0008461496881630262F0BD0000000001402B
:1029E00000040140F0B5026A036A23F480730362B5
:1029F0004368C46922F4007224F073050C68124E17
:102A00002C438D6842EA05220E4DA84201D0B04207
:102A100006D1CF6822F4006242EA072222F48062E3
:102A2000A84201D0B04207D14D6923F4405343EA94
:102A300005138D6943EA05134360C4614968C163A6
:102A40000262F0BD000001400004014030B5046A9C
:102A5000026A22F4805202624268C3690D6823F45C
:102A6000E64343EA05238D6824F4005444EA053420
:102A7000084DA84202D0084DA84204D14D6922F465
:102A8000804242EA85124260C3614968016404627F
:102A900030BD0000000001400004014010B5036A91
:102AA000046A24F001040462846924F0F00444EA16
:102AB000021423F00A020A438461026210BD10B5B9
:102AC000036A046A24F010040462846923F0A003FA
:102AD00024F4704444EA023243EA01118261016243
:102AE00010BD00000148FFF7BFB800004C030020F4
:102AF0000148FFF7B9B800009403002010B5806BBF
:102B00000021C185C184FFF7ADF810BD01680C310B
:102B100051E8002F22F4907241E80023002BF5D1F8
:102B20000168143151E8002F22F0010241E800232E
:102B3000002BF5D1016B012909D101680C3151E855
:102B4000002F22F0100241E80023002BF5D12021B4
:102B500080F8421000210163704708B590F84210D8
:102B6000222901D0022008BD82684FF480539A4286
:102B700001D1016921B1816A9A421BD04AB10AE0B0
:102B80000268816A5268C2F308020A80816A891C5D
:102B900008E0026972B10268526802F07F020A70AE
:102BA000816A491C8162C18D491E0904090CC185D5
:102BB00003D01BE002685268F1E70168CA6822F09E
:102BC0002002CA600168CA6822F48072CA60016883
:102BD0004A6922F001024A61202180F84210002156
:102BE0004163026B012A03D0FFF706FB002008BDFA
:102BF000016301680C3151E8002F22F0100241E816
:102C00000023002BF5D101680A68D20602D50A68B4
:102C100049680091818DFEF7F1FFE7E770B5044642
:102C200000680169E26821F44051114301612169A2
:102C3000A068E26908436169114308432168CA68D2
:102C400049F20C639A430243CA6020684169A26951
:102C500021F440711143416131492068884202D01A
:102C60003049884202D1FEF779F901E0FEF766F9B2
:102C7000E2690023192164253226B2F5004F62680B
:102C800028D0A0FB0101930F9200FDF79BFA0146AB
:102C9000B0FBF5F06FF01802504301EB800006EB3B
:102CA0000010B0FBF5F000F0F002B1FBF5F002EB24
:102CB0000012B1FBF5F06FF01803584301EB8000F0
:102CC00006EB0010B0FBF5F000F00F002168104497
:102CD000886070BDA0FB010192185B41FDF772FA9C
:102CE0000146B0FBF5F00201B1FBF5F06FF01803FF
:102CF000584301EB800006EBC000B0FBF5F000F09C
:102D0000F80002EB4002B1FBF5F0584301EB800004
:102D100006EBC000B0FBF5F000F00700D6E70000BE
:102D2000001001400014014081628285C2850021AB
:102D30004164222180F84210016921B10168CA680A
:102D400042F48072CA6001684A6942F001024A6135
:102D50000068C16841F02001C160002070472DE982
:102D6000F843984617460D460446089E24E0701C1A
:102D700022D0FDF7A9FFA0EB0800B0421AD8CEB1CF
:102D80002068C168490717D5802D15D0402D13D074
:102D90000168C94309070FD4016800254068009005
:102DA0002046FFF7B3FE0820606484F840500120FD
:102DB000BDE8F8830320FBE72068006835EA0000DF
:102DC00004D00020B842D2D00020F1E70120F9E77A
:102DD00000F002B8704700002DE9F04FFE48FF49AF
:102DE0002DED0C8B83B002684878012A01D1FC4A92
:102DF0001060FC4A1368F94C0025012B247804D19B
:102E00003F2C02D1032800D11560F74B01221E6828
:102E100026B93F2C02D1772800D11A60DFF8CC8385
:102E2000DFF8CCE34FF0030BD8F80030012B02D0D1
:102E3000022B07D01AE03F2C18D1442816D1CEF827
:102E4000005013E0252C11D1EA4F0123CE5C012E56
:102E500003D0022E01D0032E03D107EB830C4CF8D4
:102E6000046C5B1C042BF1DBC8F800B0E24B1B6860
:102E7000012B05D13F2C03D1272801D1DF4B1A604C
:102E8000DF4B1E68022E04D13F2C02D1612800D1F5
:102E90001A60DC4B1E6826B93F2C02D1622800D193
:102EA0001A60D94FCD4BD7F800C09E790096B3F881
:102EB0000490DE78BCF1010F03D0BCF1020F28D0E2
:102EC0003AE0009B212B37D1C44BDFF840C3012CE3
:102ED000B3F8013002D0022C02D005E05BBA01E069
:102EE0005BBA5B42CCF80030C94B012E02D0022EF7
:102EF00003D008E099FA99FC03E099FA99FCCCF127
:102F0000000CC3F800C0102816D13F2C14D13D602E
:102F100012E0072804D0082806D009280AD00BE0C0
:102F20003F2C09D1BB4802E03F2C05D1BA480260D2
:102F30004D7001E03F2C07D0B84A01201060A7482F
:102F40004278882A02D006E0B548F0E73F2C02D14B
:102F5000B44901200860DFF8D0A2DAF80070022F2F
:102F600016DA9E4B2A2C13D1DFF8C0C20120195C5F
:102F7000012903D0022901D0032903D10CEB8008D9
:102F800048F8041C401C0728F1DB7F1CCAF80070BD
:102F9000A74B186801283ED10099904821293AD1C1
:102FA000A449A54F012C02D0022C04D016E0B0F8A1
:102FB000010040BA03E0B0F8010040BA40420860A6
:102FC0000868D7ED000A00EE100AB8EEC00A20EE3D
:102FD000200ABDEEC00A10EE100A08609748984912
:102FE000012E02D0022E03D014E099FA99F702E0E4
:102FF00099FA99F77F4207600768D1ED000A00EE61
:10300000107AB8EEC00A20EE200ABDEEC00A10EE1B
:10301000101A01601D608B480068012805D1032A41
:1030200003D13F2C01D188490860884800680128F5
:1030300014D16A488649072A04D0082A06D0092AEA
:103040000AD00BE03F2C09D1012202E03F2C05D130
:1030500002220A60457001E03F2C1BD064487D4B82
:103060007D4900687D4A0190D3ED00BA91ED00BA28
:10307000D2ED009AB8EE00DAB0EE009A9FED78AB90
:103080005649DFF8E481DFF8E4B191F802A00128A5
:1030900002D0FCE15A46DCE75048017A2129F8D1F8
:1030A0007549734A734BD1ED190A91ED180A012C39
:1030B00002D0022C3ED084E041786F4F01EE101A0E
:1030C000B8EE411A61EE2B1A01EE101AB8EE411A51
:1030D00031EE001A31EE201A4BEE011A01EE101AF1
:1030E000B8EE411A00EE0D1A31EE200A49EE801AB0
:1030F000BDEEE10A87ED1A0AF8EEC00A92ED001A59
:10310000F4EEC10AF1EE10FA08DCF8EEC00A93ED15
:10311000001AF4EEC10AF1EE10FA02D2B0EE410A42
:1031200001E0B8EEC00A88ED000A00EE101AB8EE11
:10313000400A42E04178504F01EE101AB8EE411AB1
:1031400030EE411A31EE201A61EE0B1A01EE101A20
:10315000B8EE411A4BEEC11A01EE101AB8EE411A40
:1031600010EE0D1A31EE200A49EE801ABDEEE10A8A
:1031700087ED1A0AD2ED000AB8EEC01AF1EE600A25
:10318000B4EEE01AF1EE10FA0AD3D3ED000AB8EE6D
:10319000C01AF1EE600AB4EEE01AF1EE10FA02DDA8
:1031A000C8ED000A03E0B8EEC00A88ED000A00EEA0
:1031B000101AB8EE400AB1EE400A87ED180A87ED02
:1031C000190A0649BAF1010FB1F8031056D0BAF145
:1031D000020F59D062E00000D8000020BE05002098
:1031E000DC0000203C0000207800002008000020C7
:1031F0000402002014020020CC000020D000002097
:10320000D400002070000020BC000020B40000208A
:10321000B8000020C0000020C4000020EC01002005
:10322000C8000020B0000020AC0000208400002076
:1032300044000020100100208C5F000814010020D1
:10324000905F0008600000205C0000203800002033
:1032500040000020445F0008485F00084C5F000801
:10326000000000000000E03F500100204C01002061
:103270005C5F0008605F00086401002049BA00EE4E
:10328000101AB8EE400A06E049BA00EE101AB8EE7D
:10329000400AB1EE400AFE4981ED000A4179FD483D
:1032A0000129C08802D0022906D00EE040BA00EE03
:1032B000100AB8EE400A06E040BA00EE100AB8EE76
:1032C000400AB1EE400A8BED000AF148F44F90ED50
:1032D000000AF148D0ED000AF04820EE208A9BED6C
:1032E000000A80ED028A60EE208A78EE08DAC0EDEE
:1032F000058A80ED038AB0EE6D0AC0ED068A08EEFD
:10330000490A80ED048AC0ED078AD7ED000A20EE55
:10331000200A10EE100AFDF77DF953EC1A2BFDF789
:1033200042F841EC1C0BDF487DEE880A90ED000A64
:10333000DD4820EE080A90ED001A01EE200A10EE9A
:10334000100AFDF767F953EC1C2BFCF785FFFDF71E
:1033500074F938EEA80A0DEE900ACD4808EEC90AB5
:10336000C0ED00DAD7ED000A20EE200A10EE100AB8
:10337000FDF750F953EC1A2BFDF715F841EC1C0B37
:10338000C84878EE880A90ED000AC74870EE880AAF
:1033900020EE280A90ED001A01EE200A10EE100A25
:1033A000FDF738F953EC1C2BFCF756FFFDF745F9F8
:1033B00000EE100ABD4A8BED000AD2ED000AF4EED1
:1033C000E0DAF1EE10FA02DDB148C0ED000AD2ED0C
:1033D000000A5846B4EEE00AF1EE10FA01DDC0ED45
:1033E000000AAB4992ED000AD1ED000AB1EE400AA5
:1033F000F4EEC00AF1EE10FA01D281ED000AD0ED30
:10340000000AF4EEC00AF1EE10FA01D280ED000AD3
:10341000A74A91ED000AD2ED000AB4EEE00AF1EEFF
:1034200010FA06D2B5EEC00AF1EE10FA01DDC1EDD8
:10343000000A90ED000AB4EEE00AF1EE10FA06D2AE
:10344000B5EEC00AF1EE10FA01DDC0ED000A92ED12
:10345000000AD1ED000AB1EE400AF4EEC00AF1EE26
:1034600010FA06DDF5EEC00AF1EE10FA01D281ED98
:10347000000AD0ED000AF4EEC00AF1EE10FA06DD03
:10348000F5EEC00AF1EE10FA01D28BED000A814B85
:103490005F789FED88CA442F0DD101998648012994
:1034A00009D13F2C07D10560794880ED00CA8BED2A
:1034B00000CA88ED00CA814A106801287CD1012C1D
:1034C00002D0022C39D077E000EE107A7348B8EEC3
:1034D000400A60EE2B0A00EE107AB8EE401A90ED2A
:1034E000180A71EE001A90ED191A71EE811A4BEE5E
:1034F000210A01EE907AF8EE611A40EE0D1A31EED3
:10350000810A49EE800ABDEEE00A10EE101A8166CB
:10351000052902DDB1EE040A08E0012902DAB7EE5E
:10352000000A03E000EE101AB8EEC00A88ED000AA7
:1035300000EE107AB8EE400A3AE000EE107A5748F2
:10354000B8EE400A90ED181AD0ED190A31EE400A93
:1035500030EE200A60EE0B1A00EE107AB8EE400A48
:103560004BEEC01A00EE107AB8EE400A11EE0D0ACA
:1035700030EE200A49EE801ABDEEE10A10EE101A74
:10358000816611F1050F02DAB9EE040A08E000299C
:1035900002DBBFEE000A03E000EE101AB8EEC00A2C
:1035A00088ED000A00EE107AB8EE400AB1EE400A4B
:1035B00080ED180A80ED190A272F02D0282F05D098
:1035C00007E03F2C05D188ED00CA01E03F2C00D177
:1035D00015603B480068012859D1012C02D0022C0B
:1035E00005D00DE000EE107AB8EE400A05E000EEDE
:1035F000107AB8EE400AB1EE400A254880ED000A84
:10360000BAF1010F03D0BAF1020F05D00CE000EEC1
:10361000106AB8EE400A05E000EE106AB8EE400A03
:10362000B1EE400A8BED000ADFF86480D8F80000A4
:10363000FCF7F0FF9FED23BB53EC1B2BFCF7B3FE15
:10364000FCF7FBFF08EE100ADBF80000FCF7E2FFD6
:1036500053EC1B2BFCF7A7FEFCF7EFFF08EE900ADC
:103660000E4878EE089A80ED028AC0ED058A80ED5A
:10367000038AC0ED068A80ED048AC0ED078AB0EEA9
:10368000690A074808EE490AD0ED000A1EE0C6E0C4
:1036900048010020BE050020505F000864010020A2
:1036A000405F0008385F00083C5F0008645F000866
:1036B000685F00080000000004020020E001002014
:1036C000E40100209A9999999999D93F20EE200A0E
:1036D00010EE100AFCF79EFF53EC1A2BFCF763FE6A
:1036E00041EC1B0B814879EE880A90ED000A804876
:1036F00020EE080A90ED001A01EE200A10EE100AE2
:10370000FCF788FF53EC1B2BFCF7A6FDFCF795FF9D
:1037100038EEA80A8246C8F80000764808EEC90AC2
:10372000D0ED000A20EE200A10EE100AFCF772FF1E
:1037300053EC1A2BFCF737FE41EC190B6B4878EE73
:10374000880A90ED000A6A4870EE880A20EE280A7E
:1037500090ED001A01EE200A10EE100AFCF75AFF55
:1037600053EC192BFCF778FDFCF767FF624AB2EEC9
:10377000040ACBF80000924501DD88ED000A5946A5
:10378000904201DD81ED000A5C4AD8F800304046E5
:10379000BAEE040A934201D980ED000A0B68934205
:1037A00001D981ED000A90ED000A4FF07C5310EE34
:1037B000102AF6EE000A9A4206DAB5EEC00AF1EED9
:1037C00010FA01DDC0ED000A91ED000A10EE102A9A
:1037D0009A4206DAB5EEC00AF1EE10FA01DDC1ED4B
:1037E000000A90ED000A4FF03F4310EE102AFEEE63
:1037F000000A9A4206D2B5EEC00AF1EE10FA01D2E2
:10380000C8ED000A91ED000A10EE100A984206D2A7
:10381000B5EEC00AF1EE10FA01D2CBED000A38483D
:10382000172C02D0182C12D004E0364981ED00CAC2
:103830008BED00CA3449354B364AD1F800C03449C3
:10384000392F09D0402F0BD0412F11D015E032492C
:103850000D6032494D60E8E7BCF1010F0BD00CE080
:10386000BCF1020F07D008E01D600D60156029E073
:10387000BCF1030F01D13F2CF6D01B68012B21D1E5
:10388000009B212B1ED1264B012C02D0022C04D0F0
:103890000AE0B0F8010040BA03E0B0F8010040BA15
:1038A0004042086001201860012E02D0022E03D091
:1038B00008E099FA99F002E099FA99F04042106014
:1038C000012018601748016829B93F2C03D1332F14
:1038D00001D10121016011483221457003B008482F
:1038E000BDEC0C8BBDE8F04FFCF7A4BC385F0008C2
:1038F0003C5F0008405F000800002041000020C13C
:10390000BE050020480100206C0000206800002057
:10391000180100201C010020E401002064010020A7
:10392000A8000020740000200148FEF79DB90000A7
:10393000DC0300200148FEF797B9000024040020B2
:103940000148FEF791B900006C040020F0B585B085
:10395000054602262020CDE9000600240320CDE9FB
:10396000024007200E4F049069463846FDF7A6F83E
:103970004020CDE9000669463846FDF79FF80A4920
:1039800008480860C1E901540C20CC60C1E904403A
:103990008C610846CC61FEF79FFA05B0F0BD0000CF
:1039A000000C0240004400404405002010B51346BE
:1039B0000C460A4601460448FEF7B8FB08B1002051
:1039C00010BD20B210BD0000440500200A4601468B
:1039D0004FF0FF330148FEF710BC00004405002003
:1039E000FEE77CB515460646002903DA484240F456
:1039F000004001B26C460A46601C8DF80030411C44
:103A0000FEF74EFC0022211DE01CFEF749FC2A4671
:103A1000A11D601DFEF744FC07236A46292130469C
:103A200000F0FAFA7CBD00000FB4054B10B503A9F5
:103A3000044A029800F03CF810BC5DF814FB00004A
:103A4000B13F0008080200200FB4084B10B504A9CC
:103A500002AA039800F02CF8044602A9002000F006
:103A600003F9204610BC5DF814FB0000693C000817
:103A70000907090E002804DB00F1E02080F800149B
:103A8000704700F00F0000F1E02080F8141D70472F
:103A900002E008C8121F08C1002AFAD17047704717
:103AA000002001E001C1121F002AFBD17047000075
:103AB0002DE9FF4F8BB09A460F460546002606E0DB
:103AC00025280BD052460D9990476D1C761C2878FE
:103AD0000028F5D10FB03046BDE8F08F0024A04695
:103AE0000122604900E0044315F8013F203B02FA3F
:103AF00003F00842F7D128782E2817D115F8010FC6
:103B000044F004042A280ED06FF02F022878A0F188
:103B1000300109290AD808EB880102EB410100EBCA
:103B200001086D1CF2E757F8048B6D1C2878692892
:103B30003ED006DC0028CDD063280BD0642804D109
:103B400036E0732810D075284BD052460D99904717
:103B5000761C85E017F8040B8DF8000000208DF826
:103B60000100E946012003E057F8049B4FF0FF30C5
:103B700061074FF0000401D40AE0641C44450DDAEB
:103B80008442FADB19F804100029F6D106E0641C1F
:103B90008442FCDB19F804100029F8D1264404E023
:103BA00019F8010B52460D999047641EF8D257E060
:103BB00001CF4FF00A0B002802DA40422D2102E02B
:103BC000210504D52B218DF82410012103E0E10704
:103BD00005D02021F7E70DF1200908910CE0002124
:103BE000F9E701CF4FF00A0BF9E75946FCF741FD21
:103BF00001F1300209F8012D0028F6D1ADEB0900E2
:103C000000F1200B600701D44FF00108D84502DD18
:103C1000A8EB0B0000E000208046002406E009A885
:103C20005246005D0D999047641C761C08988442AA
:103C3000F5DB04E0302052460D999047761CB8F130
:103C40000001A8F10108F5DC05E019F8010B524666
:103C50000D999047761CBBF10001ABF1010BF4DC30
:103C60006D1C34E7092801000A68531C0B601070B2
:103C7000704701F03DBC000070B550EA01037CD0F4
:103C80004FF49673984200DD1846994200DD1946BC
:103C90006A4B984200DA1846994200DA1946684B96
:103CA00000241C605C6000EE100A664DB8EEC00A8D
:103CB000D5ED000A1D6920EE800A9E690544354451
:103CC00000EE905A604DF8EEE00A95ED001A1D697D
:103CD00001EE200A451B00EE905A5C4DF8EEE00A1A
:103CE00095ED001A5A4D01EE200A00EE901A95ED5E
:103CF000001A5D69F8EEE00A61EE200ADE690D4403
:103D0000354401EE105A534DB8EEC11AD5ED001AE4
:103D10005D6941EE810A4D1B01EE105A4E4DB8EE21
:103D2000C11AD5ED001A4D4D41EE810A95ED001AEC
:103D30004B4D20EE010A95ED001A1D6960EE810AD7
:103D40009D6118615869D86159619FED461AB4EEBA
:103D5000C10AF1EE10FA01DDB0EE410AF4EEC10A3B
:103D6000F1EE10FA01DDF0EE410A9FED3F1AB4EEDC
:103D7000C10AF1EE10FA03D200E00BE0B0EE410A06
:103D8000F4EEC10AF1EE10FA01D2F0EE410A012A76
:103D900003D037E04FF0FF3070BD10EE100A4FF047
:103DA0007E51324AB7EE001AFFEE001A884207DA57
:103DB000B5EEC00AF1EE10FA02DDB0EE410A03E002
:103DC00010EE100A904206D2B5EEC00AF1EE10FADB
:103DD00001D2B0EE610A10EE900A884207DAF5EEE1
:103DE000C00AF1EE10FA02DDF0EE410A03E010EE37
:103DF000900A904206D2F5EEC00AF1EE10FA01D216
:103E0000F0EE610A186A1A49401C1862884200DD07
:103E10001C62BDEEC00AFDEEE00AB8EEC00AF8EE84
:103E2000E00ABDEEC00AFDEEE00A10EE100A10EE48
:103E3000901A01F05DFB002070BD0000D4FEFFFF72
:103E4000180100206C5F0008705F0008745F0008B4
:103E5000785F00087C5F0008805F0008845F0008CE
:103E6000885F00080000C8420000C8C2000080BF90
:103E700040420F0010B540F69D34D22340F6FF7249
:103E80002146042000F092F80148846010BD000033
:103E90001801002010B50420FEF71CFC40F2DC5194
:103EA00088420ADD40F24474D22340F6FF72214674
:103EB000042000F07BF80148846010BD1801002048
:103EC00038B5002425460121684601F0F7FA00289C
:103ED0000FD09DF80010E0B260F30F2461F30704E7
:103EE000FF2901D1FF2805D06D1CEDB20A2DEAD9BA
:103EF000002038BD012038BD10B50220FEF7EAFBD6
:103F0000B0F5487F09DD0023BDE810404FF47A6228
:103F100040F60C51022000F049B83223BDE81040B1
:103F2000102202A10648FEF768B90000636C6177B1
:103F30005F746F6F6F6F6F5F6261636B0000000093
:103F40006C04002010B50220FEF7C4FB4FF4C861DA
:103F5000884207DD0023BDE810404FF47A6202205A
:103F600000F024B83223BDE81040112201A1064818
:103F7000FEF743B9636C61775F746F6F6F6F6F5F4C
:103F800072696768740000006C04002000234FF41D
:103F90007A624FF4C861022000F008B80249492053
:103FA000096888637047000004030020FFF719BD0B
:103FB00013B54FF6FF73012269460248FEF71DF95B
:103FC00000981CBD9403002010B5002821D0114B8F
:103FD0000022001F196803E0814203D80A4649689D
:103FE0000029F9D152B11368841A9C4204D10068A7
:103FF00018441060104602E0506000E0186039B1CB
:1040000002680B1A934203D10B681A440260496894
:10401000416010BD0C020020F8B51C4615460E4646
:10402000074601F049FA0320009023462A4631460C
:10403000384601F017FF01F0F3FE3846BDE8F840BE
:10404000FCF722BC2DE9F0410A46034601F084FE4C
:1040500001F0CEF9534C544E544D4FF4FA6040F6F3
:10406000FF77012B04D0022B24D0032B56D142E042
:10407000012A12D0B188024609B2D2230320FFF7E9
:1040800095FFA888D22301B23A460420FFF78EFF9D
:104090007068E0606868A06040E0024640F6D7259E
:1040A000D22329460320FFF781FFD2233A4640F668
:1040B00072366FE0012A11D03189024609B2D2234B
:1040C0000320FFF773FF2889D22301B23A46042068
:1040D000FFF76CFFA868A060B0681EE0024640F2DF
:1040E0008F75D22329460320FFF760FFD2233A467B
:1040F00040F244764EE0012A40D0B189024609B22E
:10410000D2230320FFF752FFA889D22301B23A46F7
:104110000420FFF74BFFE868A060E0604FF496745E
:104120002046FCF7B9FC01F08FF94FF4FA752846E8
:10413000FCF7B2FCFFF732FF2046FCF7ADFC01F0C4
:10414000B3F9FFF797FE2046FCF7A6FCFFF71EFF2A
:104150002846FCF7A1FC01F097F92046FCF79CFCEF
:1041600001F036F9C820FCF797FC01F09DF92046D4
:10417000FCF792FCBDE8F041FFF7BEBE024640F2FC
:104180005145D22329460320FFF710FFD2233A4698
:1041900040F6C23631460420FFF708FFA660E5600E
:1041A000BCE700001801002020020020300200209F
:1041B0002DE9F04714460F46054601F0BBFD01F01E
:1041C00007F901F071F9FFF755FE4FF4FA79484607
:1041D000FCF762FCFFF7B6FEA368314E4FF4FA62BB
:1041E00040F6D72040F28F7140F2514CAB422BD1B8
:1041F000D2238046014605E0D223884602E0D2233E
:10420000E04661460320FFF7D1FEC6F80C80484621
:10421000FCF742FC01F038F99620FCF73DFCFFF773
:10422000BDFEC820FCF738FC01F03EF9C820FCF7C1
:1042300033FCFFF761FEA0684FF47A62A8420AD10E
:10424000D22340F6723413E06068A842D4D02068CC
:10425000A842D4D0DBE76068A84203D1D22340F261
:10426000447405E02068A84207D1D22340F6C23446
:1042700021460420FFF79AFEB460C820FCF70CFC2E
:10428000012F06D001F0F0F84846BDE8F047FCF7F2
:1042900003BCC820FCF700FC01F0EEF8F4E70000D6
:1042A000180100209FED061AC0EE010A9FED050AD5
:1042B00020EE800ABCEEC00A10EE100A7047000023
:1042C0003333FB41000048459FED071ADFED071A25
:1042D00020EE010A80EE211A81EE200ABDEEC00A0E
:1042E00010EE100A7047000000007A44B81E053F27
:1042F0002DE9F04F5F4C85B00126A6633746DFF805
:104300007891DFF878814FF4167B0025A2E00A202F
:104310006664FCF7C1FB206C012801D1206D50B10F
:10432000206C022801D1606D28B1206C03287DD15A
:10433000A06D00287AD16564D4F840A025643220AD
:10434000FCF7AAFBD9F80010D8F80000FFF791FCA1
:10435000D9F80030D8F8002049A16846FFF774FB6F
:1043600069464CA0FFF760FBC8F80050C9F8005040
:10437000504601F0F1FCFFF711FE606E00B92666B1
:104380005846FCF789FB01F08FF80A20FCF784FB04
:10439000606E18B940F2DC50FCF77EFB2566E06DDC
:1043A000012802D0012F06D00AE001F019F801F02F
:1043B00043F825644AE03848006838480068002718
:1043C0006666FFF757FD4FF49670FCF765FBFFF745
:1043D000DDFD5846FCF760FB01F056F84FF496708F
:1043E000FCF75AFB00F0F4FF4FF49670FCF754FB17
:1043F000C8F80050C9F8005001F056F84FF4C870E2
:10440000FCF74AFBFFF778FD00F0EAFF4FF4FA7083
:10441000FCF742FBFFF73EFD012001F011FDA06C0F
:10442000401CA064BAF1010F08D000E00FE0BAF11F
:10443000020F05D0BAF1030F04D004E0266502E0B4
:10444000666500E0A665256400F0F6FFE5650A20D4
:10445000FCF722FBA06C0328FFF659AFA564256585
:104460006565A5656566E5652564A56305B0BDE878
:10447000F08F000000000020140100201001002037
:1044800074302E7478743D2225642C256422FFFF3D
:10449000FF000000257300002001002024010020FF
:1044A0002DED068B84B0FCF71DFCFEF745F9FDF7FA
:1044B00007FFFEF767F8FEF781F8FEF79BF8FDF7B8
:1044C00057FFFDF78BFFFDF7BFFFFEF73FF8FEF745
:1044D00021F80122FD49FE48FDF780FE2822FD4912
:1044E000FD48FDF764FB2822FC49FD48FDF75FFB12
:1044F000FC48FCF7F9FFFC48FCF7F6FF0021FB48FD
:10450000FDF7FAF90421F948FDF7F6F90821F74813
:10451000FDF7F2F90C21F548FDF7EEF94FF47A7941
:104520004846FCF7B9FA00F049FFF14CF14F00257D
:104530000126E56464203E60FCF7AEFAFFF7AAFCB2
:10454000012001F07DFC00F0AFFFFFF7D5FC00F08B
:1045500047FF012001F000FCE849E74ADFF8A083AB
:10456000002001F110036563D2F800C041F820C0BB
:10457000D8F800C043F820C0401C0428F4DB4FF4F6
:10458000FA60FCF789FAE5643E604E464846FCF75F
:1045900083FAE068012805D032230222D9A1CE484F
:1045A000FDF72BFEDFEDD89A9FEDD89ADFEDD88A84
:1045B00094ED070AA08ABAEE0E8ABCEEC00A81B258
:1045C000F0EE690A10EE100AB0EE480AC0B200F030
:1045D000F3FB94ED070AA08AF0EE690ABCEEC00A6C
:1045E00081B210EE100AB0EE480AC0B200F068FDC9
:1045F0004FF4FA70FCF750FA94ED070AA08AF0EE37
:10460000490ABCEEC00A81B210EE100AC0B29FED9A
:10461000C18AB0EE480A00F0CFFB94ED070AA08AE9
:10462000F0EE490ABCEEC00A81B210EE100AB0EEFC
:10463000480AC0B200F044FD94ED070AA08AF0EEEB
:10464000680ABCEEC00A81B210EE100AB0EE480A49
:10465000C0B200F0B1FB94ED070AA08AF0EE680A40
:10466000BCEEC00A81B210EE100AB0EE480AC0B229
:1046700000F026FD062000F069FB05469C488430CA
:1046800047690369C26881688DE88E0043680268E3
:10469000A1A12846FFF7D8F92946A3A0FFF7C4F93E
:1046A0002846FFF791FC94ED080ABCEEC00A10EE14
:1046B000100AC1B2208B80B201F0F6FAE06801283E
:1046C00005D0322303229CA18348FDF796FD304696
:1046D000FCF7E2F900F0E0FE94ED070AA08AF8EE9C
:1046E000008ABCEEC00A81B2F0EE680A10EE100A31
:1046F000B0EE480AC0B200F05FFB94ED070AA08A52
:10470000F0EE680ABCEEC00A81B210EE100AB0EEFC
:10471000480AC0B200F0D4FCE06840F6B83701287F
:1047200004D000F089FEFFF7E3FD02E03846FCF715
:10473000B3F900F0B1FE012001F082FBFFF7AAFB04
:104740009FED7E9A94ED070A208AF0EE489ABCEE1F
:10475000C00A81B2F0EE698A10EE100AF0EE680A23
:10476000B0EE490AC0B200F027FB94ED070A208A98
:10477000F0EE680ABCEEC00A81B210EE100AB0EE8C
:10478000490AC0B200F09CFC6DA000F0E7FF94ED78
:10479000070AA08ABCEEC00A81B210EE100AC0B2AD
:1047A0009FED68AAB0EE680AB0EE4A8AF0EE480AB9
:1047B00000F002FB94ED070AA08AF0EE480ABCEE76
:1047C000C00A81B210EE100AB0EE680AC0B200F062
:1047D00077FC94ED080ABCEEC00A10EE100AC1B2D4
:1047E000208B80B201F01AFA40F2DC552846FCF723
:1047F00053F9E068012808D053A000F0E1FF01223E
:104800000021104600F0DCFE05E051A000F0D8FFCA
:104810003846FCF741F994ED070AA08ABCEEC00ABD
:1048200081B210EE100AC0B2DFED4AAAB0EE698A7A
:10483000F0EE6A8AB0EE480AF0EE680A00F0BCFAC0
:1048400094ED070AA08AF0EE680ABCEEC00A81B2B5
:1048500010EE100AB0EE480AC0B200F031FC00F0D1
:104860001BFEFFF717FB94ED080ABCEEC00A10EE22
:10487000100AC1B2208B80B201F016FA3046FCF764
:104880000BF994ED070AA08ADFED339ABCEEC00A5B
:1048900081B2F0EE698A10EE100AF0EE680AB0EE0E
:1048A000480AC0B200F088FA94ED070AA08AF0EE38
:1048B000680ABCEEC00A81B210EE100AB0EE480AD7
:1048C000C0B200F0FDFBE068012847E0D001002005
:1048D00094030020BE0500206C0400207006002018
:1048E0004C03002074020020BC02002004030020BE
:1048F00000000020E8010020AC5F0008200200203A
:10490000B05F0008414100000000B44100001642C1
:104910000000AA42000000002564256425642B25C0
:10492000642564256400000074302E7478743D2280
:10493000257322FFFFFF00004242310000002842A1
:104940004545000000002AC3434331320000000007
:10495000434334000000AAC20000A44209D0AFF2D1
:10496000180000F02DFF00221146022000F028FE62
:1049700006E0AFF2240000F023FF3846FCF78CF885
:1049800094ED080A5A22BCEEC00A10EE100AC1B219
:10499000208B80B201F0CAF83046FCF77DF894ED28
:1049A000070AA08ABCEEC00A81B210EE100AC0B29B
:1049B000DFEDDD8AB0EE480AF0EE680A00F0FCF99F
:1049C00094ED070AA08AF0EE680ABCEEC00A81B234
:1049D00010EE100AB0EE480AC0B200F071FB94ED80
:1049E000070A208AF0EE480ABCEEC00A81B210EE37
:1049F000100AC0B2DFEDCD8AB0EE680A00F0DCF933
:104A000094ED070A208AF0EE480ABCEEC00A81B293
:104A100010EE100AB0EE680AC0B200F051FBE06878
:104A2000012805D032230322C1A1C248FDF7E5FBCE
:104A30006420FCF731F8E068012804D000F0FCFCA9
:104A4000FFF756FC02E03846FCF726F800F024FD9C
:104A5000012001F0F5F9FFF71DFA94ED070A208A0D
:104A6000F0EE480ABCEEC00A81B210EE100AB0EEB9
:104A7000490AC0B200F0A0F994ED070A208AF0EECE
:104A8000480ABCEEC00A81B210EE100AB0EE490A24
:104A9000C0B200F015FBAFF2581000F05FFE94EDCD
:104AA000070AA08AF0EE4A8ABCEEC00A81B2F0EE94
:104AB000680A10EE100AB0EE480AC0B200F07CF9A5
:104AC00094ED070AA08AF0EE680ABCEEC00A81B233
:104AD00010EE100AB0EE480AC0B200F0F1FA00F091
:104AE000DBFC94ED080ABCEEC00A10EE100AC1B25D
:104AF000208B80B201F092F82846FBF7CDFFE068EA
:104B0000012808D08CA000F05BFE012200210320C8
:104B100000F056FD06E0AFF2C81000F051FE384636
:104B2000FBF7BAFF94ED070AA08AF0EE6A8ABCEEA2
:104B3000C00A81B2F0EE680A10EE100AB0EE480A20
:104B4000C0B200F039F994ED070AA08AF0EE680AC5
:104B5000BCEEC00A81B210EE100AB0EE480AC0B234
:104B600000F0AEFA00F098FCFFF794F994ED080A13
:104B7000BCEEC00A10EE100AC1B2208B80B201F068
:104B800093F83046FBF788FF94ED070AA08AF0EE11
:104B9000690ABCEEC00A81B210EE100AB0EE480AF3
:104BA000C0B200F009F994ED070AA08AF0EE690A94
:104BB000BCEEC00A81B210EE100AB0EE480AC0B2D4
:104BC00000F07EFAE0680128AFF27C2007D000F008
:104BD000F7FD00220121042000F0F2FC04E000F0C7
:104BE000EFFD3846FBF758FF94ED070AA08AF0EE78
:104BF000480ABCEEC00A81B210EE100AB0EE480AB4
:104C0000C0B200F0D9F894ED070AA08AF0EE480A85
:104C1000BCEEC00A81B210EE100AB0EE480AC0B273
:104C200000F04EFA94ED070AA08ABCEEC00A81B2E9
:104C300010EE100AC0B2DFED418AB0EE480AF0EE85
:104C4000680A00F0B9F894ED070AA08AF0EE680A45
:104C5000BCEEC00A81B210EE100AB0EE480AC0B233
:104C600000F02EFA00F0BCFB012001F0E9F8FFF79C
:104C700011F994ED080A5A22BCEEC00A10EE100A8F
:104C8000C1B2208B80B200F051FF3046FBF704FF29
:104C900094ED070AA08ADFED2A8ABCEEC00A81B231
:104CA000F0EE680A10EE100AB0EE480AC0B200F04A
:104CB00083F894ED070AA08AF0EE680ABCEEC00AF9
:104CC00081B210EE100AB0EE480AC0B200F0F8F956
:104CD000D4ED070AA08A9FED1B8AFCEEE00A81B2A0
:104CE000F3EE0C8A10EE900AB0EE480AF0EE680A75
:104CF000C0B200F061F8D4ED070AA08AB0EE480A0D
:104D0000FCEEE00A81B210EE900AF0EE680AC0B242
:104D100000F0D6F9322303220BA10648FDF76DFA05
:104D20003046FBF7B9FEFBE70000B042000030421E
:104D3000424232006C04002043433300000029C388
:104D4000000096420000A441656E6400F0B50B308F
:104D5000154D20F007010024144A0FE003688B4230
:104D60000BD38B4205D95E1A43184768C3E9006725
:104D700000E04368136002C004E0021D10680028D0
:104D8000ECD12046002802D1286808B10020F0BDEF
:104D9000064A07481060074A121A22F00702C0E9C3
:104DA000002401202860D7E7100200200C02002018
:104DB000AC060020A8080020F0B5B5EEC00A2DED25
:104DC000028B70EE608A30EE208A0125BB4CF1EE3A
:104DD00010FA83B00E46074643DBF5EEC00AF1EE4B
:104DE00010FA3EDBB0EE480AFFF75CFA21788DE856
:104DF00023003B46324600210120FBF773FD0A20C9
:104E0000FBF74AFEB0EE480AFFF74CFA21788DE82E
:104E100023003B46324601210420FBF763FD0A20B4
:104E2000FBF73AFEF5EEC08AF1EE10FA12DBB0EEB7
:104E3000680AFFF737FA21788DE823003B463246AF
:104E400000210220FBF74EFD0A20FBF725FEB0EE05
:104E5000680A29E1B1EE680AB0EE408AF7E0032063
:104E600045E0B5EEC00AF1EE10FA50DBF5EEC00AEF
:104E7000F1EE10FA4BD2B0EE680AFFF713FA217880
:104E80008DE823003B46324600210220FBF72AFD35
:104E90000A20FBF701FEB0EE680AFFF703FA21785B
:104EA0008DE823003B46324601210320FBF71AFD23
:104EB0000A20FBF7F1FDB5EEC08AF1EE10FA12DB25
:104EC000B0EE480AFFF7EEF921788DE823003B4663
:104ED000324600210120FBF705FD0A20FBF7DCFD2F
:104EE000B0EE480A58E0B1EE480A60E00420FBF753
:104EF000F9FC0A20FBF7D0FD0020FBF73BFD03B0D7
:104F00000A20BDEC028BBDE8F040FBF7C5BD30EEDA
:104F1000C08AB5EEC00AF1EE10FA63D2F5EEC00A0F
:104F2000F1EE10FA5EDB70EE808AB0EE480AFFF711
:104F3000B9F921788DE823003B4632460121022051
:104F4000FBF7D0FC0A20FBF7A7FDB0EE480AFFF7FD
:104F5000A9F921788DE823003B4632460021032041
:104F6000FBF7C0FC0A20FBF797FDF5EEC08AF1EED7
:104F700010FA1ADBB0EE680AFFF794F921788DE891
:104F800023003B46324600210120FBF7ABFC0A2000
:104F9000FBF782FDB0EE680AFFF784F921788DE80F
:104FA00023003B4632460121A0E7B1EE680AB0EE8D
:104FB000408AFFF777F921788DE8230001213B46ED
:104FC00032460846FBF78EFC0A20FBF765FDB0EE83
:104FD000480AFFF767F921788DE823003B463246FF
:104FE000002183E7B5EEC00AF1EE10FA84D2F5EEA7
:104FF000C00AF1EE10FAF9D2B1EE400A70EE608A02
:10500000B0EE680AFFF74EF921788DE82300012100
:105010003B4632460846FBF765FC0A20FBF73CFDA1
:10502000B0EE680AFFF73EF921788DE823003B4691
:10503000324600210420FBF755FC0A20FBF72CFD2B
:10504000B5EEC08AF1EE10FA1ADBB0EE480AFFF7AF
:1050500029F921788DE823003B46324601210220C0
:10506000FBF740FC0A20FBF717FDB0EE480AFFF7FC
:1050700019F921788DE823003B4632460021EEE6FF
:10508000B1EE480AB0EE408AFFF70CF921788DE8BE
:1050900023003B46324600210220FBF723FC0A2076
:1050A000FBF7FAFCB0EE480AFFF7FCF821788DE830
:1050B00023003B4632460121D1E60000A400002037
:1050C0002DE9F0470D462DED068BF0EE408AB0EE4F
:1050D000608AF5EEC08AF1EE10FA01D2F1EE688A2C
:1050E000B5EEC08AF1EE10FA01D2B1EE488AC0F5F1
:1050F0008070FBF74AFA8946074649EC190B2846A7
:10510000FBF743FA884648EC100B9FED24AB0646AC
:1051100053EC1A2B51EC100BFBF745F953EC192B00
:10512000FBF741F900EE105A41EC190BF8EE400A7A
:10513000B0EE680AFFF7C8F8FBF716FA53EC192B24
:10514000FBF78AF8FBF72EFA48EC106B044649ECA3
:10515000197B53EC1A2B51EC100BFBF724F953EC91
:10516000192BFBF720F900EE105A41EC190BF8EE61
:10517000400AB0EE480AFFF7A7F8FBF7F5F953EC41
:10518000192BFBF769F8FBF70DFA844200DD204686
:10519000BDEC068BBDE8F047FBF77EBC9A99999968
:1051A0009999A93F70EE602A30EE202AB5EEC00A28
:1051B0000122FCEEE21ABCEEC21A08B5F1EE10FABA
:1051C00037DBF5EEC00AF1EE10FA32DB30EE600AA2
:1051D0000629B1EE400ABCEEC00A29D2DFE801F090
:1051E0002803070B18E911EE101A00927BE011EE6C
:1051F000101A00928AE0F5EEC02AF1EE10FA03DBF5
:1052000011EE901A0092BEE010EE101A00925AE0D1
:10521000F5EEC02AF1EE10FA04DB00BF11EE901A91
:105220000092C1E010EE101A009250E0FBF7B8FBBC
:1052300008BDB5EEC00AF1EE10FA24DBF5EEC00AA7
:10524000F1EE10FA1FD20629F2D2DFE801F00504D0
:10525000030613B2E2E7D3E7EAE7B5EEC02AF1EEC0
:1052600010FAC0DAB1EE420A0092BCEEC00A10EEAB
:10527000101A3EE0B5EEC02AF1EE10FAB7DA11EEE0
:10528000101A009248E070EEC01AB5EEC00ABCEEEB
:10529000E11AF1EE10FA44D2F5EEC00AF1EE10FA7E
:1052A0003FDB70EE801A70EE800A0629BCEEE00A41
:1052B000F1EE600AFCEEE00ABAD2DFE801F0035D2D
:1052C0006E0C1F7AB4E78AB2034601215EE08AB20F
:1052D000034600216BE0F5EEC01A0092F1EE10FAE1
:1052E00005DB10EE101A03468AB2002104E010EE2E
:1052F000901A03468AB20121012097E7F5EEC01A01
:105300000092F1EE10FA05DB10EE101A03468AB295
:10531000012104E010EE901A03468AB20021042015
:1053200084E7B5EEC00AF1EE10FA81D2F5EEC00ABC
:10533000F1EE10FA90D2B1EE402A30EEC00A32EE11
:10534000602A0629B1EE400ABCEEC22ABCEEC00AB1
:10535000B8D2DFE801F00304080C1D2E68E712EE56
:10536000101A0092C5E712EE101A0092D4E7F5EE7B
:10537000C01AF1EE10FA03DB11EE101A0092A2E748
:1053800010EE101A009203468AB2002102204DE767
:10539000F5EEC01AF1EE10FA03DB11EE101A0092CE
:1053A00095E710EE101A009203468AB201210320FD
:1053B0003CE7BDE808400020FBF7DCBA4FF4E130E1
:1053C000FEF7C4BA4FF4FA70401E80B2FCD27047A8
:1053D00002495620096888637047000004030020D2
:1053E00002496820096888637047000004030020B0
:1053F00002495C20096888637047000004030020AC
:1054000000B58BB00B46024606A16846FEF71CFBB2
:10541000694608A0FEF708FB1420FBF73DFB0BB024
:1054200000BD00007425642E7478743D222573221B
:10543000FFFFFF0025730000002340F6FF7240F2DB
:1054400099610120FEF7B2BD002340F6FF7240F6DD
:10545000B6310120FEF7AABDF02340F6FF7240F6F8
:10546000B6310120FEF7A2BD002340F6FF7240F6E0
:10547000C6210120FEF79ABDD22340F6FF7240F20A
:105480004A710120FEF792BD002340F6FF7240F200
:10549000FD210120FEF78ABD002340F6FF7240F295
:1054A00077610120FEF782BD002340F6FF724FF4C2
:1054B00086710120FEF77ABDFFF784BF024A89B2E8
:1054C0005268FEF773BA00000401002008B50223F9
:1054D0006A46FDF7AFF8022802D04FF0FF3008BD52
:1054E0009DF801109DF80000FDF716F980B208BD87
:1054F00070B5284EF2681518B0684418A5F26950C6
:1055000040F24D41884201D3012300E0002340F6E0
:105510000820844201DD012200E0002240F66751AC
:10552000DBB16AB18C4204DD0C461BA10120FFF700
:1055300067FF4FF45570854205DA054618A108E06B
:1055400004461AA1F2E740F6483085420EDD0546D2
:1055500018A10220FFF754FF08E040F2ED4084421A
:1055600001DA044602E08C4200DD0C46D2234FF4FF
:105570007A6221B20420FEF719FDB4600A20FBF71D
:105580008BFAD2234FF4FA6229B20320FEF70EFD04
:10559000F56070BD18010020725F66726F6E740056
:1055A00074686574615F6C6566740000725F626147
:1055B000636B000074686574615F7269676874008A
:1055C0002DE9F74F05464FF00008032801D0042DC0
:1055D00001D14FF003080021564A019CDFF84CA18D
:1055E000DFF84CB102F18409012C0E462ED1032DB7
:1055F00001D0042D00D1032600248A469346C846D4
:10560000A71958F827004C4A0199FEF7D1FD58F820
:1056100027004A4ACBF86C00C2F800A0434AC2F8FF
:1056200000A0434AC2F800A0CBF868A0FFF7D0FE64
:105630004FF49670FBF730FA641C032CE0DBFFF7A5
:1056400033FF4FF4FA70FBF727FA4EE006EB08073A
:105650004C4659F82700384A0199FEF7A9FD54F83D
:105660002700344C35493223E0660120A066002033
:1056700008600B2232A13548FCF7BFFD09E0DBF8DA
:1056800000100122DAF80000FEF7F6FA606AFBF774
:1056900003FAA06E0028F2D12D48016859F827209E
:1056A0002C4B43F822102C49096859F8270003F1C4
:1056B000100242F82010206801280BD1FFF7CCFE21
:1056C0004FF4FA70FBF7E8F9FFF782FE4FF496709B
:1056D000FBF7E2F9761C032EB8DBFFF7E5FE4FF48B
:1056E000FA70FBF7D9F9FFF783FE0298012810D171
:1056F0000026032D01D0042D00D1032600244D46A1
:10570000A01955F820000021FEF79CFC641C032C16
:10571000F6DB012000F094FBFFF762FEFEF7BAFB18
:10572000BDE8FE4F0A20FBF7B7B9000018010020C2
:105730001C01002000000020205F0008D401002090
:105740006E6561722067726F756E64006C04002074
:105750002401002020020020200100202DE9F0413A
:105760000446FAF772FD82B2322321461048FCF754
:1057700044FD104C012020600A20FBF78DF90E4EED
:1057800000270E4D376004E000F050F8E86FFBF79B
:1057900083F9206818B13068E96A8842F4DB276031
:1057A00000F0ECFABDE8F0413220FBF775B90000DB
:1057B0006C04002004020020D4010020000000201E
:1057C0002DE9F0410446FAF740FD82B2322321462A
:1057D0001248FCF712FD124C012020606420FBF7F8
:1057E0005BF9104DDFF840800026A8F180072E609D
:1057F00006E000BF00F01AF8D8F80000FBF74CF9FB
:10580000206818B12868B96A8842F3DB266000F086
:10581000B5FABDE8F0413220FBF73EB96C04002038
:1058200004020020D401002080000020F8B56D485B
:105830006D4C90ED000AD4ED020AD4ED011A6B48CC
:1058400020EE201AD4ED000AF1EE600A70EEE11AA3
:10585000D0ED000A00EEA11ABDEEC11A11EE100A39
:10586000E06094ED021AD4ED011A94ED002A20EEC6
:10587000011A71EEC21A00EEA11ABDEEC11A11EEA4
:10588000100A206194ED021AD4ED001A94ED012A59
:1058900020EE011A71EEC21A00EEA11ABDEEC11A75
:1058A00011EE100A606194ED021AD4ED011A20EE97
:1058B000010A94ED001A31EE211A00EE810ABDEEC4
:1058C000C00A10EE100AA061E168494800688142F0
:1058D00000DDE0602169814200DD20616169814273
:1058E00000DD6061A169814200DDA061E1684042A4
:1058F000814200DAE0602169814200DA2061616959
:10590000814200DA6061A169814200DAA061E06849
:10591000384E0125002896ED000A0095BCEEC00A1D
:1059200010EE100AC3B2E06802DB82B2012102E08D
:10593000404282B200210120FBF732F80A20FBF737
:10594000ABF82069009596ED000A0028BCEEC00A6D
:1059500010EE100AC3B2206902DB82B2012102E01C
:10596000404282B200210220FBF71AF80A20FBF71E
:1059700093F86069009596ED000A0028BCEEC00A15
:1059800010EE100AC3B2606902DB82B2012102E0AC
:10599000404282B200210320FBF702F80A20FBF705
:1059A0007BF8A069009596ED000A0028BCEEC00ABD
:1059B00010EE100AC3B2A06902DB82B2012102E03C
:1059C000404282B200210420FAF7EAFF0A20FBF7E6
:1059D00063F80020FAF7CEFFBDE8F8400A20FBF795
:1059E0005BB80000545F000848010020585F0008C1
:1059F0009C000020A00000204B4A08B5D2ED000A10
:105A0000B5EEC00A0120FCEEE00AF1EE10FA30DB40
:105A1000BCEEC00A062919D2DFE801F018030C1900
:105A20002264009010EE900A0121C3B210EE100A19
:105A300082B237E0009010EE900A0121C3B210EE5E
:105A4000100A82B238E000BFFAF7AAFF08BD009042
:105A500010EE900A0121C3B210EE100A82B235E0B6
:105A6000009010EE900A0121C3B210EE100A82B22B
:105A700036E0B5EEC00AF1EE10FA38D2B1EE400AC7
:105A80000629BCEEC00AE1D2DFE801F003040E18DB
:105A9000222CDBE7009010EE900A0021C3B210EE3A
:105AA000100A82B20120CFE7009010EE900A002188
:105AB000C3B210EE100A82B20220C5E7009010EEC9
:105AC000900A0021C3B210EE100A82B20320BBE795
:105AD000009010EE900A0021C3B210EE100A82B2BC
