:020000040800F2
:10000000A00B0020A101000823260008932200086D
:10001000212600089D080008293200080000000081
:10002000000000000000000000000000272600087B
:100030009F08000800000000252600082926000867
:10004000BB010008BB010008BB010008BB010008A0
:10005000BB010008BB010008BB010008BB01000890
:10006000BB010008BB010008BB010008BB01000880
:10007000BB010008BB010008BB010008BB01000870
:10008000BB010008BB010008BB010008BB01000860
:10009000BB010008BB010008BB010008BB01000850
:1000A000BB010008BB010008BB010008BB01000840
:1000B000D1260008DD260008E9260008BB0100085B
:1000C000BB010008BB010008BB010008BB01000820
:1000D000BB010008713100087D310008893100083A
:1000E000BB010008BB010008BB010008BB01000800
:1000F000BB010008BB010008BB010008BB010008F0
:10010000BB010008BB010008BB010008BB010008DF
:10011000D9290008E5290008BB010008BB01000837
:10012000BB010008BB010008BB010008BB010008BF
:10013000BB010008BB010008BB010008BB010008AF
:10014000BB010008BB010008BB010008BB0100089F
:10015000BB010008BB010008BB010008BB0100088F
:10016000BB010008BB010008BB010008BB0100087F
:10017000BB010008BB010008BB0100080000000033
:10018000BB010008BB010008DFF810D000F01CFB29
:1001900000480047D1380008AFF30080A00B0020D2
:1001A0000648804706480047FEE7FEE7FEE7FEE711
:1001B000FEE7FEE7FEE7FEE7FEE7FEE7C1260008F2
:1001C000890100082DE9F05F0546002092469B4614
:1001D00088460646814640241BE02846414647465D
:1001E000224600F03BFA53465A46C01A914110D3BA
:1001F00011461846224600F022FA2D1A67EB010834
:100200004F4622460120002100F019FA17EB0009A1
:100210004E41201EA4F10104DFDC484631462A4647
:100220004346BDE8F09FD2B201E000F8012B491E21
:10023000FBD270470022F6E710B513460A46044683
:100240001946FFF7F0FF204610BD421C10F8011BB5
:100250000029FBD1801A70472DE9FE4F804681EAC4
:100260000300C00F0C46009021F0004123F0004530
:10027000B8EB0200A94105D24046214690461C46F3
:100280000B46024623F00040104347D0270DC7F32A
:100290000A00C3F30A510290401A019040286BDA19
:1002A000C3F3130040F4801B0098924620B1002352
:1002B000D2EB030A63EB0B0B01985946C0F14002E5
:1002C000504600F0BCF906460D4650465946019A84
:1002D00000F0D4F910EB08006141002487EA1152C4
:1002E00084EAE7731A4340D0009A62B3019A012A64
:1002F0004FEA075215DC001B61EB02014FF0004290
:1003000002EA0752CDE90042001C41F58011324655
:100310002B4600F00BFA03B0BDE8F08F40462146B3
:10032000F9E7001B61EB0201001C41F58013001886
:100330005B412018A2F5001747EB030140EAD57096
:10034000B6196D4111E06D084FEA360645EAC075F1
:100350004FEA0752001B61EB0201001C41F58011BE
:1003600049084FEA30000019514132462B4603B08C
:10037000BDE8F04F00F0CBB9009801224000002307
:10038000D0EB020263EBE073009821464FEAE07481
:10039000B8EB000061EB0401E9E783F000435BE7A1
:1003A00081F0004158E72DE9FE4F81EA030404F093
:1003B000004421F0004100944FF0000B23F0004373
:1003C00050EA01045ED052EA03045BD0C3F30A543E
:1003D000C1F30A552C44A4F2F3340194A0FB025457
:1003E000C1F3130141F48011C3F3130343F48013E9
:1003F00001FB024400FB034E840A970A44EA81543D
:1004000047EA8357A4FB076802958D0A05FB078519
:100410004FEA932C04FB0C542705029D4FEA065823
:1004200047EA1637B5EB08056EEB070C870E920E00
:1004300047EA811742EA8312A7FB0201B6EB0B01E0
:1004400064EB00042B0D43EA0C335E1844EB1C50A4
:10045000DA465146E7FB0201C5F313044FEA0B33BA
:1004600043EA14534FEA0432019C43EA0603A4F121
:100470000C040294009CCDE900B400F057F903B0DD
:10048000BDE8F08F00200146F9E72DE9F04D81EA43
:10049000030404F0004B21F0004514464FF0000A1D
:1004A00023F0004150EA050220D054EA01021DD099
:1004B000C5F30A570246C5F31303C1F31300C1F392
:1004C0000A5640F4801543F48013A7EB0608101B6E
:1004D000D64608F2FD3873EB050002D308F1010897
:1004E00001E092185B41B8F1000F03DA00200146E9
:1004F000BDE8F08D00204FF48011064684460EE0E2
:10050000171B73EB050705D3121B63EB05030643AB
:100510004CEA010C49084FEA300092185B4150EA5E
:100520000107EDD152EA030012D082EA040083EA07
:100530000501084305D0101BAB4106D20122002360
:1005400006E000224FF0004302E06FF0010253107A
:100550001AEB06004CEB085110EB0A0041EB0B01C3
:10056000BDE8F04D00F0D3B80EB540F23341029132
:100570000021CDE900110A460B4600F0D7F803B080
:1005800000BDC1F30A5210B5C1F3130140F2FF33AD
:1005900041F480119A4201DA002010BD40F2334349
:1005A0009A42A2F2334203DC524200F057F810BDE7
:1005B000904010BD00F0004230F000400AD0C10D64
:1005C00001F56071C0F3160042EA0151C20840070C
:1005D0001143704700200146704701F0004330B4DA
:1005E00021F0004150EA010206D00A0DA2F5607226
:1005F000C1F31301002A02DC30BC00207047440F15
:1006000044EAC104C100E01830BC00EBC25000F065
:1006100047B830B50B46014600202022012409E0EE
:1006200021FA02F59D4205D303FA02F5491B04FAAB
:1006300002F52844151EA2F10102F1DC30BD202A8A
:1006400004DB203A00FA02F1002070479140C2F129
:10065000200320FA03F3194390407047202A04DB5B
:10066000203A21FA02F00021704721FA02F3D0402B
:10067000C2F120029140084319467047202A06DB48
:10068000CB17203A41FA02F043EAE07306E041FA60
:1006900002F3D040C2F1200291400843194670474E
:1006A0000029A8BF7047401C490008BF20F0010086
:1006B000704710B4B0FA80FC00FA0CF050EA010464
:1006C00004BF10BC704749B1CCF1200421FA04F4F6
:1006D00011FA0CF118BF012121430843A3EB0C01CF
:1006E000CB1D4FEA00614FEA102042BF002010BC32
:1006F000704700EBC35010440029A4BF10BC7047E2
:10070000401C490008BF20F0010010BC704710B524
:10071000141E73F1000408DA401C41F10001921824
:100720005B411A4301D120F0010010BD2DE9F04DCD
:1007300092469B4611B1B1FA81F202E0B0FA80F222
:1007400020329046FFF77BFF04460F4640EA0A003E
:1007500041EA0B0153465A46084313D0114653EA67
:10076000010019D0C8F140025046FFF777FF054657
:100770000E46504659464246FFF761FF084305D0F2
:10078000012004E020463946BDE8F08D00200543F5
:1007900046EAE0762C4337430A986305E40AA0EB67
:1007A00008000022FD0A44EA47540A3002D500201E
:1007B0000146E9E7010510196941DDE9084500191D
:1007C0006941BDE8F04DA2E7064C074D06E0E06840
:1007D00040F0010394E8070098471034AC42F6D388
:1007E000FFF7D6FCBC440008DC44000870B58C1848
:1007F00010F8015B15F0070301D110F8013B2A1135
:1008000006D110F8012B03E010F8016B01F8016B21
:100810005B1EF9D12B0705D40023521E0DD401F81D
:10082000013BFAE710F8013BCB1A921C03E013F8E6
:10083000015B01F8015B521EF9D5A142D8D300201B
:1008400070BD000038B50546134C0020FE2DA07089
:1008500020D02078F0B102F03DFE002818D004210D
:10086000684603F097FB042811D19DF80000A842C8
:100870000DD19DF80110022909D19DF80210801CAC
:100880000844C0439DF80320C0B2824201D000203A
:1008900038BDA170012038BD4C000020FEE7704734
:1008A0002DE9FF410027DDE90A4600978DF8000099
:1008B000FD208DF801008DF802100197100A8DF8C7
:1008C00003008DF804208DF80530200E8DF8060009
:1008D000200C0C9D8DF807000297200A8DF8080067
:1008E00003978DF809406B208DF80A608DF80C0095
:1008F0008DF80B500D21684603F042FDBDE8FF81E5
:100900001FB5002200928DF80000FE208DF8010036
:1009100098208DF8020001926B208DF803108DF85D
:100920000400029203920521684603F029FD1FBDD1
:100930001FB5002100918DF80000FF208DF8010007
:1009400066208DF802006B200191029103918DF8D1
:1009500003000421684603F013FD1FBD7FB5002589
:1009600000958DF80000F6208DF8010001958DF8B6
:100970000210089C100A8DF804208DF803008DF8F1
:1009800005308DF806406B208DF807000295039521
:100990000821684603F0F4FC7FBD72B6FEE72DE93E
:1009A000F0410446876D00F06DF9064694F8350075
:1009B0000025022806D08020606584F8345001208C
:1009C000BDE8F0812068016821F01601016020680F
:1009D000416921F080014161206C08B9A06C20B10F
:1009E0002068016821F0080101602068016821F099
:1009F000010101600CE000F045F9801B052807D9D2
:100A000020206065032084F8350084F83450D7E74F
:100A100020680068C007EED194F85C103F20884041
:100A2000B860012084F8350084F834500020C7E70E
:100A300090F83510022903D08021416501207047CC
:100A4000052180F835100068016821F0010101607E
:100A50000020704770B5044600F014F90546601C8C
:100A600002D004480078044400F00CF9401BA04276
:100A7000FAD370BD3C0000202DE9F84FDFF8BCA18F
:100A80000022012503264FF00F090AF1040BAAF1F9
:100A9000040E00BF0B6805FA02F42340A34270D194
:100AA0000F7907F00307012F01D0022F16D18768B5
:100AB0004FEA420806FA08FC27EA0C07D1F80CC0F6
:100AC0000CFA08FC4CEA070CC0F808C04768A743BA
:100AD0000C79C4F3001494403C4344600C79E44323
:100AE000A4070AD0C4684FEA420C06FA0CF7BC43CC
:100AF0008F6807FA0CF72743C7600C7904F00304EA
:100B0000022C12D1D40800EB840CDCF820405707EB
:100B1000FF0E09FA07F824EA0804D1F8108008FA51
:100B200007F848EA0408CCF8208004684FEA420C31
:100B300006FA0CF7BC430F7907F0030707FA0CF726
:100B4000274307604C6814F4403F70D03C4C276842
:100B500047F480472760246822F0030704F48044A8
:100B60000094384C07EB040CDCF8084897074FEA70
:100B7000177809FA08F7BC43334FB84202D100276F
:100B800024E054E0314FB84201D101271EE0304F3C
:100B9000B84201D1022719E02E4FB84201D10327F4
:100BA00014E02D4FB84201D104270FE02B4FB8427B
:100BB00001D105270AE02A4FB84201D1062705E0F6
:100BC000284FB84201D1072700E0082707FA08F7A5
:100BD0002743CCF80878DAF800405746D1F804C02B
:100BE0009C435FEACC2C00D51C433C60DBF8004002
:100BF0005F46D1F804C09C435FEA8C2C00D51C43AF
:100C00003C60DEF800407746D1F804C09C435FEAC0
:100C10008C3C00D51C433C60084F083F3C68D1F831
:100C200004C09C435FEACC3C00D51C433C60521C92
:100C3000102AFFF42FAFBDE8F88F0000083C0140F8
:100C400044380240003001400000024000040240ED
:100C500000080240000C0240001002400014024054
:100C600000180240001C0240426921EA02030A40C7
:100C700043EA0241816170470AB18161704709040A
:100C8000FBE7000001488068704700003C0000203E
:100C90000248816802781144816070473C0000205E
:100CA0000B4810B5016841F400710160016841F41E
:100CB00080610160016841F480710160032000F0EF
:100CC0006FF80F2000F006F800F024F8002010BDA7
:100CD000003C024070B50D4D04464FF47A712878FF
:100CE000B1FBF0F00A490968B1FBF0F000F00AFB33
:100CF00048B9102C07D200222146501E00F030F8CF
:100D000000206C6070BD012070BD00003C00002020
:100D1000480000200A4808B5016841F4804101609C
:100D2000006800F4804000900548001F016841F011
:100D300080510160006800F08050009008BD000004
:100D400044380240002809DB00F01F0201219140D5
:100D50004009800000F1E020C0F800117047000059
:100D6000F0B40E4B1B680C46C3F30223C3F1070516
:100D7000042D00D90425191D072901D2002300E004
:100D8000DB1E012606FA05F1491E214099409E40CE
:100D9000761E16403143F0BC02F08EBA0CED00E036
:100DA000064900F0070208684FF6FF03184040EAC2
:100DB0000220034A10430860704700000CED00E079
:100DC0000000FA052DE9F0470E46050065D0DFF872
:100DD0001481D8F80000F7B200F00700B04207D243
:100DE00088F80070D8F8000000F00700B04254D135
:100DF00028683D4C810712D5400703D5206840F490
:100E0000E05020602878000703D5206840F4604057
:100E100020602068A96820F0F0000843206028784E
:100E2000C0072DD0304968680839012812D002283F
:100E300013D0032811D00968890700292DDA216809
:100E400021F0030101432160FFF71CFF814641F2BD
:100E5000883A0EE009688903EFE709688901ECE741
:100E6000FFF710FFA0EB0901514502D90320BDE8AF
:100E7000F0872068696800F00C00B0EB810FEFD1BB
:100E8000D8F80010404601F00701B14207D90770B9
:100E9000006800F00700B04201D00120E7E72878A1
:100EA000400705D52068E96820F4E0500843206039
:100EB0002878000706D52068296920F4604040EAB8
:100EC000C100206000F038F82168084AC1F303111E
:100ED000515CC8400649086006480068FFF7FAFE02
:100EE0000020C4E7003C024008380240A444000847
:100EF00048000020400000200448054900680968B7
:100F0000044AC1F38221515CC84070474800002068
:100F100008380240B44400080448054900680968DC
:100F2000044AC1F34231515CC84070474800002078
:100F300008380240B4440008154810B5006810F0A5
:100F40000C02144813D04110042A0FD0082A0ED1E5
:100F50000F4C241F2268236802F03F025B0207D572
:100F60002068C0F38810A0FB010106E0084610BD10
:100F70002168C1F38811A1FB00010023FFF722F9CA
:100F80002168C1F30141491C4900B0FBF1F010BDDB
:100F9000083802400024F4002DE9F84F04006ED018
:100FA0002078DFF84C93C007A9F104054AD009F175
:100FB00004000168C1F38101012908D00068C0F371
:100FC000810002280AD1D9F80000400206D528681D
:100FD000800337D560680028E1D033E06068B0F561
:100FE000803F10D0B0F5A02F286810D020F48030BA
:100FF0002860286820F4802028606068A8B1FFF786
:1010000041FE06460DE0286840F48030F4E740F4E5
:1010100080202860F7E700BFFFF734FE801B6428BC
:1010200073D828688003F7D50CE0FFF72BFE06463F
:1010300005E000BFFFF726FE801B6428F0D8286873
:101040008003F7D42078DFF8AC8280074FF0000AE5
:101050003ED5A748001D016811F00C0F08D00068AC
:10106000C0F3810002280BD1D9F80000400207D458
:101070002868800716D5E068012800D112E033E126
:10108000E068B8B10120C8F80000FFF7FBFD064694
:1010900005E000BFFFF7F6FD801B0228C0D82868D6
:1010A0008007F7D52868216920F0F80040EAC100E0
:1010B00028600DE0C8F800A0FFF7E4FD064604E054
:1010C000FFF7E0FD801B02281FD828688007F7D4AF
:1010D0002078000722D5864F87486169703771B143
:1010E00001210160FFF7CEFD064604E0FFF7CAFDCF
:1010F000801B022809D838688007F7D50EE0C0F8B1
:1011000000A0FFF7BFFD064605E082E0FFF7BAFD4D
:10111000801B02287DD838688007F7D420784007E4
:1011200068D5DFF8CCB100270BF13C0BDBF80000F1
:10113000C0000BD4DBF8001041F08051CBF8001058
:10114000DBF80000012700F0805000906B4E306803
:10115000C00510D4306840F480703060FFF792FD15
:10116000009005E0FFF78EFD0099401A022850D844
:101170003068C005F6D55E4EA0686C3601280FD0E9
:101180000528306810D020F001003060306820F071
:1011900004003060A068B8B1FFF774FD00900FE064
:1011A000306840F00100F4E740F004003060F7E7F9
:1011B000FFF768FD0099411A41F28830814266D8F4
:1011C00030688007F4D50EE0FFF75CFD009007E083
:1011D000FFF758FD0099411A41F28830814256D8F4
:1011E00030688007F4D42FB1DBF8001021F0805173
:1011F000CBF80010A069C8B33D49091D0968C1F3C7
:10120000810102294AD00228504607D0C8F8600060
:1012100000E03CE0FFF736FD04463BE04746C8F8F7
:101220006000FFF72FFD064605E000BFFFF72AFD2F
:10123000801B02282BD828688001F7D4D4E9070145
:101240000843A16A2E4A490802EB0141626A41EA59
:101250008211084394F82C1040EA0161C9F800108B
:1012600001203866FFF70EFD044606E03EE000BFB1
:10127000FFF708FD001B022809D828688001F7D570
:1012800034E000BFFFF7FEFC001B022802D9032058
:10129000BDE8F88F28688001F4D427E00128F7D052
:1012A000D9F80000E26900F4800191421CD1226A61
:1012B00000F03F01914217D147F6C071626A0140C8
:1012C000B1EB821F10D1A26A4FF0FF3300F440311E
:1012D00003EB5202B1EB024F06D194F82C1000F050
:1012E0007060B0EB016F01D00120D1E70020CFE7A3
:1012F0000438024000004742800E47420070004020
:101300000000FFFF10B5401EB0F1807F01D3012027
:1013100010BD4FF0E02460610F21601701F0CCFF99
:101320000020A06107202061002010BD7047704799
:1013300070B590F83C20012A32D0012480F83C405E
:10134000022280F83D2003685A689D6822F07006EA
:101350000A6832435A60134B02689A4214D0B2F1C1
:10136000804F11D0104B9A420ED0104B9A420BD0A6
:101370000F4B9A4208D00F4B9A4205D00E4B9A421F
:1013800002D00E4B9A4204D1496825F080031943DC
:10139000916080F83D40002180F83C10084670BD07
:1013A000022070BD00000140000400400008004021
:1013B000000C0040000401400040014000180040C3
:1013C00010B5040003D094F83D0010B107E00120EF
:1013D00010BD002084F83C00204600F01FF80220D9
:1013E00084F83D00211D206801F084F9012084F873
:1013F000460084F83E0084F83F0084F8400084F8FA
:10140000410084F8420084F8430084F8440084F8E2
:10141000450084F83D00002010BD000008B50168BB
:101420001D48B1F1804F11D01C4A91421DD1016875
:1014300041F0020101600068002200F0020000900B
:1014400011461D20FFF78CFC1D201FE0016841F0B4
:10145000010101600068002200F0010000901146C7
:101460001C20FFF77DFC1C2010E00D4A914211D199
:10147000016841F0040101600068002200F00400EE
:10148000009011461E20FFF76BFC1E20BDE80840AF
:10149000FFF758BC08BD000040380240000400407F
:1014A0000008004090F83D10012901D0012070474C
:1014B000022180F83D100168CA6842F00102CA604A
:1014C00000681149884214D0B0F1804F11D00F4903
:1014D00088420ED00E4988420BD00E49884208D06F
:1014E0000D49884205D00D49884202D00C498842F6
:1014F00004D1816801F00701062903D0016841F099
:10150000010101600020704700000140000400401C
:1015100000080040000C0040000401400040014071
:101520000018004070B5044690F83C0000250128E2
:1015300017D0012684F83C60022084F83D00206822
:10154000826822F0770222F47F4282600868502885
:1015500038D00DDC20284FD005DC90B3102811D1F5
:101560004AE0022070BD302846D040280AD13BE036
:1015700060282FD070280DD0B0F5805F03D0B0F573
:10158000005F12D0012584F83D60002084F83C0003
:10159000284670BDCB68D1E90121206801F023F90C
:1015A0002068816841F0770109E0CB68D1E9012129
:1015B000206801F018F92068816841F48041816059
:1015C000E1E719E0CA684968206801F0E1F95021B3
:1015D000206806E0CA684968206801F0EAF96021DD
:1015E000206801F00AF9CEE7CA684968206801F06E
:1015F000CFF940212068F4E7226801461046F0E761
:1016000070472DE9F04104460068C66805694FF04F
:101610000007A90713D5B10711D5F91E01610120F3
:101620002077206880698007204602D0FFF7E8FF16
:1016300004E000F0A9F8204600F03BF9277768079E
:1016400016D5700714D521686FF0040008610220D8
:1016500020772068806910F4407F204602D0FFF791
:10166000CFFF04E000F090F8204600F022F9277741
:10167000280715D5300713D521686FF008000861D9
:10168000042020772068C0698007204602D0FFF739
:10169000B7FF04E000F078F8204600F00AF9277759
:1016A000E80616D5F00614D521686FF01000086121
:1016B000082020772068C06910F4407F204602D0BF
:1016C000FFF79EFF04E000F05FF8204600F0F1F81D
:1016D0002777E80708D0F00706D021686FF00100EF
:1016E0000861204600F04AF9280608D5300606D5DC
:1016F00021686FF0800008612046FFF717FE68063A
:1017000008D5700606D521686FF0400008612046B4
:1017100000F038FAA8060AD5B00608D521686FF09F
:10172000200008612046BDE8F041FFF700BEBDE89B
:10173000F081000010B586B0044614216846FEF71B
:1017400079FD0E492068884215D10D4800210268B4
:1017500042F008020260006800F0080005904FF4B3
:10176000704000900220CDE90101CDE903106946E7
:101770000448FFF781F906B010BD000000080040E2
:1017800030380240000C0240704770B5044690F8B3
:101790003C0000260D4601280FD0012084F83C00B3
:1017A0006AB1042A1DD0082A2FD00C2A3FD0012666
:1017B000002084F83C00304670BD022070BD2068D7
:1017C00001F024F82068816941F0080181612068F6
:1017D000816921F004018161206881692A691143CE
:1017E00011E0206801F042F82068816941F400614D
:1017F00081612068816921F480618161206881694B
:101800002A6941EA02218161D2E7206801F064F887
:101810002068C16941F00801C1612068C16921F0F7
:101820000401C1612068C1692A69114311E020687F
:1018300001F086F82068C16941F40061C161206847
:10184000C16921F48061C1612068C1692A6941EAE6
:101850000221C161ACE710B5040003D094F83D004B
:1018600010B107E0012010BD002084F83C002046A4
:1018700000F01EF8022084F83D00211D206800F0D1
:1018800039FF012084F8460084F83E0084F83F00C8
:1018900084F8400084F8410084F8420084F8430052
:1018A00084F8440084F8450084F83D00002010BD11
:1018B0007047704710B50446022249B104290ED082
:1018C000082913D094F84100012816D0012010BD3A
:1018D00094F83E000128F9D184F83E200FE094F8F6
:1018E0003F000128F2D184F83F2008E094F840003E
:1018F0000128EBD184F8402001E084F84120012246
:10190000206800F063FF16492068164A884201D01B
:10191000904203D1436C43F40043436420688842FF
:1019200013D0B0F1804F10D00F4988420DD00F492D
:1019300088420AD00E49884207D0904205D00D490E
:10194000884202D00C49884204D1816801F0070125
:10195000062903D0016841F001010160002010BD9B
:101960000000014000040140000400400008004065
:10197000000C004000400140001800402DE9F047F5
:1019800005460068724CB0F1804F18D16068401C69
:1019900060607048007808B101F094F960680A2826
:1019A0000DDB6D48007808B101F096F96B48FEF741
:1019B0004CFC82B232236949694800F019FC69493C
:1019C000286888427ED120680025401C2060A068DD
:1019D0004FF0010801283DD1606901282BD1E06951
:1019E000062801DA401CE0615F4E012805D1012183
:1019F00096ED000A002002F0D5FAE069022805D130
:101A0000022196ED000A002002F0CCFAE0690328DA
:101A100005D1032196ED000A002002F0C3FAE06927
:101A2000042805D1042196ED000A002002F0BAFA3C
:101A3000E069052803D0A069012808D00AE0052143
:101A400096ED000A002002F0ADFAC4F81880656136
:101A5000A561E561E068DFF8149101286AD1206989
:101A6000012867D16069012808D00022202148465A
:101A7000FFF702F9A069012857D05BE0012220217D
:101A80004846FFF7F9F8606A30B93A489FED380ADE
:101A9000C4F8248080ED000AE069062840DA401C82
:101AA000354E364FE061012808D194F82800012115
:101AB000D6ED000A97ED000A02F03EF9E06902282F
:101AC0000AD100E041E094F828000221D6ED000A96
:101AD00097ED000A02F030F9E069032808D194F884
:101AE00028000321D6ED000A97ED000A02F024F940
:101AF000E069042808D194F828000421D6ED000AF2
:101B000097ED000A02F018F9E069052808D194F869
:101B100028000521D6ED000A97ED000A02F00CF925
:101B2000E0690628A6D1C4F818802562656165625F
:101B3000A561E56112492068884206DD48462560B6
:101B4000BDE8F0472021FFF78FB8BDE8F08700001F
:101B500014010020F2000020F40000208604002080
:101B60004403002000040040E4000020000802407C
:101B70000000C842E8000020E0000020DC00002057
:101B8000A08601007047704770470000F8B50168F3
:101B900004460868CA684B6910F00F0F4FF0000543
:101BA00059D003F0010602F49077374365D0C1079E
:101BB00005D0D10503D5616C41F001016164410795
:101BC00005D5D90703D0616C41F00201616481073A
:101BD00005D5D90703D0616C41F0040161640107A8
:101BE00007D502F02001314303D0616C41F00801B8
:101BF0006164616C00293AD0800604D5900602D554
:101C0000204600F024FF20684069616CC0F380101A
:101C1000090700D460B3204600F0F2FE2068406956
:101C2000400621D52068143050E8001F21F0400103
:101C300040E80012002AF5D1E06BA8B16E490165B9
:101C4000E06BFEF7F5FE002811D0E06B016D01B0EE
:101C5000BDE8F040084783060FD593060DD5204612
:101C6000BDE8F84000F0F3BE2046FFF78DFFF8BD59
:101C70002046FFF789FF6564F8BD266B2023012EFF
:101C80007DD1C6067BD5D60679D508684868009010
:101C900048694FF00206400641D5E16B086840688C
:101CA0000004000CE8D0A28D8242E5D9E085C86925
:101CB000B0F5807F2DD020680C3050E8001F21F453
:101CC000807140E80012002AF5D12068143050E8F5
:101CD000001F21F0010140E80012002AF5D1206820
:101CE000143050E8001F21F0400140E80012002AA3
:101CF000F5D184F84230256320680C3050E8001F8D
:101D000021F0100140E80012002AF5D1E06BFEF747
:101D100046FE6663A08DE18D401A81B22AE0A08D57
:101D2000E18D401A81B2E08D0028A5D00029A3D012
:101D300022680C3252E8000F20F4907042E800074D
:101D4000002FF5D12068143050E8002F22F0010256
:101D500040E80027002FF5D184F842302563206841
:101D60000C3050E8002F22F0100240E80023002B36
:101D7000F5D166632046FFF706FFF8BDFFE70506CD
:101D80002BD5150629D594F841002128F5D1A06856
:101D9000B0F5805F01D12069B0B1206A411C216299
:101DA000216800784860E08C401E0004000CE0844C
:101DB000E3D12068C16821F08001C1602068C1685A
:101DC00041F04001C160D8E7206A0088C0F30800F4
:101DD0004860206A801C2062E5E74006CDD55006A9
:101DE000CBD5CA68204622F04002CA6084F8413050
:101DF00000F04EFAC1E70000F129000870B50400B8
:101E000004D094F84100002510B106E0012070BD17
:101E100084F84050204600F023F8242084F8410044
:101E20002068C16821F40051C160204600F070FEB6
:101E30002068016921F4904101612068416921F025
:101E40002A0141612068C16841F40051C1606564A4
:101E5000202084F8410084F842006563002070BDB2
:101E60002DE9F04186B0044614216846FEF7E2F9F8
:101E70006E49DFF8B4C1236800246C4A1039032589
:101E8000022608276A4863451ED1136843F40023DD
:101E90001360126802F4002205920A6842F00102FF
:101EA0000A600968CDE9005601F00101CDE904712D
:101EB0006946CDE90245FEF7DFFD002211463420D8
:101EC000FEF74EFF342038E0DFF868C1DFF86881A4
:101ED000634537D1106840F480101060106800F43A
:101EE00080100590086840F004000860086800F061
:101EF00004000590086840F008000860086802AB1C
:101F000000F0080005904FF48050CDE9000683E80A
:101F1000B00069464948FEF7AFFD0420CDE9000650
:101F200002AB694683E8B0004046FEF7A5FD0022FB
:101F300011463520FEF714FF3520FEF703FF06B0EB
:101F4000BDE8F081DFF8F8C00727634522D1374AA2
:101F5000121D136843F010031360126802F01002A0
:101F600005920A6842F001020A60096802AA01F0BB
:101F7000010105914FF4C061CDE9001682E8B0007F
:101F80006946FEF779FD002211462520FEF7E8FE9E
:101F90002520D2E72B48834220D1106840F400303E
:101FA0001060106800F400300590086840F00800E8
:101FB0000860086802AB00F0080005906020CDE9D9
:101FC000000683E8B00069464046FEF755FD002252
:101FD00011462620FEF7C4FE2620AEE71A488342AB
:101FE000ADD1106840F480201060106800F48020AB
:101FF0000590086840F002000860086802AB00F035
:10200000020005904FF44060CDE9000683E8B0007F
:1020100069460E48FEF730FD002211462720FEF7E4
:102020009FFE272089E70000004C00404038024016
:102030000000024000500040000C02400008024036
:1020400000100140004400400048004000040240ED
:102050002DE9F84F044690F842009A4616460D4680
:10206000202802D00220BDE8F88FB5B1AEB1002023
:102070006064222184F842102063FEF703FEA685E7
:102080008146E685A0684FF480582027404501D15D
:10209000206920B12E46002529E00120E3E7002633
:1020A00025E04B46002220212046CDF800A000F07C
:1020B000D0FD18B184F842700320D4E726B1A0689F
:1020C00040451AD038B108E020684068C0F30800E5
:1020D00025F8020B08E0206978B12068406800F01C
:1020E0007F0000BF06F8010BE08D401EE085E08D0B
:1020F0000028D6D184F84270B5E720684068F1E73F
:1021000090F84230202B01D00220704721B11AB143
:102110000023036300F082BD012070472D4930B4D5
:10212000CB790022802B00D3CA714B79322B00D39C
:102130004A718B79322B00D38A710B7A322B00D300
:102140000A724B7A322B00D34A72234CCA798B78AD
:10215000A354521CCA714A79643C0B78A354521C94
:102160004A718A7932344B78A354521C8A710A7AA4
:10217000B234CB78A354521C0A724A7A32340B79A7
:10218000A354521C4A72154A0168914202D101229D
:1021900010491AE0124A914203D10E490122491C0A
:1021A00013E0104A914203D10A490122891C0CE034
:1021B0000D4A914203D107490122C91C05E00B4A8F
:1021C000914205D103490122091D30BCFFF798BF98
:1021D00030BC7047EC000020B804002000440040F0
:1021E0000048004000100140004C004000500040FA
:1021F0002DE9F843044690F84100984616460D46EE
:10220000202802D00220BDE8F88385B17EB10020ED
:102210006064212084F84100FEF734FDA6848146E5
:10222000E684A0682027B0F5805F02D003E001209B
:10223000E9E7206910B12E4600250EE000260CE0EB
:102240008021204600F005FDA8B9C6B116F8010BA3
:1022500021684860E08C401EE084E08C4B464FF0E3
:102260000002CDF800800028EAD14FF0400120465E
:1022700000F0EFFC40B184F841700320C3E735F86B
:10228000020BC0F30800E3E784F841700020BAE7CE
:102290007047FEE7064B10B55C78C2F30723D2B255
:1022A00014B103700A7010BD0B70027010BD0000F5
:1022B0004C000020F0B587B014216846FDF7BAFF46
:1022C00025480025016841F080010160016801F0A6
:1022D00080010591016841F001010160016801F090
:1022E00001010591016841F004010160016801F0FC
:1022F00004010591016841F002010160016801F0EB
:1023000002010591016841F0080101600068134E67
:1023100000F008000590002220213046FEF7ACFCBA
:102320000F4F002204213846FEF7A6FC012420208E
:10233000CDE9000469463046CDE90245FEF79CFB35
:102340000420CDE9000469463846CDE90245FEF790
:1023500093FB07B0F0BD0000303802400008024097
:102360000004024010B586B000241848009401947F
:102370000294039404944FF080410594016040F26C
:102380008F61C0E901144FF47A71C0E90314802110
:102390008161FFF715F808B1FEF7FFFA4FF480509E
:1023A000009069460948FFF7BDF808B1FEF7F5FA55
:1023B0002020CDE9040404A90448FEF7B9FF002851
:1023C00001D0FEF7EAFA06B010BD00004C01002073
:1023D00010B586B000241848009401940294039428
:1023E000049414490594016040F28F61C0E901141E
:1023F0004FF47A71C0E9031480218161FEF7E0FF98
:1024000008B1FEF7CAFA4FF48050009069460A48B6
:10241000FFF788F808B1FEF7C0FA2020CDE90404E0
:1024200004A90548FEF784FF002801D0FEF7B5FA9D
:1024300006B010BD000400409401002010B58EB01D
:1024400000240794089409940A940B941C2168466C
:102450000C94FDF7EFFE2B482949016040F28F6193
:10246000C0E9011440F2E731C0E903148461FEF7CA
:10247000A7FF08B1FEF791FA4FF48050079007A923
:102480002048FFF74FF808B1FEF787FA1D48FFF71D
:10249000E2F908B1FEF781FA0B940BA919480C94E4
:1024A000FEF746FF08B1FEF778FA6020CDE9000498
:1024B00002940022694613480494FFF766F908B1B4
:1024C000FEF76BFA042269460E48FFF75EF908B181
:1024D000FEF763FA082269460A48FFF756F908B181
:1024E000FEF75BFA0C2269460648FFF74EF908B181
:1024F000FEF753FA0348FFF71DF90EB010BD0000B8
:1025000000080040DC0100200C4810B50A490160B9
:102510004FF4E1314160002181600C22C160C0E9CB
:1025200004128161C161FFF769FC002803D0BDE896
:102530001040FEF732BA10BD004C004024020020CB
:102540000C4810B50A4901604FF416514160002152
:1025500081600C22C160C0E904128161C161FFF792
:102560004DFC002803D0BDE81040FEF716BA10BDA0
:10257000005000406C0200200C4810B50A49016070
:102580004FF4E1314160002181600C22C160C0E95B
:1025900004128161C161FFF731FC002803D0BDE85E
:1025A0001040FEF7FAB910BD00100140B40200203F
:1025B0000C4810B50A4901604FF4E1314160002137
:1025C00081600C22C160C0E904128161C161FFF722
:1025D00015FC002803D0BDE81040FEF7DEB910BDA1
:1025E00000440040FC0200200C4810B50A4901607C
:1025F0004FF4E1314160002181600C22C160C0E9EB
:1026000004128161C161FFF7F9FB002803D0BDE826
:102610001040FEF7C2B910BD00480040440300203E
:10262000FEE7FEE770477047FEF732BB30B593B068
:1026300030216846FDF7FEFD14210CA8FDF7FAFDD8
:102640001D480025016841F080510160006800F0DC
:10265000805011901948016841F480410160006880
:10266000022400F4804011900120009000040190A9
:102670008001CDE9064008AA0420A82182E81300C1
:102680000B906846FEF788FC08B172B6FEE70CA90D
:102690000F2081E831004FF4A0500F904FF480508C
:1026A000109005210CA8FEF78DFB002801D072B612
:1026B000FEE713B030BD000040380240007000401B
:1026C0000248016841F470010160704788ED00E044
:1026D0000148FEF796BF00004C0100200148FEF7BC
:1026E00090BF0000940100200148FEF78ABF00005F
:1026F000DC010020F0B50268294C2A4D2A4E2B4FF0
:102700002B4B4FF0804CA04209D0604507D0A84227
:1027100005D0B04203D0B84201D0984204D122F093
:10272000700E4A6842EA0E02A0421BD0604519D0E2
:10273000A84217D0B04215D0B84213D0984211D059
:102740001C4DA8420ED01C4DA8420BD01B4DA842D8
:1027500008D01B4DA84205D01A4DA84202D01A4DF0
:10276000A84203D122F44075CA682A434D6922F079
:1027700080022A4302608A68C2620A688262A042BA
:1027800001D0984201D109690163012141610169C8
:10279000C90703D0016921F001010161F0BD00000A
:1027A000000001400004004000080040000C004010
:1027B0000004014000400140004401400048014045
:1027C00000180040001C00400020004010B501F03F
:1027D0001F030121046A99408C430462016A9A40F4
:1027E0001143016210BD10B5846842EA032224F44B
:1027F0007F440A432243826010BD826822F0700247
:102800000A4342F00701816070470000F0B5036A97
:10281000026A22F00102026242688469124E24F0C8
:1028200073050C682C4323F002058B682B430D4D78
:10283000A84201D0B04205D123F00807CB683B4342
:1028400023F00403A84201D0B04205D14D6922F41F
:10285000407215438A692A43426084614968416332
:102860000362F0BD0000014000040140F0B5026ABF
:10287000036A23F010030362436884690D6824F43B
:10288000E64444EA05248D6822F0200242EA05125B
:102890000F4D104EA84201D0B04206D1CF6822F0B1
:1028A000800242EA071222F04002A84201D0B04260
:1028B00007D14D6923F4406343EA85038D6943EAF8
:1028C000850343608461496881630262F0BD000052
:1028D0000000014000040140F0B5026A036A23F4DD
:1028E000807303624368C46922F4007224F07305A4
:1028F0000C68124E2C438D6842EA05220E4DA84208
:1029000001D0B04206D1CF6822F4006242EA072229
:1029100022F48062A84201D0B04207D14D6923F46D
:10292000405343EA05138D6943EA05134360C461CC
:102930004968C1630262F0BD00000140000401402B
:1029400030B5046A026A22F4805202624268C369A6
:102950000D6823F4E64343EA05238D6824F400540C
:1029600044EA0534084DA84202D0084DA84204D1DB
:102970004D6922F4804242EA85124260C36149688F
:102980000164046230BD0000000001400004014009
:1029900010B5036A046A24F001040462846924F017
:1029A000F00444EA021423F00A020A43846102623A
:1029B00010BD10B5036A046A24F01004046284692F
:1029C00023F0A00324F4704444EA023243EA0111E4
:1029D0008261016210BD00000148FFF7D7B8000016
:1029E000240200200148FFF7D1B800006C0200204B
:1029F00010B5806B0021C185C184FFF7C5F810BDFB
:102A000001680C3151E8002F22F4907241E8002354
:102A1000002BF5D10168143151E8002F22F001029A
:102A200041E80023002BF5D1016B012909D1016890
:102A30000C3151E8002F22F0100241E80023002B56
:102A4000F5D1202180F8421000210163704708B5BC
:102A500090F84210222901D0022008BD82684FF46C
:102A600080539A4201D1016921B1816A9A421BD0F7
:102A70004AB10AE00268816A5268C2F308020A8019
:102A8000816A891C08E0026972B10268526802F02A
:102A90007F020A70816A491C8162C18D491E090446
:102AA000090CC18503D01BE002685268F1E7016898
:102AB000CA6822F02002CA600168CA6822F48072E3
:102AC000CA6001684A6922F001024A61202180F847
:102AD000421000214163026B012A03D0FFF71EFB65
:102AE000002008BD016301680C3151E8002F22F07D
:102AF000100241E80023002BF5D101680A68D206D4
:102B000002D50A6849680091818DFFF73CF8E7E734
:102B100070B5044600680169E26821F44051114330
:102B200001612169A068E2690843616911430843B2
:102B30002168CA6849F20C639A430243CA6020685C
:102B40004169A26921F44071114341613149206812
:102B5000884202D03049884202D1FEF7DDF901E017
:102B6000FEF7CAF9E2690023192164253226B2F57D
:102B7000004F626828D0A0FB0101930F9200FDF77F
:102B800021FB0146B0FBF5F06FF01802504301EB5A
:102B9000800006EB0010B0FBF5F000F0F002B1FB96
:102BA000F5F002EB0012B1FBF5F06FF0180358439B
:102BB00001EB800006EB0010B0FBF5F000F00F0019
:102BC00021681044886070BDA0FB010192185B4130
:102BD000FDF7F8FA0146B0FBF5F00201B1FBF5F0A4
:102BE0006FF01803584301EB800006EBC000B0FB08
:102BF000F5F000F0F80002EB4002B1FBF5F05843AD
:102C000001EB800006EBC000B0FBF5F000F0070020
:102C1000D6E7000000100140001401408162828567
:102C2000C28500214164222180F84210016921B14E
:102C30000168CA6842F48072CA6001684A6942F059
:102C400001024A610068C16841F02001C1600020B2
:102C500070472DE9F843984617460D460446089EEE
:102C600024E0701C22D0FEF70DF8A0EB0800B04263
:102C70001AD8CEB12068C168490717D5802D15D064
:102C8000402D13D00168C94309070FD401680025FE
:102C9000406800902046FFF7B3FE0820606484F887
:102CA00040500120BDE8F8830320FBE7206800685E
:102CB00035EA000004D00020B842D2D00020F1E76D
:102CC0000120F9E703488079002801D000F00EB810
:102CD00070470000EC0000200348007A002801D073
:102CE00000F0F0B970470000EC0000202DE9F05F23
:102CF000DFF874932DED108B99F80600002875D03D
:102D0000DA484FF0010CDA4EDA4CC0F800C03568F2
:102D100060782278022D15DA092A13D1092811D1F9
:102D2000D54F0221635C012B03D0022B01D0032B72
:102D300003D107EB810848F8083C491C0829F1DB5E
:102D40006D1C3560CD490968002701290DD1CC499A
:102D5000072A04D0082A05D0092A14D005E0C1F8B2
:102D600000C001E002220FE02770C64AC6499FED6D
:102D7000C7EA13684FF07C58F6EE00EABEEE00FAA0
:102D8000012B03D007E003220A60EDE72378012B33
:102D900007D0022B1AD02378272B31D0282B32D002
:102DA00032E00A2802D9B2EE040A26E000EE100A48
:102DB000B8EE400A10EE102A424502DAC1ED00EAF0
:102DC00022E000EE100AB8EE400A16E00A2802D906
:102DD000BAEE040A11E000EE100AB8EE400A10EE56
:102DE000102A424503DA81ED00FA0DE038E100EEE9
:102DF000100AB8EE400AB1EE400A81ED000A03E085
:102E000081ED00EA00E01760DFF884B2A14EA24D28
:102E1000DBF8001001297CD1D9B2012902D00229A6
:102E200005D00CE000EE100AB8EE400A05E000EE16
:102E3000100AB8EE400AB1EE400A86ED000A8D484D
:102E4000A178C078012902D0022905D00CE000EE5B
:102E5000100AB8EE400A05E000EE100AB8EE400A8B
:102E6000B1EE400A85ED000A3068FDF7A3FB9FED47
:102E70008B9B53EC192BFDF796FAFDF7AEFB08EE92
:102E8000100A2868FDF796FB53EC192BFDF78BFA17
:102E9000FDF7A3FB38EE080AF0EE00FA08EE900A00
:102EA00089ED048AB0EE40AA08EE6F0AC9ED078AE0
:102EB00089ED058AC9ED088A89ED068AC9ED098A76
:102EC00010EE100AFDF776FB9FED769B53EC192B65
:102ED000FDF769FA9FED75CB53EC1C2BFDF763FAF8
:102EE0003AEE080A41EC1B0B10EE100AFDF762FBEC
:102EF00053EC192BFDF757FA41EC1A0B18EE100A98
:102F0000FDF758FB9FED6BDB53EC1D2BFDF74BFAE8
:102F100000E08CE053EC1A2BFDF79EF953EC1B2BD1
:102F2000FDF79AF9FDF759FB38EEA80A82463060A2
:102F300008EEEF0A10EE100AFDF73CFB53EC192BDC
:102F4000FDF731FA53EC1C2BFDF72DFA38EE880A09
:102F500041EC1A0B30EE080A10EE100AFDF72AFBBE
:102F600053EC192BFDF71FFA41EC190B18EE900AE0
:102F7000FDF720FB53EC1D2BFDF715FA53EC192B35
:102F8000FDF76AF953EC1A2BFDF766F9FDF725FBFF
:102F90004A4AB1EE040A2860924501DD86ED000A36
:102FA000904201DD85ED000A45483168B9EE040A1A
:102FB000814201D986ED000A2968814201D985ED57
:102FC000000A96ED000A10EE100A404506DAB5EE4A
:102FD000C00AF1EE10FA01DDC6ED00EA95ED000A37
:102FE00010EE100A404506DAB5EEC00AF1EE10FA0E
:102FF00001DDC5ED00EA96ED000A4FF03F4110EE0D
:10300000100A884206D2B5EEC00AF1EE10FA01D2DB
:1030100086ED00FA95ED000A10EE100A884206D2FD
:10302000B5EEC00AF1EE10FA01D285ED00FA207873
:10303000172802D018280ED003E086ED00EA85EDAF
:1030400000EA89F806703221BDEC108BBDE8F05F14
:103050000848FDF7EFB8CBF80070C9F80C70ECE742
:10306000BDEC108BBDE8F09FEC0000202801002093
:1030700038000020860400202000002014000020DA
:10308000180000201C010020E400002000000000C7
:1030900020010020DC000020E00000209A9999998E
:1030A0009999B93F7B14AE47E17A843F0000000054
:1030B0000000E03F9A9999999999D93F0000A04062
:1030C0000000A0C010B5214C217A00293CD000207E
:1030D0001F4A07E0135C552B03D113185B78532B61
:1030E00002D0401C8842F5DB884225DA1044C088B3
:1030F000FDF73AFA9FED171B53EC112BFDF753F92F
:103100009FED161B53EC112BFDF74DF9FDF765FAFA
:1031100000EE100A1348144A80ED000A90ED000AF0
:1031200010EE101A914207DD90ED000ADFED0F0A54
:1031300030EE600A80ED000A00202072BDE81040E9
:1031400032210348FDF776B810BD0000EC000020E6
:1031500038050020000000000080664000000000EC
:103160000000003F00000020000034430000B44392
:103170000148FEF70BBD0000B40200200148FEF735
:1031800005BD0000FC0200200148FEF7FFBC000066
:1031900044030020F0B585B0054602262020CDE985
:1031A000000600240320CDE9024007200E4F0490C2
:1031B00069463846FDF760FC4020CDE900066946C7
:1031C0003846FDF759FC0A4908480860C1E901542E
:1031D0000C20CC60C1E904408C610846CC61FEF74C
:1031E0000DFE05B0F0BD0000000C024000440040A0
:1031F0000C04002010B513460C460A46014604484C
:10320000FEF726FF08B1002010BD20B210BD00005F
:103210000C0400200A4601464FF0FF330148FEF738
:10322000E7BF00000C040020FEE77CB5154606460B
:10323000002903DA484240F4004001B26C460A46D5
:10324000601C8DF80030411CFFF724F80022211D7E
:10325000E01CFFF71FF82A46A11D601DFFF71AF8B2
:1032600007236A462921304600F0FEFA7CBD0000A3
:103270000FB4054B10B503A9044A029800F03CF8BE
:1032800010BC5DF814FB000001380008400100206C
:103290000FB4084B10B504A902AA039800F02CF84B
:1032A000044602A9002000F003F9204610BC5DF896
:1032B00014FB0000B13400080907090E002804DBE4
:1032C00000F1E02080F80014704700F00F0000F1DA
:1032D000E02080F8141D704702E008C8121F08C1E2
:1032E000002AFAD170477047002001E001C1121F87
:1032F000002AFBD1704700002DE9FF4F8BB09A46A2
:103300000F460546002606E025280BD052460D99AB
:1033100090476D1C761C28780028F5D10FB03046F8
:10332000BDE8F08F0024A0460122604900E004437C
:1033300015F8013F203B02FA03F00842F7D1287844
:103340002E2817D115F8010F44F004042A280ED0B6
:103350006FF02F022878A0F1300109290AD808EB74
:10336000880102EB410100EB01086D1CF2E757F800
:10337000048B6D1C287869283ED006DC0028CDD04F
:1033800063280BD0642804D136E0732810D0752848
:103390004BD052460D999047761C85E017F8040BE8
:1033A0008DF8000000208DF80100E946012003E0BF
:1033B00057F8049B4FF0FF3061074FF0000401D431
:1033C0000AE0641C44450DDA8442FADB19F8041063
:1033D0000029F6D106E0641C8442FCDB19F80410D5
:1033E0000029F8D1264404E019F8010B52460D9942
:1033F0009047641EF8D257E001CF4FF00A0B002827
:1034000002DA40422D2102E0210504D52B218DF85E
:103410002410012103E0E10705D02021F7E70DF199
:10342000200908910CE00021F9E701CF4FF00A0BC9
:10343000F9E75946FDF7EDF801F1300209F8012DE1
:103440000028F6D1ADEB090000F1200B600701D494
:103450004FF00108D84502DDA8EB0B0000E000208A
:103460008046002406E009A85246005D0D99904769
:10347000641C761C08988442F5DB04E03020524638
:103480000D999047761CB8F10001A8F10108F5DC10
:1034900005E019F8010B52460D999047761CBBF1D7
:1034A0000001ABF1010BF4DC6D1C34E709280100CD
:1034B0000A68531C0B60107070470000044840F607
:1034C000FF72037EB0F8440001B2042000F096B908
:1034D0006800002038B5002425460121684600F028
:1034E00059FD00280FD09DF80010E0B260F30F24C2
:1034F00061F30704FF2901D1FF2805D06D1CEDB24F
:103500000A2DEAD9002038BD012038BD04484FF407
:103510007A62037E808E01B2022000F06FB9000053
:103520006800002070B52A4D284CDFED2A0A2DEDE9
:10353000028B95ED000A20889FED278ABCEEC00A19
:1035400081B210EE100AB0EE480AC0B200F088FA5C
:1035500040F6B830FDF77EFA95ED000A5A22BCEE2F
:10356000C00A10EE100AC1B2A08880B200F0B4FD0B
:1035700040F69800FDF76EFA95ED000A2088DFED21
:10358000170ABCEEC00A81B210EE100AB0EE480A6B
:10359000C0B200F065FA40F6C410FDF75BFA95ED95
:1035A000000A2088BCEEC00A81B210EE100AB3EE09
:1035B000020AC0B2F0EE400A00F052FABDEC028BF3
:1035C0004FF4FA60BDE87040FDF744BA04000020F3
:1035D000D8000020000031C30000000000009A4223
:1035E00030B52D4D2B4C2DED028B85B095ED000A9D
:1035F00020889FED2A8ABCEEC00A81B2F0EE480A0C
:1036000010EE100A9FED260AC0B200F029FA40F22F
:10361000DC50FDF71FFA95ED000AB422BCEEC00A9B
:1036200010EE100AC1B2A08880B200F055FD40F241
:10363000A460FDF70FFA95ED000A2088DFED190A66
:10364000BCEEC00A81B210EE100AB0EE480AC0B259
:1036500000F006FA40F6AC50FDF7FCF9062000F049
:10366000C9F90C4A04461C3255691369D16890683F
:103670008DE82B00536812680BA12046FFF708FE67
:1036800005B02146BDEC028B0BA0BDE83040FFF732
:10369000EFBD000004000020D80000200000000062
:1036A0000000184200002E4325642564256425642B
:1036B000256425640000000074302E7478743D2267
:1036C000257322FFFFFF000070B5214D1F4CDFED79
:1036D000210A2DED028B95ED000A20889FED1E8AB0
:1036E000BCEEC00A81B210EE100AB0EE480AC0B2B9
:1036F00000F0B6F940F69800FDF7ACF995ED000A38
:103700005A22BCEEC00A10EE100AC1B2A08880B2E4
:1037100000F0E2FC40F2DC50FDF79CF995ED000A68
:103720002088DFED0E0ABCEEC00A81B210EE100A4E
:10373000B0EE480AC0B200F093F9BDEC028B4FF432
:10374000FA60BDE87040FDF785B900000400002074
:10375000D80000200000AAC2000000000000A8421B
:1037600070B5214C214D5A222DED028B94ED000AAB
:10377000BCEEC00A10EE100AC1B2A88880B200F0F8
:10378000ABFCFFF79BFE40F2DC563046FDF762F9DA
:1037900094ED000A28889FED178ABCEEC00A81B21A
:1037A000DFED130A10EE100AB0EE480AC0B200F0C6
:1037B00057F940F6C410FDF74DF994ED000A28883A
:1037C000F0EE480ABCEEC00A81B210EE100A9FED7E
:1037D0000A0AC0B200F044F9BDEC028B3046BDE8E5
:1037E0007040FDF737B90000D80000200400002029
:1037F0000000B2420000000000003442FFF715BD97
:1038000013B54FF6FF73012269460248FEF7F0FC3C
:1038100000981CBD6C02002010B5002821D0114B6F
:103820000022001F196803E0814203D80A46496854
:103830000029F9D152B11368841A9C4204D100685E
:1038400018441060104602E0506000E0186039B182
:1038500002680B1A934203D10B681A44026049684C
:10386000416010BD44010020F8B51C4615460E46C7
:10387000074600F08DFB0320009023462A46314680
:10388000384600F0B1FD00F091FD3846BDE8F84043
:10389000FCF7D8BF10B510EE100AFCF78BFE9FEDB9
:1038A000081B53EC112BFCF7F0FD9FED071B53ECAD
:1038B000112BFCF778FDBDE81040FCF762BE00005C
:1038C0003333333333333F40000000000000A9405E
:1038D000FDF7E6F9FEF7AAFEFEF7ECFCFEF74CFE5C
:1038E000FEF766FEFEF780FEFEF73CFDFEF770FD7C
:1038F000FEF7A4FDFEF724FEFEF706FE0122344982
:103900003448FEF7FDFB012233493448FEF7F8FB4B
:10391000012233493348FEF7F3FB3348FDF7C2FD7C
:103920003248FDF7BFFD00213148FDF7C3FF0421F8
:103930002F48FDF7BFFF08212D48FDF7BBFF0C21E5
:103940002B48FDF7B7FF4FF47A70FDF783F800F0CE
:10395000FFFAFFF7B3FD012000F038FD00F00CFB8B
:10396000FFF7D4FD00F0FEFA00F038FC4FF47A6463
:103970002046FDF76FF8FFF733FE2046FDF76AF8A3
:10398000FFF79CFDFFF79AFDFFF79EFE2046FDF72F
:1039900061F8FFF793FDFFF7E3FE2046FDF75AF8C5
:1039A000FFF78CFD00F0DEFAFFF71AFE2046FDF768
:1039B00051F8FFF783FDFFF781FDFFF785FE2046F5
:1039C000FDF748F8FFF7AEFD6420FDF743F8FBE78D
:1039D000ED00002044030020EF000020240200201E
:1039E000F00000206C0200204C0100209401002017
:1039F000DC010020F0B50B30154D20F0070100244C
:103A0000144A0FE003688B420BD38B4205D95E1A30
:103A100043184768C3E9006700E04368136002C0C9
:103A200004E0021D10680028ECD12046002802D1D5
:103A3000286808B10020F0BD064A07481060074A10
:103A4000121A22F00702C0E9002401202860D7E7FB
:103A50004801002044010020A4050020A007002008
:103A6000F0B5B5EEC00A2DED028B70EE608A30EE37
:103A7000208A00240125F1EE10FA83B00E46074695
:103A800042DBF5EEC00AF1EE10FA3DDBB0EE480A7B
:103A9000FFF700FF8DE831003B4632460021012050
:103AA000FCF7FEFE0A20FCF7D5FFB0EE480AFFF750
:103AB000F1FE8DE831003B46324601210420FCF73F
:103AC000EFFE0A20FCF7C6FFF5EEC08AF1EE10FA11
:103AD00011DBB0EE680AFFF7DDFE8DE831003B46F2
:103AE000324600210220FCF7DBFE0A20FCF7B2FF81
:103AF000B0EE680A19E1B1EE680AB0EE408AECE077
:103B00008DE83100032044E0B5EEC00AF1EE10FA72
:103B10004FDBF5EEC00AF1EE10FA4AD2B0EE680AB9
:103B2000FFF7B8FE8DE831003B4632460021022007
:103B3000FCF7B6FE0A20FCF78DFFB0EE680AFFF72F
:103B4000A9FE8DE831003B46324601210320FCF7F7
:103B5000A7FE0A20FCF77EFFB5EEC08AF1EE10FA50
:103B600011DBB0EE480AFFF795FE8DE831003B46C9
:103B7000324600210120FCF793FE0A20FCF76AFF81
:103B8000B0EE480A57E0B1EE480A5CE08DE831003B
:103B90000420FCF785FE0A20FCF75CFF0020FCF700
:103BA000C7FE03B00A20BDEC028BBDE8F040FCF775
:103BB00051BF30EEC08AB5EEC00AF1EE10FA59D20C
:103BC000F5EEC00AF1EE10FA54DB70EE808AB0EE2A
:103BD000480AFFF75FFE8DE831003B46324601217F
:103BE0000220FCF75DFE0A20FCF734FFB0EE480A25
:103BF000FFF750FE8DE831003B463246002103209E
:103C0000FCF74EFE0A20FCF725FFF5EEC08AF1EE28
:103C100010FA16DBB0EE680AFFF73CFE8DE83100C3
:103C20003B46324600210120FCF73AFE0A20FCF711
:103C300011FFB0EE680AFFF72DFE3B463246012128
:103C4000A4E7B1EE680AB0EE408AFFF723FE8DE8E4
:103C5000310001213B4632460846FCF721FE0A208E
:103C6000FCF7F8FEB0EE480AFFF714FE3B4632467A
:103C700000218BE7B5EEC00AF1EE10FA8ED2F5EE18
:103C8000C00AF1EE10FA89D2B1EE400A70EE608AF5
:103C9000B0EE680AFFF7FEFD8DE8310001213B46DA
:103CA00032460846FCF7FCFD0A20FCF7D3FEB0EED6
:103CB000680AFFF7EFFD8DE831003B4632460021F0
:103CC0000420FCF7EDFD0A20FCF7C4FEB5EEC08A27
:103CD000F1EE10FA16DBB0EE480AFFF7DBFD8DE8D7
:103CE00031003B46324601210220FCF7D9FD0A2073
:103CF000FCF7B0FEB0EE480AFFF7CCFD3B4632467B
:103D00000021FDE6B1EE480AB0EE408AFFF7C2FDA1
:103D10008DE831003B46324600210220FCF7C0FD11
:103D20000A20FCF797FEB0EE480AFFF7B3FD3B46CA
:103D300032460121E4E6000070EE602A30EE202ACF
:103D4000B5EEC00A0122FCEEE21ABCEEC21A08B5BA
:103D5000F1EE10FA37DBF5EEC00AF1EE10FA32DBC5
:103D600030EE600A0629B1EE400ABCEEC00A29D244
:103D7000DFE801F02803070B18E911EE101A009292
:103D80007BE011EE101A00928AE0F5EEC02AF1EE07
:103D900010FA03DB11EE901A0092BEE010EE101A3A
:103DA00000925AE0F5EEC02AF1EE10FA04DB00BFF3
:103DB00011EE901A0092C1E010EE101A009250E03D
:103DC000FCF7CCFD08BDB5EEC00AF1EE10FA24DB1D
:103DD000F5EEC00AF1EE10FA1FD20629F2D2DFE8A2
:103DE00001F00504030613B2E2E7D3E7EAE7B5EE14
:103DF000C02AF1EE10FAC0DAB1EE420A0092BCEE2F
:103E0000C00A10EE101A3EE0B5EEC02AF1EE10FA2C
:103E1000B7DA11EE101A009248E070EEC01AB5EE53
:103E2000C00ABCEEE11AF1EE10FA44D2F5EEC00A77
:103E3000F1EE10FA3FDB70EE801A70EE800A062970
:103E4000BCEEE00AF1EE600AFCEEE00ABAD2DFE86E
:103E500001F0035D6E0C1F7AB4E78AB203460121BC
:103E60005EE08AB2034600216BE0F5EEC01A0092D4
:103E7000F1EE10FA05DB10EE101A03468AB20021AB
:103E800004E010EE901A03468AB20121012097E760
:103E9000F5EEC01A0092F1EE10FA05DB10EE101AE2
:103EA00003468AB2012104E010EE901A03468AB25A
:103EB0000021042084E7B5EEC00AF1EE10FA81D2A9
:103EC000F5EEC00AF1EE10FA90D2B1EE402A30EED3
:103ED000C00A32EE602A0629B1EE400ABCEEC22AC0
:103EE000BCEEC00AB8D2DFE801F00304080C1D2EB6
:103EF00068E712EE101A0092C5E712EE101A00924F
:103F0000D4E7F5EEC01AF1EE10FA03DB11EE101A49
:103F10000092A2E710EE101A009203468AB2002126
:103F200002204DE7F5EEC01AF1EE10FA03DB11EEB8
:103F3000101A009295E710EE101A009203468AB20A
:103F4000012103203CE7BDE808400020FCF7F0BC5D
:103F50004FF4E130FFF71EB94FF4FA70401E80B203
:103F6000FCD27047034902480968006888637047BB
:103F700068000020DC010020044840F6FF72037E48
:103F8000808D01B20120FFF739BC000068000020DD
:103F9000FFF7E2BF024A89B25268FFF72BB900006F
:103FA000600000204B4A08B5D2ED000AB5EEC00A09
:103FB0000120FCEEE00AF1EE10FA30DDBCEEC00AA2
:103FC000062919D2DFE801F018030C1922640090C9
:103FD00010EE900A0121C3B210EE100A82B237E04F
:103FE000009010EE900A0121C3B210EE100A82B2C6
:103FF00038E000BFFCF7B2FC08BD009010EE900A5C
:104000000121C3B210EE100A82B235E0009010EE2A
:10401000900A0121C3B210EE100A82B236E0B5EE6A
:10402000C00AF1EE10FA38D2B1EE400A0629BCEE11
:10403000C00AE1D2DFE801F003040E18222CDBE70E
:10404000009010EE900A0021C3B210EE100A82B266
:104050000120CFE7009010EE900A0021C3B210EECD
:10406000100A82B20220C5E7009010EE900A0021EB
:10407000C3B210EE100A82B20320BBE7009010EE2C
:10408000900A0021C3B210EE100A82B20420B1E7F8
:10409000BDE808400020FCF74BBCB5EEC00AF1EECD
:1040A00010FAA9D101290BD002290CD003290DD077
:1040B0000429A1D101210420BDE80840FCF720BC5F
:1040C00001210846F8E701210220F5E7012103203C
:1040D000F2E70000D800002000EE102A9FED341A0D
:1040E0002DE9FE43F8EE400A80460E4680EE810A36
:1040F00010EE100AFCF75EFA9FED2E1B53EC112B0D
:10410000FCF751F99FED2D1B53EC112BFCF74BF9EC
:104110009FED2C1B53EC112BFCF745F99FED2B1B4E
:1041200053EC112BFCF7B1F99FED2A1B53EC112B2B
:10413000FCF739F9FCF725FA012400250090CDE9B8
:10414000015407463346424629462046FCF7A8FB61
:104150000A20FCF77FFC0097CDE901543346424624
:1041600000210220FCF79CFB0A20FCF773FC00975F
:10417000CDE901543346424600210320FCF790FB71
:104180000A20FCF767FC0097CDE90154334642460C
:1041900000210420FCF784FB0A20FCF75BFC0020D4
:1041A000FCF7C6FBBDE8FE430A20FCF753BC000049
:1041B0000000B4431F85EB51B85E3540000000009D
:1041C000000000404AD8124DFB21094033333333FD
:1041D00033333F40000000000000A9402DE9F041CA
:1041E0002DED028B84B05A2743A0FFF741F832230C
:1041F000022246A14648FDF7FBFF3220FCF72AFCCD
:10420000454E444DF2EE0E0A96ED000A2888BCEEAB
:10421000C00A81B210EE100ABBEE000AC0B2FFF76E
:104220001FFC4FF47A70FCF715FC96ED000A288805
:104230009FED3B8ABCEEC00A81B2DFED380A10EE7A
:10424000100AB0EE480AC0B2FFF70AFC4FF4FA6059
:10425000FCF700FC0620FFF7CDFB05F11C048046AF
:1042600063692269E168A0688DE80F0063682268CD
:104270002CA14046FFF70CF841462EA0FEF7F8FFB0
:1042800096ED000A2888DFED2F0ABCEEC00A81B245
:1042900010EE100AB0EE480AC0B2FFF7E1FB40F69C
:1042A000C410FCF7D7FB96ED000A3A46BCEEC00AF4
:1042B00010EE100AC1B2A88880B2FFF70DFF40F2DD
:1042C0001450FCF7C7FB63692269E168A0688DE8B8
:1042D0000F006368226813A14046FEF7D9FF4146EC
:1042E00014A0FEF7C5FF04B04046BDEC028BBDE84C
:1042F000F041FFF791BA000074302E7478743D22BB
:10430000737461727422FFFFFF00000041410000DE
:104310004403002004000020D800002000003442A4
:104320000000000025642564256425642564256457
:104330000000000074302E7478743D22257322FF33
:10434000FFFF00000000A84208B50021ADF80010F2
:104350000A49C0F3080048604FF4FA5209E000BF70
:10436000BDF80000401CADF80000BDF80000904210
:1043700002D808680006F3D508BD0000001001400F
:1043800038B5054600200C468DF800008DF8000079
:104390009DF80000A04208D29DF80000285CFFF7BD
:1043A000D3FF9DF80000401CF0E738BD10B5054C68
:1043B0002178002904D00448FEF72CFF002020704B
:1043C00010BD0000600000208C030020012808D1EF
:1043D00004484FF47A72037E808F01B20320FFF706
:1043E0000DBA7047680000202DE9FF478046DDF8D0
:1043F00030904FF000008DF808004FF0FF008DF86E
:1044000000008DF801001C4615000F464FF0020613
:104410008DF802808DF8049007D0E01CC6B28DF8AC
:1044200003608DF80570062102E08DF80360052118
:10443000684600F023F808EB060101EB0900384458
:104440008DF808007DB1002107E0685C9DF8082028
:10445000491C10448DF80800C9B2A142F5D3214689
:10446000284600F00BF89DF808000121C0438DF8A4
:10447000080002A800F002F8BDE8FF8730B5074B3E
:10448000074C07E01A78802A04D210F8015BA55483
:10449000521C1A70491EF5D2187830BD60000020F9
:1044A0008C03002000000000000000000102030453
:1044B000060708090000000001020304DC440008AC
:1044C000000000204C010000EC07000854450008E3
:1044D0004C010020540A0000E83200082125B442B3
:1044E000900172C8E3E803320229131923390C2919
:1044F000086923290C82103B24F410011432643221
:10450000673257324A3219324532722AB4182209B8
:1045100023DE0423B60823160D1AD0691AC06523BA
:10452000910732E923310B1A850C1A9D611AF404A4
:104530002354061A21341AFE081ACA341A2F341AC0
:104540003A202930292C3AAE89031C16430916ACAF
:04455000012CF2C880
:040000050800018965
:00000001FF
