:020000040800F2
:10000000D80B0020A1010008DB2400084B210008C8
:10001000D92400081D070008512F00080000000027
:10002000000000000000000000000000DF240008C5
:100030001F07000800000000DD240008E12400087C
:10004000BB010008BB010008BB010008BB010008A0
:10005000BB010008BB010008BB010008BB01000890
:10006000BB010008BB010008BB010008BB01000880
:10007000BB010008BB010008BB010008BB01000870
:10008000BB010008BB010008BB010008BB01000860
:10009000BB010008BB010008BB010008BB01000850
:1000A000BB010008BB010008BB010008BB01000840
:1000B0008925000895250008A1250008BB01000836
:1000C000BB010008BB010008BB010008BB01000820
:1000D000BB010008992E0008A52E0008B12E0008CB
:1000E000BB010008BB010008BB010008BB01000800
:1000F000BB010008BB010008BB010008BB010008F0
:10010000BB010008BB010008BB010008BB010008DF
:10011000912800089D280008BB010008BB010008C9
:10012000BB010008BB010008BB010008BB010008BF
:10013000BB010008BB010008BB010008BB010008AF
:10014000BB010008BB010008BB010008BB0100089F
:10015000BB010008BB010008BB010008BB0100088F
:10016000BB010008BB010008BB010008BB0100087F
:10017000BB010008BB010008BB0100080000000033
:10018000BB010008BB010008DFF810D000F05CFAEA
:1001900000480047ED330008AFF30080D80B002083
:1001A0000648804706480047FEE7FEE7FEE7FEE711
:1001B000FEE7FEE7FEE7FEE7FEE7FEE7792500083B
:1001C000890100082DE9F05F0546002092469B4614
:1001D00088460646814640241BE02846414647465D
:1001E000224600F08DF953465A46C01A914110D369
:1001F00011461846224600F074F92D1A67EB0108E3
:100200004F4622460120002100F06BF917EB000950
:100210004E41201EA4F10104DFDC484631462A4647
:100220004346BDE8F09FD2B201E000F8012B491E21
:10023000FBD270470022F6E710B513460A46044683
:100240001946FFF7F0FF204610BD2DE9FE4F81EA69
:10025000030404F0004421F0004100944FF0000B2F
:1002600023F0004350EA01045ED052EA03045BD05D
:10027000C3F30A54C1F30A552C44A4F2F334019495
:10028000A0FB0254C1F3130141F48011C3F3130323
:1002900043F4801301FB024400FB034E840A970AD7
:1002A00044EA815447EA8357A4FB076802958D0A04
:1002B00005FB07854FEA932C04FB0C542705029D90
:1002C0004FEA065847EA1637B5EB08056EEB070C00
:1002D000870E920E47EA811742EA8312A7FB0201BA
:1002E000B6EB0B0164EB00042B0D43EA0C335E18F4
:1002F00044EB1C50DA465146E7FB0201C5F31304F8
:100300004FEA0B3343EA14534FEA0432019C43EAA9
:100310000603A4F10C040294009CCDE900B400F0A3
:1003200045F903B0BDE8F08F00200146F9E72DE95B
:10033000F04D81EA030404F0004B21F0004514461F
:100340004FF0000A23F0004150EA050220D054EAA1
:1003500001021DD0C5F30A570246C5F31303C1F3CA
:100360001300C1F30A5640F4801543F48013A7EB41
:100370000608101BD64608F2FD3873EB050002D3C1
:1003800008F1010801E092185B41B8F1000F03DAAF
:1003900000200146BDE8F08D00204FF48011064694
:1003A00084460EE0171B73EB050705D3121B63EBA6
:1003B000050306434CEA010C49084FEA3000921845
:1003C0005B4150EA0107EDD152EA030012D082EA04
:1003D000040083EA0501084305D0101BAB4106D297
:1003E0000122002306E000224FF0004302E06FF0FC
:1003F000010253101AEB06004CEB085110EB0A00F7
:1004000041EB0B01BDE8F04D00F0C1B80EB540F274
:10041000334102910021CDE900110A460B4600F05C
:10042000C5F803B000BDC1F30A5210B5C1F3130102
:1004300040F2FF3341F480119A4201DA002010BDEE
:1004400040F233439A42A2F2334203DC524200F0BC
:1004500057F810BD904010BD00F0004230F0004051
:100460000AD0C10D01F56071C0F3160042EA0151D6
:10047000C20840071143704700200146704701F051
:10048000004330B421F0004150EA010206D00A0DC9
:10049000A2F56072C1F31301002A02DC30BC002017
:1004A0007047440F44EAC104C100E01830BC00EBBF
:1004B000C25000F035B830B50B460146002020226E
:1004C000012409E021FA02F59D4205D303FA02F561
:1004D000491B04FA02F52844151EA2F10102F1DCC1
:1004E00030BD202A04DB203A00FA02F100207047D8
:1004F0009140C2F1200320FA03F319439040704762
:10050000202A04DB203A21FA02F00021704721FA68
:1005100002F3D040C2F120029140084319467047CF
:100520000029A8BF7047401C490008BF20F0010007
:10053000704710B4B0FA80FC00FA0CF050EA0104E5
:1005400004BF10BC704749B1CCF1200421FA04F477
:1005500011FA0CF118BF012121430843A3EB0C0150
:10056000CB1D4FEA00614FEA102042BF002010BCB3
:10057000704700EBC35010440029A4BF10BC704763
:10058000401C490008BF20F0010010BC704710B5A6
:10059000141E73F1000408DA401C41F100019218A6
:1005A0005B411A4301D120F0010010BD2DE9F04D4F
:1005B00092469B4611B1B1FA81F202E0B0FA80F2A4
:1005C00020329046FFF78DFF04460F4640EA0A00AE
:1005D00041EA0B0153465A46084313D0114653EAE9
:1005E000010019D0C8F140025046FFF789FF0546C7
:1005F0000E46504659464246FFF773FF084305D062
:10060000012004E020463946BDE8F08D0020054376
:1006100046EAE0762C4337430A986305E40AA0EBE8
:1006200008000022FD0A44EA47540A3002D500209F
:100630000146E9E7010510196941DDE9084500199E
:100640006941BDE8F04DA2E7064C074D06E0E068C1
:1006500040F0010394E8070098471034AC42F6D309
:10066000FFF796FD5C4300087C43000870B58C18CA
:1006700010F8015B15F0070301D110F8013B2A11B6
:1006800006D110F8012B03E010F8016B01F8016BA3
:100690005B1EF9D12B0705D40023521E0DD401F89F
:1006A000013BFAE710F8013BCB1A921C03E013F868
:1006B000015B01F8015B521EF9D5A142D8D300209D
:1006C00070BD000038B50546134C0020FE2DA0700B
:1006D00020D02078F0B102F08FFD002818D004213E
:1006E000684603F0CDFB042811D19DF80000A84214
:1006F0000DD19DF80110022909D19DF80210801C2E
:100700000844C0439DF80320C0B2824201D00020BB
:1007100038BDA170012038BD28000020FEE77047D9
:100720002DE9FF410027DDE90A4600978DF800001A
:10073000FD208DF801008DF802100197100A8DF848
:1007400003008DF804208DF80530200E8DF806008A
:10075000200C0C9D8DF807000297200A8DF80800E8
:1007600003978DF809406B208DF80A608DF80C0016
:100770008DF80B500D21684603F052FDBDE8FF8156
:100780001FB5002200928DF80000FE208DF80100B8
:1007900098208DF8020001926B208DF803108DF8DF
:1007A0000400029203920521684603F039FD1FBD43
:1007B0001FB5002100918DF80000FF208DF8010089
:1007C00066208DF802006B200191029103918DF853
:1007D00003000421684603F023FD1FBD7FB50025FB
:1007E00000958DF80000F6208DF8010001958DF838
:1007F0000210089C100A8DF804208DF803008DF873
:1008000005308DF806406B208DF8070002950395A2
:100810000821684603F004FD7FBD72B6FEE72DE9AE
:10082000F0410446876D00F065F9064694F83500FE
:100830000025022806D08020606584F8345001200D
:10084000BDE8F0812068016821F016010160206890
:10085000416921F080014161206C08B9A06C20B190
:100860002068016821F0080101602068016821F01A
:10087000010101600CE000F03DF9801B052807D95B
:1008800020206065032084F8350084F83450D7E7D1
:1008900020680068C007EED194F85C103F208840C3
:1008A000B860012084F8350084F834500020C7E790
:1008B00090F83510022903D080214165012070474E
:1008C000052180F835100068016821F00101016000
:1008D0000020704770B5044600F00CF90546601C16
:1008E00002D004480078044400F004F9401BA04200
:1008F000FAD370BD180000202DE9F84FDFF8BCA135
:100900000022012503264FF00F090AF1040BAAF17A
:10091000040E00BF0B6805FA02F42340A34270D115
:100920000F7907F00307012F01D0022F16D1876836
:100930004FEA420806FA08FC27EA0C07D1F80CC077
:100940000CFA08FC4CEA070CC0F808C04768A7433B
:100950000C79C4F3001494403C4344600C79E443A4
:10096000A4070AD0C4684FEA420C06FA0CF7BC434D
:100970008F6807FA0CF72743C7600C7904F003046B
:10098000022C12D1D40800EB840CDCF8204057076D
:10099000FF0E09FA07F824EA0804D1F8108008FAD3
:1009A00007F848EA0408CCF8208004684FEA420CB3
:1009B00006FA0CF7BC430F7907F0030707FA0CF7A8
:1009C000274307604C6814F4403F70D03C4C2768C4
:1009D00047F480472760246822F0030704F480442A
:1009E0000094384C07EB040CDCF8084897074FEAF2
:1009F000177809FA08F7BC43334FB84202D10027F1
:100A000024E054E0314FB84201D101271EE0304FBD
:100A1000B84201D1022719E02E4FB84201D1032775
:100A200014E02D4FB84201D104270FE02B4FB842FC
:100A300001D105270AE02A4FB84201D1062705E077
:100A4000284FB84201D1072700E0082707FA08F726
:100A50002743CCF80878DAF800405746D1F804C0AC
:100A60009C435FEACC2C00D51C433C60DBF8004083
:100A70005F46D1F804C09C435FEA8C2C00D51C4330
:100A80003C60DEF800407746D1F804C09C435FEA42
:100A90008C3C00D51C433C60084F083F3C68D1F8B3
:100AA00004C09C435FEACC3C00D51C433C60521C14
:100AB000102AFFF42FAFBDE8F88F0000083C01407A
:100AC000443802400030014000000240000402406F
:100AD00000080240000C02400010024000140240D6
:100AE00000180240001C02400AB1816170470904ED
:100AF000FBE70000014880687047000018000020F4
:100B00000248816802781144816070471800002013
:100B10000B4810B5016841F400710160016841F4AF
:100B200080610160016841F480710160032000F080
:100B30006FF80F2000F006F800F024F8002010BD38
:100B4000003C024070B50D4D04464FF47A71287890
:100B5000B1FBF0F00A490968B1FBF0F000F00AFBC4
:100B600048B9102C07D200222146501E00F030F860
:100B700000206C6070BD012070BD000018000020D6
:100B8000240000200A4808B5016841F48041016052
:100B9000006800F4804000900548001F016841F0A3
:100BA00080510160006800F08050009008BD000096
:100BB00044380240002809DB00F01F020121914067
:100BC0004009800000F1E020C0F8001170470000EB
:100BD000F0B40E4B1B680C46C3F30223C3F10705A8
:100BE000042D00D90425191D072901D2002300E096
:100BF000DB1E012606FA05F1491E214099409E4060
:100C0000761E16403143F0BC02F0EAB90CED00E06C
:100C1000064900F0070208684FF6FF03184040EA53
:100C20000220034A10430860704700000CED00E00A
:100C30000000FA052DE9F0470E46050065D0DFF803
:100C40001481D8F80000F7B200F00700B04207D2D4
:100C500088F80070D8F8000000F00700B04254D1C6
:100C600028683D4C810712D5400703D5206840F421
:100C7000E05020602878000703D5206840F46040E9
:100C800020602068A96820F0F000084320602878E0
:100C9000C0072DD0304968680839012812D00228D1
:100CA00013D0032811D00968890700292DDA21689B
:100CB00021F0030101432160FFF71CFF814641F24F
:100CC000883A0EE009688903EFE709688901ECE7D3
:100CD000FFF710FFA0EB0901514502D90320BDE841
:100CE000F0872068696800F00C00B0EB810FEFD14D
:100CF000D8F80010404601F00701B14207D907704B
:100D0000006800F00700B04201D00120E7E7287832
:100D1000400705D52068E96820F4E05008432060CA
:100D20002878000706D52068296920F4604040EA49
:100D3000C100206000F038F82168084AC1F30311AF
:100D4000515CC8400649086006480068FFF7FAFE93
:100D50000020C4E7003C0240083802404443000839
:100D6000240000201C000020044805490068096890
:100D7000044AC1F38221515CC8407047240000201E
:100D800008380240544300080448054900680968CF
:100D9000044AC1F34231515CC8407047240000202E
:100DA0000838024054430008154810B5006810F098
:100DB0000C02144813D04110042A0FD0082A0ED177
:100DC0000F4C241F2268236802F03F025B0207D504
:100DD0002068C0F38810A0FB010106E0084610BDA2
:100DE0002168C1F38811A1FB00010023FFF7EAF994
:100DF0002168C1F30141491C4900B0FBF1F010BD6D
:100E0000083802400024F4002DE9F84F04006ED0A9
:100E10002078DFF84C93C007A9F104054AD009F106
:100E200004000168C1F38101012908D00068C0F302
:100E3000810002280AD1D9F80000400206D52868AE
:100E4000800337D560680028E1D033E06068B0F5F2
:100E5000803F10D0B0F5A02F286810D020F480304B
:100E60002860286820F4802028606068A8B1FFF717
:100E700041FE06460DE0286840F48030F4E740F477
:100E800080202860F7E700BFFFF734FE801B64284E
:100E900073D828688003F7D50CE0FFF72BFE0646D1
:100EA00005E000BFFFF726FE801B6428F0D8286805
:100EB0008003F7D42078DFF8AC8280074FF0000A77
:100EC0003ED5A748001D016811F00C0F08D000683E
:100ED000C0F3810002280BD1D9F80000400207D4EA
:100EE0002868800716D5E068012800D112E033E1B8
:100EF000E068B8B10120C8F80000FFF7FBFD064626
:100F000005E000BFFFF7F6FD801B0228C0D8286867
:100F10008007F7D52868216920F0F80040EAC10071
:100F200028600DE0C8F800A0FFF7E4FD064604E0E5
:100F3000FFF7E0FD801B02281FD828688007F7D440
:100F40002078000722D5864F87486169703771B1D4
:100F500001210160FFF7CEFD064604E0FFF7CAFD60
:100F6000801B022809D838688007F7D50EE0C0F842
:100F700000A0FFF7BFFD064605E082E0FFF7BAFDDF
:100F8000801B02287DD838688007F7D42078400776
:100F900068D5DFF8CCB100270BF13C0BDBF8000083
:100FA000C0000BD4DBF8001041F08051CBF80010EA
:100FB000DBF80000012700F0805000906B4E306895
:100FC000C00510D4306840F480703060FFF792FDA7
:100FD000009005E0FFF78EFD0099401A022850D8D6
:100FE0003068C005F6D55E4EA0686C3601280FD07B
:100FF0000528306810D020F001003060306820F003
:1010000004003060A068B8B1FFF774FD00900FE0F5
:10101000306840F00100F4E740F004003060F7E78A
:10102000FFF768FD0099411A41F28830814266D885
:1010300030688007F4D50EE0FFF75CFD009007E014
:10104000FFF758FD0099411A41F28830814256D885
:1010500030688007F4D42FB1DBF8001021F0805104
:10106000CBF80010A069C8B33D49091D0968C1F358
:10107000810102294AD00228504607D0C8F86000F2
:1010800000E03CE0FFF736FD04463BE04746C8F889
:101090006000FFF72FFD064605E000BFFFF72AFDC1
:1010A000801B02282BD828688001F7D4D4E90701D7
:1010B0000843A16A2E4A490802EB0141626A41EAEB
:1010C0008211084394F82C1040EA0161C9F800101D
:1010D00001203866FFF70EFD044606E03EE000BF43
:1010E000FFF708FD001B022809D828688001F7D502
:1010F00034E000BFFFF7FEFC001B022802D90320EA
:10110000BDE8F88F28688001F4D427E00128F7D0E3
:10111000D9F80000E26900F4800191421CD1226AF2
:1011200000F03F01914217D147F6C071626A014059
:10113000B1EB821F10D1A26A4FF0FF3300F44031AF
:1011400003EB5202B1EB024F06D194F82C1000F0E1
:101150007060B0EB016F01D00120D1E70020CFE734
:101160000438024000004742800E474200700040B1
:101170000000FFFF10B5401EB0F1807F01D30120B9
:1011800010BD4FF0E02460610F21601701F028FFCF
:101190000020A06107202061002010BD704770472B
:1011A00070B590F83C20012A32D0012480F83C40F0
:1011B000022280F83D2003685A689D6822F070067C
:1011C0000A6832435A60134B02689A4214D0B2F153
:1011D000804F11D0104B9A420ED0104B9A420BD038
:1011E0000F4B9A4208D00F4B9A4205D00E4B9A42B1
:1011F00002D00E4B9A4204D1496825F0800319436E
:10120000916080F83D40002180F83C10084670BD98
:10121000022070BD000001400004004000080040B2
:10122000000C004000040140004001400018004054
:1012300010B5040003D094F83D0010B107E0012080
:1012400010BD002084F83C00204600F01FF802206A
:1012500084F83D00211D206801F0A8F9012084F8E0
:10126000460084F83E0084F83F0084F8400084F88B
:10127000410084F8420084F8430084F8440084F874
:10128000450084F83D00002010BD000008B501684D
:101290001D48B1F1804F11D01C4A91421DD1016807
:1012A00041F0020101600068002200F0020000909D
:1012B00011461D20FFF78CFC1D201FE0016841F046
:1012C000010101600068002200F001000090114659
:1012D0001C20FFF77DFC1C2010E00D4A914211D12B
:1012E000016841F0040101600068002200F0040080
:1012F000009011461E20FFF76BFC1E20BDE8084041
:10130000FFF758BC08BD0000403802400004004010
:101310000008004090F83D10012901D001207047DD
:10132000022180F83D100168CA6842F00102CA60DB
:1013300000681149884214D0B0F1804F11D00F4994
:1013400088420ED00E4988420BD00E49884208D000
:101350000D49884205D00D49884202D00C49884287
:1013600004D1816801F00701062903D0016841F02A
:1013700001010160002070470000014000040040AE
:1013800000080040000C0040000401400040014003
:101390000018004070B5044690F83C000025012874
:1013A00017D0012684F83C60022084F83D002068B4
:1013B000826822F0770222F47F4282600868502817
:1013C00038D00DDC20284FD005DC90B3102811D187
:1013D0004AE0022070BD302846D040280AD13BE0C8
:1013E00060282FD070280DD0B0F5805F03D0B0F505
:1013F000005F12D0012584F83D60002084F83C0095
:10140000284670BDCB68D1E90121206801F047F979
:101410002068816841F0770109E0CB68D1E90121BA
:10142000206801F03CF92068816841F480418160C6
:10143000E1E719E0CA684968206801F005FA50211F
:10144000206806E0CA684968206801F00EFA602149
:10145000206801F02EF9CEE7CA684968206801F0DB
:10146000F3F940212068F4E7226801461046F0E7CE
:1014700070472DE9F04104460068C66805694FF0E1
:101480000007A90713D5B10711D5F91E0161012085
:101490002077206880698007204602D0FFF7E8FFA8
:1014A00004E000F0A9F8204600F03BF92777680730
:1014B00016D5700714D521686FF00400086102206A
:1014C00020772068806910F4407F204602D0FFF723
:1014D000CFFF04E000F090F8204600F022F92777D3
:1014E000280715D5300713D521686FF0080008616B
:1014F000042020772068C0698007204602D0FFF7CB
:10150000B7FF04E000F078F8204600F00AF92777EA
:10151000E80616D5F00614D521686FF010000861B2
:10152000082020772068C06910F4407F204602D050
:10153000FFF79EFF04E000F05FF8204600F0F1F8AE
:101540002777E80708D0F00706D021686FF0010080
:101550000861204600F04AF9280608D5300606D56D
:1015600021686FF0800008612046FFF717FE6806CB
:1015700008D5700606D521686FF040000861204646
:1015800000F05CFAA8060AD5B00608D521686FF00D
:10159000200008612046BDE8F041FFF700BEBDE82D
:1015A000F081000010B586B0044614216846FEF7AD
:1015B00041FE0E492068884215D10D48002102687D
:1015C00042F008020260006800F0080005904FF445
:1015D000704000900220CDE90101CDE90310694679
:1015E0000448FFF789F906B010BD0000000800406C
:1015F00030380240000C0240704770B5044690F845
:101600003C0000260D4601280FD0012084F83C0044
:101610006AB1042A1DD0082A2FD00C2A3FD00126F7
:10162000002084F83C00304670BD022070BD206868
:1016300001F048F82068816941F008018161206863
:10164000816921F004018161206881692A6911435F
:1016500011E0206801F066F82068816941F40061BA
:1016600081612068816921F48061816120688169DC
:101670002A6941EA02218161D2E7206801F088F8F5
:101680002068C16941F00801C1612068C16921F089
:101690000401C1612068C1692A69114311E0206811
:1016A00001F0AAF82068C16941F40061C1612068B5
:1016B000C16921F48061C1612068C1692A6941EA78
:1016C0000221C161ACE710B5040003D094F83D00DD
:1016D00010B107E0012010BD002084F83C00204636
:1016E00000F01EF8022084F83D00211D206800F063
:1016F0005DFF012084F8460084F83E0084F83F0036
:1017000084F8400084F8410084F8420084F84300E3
:1017100084F8440084F8450084F83D00002010BDA2
:101720007047704710B50446022249B104290ED013
:10173000082913D094F84100012816D0012010BDCB
:1017400094F83E000128F9D184F83E200FE094F887
:101750003F000128F2D184F83F2008E094F84000CF
:101760000128EBD184F8402001E084F841200122D7
:10177000206800F087FF16492068164A884201D089
:10178000904203D1436C43F4004343642068884291
:1017900013D0B0F1804F10D00F4988420DD00F49BF
:1017A00088420AD00E49884207D0904205D00D49A0
:1017B000884202D00C49884204D1816801F00701B7
:1017C000062903D0016841F001010160002010BD2D
:1017D00000000140000401400004004000080040F7
:1017E000000C004000400140001800402DE9F04787
:1017F00005460068864C4FF00008B0F1804F11D1CB
:101800002068401C20608348007808B101F0B6F9D8
:101810002068142806D18048007808B101F0B8F992
:10182000C4F800807D49286888427CD160687C4D7E
:101830004FF0010901285ED12069012843D1A06938
:10184000062801DA401CA061764E01280BD195EDE7
:10185000000A0121BCEEC00A10EE100A96ED000A43
:10186000C0B202F015FBA06902280BD195ED000A69
:101870000221BCEEC00A10EE100A96ED000AC0B2BA
:1018800002F006FBA06903280BD195ED000A0321A5
:10189000BCEEC00A10EE100A96ED000AC0B202F0CB
:1018A000F7FAA06904280BD195ED000A0421BCEEDB
:1018B000C00A10EE100A96ED000AC0B202F0E8FA73
:1018C000A069052803D0606901280ED013E095EDCA
:1018D000000A0521BCEEC00A10EE100A96ED000ABF
:1018E000C0B202F0D5FAC4F81490C4F81080C4F85D
:1018F0001480C4F81880A068012819D1E068012874
:1019000016D121694848012914D000222021FFF76F
:10191000EBF8606901280BD1C4F81C80C4F8108072
:10192000C4F8208000E003E0C4F81480C4F81880F4
:10193000BDE8F08701222021FFF7D6F8206A30B9F0
:101940003B489FED3A0AC4F8209080ED000AA06958
:10195000062857DA401C374E374FA06101280DD1B9
:1019600095ED000A0121D6ED000ABCEEC00A10EE8A
:10197000100A97ED000AC0B202F00EF9A069022821
:101980000DD195ED000A0221D6ED000ABCEEC00A89
:1019900010EE100A97ED000AC0B202F0FDF8A0693F
:1019A00003280DD195ED000A0321D6ED000ABCEE07
:1019B000C00A10EE100A97ED000AC0B202F0ECF86F
:1019C000A06904280DD195ED000A0421D6ED000A86
:1019D000BCEEC00A10EE100A97ED000AC0B202F089
:1019E000DBF8A06905280DD195ED000A0521D6ED9B
:1019F000000ABCEEC00A10EE100A97ED000AC0B251
:101A000002F0CAF8A069062883D1C4F8149083E7CD
:101A10003C0100203201002034010020000400407D
:101A20001801002024010020000802400000C842E4
:101A300028010020200100201C0100207047704771
:101A400070470000F8B5016804460868CA684B6929
:101A500010F00F0F4FF0000559D003F0010602F40B
:101A60009077374365D0C10705D0D10503D5616CA8
:101A700041F001016164410705D5D90703D0616CCC
:101A800041F002016164810705D5D90703D0616C7B
:101A900041F004016164010707D502F020013143E0
:101AA00003D0616C41F008016164616C00293AD097
:101AB000800604D5900602D5204600F024FF206859
:101AC0004069616CC0F38010090700D460B3204600
:101AD00000F0F2FE20684069400621D520681430ED
:101AE00050E8001F21F0400140E80012002AF5D123
:101AF000E06BA8B16E490165E06BFEF7D9FE0028E6
:101B000011D0E06B016D01B0BDE8F04008478306DD
:101B10000FD593060DD52046BDE8F84000F0F3BE82
:101B20002046FFF78DFFF8BD2046FFF789FF65646B
:101B3000F8BD266B2023012E7DD1C6067BD5D606A7
:101B400079D508684868009048694FF00206400659
:101B500041D5E16B086840680004000CE8D0A28D14
:101B60008242E5D9E085C869B0F5807F2DD0206834
:101B70000C3050E8001F21F4807140E80012002A68
:101B8000F5D12068143050E8001F21F0010140E831
:101B90000012002AF5D12068143050E8001F21F00F
:101BA000400140E80012002AF5D184F84230256354
:101BB00020680C3050E8001F21F0100140E80012AE
:101BC000002AF5D1E06BFEF72AFE6663A08DE18D59
:101BD000401A81B22AE0A08DE18D401A81B2E08DD9
:101BE0000028A5D00029A3D022680C3252E8000FAB
:101BF00020F4907042E80007002FF5D120681430DF
:101C000050E8002F22F0010240E80027002FF5D114
:101C100084F84230256320680C3050E8002F22F011
:101C2000100240E80023002BF5D166632046FFF741
:101C300006FFF8BDFFE705062BD5150629D594F854
:101C400041002128F5D1A068B0F5805F01D120695D
:101C5000B0B1206A411C2162216800784860E08CA4
:101C6000401E0004000CE084E3D12068C16821F02C
:101C70008001C1602068C16841F04001C160D8E7BF
:101C8000206A0088C0F308004860206A801C206237
:101C9000E5E74006CDD55006CBD5CA68204622F0F0
:101CA0004002CA6084F8413000F04EFAC1E70000FB
:101CB000A928000870B5040004D094F8410000255C
:101CC00010B106E0012070BD84F84050204600F0BD
:101CD00023F8242084F841002068C16821F40051D1
:101CE000C160204600F070FE2068016921F4904137
:101CF00001612068416921F02A0141612068C168C1
:101D000041F40051C1606564202084F8410084F8EA
:101D100042006563002070BD2DE9F04186B00446A5
:101D200014216846FEF786FA6E49DFF8B4C12368CD
:101D300000246C4A10390325022608276A486345A7
:101D40001ED1136843F400231360126802F40022CA
:101D500005920A6842F001020A600968CDE900565E
:101D600001F00101CDE904716946CDE90245FEF7B4
:101D7000C3FD002211463420FEF72AFF342038E04C
:101D8000DFF868C1DFF86881634537D1106840F437
:101D900080101060106800F480100590086840F012
:101DA00004000860086800F004000590086840F02E
:101DB00008000860086802AB00F0080005904FF4C6
:101DC0008050CDE9000683E8B00069464948FEF737
:101DD00093FD0420CDE9000602AB694683E8B0001C
:101DE0004046FEF789FD002211463520FEF7F0FE41
:101DF0003520FEF7DFFE06B0BDE8F081DFF8F8C061
:101E00000727634522D1374A121D136843F0100398
:101E10001360126802F0100205920A6842F0010293
:101E20000A60096802AA01F0010105914FF4C0613E
:101E3000CDE9001682E8B0006946FEF75DFD00229C
:101E400011462520FEF7C4FE2520D2E72B48834209
:101E500020D1106840F400301060106800F40030A9
:101E60000590086840F008000860086802AB00F0C0
:101E7000080005906020CDE9000683E8B0006946BF
:101E80004046FEF739FD002211462620FEF7A0FE4F
:101E90002620AEE71A488342ADD1106840F4802076
:101EA0001060106800F480200590086840F002007F
:101EB0000860086802AB00F0020005904FF4406033
:101EC000CDE9000683E8B00069460E48FEF714FD30
:101ED000002211462720FEF77BFE272089E700001D
:101EE000004C0040403802400000024000500040DA
:101EF000000C024000080240001001400044004075
:101F000000480040000402402DE9F84F044690F8D4
:101F100042009A4616460D46202802D00220BDE80F
:101F2000F88FB5B1AEB100206064222184F8421070
:101F30002063FEF7DFFDA6858146E685A0684FF4A5
:101F400080582027404501D1206920B12E46002528
:101F500029E00120E3E7002625E04B46002220216E
:101F60002046CDF800A000F0D0FD18B184F84270F2
:101F70000320D4E726B1A06840451AD038B108E064
:101F800020684068C0F3080025F8020B08E02069CB
:101F900078B12068406800F07F0000BF06F8010BB0
:101FA000E08D401EE085E08D0028D6D184F8427097
:101FB000B5E720684068F1E790F84230202B01D067
:101FC0000220704721B11AB10023036300F082BDE3
:101FD000012070472D4930B4CB790022802B00D3EB
:101FE000CA714B79322B00D34A718B79322B00D3D3
:101FF0008A710B7A322B00D30A724B7A322B00D3C0
:102000004A72234CCA798B78A354521CCA714A79FC
:10201000643C0B78A354521C4A718A7932344B7851
:10202000A354521C8A710A7AB234CB78A354521C3E
:102030000A724A7A32340B79A354521C4A72154AF6
:102040000168914202D1012210491AE0124A9142DC
:1020500003D10E490122491C13E0104A914203D1D9
:102060000A490122891C0CE00D4A914203D107491B
:102070000122C91C05E00B4A914205D10349012206
:10208000091D30BCFFF798BF30BC70472C01002001
:10209000F0040020004400400048004000100140CF
:1020A000004C0040005000402DE9F843044690F8F1
:1020B0004100984616460D46202802D00220BDE871
:1020C000F88385B17EB100206064212084F841004E
:1020D000FEF710FDA6848146E684A0682027B0F5AF
:1020E000805F02D003E00120E9E7206910B12E46AD
:1020F00000250EE000260CE08021204600F005FDC2
:10210000A8B9C6B116F8010B21684860E08C401EE2
:10211000E084E08C4B464FF00002CDF800800028B0
:10212000EAD14FF04001204600F0EFFC40B184F8C6
:1021300041700320C3E735F8020BC0F30800E3E762
:1021400084F841700020BAE77047FEE7064B10B5EF
:102150005C78C2F30723D2B214B103700A7010BDC9
:102160000B70027010BD000028000020F0B587B091
:1021700014216846FEF75EF825480025016841F005
:1021800080010160016801F080010591016841F062
:1021900001010160016801F001010591016841F050
:1021A00004010160016801F004010591016841F03A
:1021B00002010160016801F002010591016841F02E
:1021C000080101600068134E00F00800059000222D
:1021D00020213046FEF788FC0F4F002204213846AC
:1021E000FEF782FC01242020CDE900046946304638
:1021F000CDE90245FEF780FB0420CDE900046946E5
:102200003846CDE90245FEF777FB07B0F0BD000088
:1022100030380240000802400004024010B586B089
:1022200000241848009401940294039404944FF0FD
:1022300080410594016040F28F61C0E901144FF4C0
:102240007A71C0E9031480218161FEF7F1FF08B1C2
:10225000FEF7E3FA4FF48050009069460948FFF713
:1022600099F808B1FEF7D9FA2020CDE9040404A9B1
:102270000448FEF795FF002801D0FEF7CEFA06B01D
:1022800010BD00008401002010B586B0002418485D
:1022900000940194029403940494144905940160F9
:1022A00040F28F61C0E901144FF47A71C0E9031460
:1022B00080218161FEF7BCFF08B1FEF7AEFA4FF452
:1022C0008050009069460A48FFF764F808B1FEF7AD
:1022D000A4FA2020CDE9040404A90548FEF760FF14
:1022E000002801D0FEF799FA06B010BD00040040A6
:1022F000CC01002010B58EB00024079408940994F6
:102300000A940B941C2168460C94FDF793FF2B480C
:102310002949016040F28F61C0E9011440F2E731C0
:10232000C0E903148461FEF783FF08B1FEF775FA74
:102330004FF48050079007A92048FFF72BF808B109
:10234000FEF76BFA1D48FFF7BEF908B1FEF765FA14
:102350000B940BA919480C94FEF722FF08B1FEF765
:102360005CFA6020CDE9000402940022694613481B
:102370000494FFF742F908B1FEF74FFA04226946C8
:102380000E48FFF73AF908B1FEF747FA0822694606
:102390000A48FFF732F908B1FEF73FFA0C22694606
:1023A0000648FFF72AF908B1FEF737FA0348FFF7A6
:1023B000F9F80EB010BD0000000800401402002023
:1023C0000C4810B50A4901604FF4E1314160002129
:1023D00081600C22C160C0E904128161C161FFF714
:1023E00069FC002803D0BDE81040FEF716BA10BD06
:1023F000004C00405C0200200C4810B50A49016006
:102400004FF416514160002181600C22C160C0E987
:1024100004128161C161FFF74DFC002803D0BDE8C3
:102420001040FEF7FAB910BD00500040A402002091
:102430000C4810B50A4901604FF4E13141600021B8
:1024400081600C22C160C0E904128161C161FFF7A3
:1024500031FC002803D0BDE81040FEF7DEB910BD06
:1024600000100140EC0200200C4810B50A49016040
:102470004FF4E1314160002181600C22C160C0E96C
:1024800004128161C161FFF715FC002803D0BDE88B
:102490001040FEF7C2B910BD0044004034030020D4
:1024A0000C4810B50A4901604FF4E1314160002148
:1024B00081600C22C160C0E904128161C161FFF733
:1024C000F9FB002803D0BDE81040FEF7A6B910BD07
:1024D000004800407C030020FEE7FEE7704770479D
:1024E000FEF70EBB30B593B030216846FDF7A2FE73
:1024F00014210CA8FDF79EFE1D480025016841F03F
:1025000080510160006800F0805011901948016806
:1025100041F4804101600068022400F48040119081
:1025200001200090000401908001CDE9064008AA36
:102530000420A82182E813000B906846FEF764FC93
:1025400008B172B6FEE70CA90F2081E831004FF404
:10255000A0500F904FF48050109005210CA8FEF76A
:1025600069FB002801D072B6FEE713B030BD000051
:1025700040380240007000400248016841F4700198
:102580000160704788ED00E00148FEF772BF00006F
:10259000840100200148FEF76CBF0000CC01002040
:1025A0000148FEF766BF000014020020F0B5026883
:1025B000294C2A4D2A4E2B4F2B4B4FF0804CA042DA
:1025C00009D0604507D0A84205D0B04203D0B84238
:1025D00001D0984204D122F0700E4A6842EA0E02FD
:1025E000A0421BD0604519D0A84217D0B04215D0E8
:1025F000B84213D0984211D01C4DA8420ED01C4DA9
:10260000A8420BD01B4DA84208D01B4DA84205D0B4
:102610001A4DA84202D01A4DA84203D122F44075A7
:10262000CA682A434D6922F080022A4302608A6800
:10263000C2620A688262A04201D0984201D109694F
:102640000163012141610169C90703D0016921F0DA
:1026500001010161F0BD00000000014000040040E4
:1026600000080040000C0040000401400040014010
:10267000004401400048014000180040001C004098
:102680000020004010B501F01F030121046A9940A9
:102690008C430462016A9A401143016210BD10B577
:1026A000846842EA032224F47F440A43224382607E
:1026B00010BD826822F070020A4342F00701816077
:1026C00070470000F0B5036A026A22F0010202625C
:1026D00042688469124E24F073050C682C4323F081
:1026E00002058B682B430D4DA84201D0B04205D1A5
:1026F00023F00807CB683B4323F00403A84201D032
:10270000B04205D14D6922F4407215438A692A43CB
:1027100042608461496841630362F0BD000001408A
:1027200000040140F0B5026A036A23F0100303625B
:10273000436884690D6824F4E64444EA05248D68FE
:1027400022F0200242EA05120F4D104EA84201D09D
:10275000B04206D1CF6822F0800242EA071222F08E
:102760004002A84201D0B04207D14D6923F4406332
:1027700043EA85038D6943EA8503436084614968C0
:1027800081630262F0BD00000000014000040140CE
:10279000F0B5026A036A23F4807303624368C46974
:1027A00022F4007224F073050C68124E2C438D68DD
:1027B00042EA05220E4DA84201D0B04206D1CF68B0
:1027C00022F4006242EA072222F48062A84201D089
:1027D000B04207D14D6923F4405343EA05138D6994
:1027E00043EA05134360C4614968C1630262F0BDF6
:1027F000000001400004014030B5046A026A22F47E
:10280000805202624268C3690D6823F4E64343EADA
:1028100005238D6824F4005444EA0534084DA84289
:1028200002D0084DA84204D14D6922F4804242EA08
:1028300085124260C36149680164046230BD0000D2
:10284000000001400004014010B5036A046A24F04E
:1028500001040462846924F0F00444EA021423F0C1
:102860000A020A438461026210BD10B5036A046A59
:1028700024F010040462846923F0A00324F470445B
:1028800044EA023243EA01118261016210BD000094
:102890000148FFF7D7B800005C0200200148FFF7AD
:1028A000D1B80000A402002010B5806B0021C185C2
:1028B000C184FFF7C5F810BD01680C3151E8002F45
:1028C00022F4907241E80023002BF5D10168143105
:1028D00051E8002F22F0010241E80023002BF5D13E
:1028E000016B012909D101680C3151E8002F22F058
:1028F000100241E80023002BF5D1202180F842107E
:1029000000210163704708B590F84210222901D0D8
:10291000022008BD82684FF480539A4201D10169B8
:1029200021B1816A9A421BD04AB10AE00268816AE9
:102930005268C2F308020A80816A891C08E00269B1
:1029400072B10268526802F07F020A70816A491C03
:102950008162C18D491E0904090CC18503D01BE0A9
:1029600002685268F1E70168CA6822F02002CA6072
:102970000168CA6822F48072CA6001684A6922F05C
:1029800001024A61202180F8421000214163026B5C
:10299000012A03D0FFF71EFB002008BD0163016878
:1029A0000C3151E8002F22F0100241E80023002BE7
:1029B000F5D101680A68D20602D50A684968009113
:1029C000818DFFF73CF8E7E770B5044600680169C0
:1029D000E26821F44051114301612169A068E26974
:1029E00008436169114308432168CA6849F20C63CE
:1029F0009A430243CA6020684169A26921F4407188
:102A00001143416131492068884202D030498842EF
:102A100002D1FEF7B9F901E0FEF7A6F9E269002359
:102A2000192164253226B2F5004F626828D0A0FB38
:102A30000101930F9200FDF7C5FB0146B0FBF5F0D5
:102A40006FF01802504301EB800006EB0010B0FB62
:102A5000F5F000F0F002B1FBF5F002EB0012B1FB73
:102A6000F5F06FF01803584301EB800006EB0010FF
:102A7000B0FBF5F000F00F0021681044886070BDD5
:102A8000A0FB010192185B41FDF79CFB0146B0FBE6
:102A9000F5F00201B1FBF5F06FF01803584301EBBC
:102AA000800006EBC000B0FBF5F000F0F80002EB90
:102AB0004002B1FBF5F0584301EB800006EBC0008B
:102AC000B0FBF5F000F00700D6E700000010014071
:102AD0000014014081628285C28500214164222167
:102AE00080F84210016921B10168CA6842F480721D
:102AF000CA6001684A6942F001024A610068C1681F
:102B000041F02001C160002070472DE9F84398464C
:102B100017460D460446089E24E0701C22D0FDF79F
:102B2000E9FFA0EB0800B0421AD8CEB12068C16816
:102B3000490717D5802D15D0402D13D00168C94302
:102B400009070FD401680025406800902046FFF770
:102B5000B3FE0820606484F840500120BDE8F8838B
:102B60000320FBE72068006835EA000004D000205D
:102B7000B842D2D00020F1E70120F9E7034880797C
:102B8000002801D000F00EB8704700002C01002092
:102B90000348007A002801D000F03EB970470000D9
:102BA0002C0100202DE9F047DFF828822DED048B61
:102BB00098F80600002874D08748884B01220260EC
:102BC0008749186840B9874C00200D5C44F82050B4
:102BD000401C0628F9DB1A6083480068804B0128F6
:102BE0001D7808D18148012D04D0022D0ED0032D6F
:102BF0000ED000E002607A487D4B7E4A40789FED1F
:102C00007E8A1C680027012C04D007E00222F1E72D
:102C10000322EFE7012D06D0022D0ED0272D1AD06A
:102C2000282D1BD01BE00A2802D9B2EE040A0FE0BF
:102C300000EE100AB8EE400A0AE00A2802D9BAEEFD
:102C4000040A05E000EE100AB8EE400AB1EE400AB0
:102C500082ED000A03E082ED008A00E01F60DFF8E9
:102C60009CA1674E674CDAF80020012A7ED1012D25
:102C700002D0022D05D00CE000EE100AB8EE400A9A
:102C800005E000EE100AB8EE400AB1EE400A86ED0B
:102C9000000A53488978C078012903D0022906D058
:102CA0000DE092E000EE100AB8EE400A05E000EEFA
:102CB000100AB8EE400AB1EE400A84ED000A30680E
:102CC000FDF7CAFB9FED509B53EC192BFDF7BDFAA6
:102CD000FDF7D5FB814630602068FDF7BDFB53EC66
:102CE000192BFDF7B2FAFDF7CAFB494A0146B1EECE
:102CF000040A2060914501DD86ED000A914201DD64
:102D000084ED000A43483168B9EE040A814201D9D2
:102D100086ED000A2168814201D984ED000A96ED12
:102D2000000A4FF07C5110EE100AF6EE000A8842BD
:102D300006DAB5EEC00AF1EE10FA01DDC6ED000AC2
:102D400094ED000A10EE100A884206DAB5EEC00AC9
:102D5000F1EE10FA01DDC4ED000A96ED000A4FF025
:102D60003F4110EE100AFEEE000A00E015E0884236
:102D700006D2B5EEC00AF1EE10FA01D2C6ED000A95
:102D800094ED000A10EE100A884206D2B5EEC00A91
:102D9000F1EE10FA01D2C4ED000A172D02D0182D61
:102DA0000ED003E086ED008A84ED008A88F8067074
:102DB0003221BDEC048BBDE8F0470948FDF73ABA73
:102DC000CAF80070C8F80C70ECE7BDEC048BBDE8E5
:102DD000F08700002C0100204C010020140000208E
:102DE000BE0400206C010020080000200C00002020
:102DF00040010020240100200000000044010020C8
:102E00001C010020200100209A9999999999B93FB5
:102E10000000A0400000A0C010B5184C217A002985
:102E20002AD00020164A07E0135C552B03D1131853
:102E30005B78532B02D0401C8842F5DB884213DAC2
:102E40001044C088FDF7E2FA9FED0E1B53EC112BE6
:102E5000FDF7FBF99FED0D1B53EC112BFDF7F5F979
:102E6000FDF70DFB0B49086000202072BDE8104003
:102E700032210348FDF7DEB910BD00002C0100200F
:102E80007005002000000000008066400000000087
:102E90000000003F000000200148FEF7D3BD000005
:102EA000EC0200200148FEF7CDBD000034030020F5
:102EB0000148FEF7C7BD00007C030020F0B585B0D7
:102EC000054602262020CDE9000600240320CDE996
:102ED000024007200E4F049069463846FDF70CFD6E
:102EE0004020CDE9000669463846FDF705FD0A4950
:102EF00008480860C1E901540C20CC60C1E90440D5
:102F00008C610846CC61FEF7D5FE05B0F0BD00002F
:102F1000000C0240004400404404002010B5134659
:102F20000C460A4601460448FEF7EEFF08B10020B1
:102F300010BD20B210BD0000440400200A46014626
:102F40004FF0FF330148FFF7AFB800004404002002
:102F5000FEE77CB515460646002903DA484240F4F0
:102F6000004001B26C460A46601C8DF80030411CDE
:102F7000FFF7ECF80022211DE01CFFF7E7F82A46D6
:102F8000A11D601DFFF7E2F807236A46292130469C
:102F900000F0A6F97CBD00000FB4054B10B503A9E5
:102FA000044A029800F03CF810BC5DF814FB0000E5
:102FB00079320008600100200FB4084B10B504A955
:102FC00002AA039800F02CF8044602A9002000F0A1
:102FD00003F9204610BC5DF814FB0000D93100084D
:102FE0000907090E002804DB00F1E02080F8001436
:102FF000704700F00F0000F1E02080F8141D7047CA
:1030000002E008C8121F08C1002AFAD170477047B1
:10301000002001E001C1121F002AFBD1704700000F
:103020002DE9FF4F8BB09A460F460546002606E075
:1030300025280BD052460D9990476D1C761C287898
:103040000028F5D10FB03046BDE8F08F0024A0462F
:103050000122604900E0044315F8013F203B02FAD9
:1030600003F00842F7D128782E2817D115F8010F60
:1030700044F004042A280ED06FF02F022878A0F123
:10308000300109290AD808EB880102EB410100EB65
:1030900001086D1CF2E757F8048B6D1C287869282D
:1030A0003ED006DC0028CDD063280BD0642804D1A4
:1030B00036E0732810D075284BD052460D999047B2
:1030C000761C85E017F8040B8DF8000000208DF8C1
:1030D0000100E946012003E057F8049B4FF0FF3060
:1030E00061074FF0000401D40AE0641C44450DDA86
:1030F0008442FADB19F804100029F6D106E0641CBA
:103100008442FCDB19F804100029F8D1264404E0BD
:1031100019F8010B52460D999047641EF8D257E0FA
:1031200001CF4FF00A0B002802DA40422D2102E0C5
:10313000210504D52B218DF82410012103E0E1079E
:1031400005D02021F7E70DF1200908910CE00021BE
:10315000F9E701CF4FF00A0BF9E75946FDF7ABF954
:1031600001F1300209F8012D0028F6D1ADEB09007C
:1031700000F1200B600701D44FF00108D84502DDB3
:10318000A8EB0B0000E000208046002406E009A820
:103190005246005D0D999047641C761C0898844245
:1031A000F5DB04E0302052460D999047761CB8F1CB
:1031B0000001A8F10108F5DC05E019F8010B524601
:1031C0000D999047761CBBF10001ABF1010BF4DCCB
:1031D0006D1C34E7092801000A68531C0B6010704D
:1031E00070470000034902480968806848637047D7
:1031F000440000201402002038B500242546012197
:10320000684600F03DFE00280FD09DF80010E0B2A7
:1032100060F30F2461F30704FF2901D1FF2805D0D3
:103220006D1CEDB20A2DEAD9002038BD012038BD51
:10323000044832234FF4FA62808E01B2022000F07B
:1032400019B8000044000020044832234FF4FA6209
:10325000008F01B2022000F00DB8000044000020F1
:1032600003490248096840688863704744000020A9
:1032700014020020FFF76DBE13B54FF6FF73012255
:1032800069460248FEF710FF00981CBDA40200200A
:1032900010B5002821D0114B0022001F196803E04F
:1032A000814203D80A4649680029F9D152B113680E
:1032B000841A9C4204D1006818441060104602E051
:1032C000506000E0186039B102680B1A934203D1D4
:1032D0000B681A4402604968416010BD6401002017
:1032E000F8B51C4615460E46074600F0C6FD0320FD
:1032F000009023462A463146384600F0C5FF00F0CC
:10330000A5FF3846BDE8F840FDF7DCB970B500F020
:1033100037FF00F061FD4FF47A742046FDF7DAFACA
:10332000FFF79EFF4FF448752846FDF7D3FA00F0EB
:1033300083FD2846FDF7CEFAFFF786FF4FF496602F
:10334000FDF7C8FA00F03EFD2846FDF7C3FA00F08D
:1033500073FD4FF49670FDF7BDFAFFF769FF204645
:10336000BDE87040FDF7B6BA10B510EE100AFDF7D3
:1033700073F89FED081B53EC112BFCF7D8FF9FED62
:10338000071B53EC112BFCF760FFBDE81040FDF765
:103390004AB800003333333333333F40000000007A
:1033A0000000A94010B500F0EBFE00F00BFD00F0AE
:1033B00043FD4FF47A742046FDF78CFAFFF744FF83
:1033C0002046FDF787FA00F01FFD4FF44870FDF727
:1033D00081FAFFF745FF00F023FD4FF4C870FDF7B9
:1033E00079FABDE81040FFF723BF00002DED028BF6
:1033F00084B0FDF78DFBFFF775F8FEF7B7FEFFF71A
:1034000017F8FFF731F8FFF74BF8FEF707FFFEF765
:103410003BFFFEF76FFFFEF7EFFFFEF7D1FF012244
:10342000C949CA48FEF7C8FD0122C949C948FEF783
:10343000C3FD0122C849C948FEF7BEFDC848FDF7D3
:1034400069FFC848FDF766FF0021C748FEF76AF923
:103450000421C548FEF766F90821C348FEF762F962
:103460000C21C148FEF75EF900F0A2FC4FF47A6A25
:103470005046FDF72FFA012000F0F8FEFFF7B2FEEC
:1034800000F0CEFCFFF7D4FE00F09CFCB7A0FFF7E5
:1034900083FD32230222BAA1AC48FEF705FEBA4DE5
:1034A000B84C95ED000A2088BCEEC00A81B210EE3F
:1034B000100AC0B29FEDB58ABBEE070AF0EE480ACB
:1034C00000F0FEF940F2DC50FDF704FA95ED000A39
:1034D0002088BCEEC00A81B210EE100AC0B2DFED47
:1034E000AC0AB0EE480A00F0EBF940F6AC50FDF73C
:1034F000F1F995ED000A2088BCEEC00A81B210EE09
:10350000100AC0B2DFEDA30AB0EE480A00F0D8F905
:1035100040F6B830FDF7DEF9062000F09BF90646CC
:103520009D4847690369C26881688DE88E004368D9
:1035300002689AA13046FFF73FFD31469CA0FFF795
:103540002BFD3046FFF7A4FE4FF4FA684046FDF726
:10355000C1F995ED000A5A22BCEEC00A10EE100A1D
:10356000C1B2208880B200F095FD40F69809484627
:10357000FDF7B0F9012666603223022290A173485C
:10358000FEF792FD002711E0A068012805D0A06891
:10359000022802D0A068032805D1FFF7B7FEE06833
:1035A000401CC4E902700A20FDF794F9E068032882
:1035B000EADBE760676095ED000A5822BCEEC00ABE
:1035C00010EE100AC1B2208880B200F063FD4846B8
:1035D000FDF780F995ED000A2088BCEEC00A81B2A3
:1035E00010EE100AC0B2DFED770AB0EE480A00F024
:1035F00067F947464046FDF76DF995ED000A5822F8
:10360000BCEEC00A10EE100AC1B2208880B200F0F1
:1036100041FD4846FDF75EF995ED000A2088BCEEB5
:10362000C00A81B210EE100AC0B2DFED670AB0EE38
:10363000480A00F045F95046FDF74CF932230222C2
:1036400062A14248FEF730FD3846FDF743F9604F6E
:10365000DFF880914FF4FA7A3E605046FDF73AF970
:103660005DA0D9F80010FFF797FC38680028F4D166
:103670005DA0FFF791FC4FF47A70FDF72BF9604FD6
:1036800060483E6006600A20FDF724F9386800288B
:10369000F9D15DA0FFF780FC00F086FD0220FFF766
:1036A00081FE00F0D5FB95ED000A2088F0EE480A77
:1036B000BCEEC00A81B210EE100ABAEE0E0AC0B219
:1036C00000F0FEF84046FDF705F93E600A20FDF7E0
:1036D00001F938680028F9D100F066FD0320FFF7F2
:1036E00061FE00F0B5FB4CA0FFF756FC95ED000A1B
:1036F0002088F0EE480ABCEEC00A81B210EE100A33
:10370000B3EE0E0AC0B200F0DBF84046FDF7E2F877
:103710003E600A20FDF7DEF838680028F9D100F095
:1037200043FD0120FFF73EFE00F092FB41A0FFF7B2
:1037300033FC3223022246A10448FEF7B5FC0A20DE
:10374000FDF7C8F8F5E700002D0100207C030020FC
:103750002F0100205C02002030010020A402002084
:1037600084010020CC0100201402002074302E744B
:1037700078743D22737461727422FFFFFF000000B1
:10378000414100000400002018010020000000005A
:1037900000005C420000B4426C010020256420253A
:1037A0006420256420256420256420256400000011
:1037B00074302E7478743D22257322FFFFFF0000C1
:1037C0004242000000003442000020434343000016
:1037D000400100202401002074302E7478743D22B2
:1037E000256422FFFFFF000074302E7478743D22A0
:1037F000656E645F6F665F6C696E6522FFFFFF0038
:10380000440100204801002074302E7478743D2259
:103810003122FFFFFF00000074302E7478743D22C7
:10382000656E645F6F665F636972636C653222FF09
:10383000FFFF000074302E7478743D22656E645F63
:103840006F665F636972636C653322FFFFFF000080
:1038500073740000F0B50B30154D20F00701002403
:10386000144A0FE003688B420BD38B4205D95E1AD2
:1038700043184768C3E9006700E04368136002C06B
:1038800004E0021D10680028ECD12046002802D177
:10389000286808B10020F0BD064A07481060074AB2
:1038A000121A22F00702C0E9002401202860D7E79D
:1038B0006801002064010020DC050020D8070020FA
:1038C000F0B5B5EEC00A2DED028B70EE608A30EED9
:1038D000208A00240125F1EE10FA83B00E46074637
:1038E00042DBF5EEC00AF1EE10FA3DDBB0EE480A1D
:1038F000FFF73AFD8DE831003B46324600210120BA
:10390000FCF70EFF0A20FCF7E5FFB0EE480AFFF7D0
:103910002BFD8DE831003B46324601210420FCF7A7
:10392000FFFE0A20FCF7D6FFF5EEC08AF1EE10FA92
:1039300011DBB0EE680AFFF717FD8DE831003B465A
:10394000324600210220FCF7EBFE0A20FCF7C2FF02
:10395000B0EE680A19E1B1EE680AB0EE408AECE018
:103960008DE83100032044E0B5EEC00AF1EE10FA14
:103970004FDBF5EEC00AF1EE10FA4AD2B0EE680A5B
:10398000FFF7F2FC8DE831003B4632460021022071
:10399000FCF7C6FE0A20FCF79DFFB0EE680AFFF7B1
:1039A000E3FC8DE831003B46324601210320FCF761
:1039B000B7FE0A20FCF78EFFB5EEC08AF1EE10FAD2
:1039C00011DBB0EE480AFFF7CFFC8DE831003B4633
:1039D000324600210120FCF7A3FE0A20FCF77AFF03
:1039E000B0EE480A57E0B1EE480A5CE08DE83100DD
:1039F0000420FCF795FE0A20FCF76CFF0020FCF782
:103A0000D7FE03B00A20BDEC028BBDE8F040FCF706
:103A100061BF30EEC08AB5EEC00AF1EE10FA59D29D
:103A2000F5EEC00AF1EE10FA54DB70EE808AB0EECB
:103A3000480AFFF799FC8DE831003B4632460121E8
:103A40000220FCF76DFE0A20FCF744FFB0EE480AA6
:103A5000FFF78AFC8DE831003B4632460021032007
:103A6000FCF75EFE0A20FCF735FFF5EEC08AF1EEAA
:103A700010FA16DBB0EE680AFFF776FC8DE831002D
:103A80003B46324600210120FCF74AFE0A20FCF7A3
:103A900021FFB0EE680AFFF767FC3B463246012182
:103AA000A4E7B1EE680AB0EE408AFFF75DFC8DE84E
:103AB000310001213B4632460846FCF731FE0A2020
:103AC000FCF708FFB0EE480AFFF74EFC3B463246D3
:103AD00000218BE7B5EEC00AF1EE10FA8ED2F5EEBA
:103AE000C00AF1EE10FA89D2B1EE400A70EE608A97
:103AF000B0EE680AFFF738FC8DE8310001213B4643
:103B000032460846FCF70CFE0A20FCF7E3FEB0EE56
:103B1000680AFFF729FC8DE831003B463246002158
:103B20000420FCF7FDFD0A20FCF7D4FEB5EEC08AA8
:103B3000F1EE10FA16DBB0EE480AFFF715FC8DE83F
:103B400031003B46324601210220FCF7E9FD0A2004
:103B5000FCF7C0FEB0EE480AFFF706FC3B463246D3
:103B60000021FDE6B1EE480AB0EE408AFFF7FCFB0B
:103B70008DE831003B46324600210220FCF7D0FDA3
:103B80000A20FCF7A7FEB0EE480AFFF7EDFB3B4624
:103B900032460121E4E6000070EE602A30EE202A71
:103BA000B5EEC00A0122FCEEE21ABCEEC21A08B55C
:103BB000F1EE10FA37DBF5EEC00AF1EE10FA32DB67
:103BC00030EE600A0629B1EE400ABCEEC00A29D2E6
:103BD000DFE801F02803070B18E911EE101A009234
:103BE0007BE011EE101A00928AE0F5EEC02AF1EEA9
:103BF00010FA03DB11EE901A0092BEE010EE101ADC
:103C000000925AE0F5EEC02AF1EE10FA04DB00BF94
:103C100011EE901A0092C1E010EE101A009250E0DE
:103C2000FCF7DCFD08BDB5EEC00AF1EE10FA24DBAE
:103C3000F5EEC00AF1EE10FA1FD20629F2D2DFE843
:103C400001F00504030613B2E2E7D3E7EAE7B5EEB5
:103C5000C02AF1EE10FAC0DAB1EE420A0092BCEED0
:103C6000C00A10EE101A3EE0B5EEC02AF1EE10FACE
:103C7000B7DA11EE101A009248E070EEC01AB5EEF5
:103C8000C00ABCEEE11AF1EE10FA44D2F5EEC00A19
:103C9000F1EE10FA3FDB70EE801A70EE800A062912
:103CA000BCEEE00AF1EE600AFCEEE00ABAD2DFE810
:103CB00001F0035D6E0C1F7AB4E78AB2034601215E
:103CC0005EE08AB2034600216BE0F5EEC01A009276
:103CD000F1EE10FA05DB10EE101A03468AB200214D
:103CE00004E010EE901A03468AB20121012097E702
:103CF000F5EEC01A0092F1EE10FA05DB10EE101A84
:103D000003468AB2012104E010EE901A03468AB2FB
:103D10000021042084E7B5EEC00AF1EE10FA81D24A
:103D2000F5EEC00AF1EE10FA90D2B1EE402A30EE74
:103D3000C00A32EE602A0629B1EE400ABCEEC22A61
:103D4000BCEEC00AB8D2DFE801F00304080C1D2E57
:103D500068E712EE101A0092C5E712EE101A0092F0
:103D6000D4E7F5EEC01AF1EE10FA03DB11EE101AEB
:103D70000092A2E710EE101A009203468AB20021C8
:103D800002204DE7F5EEC01AF1EE10FA03DB11EE5A
:103D9000101A009295E710EE101A009203468AB2AC
:103DA000012103203CE7BDE808400020FCF700BDEE
:103DB0004FF4E130FFF782B84FF4FA70401E80B242
:103DC000FCD270470349024809680068886370475D
:103DD00044000020140200200448322340F6FF7201
:103DE000808C01B20120FFF745BA0000440000209A
:103DF0000448322340F6FF72008D01B20120FFF724
:103E000039BA0000440000200448322340F6FF7213
:103E1000008C01B20120FFF72DBA00004400002001
:103E20000448322340F6FF72008E01B20120FFF7F2
:103E300021BA0000440000200448322340F6FF72FB
:103E4000808D01B20120FFF715BA00004400002068
:103E500010B5FFF7CDFF4FF4FA60FCF73BFDFFF71D
:103E6000B1FF4FF47A70FCF735FDFFF7D9FFBDE8DD
:103E700010404FF44870FCF72DBDFFF79DBF0000C8
:103E8000024A89B25268FFF749B800003C0000209E
:103E900030B501242DED028B81B09FED7B8BB5EE0B
:103EA000C00A7B4DF1EE10FA60DD062930D2DFE862
:103EB00001F02F03183348C410EE100AFCF7CCFAB7
:103EC00053EC182BFCF7C1F9FCF7ADFA009495ED13
:103ED000050A82B20121BCEEC00A10EE100AC3B27C
:103EE00067E010EE100AFCF7B7FA53EC182BFCF75A
:103EF000ACF9FCF798FA009495ED050A82B201211D
:103F0000BCEEC00A10EE100AC3B268E0FCF766FC13
:103F100001B0BDEC028B30BD10EE100AFCF79CFA2C
:103F200053EC182BFCF791F9FCF77DFA009495ED12
:103F3000050A82B20121BCEEC00A10EE100AC3B21B
:103F400063E010EE100AFCF787FA53EC182BFCF72D
:103F50007CF9FCF768FA009495ED050A82B201211C
:103F6000BCEEC00A10EE100AC3B264E0B5EEC00A9F
:103F7000F1EE10FA69D2B1EE400A0629C8D2DFE8A4
:103F800001F003041A30465CC2E710EE100AFCF799
:103F900063FA53EC182BFCF758F9FCF744FA009439
:103FA00095ED050A82B20021BCEEC00A10EE100A9F
:103FB000C3B20120AAE710EE100AFCF74DFA53EC49
:103FC000182BFCF742F9FCF72EFA009495ED050A40
:103FD00082B20021BCEEC00A10EE100AC3B2022069
:103FE00094E710EE100AFCF737FA53EC182BFCF7A5
:103FF0002CF9FCF718FA009495ED050A82B200211D
:10400000BCEEC00A10EE100AC3B203207EE710EE29
:10401000100AFCF721FA53EC182BFCF716F9FCF701
:1040200002FA009495ED050A82B20021BCEEC00AA6
:1040300010EE100AC3B2042068E701B00020BDEC06
:10404000028BBDE83040FCF7B3BBB5EEC00AF1EE21
:1040500010FA99D101290ED002290FD0032910D0CE
:10406000042991D10121042001B0BDEC028BBDE8EF
:104070003040FCF785BB01210846F5E7012102200D
:10408000F2E701210320EFE7000000000000E03F1D
:104090000401002000EE102A9FED321A2DE9FE43A4
:1040A000F8EE400A80460E4680EE810AF3EE060ADC
:1040B00020EE200AF0EE000A20EE200A10EE100A90
:1040C000FCF7CAF99FED281B53EC112BFCF7BDF848
:1040D0009FED271B53EC112BFCF729F99FED261BB5
:1040E00053EC112BFCF7B1F8FCF79DF901240025E6
:1040F0000090CDE901540746334642462946204602
:10410000FCF70EFB0A20FCF7E5FB0097CDE9015414
:104110003346424600210220FCF702FB0A20FCF74E
:10412000D9FB0097CDE901543346424600210320D4
:10413000FCF7F6FA0A20FCF7CDFB0097CDE9015415
:104140003346424600210420FCF7EAFA0A20FCF735
:10415000C1FB0020FCF72CFBBDE8FE430A20FCF766
:10416000B9BB00000000B4434AD8124DFB210940FE
:104170003333333333333F40000000000000A940A5
:104180000849074A0128096805D0022805D00328F4
:1041900005D1D06902E0506900E09069C8637047BA
:1041A000440000201402002010B500210120FCF77B
:1041B000E7FA0A20FCF78EFB00210220FCF7E0FA68
:1041C0000A20FCF787FB00210320FCF7D9FA0A201C
:1041D000FCF780FB00210420FCF7D2FABDE8104078
:1041E0000A20FCF777BB000008B50021ADF80010ED
:1041F0000A49C0F3080048604FF4FA5209E000BFD2
:10420000BDF80000401CADF80000BDF80000904271
:1042100002D808680006F3D508BD00000010014070
:1042200038B5054600200C468DF800008DF80000DA
:104230009DF80000A04208D29DF80000285CFFF71E
:10424000D3FF9DF80000401CF0E738BD10B5054CC9
:104250002178002904D00448FEF770FE0020207069
:1042600010BD00003C000020C4030020012808D13C
:10427000044832234FF4FA62808F01B20320FEF724
:10428000F9BF7047440000202DE9FF478046DDF864
:1042900030904FF000008DF808004FF0FF008DF8CF
:1042A00000008DF801001C4615000F464FF0020675
:1042B0008DF802808DF8049007D0E01CC6B28DF80E
:1042C00003608DF80570062102E08DF8036005217A
:1042D000684600F023F808EB060101EB09003844BA
:1042E0008DF808007DB1002107E0685C9DF808208A
:1042F000491C10448DF80800C9B2A142F5D32146EB
:10430000284600F00BF89DF808000121C0438DF805
:10431000080002A800F002F8BDE8FF8730B5074B9F
:10432000074C07E01A78802A04D210F8015BA554E4
:10433000521C1A70491EF5D2187830BD3C0000207E
:10434000C40300200000000000000000010203047C
:104350000607080900000000010203047C4300086E
:10436000000000206C0100006C060008D843000823
:104370006C0100206C0A000010300008210413B406
:104380004250320182103B24F41001143264327620
:10439000326B32275A4B0432193245327223B00441
:1043A000239E071B480D0822022320031A7E103289
:1043B000DD43770BCB20410401416640CDCCCC3DA1
:1043C0002B803F0C4910A90C01184B803F04031CA3
:0843D000484202330100000025
:040000050800018965
:00000001FF
