:020000040800F2
:10000000600C0020A10100088B260008F9220008DE
:100010008926000849090008393800080000000056
:10002000000000000000000000000000D1270008D0
:100030004B090008000000008D260008D3270008A7
:10004000BB010008BB010008BB010008BB010008A0
:10005000BB010008BB010008BB010008BB01000890
:10006000BB010008BB010008BB010008BB01000880
:10007000BB010008BB010008BB010008BB01000870
:10008000BB010008BB010008BB010008BB01000860
:10009000BB010008BB010008BB010008BB01000850
:1000A000BB010008BB010008BB010008BB01000840
:1000B0007D2800088928000895280008BB01000851
:1000C000BB010008BB010008BB010008BB01000820
:1000D000BB010008813700088D37000899370008F8
:1000E000BB010008BB010008BB010008BB01000800
:1000F000BB010008BB010008BB010008BB010008F0
:10010000BB010008BB010008BB010008BB010008DF
:10011000852B0008912B0008BB010008BB010008DB
:10012000BB010008BB010008BB010008BB010008BF
:10013000BB010008BB010008BB010008BB010008AF
:10014000BB010008BB010008BB010008BB0100089F
:10015000BB010008BB010008BB010008BB0100088F
:10016000BB010008BB010008BB010008BB0100087F
:10017000BB010008BB010008BB0100080000000033
:10018000BB010008BB010008DFF810D000F072FBD3
:100190000048004749420008AFF30080600C00208F
:1001A0000648804706480047FEE7FEE7FEE7FEE711
:1001B000FEE7FEE7FEE7FEE7FEE7FEE76D28000844
:1001C000890100082DE9F05F0546002092469B4614
:1001D00088460646814640241BE02846414647465D
:1001E000224600F090FA53465A46C01A914110D365
:1001F00011461846224600F077FA2D1A67EB0108DF
:100200004F4622460120002100F06EFA17EB00094C
:100210004E41201EA4F10104DFDC484631462A4647
:100220004346BDE8F09F00000649074A086850436E
:1002300043F23902104408604008704701490860E1
:1002400070470000280200206D4EC64140EA0103BD
:100250009B0703D009E008C9121F08C0042AFAD27C
:1002600003E011F8013B00F8013B521EF9D2704740
:10027000D2B201E000F8012B491EFBD270470022E8
:10028000F6E710B513460A4604461946FFF7F0FF95
:10029000204610BD421C10F8011B0029FBD1801A1A
:1002A00070472DE9FE4F804681EA0300C00F0C46DF
:1002B000009021F0004123F00045B8EB0200A94175
:1002C00005D24046214690461C460B46024623F086
:1002D0000040104347D0270DC7F30A00C3F30A516B
:1002E0000290401A019040286BDAC3F3130040F4E7
:1002F000801B0098924620B10023D2EB030A63EBE7
:100300000B0B01985946C0F14002504600F0ECF941
:1003100006460D4650465946019A00F004FA10EB85
:1003200008006141002487EA115284EAE7731A4306
:1003300040D0009A62B3019A012A4FEA075215DCB5
:10034000001B61EB02014FF0004202EA0752CDE9C7
:100350000042001C41F5801132462B4600F03BFA6A
:1003600003B0BDE8F08F40462146F9E7001B61EB82
:100370000201001C41F5801300185B412018A2F512
:10038000001747EB030140EAD570B6196D4111E043
:100390006D084FEA360645EAC0754FEA0752001B62
:1003A00061EB0201001C41F5801149084FEA300061
:1003B0000019514132462B4603B0BDE8F04F00F022
:1003C000FBB90098012240000023D0EB020263EB4E
:1003D000E073009821464FEAE074B8EB000061EB4F
:1003E0000401E9E783F000435BE781F0004158E74F
:1003F0002DE9FE4F81EA030404F0004421F000419E
:1004000000944FF0000B23F0004350EA01045ED04B
:1004100052EA03045BD0C3F30A54C1F30A552C44D7
:10042000A4F2F3340194A0FB0254C1F3130141F48C
:100430008011C3F3130343F4801301FB024400FB58
:10044000034E840A970A44EA815447EA8357A4FB7F
:10045000076802958D0A05FB07854FEA932C04FB7C
:100460000C542705029D4FEA065847EA1637B5EBAC
:1004700008056EEB070C870E920E47EA811742EAD9
:100480008312A7FB0201B6EB0B0164EB00042B0DFA
:1004900043EA0C335E1844EB1C50DA465146E7FB46
:1004A0000201C5F313044FEA0B3343EA14534FEA36
:1004B0000432019C43EA0603A4F10C040294009C5C
:1004C000CDE900B400F087F903B0BDE8F08F00205B
:1004D0000146F9E72DE9F04D81EA030404F0004BF1
:1004E00021F0004514464FF0000A23F0004150EA85
:1004F000050220D054EA01021DD0C5F30A57024676
:10050000C5F31303C1F31300C1F30A5640F4801579
:1005100043F48013A7EB0608101BD64608F2FD38FB
:1005200073EB050002D308F1010801E092185B416A
:10053000B8F1000F03DA00200146BDE8F08D00207D
:100540004FF48011064684460EE0171B73EB050737
:1005500005D3121B63EB050306434CEA010C490863
:100560004FEA300092185B4150EA0107EDD152EAA0
:10057000030012D082EA040083EA0501084305D093
:10058000101BAB4106D20122002306E000224FF0EF
:10059000004302E06FF0010253101AEB06004CEB2F
:1005A000085110EB0A0041EB0B01BDE8F04D00F0E3
:1005B00003B90EB5C10F80EAE0700844CA070021F4
:1005C00040F233438DE80E000A460B4600F003F973
:1005D00003B000BD0EB540F2334102910021CDE9D8
:1005E00000110A460B4600F0F6F803B000BD70B5E6
:1005F000C1F30A5201F000450024C1F3130140F297
:10060000FF3341F480119A4201DA002070BD40F2BC
:1006100033439A42A2F2334203DC524200F073F8B1
:1006200000E090402C43F1D0404270BDC1F30A522B
:1006300010B5C1F3130140F2FF3341F480119A4227
:1006400001DA002010BD40F233439A42A2F2334255
:1006500003DC524200F057F810BD904010BD00F08E
:10066000004230F000400AD0C10D01F56071C0F3C6
:10067000160042EA0151C2084007114370470020AA
:100680000146704701F0004330B421F0004150EAC8
:10069000010206D00A0DA2F56072C1F31301002A0F
:1006A00002DC30BC00207047440F44EAC104C100A2
:1006B000E01830BC00EBC25000F047B830B50B4634
:1006C000014600202022012409E021FA02F59D4282
:1006D00005D303FA02F5491B04FA02F52844151E56
:1006E000A2F10102F1DC30BD202A04DB203A00FA3D
:1006F00002F1002070479140C2F1200320FA03F379
:10070000194390407047202A04DB203A21FA02F076
:100710000021704721FA02F3D040C2F1200291403B
:10072000084319467047202A06DBCB17203A41FAC6
:1007300002F043EAE07306E041FA02F3D040C2F16E
:10074000200291400843194670470029A8BF70470E
:10075000401C490008BF20F00100704710B4B0FAF7
:1007600080FC00FA0CF050EA010404BF10BC704792
:1007700049B1CCF1200421FA04F411FA0CF118BFAC
:10078000012121430843A3EB0C01CB1D4FEA00617B
:100790004FEA102042BF002010BC704700EBC3504E
:1007A00010440029A4BF10BC7047401C490008BF7A
:1007B00020F0010010BC704710B5141E73F1000446
:1007C00008DA401C41F1000192185B411A4301D143
:1007D00020F0010010BD2DE9F04D92469B4611B16D
:1007E000B1FA81F202E0B0FA80F220329046FFF7CF
:1007F0007BFF04460F4640EA0A0041EA0B015346DC
:100800005A46084313D0114653EA010019D0C8F1E3
:1008100040025046FFF777FF05460E4650465946C0
:100820004246FFF761FF084305D0012004E020465F
:100830003946BDE8F08D0020054346EAE0762C43BA
:1008400037430A986305E40AA0EB08000022FD0A7A
:1008500044EA47540A3002D500200146E9E7010581
:1008600010196941DDE9084500196941BDE8F04DFD
:10087000A2E70000064C074D06E0E06840F00103E7
:1008800094E8070098471034AC42F6D3FFF780FC99
:10089000248200084482000870B58C1810F8015BAF
:1008A00015F0070301D110F8013B2A1106D110F809
:1008B000012B03E010F8016B01F8016B5B1EF9D10D
:1008C0002B0705D40023521E0DD401F8013BFAE793
:1008D00010F8013BCB1A921C03E013F8015B01F8FE
:1008E000015B521EF9D5A142D8D3002070BD000093
:1008F00038B50546134C0020FE2DA07020D020787E
:10090000F0B103F015FA002818D00421684606F06B
:1009100023FB042811D19DF80000A8420DD19DF8B9
:100920000110022909D19DF80210801C0844C0431F
:100930009DF80320C0B2824201D0002038BDA170D2
:10094000012038BD04010020FEE770472DE9FF417A
:100950000027DDE90A4600978DF80000FD208DF89C
:1009600001008DF802100197100A8DF803008DF830
:1009700004208DF80530200E8DF80600200C0C9D0B
:100980008DF807000297200A8DF8080003978DF86C
:1009900009406B208DF80A608DF80C008DF80B5023
:1009A0000D21684607F016FBBDE8FF811FB5002248
:1009B00000928DF80000FE208DF8010098208DF83F
:1009C000020001926B208DF803108DF80400029252
:1009D00003920521684607F0FDFA1FBD1FB50021EF
:1009E00000918DF80000FF208DF8010066208DF841
:1009F00002006B200191029103918DF80300042104
:100A0000684607F0E7FA1FBD7FB5002500958DF811
:100A10000000F6208DF8010001958DF80210089C69
:100A2000100A8DF804208DF803008DF805308DF83C
:100A300006406B208DF80700029503950821684653
:100A400007F0C8FA7FBD72B6FEE72DE9F041044613
:100A5000876D00F06DF9064694F8350000250228F0
:100A600006D08020606584F834500120BDE8F08114
:100A70002068016821F0160101602068416921F0B9
:100A800080014161206C08B9A06C20B12068016828
:100A900021F0080101602068016821F00101016076
:100AA0000CE000F045F9801B052807D9202060657F
:100AB000032084F8350084F83450D7E720680068B4
:100AC000C007EED194F85C103F208840B860012048
:100AD00084F8350084F834500020C7E790F83510CA
:100AE000022903D08021416501207047052180F84B
:100AF00035100068016821F0010101600020704795
:100B000070B5044600F014F90546601C02D0044894
:100B10000078044400F00CF9401BA042FAD370BDE9
:100B2000F40000202DE9F84FDFF8BCA100220125D8
:100B300003264FF00F090AF1040BAAF1040E00BFBF
:100B40000B6805FA02F42340A34270D10F7907F035
:100B50000307012F01D0022F16D187684FEA420800
:100B600006FA08FC27EA0C07D1F80CC00CFA08FCBE
:100B70004CEA070CC0F808C04768A7430C79C4F3D7
:100B8000001494403C4344600C79E443A4070AD029
:100B9000C4684FEA420C06FA0CF7BC438F6807FAA8
:100BA0000CF72743C7600C7904F00304022C12D120
:100BB000D40800EB840CDCF820405707FF0E09FA3C
:100BC00007F824EA0804D1F8108008FA07F848EA80
:100BD0000408CCF8208004684FEA420C06FA0CF7AF
:100BE000BC430F7907F0030707FA0CF727430760A8
:100BF0004C6814F4403F70D03C4C276847F4804761
:100C00002760246822F0030704F480440094384CE1
:100C100007EB040CDCF8084897074FEA177809FA45
:100C200008F7BC43334FB84202D1002724E054E018
:100C3000314FB84201D101271EE0304FB84201D1F7
:100C4000022719E02E4FB84201D1032714E02D4F9F
:100C5000B84201D104270FE02B4FB84201D105273C
:100C60000AE02A4FB84201D1062705E0284FB842D2
:100C700001D1072700E0082707FA08F72743CCF837
:100C80000878DAF800405746D1F804C09C435FEA80
:100C9000CC2C00D51C433C60DBF800405F46D1F80B
:100CA00004C09C435FEA8C2C00D51C433C60DEF8FA
:100CB00000407746D1F804C09C435FEA8C3C00D5E5
:100CC0001C433C60084F083F3C68D1F804C09C437B
:100CD0005FEACC3C00D51C433C60521C102AFFF458
:100CE0002FAFBDE8F88F0000083C014044380240B7
:100CF00000300140000002400004024000080240B1
:100D0000000C024000100240001402400018024093
:100D1000001C0240426921EA02030A4043EA024100
:100D2000816170470AB1816170470904FBE70000E7
:100D30000148806870470000F40000200248816884
:100D40000278114481607047F40000200B4810B510
:100D5000016841F400710160016841F48061016043
:100D6000016841F480710160032000F06FF80F20EA
:100D700000F006F800F024F8002010BD003C02400E
:100D800070B50D4D04464FF47A712878B1FBF0F040
:100D90000A490968B1FBF0F000F00AFB48B9102CD1
:100DA00007D200222146501E00F030F800206C606F
:100DB00070BD012070BD0000F40000200001002083
:100DC0000A4808B5016841F480410160006800F4F8
:100DD000804000900548001F016841F0805101608B
:100DE000006800F08050009008BD000044380240C8
:100DF000002809DB00F01F0201219140400980001A
:100E000000F1E020C0F8001170470000F0B40E4B74
:100E10001B680C46C3F30223C3F10705042D00D958
:100E20000425191D072901D2002300E0DB1E01263D
:100E300006FA05F1491E214099409E40761E164053
:100E40003143F0BC02F040BD0CED00E0064900F07B
:100E5000070208684FF6FF03184040EA0220034AE1
:100E600010430860704700000CED00E00000FA0538
:100E70002DE9F0470E46050065D0DFF81481D8F85B
:100E80000000F7B200F00700B04207D288F8007007
:100E9000D8F8000000F00700B04254D128683D4C5B
:100EA000810712D5400703D5206840F4E050206048
:100EB0002878000703D5206840F46040206020684F
:100EC000A96820F0F000084320602878C0072DD0E2
:100ED000304968680839012812D0022813D0032845
:100EE00011D00968890700292DDA216821F0030152
:100EF00001432160FFF71CFF814641F2883A0EE072
:100F000009688903EFE709688901ECE7FFF710FF3B
:100F1000A0EB0901514502D90320BDE8F087206804
:100F2000696800F00C00B0EB810FEFD1D8F8001029
:100F3000404601F00701B14207D90770006800F090
:100F40000700B04201D00120E7E72878400705D527
:100F50002068E96820F4E050084320602878000702
:100F600006D52068296920F4604040EAC10020606D
:100F700000F038F82168084AC1F30311515CC840F9
:100F80000649086006480068FFF7FAFE0020C4E73B
:100F9000003C0240083802400482000800010020A2
:100FA000F80000200448054900680968044AC1F3B4
:100FB0008221515CC840704700010020083802407F
:100FC000148200080448054900680968044AC1F30E
:100FD0004231515CC840704700010020083802408F
:100FE00014820008154810B5006810F00C0214486F
:100FF00013D04110042A0FD0082A0ED10F4C241F01
:101000002268236802F03F025B0207D52068C0F324
:101010008810A0FB010106E0084610BD2168C1F35D
:101020008811A1FB00010023FFF7CCF82168C1F370
:101030000141491C4900B0FBF1F010BD08380240E5
:101040000024F4002DE9F84F04006ED02078DFF87A
:101050004C93C007A9F104054AD009F104000168C6
:10106000C1F38101012908D00068C0F38100022882
:101070000AD1D9F80000400206D52868800337D588
:1010800060680028E1D033E06068B0F5803F10D0A0
:10109000B0F5A02F286810D020F480302860286890
:1010A00020F4802028606068A8B1FFF741FE064662
:1010B0000DE0286840F48030F4E740F48020286098
:1010C000F7E700BFFFF734FE801B642873D8286859
:1010D0008003F7D50CE0FFF72BFE064605E000BFC6
:1010E000FFF726FE801B6428F0D828688003F7D419
:1010F0002078DFF8AC8280074FF0000A3ED5A74881
:10110000001D016811F00C0F08D00068C0F38100C9
:1011100002280BD1D9F80000400207D428688007C4
:1011200016D5E068012800D112E033E1E068B8B1DB
:101130000120C8F80000FFF7FBFD064605E000BFF0
:10114000FFF7F6FD801B0228C0D828688007F7D576
:101150002868216920F0F80040EAC10028600DE00D
:10116000C8F800A0FFF7E4FD064604E0FFF7E0FD45
:10117000801B02281FD828688007F7D42078000732
:1011800022D5864F87486169703771B101210160AE
:10119000FFF7CEFD064604E0FFF7CAFD801B0228DC
:1011A00009D838688007F7D50EE0C0F800A0FFF72F
:1011B000BFFD064605E082E0FFF7BAFD801B02286E
:1011C0007DD838688007F7D42078400768D5DFF8E5
:1011D000CCB100270BF13C0BDBF80000C0000BD4B6
:1011E000DBF8001041F08051CBF80010DBF8000074
:1011F000012700F0805000906B4E3068C00510D47D
:10120000306840F480703060FFF792FD009005E098
:10121000FFF78EFD0099401A022850D83068C005AB
:10122000F6D55E4EA0686C3601280FD005283068D0
:1012300010D020F001003060306820F004003060F1
:10124000A068B8B1FFF774FD00900FE0306840F07F
:101250000100F4E740F004003060F7E7FFF768FDB5
:101260000099411A41F28830814266D8306880077F
:10127000F4D50EE0FFF75CFD009007E0FFF758FDA6
:101280000099411A41F28830814256D8306880076F
:10129000F4D42FB1DBF8001021F08051CBF800100E
:1012A000A069C8B33D49091D0968C1F3810102293C
:1012B0004AD00228504607D0C8F8600000E03CE061
:1012C000FFF736FD04463BE04746C8F86000FFF7ED
:1012D0002FFD064605E000BFFFF72AFD801B022810
:1012E0002BD828688001F7D4D4E907010843A16A04
:1012F0002E4A490802EB0141626A41EA8211084321
:1013000094F82C1040EA0161C9F8001001203866F9
:10131000FFF70EFD044606E03EE000BFFFF708FDC4
:10132000001B022809D828688001F7D534E000BFE7
:10133000FFF7FEFC001B022802D90320BDE8F88F4E
:1013400028688001F4D427E00128F7D0D9F80000FC
:10135000E26900F4800191421CD1226A00F03F0151
:10136000914217D147F6C071626A0140B1EB821F0A
:1013700010D1A26A4FF0FF3300F4403103EB520268
:10138000B1EB024F06D194F82C1000F07060B0EB76
:10139000016F01D00120D1E70020CFE704380240DF
:1013A00000004742800E4742007000400000FFFFEF
:1013B00010B5401EB0F1807F01D3012010BD4FF069
:1013C000E02460610F21601702F07EFA0020A06126
:1013D00007202061002010BD7047704770B590F85D
:1013E0003C20012A32D0012480F83C40022280F8BF
:1013F0003D2003685A689D6822F070060A683243EF
:101400005A60134B02689A4214D0B2F1804F11D047
:10141000104B9A420ED0104B9A420BD00F4B9A426F
:1014200008D00F4B9A4205D00E4B9A4202D00E4B79
:101430009A4204D1496825F080031943916080F8ED
:101440003D40002180F83C10084670BD022070BD70
:10145000000001400004004000080040000C004073
:1014600000040140004001400018004010B5040095
:1014700003D094F83D0010B107E0012010BD00201A
:1014800084F83C00204600F01FF8022084F83D005C
:10149000211D206801F004FA012084F8460084F838
:1014A0003E0084F83F0084F8400084F8410084F84E
:1014B000420084F8430084F8440084F8450084F82E
:1014C0003D00002010BD000008B501681D48B1F1C5
:1014D000804F11D01C4A91421DD1016841F0020198
:1014E00001600068002200F00200009011461D20FB
:1014F000FFF78CFC1D201FE0016841F00101016035
:101500000068002200F00100009011461C20FFF747
:101510007DFC1C2010E00D4A914211D1016841F080
:10152000040101600068002200F0040000901146F0
:101530001E20FFF76BFC1E20BDE80840FFF758BCDB
:1015400008BD000040380240000400400008004090
:1015500090F83D10012901D001207047022180F848
:101560003D100168CA6842F00102CA600068114972
:10157000884214D0B0F1804F11D00F4988420ED06C
:101580000E4988420BD00E49884208D00D49884246
:1015900005D00D49884202D00C49884204D18168A7
:1015A00001F00701062903D0016841F00101016043
:1015B0000020704700000140000400400008004087
:1015C000000C0040000401400040014000180040B1
:1015D00070B5044690F83C000025012817D001267C
:1015E00084F83C60022084F83D002068826822F084
:1015F000770222F47F4282600868502838D00DDCE0
:1016000020284FD005DC90B3102811D14AE00220E9
:1016100070BD302846D040280AD13BE060282FD04A
:1016200070280DD0B0F5805F03D0B0F5005F12D008
:10163000012584F83D60002084F83C00284670BDF8
:10164000CB68D1E90121206801F0A3F92068816805
:1016500041F0770109E0CB68D1E90121206801F070
:1016600098F92068816841F480418160E1E719E0E0
:10167000CA684968206801F061FA5021206806E0D4
:10168000CA684968206801F06AFA6021206801F0A0
:101690008AF9CEE7CA684968206801F04FFA40210C
:1016A0002068F4E7226801461046F0E770472DE90C
:1016B000F04104460068C66805694FF00007A907B5
:1016C00013D5B10711D5F91E0161012020772068DB
:1016D00080698007204602D0FFF7E8FF04E000F0B1
:1016E000A9F8204600F03BF92777680716D5700760
:1016F00014D521686FF0040008610220207720686B
:10170000806910F4407F204602D0FFF7CFFF04E04D
:1017100000F090F8204600F022F92777280715D529
:10172000300713D521686FF0080008610420207786
:101730002068C0698007204602D0FFF7B7FF04E0A9
:1017400000F078F8204600F00AF92777E80616D569
:10175000F00614D521686FF010000861082020778A
:101760002068C06910F4407F204602D0FFF79EFF3A
:1017700004E000F05FF8204600F0F1F82777E80772
:1017800008D0F00706D021686FF0010008612046FC
:1017900000F04AF9280608D5300606D521686FF012
:1017A000800008612046FFF717FE680608D570061E
:1017B00006D521686FF040000861204600F020FA4D
:1017C000A8060AD5B00608D521686FF02000086188
:1017D0002046BDE8F041FFF700BEBDE8F081000003
:1017E00010B586B0044614216846FEF748FD0E4940
:1017F0002068884215D10D480021026842F0080295
:101800000260006800F0080005904FF470400090FE
:101810000220CDE90101CDE9031069460448FFF734
:1018200081F906B010BD00000008004030380240C9
:10183000000C0240704770B5044690F83C0000264A
:101840000D4601280FD0012084F83C006AB1042A1B
:101850001DD0082A2FD00C2A3FD00126002084F862
:101860003C00304670BD022070BD206801F0A4F835
:101870002068816941F0080181612068816921F057
:1018800004018161206881692A69114311E020689F
:1018900001F0C2F82068816941F40061816120682B
:1018A000816921F480618161206881692A6941EA46
:1018B00002218161D2E7206801F0E4F82068C16963
:1018C00041F00801C1612068C16921F00401C161D2
:1018D0002068C1692A69114311E0206801F006F906
:1018E0002068C16941F40061C1612068C16921F4C7
:1018F0008061C1612068C1692A6941EA0221C16130
:10190000ACE710B5040003D094F83D0010B107E037
:10191000012010BD002084F83C00204600F01EF895
:10192000022084F83D00211D206800F0B9FF01204D
:1019300084F8460084F83E0084F83F0084F84000B4
:1019400084F8410084F8420084F8430084F844009D
:1019500084F8450084F83D00002010BD70477047B2
:1019600010B50446022249B104290ED0082913D02B
:1019700094F84100012816D0012010BD94F83E00D3
:101980000128F9D184F83E200FE094F83F000128A7
:10199000F2D184F83F2008E094F840000128EBD110
:1019A00084F8402001E084F841200122206800F002
:1019B000E3FF16492068164A884201D0904203D1BD
:1019C000436C43F4004343642068884213D0B0F171
:1019D000804F10D00F4988420DD00F4988420AD05D
:1019E0000E49884207D0904205D00D49884202D066
:1019F0000C49884204D1816801F00701062903D00F
:101A0000016841F001010160002010BD00000140AB
:101A1000000401400004004000080040000C0040A9
:101A200000400140001800402DE9F04706460068DC
:101A3000DFF8AC9100256B4CB0F1804F0BD16068A2
:101A4000401C6060A068401CA06001F021FA616841
:101A5000494500DD65606449306888427ED1206870
:101A6000DFF88CA1401C206060480068012853D139
:101A7000E0684FF0010801283DD1A06901282BD171
:101A8000206A062801DA401C20625A4E012805D13E
:101A9000012196ED000A002005F0C0FE206A022810
:101AA00005D1022196ED000A002005F0B7FE206A5C
:101AB000032805D1032196ED000A002005F0AEFEB3
:101AC000206A042805D1042196ED000A002005F0C3
:101AD000A5FE206A052803D0E069012808D00AE0A5
:101AE000052196ED000A002005F098FEC4F81C8040
:101AF000A561E56125622069012865D16069012839
:101B000062D1A069012808D0002220215046FFF7A9
:101B100009F9E069012852D056E0012220215046FF
:101B2000FFF700F9A06A08B9C4F82880206A0628DF
:101B300040DA401C304E314F2062012808D194F821
:101B40002C000121D6ED000A97ED000A02F008FEF4
:101B5000206A02280AD194F82C0000E03EE002211D
:101B6000D6ED000A97ED000A02F0FAFD206A03287C
:101B700008D194F82C000321D6ED000A97ED000A55
:101B800002F0EEFD206A042808D194F82C0004210C
:101B9000D6ED000A97ED000A02F0E2FD206A052862
:101BA00008D194F82C000521D6ED000A97ED000A23
:101BB00002F0D6FD206A0628ABD1C4F81C8065620D
:101BC000A561A562E56125622168494506DD5046AB
:101BD0002560BDE8F0472021FFF79CB8BDE8F087FD
:101BE000A0860100F4010020000400405000002005
:101BF0000008024064010020600100205C01002018
:101C0000704718B5034690F84200202801D0022002
:101C100018BD61B15AB101201863002058631846FD
:101C200001F0D2F80028F3D1196B012901D001206D
:101C300018BD19680A684968009119680C3151E8A3
:101C4000002F42F0100241E80024002CF5D118BD0D
:101C500070B5154A01680125144C914208D128221B
:101C60001349FFF7CEFF6563BDE8704001F000B98E
:101C7000104A914217D128220F49FFF7C2FF0E499F
:101C8000C8782B2809D10D4A00200B5C1354401C46
:101C90000728FADB206B00B92563BDE870403221CC
:101CA0000548FEF7ECBA70BD004800400000002077
:101CB0007A070020004C00402C0800205C02002025
:101CC00070470000F8B5016804460868CA684B69A7
:101CD00010F00F0F4FF0000559D003F0010602F489
:101CE0009077374365D0C10705D0D10503D5616C26
:101CF00041F001016164410705D5D90703D0616C4A
:101D000041F002016164810705D5D90703D0616CF8
:101D100041F004016164010707D502F0200131435D
:101D200003D0616C41F008016164616C00293AD014
:101D3000800604D5900602D5204600F05EFF20689C
:101D40004069616CC0F38010090700D460B320467D
:101D500000F02CFF20684069400621D5206814302F
:101D600050E8001F21F0400140E80012002AF5D1A0
:101D7000E06BA8B16E490165E06BFEF7AFFE00288D
:101D800011D0E06B016D01B0BDE8F040084783065B
:101D90000FD593060DD52046BDE8F84000F02DBFC5
:101DA0002046FFF78DFFF8BD2046FFF789FF6564E9
:101DB000F8BD266B2023012E7DD1C6067BD5D60625
:101DC00079D508684868009048694FF002064006D7
:101DD00041D5E16B086840680004000CE8D0A28D92
:101DE0008242E5D9E085C869B0F5807F2DD02068B2
:101DF0000C3050E8001F21F4807140E80012002AE6
:101E0000F5D12068143050E8001F21F0010140E8AE
:101E10000012002AF5D12068143050E8001F21F08C
:101E2000400140E80012002AF5D184F842302563D1
:101E300020680C3050E8001F21F0100140E800122B
:101E4000002AF5D1E06BFEF700FE6663A08DE18D00
:101E5000401A81B22AE0A08DE18D401A81B2E08D56
:101E60000028A5D00029A3D022680C3252E8000F28
:101E700020F4907042E80007002FF5D1206814305C
:101E800050E8002F22F0010240E80027002FF5D192
:101E900084F84230256320680C3050E8002F22F08F
:101EA000100240E80023002BF5D166632046FFF7BF
:101EB000CFFEF8BDFFE705062BD5150629D594F80A
:101EC00041002128F5D1A068B0F5805F01D12069DB
:101ED000B0B1206A411C2162216800784860E08C22
:101EE000401E0004000CE084E3D12068C16821F0AA
:101EF0008001C1602068C16841F04001C160D8E73D
:101F0000206A0088C0F308004860206A801C2062B4
:101F1000E5E74006CDD55006CBD5CA68204622F06D
:101F20004002CA6084F8413000F0E5F9C1E70000E2
:101F30009D2B000870B5040004D094F841000025E2
:101F400010B106E0012070BD84F84050204600F03A
:101F500023F8242084F841002068C16821F400514E
:101F6000C160204600F0AAFE2068016921F490417A
:101F700001612068416921F02A0141612068C1683E
:101F800041F40051C1606564202084F8410084F868
:101F900042006563002070BD2DE9F04186B0044623
:101FA00014216846FEF76BF96E49DFF8B4C1236867
:101FB00000246C4A10390325022608276A48634525
:101FC0001ED1136843F400231360126802F4002248
:101FD00005920A6842F001020A600968CDE90056DC
:101FE00001F00101CDE904716946CDE90245FEF732
:101FF00099FD002211463420FEF708FF342038E016
:10200000DFF868C1DFF86881634537D1106840F4B4
:1020100080101060106800F480100590086840F08F
:1020200004000860086800F004000590086840F0AB
:1020300008000860086802AB00F0080005904FF443
:102040008050CDE9000683E8B00069464948FEF7B4
:1020500069FD0420CDE9000602AB694683E8B000C3
:102060004046FEF75FFD002211463520FEF7CEFE0A
:102070003520FEF7BDFE06B0BDE8F081DFF8F8C000
:102080000727634522D1374A121D136843F0100316
:102090001360126802F0100205920A6842F0010211
:1020A0000A60096802AA01F0010105914FF4C061BC
:1020B000CDE9001682E8B0006946FEF733FD002244
:1020C00011462520FEF7A2FE2520D2E72B488342A9
:1020D00020D1106840F400301060106800F4003027
:1020E0000590086840F008000860086802AB00F03E
:1020F000080005906020CDE9000683E8B00069463D
:102100004046FEF70FFD002211462620FEF77EFE18
:102110002620AEE71A488342ADD1106840F48020F3
:102120001060106800F480200590086840F00200FC
:102130000860086802AB00F0020005904FF44060B0
:10214000CDE9000683E8B00069460E48FEF7EAFCD8
:10215000002211462720FEF759FE272089E70000BC
:10216000004C004040380240000002400050004057
:10217000000C0240000802400010014000440040F2
:1021800000480040000402402DE9F84F044690F852
:1021900042009A4616460D46202802D00220BDE88D
:1021A000F88FB5B1AEB100206064222184F84210EE
:1021B0002063FEF7BDFDA6858146E685A0684FF445
:1021C00080582027404501D1206920B12E460025A6
:1021D00029E00120E3E7002625E04B4600222021EC
:1021E0002046CDF800A000F00AFE18B184F8427035
:1021F0000320D4E726B1A06840451AD038B108E0E2
:1022000020684068C0F3080025F8020B08E0206948
:1022100078B12068406800F07F0000BF06F8010B2D
:10222000E08D401EE085E08D0028D6D184F8427014
:10223000B5E720684068F1E790F84230202B01D0E4
:102240000220704721B11AB10023036300F0BCBD26
:102250000120704770472DE9F843044690F841008B
:10226000984616460D46202802D00220BDE8F88385
:1022700085B17EB100206064212084F84100FEF722
:1022800057FDA6848146E684A0682027B0F5805FCC
:1022900002D003E00120E9E7206910B12E460025B5
:1022A0000EE000260CE08021204600F0A8FDA8B931
:1022B000C6B116F8010B21684860E08C401EE0842E
:1022C000E08C4B464FF00002CDF800800028EAD1A8
:1022D0004FF04001204600F092FD40B184F841707B
:1022E0000320C3E735F8020BC0F30800E3E784F8E6
:1022F00041700020BAE77047FEE70000064B10B5BA
:102300005C78C2F30723D2B214B103700A7010BD17
:102310000B70027010BD000004010020F0B587B002
:1023200014216846FDF7ABFF25480025016841F000
:1023300080010160016801F080010591016841F0B0
:1023400001010160016801F001010591016841F09E
:1023500004010160016801F004010591016841F088
:1023600002010160016801F002010591016841F07C
:10237000080101600068134E00F00800059000227B
:1023800020213046FEF7CEFC0F4F002204213846B4
:10239000FEF7C8FC01242020CDE900046946304640
:1023A000CDE90245FEF7BEFB0420CDE900046946F5
:1023B0003846CDE90245FEF7B5FB07B0F0BD000099
:1023C00030380240000802400004024010B586B0D8
:1023D00000241848009401940294039404944FF04C
:1023E00080410594016040F28F61C0E901144FF40F
:1023F0007A71C0E9031480218161FFF737F808B1D1
:10240000FEF721FB4FF48050009069460948FFF722
:10241000DFF808B1FEF717FB2020CDE9040404A97A
:102420000448FEF7DBFF002801D0FEF70CFB06B0E6
:1024300010BD00003004002010B586B000241848FC
:102440000094019402940394049414490594016047
:1024500040F28F61C0E901144FF47A71C0E90314AE
:1024600080218161FFF702F808B1FEF7ECFA4FF422
:102470008050009069460A48FFF7AAF808B1FEF7B5
:10248000E2FA2020CDE9040404A90548FEF7A6FFDE
:10249000002801D0FEF7D7FA06B010BD00040040B6
:1024A0007804002010B58EB0002407940894099495
:1024B0000A940B941C2168460C94FDF7E0FE2B480F
:1024C0002949016040F28F61C0E9011440F2CF71E7
:1024D000C0E903148461FEF7C9FF08B1FEF7B3FA3F
:1024E0004FF48050079007A92048FFF771F808B112
:1024F000FEF7A9FA1D48FFF704FA08B1FEF7A3FAA0
:102500000B940BA919480C94FEF768FF08B1FEF76D
:102510009AFA6020CDE9000402940022694613482B
:102520000494FFF788F908B1FEF78DFA0422694692
:102530000E48FFF780F908B1FEF785FA08226946D0
:102540000A48FFF778F908B1FEF77DFA0C226946D0
:102550000648FFF770F908B1FEF775FA0348FFF770
:102560003FF90EB010BD000000080040C00400207C
:102570000C4810B50A4901604FF4E1314160002177
:1025800081600C22C160C0E904128161C161FFF762
:10259000D1FC002803D0BDE81040FEF754BA10BDAE
:1025A000004C0040080500200C4810B50A490160A5
:1025B0004FF416514160002181600C22C160C0E9D6
:1025C00004128161C161FFF7B5FC002803D0BDE8AA
:1025D0001040FEF738BA10BD0050004050050020F2
:1025E0000C4810B50A4901604FF4E1314160002107
:1025F00081600C22C160C0E904128161C161FFF7F2
:1026000099FC002803D0BDE81040FEF71CBA10BDAD
:1026100000100140980500200C4810B50A490160DF
:102620004FF4E1314160002181600C22C160C0E9BA
:1026300004128161C161FFF77DFC002803D0BDE871
:102640001040FEF700BA10BD00440040E005002035
:102650000C4810B50A4901604FF4E1314160002196
:1026600081600C22C160C0E904128161C161FFF781
:1026700061FC002803D0BDE81040FEF7E4B910BDAE
:102680000048004028060020FEE7FEE770470000F3
:102690007FB582B015460C46064604F05BFC02206E
:1026A0000090012305AA2146304605F0CBFC05F039
:1026B000A7FC01F03DFB002832D01C4E0020032176
:1026C000B07001A804F048FC032828D19DF814102C
:1026D000284604F041FC9DF81410044688421ED19F
:1026E00001210DF1070004F037FC012817D19DF8F6
:1026F00004009DF805109DF8062008441044C1B25E
:10270000002004E02B5C401C1944C9B2C0B2A042B6
:10271000F8DBC8439DF80710C0B2814202D0002008
:1027200006B070BDB2702046FAE700000401002038
:1027300010B50E4C411C08D000212160C0B23821D8
:1027400004F012FC411C0ED004E0094841780078E6
:1027500040EA01202168002904D1010402D520F4B7
:102760000040404210BD0121216010BD2001002029
:10277000F00600202DE9F0411D4616460F46804622
:10278000002408E0002C06DD09A1012004F066FB0E
:102790006420FEF7B5F92B46324639464046FFF72E
:1027A0005AFD002802D0641C0A2CEBDBBDE8F08146
:1027B0006661696C0000000002460448407810B170
:1027C00041EA0220704742EA0120704704010020DC
:1027D0007047FEF7B3BA000030B593B030216846B9
:1027E000FDF74DFD14210CA8FDF749FD1D480025FE
:1027F000016841F080510160006800F08050119044
:102800001948016841F4804101600068022400F425
:102810008040119001200090000401908001CDE9DA
:10282000064008AA0420A82182E813000B906846FD
:10283000FEF708FC08B172B6FEE70CA90F2081E88C
:1028400031004FF4A0500F904FF4805010900521AC
:102850000CA8FEF70DFB002801D072B6FEE713B0FE
:1028600030BD00004038024000700040024801685E
:1028700041F470010160704788ED00E00148FEF707
:1028800016BF0000300400200148FEF710BF000012
:10289000780400200148FEF70ABF0000C0040020B1
:1028A000F0B50268294C2A4D2A4E2B4F2B4B4FF086
:1028B000804CA04209D0604507D0A84205D0B04264
:1028C00003D0B84201D0984204D122F0700E4A6879
:1028D00042EA0E02A0421BD0604519D0A84217D090
:1028E000B04215D0B84213D0984211D01C4DA84226
:1028F0000ED01C4DA8420BD01B4DA84208D01B4D3A
:10290000A84205D01A4DA84202D01A4DA84203D1C0
:1029100022F44075CA682A434D6922F080022A4396
:1029200002608A68C2620A688262A04201D098424C
:1029300001D109690163012141610169C90703D01E
:10294000016921F001010161F0BD000000000140BA
:102950000004004000080040000C0040000401405A
:102960000040014000440140004801400018004080
:10297000001C00400020004010B501F01F030121A1
:10298000046A99408C430462016A9A4011430162CF
:1029900010BD10B5846842EA032224F47F440A4340
:1029A0002243826010BD826822F070020A4342F026
:1029B0000701816070470000F0B5036A026A22F0E7
:1029C0000102026242688469124E24F073050C68A9
:1029D0002C4323F002058B682B430D4DA84201D0F8
:1029E000B04205D123F00807CB683B4323F0040332
:1029F000A84201D0B04205D14D6922F4407215437E
:102A00008A692A4342608461496841630362F0BD78
:102A10000000014000040140F0B5026A036A23F09F
:102A200010030362436884690D6824F4E64444EAB1
:102A300005248D6822F0200242EA05120F4D104E47
:102A4000A84201D0B04206D1CF6822F0800242EA0B
:102A5000071222F04002A84201D0B04207D14D69CE
:102A600023F4406343EA85038D6943EA85034360A9
:102A70008461496881630262F0BD0000000001408A
:102A800000040140F0B5026A036A23F48073036214
:102A90004368C46922F4007224F073050C68124E76
:102AA0002C438D6842EA05220E4DA84201D0B04267
:102AB00006D1CF6822F4006242EA072222F4806243
:102AC000A84201D0B04207D14D6923F4405343EAF4
:102AD00005138D6943EA05134360C4614968C16306
:102AE0000262F0BD000001400004014030B5046AFC
:102AF000026A22F4805202624268C3690D6823F4BC
:102B0000E64343EA05238D6824F4005444EA05347F
:102B1000084DA84202D0084DA84204D14D6922F4C4
:102B2000804242EA85124260C361496801640462DE
:102B300030BD0000000001400004014010B5036AF0
:102B4000046A24F001040462846924F0F00444EA75
:102B5000021423F00A020A438461026210BD10B518
:102B6000036A046A24F010040462846923F0A00359
:102B700024F4704444EA023243EA011182610162A2
:102B800010BD00000148FFF79DB8000008050020B7
:102B90000148FFF797B800005005002010B5806B82
:102BA0000021C185C184FFF78BF810BD01680C318D
:102BB00051E8002F22F4907241E80023002BF5D158
:102BC0000168143151E8002F22F0010241E800238E
:102BD000002BF5D1016B012909D101680C3151E8B5
:102BE000002F22F0100241E80023002BF5D1202114
:102BF00080F8421000210163704708B590F8421038
:102C0000222901D0022008BD82684FF480539A42E5
:102C100001D1016921B1816A9A421BD04AB10AE00F
:102C20000268816A5268C2F308020A80816A891CBC
:102C300008E0026972B10268526802F07F020A700D
:102C4000816A491C8162C18D491E0904090CC18534
:102C500003D01BE002685268F1E70168CA6822F0FD
:102C60002002CA600168CA6822F48072CA600168E2
:102C70004A6922F001024A61202180F842100021B5
:102C80004163026B012A03D0FFF7E4FA002008BD7C
:102C9000016301680C3151E8002F22F0100241E875
:102CA0000023002BF5D101680A68D20602D50A6814
:102CB00049680091818DFEF7CBFFE7E770B50446C8
:102CC00000680169E26821F4405111430161216902
:102CD000A068E26908436169114308432168CA6832
:102CE00049F20C639A430243CA6020684169A269B1
:102CF00021F440711143416131492068884202D07A
:102D00003049884202D1FEF75DF901E0FEF74AF949
:102D1000E2690023192164253226B2F5004F62686A
:102D200028D0A0FB0101930F9200FDF74BFA01465A
:102D3000B0FBF5F06FF01802504301EB800006EB9A
:102D40000010B0FBF5F000F0F002B1FBF5F002EB83
:102D50000012B1FBF5F06FF01803584301EB80004F
:102D600006EB0010B0FBF5F000F00F0021681044F6
:102D7000886070BDA0FB010192185B41FDF722FA4B
:102D80000146B0FBF5F00201B1FBF5F06FF018035E
:102D9000584301EB800006EBC000B0FBF5F000F0FB
:102DA000F80002EB4002B1FBF5F0584301EB800064
:102DB00006EBC000B0FBF5F000F00700D6E700001E
:102DC000001001400014014081628285C28500210B
:102DD0004164222180F84210016921B10168CA686A
:102DE00042F48072CA6001684A6942F001024A6195
:102DF0000068C16841F02001C160002070472DE9E2
:102E0000F843984617460D460446089E24E0701C79
:102E100022D0FDF78DFFA0EB0800B0421AD8CEB14A
:102E20002068C168490717D5802D15D0402D13D0D3
:102E30000168C94309070FD4016800254068009064
:102E40002046FFF7B3FE0820606484F8405001205C
:102E5000BDE8F8830320FBE72068006835EA00003E
:102E600004D00020B842D2D00020F1E70120F9E7D9
:102E700010B500F00FF8054942F210724868401C86
:102E80004860904201DB0020486010BD7C010020BA
:102E9000704700002DE9F04FFF482DED068B83B001
:102EA0000268FE48012A417801D1FD4A1160FD4ABD
:102EB0001368FA4C0026012B247804D13F2C02D150
:102EC000032900D11660F84B01221D6825B93F2C5B
:102ED00002D1772900D11A60DFF8D0834FF0030EBA
:102EE000D8F80030012B02D0022B07D01AE03F2C7B
:102EF00018D1442916D1EE4B1E6013E0252C11D1B8
:102F0000EC4F0123C55C012D03D0022D01D0032D10
:102F100003D107EB830C4CF8045C5B1C042BF1DB46
:102F2000C8F800E0E44B1B68012B05D13F2C03D10E
:102F3000272901D1E14B1A60E14B1D68022D04D114
:102F40003F2C02D1612900D11A60DE4B1D6825B9E2
:102F50003F2C02D1622900D11A60DB4DCF4B2F6884
:102F600093F806C0CDF800C0B3F804A093F803901E
:102F7000012F02D0022F26D038E0009B212B35D123
:102F8000C64BD24F012CB3F8013002D0022C02D034
:102F900004E05BBA01E05BBA5B423B60CC4BB9F149
:102FA000010F03D0B9F1020F03D006E09AFA9AF7A5
:102FB00002E09AFA9AF77F421F60102916D13F2C3F
:102FC00014D12E6012E0072904D0082906D009295F
:102FD0000AD00BE03F2C09D1BE4902E03F2C05D1BD
:102FE000BD490A60467001E03F2C07D09346BB4ABA
:102FF000C2F800B04178882902D006E0B849F0E76D
:103000003F2C02D1B74BC3F800B0B74F3D68022D3B
:1030100014DA2A2C12D1DFF8D4C20122835C012BEE
:1030200003D0022B01D0032B03D10CEB820848F80C
:10303000043C521C072AF1DB6D1C3D60AC4B1A6846
:10304000012A3FD1009A212A3CD1AA4AAA4D012C3B
:1030500002D0022C04D016E0B0F801707FBA03E071
:10306000B0F801707FBA7F4217601768D5ED000A8B
:1030700000EE107AB8EEC00A20EE200ABDEEC00ABB
:1030800010EE105A15609D4A9D4DB9F1010F03D005
:10309000B9F1020F03D014E09AFA9AF702E09AFA13
:1030A0009AF77F4217601768D5ED000A00EE107A94
:1030B000B8EEC00A20EE200ABDEEC00A10EE105A8B
:1030C00015601E608F4A1268012A06D1032904D1B7
:1030D0003F2C02D18C4BC3F800B08C4A12688C4D47
:1030E000012A11D18B4A072904D0082906D00929C1
:1030F00008D009E03F2C07D159460BE03F2C03D103
:10310000022107E03F2C04D0012C06D0022C0FD066
:1031100004E071461160467000E069665F4A81789C
:10312000B2F803307C4A012904D0022904D014E00B
:103130004942F2E75BBA01E05BBA5B42EB60EB68E5
:10314000D2ED000A00EE103AB8EEC00A20EE200AD6
:10315000BDEEC00A10EE103AEB60504B4779DB88A9
:10316000012F02D0022F02D012E05BBA01E05BBA5D
:103170005B42AB61AB69D2ED000A00EE103AB8EEEB
:10318000C00A20EE200ABDEEC00A10EE102AAA6185
:10319000477862489FED628A442F0ED1444A1368F3
:1031A000012B0AD13F2C08D116605E4A82ED008ABD
:1031B0005D4A82ED008A80ED008A5C4A1368012B2B
:1031C00011D15B4BDFF86CC1DFF86C81D3ED000AE5
:1031D0004F4BDCED001A98ED001A93ED1A0A012C02
:1031E00002D0022C41D0DFE002EE107A6B6EB8EE16
:1031F000422A62EE200A02EE107AF8EE422A02EE2D
:10320000103A5B005B42B8EEC22A32EE822AF8EE38
:10321000C02AB8EEC00A32EE222A41EE820A01EE3E
:10322000903AB8EEE12A01EE907AF8EE611A72EE69
:10323000211A31EE800A41EE000ABDEEE00A10EEDE
:10324000103AEB66052B02DDB1EE040A08E0012B13
:1032500002DAB7EE000A03E000EE103AB8EEC00A58
:1032600080ED000A6F66AF669EE002EE107A6B6E2C
:10327000F8EE422A02EE103AB8EEC22A32EE622A84
:10328000F8EEC02A32EE222A62EE211A02EE107AFD
:10329000B8EE422A52E00000EC0000207A0700203D
:1032A000F0000020400000207C00002000000020F2
:1032B0002402002030020020E0000020E400002072
:1032C000E800002074000020D0000020C80000208A
:1032D000CC000020D4000020D80000200C020020E8
:1032E000DC000020C4000020C00000208C00002072
:1032F00048000020240100205481000828010020FB
:103300005881000864000020600000203C0000207C
:103310007C01002044000020188100086401002086
:10332000000000005C01002060010020000200207D
:103330000C81000810810008148100085B0040EE39
:10334000C21A5B4200EE903AB8EEC00AB8EEE02A2C
:1033500000EE907AF8EE600A72EE600A30EE800AB3
:1033600041EE001ABDEEE10A10EE103AEB6613F1E1
:10337000050F02DAB9EE040A08E0002B02DBBFEE0B
:10338000000A03E000EE103AB8EEC00A80ED000A31
:1033900000EE107AB8EE400AB1EE400ABDEEC00A67
:1033A00085ED190A85ED1A0A272F02D0282F05D09E
:1033B00007E03F2C05D180ED008A01E03F2C00D1D1
:1033C0001660D948006801287ED1012C02D0022C59
:1033D00005D00DE000EE107AB8EE400A05E000EEF0
:1033E000107AB8EE400AB1EE400AD04880ED000AEB
:1033F000012902D0022905D00DE000EE109AB8EEA6
:10340000400A05E000EE109AB8EE400AB1EE400A1C
:10341000C74880ED000ADFF81483D8F80000FDF7F4
:103420001EF99FEDC49B53EC192BFCF7E1FFFDF750
:1034300029F908EE900ABE480068FDF710F953EC30
:10344000192BFCF7D5FFFDF71DF9FDEEE80A00EE9C
:10345000100A10EE900AE860BDEEC00A10EE100AE5
:10346000A861E8682861A869E86128696861E86975
:1034700028626869E96808442969494200EB41000B
:1034800000EE100AAD48B8EEC00AD0ED000A20EEFA
:10349000200A10EE100AFDF7E2F89FEDA9AB53ECFD
:1034A0001A2BFCF7A5FF41EC190BA748D0ED000A39
:1034B000E86800EE100AE868B8EEC00A20EE800A5C
:1034C00029690844696900E0ACE0084400EE900A0C
:1034D0009E48F8EEE00A90ED001A01EE200A10EE88
:1034E000100AFDF7BCF853EC192BFCF7DAFEFDF7D8
:1034F000C9F8C8F800000190286AA9690844E96978
:10350000494200EB410000EE100A8C48B8EEC00AB8
:10351000D0ED000A20EE200A10EE100AFDF79FF809
:1035200053EC1A2BFCF764FF41EC190B8648D0EDE5
:10353000000AA86900EE100AA869B8EEC00A20EED9
:10354000800A296908446969084400EE900A7F48A6
:10355000F8EEE00A90ED001A01EE200A10EE100AD3
:10356000FDF77DF853EC192BFCF79BFEFDF78AF86D
:103570006F49774AB2EE040A08600199914201DD71
:1035800088ED000A6A49904201DD81ED000A714A26
:10359000D8F800304046BAEE040A934201D980EDD3
:1035A000000A0B68934201D981ED000A90ED000AF0
:1035B0004FF07C5310EE102AF6EE000A9A4206DA1B
:1035C000B5EEC00AF1EE10FA01DDC0ED000A91ED92
:1035D000000A10EE102A9A4206DAB5EEC00AF1EEA1
:1035E00010FA01DDC1ED000A90ED000A4FF03F43F3
:1035F00010EE102AFEEE000A9A4206D2B5EEC00A7C
:10360000F1EE10FA01D2C8ED000A91ED000A10EEB9
:10361000100A984206D2B5EEC00AF1EE10FA01D2B5
:10362000C1ED000A4C48172C02D0182C13D005E02D
:103630003E4981ED008A3E4981ED008A4749DFF825
:1036400020C1484A0B684849392F08D0402F09D07B
:10365000412F10D013E034490E60AE60E8E7012B33
:103660000BD00CE0022B08D009E000BFCCF80060C2
:1036700016600E6045E0032B01D13F2CF6D0DCF83C
:103680000030012B3DD1009B212B3AD1374B012C2F
:1036900002D0022C04D00AE0B0F8010040BA03E0E6
:1036A000B0F8010040BA40421060C3F800B0B9F170
:1036B000010F03D0B9F1020F03D008E09AFA9AF093
:1036C00002E09AFA9AF040420860C3F800B0284835
:1036D0000068012815D113682748264AD0F800C091
:1036E00002EB8C0C8CF801300968036802EB830252
:1036F00091700168632903DA0168491C016000E0E8
:1037000006601E48016829B93F2C03D1332F01D12F
:10371000C0F800B06E7003B03221BDEC068BBDE87E
:10372000F04F0D48FCF7ABBD040200205C01002007
:10373000600100209A9999999999D93F08810008C8
:10374000000000000000E03F008100080481000844
:1037500000002041000020C17A07002070000020F6
:103760006C0000202C01002030010020BC00002053
:10377000080000208E020020380000207800002081
:103780000148FEF79FBA0000980500200148FEF7A7
:1037900099BA0000E00500200148FEF793BA000046
:1037A00028060020F0B585B0054602262020CDE988
:1037B000000600240320CDE9024007200E4F0490AC
:1037C00069463846FDF7AEF94020CDE90006694666
:1037D0003846FDF7A7F90A4908480860C1E90154CD
:1037E0000C20CC60C1E904408C610846CC61FEF736
:1037F000A1FB05B0F0BD0000000C024000440040F9
:103800000007002010B513460C460A46014604483E
:10381000FEF7BAFC08B1002010BD20B210BD0000B8
:10382000000700200A4601464FF0FF330148FEF72B
:1038300012BD000000070020FEE77CB515460646D5
:10384000002903DA484240F4004001B26C460A46BF
:10385000601C8DF80030411CFEF750FD0022211D38
:10386000E01CFEF74BFD2A46A11D601DFEF746FD3C
:1038700007236A462921304600F0F0FA7CBD00009B
:103880000FB4054B10B503A9044A029800F03CF8A8
:1038900010BC5DF814FB0000453E00082C0200201F
:1038A0000FB4084B10B504A902AA039800F02CF835
:1038B000044602A9002000F003F9204610BC5DF880
:1038C00014FB0000C13A00080907090E002804DBB8
:1038D00000F1E02080F80014704700F00F0000F1C4
:1038E000E02080F8141D704702E008C8121F08C1CC
:1038F000002AFAD170477047002001E001C1121F71
:10390000002AFBD1704700002DE9FF4F8BB09A468B
:103910000F460546002606E025280BD052460D9995
:1039200090476D1C761C28780028F5D10FB03046E2
:10393000BDE8F08F0024A0460122604900E0044366
:1039400015F8013F203B02FA03F00842F7D128782E
:103950002E2817D115F8010F44F004042A280ED0A0
:103960006FF02F022878A0F1300109290AD808EB5E
:10397000880102EB410100EB01086D1CF2E757F8EA
:10398000048B6D1C287869283ED006DC0028CDD039
:1039900063280BD0642804D136E0732810D0752832
:1039A0004BD052460D999047761C85E017F8040BD2
:1039B0008DF8000000208DF80100E946012003E0A9
:1039C00057F8049B4FF0FF3061074FF0000401D41B
:1039D0000AE0641C44450DDA8442FADB19F804104D
:1039E0000029F6D106E0641C8442FCDB19F80410BF
:1039F0000029F8D1264404E019F8010B52460D992C
:103A00009047641EF8D257E001CF4FF00A0B002810
:103A100002DA40422D2102E0210504D52B218DF848
:103A20002410012103E0E10705D02021F7E70DF183
:103A3000200908910CE00021F9E701CF4FF00A0BB3
:103A4000F9E75946FCF73AFE01F1300209F8012D79
:103A50000028F6D1ADEB090000F1200B600701D47E
:103A60004FF00108D84502DDA8EB0B0000E0002074
:103A70008046002406E009A85246005D0D99904753
:103A8000641C761C08988442F5DB04E03020524622
:103A90000D999047761CB8F10001A8F10108F5DCFA
:103AA00005E019F8010B52460D999047761CBBF1C1
:103AB0000001ABF1010BF4DC6D1C34E709280100B7
:103AC0000A68531C0B601070704703F05FBA000067
:103AD00070B550EA01037DD0962800DD9620962926
:103AE00000DD96216FF09503984200DA184699425E
:103AF00000DA1946664B00241C605C6000EE100A78
:103B0000644DB8EEC00AD5ED000A1D6920EE800AAA
:103B10009E690544354400EE905A5F4DF8EEE00A88
:103B200095ED001A1D6901EE200A451B00EE905A22
:103B30005A4DF8EEE00A95ED001A594D01EE200AB3
:103B400000EE901A95ED001A5D69F8EEE00A61EE5C
:103B5000200ADE690D44354401EE105A514DB8EE8D
:103B6000C11AD5ED001A5D6941EE810A4D1B01EEC7
:103B7000105A4D4DB8EEC11AD5ED001A4B4D41EE1D
:103B8000810A95ED001A4A4D20EE010A95ED001AC2
:103B90001D6960EE810A9D6118615869D86159619B
:103BA0009FED441AB4EEC10AF1EE10FA01DDB0EE59
:103BB000410AF4EEC10AF1EE10FA01DDF0EE410A1D
:103BC0009FED3D1AB4EEC10AF1EE10FA01D2B0EE4B
:103BD000410A00E009E0F4EEC10AF1EE10FA01D268
:103BE000F0EE410A012A03D037E04FF0FF3070BDFC
:103BF00010EE100A4FF07E51304AB7EE001AFFEE79
:103C0000001A884207DAB5EEC00AF1EE10FA02DDBA
:103C1000B0EE410A03E010EE100A904206D2B5EE73
:103C2000C00AF1EE10FA01D2B0EE610A10EE900A6D
:103C3000884207DAF5EEC00AF1EE10FA02DDF0EE86
:103C4000410A03E010EE900A904206D2F5EEC00A57
:103C5000F1EE10FA01D2F0EE610A186A1849401C20
:103C60001862884200DD1C62BDEEC00AFDEEE00A6B
:103C7000B8EEC00AF8EEE00ABDEEC00AFDEEE00ABA
:103C800010EE100A10EE901A03F080F9002070BDBB
:103C90002C01002034810008388100083C81000894
:103CA0004081000844810008488100084C810008D8
:103CB0005081000800004842000048C2000080BF58
:103CC00040420F0010B540F69D34D22340F6FF72FB
:103CD0002146042000F0B4F80148846010BD0000C3
:103CE0002C01002010B54FF44864D22340F6FF7237
:103CF0002146042000F0A4F80148846010BD0000B3
:103D00002C01002010B50420FEF712FD40F2DC511A
:103D100088420ADD40F24474D22340F6FF72214605
:103D2000042000F08DF80148846010BD2C010020B3
:103D300038B5002425460121684603F00DF9002816
:103D40000FD09DF80010E0B260F30F2461F3070478
:103D5000FF2901D1FF2805D06D1CEDB20A2DEAD94B
:103D6000002038BD012038BD00234FF47A6240F6B0
:103D70000C51022000F064B85A234FF47A6240F6E6
:103D80000C51022000F05CB800234FF47A6240F23C
:103D90003661022000F054B800234FF47A6240F2FA
:103DA0003661022000F04CB85A234FF47A6240F298
:103DB0003661022000F044B80E4900209FED160A3B
:103DC00008600D4908600D4908600D4908600D49FB
:103DD00008600D4908600D4908600D4908600D49EB
:103DE00008600E4880ED020A80ED000A80ED010AAD
:103DF00070470000E0010020E4010020EC010020F9
:103E0000880100208C0100209001002094010020F6
:103E1000980100209C010020000000005C010020AF
:103E200002494F200968886370470000C0040020E1
:103E300002494E200968886370470000C0040020D2
:103E4000FFF7FBBC13B54FF6FF730122694602482A
:103E5000FEF701FA00981CBD50050020F8B51C467D
:103E600015460E46074603F075F8032000902346DA
:103E70002A463146384604F0E5F804F0C1F83846E1
:103E8000BDE8F840FCF734BD2DE9F05F17468846E1
:103E9000054603F001FF02F0B3FEB868784CDFF886
:103EA000E4A1DFF8E4914FF4FA66A8421FD1B8F11B
:103EB000010F32467DD03AF82500D22301B203200B
:103EC000FFF7BEFF1420FCF71BFE39F82500D223B4
:103ED00001B240F6FF720420FFF7B2FF1420FCF796
:103EE0000FFE5AF82500E06059F82500A0607868B8
:103EF000A8421FD1B8F1010F32467CD03AF8250014
:103F0000D22301B20320FFF79BFF1420FCF7F8FD3A
:103F100039F82500D22301B240F6FF720420FFF7E2
:103F20008FFF1420FCF7ECFD59F82500A0605AF82B
:103F30002500E0603868A8421ED1B8F1010F324672
:103F40007ED03AF82500D22301B20320FFF778FF94
:103F50001420FCF7D5FD39F825004E4601B2D223D6
:103F600040F6FF720420FFF76BFF1420FCF7C8FD3A
:103F700056F82500A060E0604FF496742046FCF7E8
:103F8000BFFD02F08FFF6000FCF7BAFDFFF750FFA6
:103F90002046FCF7B5FD02F0CDFFFFF793FE20466B
:103FA000FCF7AEFDFFF7F8FE4FF4FA70FCF7A8FD42
:103FB00000E012E002F0AEFF2046FCF7A1FD02F0A7
:103FC00007FEC820FCF79CFD02F0B4FF2046FCF77A
:103FD00097FDBDE8F05FFFF7C7BE40F6BE2BD223CA
:103FE00059460320FFF72CFF1420FCF789FDD2234C
:103FF00040F6FF7200E00DE040F698310420FFF734
:104000001FFF1420FCF77CFD40F69830A060C4F838
:104010000CB06CE7D22340F276710320FFF710FF5B
:104020001420FCF76DFD40F2447BD22340F6FF7272
:1040300059460420FFF704FF1420FCF761FD00E05F
:1040400004E0C4F808B040F2767072E740F23D45F3
:10405000D22329460320FFF7F3FE1420FCF750FD7E
:1040600040F6C836D22340F6FF7231460420FFF7EF
:10407000E7FE1420FCF744FDA660E5607CE7000045
:104080002C0100203C0200204C0200202DE9F047CA
:104090001D4616468946074603F0E6FD02F098FDE8
:1040A00002F048FFFFF70EFE4FF4FA7A5046FCF795
:1040B00027FDFFF769FEA9684D484E4C4FF4FA62A0
:1040C000B94205D116B140F6BE2010E0808837E035
:1040D0006968B94205D116B140F2767007E00089EF
:1040E0002EE02968B9420AD14EB340F23D408046E5
:1040F0000146D2230320FFF7A3FEC4F80C805046EC
:10410000FCF7FEFC02F006FF9620FCF7F9FCFFF737
:104110008FFEC820FCF7F4FC02F00CFFC820FCF76F
:10412000EFFCFFF721FEA868DFF8CC804FF47A623D
:10413000B84215D156B1D22340F6983529E080898E
:10414000D22301B20320FFF77BFED8E7B8F80400C2
:10415000D22301B20420FFF773FED8F804003BE03D
:104160006868B8420ED11EB1D22340F2447510E007
:10417000B8F80800D22301B20420FFF761FED8F896
:10418000080029E02868B84208D1E6B1D22340F6F9
:10419000C83529460420FFF753FEA560C820FCF768
:1041A000AFFCB9F1010F19D002F08CFEFFF738FE19
:1041B0004FF41670FCF7A4FCFFF73AFE6420BDE84C
:1041C000F047FCF79DBCB8F80C00D22301B20420E4
:1041D000FFF736FED8F80C00A060DFE7C820FCF738
:1041E0008FFC02F07FFEFFF723FE5046E7E700005A
:1041F0003C0200202C0100204C0200209FED061AFA
:10420000C0EE010A9FED050A20EE800ABCEEC00A4E
:1042100010EE100A704700003333FB4100004845A0
:104220009FED071ADFED071A20EE010A80EE211A32
:1042300081EE200ABDEEC00A10EE100A70470000A1
:1042400000007A44B81E053FFCF780FDFEF7C4FA73
:10425000FEF764F8FEF7C4F9FEF7DEF9FEF7F8F9A9
:10426000FEF7B4F8FEF7E8F8FEF71CF9FEF79CF944
:10427000FEF77EF901222D492D48FDF7DDFF2822AA
:104280002C492D48FDF7BDFC28222C492C48FDF770
:10429000B8FC2C48FDF75CF92B48FDF759F90021D3
:1042A0002A48FDF75DFB04212848FDF759FB08214A
:1042B0002648FDF755FB0C212448FDF751FB00F083
:1042C0005BFB234D2349002401202C650860224A12
:1042D0002046802102F8201002EB8003597099706B
:1042E000D970401C6428F5DB6C631B4C00201B4913
:1042F000523C1B4B04F110020D6844F820501D681D
:1043000042F82050401C0428F6DB01218C1E204678
:1043100001F0B2FB204601F06BFC204602F024F9CC
:10432000204600F02DFB01F017FD0000F0010020F9
:10433000500500207A070020280600202C080020C5
:10434000080500203004002078040020C00400206C
:1043500000000020080200208E0200201C820008BD
:1043600020820008F0B5B5EEC00A2DED028B70EE8C
:10437000608A30EE208A0125BB4CF1EE10FA83B042
:104380000E46074643DBF5EEC00AF1EE10FA3EDBBF
:10439000B0EE480AFFF732FF21788DE823003B4654
:1043A000324600210120FCF7D1FA0A20FCF7A8FBD5
:1043B000B0EE480AFFF722FF21788DE823003B4644
:1043C000324601210420FCF7C1FA0A20FCF798FBD1
:1043D000F5EEC08AF1EE10FA12DBB0EE680AFFF7D4
:1043E0000DFF21788DE823003B4632460021022054
:1043F000FCF7ACFA0A20FCF783FBB0EE680A29E16F
:10440000B1EE680AB0EE408AF7E0032045E0B5EE71
:10441000C00AF1EE10FA50DBF5EEC00AF1EE10FA28
:104420004BD2B0EE680AFFF7E9FE21788DE8230051
:104430003B46324600210220FCF788FA0A20FCF7AE
:104440005FFBB0EE680AFFF7D9FE21788DE8230004
:104450003B46324601210320FCF778FA0A20FCF79C
:104460004FFBB5EEC08AF1EE10FA12DBB0EE480A4F
:10447000FFF7C4FE21788DE823003B463246002139
:104480000120FCF763FA0A20FCF73AFBB0EE480A79
:1044900058E0B1EE480A60E00420FCF757FA0A2021
:1044A000FCF72EFB0020FCF799FA03B00A20BDECC4
:1044B000028BBDE8F040FCF723BB30EEC08AB5EEBE
:1044C000C00AF1EE10FA63D2F5EEC00AF1EE10FA6E
:1044D0005EDB70EE808AB0EE480AFFF78FFE21782F
:1044E0008DE823003B46324601210220FCF72EFADC
:1044F0000A20FCF705FBB0EE480AFFF77FFE2178A3
:104500008DE823003B46324600210320FCF71EFACB
:104510000A20FCF7F5FAF5EEC08AF1EE10FA1ADB84
:10452000B0EE680AFFF76AFE21788DE823003B466B
:10453000324600210120FCF709FA0A20FCF7E0FAD4
:10454000B0EE680AFFF75AFE21788DE823003B465B
:1045500032460121A0E7B1EE680AB0EE408AFFF7CB
:104560004DFE21788DE8230001213B463246084666
:10457000FCF7ECF90A20FCF7C3FAB0EE480AFFF7A3
:104580003DFE21788DE823003B463246002183E73B
:10459000B5EEC00AF1EE10FA84D2F5EEC00AF1EEE3
:1045A00010FAF9D2B1EE400A70EE608AB0EE680AF5
:1045B000FFF724FE21788DE8230001213B46324697
:1045C0000846FCF7C3F90A20FCF79AFAB0EE680A2D
:1045D000FFF714FE21788DE823003B463246002188
:1045E0000420FCF7B3F90A20FCF78AFAB5EEC08A7A
:1045F000F1EE10FA1ADBB0EE480AFFF7FFFD217862
:104600008DE823003B46324601210220FCF79EF94B
:104610000A20FCF775FAB0EE480AFFF7EFFD2178A3
:104620008DE823003B4632460021EEE6B1EE480A13
:10463000B0EE408AFFF7E2FD21788DE823003B468B
:10464000324600210220FCF781F90A20FCF758FAD3
:10465000B0EE480AFFF7D2FD21788DE823003B46F3
:1046600032460121D1E60000B80000202DE9F047D4
:1046700092462DED068BF0EE408AB0EE608AF5EEA4
:10468000C08A0D46F1EE10FA01D2F1EE688AB5EE5D
:10469000C08AF1EE10FA01D2B1EE488AC0F58070FE
:1046A000FBF798FF8946074649EC190B2846FBF7AC
:1046B00091FF884648EC100B9FED27AB064653EC64
:1046C0001A2B51EC100BFBF793FE53EC192BFBF755
:1046D0008FFE00EE105A41EC190BF8EE400AB0EED6
:1046E000680AFFF79DFDFBF764FF53EC192BFBF7FE
:1046F000D8FDFBF77CFF48EC106B044649EC197BB6
:1047000053EC1A2B51EC100BFBF772FE53EC192BE8
:10471000FBF76EFE00EE105A41EC190BF8EE400A62
:10472000B0EE480AFFF77CFDFBF743FF53EC192B73
:10473000FBF7B7FDFBF75BFF844200DD20465044EA
:10474000002805DDBDEC068BBDE8F047FCF7D8B9C5
:10475000BDEC068BBDE8F0879A9999999999A93F84
:1047600070EE602A30EE202AB5EEC00A0122FCEE7F
:10477000E21ABCEEC21A08B5F1EE10FA37DBF5EE1C
:10478000C00AF1EE10FA32DB30EE600A0629B1EE13
:10479000400ABCEEC00A29D2DFE801F02803070B6B
:1047A00018E911EE101A00927BE011EE101A009237
:1047B0008AE0F5EEC02AF1EE10FA03DB11EE901A52
:1047C0000092BEE010EE101A00925AE0F5EEC02AF8
:1047D000F1EE10FA04DB00BF11EE901A0092C1E076
:1047E00010EE101A009250E0FCF70EF908BDB5EE7D
:1047F000C00AF1EE10FA24DBF5EEC00AF1EE10FA71
:104800001FD20629F2D2DFE801F00504030613B235
:10481000E2E7D3E7EAE7B5EEC02AF1EE10FAC0DA34
:10482000B1EE420A0092BCEEC00A10EE101A3EE051
:10483000B5EEC02AF1EE10FAB7DA11EE101A0092B6
:1048400048E070EEC01AB5EEC00ABCEEE11AF1EE17
:1048500010FA44D2F5EEC00AF1EE10FA3FDB70EE2A
:10486000801A70EE800A0629BCEEE00AF1EE600ABA
:10487000FCEEE00ABAD2DFE801F0035D6E0C1F7AAD
:10488000B4E78AB2034601215EE08AB20346002102
:104890006BE0F5EEC01A0092F1EE10FA05DB10EEB7
:1048A000101A03468AB2002104E010EE901A034663
:1048B0008AB20121012097E7F5EEC01A0092F1EECD
:1048C00010FA05DB10EE101A03468AB2012104E04B
:1048D00010EE901A03468AB20021042084E7B5EE58
:1048E000C00AF1EE10FA81D2F5EEC00AF1EE10FA2C
:1048F00090D2B1EE402A30EEC00A32EE602A06298C
:10490000B1EE400ABCEEC22ABCEEC00AB8D2DFE863
:1049100001F00304080C1D2E68E712EE101A009235
:10492000C5E712EE101A0092D4E7F5EEC01AF1EEC8
:1049300010FA03DB11EE101A0092A2E710EE101A23
:10494000009203468AB2002102204DE7F5EEC01A1C
:10495000F1EE10FA03DB11EE101A009295E710EE5B
:10496000101A009203468AB2012103203CE7BDE8F9
:1049700008400020FCF732B84FF4E130FEF712BFD8
:1049800010B54FF47A7401280BD0022815D10123F9
:104990000022194609A000F0E5FC2046FCF7B0F81B
:1049A000FBE702F0BFFA06A002F058FB012000F07E
:1049B000A5FD2046FCF7A4F8FBE710BD4C4C0A000F
:1049C00049490A002DE9F05F16460F46054603F0F7
:1049D00063F902F015F9B0687B4CDFF8F091DFF86D
:1049E000F081A8421FD1012F7DD039F82500D223B4
:1049F00001B24FF4FA620320FFF722FA1420FCF709
:104A00007FF838F82500D22301B240F6FF72042067
:104A1000FFF716FA1420FCF773F859F82500E06048
:104A200058F82500A0607068A8421FD1012F7DD0E2
:104A300039F82500D22301B24FF4FA620320FFF7C0
:104A4000FFF91420FCF75CF838F82500D22301B2F6
:104A500040F6FF720420FFF7F3F91420FCF750F83A
:104A600058F82500A06059F82500E0603068A84299
:104A70001ED1012F6FD039F82500D22301B24FF497
:104A8000FA620320FFF7DCF91420FCF739F838F854
:104A90002500464601B2D22340F6FF720420FFF7FC
:104AA000CFF91420FCF72CF856F82500A060E06040
:104AB0004FF41670FCF724F802F0F4F94FF4487440
:104AC0002046FCF71DF8FFF7ABF94FF49675284622
:104AD000FCF716F802F036FAFFF7F4F84FF4FA7024
:104AE000FCF70EF800E017E0FFF75EF92046FCF750
:104AF00007F802F00FFA2846FCF702F802F068F80F
:104B0000C820FBF7FDFF02F015FA2846FBF7F8FF77
:104B1000BDE8F05FFFF728B940F6BE2AD2234FF474
:104B2000FA6251460320FFF78BF900E014E01420ED
:104B3000FBF7E6FF40F6983BD22340F6FF7259465A
:104B40000420FFF77DF91420FBF7DAFFC4F808B062
:104B5000C4F80CA067E71BE040F2767BD2234FF449
:104B6000FA6259460320FFF76BF91420FBF7C8FFE0
:104B700040F2447AD22340F6FF7251460420FFF7F8
:104B80005FF91420FBF7BCFFC4F808A058466CE797
:104B900040F23D45D2234FF4FA6229460320FFF745
:104BA0004FF91420FBF7ACFF40F6C836D22340F68D
:104BB000FF7231460420FFF743F91420FBF7A0FFF2
:104BC000A660E56074E700002C0100203C02002094
:104BD0004C0200202DE9F05F1746894604464FF449
:104BE000FA6640F6FF7803F057F802F009F8B86863
:104BF0006C4DDFF8B4A1DFF8B4B1A04218D1B9F11F
:104C0000010F32467ED03AF82400D22301B20320AD
:104C1000FFF716F93BF82400424601B2D2230420E4
:104C2000FFF70EF95AF82400E8605BF82400A8604A
:104C30007868A04218D1B9F1010F32467DD03AF818
:104C40002400D22301B20320FFF7FAF83BF8240036
:104C5000424601B2D2230420FFF7F2F85AF82400AA
:104C6000E8605BF82400A8603868A0421AD1B9F166
:104C7000010F7DD03AF82400324601B25746D223C4
:104C80000320FFF7DDF83BF82400424601B25E4600
:104C9000D2230420FFF7D4F857F82400E86056F830
:104CA0002400A8604FF416752846FBF729FF02F090
:104CB000F9F84FF448763046FBF722FFFFF7B0F8DB
:104CC0002846FBF71DFF02F03DF9FEF7FBFF3046DB
:104CD000FBF716FFFFF768F83046FBF711FF02F00D
:104CE00019F96810FBF70CFF01F082FFC820FBF7F1
:104CF00007FFFEF7F7FFC820FBF702FF204602F090
:104D0000DDFF00E00DE07010FBF7FAFEFFF72CF876
:104D1000FEF7D8FF2846FBF7F3FEBDE8F05F01F091
:104D200057BFD22340F6BE210320FFF789F8D223D4
:104D3000424640F69831042000E007E0FFF780F893
:104D400040F6BE20E86040F6983070E740F2767991
:104D5000D22349460320FFF773F840F2447A4246D3
:104D6000D22351460420FFF76BF8C5F80C9000E001
:104D700004E0C5F808A03868A04293D1324640F25A
:104D80003D46D22331460320FFF75AF840F6C83794
:104D90004246D22339460420FFF752F8EE60AF6056
:104DA00080E700002C0100203C0200204C02002083
:104DB0002DE9F0410746084602F06EFF01F020FFA2
:104DC000384C4FF4FA6240F6FF76012F04D0022FE0
:104DD0000ED0032F1DD158E040F6BE25D223294620
:104DE0000320FFF72DF83246D22340F698360AE02A
:104DF00040F27675D22329460320FFF721F8324688
:104E0000D22340F2447631460420FFF719F8A66019
:104E1000E5604FF4FA70FBF773FE02F043F84FF4CD
:104E200048742046FBF76CFEFEF7FAFF4FF4167548
:104E30002846FBF765FE02F07DF8FEF743FF2846A3
:104E4000FBF75EFEFEF7A8FF4FF42F70FBF758FE4E
:104E500002F060F86810FBF753FE01F0C1FEFEF7A8
:104E600041FFC820FBF74CFE384602F027FF2046E2
:104E7000FBF746FEFEF778FF01F0BAFE2046FBF78F
:104E80003FFEBDE8F04101F0A3BE40F23D45D22314
:104E900029460320FEF7D4FF3246D22340F6C83617
:104EA000B1E700002C0100202DE9F05F9B4616467B
:104EB00089460746DDF8288002F0D6FE01F088FE1C
:104EC00002F038F8FEF7FEFE4FF4FA7A5046FBF790
:104ED00017FEFEF759FFD8F808105148514C4FF40F
:104EE000FA62B94205D116B140F6BE2012E08088C0
:104EF0002EE0D8F80410B94205D116B140F2767010
:104F000008E0008924E0D8F80010B94209D1F6B1D0
:104F100040F23D4005460146D2230320FEF790FFB4
:104F2000E5605046FBF7ECFD01F0F4FF9620FBF73F
:104F3000E7FDFEF775FF4FF4C870FBF7E1FD02F0E7
:104F400001F84FF44875BBF1010F07D013E08089D9
:104F5000D22301B20320FEF773FFE2E72846FBF7F6
:104F6000CFFD4FF47A7307222FA13148FDF702FCE1
:104F70002846FBF7C5FD2846FBF7C2FDFEF7FCFE01
:104F8000D8F808002B4D4FF47A62B8420CD11EB10C
:104F9000D22340F6983520E0A888D22301B204201D
:104FA000FEF74EFF686832E0D8F80400B8420CD132
:104FB0001EB1D22340F244750FE02889D22301B2FA
:104FC0000420FEF73DFFA86821E0D8F80000B842B1
:104FD00008D1AEB1D22340F6C83529460420FEF7E9
:104FE0002FFFA5604FF4C870FBF78AFDB9F1010FE0
:104FF0000FD001F067FF5046BDE8F05FFBF780BDC2
:10500000A889D22301B20420FEF71AFFE868A06045
:10501000E8E7C820FBF774FD01F064FFEBE7000050
:105020003C0200202C0100207570646174650A0048
:10503000280600204C0200202DE9F05F9A46164613
:1050400089460746DDF8288002F038FE01F062FF4D
:105050004FF41670FBF754FD01F0CAFDFEF742FE57
:105060004FF49670FBF74CFDFEF78EFED8F8081053
:105070005648574C4FF4FA62B94205D116B140F682
:10508000BE2012E0808833E0D8F80410B94205D180
:1050900016B140F2767008E0008929E0D8F80010D7
:1050A000B94209D11EB340F23D4005460146D22324
:1050B0000320FEF7C5FEE5604FF4FA7B5846FBF788
:1050C0001FFDFEF7FFFD384602F0CEFDC820FBF7BE
:1050D00017FDFEF7A5FE4FF42F70FBF711FD01F051
:1050E00031FF50464FF47A7A012807D014E08089C6
:1050F000D22301B20320FEF7A3FEDDE74FF448758B
:105100002846FBF7FDFC5346072232A13348FDF742
:1051100031FB2846FBF7F4FC5046FBF7F1FCFEF7A9
:105120002BFE5846FBF7ECFCD8F808002C4D4FF44A
:105130007A62B8420CD11EB1D22340F6983520E0F5
:10514000A888D22301B20420FEF77AFE686833E013
:10515000D8F80400B8420CD11EB1D22340F24475F5
:105160000FE02889D22301B20420FEF769FEA86867
:1051700022E0D8F80000B84208D1B6B1D22340F6F8
:10518000C83529460420FEF75BFEA5604FF4C870C1
:10519000FBF7B6FCB9F1010F10D001F093FE4FF40C
:1051A0001670BDE8F05FFBF7ABBCA889D22301B253
:1051B0000420FEF745FEE868A060E7E7C820FBF79B
:1051C0009FFC01F08FFE4FF42F70EAE73C020020B5
:1051D0002C0100207570646174650A0028060020A7
:1051E0004C0200202DE9F047074602F067FD01F070
:1051F000FFFC01F09FFE244CA668E568FEF772FDF7
:105200004FF4FA70FBF77CFCFEF7C6FD4FF4C8794B
:105210004846FBF775FC01F07DFE384602F03CFD88
:10522000FEF750FD4FF49670FBF76AFCFEF7F8FDB1
:105230004FF41670FBF764FC01F084FE4FF44877DE
:105240003846FBF75DFCFEF797FD4FF42F70FBF738
:1052500057FC4FF47A68D223424631B20420FEF75D
:10526000EFFDD223424629B20320FEF7E9FDA660F6
:10527000E5604846FBF744FC01F044FE3846BDE8D3
:10528000F047FBF73DBC00002C0100202DE9F04762
:1052900014460F46054602F0E7FC01F099FC01F0C8
:1052A00049FE4FF4FA763046FBF72AFC4FF4167AA3
:1052B000012F02D15046FBF723FCB1463046FBF7E5
:1052C0001FFCA068264E4FF4FA62A84203D1D223F5
:1052D00040F6BE280EE06068A84205D140F2767024
:1052E000D2238046014606E02068A84208D1D22396
:1052F00040F23D4841460320FEF7A2FDC6F80C806F
:10530000A0684FF47A62A84203D1D22340F69834C1
:105310000CE06068A84203D1D22340F2447405E057
:105320002068A84207D1D22340F6C8342146042081
:10533000FEF786FDB4605046FBF7E2FB012F07D075
:1053400001F0C0FD4FF46170BDE8F047FBF7D8BB3A
:105350004FF44870FBF7D4FB01F0C4FD4846F3E777
:105360002C0100202DE9F05F9A4617460C460546B1
:10537000FAF790FF82B24FF47A7329463148FDF76D
:10538000F9F90026022C00D1032601F083FD01F07B
:1053900027FC4FF0000901202B4DC846CB46012FBA
:1053A00024D02A492867E866294CC1F800B029486A
:1053B000012201682068FEF78BFB686AFBF7A0FBFF
:1053C000E86E0028F3D1DFF880B000240BF18C0BDD
:1053D0000020E8673220FBF793FBE86F0128F9D142
:1053E000BAF1010F10D0012F1BD01FE0A8643220AA
:1053F000FBF786FBA86C0028F9D11748D0F800907D
:105400001648D0F80080DEE7012F04D11CB94146D0
:105410004846FEF75AFBA1195BF82100FFF7E2FEB0
:1054200009E01CB941464846FEF74FFBA1195BF85D
:10543000210000F015F801F0D3FB641C032CC7DB3E
:10544000BDE8F09F2806002000000020F4010020A5
:105450002C01002030010020240100202801002020
:105460002DE9F04102F000FC01F0B2FB01F062FD19
:10547000214CA568E668FEF725FC4FF4FA70FBF7AF
:105480003FFBFEF781FC4FF4C8773846FBF738FB4B
:1054900001F040FD3846FBF733FBFEF7C1FC4FF44B
:1054A0001670FBF72DFB01F04DFD4FF44878404698
:1054B000FBF726FBFEF760FC4FF42F70FBF720FB99
:1054C0004FF47A67D2233A4629B20420FEF7B8FC9B
:1054D000D2233A4631B20320FEF7B2FCA560E66063
:1054E000C820FBF70DFB01F0D5FC4046FBF708FB9D
:1054F000BDE8F04101F074BB2C0100202DE9FE4312
:10550000064601F0DFFC4FF47A773C463846FBF75D
:10551000F7FA23460B2237A13948FDF72BF9394C0E
:10552000012039492060002008600121002001F09D
:1055300015FE3220FBF7E4FA20680028F5D102F0CE
:10554000CDFB324D022005F1A4022860002101208C
:10555000FFF79CFE4FF4FA70FBF7D2FA3C463B464D
:105560000B2224A12648FDF705F902E06420FBF791
:10557000C7FA28680328F9D101F0DCFC2046FBF7C4
:10558000BFFA0025022E00D10325214A1F4E002418
:1055900007CA8DE80700DFF87C806F468C36002054
:1055A0006119424656F8213052F820C000F101003E
:1055B000634505D147F824000A20FBF7A1FA01E072
:1055C0000328EFDB641C032CE9DB0024601956F888
:1055D000201057F82400FFF7EBFB641C032CF5DBCD
:1055E000012002F01DFDFEF78DFB01F0A3FCBDE8DC
:1055F000FE8300006E65617267726F756E640A00EB
:105600002806002024020020F401002000000020D1
:10561000F8810008300200202DE9F74F794C4FF057
:1056200001088B460646C4F83C80774F00254FF4AE
:105630007A793D60D3E00A20C4F84880FBF760FA2D
:10564000606C012801D1606D68B1606C022801D1E5
:10565000A06D40B1606C032801D1E06D18B10298D3
:10566000012803D0B8E00298012801D1C4F8448091
:10567000A564D4F844A065643220FBF741FA63487E
:10568000016863480068FEF720FA614805605F48DA
:105690000560504602F000FBFEF7C2FB4846FBF7F0
:1056A0002FFA01F04FFCFEF70DFB4FF44870FBF7AB
:1056B00027FAFEF779FB4FF44870FBF721FA2564CF
:1056C000DBF80800012811D1C4F840804B460622BF
:1056D00050A15248FDF74EF84FF42F70FBF710FA27
:1056E000DBF80800012801D1206CD8B3DBF80000FA
:1056F000C8B301F00FFC4FF49670FBF701FA01F00C
:1057000077FAC820FBF7FCF9FEF7ECFA01F012FC7F
:10571000504602F0D3FA4FF4FA70FBF7F1F9FEF7B6
:1057200023FB4FF41670FBF7EBF901F059FAFEF783
:10573000C9FA01F0FFFB00BF4FF4FA70FBF7E0F984
:10574000FEF7E0FA012002F06BFCE06C401CE06424
:10575000BAF1010F32D0BAF1020F32D0BAF1030F11
:1057600032D033E000E013E0FEF7FEFA4FF4FA7AAD
:105770005046FBF7C5F901F0DDFB01F031FA504668
:10578000FBF7BEF9FEF7BEFA01F084FB656423E087
:1057900001F0C0FB4FF49670FBF7B2F901F018FA74
:1057A000C820FBF7ADF901F0C5FB4FF4C870FBF75B
:1057B000A7F9FEF7D9FA01F013FABDE7C4F854804F
:1057C00004E0C4F8588001E0C4F85C80656401F02E
:1057D00061FB4846FBF794F90A20FBF791F9E06C6E
:1057E000B04204DA3868B0F57A6FFFF624AFE564AA
:1057F0006565A565E565A56625666564E563BDE83F
:10580000FE8F000000000020F4010020280100208D
:1058100024010020636865636B0A000028060020ED
:105820002DE9F34F04460068002781B0032801D01A
:10583000042800D10327864D0026DFF810A2B346C6
:1058400005F18C08C3E06069012818D0A06806EB58
:105850000702012802980090404658F82200236A67
:1058600021694FF0010266D0FFF71EFBE06910B11D
:105870002069012865D0206900285FD097E0F019E1
:10588000814658F820002169029AFFF7FFFC58F87A
:10589000290028670120E866CAF800B001F012FB71
:1058A0004FF47A730B226BA16D48FCF763FF09E09C
:1058B0006C48012201686C480068FEF709F9686AC3
:1058C000FBF71EF9E86E20B1DAF80000B0F5967F1C
:1058D000EEDB6648016858F829304246644840F8D3
:1058E00023106448016858F829306148103040F8A6
:1058F0002310C5F86CB0A0680128029800904846B3
:10590000236A52F8200021694FF000020DD0FFF702
:10591000CBFA206901280BD001F0CCFAC820FBF7A4
:10592000EFF800BF4FF47A7048E0FFF785FBF0E72F
:1059300001F0E0FAF6E7FFF77FFB97E7A06901289F
:1059400038D1F019009058F8200028670120E86647
:10595000D1464FF47A730B223EA14148CAF800B0F9
:10596000FCF708FF09E03F48012201683E48006853
:10597000FEF7AEF8686AFBF7C3F8E86E20B1D9F815
:105980000000B0F5967FEEDB38480268009958F8C1
:105990002130374941F8232036490A68009958F8E0
:1059A00021103348103040F82120C5F86CB0206930
:1059B00001281CD001F07EFA4FF42F70FBF7A0F8FD
:1059C00001F006F94FF49670FBF79AF8761C6068C0
:1059D000B0423FF738AF01F0ADFA4FF4FA70FBF781
:1059E0008FF801F00DF9E068012803D015E001F00F
:1059F00081FAE1E7002546460CE0A0680128A0698D
:105A000017D008B30021E81956F82000029AFEF7D3
:105A1000D9FF6D1C6068A842EFDC012002F000FB9A
:105A200001F0DEF8FEF76EF9BDE8FE4F0A20FBF745
:105A300067B838B10021E81956F82000029AFFF73C
:105A4000C9F8E6E70121F6E70121DCE7F4010020CF
:105A5000000000206E65617267726F756E640A00E7
:105A600028060020300100202C01002038010020F1
:105A70003C020020340100202DE9F0434FF4FA6489
:105A800066108BB00D4607287AD2DFE800F0040AD2
:105A900021364A7D9A00FEF7C3F93046FBF730F80D
:105AA000FBE701F081F80DE04D4A01210220FFF7EC
:105AB00091F83046FBF724F8F6E7494A0121022025
:105AC000FEF780FF3046FBF71BF8012DF5D1EBE721
:105AD00001F06AF83046FBF713F8002001900095BA
