:020000040800F2
:1000000088090020A1010008EB2400085B210008FA
:10001000E92400085507000891300008000000009E
:10002000000000000000000000000000EF240008B5
:100030005707000800000000ED240008F124000824
:10004000BB010008BB010008BB010008BB010008A0
:10005000BB010008BB010008BB010008BB01000890
:10006000BB010008BB010008BB010008BB01000880
:10007000BB010008BB010008BB010008BB01000870
:10008000BB010008BB010008BB010008BB01000860
:10009000BB010008BB010008BB010008BB01000850
:1000A000BB010008BB010008BB010008BB01000840
:1000B00099250008A5250008B1250008BB01000806
:1000C000BB010008BB010008BB010008BB01000820
:1000D000BB010008D92F0008E52F0008F12F000808
:1000E000BB010008BB010008BB010008BB01000800
:1000F000BB010008BB010008BB010008BB010008F0
:10010000BB010008BB010008BB010008BB010008DF
:10011000A1280008AD280008BB010008BB010008A9
:10012000BB010008BB010008BB010008BB010008BF
:10013000BB010008BB010008BB010008BB010008AF
:10014000BB010008BB010008BB010008BB0100089F
:10015000BB010008BB010008BB010008BB0100088F
:10016000BB010008BB010008BB010008BB0100087F
:10017000BB010008BB010008BB0100080000000033
:10018000BB010008BB010008DFF810D000F078FACE
:1001900000480047D9320008AFF3008088090020EA
:1001A0000648804706480047FEE7FEE7FEE7FEE711
:1001B000FEE7FEE7FEE7FEE7FEE7FEE7892500082B
:1001C000890100082DE9F05F0546002092469B4614
:1001D00088460646814640241BE02846414647465D
:1001E000224600F096F953465A46C01A914110D360
:1001F00011461846224600F07DF92D1A67EB0108DA
:100200004F4622460120002100F074F917EB000947
:100210004E41201EA4F10104DFDC484631462A4647
:100220004346BDE8F09FD2B201E000F8012B491E21
:10023000FBD270470022F6E710B513460A46044683
:100240001946FFF7F0FF204610BD2DE9FE4F80460E
:1002500081EA0300C00F0C46009021F0004123F01A
:100260000045B8EB0200A94105D240462146904620
:100270001C460B46024623F00040104347D0270D92
:10028000C7F30A00C3F30A510290401A01904028B4
:100290006BDAC3F3130040F4801B0098924620B140
:1002A0000023D2EB030A63EB0B0B01985946C0F114
:1002B0004002504600F01EF906460D46504659468B
:1002C000019A00F036F910EB08006141002487EA3A
:1002D000115284EAE7731A4340D0009A62B3019A3C
:1002E000012A4FEA075215DC001B61EB02014FF0B7
:1002F000004202EA0752CDE90042001C41F580119C
:1003000032462B4600F06DF903B0BDE8F08F404651
:100310002146F9E7001B61EB0201001C41F5801347
:1003200000185B412018A2F5001747EB030140EAD3
:10033000D570B6196D4111E06D084FEA360645EAF1
:10034000C0754FEA0752001B61EB0201001C41F52A
:10035000801149084FEA30000019514132462B46BE
:1003600003B0BDE8F04F00F02DB900980122400025
:100370000023D0EB020263EBE073009821464FEAC2
:10038000E074B8EB000061EB0401E9E783F000439F
:100390005BE781F0004158E72DE9FE4F81EA030455
:1003A00004F0004421F0004100944FF0000B23F0D2
:1003B000004350EA01045ED052EA03045BD0C3F369
:1003C0000A54C1F30A552C44A4F2F3340194A0FB5F
:1003D0000254C1F3130141F48011C3F3130343F436
:1003E000801301FB024400FB034E840A970A44EA8F
:1003F000815447EA8357A4FB076802958D0A05FBE1
:1004000007854FEA932C04FB0C542705029D4FEA05
:10041000065847EA1637B5EB08056EEB070C870E52
:10042000920E47EA811742EA8312A7FB0201B6EB5C
:100430000B0164EB00042B0D43EA0C335E1844EB14
:100440001C50DA465146E7FB0201C5F313044FEA9C
:100450000B3343EA14534FEA0432019C43EA060388
:10046000A4F10C040294009CCDE900B400F0B9F8AA
:1004700003B0BDE8F08F00200146F9E70EB540F269
:10048000334102910021CDE900110A460B4600F0EC
:10049000A8F803B000BD00F0004230F000400AD0E0
:1004A000C10D01F56071C0F3160042EA0151C208A6
:1004B00040071143704700200146704701F0004398
:1004C00030B421F0004150EA010206D00A0DA2F535
:1004D0006072C1F31301002A02DC30BC00207047B7
:1004E000440F44EAC104C100E01830BC00EBC25024
:1004F00000F031B8202A04DB203A00FA02F1002093
:1005000070479140C2F1200320FA03F31943904051
:100510007047202A04DB203A21FA02F000217047BC
:1005200021FA02F3D040C2F120029140084319465B
:100530007047202A06DBCB17203A41FA02F043EA43
:10054000E07306E041FA02F3D040C2F1200291408C
:100550000843194670470029A8BF7047401C49004E
:1005600008BF20F00100704710B4B0FA80FC00FA18
:100570000CF050EA010404BF10BC704749B1CCF143
:10058000200421FA04F411FA0CF118BF01212143CF
:100590000843A3EB0C01CB1D4FEA00614FEA10208A
:1005A00042BF002010BC704700EBC350104400292C
:1005B000A4BF10BC7047401C490008BF20F00100D8
:1005C00010BC704710B5141E73F1000408DA401C0B
:1005D00041F1000192185B411A4301D120F0010062
:1005E00010BD2DE9F04D92469B4611B1B1FA81F252
:1005F00002E0B0FA80F220329046FFF77BFF04461B
:100600000F4640EA0A0041EA0B0153465A460843A6
:1006100013D0114653EA010019D0C8F140025046E8
:10062000FFF777FF05460E46504659464246FFF70C
:1006300061FF084305D0012004E020463946BDE8AB
:10064000F08D0020054346EAE0762C4337430A98B4
:100650006305E40AA0EB08000022FD0A44EA4754BF
:100660000A3002D500200146E9E701051019694169
:10067000DDE9084500196941BDE8F04DA2E7000039
:10068000064C074D06E0E06840F0010394E80700DF
:1006900098471034AC42F6D3FFF77AFD4C39000886
:1006A0006C39000870B58C1810F8015B15F0070361
:1006B00001D110F8013B2A1106D110F8012B03E0FB
:1006C00010F8016B01F8016B5B1EF9D12B0705D403
:1006D0000023521E0DD401F8013BFAE710F8013B4C
:1006E000CB1A921C03E013F8015B01F8015B521E68
:1006F000F9D5A142D8D3002070BD000038B5054619
:10070000134C0020FE2DA07020D02078F0B102F014
:1007100019FD002818D00421684602F0A7FF04281C
:1007200011D19DF80000A8420DD19DF801100229B9
:1007300009D19DF80210801C0844C0439DF8032095
:10074000C0B2824201D0002038BDA170012038BD66
:100750004C000020FEE770471FB5002200928DF884
:100760000000FE208DF8010098208DF80200019213
:100770006B208DF803108DF804000292039205217E
:10078000684603F045F81FBD1FB5002100918DF8A4
:100790000000FF208DF8010066208DF802006B201C
:1007A0000191029103918DF803000421684603F042
:1007B0002FF81FBD7FB5002500958DF80000F620AD
:1007C0008DF8010001958DF80210089C100A8DF833
:1007D00004208DF803008DF805308DF806406B205D
:1007E0008DF80700029503950821684603F010F87C
:1007F0007FBD72B6FEE72DE9F0410446876D00F03B
:100800006DF9064694F835000025022806D08020B0
:10081000606584F834500120BDE8F08120680168EB
:1008200021F0160101602068416921F080014161D9
:10083000206C08B9A06C20B12068016821F0080183
:1008400001602068016821F0010101600CE000F006
:1008500045F9801B052807D920206065032084F80E
:10086000350084F83450D7E720680068C007EED11F
:1008700094F85C103F208840B860012084F835006F
:1008800084F834500020C7E790F83510022903D0CF
:100890008021416501207047052180F835100068EE
:1008A000016821F0010101600020704770B5044625
:1008B00000F014F90546601C02D004480078044496
:1008C00000F00CF9401BA042FAD370BD3C000020A0
:1008D0002DE9F84FDFF8BCA10022012503264FF0D7
:1008E0000F090AF1040BAAF1040E00BF0B6805FA08
:1008F00002F42340A34270D10F7907F00307012FC0
:1009000001D0022F16D187684FEA420806FA08FC88
:1009100027EA0C07D1F80CC00CFA08FC4CEA070CCB
:10092000C0F808C04768A7430C79C4F3001494408A
:100930003C4344600C79E443A4070AD0C4684FEAFE
:10094000420C06FA0CF7BC438F6807FA0CF72743F2
:10095000C7600C7904F00304022C12D1D40800EB18
:10096000840CDCF820405707FF0E09FA07F824EA48
:100970000804D1F8108008FA07F848EA0408CCF80F
:10098000208004684FEA420C06FA0CF7BC430F794A
:1009900007F0030707FA0CF7274307604C6814F4C5
:1009A000403F70D03C4C276847F48047276024685C
:1009B00022F0030704F480440094384C07EB040C45
:1009C000DCF8084897074FEA177809FA08F7BC439C
:1009D000334FB84202D1002724E054E0314FB842EF
:1009E00001D101271EE0304FB84201D1022719E0A2
:1009F0002E4FB84201D1032714E02D4FB84201D148
:100A000004270FE02B4FB84201D105270AE02A4FF7
:100A1000B84201D1062705E0284FB84201D1072787
:100A200000E0082707FA08F72743CCF80878DAF837
:100A300000405746D1F804C09C435FEACC2C00D557
:100A40001C433C60DBF800405F46D1F804C09C4387
:100A50005FEA8C2C00D51C433C60DEF800407746F2
:100A6000D1F804C09C435FEA8C3C00D51C433C6039
:100A7000084F083F3C68D1F804C09C435FEACC3C77
:100A800000D51C433C60521C102AFFF42FAFBDE878
:100A9000F88F0000083C014044380240003001401B
:100AA000000002400004024000080240000C024026
:100AB000001002400014024000180240001C0240D6
:100AC000426921EA02030A4043EA02418161704718
:100AD0000AB1816170470904FBE7000001488068A2
:100AE000704700003C0000200248816802781144F1
:100AF000816070473C0000200B4810B5016841F44C
:100B000000710160016841F480610160016841F495
:100B100080710160032000F06FF80F2000F006F8EC
:100B200000F024F8002010BD003C024070B50D4DCF
:100B300004464FF47A712878B1FBF0F00A4909684D
:100B4000B1FBF0F000F00AFB48B9102C07D20022EC
:100B50002146501E00F030F800206C6070BD01206E
:100B600070BD00003C000020480000200A4808B585
:100B7000016841F480410160006800F48040009009
:100B80000548001F016841F080510160006800F0D5
:100B90008050009008BD000044380240002809DB66
:100BA00000F01F02012191404009800000F1E02087
:100BB000C0F8001170470000F0B40E4B1B680C46E3
:100BC000C3F30223C3F10705042D00D90425191D21
:100BD000072901D2002300E0DB1E012606FA05F1F9
:100BE000491E214099409E40761E16403143F0BC7C
:100BF00002F071BA0CED00E0064900F00702086847
:100C00004FF6FF03184040EA0220034A10430860F1
:100C1000704700000CED00E00000FA052DE9F047F8
:100C20000E46050065D0DFF81481D8F80000F7B251
:100C300000F00700B04207D288F80070D8F8000032
:100C400000F00700B04254D128683D4C810712D50E
:100C5000400703D5206840F4E05020602878000762
:100C600003D5206840F4604020602068A96820F027
:100C7000F000084320602878C0072DD0304968680C
:100C80000839012812D0022813D0032811D009688E
:100C9000890700292DDA216821F003010143216031
:100CA000FFF71CFF814641F2883A0EE0096889038C
:100CB000EFE709688901ECE7FFF710FFA0EB0901F6
:100CC000514502D90320BDE8F0872068696800F02B
:100CD0000C00B0EB810FEFD1D8F80010404601F0C6
:100CE0000701B14207D90770006800F00700B04261
:100CF00001D00120E7E72878400705D52068E9689A
:100D000020F4E050084320602878000706D52068CA
:100D1000296920F4604040EAC100206000F038F802
:100D20002168084AC1F30311515CC84006490860B4
:100D300006480068FFF7FAFE0020C4E7003C0240C6
:100D400008380240343900084800002040000020E4
:100D50000448054900680968044AC1F38221515CCE
:100D6000C840704748000020083802404439000855
:100D70000448054900680968044AC1F34231515CDE
:100D8000C840704748000020083802404439000835
:100D9000154810B5006810F00C02144813D041102B
:100DA000042A0FD0082A0ED10F4C241F2268236872
:100DB00002F03F025B0207D52068C0F38810A0FB59
:100DC000010106E0084610BD2168C1F38811A1FBAE
:100DD00000010023FFF7F6F92168C1F30141491C26
:100DE0004900B0FBF1F010BD083802400024F400C7
:100DF0002DE9F84F04006ED02078DFF84C93C0073F
:100E0000A9F104054AD009F104000168C1F3810188
:100E1000012908D00068C0F3810002280AD1D9F85E
:100E20000000400206D52868800337D56068002896
:100E3000E1D033E06068B0F5803F10D0B0F5A02F6E
:100E4000286810D020F480302860286820F48020A2
:100E500028606068A8B1FFF741FE06460DE02868EB
:100E600040F48030F4E740F480202860F7E700BFCA
:100E7000FFF734FE801B642873D828688003F7D5F9
:100E80000CE0FFF72BFE064605E000BFFFF726FE4D
:100E9000801B6428F0D828688003F7D42078DFF816
:100EA000AC8280074FF0000A3ED5A748001D0168BC
:100EB00011F00C0F08D00068C0F3810002280BD19C
:100EC000D9F80000400207D42868800716D5E068EA
:100ED000012800D112E033E1E068B8B10120C8F880
:100EE0000000FFF7FBFD064605E000BFFFF7F6FD3B
:100EF000801B0228C0D828688007F7D52868216998
:100F000020F0F80040EAC10028600DE0C8F800A019
:100F1000FFF7E4FD064604E0FFF7E0FD801B022832
:100F20001FD828688007F7D42078000722D5864F7D
:100F300087486169703771B101210160FFF7CEFD0B
:100F4000064604E0FFF7CAFD801B022809D838686E
:100F50008007F7D50EE0C0F800A0FFF7BFFD0646FA
:100F600005E082E0FFF7BAFD801B02287DD83868D3
:100F70008007F7D42078400768D5DFF8CCB1002788
:100F80000BF13C0BDBF80000C0000BD4DBF80010C9
:100F900041F08051CBF80010DBF80000012700F091
:100FA000805000906B4E3068C00510D4306840F41B
:100FB00080703060FFF792FD009005E0FFF78EFD36
:100FC0000099401A022850D83068C005F6D55E4E08
:100FD000A0686C3601280FD00528306810D020F0AA
:100FE00001003060306820F004003060A068B8B1C3
:100FF000FFF774FD00900FE0306840F00100F4E767
:1010000040F004003060F7E7FFF768FD0099411AEF
:1010100041F28830814266D830688007F4D50EE00E
:10102000FFF75CFD009007E0FFF758FD0099411ABB
:1010300041F28830814256D830688007F4D42FB10D
:10104000DBF8001021F08051CBF80010A069C8B384
:101050003D49091D0968C1F3810102294AD00228CE
:10106000504607D0C8F8600000E03CE0FFF736FDCE
:1010700004463BE04746C8F86000FFF72FFD0646F0
:1010800005E000BFFFF72AFD801B02282BD8286847
:101090008001F7D4D4E907010843A16A2E4A490820
:1010A00002EB0141626A41EA8211084394F82C1074
:1010B00040EA0161C9F8001001203866FFF70EFD13
:1010C000044606E03EE000BFFFF708FD001B0228D3
:1010D00009D828688001F7D534E000BFFFF7FEFC8F
:1010E000001B022802D90320BDE8F88F2868800180
:1010F000F4D427E00128F7D0D9F80000E26900F421
:10110000800191421CD1226A00F03F01914217D127
:1011100047F6C071626A0140B1EB821F10D1A26A2A
:101120004FF0FF3300F4403103EB5202B1EB024FBA
:1011300006D194F82C1000F07060B0EB016F01D074
:101140000120D1E70020CFE70438024000004742E9
:10115000800E4742007000400000FFFF10B5401EA7
:10116000B0F1807F01D3012010BD4FF0E024606119
:101170000F21601701F0AFFF0020A0610720206160
:10118000002010BD7047704770B590F83C20012AD0
:1011900032D0012480F83C40022280F83D200368D0
:1011A0005A689D6822F070060A6832435A60134BF1
:1011B00002689A4214D0B2F1804F11D0104B9A427B
:1011C0000ED0104B9A420BD00F4B9A4208D00F4BC7
:1011D0009A4205D00E4B9A4202D00E4B9A4204D14D
:1011E000496825F080031943916080F83D40002153
:1011F00080F83C10084670BD022070BD0000014020
:101200000004004000080040000C004000040140C1
:10121000004001400018004010B5040003D094F8CD
:101220003D0010B107E0012010BD002084F83C0013
:10123000204600F01FF8022084F83D00211D2068A0
:1012400001F0BCF9012084F8460084F83E0084F8DF
:101250003F0084F8400084F8410084F8420084F89C
:10126000430084F8440084F8450084F83D000020E1
:1012700010BD000008B501681D48B1F1804F11D0C4
:101280001C4A91421DD1016841F0020101600068D1
:10129000002200F00200009011461D20FFF78CFC98
:1012A0001D201FE0016841F001010160006800227B
:1012B00000F00100009011461C20FFF77DFC1C206F
:1012C00010E00D4A914211D1016841F00401016022
:1012D0000068002200F00400009011461E20FFF775
:1012E0006BFC1E20BDE80840FFF758BC08BD00009D
:1012F00040380240000400400008004090F83D10D3
:10130000012901D001207047022180F83D100168B9
:10131000CA6842F00102CA6000681149884214D0CC
:10132000B0F1804F11D00F4988420ED00E4988424B
:101330000BD00E49884208D00D49884205D00D498E
:10134000884202D00C49884204D1816801F007012B
:10135000062903D0016841F00101016000207047B7
:10136000000001400004004000080040000C004064
:1013700000040140004001400018004070B50446E0
:1013800090F83C000025012817D0012684F83C6025
:10139000022084F83D002068826822F0770222F45F
:1013A0007F4282600868502838D00DDC20284FD05A
:1013B00005DC90B3102811D14AE0022070BD30281E
:1013C00046D040280AD13BE060282FD070280DD0AD
:1013D000B0F5805F03D0B0F5005F12D0012584F82E
:1013E0003D60002084F83C00284670BDCB68D1E900
:1013F0000121206801F05BF92068816841F07701E4
:1014000009E0CB68D1E90121206801F050F920689A
:10141000816841F480418160E1E719E0CA68496868
:10142000206801F019FA5021206806E0CA6849686E
:10143000206801F022FA6021206801F042F9CEE72D
:10144000CA684968206801F007FA40212068F4E77B
:10145000226801461046F0E770472DE9F041044646
:101460000068C66805694FF00007A90713D5B107E2
:1014700011D5F91E0161012020772068806980075D
:10148000204602D0FFF7E8FF04E000F0A9F820466C
:1014900000F03BF92777680716D5700714D5216847
:1014A0006FF004000861022020772068806910F442
:1014B000407F204602D0FFF7CFFF04E000F090F815
:1014C000204600F022F92777280715D5300713D5D5
:1014D00021686FF008000861042020772068C06947
:1014E0008007204602D0FFF7B7FF04E000F078F84D
:1014F000204600F00AF92777E80616D5F00614D53D
:1015000021686FF010000861082020772068C0690A
:1015100010F4407F204602D0FFF79EFF04E000F069
:101520005FF8204600F0F1F82777E80708D0F007C9
:1015300006D021686FF001000861204600F04AF9EA
:10154000280608D5300606D521686FF080000861AE
:101550002046FFF717FE680608D5700606D52168F5
:101560006FF040000861204600F070FAA8060AD526
:10157000B00608D521686FF0200008612046BDE85C
:10158000F041FFF700BEBDE8F081000010B586B065
:10159000044614216846FEF74DFE0E492068884235
:1015A00015D10D480021026842F00802026000686F
:1015B00000F0080005904FF4704000900220CDE943
:1015C0000101CDE9031069460448FFF781F906B02F
:1015D00010BD00000008004030380240000C0240FE
:1015E000704770B5044690F83C0000260D4601286F
:1015F0000FD0012084F83C006AB1042A1DD0082ACB
:101600002FD00C2A3FD00126002084F83C00304621
:1016100070BD022070BD206801F05CF8206881690F
:1016200041F0080181612068816921F00401816134
:10163000206881692A69114311E0206801F07AF875
:101640002068816941F4006181612068816921F429
:1016500080618161206881692A6941EA0221816192
:10166000D2E7206801F09CF82068C16941F00801C8
:10167000C1612068C16921F00401C1612068C169AC
:101680002A69114311E0206801F0BEF82068C169A1
:1016900041F40061C1612068C16921F48061C161C8
:1016A0002068C1692A6941EA0221C161ACE710B52D
:1016B000040003D094F83D0010B107E0012010BDF4
:1016C000002084F83C00204600F01EF8022084F838
:1016D0003D00211D206800F071FF012084F84600C4
:1016E00084F83E0084F83F0084F8400084F841000C
:1016F00084F8420084F8430084F8440084F84500EC
:1017000084F83D00002010BD7047704710B50446B6
:10171000022249B104290ED0082913D094F84100BF
:10172000012816D0012010BD94F83E000128F9D1FF
:1017300084F83E200FE094F83F000128F2D184F8AD
:101740003F2008E094F840000128EBD184F84020C5
:1017500001E084F841200122206800F09BFF164937
:101760002068164A884201D0904203D1436C43F46A
:10177000004343642068884213D0B0F1804F10D0FA
:101780000F4988420DD00F4988420AD00E4988423D
:1017900007D0904205D00D49884202D00C498842BA
:1017A00004D1816801F00701062903D0016841F0E6
:1017B00001010160002010BD000001400004014053
:1017C0000004004000080040000C004000400140C0
:1017D000001800402DE9F047054600688F4C4FF097
:1017E0000008B0F1804F11D16068401C60608C48E7
:1017F000007808B101F0CAF96068142806DB89484E
:10180000007808B101F0CCF9C4F804808649286852
:1018100088427BD12068854D401C2060A0684FF035
:10182000010901285ED16069012843D1E0690628D9
:1018300001DA401CE0617E4E01280BD195ED000AD3
:101840000121BCEEC00A10EE100A96ED000AC0B2EB
:1018500001F014FFE06902280BD195ED000A022186
:10186000BCEEC00A10EE100A96ED000AC0B201F0FC
:1018700005FFE06903280BD195ED000A0321BCEEBA
:10188000C00A10EE100A96ED000AC0B201F0F6FE92
:10189000E06904280BD195ED000A0421BCEEC00AD2
:1018A00010EE100A96ED000AC0B201F0E7FEE06902
:1018B000052803D0A06901280ED013E095ED000A99
:1018C0000521BCEEC00A10EE100A96ED000AC0B267
:1018D00001F0D4FEC4F81890C4F81480C4F818803D
:1018E000C4F81C80E068DFF84CA101280DD1206904
:1018F00001280AD16069012809D000222021504620
:10190000FFF7E6F8A06901286FD078E083E00122B4
:1019100020215046FFF7DCF8606A30B99FED460A97
:101920004648C4F8249080ED000AE069062857DA9A
:10193000401C434E434FE06101280DD195ED000A54
:101940000121D6ED000ABCEEC00A10EE100A97ED98
:10195000000AC0B201F038FDE06902280DD195ED12
:10196000000A0221D6ED000ABCEEC00A10EE100AF1
:1019700097ED000AC0B201F027FDE06903280DD100
:1019800095ED000A0321D6ED000ABCEEC00A10EE68
:10199000100A97ED000AC0B201F016FDE0690428B4
:1019A0000DD195ED000A0421D6ED000ABCEEC00A67
:1019B00010EE100A97ED000AC0B201F005FDE069D3
:1019C00005280DD195ED000A0521D6ED000ABCEEE3
:1019D000C00A10EE100A97ED000AC0B201F0F4FC44
:1019E000E06906288ED1C4F81890C4F82080C4F8A5
:1019F0001480C4F82480C4F81880C4F81C801249EC
:101A00002068884207DD5046C4F80080BDE8F047F2
:101A10002021FFF755B8BDE8F08700000C01002039
:101A2000EA000020EC00002000040040D00000206C
:101A3000DC000020000802400000C842E000002056
:101A4000D8000020D4000020A08601007047704715
:101A500070470000F8B5016804460868CA684B6919
:101A600010F00F0F4FF0000559D003F0010602F4FB
:101A70009077374365D0C10705D0D10503D5616C98
:101A800041F001016164410705D5D90703D0616CBC
:101A900041F002016164810705D5D90703D0616C6B
:101AA00041F004016164010707D502F020013143D0
:101AB00003D0616C41F008016164616C00293AD087
:101AC000800604D5900602D5204600F024FF206849
:101AD0004069616CC0F38010090700D460B32046F0
:101AE00000F0F2FE20684069400621D520681430DD
:101AF00050E8001F21F0400140E80012002AF5D113
:101B0000E06BA8B16E490165E06BFEF7BDFE0028F1
:101B100011D0E06B016D01B0BDE8F04008478306CD
:101B20000FD593060DD52046BDE8F84000F0F3BE72
:101B30002046FFF78DFFF8BD2046FFF789FF65645B
:101B4000F8BD266B2023012E7DD1C6067BD5D60697
:101B500079D508684868009048694FF00206400649
:101B600041D5E16B086840680004000CE8D0A28D04
:101B70008242E5D9E085C869B0F5807F2DD0206824
:101B80000C3050E8001F21F4807140E80012002A58
:101B9000F5D12068143050E8001F21F0010140E821
:101BA0000012002AF5D12068143050E8001F21F0FF
:101BB000400140E80012002AF5D184F84230256344
:101BC00020680C3050E8001F21F0100140E800129E
:101BD000002AF5D1E06BFEF70EFE6663A08DE18D65
:101BE000401A81B22AE0A08DE18D401A81B2E08DC9
:101BF0000028A5D00029A3D022680C3252E8000F9B
:101C000020F4907042E80007002FF5D120681430CE
:101C100050E8002F22F0010240E80027002FF5D104
:101C200084F84230256320680C3050E8002F22F001
:101C3000100240E80023002BF5D166632046FFF731
:101C400006FFF8BDFFE705062BD5150629D594F844
:101C500041002128F5D1A068B0F5805F01D120694D
:101C6000B0B1206A411C2162216800784860E08C94
:101C7000401E0004000CE084E3D12068C16821F01C
:101C80008001C1602068C16841F04001C160D8E7AF
:101C9000206A0088C0F308004860206A801C206227
:101CA000E5E74006CDD55006CBD5CA68204622F0E0
:101CB0004002CA6084F8413000F04EFAC1E70000EB
:101CC000B928000870B5040004D094F8410000253C
:101CD00010B106E0012070BD84F84050204600F0AD
:101CE00023F8242084F841002068C16821F40051C1
:101CF000C160204600F070FE2068016921F4904127
:101D000001612068416921F02A0141612068C168B0
:101D100041F40051C1606564202084F8410084F8DA
:101D200042006563002070BD2DE9F04186B0044695
:101D300014216846FEF77EFA6E49DFF8B4C12368C5
:101D400000246C4A10390325022608276A48634597
:101D50001ED1136843F400231360126802F40022BA
:101D600005920A6842F001020A600968CDE900564E
:101D700001F00101CDE904716946CDE90245FEF7A4
:101D8000A7FD002211463420FEF716FF342038E06C
:101D9000DFF868C1DFF86881634537D1106840F427
:101DA00080101060106800F480100590086840F002
:101DB00004000860086800F004000590086840F01E
:101DC00008000860086802AB00F0080005904FF4B6
:101DD0008050CDE9000683E8B00069464948FEF727
:101DE00077FD0420CDE9000602AB694683E8B00028
:101DF0004046FEF76DFD002211463520FEF7DCFE61
:101E00003520FEF7CBFE06B0BDE8F081DFF8F8C064
:101E10000727634522D1374A121D136843F0100388
:101E20001360126802F0100205920A6842F0010283
:101E30000A60096802AA01F0010105914FF4C0612E
:101E4000CDE9001682E8B0006946FEF741FD0022A8
:101E500011462520FEF7B0FE2520D2E72B4883420D
:101E600020D1106840F400301060106800F4003099
:101E70000590086840F008000860086802AB00F0B0
:101E8000080005906020CDE9000683E8B0006946AF
:101E90004046FEF71DFD002211462620FEF78CFE6F
:101EA0002620AEE71A488342ADD1106840F4802066
:101EB0001060106800F480200590086840F002006F
:101EC0000860086802AB00F0020005904FF4406023
:101ED000CDE9000683E8B00069460E48FEF7F8FC3D
:101EE000002211462720FEF767FE272089E7000021
:101EF000004C0040403802400000024000500040CA
:101F0000000C024000080240001001400044004064
:101F100000480040000402402DE9F84F044690F8C4
:101F200042009A4616460D46202802D00220BDE8FF
:101F3000F88FB5B1AEB100206064222184F8421060
:101F40002063FEF7CBFDA6858146E685A0684FF4A9
:101F500080582027404501D1206920B12E46002518
:101F600029E00120E3E7002625E04B46002220215E
:101F70002046CDF800A000F0D0FD18B184F84270E2
:101F80000320D4E726B1A06840451AD038B108E054
:101F900020684068C0F3080025F8020B08E02069BB
:101FA00078B12068406800F07F0000BF06F8010BA0
:101FB000E08D401EE085E08D0028D6D184F8427087
:101FC000B5E720684068F1E790F84230202B01D057
:101FD0000220704721B11AB10023036300F082BDD3
:101FE000012070472D4930B4CB790022802B00D3DB
:101FF000CA714B79322B00D34A718B79322B00D3C3
:102000008A710B7A322B00D30A724B7A322B00D3AF
:102010004A72234CCA798B78A354521CCA714A79EC
:10202000643C0B78A354521C4A718A7932344B7841
:10203000A354521C8A710A7AB234CB78A354521C2E
:102040000A724A7A32340B79A354521C4A72154AE6
:102050000168914202D1012210491AE0124A9142CC
:1020600003D10E490122491C13E0104A914203D1C9
:102070000A490122891C0CE00D4A914203D107490B
:102080000122C91C05E00B4A914205D103490122F6
:10209000091D30BCFFF798BF30BC7047E40000203A
:1020A000A00400200044004000480040001001400F
:1020B000004C0040005000402DE9F843044690F8E1
:1020C0004100984616460D46202802D00220BDE861
:1020D000F88385B17EB100206064212084F841003E
:1020E000FEF7FCFCA6848146E684A0682027B0F5B4
:1020F000805F02D003E00120E9E7206910B12E469D
:1021000000250EE000260CE08021204600F005FDB1
:10211000A8B9C6B116F8010B21684860E08C401ED2
:10212000E084E08C4B464FF00002CDF800800028A0
:10213000EAD14FF04001204600F0EFFC40B184F8B6
:1021400041700320C3E735F8020BC0F30800E3E752
:1021500084F841700020BAE77047FEE7064B10B5DF
:102160005C78C2F30723D2B214B103700A7010BDB9
:102170000B70027010BD00004C000020F0B587B05D
:1021800014216846FEF756F825480025016841F0FD
:1021900080010160016801F080010591016841F052
:1021A00001010160016801F001010591016841F040
:1021B00004010160016801F004010591016841F02A
:1021C00002010160016801F002010591016841F01E
:1021D000080101600068134E00F00800059000221D
:1021E00020213046FEF774FC0F4F002204213846B0
:1021F000FEF76EFC01242020CDE90004694630463C
:10220000CDE90245FEF764FB0420CDE900046946F0
:102210003846CDE90245FEF75BFB07B0F0BD000094
:1022200030380240000802400004024010B586B079
:1022300000241848009401940294039404944FF0ED
:1022400080410594016040F28F61C0E901144FF4B0
:102250007A71C0E9031480218161FEF7DDFF08B1C6
:10226000FEF7C7FA4FF48050009069460948FFF71F
:1022700085F808B1FEF7BDFA2020CDE9040404A9D1
:102280000448FEF781FF002801D0FEF7B2FA06B03D
:1022900010BD00003401002010B586B0002418489D
:1022A00000940194029403940494144905940160E9
:1022B00040F28F61C0E901144FF47A71C0E9031450
:1022C00080218161FEF7A8FF08B1FEF792FA4FF472
:1022D0008050009069460A48FFF750F808B1FEF7B1
:1022E00088FA2020CDE9040404A90548FEF74CFF34
:1022F000002801D0FEF77DFA06B010BD00040040B2
:102300007C01002010B58EB0002407940894099435
:102310000A940B941C2168460C94FDF78BFF2B4804
:102320002949016040F28F61C0E9011440F2E731B0
:10233000C0E903148461FEF76FFF08B1FEF759FA94
:102340004FF48050079007A92048FFF717F808B10D
:10235000FEF74FFA1D48FFF7AAF908B1FEF749FA50
:102360000B940BA919480C94FEF70EFF08B1FEF769
:1023700040FA6020CDE90004029400226946134827
:102380000494FFF72EF908B1FEF733FA04226946E8
:102390000E48FFF726F908B1FEF72BFA0822694626
:1023A0000A48FFF71EF908B1FEF723FA0C22694626
:1023B0000648FFF716F908B1FEF71BFA0348FFF7C6
:1023C000E5F80EB010BD000000080040C401002078
:1023D0000C4810B50A4901604FF4E1314160002119
:1023E00081600C22C160C0E904128161C161FFF704
:1023F00069FC002803D0BDE81040FEF7FAB910BD13
:10240000004C00400C0200200C4810B50A49016045
:102410004FF416514160002181600C22C160C0E977
:1024200004128161C161FFF74DFC002803D0BDE8B3
:102430001040FEF7DEB910BD0050004054020020ED
:102440000C4810B50A4901604FF4E13141600021A8
:1024500081600C22C160C0E904128161C161FFF793
:1024600031FC002803D0BDE81040FEF7C2B910BD12
:10247000001001409C0200200C4810B50A49016080
:102480004FF4E1314160002181600C22C160C0E95C
:1024900004128161C161FFF715FC002803D0BDE87B
:1024A0001040FEF7A6B910BD00440040E402002031
:1024B0000C4810B50A4901604FF4E1314160002138
:1024C00081600C22C160C0E904128161C161FFF723
:1024D000F9FB002803D0BDE81040FEF78AB910BD13
:1024E000004800402C030020FEE7FEE770477047DD
:1024F000FEF7FABA30B593B030216846FDF79AFE80
:1025000014210CA8FDF796FE1D480025016841F036
:1025100080510160006800F08050119019480168F6
:1025200041F4804101600068022400F48040119071
:1025300001200090000401908001CDE9064008AA26
:102540000420A82182E813000B906846FEF750FC97
:1025500008B172B6FEE70CA90F2081E831004FF4F4
:10256000A0500F904FF48050109005210CA8FEF75A
:1025700055FB002801D072B6FEE713B030BD000055
:1025800040380240007000400248016841F4700188
:102590000160704788ED00E00148FEF75EBF000073
:1025A000340100200148FEF758BF00007C010020E4
:1025B0000148FEF752BF0000C4010020F0B50268D8
:1025C000294C2A4D2A4E2B4F2B4B4FF0804CA042CA
:1025D00009D0604507D0A84205D0B04203D0B84228
:1025E00001D0984204D122F0700E4A6842EA0E02ED
:1025F000A0421BD0604519D0A84217D0B04215D0D8
:10260000B84213D0984211D01C4DA8420ED01C4D98
:10261000A8420BD01B4DA84208D01B4DA84205D0A4
:102620001A4DA84202D01A4DA84203D122F4407597
:10263000CA682A434D6922F080022A4302608A68F0
:10264000C2620A688262A04201D0984201D109693F
:102650000163012141610169C90703D0016921F0CA
:1026600001010161F0BD00000000014000040040D4
:1026700000080040000C0040000401400040014000
:10268000004401400048014000180040001C004088
:102690000020004010B501F01F030121046A994099
:1026A0008C430462016A9A401143016210BD10B567
:1026B000846842EA032224F47F440A43224382606E
:1026C00010BD826822F070020A4342F00701816067
:1026D00070470000F0B5036A026A22F0010202624C
:1026E00042688469124E24F073050C682C4323F071
:1026F00002058B682B430D4DA84201D0B04205D195
:1027000023F00807CB683B4323F00403A84201D021
:10271000B04205D14D6922F4407215438A692A43BB
:1027200042608461496841630362F0BD000001407A
:1027300000040140F0B5026A036A23F0100303624B
:10274000436884690D6824F4E64444EA05248D68EE
:1027500022F0200242EA05120F4D104EA84201D08D
:10276000B04206D1CF6822F0800242EA071222F07E
:102770004002A84201D0B04207D14D6923F4406322
:1027800043EA85038D6943EA8503436084614968B0
:1027900081630262F0BD00000000014000040140BE
:1027A000F0B5026A036A23F4807303624368C46964
:1027B00022F4007224F073050C68124E2C438D68CD
:1027C00042EA05220E4DA84201D0B04206D1CF68A0
:1027D00022F4006242EA072222F48062A84201D079
:1027E000B04207D14D6923F4405343EA05138D6984
:1027F00043EA05134360C4614968C1630262F0BDE6
:10280000000001400004014030B5046A026A22F46D
:10281000805202624268C3690D6823F4E64343EACA
:1028200005238D6824F4005444EA0534084DA84279
:1028300002D0084DA84204D14D6922F4804242EAF8
:1028400085124260C36149680164046230BD0000C2
:10285000000001400004014010B5036A046A24F03E
:1028600001040462846924F0F00444EA021423F0B1
:102870000A020A438461026210BD10B5036A046A49
:1028800024F010040462846923F0A00324F470444B
:1028900044EA023243EA01118261016210BD000084
:1028A0000148FFF7D7B800000C0200200148FFF7ED
:1028B000D1B800005402002010B5806B0021C18502
:1028C000C184FFF7C5F810BD01680C3151E8002F35
:1028D00022F4907241E80023002BF5D101681431F5
:1028E00051E8002F22F0010241E80023002BF5D12E
:1028F000016B012909D101680C3151E8002F22F048
:10290000100241E80023002BF5D1202180F842106D
:1029100000210163704708B590F84210222901D0C8
:10292000022008BD82684FF480539A4201D10169A8
:1029300021B1816A9A421BD04AB10AE00268816AD9
:102940005268C2F308020A80816A891C08E00269A1
:1029500072B10268526802F07F020A70816A491CF3
:102960008162C18D491E0904090CC18503D01BE099
:1029700002685268F1E70168CA6822F02002CA6062
:102980000168CA6822F48072CA6001684A6922F04C
:1029900001024A61202180F8421000214163026B4C
:1029A000012A03D0FFF71EFB002008BD0163016868
:1029B0000C3151E8002F22F0100241E80023002BD7
:1029C000F5D101680A68D20602D50A684968009103
:1029D000818DFFF73CF8E7E770B5044600680169B0
:1029E000E26821F44051114301612169A068E26964
:1029F00008436169114308432168CA6849F20C63BE
:102A00009A430243CA6020684169A26921F4407177
:102A10001143416131492068884202D030498842DF
:102A200002D1FEF7A5F901E0FEF792F9E269002371
:102A3000192164253226B2F5004F626828D0A0FB28
:102A40000101930F9200FDF7BDFB0146B0FBF5F0CD
:102A50006FF01802504301EB800006EB0010B0FB52
:102A6000F5F000F0F002B1FBF5F002EB0012B1FB63
:102A7000F5F06FF01803584301EB800006EB0010EF
:102A8000B0FBF5F000F00F0021681044886070BDC5
:102A9000A0FB010192185B41FDF794FB0146B0FBDE
:102AA000F5F00201B1FBF5F06FF01803584301EBAC
:102AB000800006EBC000B0FBF5F000F0F80002EB80
:102AC0004002B1FBF5F0584301EB800006EBC0007B
:102AD000B0FBF5F000F00700D6E700000010014061
:102AE0000014014081628285C28500214164222157
:102AF00080F84210016921B10168CA6842F480720D
:102B0000CA6001684A6942F001024A610068C1680E
:102B100041F02001C160002070472DE9F84398463C
:102B200017460D460446089E24E0701C22D0FDF78F
:102B3000D5FFA0EB0800B0421AD8CEB12068C1681A
:102B4000490717D5802D15D0402D13D00168C943F2
:102B500009070FD401680025406800902046FFF760
:102B6000B3FE0820606484F840500120BDE8F8837B
:102B70000320FBE72068006835EA000004D000204D
:102B8000B842D2D00020F1E70120F9E7034880796C
:102B9000002801D000F00EB870470000E4000020CB
:102BA0000348007A002801D000F0D6B97047000031
:102BB000E40000202DE9F047CE4F2DED108BB879C1
:102BC00000286FD0CC48CD4B012404601A68CC4952
:102BD000022A09DACB4D00200E5C45F82060401C2B
:102BE0000628F9DB521C1A60C7480068C44A01284D
:102BF00015780DD1C548012D04D0022D04D0032D28
:102C000004D005E0046003E0022200E00322026039
:102C1000BB48BF4BBF4A4078F0EE00FA9FEDBEFACA
:102C20001C684FF00008012C03D1012D06D0022DA5
:102C300013D0272D24D0282D25D026E00A2802D90C
:102C4000B2EE040A19E0022802D2C2ED00FA1CE03A
:102C500000EE100AB8EE400A0FE00A2802D9BAEED8
:102C6000040A0AE0022802D2B8EE000A05E000EEEB
:102C7000100AB8EE400AB1EE400A82ED000A04E004
:102C800082ED00FA01E0C3F80080DFF890A2A44EC4
:102C9000A44CDAF80020012A7ED1012D03D0022DA8
:102CA00006D00DE022E100EE100AB8EE400A05E081
:102CB00000EE100AB8EE400AB1EE400A86ED000AB6
:102CC0008F488978C078012902D0022905D00CE00C
:102CD00000EE100AB8EE400A05E000EE100AB8EE69
:102CE000400AB1EE400A84ED000A3068FDF7D3FBDC
:102CF0009FED8D9B53EC192BFDF74EFBFDF7DEFB93
:102D000008EE100A2068FDF7C6FB53EC192BFDF7FF
:102D100043FBFDF7D3FB38EE080A08EE900A87ED77
:102D2000048AC7ED078AB0EE409A08EE6F0A87ED75
:102D3000058AC7ED088A87ED068AC7ED098A10EE75
:102D4000100AFDF7A8FB9FED7ABB53EC1B2BFDF798
:102D500023FB9FED79CB53EC1C2BFDF71DFB39EECC
:102D6000080A41EC1A0B10EE100AFDF794FB9FEDD8
:102D700074DB53EC1D2BFDF70FFB41EC190B18EE28
:102D8000100AFDF788FB9FED70EB53EC1E2BFDF74F
:102D900003FB53EC192B00E090E0FDF756FA53ECDF
:102DA0001A2BFDF752FAFDF789FB38EEA80A814687
:102DB000306008EEEF0A10EE100AFDF76CFB53ECE2
:102DC0001B2BFDF7E9FA53EC1C2BFDF7E5FA38EE67
:102DD000880A41EC190B30EE080A10EE100AFDF7D4
:102DE0005AFB53EC1D2BFDF7D7FA41EC1A0B18EEEA
:102DF000900AFDF750FB53EC1E2BFDF7CDFA53EC78
:102E00001A2BFDF722FA53EC192BFDF71EFAFDF7EA
:102E100055FB4F4AB1EE040A2060914501DD86ED75
:102E2000000A904201DD84ED000A4A483168B9EE9B
:102E3000040A814201D986ED000A2168814201D944
:102E400084ED000A96ED000A4FF07C5110EE100A56
:102E5000F6EE000A884206DAB5EEC00AF1EE10FA84
:102E600001DDC6ED000A94ED000A10EE100A88425A
:102E700006DAB5EEC00AF1EE10FA01DDC4ED000A83
:102E800096ED000A4FF03F4110EE100AFEEE000AE8
:102E9000884206D2B5EEC00AF1EE10FA01D2C6EDB4
:102EA000000A94ED000A10EE100A884206D2B5EE30
:102EB000C00AF1EE10FA01D2C4ED000A172D02D0BB
:102EC000182D0ED003E086ED00FA84ED00FA87F8A5
:102ED00006803221BDEC108BBDE8F0470848FDF7B5
:102EE000A9B9CAF80080C7F80C80ECE7BDEC108BDC
:102EF000BDE8F087E4000020200100203800002019
:102F00006E04002020000020140000201800002083
:102F100014010020DC000020000000001801002047
:102F2000D4000020D80000209A9999999999B93F26
:102F30007B14AE47E17A843F000000000000E03FD0
:102F4000333333333333D33F333333333333F33FD9
:102F50000000A0400000A0C010B5184C217A002944
:102F60002AD00020164A07E0135C552B03D1131812
:102F70005B78532B02D0401C8842F5DB884213DA81
:102F80001044C088FDF77AFA9FED0E1B53EC112B0D
:102F9000FDF702FA9FED0D1B53EC112BFDF7FCF929
:102FA000FDF78CFA0B49086000202072BDE8104044
:102FB00032210348FDF73EB910BD0000E4000020B7
:102FC0002005002000000000008066400000000096
:102FD0000000003F000000200148FEF73BBD00005C
:102FE0009C0200200148FEF735BD0000E4020020ED
:102FF0000148FEF72FBD00002C030020F0B585B07E
:10300000054602262020CDE9000600240320CDE954
:10301000024007200E4F049069463846FDF758FCE1
:103020004020CDE9000669463846FDF751FC0A49C3
:1030300008480860C1E901540C20CC60C1E9044093
:103040008C610846CC61FEF73DFE05B0F0BD000086
:10305000000C024000440040F403002010B5134669
:103060000C460A4601460448FEF756FF08B1002008
:1030700010BD20B210BD0000F40300200A46014636
:103080004FF0FF330148FFF717B80000F4030020AA
:10309000FEE77CB515460646002903DA484240F4AF
:1030A000004001B26C460A46601C8DF80030411C9D
:1030B000FFF754F80022211DE01CFFF74FF82A46C5
:1030C000A11D601DFFF74AF807236A4629213046F3
:1030D00000F078F87CBD0907090E002804DB00F138
:1030E000E02080F80014704700F00F0000F1E020AD
:1030F00080F8141D704702E008C8121F08C1002A9A
:10310000FAD170477047002001E001C1121F002A68
:10311000FBD170470448322340F6FF72008F01B2A2
:10312000042000F04DB8000068000020044832235D
:1031300040F6FF72808F01B2042000F041B8000019
:103140006800002038B5002425460121684600F0BB
:103150008DFA00280FD09DF80010E0B260F30F2424
:1031600061F30704FF2901D1FF2805D06D1CEDB2E2
:103170000A2DEAD9002038BD012038BD0448322389
:103180004FF4FA62808D01B2022000F019B80000FD
:1031900068000020044832234FF4FA62008E01B226
:1031A000022000F00DB8000068000020034902482A
:1031B000096840688863704768000020C4010020E7
:1031C000FFF767BFF8B51C4615460E46074600F0E8
:1031D0004BFA0320009023462A463146384600F039
:1031E0004BFB00F02BFB3846BDE8F840FDF786BAF4
:1031F0002DE9F047054600F0DBFA012000F02EFB38
:10320000FFF788FF00F0F6F900F022FA4FF47A7425
:103210002046FDF74BFBFFF7BDFF2046FDF746FBC1
:1032200000F0FEF94FF448773846FDF73FFBFFF713
:10323000BDFF00F001FA4FF4FA794846FDF736FB7E
:10324000244C40F6FF7840F2DC56012D04D0022DCC
:1032500007D0032D0AD01FE03223424634F8500F26
:1032600008E03223424634F85C0F03E034F8440FA0
:103270003223424601B20220FFF7A2FFA088642356
:1032800001B232460320FFF79BFF2089322301B2AF
:1032900042460420FFF794FF4FF49660FDF706FBCB
:1032A00000F0B2F94FF4E160FDF700FB00F0A2F985
:1032B0004846FDF7FBFA00F0CBF94FF4C870FDF774
:1032C000F5FAFFF75BFFFFF725FF3846BDE8F0474B
:1032D000FDF7ECBA68000020FDF70EFCFFF70AF9D5
:1032E000FEF74CFFFFF7ACF8FFF7C6F8FFF7E0F882
:1032F000FEF79CFFFEF7D0FFFFF704F8FFF784F816
:10330000FFF766F8012227492748FEF75DFE0122F4
:1033100026492748FEF758FE012226492648FEF78F
:1033200053FE2648FDF7EAFF2548FDF7E7FF002199
:103330002448FEF7EBF904212248FEF7E7F90821BB
:103340002048FEF7E3F90C211E48FEF7DFF900F0F4
:1033500047F94FF47A60FDF7A9FAFFF7E7FE01207D
:1033600000F07CFA00F074F9FFF708FF00F042F972
:103370004FF47A742046FDF799FAFFF717FF00F033
:1033800043F941F27070FDF791FA0220FFF730FF28
:103390000120FFF72DFF0320FFF72AFF2046FDF74E
:1033A00085FAFBE7E50000202C030020E700002061
:1033B0000C020020E800002054020020340100200C
:1033C0007C010020C401002070EE602A30EE202A2B
:1033D000B5EEC00A0122FCEEE21ABCEEC21A08B534
:1033E000F1EE10FA37DBF5EEC00AF1EE10FA32DB3F
:1033F00030EE600A0629B1EE400ABCEEC00A29D2BE
:10340000DFE801F02803070B18E911EE101A00920B
:103410007BE011EE101A00928AE0F5EEC02AF1EE80
:1034200010FA03DB11EE901A0092BEE010EE101AB3
:1034300000925AE0F5EEC02AF1EE10FA04DB00BF6C
:1034400011EE901A0092C1E010EE101A009250E0B6
:10345000FDF7B0F908BDB5EEC00AF1EE10FA24DBB5
:10346000F5EEC00AF1EE10FA1FD20629F2D2DFE81B
:1034700001F00504030613B2E2E7D3E7EAE7B5EE8D
:10348000C02AF1EE10FAC0DAB1EE420A0092BCEEA8
:10349000C00A10EE101A3EE0B5EEC02AF1EE10FAA6
:1034A000B7DA11EE101A009248E070EEC01AB5EECD
:1034B000C00ABCEEE11AF1EE10FA44D2F5EEC00AF1
:1034C000F1EE10FA3FDB70EE801A70EE800A0629EA
:1034D000BCEEE00AF1EE600AFCEEE00ABAD2DFE8E8
:1034E00001F0035D6E0C1F7AB4E78AB20346012136
:1034F0005EE08AB2034600216BE0F5EEC01A00924E
:10350000F1EE10FA05DB10EE101A03468AB2002124
:1035100004E010EE901A03468AB20121012097E7D9
:10352000F5EEC01A0092F1EE10FA05DB10EE101A5B
:1035300003468AB2012104E010EE901A03468AB2D3
:103540000021042084E7B5EEC00AF1EE10FA81D222
:10355000F5EEC00AF1EE10FA90D2B1EE402A30EE4C
:10356000C00A32EE602A0629B1EE400ABCEEC22A39
:10357000BCEEC00AB8D2DFE801F00304080C1D2E2F
:1035800068E712EE101A0092C5E712EE101A0092C8
:10359000D4E7F5EEC01AF1EE10FA03DB11EE101AC3
:1035A0000092A2E710EE101A009203468AB20021A0
:1035B00002204DE7F5EEC01AF1EE10FA03DB11EE32
:1035C000101A009295E710EE101A009203468AB284
:1035D000012103203CE7BDE808400020FDF7D4B8F6
:1035E0004FF4E130FFF70ABD4FF4FA70401E80B28D
:1035F000FCD2704703490248096800688863704735
:1036000068000020C40100200448322340F6FF7205
:10361000008C01B20120FFF7D3BD0000680000203C
:103620000448322340F6FF72008B01B20120FFF7FD
:10363000C7BD0000680000200448322340F6FF7236
:10364000008D01B20120FFF7BBBD00006800002023
:103650000448322340F6FF72808C01B20120FFF74C
:10366000AFBD000068000020FFF7BEBF024A89B26C
:103670005268FFF7F3BC0000600000204B4A08B519
:10368000D2ED000AB5EEC00A0120FCEEE00AF1EE30
:1036900010FA30DDBCEEC00A062919D2DFE801F0CD
:1036A00018030C192264009010EE900A0121C3B295
:1036B00010EE100A82B237E0009010EE900A01215D
:1036C000C3B210EE100A82B238E000BFFDF772F804
:1036D00008BD009010EE900A0121C3B210EE100A4E
:1036E00082B235E0009010EE900A0121C3B210EED4
:1036F000100A82B236E0B5EEC00AF1EE10FA38D206
:10370000B1EE400A0629BCEEC00AE1D2DFE801F0C2
:1037100003040E18222CDBE7009010EE900A002123
:10372000C3B210EE100A82B20120CFE7009010EE73
:10373000900A0021C3B210EE100A82B20220C5E73F
:10374000009010EE900A0021C3B210EE100A82B26F
:103750000320BBE7009010EE900A0021C3B210EEE8
:10376000100A82B20420B1E7BDE808400020FDF74E
:103770000BB8B5EEC00AF1EE10FAA9D101290BD0B1
:1037800002290CD003290DD00429A1D10121042044
:10379000BDE80840FCF7E0BF01210846F8E7012139
:1037A0000220F5E701210320F2E70000D00000200D
:1037B0000849074A0128096805D0022805D00328CE
:1037C00005D1106902E0906800E0D068C8637047D6
:1037D00068000020C401002008B50021ADF80010E9
:1037E0000A49C0F3080048604FF4FA5209E000BFEC
:1037F000BDF80000401CADF80000BDF8000090428C
:1038000002D808680006F3D508BD0000001001408A
:1038100038B5054600200C468DF800008DF80000F4
:103820009DF80000A04208D29DF80000285CFFF738
:10383000D3FF9DF80000401CF0E738BD10B5054CE3
:103840002178002904D00448FFF718FC00202070DC
:1038500010BD00006000002074030020012808D182
:10386000044832234FF4FA62808E01B20320FFF73E
:10387000A7BC7047680000202DE9FF478046DDF8AF
:1038800030904FF000008DF808004FF0FF008DF8E9
:1038900000008DF801001C4615000F464FF002068F
:1038A0008DF802808DF8049007D0E01CC6B28DF828
:1038B00003608DF80570062102E08DF80360052194
:1038C000684600F023F808EB060101EB09003844D4
:1038D0008DF808007DB1002107E0685C9DF80820A4
:1038E000491C10448DF80800C9B2A142F5D3214605
:1038F000284600F00BF89DF808000121C0438DF820
:10390000080002A800F002F8BDE8FF8730B5074BB9
:10391000074C07E01A78802A04D210F8015BA554FE
:10392000521C1A70491EF5D2187830BD6000002074
:1039300074030020000000000000000001020304E6
:103940000607080900000000010203046C390008A2
:103950000000002034010000A4060008DC39000843
:103960003401002054080000063100082134B4421C
:10397000C8632003E308073202291B5A010C2908F7
:10398000592B390C82103B24F41001143264325844
:10399000324A32193245327223F10B1A7D701A24E1
:1039A0000823D50F239E051ADC041A7F1432E62360
:1039B0003D091A850C1A9D591AF4042318061A2D6C
:1039C000101AFE0823CA081A3B381A261029302973
:0C39D0002C292831021C400916A4012CEF
:040000050800018965
:00000001FF
